:100000000EC100003DC100003BC1000039C100002D
:1000100037C1000035C1000033C1000031C100000C
:100020002FC100002DC100002BC1000029C100001C
:1000300027C1000025C1000023C1000021C100002C
:100040001FC100001DC100001BC1000019C100003C
:1000500017C1000015C1000013C100000C947328E3
:100060000FC100000C94241E0C94FB1D09C100005C
:1000700007C1000005C1000003C1000001C100006C
:10008000FFC00000FDC00000FBC00000F9C0000080
:10009000F7C00000F5C00000F3C00000F1C0000090
:1000A000EFC00000EDC00000EBC00000E9C00000A0
:1000B000E7C00000E5C00000E3C00000E1C00000B0
:1000C000DFC00000DDC00000DBC00000D9C00000C0
:1000D000D7C00000D5C000000C94D21D0C94A91DFF
:1000E000CFC00000AA0DAD0D9C0DA00DA40DE40D18
:1000F000B10DB50DBB0DBF0DC30DC90DCD0DD10D8E
:10010000E40DD70DDB0DDF0D6364696E6F707375E1
:1001100078585B0000000A0B02090C0D0E0807035B
:1001200004010000000000000000000000000000CA
:1001300000000000000000000000000000000000BF
:10014000121110000000000000000000000000007C
:100150000000000000000000000000002200250058
:1001600028002B002E0031003400020100000501A0
:1001700008010B0100002100240027002A002D00A7
:100180003000330001010000040107010A010505E8
:100190000505070508080808020202020A0A0808FD
:1001A000040404040101010101010101030303032B
:1001B00003030303040707070C0C0C0C0C0C0C0CBA
:1001C0000202020206060606060606060B0B0B0BCB
:1001D0000B0B0B0B010210202008081020401020F0
:1001E00040800201020108040201010204081020FB
:1001F00040808040201008040201800402018040F9
:100200002010080402010804020101020408102061
:1002100040800102040810204080F9323B30112454
:100220001FBECFEFD1E2DEBFCDBF00E00CBF15E0B7
:10023000A0E0B2E0EAE2F9E700E00BBF02C00790FD
:100240000D92A035B107D9F728E0A0E5B5E001C0CF
:100250001D92AE37B207E1F711E0CEE0D1E000E049
:1002600006C021970109802FFE010E94E834CD309D
:10027000D10780E00807A9F70E943F300C94843C26
:10028000BFCEDC01ED91FC91048CF58DE02D19952C
:1002900091E089270895862F089581E086270895A3
:1002A00080E3FB0180833296842F82958F7090E1EA
:1002B000899F401911244A3014F4405D01C0495C03
:1002C0004293482F8111F0CF0895CB010895CF9329
:1002D000DF93EC01E881F9810288F389E02D19951B
:1002E0008F3F2FEF920731F02D813E812F5F3F4FDF
:1002F0003E832D83DF91CF9108958FEF9FEF089577
:1003000060E070E0CB01089580E090E00895CB01BB
:100310000895CF93DF93EC0188899989DC01ED91F1
:10032000FC910480F581E02D1995892B59F088897D
:100330009989DC01ED91FC910680F781E02DDF9138
:10034000CF9119948FEF9FEFDF91CF910895CF93C5
:10035000DF93EC0188899989DC01ED91FC9104809F
:10036000F581E02D1995892B59F088899989DC014F
:10037000ED91FC910084F185E02DDF91CF911994EE
:100380008FEF9FEFDF91CF910895AF92BF92CF9201
:10039000DF92EF92FF920F931F93CF93DF9300D0E2
:1003A0001F92CDB7DEB78C015B01C12CD12C760139
:1003B000F80180899189DC01ED91FC910680F7813B
:1003C000E02D29833A834B835C83199529813A81F7
:1003D0004B815C818F3F71F0C216D306E406F506AF
:1003E0004CF4D5018D935D01BFEFCB1ADB0AEB0A0C
:1003F000FB0ADECFC701B6010F900F900F900F9050
:10040000DF91CF911F910F91FF90EF90DF90CF90F0
:10041000BF90AF900895DC0150968D919C915197BB
:10042000DC01ED91FC910480F581E02D199480E0D0
:1004300090E0089580E090E0089580E090E00895D5
:1004400080E090E008950895CF92DF92EF92FF92BE
:100450000F931F93CF93DF93EC018B010E94851EB6
:100460006B017C0188819981DC01ED91FC91048014
:10047000F581E02D1995892B79F40E94851EAB0139
:10048000BC014C195D096E097F0948395A43610561
:10049000710540F380E00CC088819981DC01ED9109
:1004A000FC910680F781E02D1995F801808381E0A9
:1004B000DF91CF911F910F91FF90EF90DF90CF9040
:1004C00008950F931F93CF93DF938C01EB016F3F40
:1004D0008FEF780719F480E090E00FC06A3031F4B4
:1004E0006DE0F801808991890E9434306C2FF80109
:1004F000808991890E943430CE01DF91CF911F9184
:100500000F9108958F929F92BF92CF92DF92EF92B8
:10051000FF920F931F93CF93DF9300D01F92CDB71D
:10052000DEB78C014B01C12CD12C7601C216D3064B
:10053000E406F50644F5F401B1904F01FAE0BF126C
:100540000EC06DE0F8018089918929833A834B833D
:100550005C830E9434305C814B813A8129816B2D10
:10056000F8018089918929833A834B835C830E94B7
:100570003430FFEFCF1ADF0AEF0AFF0A5C814B81AC
:100580003A812981D3CFCA01B9010F900F900F9002
:100590000F90DF91CF911F910F91FF90EF90DF901F
:1005A000CF90BF909F908F9008950C948C350C94B1
:1005B0008C35089508950C948C35DC01ED91FC91F7
:1005C000369720813181820F931FF5CF0C948C35A3
:1005D00008958CBD9DBD0895CF92DF92FF920F9339
:1005E0001F93CF93DF93FC012485243009F076C05C
:1005F0006A01EB018C01F12C8F2D0E94D71A811119
:1006000003C0F801F48607C08B7F8831D1F3F394DF
:10061000F4E0FF12F1CFF8018485843009F45EC064
:1006200020910002309101022F5F3F4F11F420E032
:1006300030EC30930102209300024091000250916F
:10064000010220E061E00E943D2BF801F4848A81E0
:100650008F3F51F48B818F3F91F48C818F3F79F4E0
:100660008D818F3F61F437C0811109C08B81811169
:1006700006C08C81811103C08D81882361F1C11472
:10068000D10449F180E590E0A4DFBE016E5F7F4FA9
:100690008F2D90E0982F882744E050E0845F9B4F97
:1006A0000E94F72AB6018F2D0E944F1B64E070E074
:1006B0008F2D0E94BD28C8010E94111C873189F02E
:1006C00061E070E080E090E00E944D1EC8010E9451
:1006D000111C8111F0CF84E0F801848780E090E064
:1006E00002C081E090E0DF91CF911F910F91FF90C8
:1006F000DF90CF9008952F923F924F925F926F922A
:100700007F928F929F92AF92BF92CF92DF92EF92A1
:10071000FF920F931F93CF93DF93CDB7DEB765970B
:100720000FB6F894DEBF0FBECDBF7C016B013A015E
:10073000FB0120E080E090E06AE03191332309F191
:1007400040ED430F4A3080F4689FA001699F500D2F
:100750001124CA01C097830F911D37FD9A958F3FD1
:10076000910559F350F313C03E3289F4233079F0E8
:10077000D301A20FB11D12968C932F5F80E090E001
:10078000DCCF233021F4F301858381E021C0F70120
:10079000428153816481758180914D0790914E070C
:1007A000A0914F07B0915007481759076A077B0778
:1007B00009F49EC10E94851E8701085F1F4F6F705C
:1007C00077277C5FC8010E94EF1A813019F080E022
:1007D00090E0F3C18CEA93E09A838983F7018281E8
:1007E0009381A481B5818B839C83AD83BE8345E3D4
:1007F00050E0BE016F5F7F4FC8010E94D21B892B62
:1008000019F4C12CD12C6FC10E94851EF70177838A
:1008100066837627672776277A83698342E050E0EC
:10082000BE016F5F7F4FC8010E94D51981E090E043
:100830009E878D8742E050E0BE01635F7F4FC80115
:100840000E94D51980E091E09E878D8742E050E0BC
:10085000BE01635F7F4FC8010E94D5191E861D86A9
:1008600042E050E0BE01635F7F4FC8010E94D5198E
:1008700042E050E0BE01635F7F4FC8010E94D5197E
:1008800042E050E0BE01635F7F4FC8010E94D5196E
:100890005601F5018081882311F1F6015F018191F4
:1008A000811115C045018C189D081814190494F481
:1008B0008F8641E050E0BE01615F7F4FC8010E941A
:1008C000D519A401B601C8010E94D51903C08E3202
:1008D00029F7E8CF6501FFEFCF1ADF0ADACF1F86CD
:1008E00041E050E0BE01615F7F4FC8010E94D51911
:1008F000C12CDD24D394DE86CD8642E050E0BE01DB
:10090000635F7F4FC8010E94D519DE86CD8642E025
:1009100050E0BE01635F7F4FC8010E94D519C80136
:100920000E941B1B892B09F46CCF63E0A62EB12C0F
:10093000F2E06F0E711C0E94851E1B012C01C80184
:100940000E947C1918161906A4F00E94851EDC016D
:10095000CB0182199309A409B50989389341A105EE
:10096000B105D0F462E370E080E090E00E944D1E9B
:10097000E6CFF7014281538164817581808D918D2D
:10098000A28DB38D481759076A077B0741F4848D00
:10099000958DC59721F406C02FEF3FEF9AC02EEF3B
:1009A0003FEF97C0F70181A192A10C970CF4A6C06C
:1009B0004CE050E0BE016F5F7F4FC8010E943419C8
:1009C0008B8190E0982F88272C81822B9A8B898BA2
:1009D000298130E0322F22274A81242BF7014681DA
:1009E00057814217530709F086C097FF84C08F7064
:1009F0009270892B09F0DEC0CF80D12CDC2CCC2466
:100A00008885C82AC114D10409F4D1C0812C912C45
:100A10008D8190E0982F88272E81822B8816990649
:100A200008F46FC0812C912C41E050E0BE016D5E56
:100A30007F4FC8010E9434198B89982F907C09F050
:100A400093C0811186C08B898111EECF42E050E0C6
:100A5000BE01615F7F4FC8010E94341942E050E03F
:100A6000BE01635F7F4FC8010E943419C8010E9414
:100A70005319C8010E945319C8010E945319C80193
:100A80000E94531942E050E0BE016F5E7F4FC801E3
:100A90000E9434198F8598898115914009F069C0A9
:100AA0002D853E853227232732272130310509F055
:100AB00060C089899A898115944009F075C044E025
:100AC00050E0B301C8012C8B3D8B0E9434192C8956
:100AD0003D896901F1E0AF1AB10829F02FEFC21684
:100AE000D20609F428CFC8010E949D1AC60165C02C
:100AF0008EEF9FEF62C02CEF3FEFEBCF2DEF3FEF7C
:100B0000E8CF41E050E0BE01635F7F4FC8010E9423
:100B100034198D85811113C08D858111F2CFC801E3
:100B20000E945319C8010E945319C8010E94531909
:100B3000C8010E945319FFEF8F1A9F0A69CF8D8554
:100B40009FEF980F9D87882339F3C8010E9453199E
:100B5000F6CF8B899FEF980F9B8B882309F473CF77
:100B6000C8010E945319F5CFC8010E9453191B8A6E
:100B70006ACF412C512C89899A89982789279827EF
:100B80004816590638F4C8010E9453198FEF481AC5
:100B9000580AF1CFEFEF8E1A9E0A8C149D0409F0CB
:100BA00043CF26EF3FEF95CF27EF3FEF92CF2AEFCE
:100BB0003FEF8FCF2BEF3FEF8CCF65960FB6F894BA
:100BC000DEBF0FBECDBFDF91CF911F910F91FF9080
:100BD000EF90DF90CF90BF90AF909F908F907F90DD
:100BE0006F905F904F903F902F900895CF92DF923B
:100BF000EF92FF920F931F93CF93DF93CDB7DEB7A2
:100C0000AF970FB6F894DEBF0FBECDBF7C016A016F
:100C10000CEA13E01A8309831C861B8688EE93E096
:100C2000A0E0B0E08D879E87AF87B88B8DE392E020
:100C30009A878987188F0F8B198E1A8E1B8E1C8EA0
:100C400084E089A31DA30CA31EA21FA218A619A6A7
:100C50008091450790914607A0914707B0914807BA
:100C60008CA79DA7AEA7BFA78B839C83AD83BE83B4
:100C700018861F82AE014C5D5F4FCE0101963BDDB1
:100C800081309105B1F4D701ED91FC910484F58593
:100C9000E02D1BA70AA78EA19FA1A8A5B9A58CA787
:100CA0009DA7AEA7BFA7A601BE01665D7F4FC70186
:100CB0001995AF960FB6F894DEBF0FBECDBFDF918A
:100CC000CF911F910F91FF90EF90DF90CF900895FB
:100CD0002F923F924F925F926F927F928F929F924C
:100CE000AF92BF92CF92DF92EF92FF920F931F933A
:100CF000CF93DF93CDB7DEB7E3970FB6F894DEBF9F
:100D00000FBECDBF7C011A012B0139010E94851E47
:100D10004B015C0187010D5B1F4FC8010E947C19CC
:100D200018161906A4F00E94851EDC01CB01881953
:100D30009909AA09BB09281639064A065B06D8F0A4
:100D400062E370E080E090E00E944D1EE6CF42E258
:100D500050E0BE016F5F7F4FC8010E943419898146
:100D6000823011F080E061C1F80184899589833473
:100D70009105C1F702C08FEF58C16D817E818F81CF
:100D800098850E94F0344B015C01F301608371830C
:100D90008283938346E050E0B701685F7F4FCE01C6
:100DA0004D960E942836892BE9F6F70180819181C2
:100DB000A281B38188169906AA06BB0698F284819F
:100DC0009581A681B78188159905AA05BB0550F2C2
:100DD00089899A89AB89BC8986879787A08BB18BD3
:100DE0008EECA82EB12CC8010E945319F1E0AF1A65
:100DF000B108C9F719A6670182E2C80ED11CF70134
:100E0000B696FBA7EAA7C7018A969DA78CA73C9731
:100E10004F0189969FA78EA73897F9ABE8AB1701CA
:100E2000F6E12F0E311CC5979BAB8AABF801818D83
:100E3000928D181619060CF0F7C0C8010E945319BC
:100E40008333910509F4CBC0FCF481309105C9F1DD
:100E50001CF4892B59F3DCC083309105D1F106973E
:100E600009F0D6C0C8010E9453195C0144E050E06B
:100E70006AA97BA9C8010E943419412C512CBB24BA
:100E8000F4E0AF1AB10840C08A33910509F47BC081
:100E90003CF48533910569F0C69709F440C0B8C0A9
:100EA0008B33910509F485C08F3F910509F4BECFBE
:100EB000AFC0C8010E945319C8010E94531989A7E5
:100EC000B5CFC8010E94531944E050E068A979A940
:100ED0003AC0C8010E9453195C0144E050E0B101DE
:100EE000C8010E943419412C512CBB2494E0A91A4A
:100EF000B1084A145B040CF099CFC8010E94531941
:100F0000EFEF4E1A5E0AF5CF4A145B040CF08ECF59
:100F1000C8010E9453198FEF481A580AF5CFC8012B
:100F20000E945319B82EF701828D811110C0838D54
:100F300081110DC0848D81110AC0858D811107C07A
:100F400044E050E0B401C8010E9434196FCFEEA50F
:100F5000FFA54080518062807380B401CE018396EA
:100F60000E94991D8DA19EA1AFA1B8A584159505DC
:100F7000A605B70529F3BB2009F458CFC8010E9484
:100F80005319BA94F8CFC8010E94531944E050E0B5
:100F90006AA57BA5C8010E943419F70166A177A153
:100FA00080A591A50E94F03466A377A380A791A79E
:100FB0003DCFC8010E94531944E050E06CA57DA5C7
:100FC000C8010E943419F70162A573A584A595A5EF
:100FD0000E94F03462A773A784A795A727CFC80102
:100FE0000E94531944E050E0B601C8010E94341930
:100FF000F70162A173A184A195A10E94F03462A3BC
:1010000073A384A395A366A777A780AB91AB0ECFFC
:10101000C8010E945319B82EBB2009F407CFC8019C
:101020000E945319BA94F8CF89A5E3960FB6F894A5
:10103000DEBF0FBECDBFDF91CF911F910F91FF900B
:10104000EF90DF90CF90BF90AF909F908F907F9068
:101050006F905F904F903F902F9008957F928F9266
:101060009F92AF92BF92CF92DF92EF92FF920F9337
:101070001F93CF93DF93CDB7DEB7A6970FB6F89443
:10108000DEBF0FBECDBF8C01762E942E852E20E2C2
:10109000B22ECE0101967C01FC012B2D11922A95D6
:1010A000E9F78CEA93E09AA389A38FEF8BA38CA333
:1010B0008DA38EA3680183E4C80ED11C43E450E0E5
:1010C000BE016F5D7F4FC6010E94D21B019609F4DD
:1010D000BCC081E089838A8386E0A82EAB821C8213
:1010E000F80164817581868197810E94F0346D8357
:1010F0007E838F83988789869A8680E890E09C8794
:101100008B874CE150E0B701C6010E94D519F70169
:101110002B2D11922A95E9F7480188E0880E911C41
:10112000F401D70101900D92AA94E1F740E150E05B
:10113000B701C6010E94D519F7011192BA94E9F7D7
:1011400096E0A92EB12C40E250E0B701C6010E9402
:10115000D519F1E0AF1AB108B1F783E6898392E8B7
:101160009A8393E59B838C8385E38D8381E08E83D3
:101170007F829DE3988797E099878A8786E0F401CC
:10118000DE011B9601900D928A95E1F78CE0898B28
:101190008A8B6CE474E0CE0143960E944636F801D7
:1011A0004385BE01675E7F4FC8017AD8F801448548
:1011B000BE01655E7F4FC80173D8F8014585BE0149
:1011C000635E7F4FC8016CD84EE150E0B701C601A5
:1011D0000E94D519F3E07F121EC082E3898384E068
:1011E0008A83F80196859B8397859C8390899D834C
:1011F00091899E8396E39F838887828D8987838DDB
:101200008A87848D8B87858D8C874CE050E0B70171
:10121000C6010E94D51987E3898386E08A8391E01D
:101220009B8393E09C838D838FE08E838AE38F83FF
:101230008BE388878FEF898749E050E0B701C601CB
:101240000E94D519C6010E941B1BA6960FB6F894E2
:10125000DEBF0FBECDBFDF91CF911F910F91FF90E9
:10126000EF90DF90CF90BF90AF909F908F907F9046
:101270000895CF93DF93FC01A081B181109741F1D4
:10128000EC01ED91FC9111970488F589E02DCD01D9
:10129000199581111FC0FE01E556FF4F8081918194
:1012A000892BB1F48DEF9FEF9183808388819981A1
:1012B000DC01ED91FC910284F385E02D1995888184
:1012C0009981DC01ED91FC910288F389E02D19955B
:1012D00080E001C081E0DF91CF910895C9010296BD
:1012E000DB01FD01E61BF70B2D91222331F0FA0102
:1012F000E80FF91F20830196F4CF9C012E1B3F0BB2
:10130000420F531FDA011297FC931196EC93089544
:10131000AF92BF92CF92DF92EF92FF920F931F9303
:10132000CF93DF9300D01F92CDB7DEB77C01162F8D
:10133000D90180E09A2F9F77AA0FAB2FAA1FBB0B72
:10134000B195109709F09068E1E0F0E0EC0FFD1F17
:10135000E80FF11D90838F5F109761F7E82FF0E0A1
:10136000BA016E1B7F0B6C5F7F4FDB011C93CE01BC
:1013700001965C0180E090E08E179F076CF4D50128
:10138000DD905D018C010E1B1F0B040F151FD80192
:101390001596DC920196F0CFD7018D919C91890131
:1013A0000F5F1F4F0E0F1F1FDC01ED91FC9102809C
:1013B000F381E02DA80119956C010E94851EF701AB
:1013C000EC57FF4F608371838283938381E0C01663
:1013D000D10609F080E00F900F900F900F90DF91F1
:1013E000CF911F910F91FF90EF90DF90CF90BF9022
:1013F000AF9008952F923F924F925F926F927F929B
:101400008F929F92AF92BF92CF92DF92EF92FF9214
:101410000F931F93CF93DF9300D01F92CDB7DEB70A
:101420008C015B017C0142E0E40EF11CB7010CD899
:1014300081112AC026C05FEF451A550A8981D10162
:101440008D931D01682F6F7770E0669DF001679D99
:10145000F00D769DF00D1124CE0EDF1E47E0660CD8
:10146000771C881C991C4A95D1F787FF1FC0BE01C5
:101470006F5F7F4FC8012C830E9424022C81811151
:10148000DACF80E090E09EC0D80112962C911982AC
:101490001801B3E02B0E311C44244394512CC12C71
:1014A000D12C612C712C43016394E1CF822F807F7A
:1014B00033243394803309F0312C8FEF840DF50100
:1014C0008083332049F1B701640D751DC8010E9466
:1014D00024028823B1F2B2016F5F7F4F6E0D7F1D32
:1014E000C8010E942402882361F2F2E04F0E511CD1
:1014F000D5018C91F801E80FF11D6380712C762CD9
:1015000066248481680E711CF801828181FF08C005
:10151000F2E06F0E711C04C080E0612C712C01C0E0
:1015200082E0E82EF12CE418F508A80147565F4F39
:101530005B834A832EEF822E99249A94C701840DEF
:10154000951D8C159D0588F5BE016F5F7F4FC80105
:101550000E942402882309F494CFAA81BB818D9133
:101560009C910097A9F0332099F0F5012081A40106
:10157000421B51099A01240D351D6216730640F471
:10158000DC01ED91FC910190F081E02D69811995CC
:10159000B0E84B16510428F48981F801E40DF51DDB
:1015A0008283EFEF4E1A5E0AC9CFF801E756FF4F6C
:1015B00080819181892B29F4F1E84F16510408F0BC
:1015C00060CFC2010F900F900F900F90DF91CF91DD
:1015D0001F910F91FF90EF90DF90CF90BF90AF9051
:1015E0009F908F907F906F905F904F903F902F9043
:1015F00008951F93CF93DF93EC01162F8F8580FF03
:101600000BC0E881F9810084F185E02D20E144E000
:1016100060E070E0CE011995EB85FC852D853E8557
:10162000812F90E0E217F30758F410832B853C8557
:101630002F5F3F4F3C872B87DF91CF911F910895FC
:10164000E881F981028CF38DE02DBC01CE01DF91A0
:10165000CF911F911994AF92BF92CF92DF92EF92E8
:10166000FF920F931F93CF93DF9300D01F92CDB7BC
:10167000DEB78C015B01C12CD12C7601C216D306DA
:10168000E406F506ACF4F50161915F01C801298318
:101690003A834B835C83ADDF29813A814B815C8146
:1016A000019649F06FEFC61AD60AE60AF60AE6CFA7
:1016B000B901CA0102C0B601C7010F900F900F9087
:1016C0000F90DF91CF911F910F91FF90EF90DF90DE
:1016D000CF90BF90AF90089508950895FB012081A9
:1016E0003181FC0131832083FB0142815381F90167
:1016F000369720813181FC01E20FF31F5183408333
:10170000089522E933E0FC01318320832CE933E0A2
:10171000358B248B62EA73E0E1CFDC01ED91FC9123
:10172000369720813181820F931FEBCFCF93DF93C8
:10173000EC01E7DFCE01DF91CF910C948C35DC0119
:10174000ED91FC91369720813181820F931FEECF6E
:10175000DB012D913C911197FC0131832083F9012C
:10176000369720813181FC01E20FF31F12968D9193
:101770009C9113979183808381E290E0948383838B
:10178000548B438B1582158A089508952F923F92AA
:101790004F925F926F927F928F929F92AF92BF9281
:1017A000CF92DF92EF92FF920F931F93CF93DF932D
:1017B000CDB7DEB72E970FB6F894DEBF0FBECDBF04
:1017C0001C019C01295E3F4F3B872A87C90151DDDF
:1017D0008C87882309F442C18A859B854ADD8C87E2
:1017E000882309F443C00E94851E2B013C0181011E
:1017F00001561F4FF80180819181A281B381A3011D
:101800009201281B390B4A0B5B0BDA01C90189399C
:101810009A43A105B10590F4349780819181A2810A
:10182000B381A3019201281B390B4A0B5B0BDA0130
:10183000C90189399A43A105B105C8F1710143EA8B
:10184000E40EF11CD7012C91F1018789908D2223A0
:1018500079F0EE54FF4F2CEF3FEF31832083DC0112
:10186000ED91FC910288F389E02D19951C8636C50F
:1018700020ECF101218F128EDC01ED91FC910280B0
:10188000F381E02D42E050E0B101675E7F4F199592
:10189000F101E556FF4F4082518262827382F80166
:1018A000408251826282738281E0D7018C93F10180
:1018B0008789908DDC01ED91FC910480F581E02D0C
:1018C0001995892B09F40AC5BE016F5F7F4F8A8580
:1018D0009B8590DD5C01892B09F400C5F8014082ED
:1018E000518262827382D10159968C91807F8033BC
:1018F00009F091C04101B4EA8B0E911CF401808182
:101900009181892B09F4EAC4E980F12CF101EE0DF3
:10191000FF1D028D10E0102F0027838D080F111D71
:101920006701F4E0CF0ED11C2A853B85C20ED31E81
:10193000B7016B5F7F4F620F731FA801C6010E9442
:10194000353698012E0D3F1DF101E20FF31F138E66
:10195000D10159968C9186708987D4010D90BC91E4
:10196000A02DBE87AD87823009F041C0848D90E004
:10197000982F8827458D4C01840E911C4BEF5FEF0B
:101980004E195F09401B510B4A0D5B1DB901695F80
:101990007F4FEA85FB856E0F7F1FC601FD011995FC
:1019A00080E4D10159968C93599729855A962C93A6
:1019B0005A975B969C925B975C968C925C97579635
:1019C0008D919C915897DC01ED91FC91B101675E7E
:1019D0007F4F0280F381E02D44E050E01995F10142
:1019E000E556FF4F408251826282738277C44DEF89
:1019F0005FEF4E195F09401B510B4A0D5B1DB9018A
:101A00006B5F7F4FEA85FB856E0F7F1FC601ED85FB
:101A1000FE85199563C4803CC9F480EDD1015996C7
:101A20008C9359975A961C925A9757968D919C91E0
:101A30005897DC01ED91FC91B101675E7F4F028008
:101A4000F381E02D42E050E0199548C4803D09F053
:101A500045C4F101ED55FF4F108240C48091AF05A0
:101A600081112AC0109297051092960588EE93E096
:101A7000A0E0B0E08093980590939905A0939A0513
:101A8000B0939B058DE392E0909395058093940528
:101A90008CEA93E09093A3058093A2051092A4058D
:101AA0001092A5051092A6051092A70584E08093D8
:101AB000AC0581E08093AF0581E595E090934A07FE
:101AC000809349076CE271E080E090E00E944D1E37
:101AD0001FB7F89480915005811193C083EC91E079
:101AE000FC01249149E052E0FA01649130E0220FB8
:101AF000331F2C583E4FF901A591B4912C916223CC
:101B000009F070C0E9E4F1E0C490FA014491FC01ED
:101B10009491992309F466C0CC2009F455C0D12CC6
:101B2000F6013197E231F10508F04EC08827EE58F2
:101B3000FF4F8F4F0C94E834809180008F7707C05F
:101B4000809180008F7D03C080918000877F80938B
:101B500080003AC084B58F7702C084B58F7D84BD84
:101B600033C08091B0008F7703C08091B0008F7D2B
:101B70008093B00029C0809190008F7707C080913A
:101B800090008F7D03C080919000877F80939000AC
:101B90001BC08091A0008F7707C08091A0008F7D2F
:101BA00003C08091A000877F8093A0000DC080912A
:101BB00020018F7707C0809120018F7D03C0809125
:101BC0002001877F80932001E92FF0E0EE0FFF1FB7
:101BD000E65AFE4FA591B4918FB7F8949C91492B8A
:101BE0004C938FBF85E30E94B0298CB580618CBD7A
:101BF0008CB580648CBD84E30E94B02983E30E948D
:101C0000B029809150058F5F809350051FBF249AA3
:101C100080E590E00E94E90260E880E090E00E94A8
:101C2000202B65E58BE190E00E94202B65E58AE1A1
:101C300090E00E94202B0E94E80280E090E49093C4
:101C400097068093960680E090E690939F06809397
:101C50009E0680E098E4909399068093980680E031
:101C600098E69093A1068093A00680E090E590937B
:101C70009B0680939A0680E090E79093A30680935A
:101C8000A20680E098E590939D0680939C0680E0F4
:101C900098E79093A5068093A40680E590E00E94C3
:101CA000E90246E050E0B10189E090E00E94F72AA5
:101CB0008CEA93E09A8389831B821C821D821E8298
:101CC00044E050E0BE016D5F7F4F8FE090E00E94E6
:101CD000F72A0E94E8020091490710914A07D801AB
:101CE00092961D921D921D921C929597F80116A234
:101CF00017A210A611A69A961D921D921D921C92D3
:101D00009D9786E990E0A0E0B0E086AB97ABA0AFEE
:101D1000B1AFD80112AE13AE14AE15AE189686E070
:101D2000FD01282F11922A95E9F79801225F3F4F74
:101D300094E1F90111929A95E9F7F10101900D9260
:101D40008A95E1F72801F2E44F0E511CD2011C9252
:101D50000E9474342FEC37E040E050E00E948B3456
:101D6000DC01CB010196A11DB11DF801848395838F
:101D7000A683B78380839183A283B38398012D5B6D
:101D80003F4F3E872D87C9010E949D1A64E470E091
:101D90008D859E850E94EF1A882309F49FC20E94B8
:101DA000851E6B017C01612C712C198648EE842EF6
:101DB00043E0942EA12CB12CD2018C91833009F4F4
:101DC00002C181111EC0F80184819581A681B7816D
:101DD0000196A11DB11D84839583A683B7830E94BC
:101DE000851E6C197D098E099F09A50194010E9429
:101DF000B734A90161E0C80131D981E0D2018C93E7
:101E0000C4C08430F1F4F80184819581A681B78142
:101E10000196A11DB11D84839583A683B7830E947B
:101E2000851E6C197D098E099F09A50194010E94E8
:101E3000B734A90163E0C80111D9E2E0D201EC9303
:101E4000A4C0813061F5D801DA964D915D916D9114
:101E50007C91DD979E012F5F3F4FC8010E9468066D
:101E60008987823009F091C089819A81AB81BC81D8
:101E7000F80184839583A683B7830E94851E6C191D
:101E80007D098E099F09A50194010E94B734A9011B
:101E900063E0C801E3D8E985D201EC937CC08230CD
:101EA00009F073C0D801DA964D915D916D917C91E6
:101EB000DD979E012F5F3F4FC8010E94680689870A
:101EC000853009F05CC023E0F2012083F80182A193
:101ED00093A1A4A1B5A1892B8A2B8B2B41F424E8D3
:101EE00033E040E050E022A333A344A355A3F8011C
:101EF00086A197A1A0A5B1A5892B8A2B8B2B61F474
:101F000082A193A1A4A1B5A1B695A7959795879510
:101F100086A397A3A0A7B1A7F80182A593A5A4A51E
:101F2000B5A5892B8A2B8B2BA9F482A193A1A4A1FF
:101F3000B5A1AC01BD0123E076956795579547950E
:101F40002A95D1F7841B950BA60BB70B82A793A7F5
:101F5000A4A7B5A7F80186A197A1A0A5B1A586A7BA
:101F600097A7A0ABB1AB82A593A5A4A5B5A582AB5D
:101F700093ABA4ABB5AB66246394712C0CC0F9850C
:101F8000F63019F4D2011C9206C0B985BF3F19F48E
:101F9000F20110821986F1E06F16710409F40CCF7A
:101FA0000E94851EDC01CB018C199D09AE09BF0979
:101FB000F80126A937A940AD51AD281739074A07BE
:101FC0005B0708F0F9CE8D859E850E949D1AF80169
:101FD00084819581A681B7810196A11DB11D84835D
:101FE0009583A683B7830E94851EF801FE966083C1
:101FF000718382839383F1E06F16710409F056C0F8
:1020000080E590E00E94E9026091490770914A07DB
:10201000625F7F4FCE0101960E94991D44E050E01F
:10202000BE016D5F7F4F8FE090E00E94F72A6091C4
:10203000490770914A076A5E7F4FCE0101960E9460
:10204000991D44E050E0BE016D5F7F4F81E090E05C
:102050000E94F72A6091490770914A076E5E7F4F90
:10206000CE0101960E94991D44E050E0BE016D5FD3
:102070007F4F85E090E00E94F72A0E94E80260917D
:10208000490770914A07625E7F4FCE0101960E9418
:10209000991D8B819C81AD81BE8180934507909372
:1020A0004607A0934707B093480703C0672809F481
:1020B00015C18A859B85DDD88111E1C0F101E45508
:1020C000FF4F60817181D10157968D919C915897F6
:1020D000A255BF4FFC01208131816115710541F08E
:1020E0004D915C91D9011E96ED91FC911F971AC0FC
:1020F000F901E484F5844D915C912CEA33E03A8354
:102100002983D101AA55BF4F12960D911D912D9192
:102110003C9115970B831C832D833E83BE016F5F1B
:102120007F4FF7011995F1018130910509F0A0C0A9
:10213000E756FF4F9183808387E0ECE0F2E0DE0119
:10214000119601900D928A95E1F7FE013196D10129
:102150005E967E0128E0E20EF11C81918D93EE15D2
:10216000FF05D9F782E0D10195968C9395979696C5
:102170001C9296978FE097968C932FE030E0810128
:10218000075E1F4FA80163E574E08A859B85A6D88A
:102190009C0125503109A80160E18A859B85B8D84A
:1021A0000E94851EF101E556FF4F60837183828393
:1021B00093830A571F4FF80160837183828393834F
:1021C000F1018789908DDC01ED91FC910480F5810E
:1021D000E02D1995892BF9F40E94851ED8018D9068
:1021E0009D90AD90BC90DC01CB0188199909AA099A
:1021F000BB0988399A43A105B10510F3F101EE54EA
:10220000FF4F8CEF9FEF91838083D10157968D9183
:102210009C91589725C0B7018A859B85EBD8049778
:10222000E1F4F101848D91012E543F4F7901811128
:1022300010C00E94851ED8016D937D938D939C9351
:102240001397F101ED55FF4F1082F70111821082B3
:1022500016C090E0D9018D939C93F1018789908DF0
:10226000DC01ED91FC910288F389E02D199536C0CF
:10227000EE54FF4F8EEF9FEF918380832FC08A85AE
:102280009B850E943909882309F4F0CAF101E756B9
:10229000FF4F80819181019611F481E090E091835C
:1022A000808380819181F101968F878F8101075E04
:1022B0001F4F27E030E0A8016BE574E08A859B851D
:1022C0000DD8F101E80FF91F118E9C01245031093E
:1022D000A80162E88A859B851BD88C878C852E9601
:1022E0000FB6F894DEBF0FBECDBFDF91CF911F9127
:1022F0000F91FF90EF90DF90CF90BF90AF909F90A5
:102300008F907F906F905F904F903F902F900895A7
:1023100008958F929F92AF92BF92CF92DF92EF92E9
:10232000FF920F931F93CF93DF937C01EB018A0100
:102330002DDA882309F454C0C8010E94C5228C01FB
:10234000CE010E94C5224C01670187E1C80ED11C55
:10235000E80109900020E9F72197C01BD10BC601C5
:102360000E9439098823E1F1F40101900020E9F786
:102370003197E819F909CE010796E80FF91FE138FE
:10238000F10570F5570189E1A80EB11C25E030E098
:10239000A501B401C6010E946E09F801DC0159963D
:1023A000AE0DBF1D98012C0F3D1FE217F30719F06A
:1023B00041914D93FACF25979E01280F391FA50112
:1023C00060E3C601DF91CF911F910F91FF90EF90D5
:1023D000DF90CF90BF90AF909F908F900C94880922
:1023E000DF91CF911F910F91FF90EF90DF90CF90F1
:1023F000BF90AF909F908F90089580916B06811150
:102400005EC086E0EFE5F2E0A7EBB5E001900D924B
:102410008A95E1F730EC3093BD0528EA2093BE059C
:1024200081E08093BF0599EC9093C0051092C4059C
:102430001092C30548EE53E060E070E04093C5059C
:102440005093C6056093C7057093C80549E652E0EE
:102450005093C2054093C10544E04093CD054CEA3A
:1024600053E050935E0640935D064FEF5FEF50934D
:102470006A064093690630935F0620936006809356
:102480006106909362062BE537E030936606209351
:102490006506109264061092630623E53DE23093D0
:1024A0005C0620935B0621EC35E03093CF0520934A
:1024B000CE05109268061092670680936B0687EB34
:1024C00095E008950F931F93CF93DF93EC01CB0119
:1024D000088119817B836A830E94F73499838883FA
:1024E00020E030E08C819D812817390770F4E88165
:1024F000F981E20FF31F309729F0D801A20FB31F23
:102500008C9180832F5F3F4FEDCFC801DF91CF913A
:102510001F910F910C948C35FC019581692B838957
:102520009489892B09F4616065830895CF93DF93C3
:10253000EC01E881F98136970190F081E02DE80FF8
:10254000F91F8389948955D8019649F4E881F98166
:1025500036978081918162E08C0F9D1FDDDFCE0177
:10256000DF91CF9108958F929F92AF92BF92EF9299
:10257000FF920F931F93CF93DF93EC017B014901EF
:102580005A01E881F98136970190F081E02DE80F3A
:10259000F91F03891489D8011F968C911F9780FF1A
:1025A0000BC0ED91FC910084F185E02D20E144E029
:1025B00060E070E0C8011995D801ED91FC91008CA4
:1025C000F18DE02DA5019401B701C80119956F3F68
:1025D0007F4F49F4E881F98136978081918162E0EB
:1025E0008C0F9D1F99DFCE01DF91CF911F910F912D
:1025F000FF90EF90BF90AF909F908F900895EF92D3
:10260000FF920F931F93CF93DF93EC018C819D81F9
:102610008617970708F57A018B018A819B818617B7
:10262000970738F4685F7F4F8617970710F4CE013D
:1026300049DF8C819D818017910758F4E881F981E9
:10264000E80FF91F309719F0D7012C9120830196DC
:10265000F2CF1D830C8305C06817790710F47D83C2
:102660006C83DF91CF911F910F91FF90EF900895B0
:10267000CF93DF93EC01E881F98136970190F081E7
:10268000E02DE80FF91F83899489DC01ED91FC911D
:102690000484F585E02D1995019649F4E881F981C6
:1026A00036978081918161E08C0F9D1F35DFCE01CF
:1026B000DF91CF9108956F927F928F929F92AF9208
:1026C000BF92CF92DF92EF92FF920F931F93CF931F
:1026D000DF9300D01F92CDB7DEB73C018B01DC0148
:1026E000ED91FC9136970190F081E02D3296E80F44
:1026F000F91FC284D384E484F584C21AD30AE40A9D
:10270000F50A818192818E709927049761F54601BF
:102710005701181419041A041B04D4F4B1E08B1ADD
:102720009108A108B108D301ED91FC913697019071
:10273000F081E02DE60DF71D6089C30129833A83FE
:102740004B835C83F3DE5C814B813A812981E1CF4D
:10275000D701C601F7FE03C080E090E0DC01C81A93
:10276000D90AEA0AFB0AB801C301FDDED301ED91E3
:10277000FC9136970190F081E02DE60DF71D8381E5
:1027800094818E709927029701F1D301ED91FC910C
:10279000369780819181860D971DFC0114861586E0
:1027A000168617860F900F900F900F90DF91CF91A4
:1027B0001F910F91FF90EF90DF90CF90BF90AF905F
:1027C0009F908F907F906F9008951C141D041E049D
:1027D0001F04DCF6F1E0CF1AD108E108F108D301BB
:1027E000ED91FC9136970190F081E02DE60DF71DFB
:1027F0006089C3019BDEE9CF21E0FC012083FB015E
:10280000A081B18116978D919C91E80FF91F818964
:102810009289009709F02CCF0895CF92DF92EF9222
:10282000FF920F931F93CF93DF931F92CDB7DEB725
:102830008C017B01FC01C480D580FB016481758122
:102840006C0D7D1D1982AE014F5F5F4FD8DEF70121
:102850004481558160817181F801808191818C0D65
:102860009D1D0E94492AC8010F90DF91CF911F91B1
:102870000F91FF90EF90DF90CF9008950F931F93EB
:10288000CF93DF93FC0104811581FB01C481D581C5
:10289000AE010C171D0708F4A801FB0160817181CE
:1028A000FC01808191810E944D36009769F481E09E
:1028B00090E0C017D10740F00C171D0710F080E022
:1028C00090E0919581959109DF91CF911F910F91A2
:1028D0000895D4DF892F881F8827881F08950F93B4
:1028E0001F93CF93DF93EC01DB01ED91FC91068008
:1028F000F781E02DCB0119958C01E881F9810680E3
:10290000F781E02DCE011995B801DF91CF911F918C
:102910000F91DFCFFC01808191810C948C35CF9396
:10292000DF93EC010796F6DFCE01DF91CF91F2CF76
:102930000F931F93CF93DF93EC0183E992E0998388
:1029400088838E859F85EA85FB85892B21F102800E
:10295000F381E02DFB87EA870190F081E02D04816F
:1029600015810115110529F0C801D9DFC8010E94A0
:102970008C35EA85FB8580819181009711F00E945A
:102980008C35EA85FB85118210828E859F850197A3
:102990009F878E87D6CF048115810115110529F0F7
:1029A000C801BDDFC8010E948C358A859B850097D0
:1029B00011F00E948C35CE010296DF91CF911F91CC
:1029C0000F91A8CFCF93DF93EC01B2DFCE01DF915F
:1029D000CF910C948C35CF93DF93EC0188E090E09D
:1029E0009B838A831D821C820E94F734998388838B
:1029F000DF91CF9108950F931F93CF93DF931F9291
:102A0000CDB7DEB78C01BC01CE010196F5DE6AE0E0
:102A1000C8018CDDC8012CDEC8010F90DF91CF9179
:102A20001F910F910895EF92FF920F931F93CF93F1
:102A3000DF931F92CDB7DEB78C017B01BC01CE01C5
:102A40000196DADEF70101900020E9F731979F0146
:102A50002E193F0940E050E0B701C8012CDEC80143
:102A60000F90DF91CF911F910F91FF90EF900895FC
:102A7000EF92FF920F931F93CF93DF931F92CDB7E7
:102A8000DEB78C017B0168177907D1F0FC018481E6
:102A90009581892B11F015821482F701648175816B
:102AA0001982AE014F5F5F4FC801A9DDF701448174
:102AB000558160817181F801808191810E94492A4C
:102AC000C8010F90DF91CF911F910F91FF90EF9070
:102AD0000895CF92DF92EF92FF920F931F93CF93BF
:102AE000DF931F92CDB7DEB77C016B01FC018481BF
:102AF0009581892B11F015821482C114D104B1F093
:102B0000F60101900020E9F731978F010C191D099A
:102B10001982AE014F5F5F4FB801C70170DDA80198
:102B2000B601F701808191810E94492AC7010F9067
:102B3000DF91CF911F910F91FF90EF90DF90CF9099
:102B400008958F929F92AF92BF92CF92DF92EF92B1
:102B5000FF920F931F93CF93DF931F92CDB7DEB7F2
:102B60006C015B017A014901B80135DFD50114968A
:102B7000ED91FC911597EE15FF0510F40E94243697
:102B80001982BF016E197F098616970608F4B401F1
:102B9000AE014F5F5F4FC60132DDF60144815581C2
:102BA000D5016D917C916E0D7F1D808191810E9478
:102BB000492A0F90DF91CF911F910F91FF90EF90D5
:102BC000DF90CF90BF90AF909F908F900895CF925D
:102BD000DF92EF92FF920F931F93CF93DF931F9299
:102BE000CDB7DEB76C017B018E010F5F1F4F2FEF5A
:102BF0003FEF40E050E0A5DFB701695F7F4F2FEF67
:102C00003FEF40E050E0C60107969BDF0F90DF9159
:102C1000CF911F910F91FF90EF90DF90CF9008958B
:102C2000EF92FF920F931F93CF93DF931F921F9208
:102C3000CDB7DEB77C01FC011182108213821282B3
:102C4000158214828EE090E069837A830E94F734C3
:102C50008C0169817A81BBDFF701158304830F90B2
:102C60000F90DF91CF911F910F91FF90EF900895FA
:102C7000EF92FF920F931F93CF93DF93EC017B01B1
:102C80008C819D81892BC1F486E090E00E94F7340D
:102C90008C01B701C5DF19830883EA81FB811183A9
:102CA0000083D80111961C921E921396FC93EE930A
:102CB000129781E090E01EC086E090E00E94F73419
:102CC0008C01B701ADDFEA81FB8180819181D80160
:102CD00011969C938E931396FC93EE931297A0817A
:102CE000B18113961C930E931297118300838C81EC
:102CF0009D8101969D838C83DF91CF911F910F91D0
:102D0000FF90EF900895AF92BF92CF92DF92EF9233
:102D1000FF920F931F93CF93DF93CDB7DEB76597E5
:102D20000FB6F894DEBF0FBECDBF8C017B015A01F8
:102D3000DB0111968D919C911297F801928381830A
:102D4000F801A181B281F701838194818A179B07E1
:102D500049F1C084D18414966D917C911597CE0170
:102D6000019635DFBE016F5F7F4FCE010F96F601F2
:102D70001995B501CE010F96ACDDD82ECE010F9678
:102D8000C9DDCE010196CBDDDD2061F0D8011196C1
:102D9000ED91FC9112978281938112969C938E9370
:102DA0001197CECFC80165960FB6F894DEBF0FBE5F
:102DB000CDBFDF91CF911F910F91FF90EF90DF90EA
:102DC000CF90BF90AF9008958F929F92AF92BF9295
:102DD000CF92DF92EF92FF920F931F93CF93DF93E7
:102DE000CDB7DEB765970FB6F894DEBF0FBECDBF87
:102DF0006C017B015A01FB0101811281F701838182
:102E000094818017910739F4F701838194818017A9
:102E1000910711F546C0F70180849184F80164811F
:102E20007581CE010196D3DEBE016F5F7F4FCE016B
:102E30000F96F4011995B501CE010F964ADD982E33
:102E4000CE010F9667DDCE01019669DD9920E1F292
:102E5000F80102811381D2CFF70180849184F801B7
:102E600064817581CE010196B2DEBE016F5F7F4F36
:102E7000CE010F96F4011995BE01615F7F4FC50128
:102E800028DDB82ECE010F9645DDCE01019647DD37
:102E9000BB2039F0F70183819481F601928381830D
:102EA00003C0F60112830183C60165960FB6F8943C
:102EB000DEBF0FBECDBFDF91CF911F910F91FF906D
:102EC000EF90DF90CF90BF90AF909F908F9008953C
:102ED000EF92FF920F931F93CF93DF931F92CDB783
:102EE000DEB77C018E010F5F1F4F2FEF3FEF40E0F9
:102EF00050E027DEC7010F90DF91CF911F910F9116
:102F0000FF90EF900895AF92BF92CF92DF92EF9231
:102F1000FF920F931F93CF93DF931F92CDB7DEB72E
:102F20007C016A018E010F5F1F4F2FEF3FEF40E0E2
:102F300050E007DEF60101900020E9F731978F019C
:102F40000C191D09F701A480B5801982B8016A0D1A
:102F50007B1DAE014F5F5F4FC70151DBF7018081E1
:102F60009181A801B6018A0D9B1D0E94492AC701C3
:102F70000F90DF91CF911F910F91FF90EF90DF9015
:102F8000CF90BF90AF900895CF92DF92EF92FF92D3
:102F90000F931F93CF93DF93CDB7DEB7C654D109FC
:102FA0000FB6F894DEBF0FBECDBF7C016B01AB0145
:102FB000BC01CE018D5B9F4FA6DE2696EEADFFAD28
:102FC0002697D70113968D919C9114978E179F0782
:102FD00039F064817581C6017CDC882309F45CC00A
:102FE000BE016A5B7F4FCE01C996F5DC8E010F5F93
:102FF0001F4F2FEF3FEF40E050E0B601CE014D965E
:10300000A0DD2FEF3FEF40E050E0BE01675C7F4F57
:10301000CE01849696DDF70100851185BE01635EC1
:103020007F4FCE010196D3DDBE016F5F7F4FCE0192
:103030000F96F8011995AE01415F5F4FB701CE01C0
:10304000805C9F4F60DECE010F9664DCCE0101965E
:1030500066DC2396AEADBFAD2397F70183819481E3
:10306000A817B90781F5BE01635E7F4FC7010196BE
:10307000FFDDD7011396ED91FC911497908181812A
:1030800025969FAF259726968FAF2697CE014D9612
:1030900046DCCE01C9963EDC2696EEADFFAD269706
:1030A000848195810796CA5BDF4F0FB6F894DEBF27
:1030B0000FBECDBFDF91CF911F910F91FF90EF9089
:1030C000DF90CF900895F7010085118514966D91DA
:1030D0007C911597CE0101967ADDBE016F5F7F4F1F
:1030E000CE018B96F8011995D70118960D911C9178
:1030F0001997BE01635E7F4FCE010F9668DDBE015A
:10310000615F7F4FCE01C296F8011995BE01655DE2
:103110007F4FCE01C296DDDB182FCE01C296FADBBF
:10312000CE010F96FCDBCE018B96F4DBCE0101962F
:10313000F6DB2396CEACDFAC2397112371F186E04A
:1031400090E00E94F7348C01BE01635E7F4F68DD22
:10315000D6018D919C91F80191838083D382C282A4
:10316000892B31F4D70112961C930E93119705C049
:10317000D601ED91FC9113830283F6011183008344
:10318000D70115968D919C911697019616969C9352
:103190008E931597902F812F73CF9C2D8D2D70CFEF
:1031A0000895CF93DF931F92CDB7DEB76983DC011B
:1031B000ED91FC910280F381E02D41E050E0BE01F1
:1031C0006F5F7F4F19950F90DF91CF910895FC01AC
:1031D000818D928D0895FC018489958908952CEA4A
:1031E00033E0FC0131832083FB01408951896289EE
:1031F0007389FC0142835383648375830895DC01E2
:10320000ED91FC91028CF38DE02D199480E00895EE
:10321000FC019485FB018485981303C081E0943000
:1032200009F480E0089521E0FC018485843009F4EC
:1032300020E0822F0895CF93DF931F92CDB7DEB7A2
:10324000FC01218D328D232B49F0BE016F5F7F4F32
:10325000808D0E94812B898190E002C08FEF9FEFCB
:103260000F90DF91CF910895CF93DF93FC01218DD3
:10327000328D2115310519F48FEF9FEF11C0EC014C
:103280004217530708F0A901888D0E94C02B181619
:10329000190694F7298D3A8D281B390B3A8F298FFF
:1032A000DF91CF9108950F931F93CF93DF931F92D8
:1032B000CDB7DEB7FC01218D328D232B61F08C015F
:1032C00041E050E0BE016F5F7F4F808D0E94C02BB8
:1032D000181619061CF08FEF9FEF08C0F801818DBA
:1032E000928D0197928F818F898190E00F90DF916D
:1032F000CF911F910F9108950F931F93CF93DF9359
:10330000CDB7DEB728970FB6F894DEBF0FBECDBF9E
:103310008C01F801818D928D892B49F0D801ED91B6
:10332000FC910680F781E02DC8011995F2CF808DC0
:103330000E94A02B181619065CF548E050E0BE016B
:103340006F5F7F4FD80158968C910E94C02B9C01D3
:1033500018161906DCF489819A81AB81BC81F801C9
:10336000808B918BA28BB38B8D8190E0982F8827D7
:103370002E81820F911D958B848B2F8130E0322F0F
:1033800022278885280F311D328F218FC90102C065
:1033900080E090E028960FB6F894DEBF0FBECDBF58
:1033A000DF91CF911F910F910895AF92BF92CF926D
:1033B000DF92FF920F931F93CF93DF938C015B01FA
:1033C000EA01FC01C688D788F08C80E590E00E9475
:1033D000E9028F2D0E9496298C179D0720F48F2DCE
:1033E0000E949629EC019E01A501B6018F2D0E9435
:1033F00033290E94E802F801868997898C0F9D1F66
:10340000978B868BCE01DF91CF911F910F91FF900B
:10341000DF90CF90BF90AF900895CF92DF92EF9260
:10342000FF920F931F93CF93DF93CDB7DEB7AF9784
:103430000FB6F894DEBF0FBECDBF7C016A010CEA67
:1034400013E01A8309831C861B8688EE93E0A0E0B4
:10345000B0E08D879E87AF87B88B8DE392E09A8727
:103460008987188F0F8B198E1A8E1B8E1C8E84E005
:1034700089A31DA30CA31EA21FA218A619A68091A2
:10348000450790914607A0914707B09148078CA740
:103490009DA7AEA7BFA78B839C83AD83BE831886F1
:1034A0001F82AE014C5D5F4FCE0101960E947B03EF
:1034B00081309105B1F4D701ED91FC910288F38937
:1034C000E02D1BA70AA78EA19FA1A8A5B9A58CA72F
:1034D0009DA7AEA7BFA7A601BE01665D7F4FC7012E
:1034E0001995AF960FB6F894DEBF0FBECDBFDF9132
:1034F000CF911F910F91FF90EF90DF90CF900895A3
:103500009B0190E00496982F8827642F820F931FC9
:103510000C94202BCF93C82F80E590E00E94E90205
:1035200060E170E08C2F0E94BD284FEF62E070E0F8
:103530008C2FE6DFCF910C94E802CF93DF93EC0160
:10354000888D843059F0E6DFE88DF0E0EE0FFF1F44
:10355000ED58F94F1182108284E0888FDF91CF916E
:1035600008950F931F93CF93DF931F92CDB7DEB7CC
:1035700090E00496982F88278C01060F171F0E9451
:10358000AC2A8FE00E94C62A812F0E94C62A802F73
:103590000E94C62A80E00E94C62A89830E94AA2A25
:1035A00089810F90DF91CF911F910F9108951F9303
:1035B000CF93DF931F92CDB7DEB7182F80E590E051
:1035C0000E94E90263E070E0812FCBDF89830E94D3
:1035D000E80289810F90DF91CF911F910895EF92BA
:1035E000FF921F93CF93DF93FC01208D243011F0C5
:1035F00080E01BC07B01EC0110E0812FD8DF81113E
:1036000002C0188F05C08831E1F31F5F1430A9F79D
:10361000888D843069F3FD86EC861A8E198E20E041
:10362000A70162E00E943D2B81E0DF91CF911F91C5
:10363000FF90EF900895CF93FC01C08D80E590E05E
:103640000E94E90260E270E08C2F0E94BD2862E0D7
:1036500070E08C2F86DF84FD17C062E070E08C2F55
:1036600080DF83FF0AC048E162E070E08C2F48DF12
:103670000E94E80280E090E010C00E94E80280E52D
:1036800090E00E94E902E3CF40E162E070E08C2F1D
:1036900037DF0E94E80281E090E0CF910895CF9358
:1036A000DF93C82FD62F472F60E170E029DF4D2F21
:1036B00061E170E08C2FDF91CF9122CFBF92CF924A
:1036C000DF92EF92FF920F931F93CF93DF9300D07F
:1036D00000D0CDB7DEB7FC01208D243009F051C0F9
:1036E0006A017B018C01B12C63E070E08B2D39DF26
:1036F000811103C0F801B08E06C08831D9F3B394AC
:10370000F4E0BF12F1CFF801808D8430D1F196E062
:10371000E9E8F2E0DE01119601900D929A95E1F749
:10372000F70193819F779C8394819D8395819E83EC
:10373000B7016E5F7F4F90E0982F882744E050E0FC
:10374000845F9B4F0E94F72AB601F801808DA7DFA6
:10375000F801808D90E0982F882746E050E0BE0168
:103760006F5F7F4F8A5F9B4F0E94F72AF801128E8E
:10377000118E20E8A60162E0808D0E943D2B81E041
:1037800001C080E026960FB6F894DEBF0FBECDBF15
:10379000DF91CF911F910F91FF90EF90DF90CF902D
:1037A000BF900895FF920F931F93CF93DF93FB0178
:1037B000DC0157961C921E9256975896FC90828177
:1037C000811109C08381811106C08481811103C0E8
:1037D00085818823F1F041155105D9F08A01EF0167
:1037E00080E590E00E94E902BE016E5F7F4F2F2DC1
:1037F00030E0922F882744E050E0845F9B4F0E9486
:10380000F72AB8018F2D4BDF0E94E80281E090E09B
:1038100002C080E090E0DF91CF911F910F91FF9067
:103820000895FC018485843009F0C1CE80E00895BC
:10383000FC01A089B1898C91A689B78982FD0FC04E
:103840009C91818D8F5F8F73228D821749F0218D1E
:10385000DF01A20FB11D5D969C93818F08958C911D
:103860000895FC01918D828D981761F0828DDF01A2
:10387000A80FB11D5D968C91928D9F5F9F73928F63
:1038800090E008958FEF9FEF0895FC01918D828D58
:10389000981731F0828DE80FF11D858D90E0089525
:1038A0008FEF9FEF0895FC01918D228D892F90E07D
:1038B000805C9F4F821B91098F739927089586EA38
:1038C00096E0F1DF21E0892B09F420E0822F0895B2
:1038D00081E597E0E8DF21E0892B09F420E0822FE1
:1038E0000895FC01848DDF01A80FB11DA35ABF4FBD
:1038F0002C91848D90E001968F739927848FA689EF
:10390000B7892C93A089B1898C9180648C93938D15
:10391000848D981306C00288F389E02D80818F7D05
:1039200080830895EF92FF920F931F93CF93DF93BD
:10393000EC0181E0888F9B8D8C8D981305C0E88900
:10394000F989808185FD23C0F62E0B8D10E00F5F75
:103950001F4F0F731127E02E8C8DE8120BC00FB68E
:1039600007FCFACFE889F989808185FFF5CFCE0180
:10397000B8DFF2CF8B8DFE01E80FF11DE35AFF4F48
:10398000F0820B8FEA89FB898081806207C0EE8913
:10399000FF896083E889F98980818064808381E080
:1039A00090E0DF91CF911F910F91FF90EF900895DC
:1039B000CF93DF93EC01888D8823C1F0EA89FB89DE
:1039C000808185FD05C0A889B9898C9186FD0EC0CE
:1039D0000FB607FCF5CF808185FFF2CFA889B989A2
:1039E0008C9185FFEDCFCE017CDFE8CFDF91CF91C9
:1039F000089580E090E0892B19F06ADF811120C0E2
:103A000080E090E0892B41F080E090E0892B21F06C
:103A10000E940000811117C080E090E0892B41F0E6
:103A200080E090E0892B21F00E94000081110EC0FF
:103A300080E090E0892B79F042DF81110AC008957F
:103A40000E940000DDCF0E940000E6CF0E9400002F
:103A5000EFCF0C94000008953FB7F89480917F0653
:103A600090918006A0918106B091820626B5A89B10
:103A700005C02F3F19F00196A11DB11D3FBFBA2F00
:103A8000A92F982F8827820F911DA11DB11DBC0160
:103A9000CD0142E0660F771F881F991F4A95D1F725
:103AA00008958F929F92AF92BF92CF92DF92EF9242
:103AB000FF920F931F93CF93DF937C018B016C01D7
:103AC00082E0C80ED11C4701E5E08E0E911CC0E0DB
:103AD000D0E0F60141916F0150E060E070E02AE033
:103AE000C8010E94D92F5C016EE2C8010E943430E7
:103AF0008A0D9B1DC80FD91FC814D90451F7F701AF
:103B0000458150E060E070E02AE0C8010E94D92FB2
:103B10008C0F9D1FDF91CF911F910F91FF90EF9020
:103B2000DF90CF90BF90AF909F908F9008950E94AC
:103B300024362CEA33E0FC0131832083FB014081F1
:103B4000518162817381FC01428353836483758355
:103B500008951F920F920FB60F9211240BB60F9279
:103B60002F933F934F935F936F937F938F939F9385
:103B7000AF93BF93EF93FF9386EA96E0B2DEFF9197
:103B8000EF91BF91AF919F918F917F916F915F91D5
:103B90004F913F912F910F900BBE0F900FBE0F9042
:103BA0001F9018951F920F920FB60F9211240BB60B
:103BB0000F922F933F934F935F936F937F938F93C6
:103BC0009F93AF93BF93EF93FF9386EA96E030DE27
:103BD000FF91EF91BF91AF919F918F917F916F91E5
:103BE0005F914F913F912F910F900BBE0F900FBEA1
:103BF0000F901F9018951F920F920FB60F921124DD
:103C00000BB60F922F933F934F935F936F937F93D6
:103C10008F939F93AF93BF93EF93FF9381E597E0CB
:103C200060DEFF91EF91BF91AF919F918F917F9156
:103C30006F915F914F913F912F910F900BBE0F901D
:103C40000FBE0F901F9018951F920F920FB60F92F4
:103C500011240BB60F922F933F934F935F936F9363
:103C60007F938F939F93AF93BF93EF93FF9381E5E0
:103C700097E0DEDDFF91EF91BF91AF919F918F9122
:103C80007F916F915F914F913F912F910F900BBE5C
:103C90000F900FBE0F901F9018958F929F92AF922A
:103CA000BF92CF92DF92EF92FF926B017C01D4DE44
:103CB0004B015C01C114D104E104F104E9F0CCDE54
:103CC000DC01CB0188199909AA09BB09883E9340F8
:103CD000A105B10578F321E0C21AD108E108F10885
:103CE00088EE880E83E0981EA11CB11CC114D1047B
:103CF000E104F10421F7DECFFF90EF90DF90CF9049
:103D0000BF90AF909F908F9008952FB7F8946091D7
:103D10007B0670917C0680917D0690917E062FBF78
:103D20000895FC018789908D009769F12489358970
:103D30002817390718F4308F278B25C001976F3F5C
:103D40002FEF720729F4908F878B80E090E0089521
:103D5000A089B1899B01215031092F3F310548F4D9
:103D6000262FA80FB91F3C91231305C0908F878B76
:103D700008C020E0F6CF278524FF05C0908F878BF1
:103D80006C93CB0108958FEF9FEF0895CF93DF934E
:103D9000EC01E881F9810288F389E02D19958F3FC4
:103DA0002FEF920731F02F89388D2F5F3F4F388FDB
:103DB0002F8BDF91CF910895FC012789308D848965
:103DC00095892817390740F480899189FC01E20F11
:103DD000F31F808190E008958FEF9FEF0895EF9299
:103DE000FF92CF93DF93FC01DB0160E070E0CB0139
:103DF000E788F08CC489D589EC16FD06A8F4621713
:103E000073078407950784F4C089D189CE0DDF1D1F
:103E1000C881CD936F5F7F4F8F4F9F4FC789D08DE4
:103E20002196D08FC78BE4CFDF91CF91FF90EF9099
:103E30000895FC01848995892789308D821B930B15
:103E4000089580E090E00895242FDC01ED91FC912D
:103E50000084F185E02D41E019940895AF92BF925E
:103E6000CF92DF92EF92FF920F931F93CF93DF9346
:103E70001F92CDB7DEB76C0187E190E00E94F73466
:103E80007C0123E932E0DC012D933D93CD01B601A5
:103E90006E5F7F4F8E010F5F1F4F2FEF3FEF40E0B0
:103EA00050E00E94A1155701BAE0AB0EB11CF7011A
:103EB0001786168686E090E00E94F734FC01118296
:103EC00010821382128215821482D7011B969C9352
:103ED0008E931A971D969C938E931C97F6010285DC
:103EE0001385D6011C968D919C911D970817190773
:103EF00061F0D80114966D917C911597C5010E94CF
:103F00003816F80102811381ECCF51968D919C9166
:103F10005297F701928B818B53968D919D910D90C5
:103F2000BC91A02D838B948BA58BB68B81EA92E0FC
:103F300091838083C7010F90DF91CF911F910F91E3
:103F4000FF90EF90DF90CF90BF90AF900895EF92E9
:103F5000FF920F931F93CF93DF931F92CDB7DEB7DE
:103F60008C017B016F3F7F4F19F480E090E028C007
:103F7000F801878584FF22C0F801818D928D6489C4
:103F800075898617970758F0E9826F5F7F4FAE01FA
:103F90004F5F5F4FC80140960E94FF1207C0F801B3
:103FA00020893189F901E80FF91FE082F801818D3C
:103FB000928D0196928F818FC70102C08FEF9FEF84
:103FC0000F90DF91CF911F910F91FF90EF90089587
:103FD000EF92FF920F931F93CF93DF931F92CDB772
:103FE000DEB7FC01922F9870822F807128712831E2
:103FF00019F44230A9F43BC0413011F48B0116C0D2
:10400000423081F4882329F004891589060F171F8F
:1040100002C000E010E0992349F00789108D04C028
:10402000413061F304891589060F171F24893589EA
:1040300020173107E0F0992311F0108F078B8823A8
:10404000A1F07F011982AE014F5F5F4FB801CF0130
:1040500040960E94FF12F701848995892789308D47
:104060008217930710F4908F878BC80102C08FEFDF
:104070009FEF0F90DF91CF911F910F91FF90EF90E5
:104080000895089508950C948C35DC01ED91FC9110
:10409000369720813181820F931FF5CFFB0120815C
:1040A0003181FC0131832083FB0142815381F9017D
:1040B000369720813181FC01E20FF31F5183408349
:1040C0000895DB012D913C911197FC0131832083F0
:1040D000F90136970190F081E02DE80FF91F129653
:1040E0002D913C91139731832083DC0112961D9210
:1040F0001D921D921C92159781E290E09483838318
:10410000548B438B1582158A08950F931F93CF9379
:10411000DF938C01EB0188819981F8019183808381
:104120002A853B85FC0136970190F081E02DE00F58
:10413000F11F318320838C859D85F80197838683C9
:104140006A5F7F4FC80106960E946E0BBE016E5FCC
:104150007F4FC801DF91CF911F910F919FCFCF93D8
:10416000DF93EC0187EE92E0998388838BEF92E0F6
:104170009987888781EF92E09F838E8369ED72E053
:10418000CE0106960E946E0B65ED72E0CE01DF91C6
:10419000CF9184CF0697E3CFDC01ED91FC91369768
:1041A00020813181820F931FDACFCF93DF93EC010F
:1041B000D6DFCE01DF91CF910C948C350697F5CFE9
:1041C000DC01ED91FC91369720813181820F931FA4
:1041D000ECCFDC0113968D919C911497892B59F0AB
:1041E0001596ED91FC91169717968D919C911897C5
:1041F000E817F90741F4ED91FC9111970488F589CE
:10420000E02DCD01199481911696FC93EE931597AC
:1042100090E00895DC0113968D919C911497892B61
:1042200059F01596ED91FC91169717968D919C91EA
:104230001897E817F90741F4ED91FC91119702885E
:10424000F389E02DCD011994808190E00895EF92DB
:10425000FF920F931F93CF93DF931F92CDB7DEB7DB
:104260008C017B01DB01ED91FC9136970190F0818F
:10427000E02DE60FF71F81899289009721F049838D
:104280000E943813498141111BC0D701ED91FC9167
:1042900036970190F081E02DEE0DFF1D8389948902
:1042A000B9DF8F3FBFEF9B07B1F4D701ED91FC91D0
:1042B00036978081918162E08E0D9F1D0E948C1245
:1042C00081E0F80180830F90DF91CF911F910F91D2
:1042D000FF90EF9008950E948034892B89F3D701D5
:1042E000ED91FC9136970190F081E02DEE0DFF1DD0
:1042F000838994896EDFC9CF2EEF33E0FC013183CF
:10430000208340960C948A14CF93DF93EC01F4DF62
:10431000CE01DF91CF910C948C35CF93DF93EC01DC
:1043200080E294E09983888384E394E09CA38BA348
:104330008AE294E09F838E83CE010896DDDF6AE3F4
:1043400074E0CE01DF91CF91E0CE0697E6CFDC019D
:10435000ED91FC91369720813181820F931FDDCF43
:10436000CF93DF93EC01D9DFCE01DF91CF910C9495
:104370008C350697F5CFDC01ED91FC9136972081C5
:104380003181820F931FECCFEF92FF920F931F9317
:10439000CF93DF93EC018B017A016E5F7F4F91DE4B
:1043A000B8016A5F7F4FA701CE0106960E94A80B55
:1043B000F801808191819983888322853385FC016E
:1043C00036970190F081E02DEC0FFD1F31832083A3
:1043D000F801848595859F838E83DF91CF911F910E
:1043E0000F91FF90EF900895CF92DF92EF92FF929E
:1043F0000F931F93CF93DF931F92CDB7DEB78C013E
:104400007B016A01B9010E94EB148FEFC816D80630
:1044100011F40E942436E114F10481F01982AE01F6
:104420004F5F5F4FB601C8010E94FF12F80144813F
:104430005581B701808191810E94492A0F90DF91B7
:10444000CF911F910F91FF90EF90DF90CF90089543
:104450002F923F924F925F926F927F928F929F9294
:10446000AF92BF92CF92DF92EF92FF920F931F9382
:10447000CF93DF93CDB7DEB72C970FB6F894DEBF9E
:104480000FBECDBF6C0129013A01FC01A18CB28C99
:104490009E01265F3F4FA201CE010196A5DFF601E6
:1044A000E488F588EA14FB0410F40E94243697018E
:1044B0002A193B0982012415350508F489018D80EC
:1044C0009E80E01AF10AC40180959095E816F906DD
:1044D00060F7E80CF91CC60140961C010815190587
:1044E00058F41886AE01485F5F4FB7012B873C87B1
:1044F0000E94FF123C852B85F60180899189A901D4
:10450000401B510BB8016A0D7B1D680F791FF40128
:10451000EA0DFB1D8E0F9F1F0E94353669817A813F
:10452000F60180899189A4018A0D9B1DB2D7198655
:10453000AE01475F5F4FB701C1010E94FF12CE017C
:1045400001960E948A14F601818D928D840D951D2D
:10455000928F818FC301B2012C960FB6F894DEBF03
:104560000FBECDBFDF91CF911F910F91FF90EF90C4
:10457000DF90CF90BF90AF909F908F907F906F9083
:104580005F904F903F902F900895CF93DF93EC0171
:104590006C817D816F5F7F4F8A819B818617970732
:1045A00018F4CE010E946212E881F9818C819D810C
:1045B000E80FF91F108288819981DF91CF910895CA
:1045C000CF92DF92EF92FF920F931F93CF93DF93DF
:1045D0001F92CDB7DEB76C017B01BE016F5F7F4FCD
:1045E0000E94EB14D701ED91FC9136970190F08178
:1045F000E02DEE0DFF1D838994890CDE8C018F3F29
:10460000BFEF9B0721F10E948034892B01F5D70170
:10461000ED91FC9136970190F081E02DEE0DFF1D9C
:1046200083899489D6DDC80101978F3F910568F48D
:104630000983F601648175816F5F7F4FAE014F5F23
:104640005F4FC6010E94FF12CDCF00E0F1CFF6010F
:1046500084819581892B59F4D701ED91FC9136978E
:104660008081918166E08E0D9F1D0E948C12C60193
:104670000F90DF91CF911F910F91FF90EF90DF90FE
:10468000CF900895CF92DF92EF92FF920F931F93F6
:10469000CF93DF931F92CDB7DEB77C016B01BE01D4
:1046A0006F5F7F4F0E94EB14D601ED91FC9136971E
:1046B0000190F081E02DEC0DFD1D83899489AADD28
:1046C0008C018F3FBFEF9B07B9F00E948034892B8C
:1046D00099F4C801C0970A9700F1C8018D7F8C97A3
:1046E000E1F00D32110519F00B32110529F4F70133
:1046F00084819581892B89F0F70184819581892BAB
:1047000071F5D601ED91FC9136978081918166E03B
:104710008C0D9D1D0E948C1222C0D601ED91FC9142
:1047200036970190F081E02DEC0DFD1D8389948971
:1047300050DDC80101978F3F910578F40983D701B7
:1047400014966D917C9115976F5F7F4FAE014F5F0F
:104750005F4FC7010E94FF12A7CF00E0EFCFC70154
:104760000F90DF91CF911F910F91FF90EF90DF900D
:10477000CF900895EF92FF920F931F93CF93DF9303
:10478000CDB7DEB765970FB6F894DEBF0FBECDBFCD
:104790008C017B01BC01CE0145960E94FC13C70130
:1047A000FF0CAA0BBB0BF80120813181F901369770
:1047B0000190F081E02DE00FF11F2381348125FD70
:1047C00018C026FF05C032FD17C026EA34E01FC01E
:1047D00027FF15C0A9014427507232FF05C0452BA1
:1047E00089F42FEA34E013C0452B79F428EB34E048
:1047F0000EC02DE934E00BC021EA34E008C020E00F
:1048000030E005C02AEA34E002C024EB34E0BF9374
:10481000AF939F938F933F932F931F9284E18F9336
:104820009E012F5F3F4F79013F932F930E945B368C
:104830009C01990F440B550BB701C8010E945B13F3
:10484000D801ED91FC9136970190F081E02DE00FB9
:10485000F11F838194810FB6F894DEBF0FBECDBFE8
:1048600096FF03C0C8010E943813C80165960FB6B1
:10487000F894DEBF0FBECDBFDF91CF911F910F9196
:10488000FF90EF9008954F925F926F927F928F9278
:104890009F92AF92BF92CF92DF92EF92FF920F93CF
:1048A0001F93CF93DF93CDB7DEB7C75AD1090FB6A9
:1048B000F894DEBF0FBECDBF5C0127DAD501539659
:1048C0000D911D912D913C9156976B017C01C01A61
:1048D000D10AE20AF30ACC55DF4FC882D982EA82B4
:1048E000FB82C45AD040AE014D565F4F67E774E07B
:1048F000CE0184589F4FF0D57E0125E8E20EF11CD1
:10490000D7011D921D921D921C9213974501B9E08B
:104910008B0E911CAE0144585F4FB401CE018457F9
:104920009F4F0E94E416C357DF4FE881F981CD58AD
:10493000D040D5011C968D919C911D978E179F0795
:1049400031F4F7014080518062807380A1C064819E
:104950007581695F7F4FCE0101960E946A2F40E00A
:10496000BE016F5F7F4FCE01CA9671DCBE01665CEF
:104970007F4FCE018D589F4F0E94EB14E981FA8141
:1049800036970190F081E02D93E0C92ED12CCC0E0A
:10499000DD1EEC0DFD1D8181BE016F5F7F4F85FF28
:1049A00018C0CE01CA966EDEBE01665C7F4FCE0196
:1049B0008D589F4F0E943815CE01CA960E948A14C6
:1049C000CE018D589F4FE1DDFF92EF922CEB34E04A
:1049D00046C0CE01CA96F4DDBE01665C7F4FCE01B3
:1049E0008D589F4F0E943815CE01CA960E948A1496
:1049F000E981FA8136970190F081E02D23E030E0E3
:104A00002C0F3D1FE20FF31F8181928186FF09C0A9
:104A1000CE018D589F4FB9DDFF92EF9226EA34E028
:104A20001EC087FF14C095FF09C0CE018D589F4F4F
:104A3000ACDDFF92EF9224EB34E011C0CE018D5833
:104A40009F4FA3DDFF92EF9228EB34E008C0CE0128
:104A50008D589F4F9ADDFF92EF9220EC34E03F9308
:104A60002F939F938F930E9497360F900F900F90E4
:104A70000F900F900F90CE018D589F4F0E948A1477
:104A8000D7014D905D906D907C90CE01019645DCF4
:104A9000CE0184589F4F0E948A14CC55DF4F8881E5
:104AA0009981AA81BB81C45AD04084159505A60579
:104AB000B70508F4FFC229D9D50153966D937D93AC
:104AC0008D939C93569764EC74E08EEE97E00E9471
:104AD00013150E94FB1489E0EFEFF2E0DE01A45809
:104AE000BF4F01900D928A95E1F749E050E0BE0179
:104AF00064587F4F86EA96E00E943F2F3E01B3E75D
:104B00006B0E711C89E0F30111928A95E9F783011C
:104B10006301F9E0CF0ED11CF8D86093AE06709314
:104B2000AF068093B0069093B106E091A606F0918F
:104B3000A7060680F781E02D86EA96E0199597FD95
:104B40000CC0D8018D938D01AC15BD0529F7F3017B
:104B50003196C301089620E01DC0D7D82091AE063B
:104B60003091AF064091B0065091B106DC01CB0107
:104B7000821B930BA40BB50B2091AA063091AB06B8
:104B80004091AC065091AD0682179307A407B50774
:104B900060F2DDCF3191230FE817F907D9F7122F13
:104BA0001195F30180818F3F31F48181863819F4AA
:104BB00080858117D1F0D3011896EC90F12C68ED27
:104BC00074E08EEE97E00E9413156AED74E00E9487
:104BD0001315612F70E0CEDD66EE74E00E941315B0
:104BE000B701C8DD0E94FB1465C2F301028110E029
:104BF0006380712C81E290E0A2969FAF8EAFA29766
:104C0000A3961FAEA397A4961FAEA497A5961FAE1A
:104C1000A59786E090E0A0E0B0E0A9968CAF9DAFAC
:104C2000AEAFBFAFA997AD961CAE1DAE1EAE1FAE08
:104C3000AD9788E693E06F969FAF8EAF6F9780E257
:104C4000AE968FAFAE97E0961FAE1EAEE0974AE3EA
:104C500050E04C0F5D1F485F5F4FE2965FAF4EAF75
:104C6000E297E3961FAEE3976AE374E0CE01CA963B
:104C70008BDB80E294E09BAF8AAF84E394E06F9695
:104C80009FAF8EAF6F978AE294E022969FAF8EAF70
:104C9000229727961FAE1EAE279729961FAE1EAEEF
:104CA00029972B961FAE1EAE2B972D961FAE1EAECC
:104CB0002D972F961FAE1EAE2F9761961FAE1EAE7C
:104CC000619762961FAE62978EEF93E024969FAF36
:104CD0008EAF24979E012F5F3F4F6901B9018AE390
:104CE00090E08C0F9D1F48960E94EB146B961FAEB0
:104CF0001EAE6B976D961FAE1EAE6D9788E16296E5
:104D00008FAF6297502F4427640E751E6AE370E0E0
:104D10006C0F7D1F6A5F7F4FC7010E94FC13A301C8
:104D20002296EEADFFAD229736970190F081E02DEF
:104D300082E490E08C0F9D1FE80FF91F8181928122
:104D400085FD18C086FF05C092FD17C086EA94E075
:104D50001FC087FF15C09C012227307292FF05C03B
:104D6000232B89F48FEA94E013C0232B79F488EB8A
:104D700094E00EC08CEB94E00BC081EA94E008C094
:104D800080E090E005C08AEA94E002C084EB94E001
:104D90001F921F925F934F939F938F931F9284E173
:104DA0008F93DF92CF920E945B369C01990F440B48
:104DB000550B0AE310E00C0F1D1F0A5F1F4FB601D1
:104DC000C8010E945B132296EEADFFAD2297369785
:104DD0000190F081E02DA2E4B0E0AC0FBD1FEA0F1E
:104DE000FB1F818192810FB6F894DEBF0FBECDBF4D
:104DF00096FF03C0C8010E9438136AE370E06C0F8D
:104E00007D1F685E7F4F86012FEF3FEF40E050E04F
:104E1000CE0186569F4F0E94A115AE014F555F4FA0
:104E200069E974E0CE018D569F4F56D3D5011C968B
:104E30000D911C911D97AE014D565F4FB401C601F7
:104E40000E94E4168A819B810817190749F5A6017B
:104E50006AEE74E0C70140D3BE016D567F4FC701B3
:104E60000E940D1440EF54E0B701C6010E94831761
:104E70004BE055E0B5016E5F7F4FCE0184579F4FE9
:104E80000E9483170E94FD11A601BE0164577F4F47
:104E90000E948911CE0184579F4F0E948A142CC012
:104EA000BE016D567F4FC4010E94C417BE016656F5
:104EB0007F4F0E94381544E155E0B5016E5F7F4F8A
:104EC000C7010E9483178E0104571F4F2FEF3FEF3A
:104ED00040E050E0B701C6010E94A115BE016D5629
:104EE0007F4FC6010E940D140E94FD11AE0146566F
:104EF0005F4FB6010E948911C6010E948A14C70142
:104F00000E948A14CE018D569F4F0E948A14CE01B2
:104F100086569F4F0E948A14AE014D555F4F69E936
:104F200074E0CE018D569F4FD7D28E010F551F4F83
:104F3000F80111821082AE014D565F4FB401CE01CF
:104F400086569F4F0E94E416C556DF4FE881F981CF
:104F5000CB59D040D5011C968D919C911D978E17F1
:104F60009F0721F4F801008111818CC06481758153
:104F7000695F7F4FC601AED740E0B601C70167D970
:104F8000B701CE0184579F4F0E94EB14E981FA814B
:104F900036970190F081E02D23E030E02C0F3D1F8B
:104FA000E20FF31F8181B60185FF14C0C7016ADBE0
:104FB000B701CE0184579F4F0E943815C7010E9448
:104FC0008A14CE0184579F4FE0DA1F930F9326E196
:104FD00035E042C0C701F4DAB701CE0184579F4FD4
:104FE0000E943815C7010E948A14E981FA81369718
:104FF0000190F081E02D83E090E08C0F9D1FE80F81
:10500000F91F8181928186FF09C0CE0184579F4F8D
:10501000BCDA1F930F9329E135E01EC087FF14C04F
:1050200095FF09C0CE0184579F4FAFDA1F930F93AE
:105030002CE135E011C0CE0184579F4FA6DA1F93B3
:105040000F932FE135E008C0CE0184579F4F9DDAC2
:105050001F930F9322E235E03F932F939F938F93FB
:105060000E9497360F900F900F900F900F900F9017
:10507000CE0184579F4F0E948A14D8010D911C9134
:10508000C6014BD968ED74E08EEE97E00E941315CF
:1050900065E275E00E941315B8016CDB0E94FB14F9
:1050A000CE018D569F4F0E948A14CE01CA9635D9E3
:1050B00081E001C080E0C955DF4F0FB6F894DEBF34
:1050C0000FBECDBFDF91CF911F910F91FF90EF9059
:1050D000DF90CF90BF90AF909F908F907F906F9018
:1050E0005F904F9008951F920F920FB60F92112468
:1050F0002F933F938F939F93AF93BF9380917B06A2
:1051000090917C06A0917D06B0917E063091950627
:1051100023E0230F2D3720F40196A11DB11D05C0FA
:1051200026E8230F0296A11DB11D209395068093BA
:105130007B0690937C06A0937D06B0937E068091BB
:105140007F0690918006A0918106B091820601961B
:10515000A11DB11D80937F0690938006A0938106C8
:10516000B0938206BF91AF919F918F913F912F9104
:105170000F900FBE0F901F901895CF93C82F462FFA
:1051800061E070E00E94801A61E070E08C2F0E9464
:10519000B11A8111F9CFCF9108958F929F92AF925A
:1051A000BF92CF92DF92EF92FF920F931F93CF9314
:1051B000DF93B82E4B018A01A22E68E270E00E94B4
:1051C000B11AC82FD0E069E270E08B2D0E94B11AAD
:1051D000DC2FCC27C82B9E013770CB2CD12CC601DD
:1051E000880F991FAC014256594F6A01FA0180811C
:1051F0009181820F931FA801420F531F41305840E5
:1052000090F060E078E07B01E21AF30AA701B401B4
:10521000C4D1A8014E195F09B4016E0D7F1DF601BE
:105220008081918102C0A801B401B7D1A1100EC044
:10523000C00FD11F4D2F68E270E08B2D0E94801AA5
:105240004C2F69E270E08B2D0E94801ADF91CF9184
:105250001F910F91FF90EF90DF90CF90BF90AF9094
:105260009F908F9008959F92AF92BF92CF92DF92BE
:10527000EF92FF920F931F93CF93DF93982E8B01A2
:105280005A01690164E270E00E94B11AE82EF12C23
:1052900065E270E0892D0E94B11AFE2CEE24E82A06
:1052A000E701C00FD11F9E013770E92CF12CC70117
:1052B000880F991FAC014A56594F7A01FA01808133
:1052C0009181820F931FA9014C0D5D1D4130584003
:1052D00088F000E018E0021B130BA801B50187D18C
:1052E000A601401B510BB501600F711FF7018081B2
:1052F000918102C0A601B5017AD1CC0DDD1D4D2FE3
:1053000064E270E0892D0E94801A4C2F65E270E003
:10531000892DDF91CF911F910F91FF90EF90DF903A
:10532000CF90BF90AF909F900C94801AFF920F93F4
:105330001F93CF93DF93F82EC0E0D0E08F2D0ED1D6
:105340008C01892B19F08F2D09D1EC01C017D107E1
:10535000A9F7CE01DF91CF911F910F91FF90089592
:1053600090E0FC01EC52FE4F2491FC01E257FE4F0D
:105370008491882399F090E0880F991FFC01EC58E4
:10538000FE4FA591B491FC01E65AFE4F8591949190
:105390008FB7F894EC91E22BEC938FBF08950296AF
:1053A0000895CF93DF93C0918406D09185068091B4
:1053B0008606909187068C179D07C1F1EC81FD81CF
:1053C00080819181009739F0DC01ED91FC910280A0
:1053D000F381E02D19950A80DB81C02DE8CF028092
:1053E000F381E02DF0938506E09384060190F0812F
:1053F000E02D848195810E948C35E0918406F091A6
:10540000850680819181009711F00E948C35E09192
:105410008406F09185061182108280918806909111
:105420008906019790938906809388068091880663
:1054300090918906E0918406F0918506892B79F692
:10544000848195810E948C35809184069091850697
:10545000009721F0DF91CF910C948C35DF91CF91A3
:1054600008951F93CF93DF93182F66E270E00E9498
:10547000B11AC82FD0E067E270E0812F0E94B11A04
:10548000DC2FCC279E01282BC901DF91CF911F91E2
:105490000895CF92DF92EF92FF920F931F93FB013B
:1054A000DC0100E010E098016A01E12CF12C0C1500
:1054B0001D052E053F0538F461916D930F5F1F4F59
:1054C0002F4F3F4FF4CF840F951F1F910F91FF90E7
:1054D000EF90DF90CF900895AF92BF92CF92DF927E
:1054E000EF92FF920F931F93CF93DF931F92CDB74D
:1054F000DEB76C017B01BA010E94EB14E114F104E8
:10550000E9F0F70101900020E9F731978F010E19BA
:105510001F09F601A480B5801982B8016A0D7B1DB0
:10552000AE014F5F5F4FC6010E94FF12F6018081FE
:105530009181A801B7018A0D9B1DABDF0F90DF9110
:10554000CF911F910F91FF90EF90DF90CF90BF9080
:10555000AF9008952C9A08952C9808951F93CF9397
:10556000DF93182F60E270E00E94B11AC82FD0E0DC
:1055700061E270E0812F0E94B11ADC2FCC279E01DE
:10558000282BC901DF91CF911F9108958EBD000096
:105590000DB407FEFDCF8EB50895CF92DF92EF9246
:1055A000FF920F931F93CF93DF93EC017A018B014E
:1055B0006C01C40ED51ECC15DD0579F0CDDF8FE072
:1055C000E5DF8D2FE3DF8C2FE1DF219680E0DEDF4A
:1055D000F80181938F01BEDFEECFC701DF91CF913C
:1055E0001F910F91FF90EF90DF90CF900895CF9291
:1055F000DF92EF92FF920F931F93CF93DF93EC0113
:105600007A018B016C01C40ED51ECC15DD0571F03D
:10561000A3DF80EFBBDF8D2FB9DF8C2FB7DF2196A3
:10562000F80181918F01B2DF95DFEFCFC701DF91E4
:10563000CF911F910F91FF90EF90DF90CF90089541
:105640001F93CF93DF931F921F92CDB7DEB7182F12
:105650006A83998381DF80EF99DF9981892F96DFB3
:10566000812F94DF6A81862F91DF74DF81E00F90B4
:105670000F90DF91CF911F910895FF920F931F9389
:10568000CF93DF931F921F92CDB7DEB7F82E8A011A
:105690002A8369830E948A1A80E590E00E94E902C9
:1056A0002A816981462F422B60E070E08F2D0E9495
:1056B000801A0115110551F40091780810917908AC
:1056C0000F5F1F4F1093790800937808412F64E013
:1056D00070E08F2D0E94801A402F65E070E08F2DC2
:1056E0000E94801A61E070E08F2D47DD0E94E80281
:1056F00081E00F900F90DF91CF911F910F91FF905C
:1057000008951F93CF93DF931F921F92CDB7DEB7FB
:10571000182F80E590E069837A830E94E90221E0F6
:1057200041E050E069817A81812F37DD0E94E802F3
:1057300081E090E00F900F90DF91CF911F9108953D
:10574000FF920F931F93CF93DF93F82E80E590E0A5
:105750000E94E902C0E0D0E08F2D83DE8C01892B0E
:1057600019F08F2D7EDEEC01C017D107A9F70E943A
:10577000E802CE01DF91CF911F910F91FF90089524
:10578000AF92BF92CF92DF92EF92FF921F93CF938F
:10579000DF93182F5B017A0180E590E00E94E90217
:1057A000C0E0D0E0812F5DDE6C01892B19F0812FE4
:1057B00058DEEC01CC15DD05A9F7209799F463E0DC
:1057C00070E0812F0E94B11A8431E1F08823D1F07A
:1057D000C1E0D0E08C3111F4C0E0D0E0D195C195AA
:1057E000D10910C0EC16FD060CF4E7011C161D06CD
:1057F0004CF420E0AE01B501812FCFDC60E470E015
:10580000812FBBDC0E94E802CE01DF91CF911F9176
:10581000FF90EF90DF90CF90BF90AF9008950895E4
:10582000CF93DF931F92CDB7DEB76983DC01ED9193
:10583000FC910280F381E02D41E050E0BE016F5FFA
:105840007F4F19950F90DF91CF910895CF93DF93FC
:10585000FC0124852430D1F0EC010E94111C84311C
:1058600081F0882371F0883161F08C3161F4E88136
:10587000F9810480F581E02DCE01199521E0892B75
:1058800019F420E001C021E0822F01C080E0DF9107
:10589000CF910895CF92DF92EF92FF921F93CF9313
:1058A000DF93FC0114851430A1F1EC0180E590E058
:1058B0000E94E90268E070E0812F5FDC0E94E8024C
:1058C0000E94851E6B017C01CE010E94111C882361
:1058D000B1F061E070E080E090E00E944D1E0E9417
:1058E000851EDC01CB018C199D09AE09BF09883EDC
:1058F0009340A105B10540F38C850E948A1AEC857E
:10590000F0E0EE0FFF1FED58F94F1182108284E096
:105910008C87DF91CF911F91FF90EF90DF90CF9018
:1059200008950F931F93CF93DF931F92CDB7DEB7E8
:105930008C01DC01ED91FC910480F581E02D19953D
:10594000892B49F0BE016F5F7F4FF8018485D9DE56
:10595000898190E002C08FEF9FEF0F90DF91CF9190
:105960001F910F910895FC0184850ACFCF93DF9397
:105970001F92CDB7DEB741E050E0BE016F5F7F4FB1
:10598000FC018485FDDE181619061CF4898190E05F
:1059900002C08FEF9FEF0F90DF91CF910895FC0130
:1059A0008485843009F0CCCE80E090E008958F9219
:1059B0009F92AF92BF92CF92DF92EF92FF920F939E
:1059C0001F93CF93DF936C015B017A01FC01C485C7
:1059D000C43041F481E090E0F6019383828380E05B
:1059E00090E054C08A014130584010F000E018E0C7
:1059F00080E590E00E94E9028C2F98DC4C0163E086
:105A000070E08C2F0E94B11AD82F0E94E802D73183
:105A100011F0DC3121F48016910650F302C000E051
:105A200010E080E590E00E94E9029801A50160E0A5
:105A300070E08C2F18DC60E270E08C2F9EDB62E05F
:105A400070E08C2F0E94B11A84FD14C063E070E0F6
:105A50008C2F0E94B11A811106C00E94E8028C2F7F
:105A60000E948A1AB7CF0E94E80280E590E00E9467
:105A7000E902E5CF40E162E070E08C2F0E94801ADD
:105A80000E94E802012B09F4A5CFC701DF91CF9155
:105A90001F910F91FF90EF90DF90CF90BF90AF904C
:105AA0009F908F9008952F923F924F925F926F92A6
:105AB0007F928F929F92AF92BF92CF92DF92EF929E
:105AC000FF920F931F93CF93DF93CDB7DEB7CE54E2
:105AD000D1090FB6F894DEBF0FBECDBF7C012B9667
