:1000000015C1000044C1000042C1000040C1000011
:100010003EC100003CC100003AC1000038C10000F0
:1000200036C1000034C1000032C1000030C1000000
:100030002EC100002CC100002AC1000028C1000010
:1000400026C1000024C1000022C1000020C1000020
:100050001EC100001CC100001AC100000C94F51460
:1000600016C100000C944C140C94231410C1000011
:100070000EC100000CC100000AC1000008C1000050
:1000800006C1000004C1000002C1000000C1000060
:10009000FEC00000FCC00000FAC00000F8C0000074
:1000A000F6C00000F4C00000F2C00000F0C0000084
:1000B000EEC00000ECC00000EAC00000E8C0000094
:1000C000E6C00000E4C00000E2C00000E0C00000A4
:1000D000DEC00000DCC000000C94FA130C94D113B5
:1000E000D6C00000541B571B461B4A1B4E1B8E1BC1
:1000F0005B1B5F1B651B691B6D1B731B771B7B1BCE
:100100008E1B811B851B891B0000220025002800F7
:100110002B002E003100340002010000050108010F
:100120000B0100000A0B02090C0D0E080703040165
:1001300000000000000000000000000000000000BF
:10014000000000000000000000000000000012118C
:10015000100000000000000000000000000000008F
:100160000000000000000000000021002400270023
:100170002A002D00300033000101000004010701B6
:100180000A01000020002300260029002C002F0077
:100190003200000100000301060109010505050503
:1001A000070508080808020202020A0A08080404EF
:1001B000040401010101010101010303030303031D
:1001C0000303040707070C0C0C0C0C0C0C0C0202AC
:1001D000020206060606060606060B0B0B0B0B0BA9
:1001E0000B0B010210202008081020401020408036
:1001F00002010201080402010102040810204080EB
:100200008040201008040201800402018040201078
:1002100008040201080402010102040810204080C1
:100220000102040810204080041F3E1811241FBE44
:10023000CFEFD1E2DEBFCDBF00E00CBF13E0A0E006
:10024000B2E0E6E4F6E400E00BBF02C007900D92D6
:10025000A037B107D9F726E0A0E7B3E001C01D92AF
:10026000AC3AB207E1F711E0C5E1D1E000E006C029
:1002700021970109802FFE010E94A421C431D107DA
:1002800080E00807A9F70E945F180C941223B8CEEB
:10029000DC01ED91FC91048CF58DE02D199591E038
:1002A00089270895862F089581E08627089580E3A1
:1002B000FB0180833296842F82958F7090E1899F15
:1002C000401911244A3014F4405D01C0495C429346
:1002D000482F8111F0CF0895CB010895CF93DF937C
:1002E000EC01E881F9810288F389E02D19958F3FAF
:1002F0002FEF920731F02D813E812F5F3F4F3E83DC
:100300002D83DF91CF9108958FEF9FEF089560E0E7
:1003100070E0CB01089580E090E00895CB0108954E
:10032000CF93DF93EC0188899989DC01ED91FC91F1
:100330000480F581E02D1995892B59F088899989D8
:10034000DC01ED91FC910680F781E02DDF91CF91EA
:1003500019948FEF9FEFDF91CF910895CF93DF93A3
:10036000EC0188899989DC01ED91FC910480F5818B
:10037000E02D1995892B59F088899989DC01ED9137
:10038000FC910084F185E02DDF91CF9119948FEFDE
:100390009FEFDF91CF910895AF92BF92CF92DF92FE
:1003A000EF92FF920F931F93CF93DF9300D01F9292
:1003B000CDB7DEB78C015B01C12CD12C7601F801E1
:1003C00080899189DC01ED91FC910680F781E02D17
:1003D00029833A834B835C83199529813A814B8128
:1003E0005C818F3F71F0C216D306E406F5064CF42B
:1003F000D5018D935D01BFEFCB1ADB0AEB0AFB0A37
:10040000DECFC701B6010F900F900F900F90DF91D4
:10041000CF911F910F91FF90EF90DF90CF90BF9001
:10042000AF900895DC0150968D919C915197DC011D
:10043000ED91FC910480F581E02D199480E090E02D
:10044000089580E090E0089580E090E0089580E0D5
:1004500090E008950895CF92DF92EF92FF920F936C
:100460001F93CF93DF93EC018B010E94E9146B0182
:100470007C0188819981DC01ED91FC910480F581FA
:10048000E02D1995892B79F40E94E914AB01BC0188
:100490004C195D096E097F0948395A436105710598
:1004A00040F380E00CC088819981DC01ED91FC91E2
:1004B0000680F781E02D1995F801808381E0DF91B6
:1004C000CF911F910F91FF90EF90DF90CF90089503
:1004D0000F931F93CF93DF938C01EB016F3F8FEF4F
:1004E000780719F480E090E00FC06A3031F46DE0D5
:1004F000F801808991890E9437186C2FF801808952
:1005000091890E943718CE01DF91CF911F910F91F1
:1005100008958F929F92BF92CF92DF92EF92FF92B7
:100520000F931F93CF93DF9300D01F92CDB7DEB709
:100530008C014B01C12CD12C7601C216D306E406E6
:10054000F50644F5F401B1904F01FAE0BF120EC078
:100550006DE0F8018089918929833A834B835C831C
:100560000E9437185C814B813A8129816B2DF801FB
:100570008089918929833A834B835C830E94371851
:10058000FFEFCF1ADF0AEF0AFF0A5C814B813A8145
:100590002981D3CFCA01B9010F900F900F900F900E
:1005A000DF91CF911F910F91FF90EF90DF90CF904F
:1005B000BF909F908F9008950C9448220C944822ED
:1005C000089508950C944822DC01ED91FC91369732
:1005D00020813181820F931FF5CFFB012081318172
:1005E000FC0131832083FB0142815381F90136975D
:1005F00020813181FC01E20FF31F51834083089574
:1006000029E133E0FC013183208323E233E0358BA1
:10061000248B69E273E0E1CFDC01ED91FC91369728
:1006200020813181820F931FEBCFCF93DF93EC01B9
:10063000E7DFCE01DF91CF910C944822DC01ED91F0
:10064000FC91369720813181820F931FEECF0C945D
:10065000482208958CBD9DBD0895CF92DF92FF92F0
:100660000F931F93CF93DF93FC012485243009F06F
:1006700076C06A01EB018C01F12C8F2D0E9445118F
:10068000811103C0F801F48607C08B7F8831D1F354
:10069000F394F4E0FF12F1CFF8018485843009F47B
:1006A0005EC020910002309101022F5F3F4F11F494
:1006B00020E030EC309301022093000240910002D0
:1006C0005091010220E061E00E949410F801F4844E
:1006D0008A818F3F51F48B818F3F91F48C818F3FC2
:1006E00079F48D818F3F61F437C0811109C08B810E
:1006F000811106C08C81811103C08D81882361F135
:10070000C114D10449F180E590E0A4DFBE016E5F21
:100710007F4F8F2D90E0982F882744E050E0845F32
:100720009B4F0E94FA0EB6018F2D0E94BA0D64E015
:1007300070E08F2D0E94B916C8010E94070E873104
:1007400089F061E070E080E090E00E94B114C8019F
:100750000E94070E8111F0CF84E0F801848780E0C9
:1007600090E002C081E090E0DF91CF911F910F9166
:10077000FF90DF90CF9008952F923F924F925F921B
:100780006F927F928F929F92AF92BF92CF92DF92A1
:10079000EF92FF920F931F93CF93DF93CDB7DEB706
:1007A00065970FB6F894DEBF0FBECDBF7C016B011D
:1007B0003A01FB0120E080E090E06AE031913323D0
:1007C00009F140ED430F4A3080F4689FA001699F12
:1007D000500D1124CA01C097830F911D37FD9A95C2
:1007E0008F3F910559F350F313C03E3289F4233003
:1007F00079F0D301A20FB11D12968C932F5F80E088
:1008000090E0DCCF233021F4F301858381E021C027
:10081000F701428153816481758180916F059091C8
:100820007005A0917105B0917205481759076A07C4
:100830007B0709F49DC10E94E9148701085F1F4FDF
:100840006F7077277C5FC8010E94720C813019F0AD
:1008500080E090E0F2C183E393E09A838983F7011B
:1008600082819381A481B5818B839C83AD83BE8378
:1008700045E350E0BE016F5F7F4FC8010E94C90D84
:10088000892B19F4C12CD12C6FC10E94E914F701F6
:10089000778366837627672776277A83698342E0A2
:1008A00050E0BE016F5F7F4FC8010E94A10E81E042
:1008B00090E09E878D8742E050E0BE01635F7F4FEE
:1008C000C8010E94A10E80E091E09E878D8742E0E2
:1008D00050E0BE01635F7F4FC8010E94A10E1E86DB
:1008E0001D8642E050E0BE01635F7F4FC8010E9459
:1008F000A10E42E050E0BE01635F7F4FC8010E943D
:10090000A10E42E050E0BE01635F7F4FC8010E942C
:10091000A10E5601F5018081882311F1F6015F01D6
:100920008191811115C045018C189D081814190476
:1009300094F48F8641E050E0BE01615F7F4FC801B3
:100940000E94A10EA401B601C8010E94A10E03C01D
:100950008E3229F7E8CF6501FFEFCF1ADF0ADACF31
:100960001F8641E050E0BE01615F7F4FC8010E94D9
:10097000A10EC12CDD24D394DE86CD8642E050E06A
:10098000BE01635F7F4FC8010E94A10EDE86CD8647
:1009900042E050E0BE01635F7F4FC8010E94A10E9C
:1009A000C8010E940C0D892B09F46CCF63E0A62EC0
:1009B000B12CF2E06F0E711C0E94E9141B012C0196
:1009C000C8010E942B1018161906A4F00E94E91401
:1009D000DC01CB0182199309A409B5098938934137
:1009E000A105B105D0F462E370E080E090E00E94E0
:1009F000B114E6CFF7014281538164817581808D06
:100A0000918DA28DB38D481759076A077B0741F472
:100A1000848D958DC59721F406C02FEF3FEF9AC0C6
:100A20002EEF3FEF97C0F70181A192A10C970CF434
:100A3000A5C04CE050E0BE016F5F7F4FC8010E942F
:100A4000E50F8B8190E0982F88272C81822B9A8B41
:100A5000898B298130E0322F22274A81242BF7010C
:100A6000468157814217530709F085C097FF83C01D
:100A70008F709270892B09F0DDC0CF80D12CDC2CD7
:100A8000CC248885C82AC114D10409F4D0C0812C93
:100A9000912C8D8190E0982F88272E81822B8816AB
:100AA000990608F46EC0812C912C41E050E0BE0103
:100AB0006D5E7F4FC8010E94E50F8B89982F907C57
:100AC00009F092C0811185C08B898111EECF42E07F
:100AD00050E0BE01615F7F4FC8010E94E50F42E018
:100AE00050E0BE01635F7F4FC8010E94E50FC8015F
:100AF0000E940310C8010E940310C8010E94031045
:100B0000C8010E94031042E050E0BE016F5E7F4FBB
:100B1000C8010E94E50F8F8598898115914009F0E1
:100B200068C02D853E8532272327322721303105A5
:100B300009F05FC089899A898115944009F074C0D1
:100B400044E050E0B301C8012C8B3D8B0E94E50FBF
:100B50002C893D896901F1E0AF1AB10829F02FEF26
:100B6000C216D20609F428CFC801A8D6C60165C0AE
:100B70008EEF9FEF62C02CEF3FEFECCF2DEF3FEFFA
:100B8000E9CF41E050E0BE01635F7F4FC8010E94A2
:100B9000E50F8D85811113C08D858111F2CFC801BC
:100BA0000E940310C8010E940310C8010E94031094
:100BB000C8010E940310FFEF8F1A9F0A6ACF8D852C
:100BC0009FEF980F9D87882339F3C8010E94031077
:100BD000F6CF8B899FEF980F9B8B882309F474CFF6
:100BE000C8010E940310F5CFC8010E9403101B8AA0
:100BF0006BCF412C512C89899A899827892798276E
:100C00004816590638F4C8010E9403108FEF481A9D
:100C1000580AF1CFEFEF8E1A9E0A8C149D0409F04A
:100C200044CF26EF3FEF96CF27EF3FEF93CF2AEF4A
:100C30003FEF90CF2BEF3FEF8DCF65960FB6F89437
:100C4000DEBF0FBECDBFDF91CF911F910F91FF90FF
:100C5000EF90DF90CF90BF90AF909F908F907F905C
:100C60006F905F904F903F902F900895CF92DF92BA
:100C7000EF92FF920F931F93CF93DF93CDB7DEB721
:100C8000AF970FB6F894DEBF0FBECDBF7C016A01EF
:100C900003E313E01A8309831C861B8688EE93E026
:100CA000A0E0B0E08D879E87AF87B88B87E692E0A3
:100CB0009A878987188F0F8B198E1A8E1B8E1C8E20
:100CC00084E089A31DA30CA31EA21FA218A619A627
:100CD0008091670590916805A0916905B0916A05BA
:100CE0008CA79DA7AEA7BFA78B839C83AD83BE8334
:100CF00018861F82AE014C5D5F4FCE0101963CDD30
:100D000081309105B1F4D701ED91FC910484F58512
:100D1000E02D1BA70AA78EA19FA1A8A5B9A58CA706
:100D20009DA7AEA7BFA7A601BE01665D7F4FC70105
:100D30001995AF960FB6F894DEBF0FBECDBFDF9109
:100D4000CF911F910F91FF90EF90DF90CF9008957A
:100D50002F923F924F925F926F927F928F929F92CB
:100D6000AF92BF92CF92DF92EF92FF920F931F93B9
:100D7000CF93DF93CDB7DEB7E3970FB6F894DEBF1E
:100D80000FBECDBF7C011A012B0139010E94E9146D
:100D90004B015C0187010D5B1F4FC8010E942B10A6
:100DA00018161906A4F00E94E914DC01CB01881979
:100DB0009909AA09BB09281639064A065B06D8F024
:100DC00062E370E080E090E00E94B114E6CF42E27E
:100DD00050E0BE016F5F7F4FC8010E94E50F89811F
:100DE000823011F080E059C1F801848995898334FB
:100DF0009105C1F702C08FEF50C16D817E818F8157
:100E000098850E94AC214B015C01F30160837183E2
:100E10008283938346E050E0B701685F7F4FCE0145
:100E20004D960E94E422892BE9F6F7018081918199
:100E3000A281B38188169906AA06BB0698F284811E
:100E40009581A681B78188159905AA05BB0550F241
:100E500089899A89AB89BC8986879787A08BB18B52
:100E60008EECA82EB12CC8010E940310F1E0AF1A3D
:100E7000B108C9F719A6670182E2C80ED11CF701B3
:100E8000B696FBA7EAA7C7018A969DA78CA73C97B1
:100E90004F0189969FA78EA73897F9ABE8AB17014A
:100EA000F6E12F0E311CC5979BAB8AABF801818D03
:100EB000928D181619060CF0EFC0C8010E9403109D
:100EC0008333910509F4C7C0FCF481309105C9F161
:100ED0001CF4892B59F3D6C083309105D1F10697C4
:100EE00009F0D0C0C8010E9403105C0144E050E04A
:100EF0006AA97BA9C8010E94E50F412C512CBB2493
:100F0000F4E0AF1AB10840C08A33910509F47BC000
:100F10003CF48533910569F0C69709F440C0B2C02E
:100F20008B33910509F483C08F3F910509F4BECF3F
:100F3000A9C0C8010E940310C8010E94031089A71C
:100F4000B5CFC8010E94031044E050E068A979A918
:100F50003AC0C8010E9403105C0144E050E0B101B6
:100F6000C8010E94E50F412C512CBB2494E0A91A22
:100F7000B1084A145B040CF099CFC8010E94031019
:100F8000EFEF4E1A5E0AF5CF4A145B040CF08ECFD9
:100F9000C8010E9403108FEF481A580AF5CFC80104
:100FA0000E940310B82EF701828D811110C0838D2D
:100FB00081110DC0848D81110AC0858D811107C0FA
:100FC00044E050E0B401C8010E94E50F6FCFEEA5E8
:100FD000FFA54080518062807380B401CE0183966A
:100FE0000E94C1138DA19EA1AFA1B8A5841595053E
:100FF000A605B70529F3BB2009F458CFC8010E9404
:101000000310BA94F8CFC801FED744E050E06AA5B7
:101010007BA5C801DAD7F70166A177A180A591A5C4
:101020000E94AC2166A377A380A791A73FCFC801F8
:10103000EAD744E050E06CA57DA5C801C6D7F7010A
:1010400062A573A584A595A50E94AC2162A773A78C
:1010500084A795A72BCFC801D6D744E050E0B601AE
:10106000C801B3D7F70162A173A184A195A10E9421
:10107000AC2162A373A384A395A366A777A780ABD3
:1010800091AB14CFC801BFD7B82EBB2009F40ECF47
:10109000C801B9D7BA94F9CF89A5E3960FB6F894E9
:1010A000DEBF0FBECDBFDF91CF911F910F91FF909B
:1010B000EF90DF90CF90BF90AF909F908F907F90F8
:1010C0006F905F904F903F902F9008957F928F92F6
:1010D0009F92AF92BF92CF92DF92EF92FF920F93C7
:1010E0001F93CF93DF93CDB7DEB7A6970FB6F894D3
:1010F000DEBF0FBECDBF8C01762E942E852E20E252
:10110000B22ECE0101967C01FC012B2D11922A9565
:10111000E9F783E393E09AA389A38FEF8BA38CA3D2
:101120008DA38EA3680183E4C80ED11C43E450E074
:10113000BE016F5D7F4FC6012CD5019609F4B5C085
:1011400081E089838A8386E0A82EAB821C82F80125
:1011500064817581868197810E94AC216D837E8335
:101160008F83988789869A8680E890E09C878B8712
:101170004CE150E0B701C601E4D5F7012B2D1192E7
:101180002A95E9F7480188E0880E911CF401D701FF
:1011900001900D92AA94E1F740E150E0B701C60139
:1011A000D0D5F7011192BA94E9F796E0A92EB12CA7
:1011B00040E250E0B701C601C4D5F1E0AF1AB10872
:1011C000B9F783E6898392E89A8393E59B838C83BE
:1011D00085E38D8381E08E837F829DE3988797E00E
:1011E00099878A8786E0F401DE011B9601900D92B3
:1011F0008A95E1F78CE0898B8A8B6BE373E0CE01F3
:1012000043960E940223F8014385BE01675E7F4F2B
:10121000C8014DD8F8014485BE01655E7F4FC80105
:1012200046D8F8014585BE01635E7F4FC8013FD8AF
:101230004EE150E0B701C60184D5F3E07F121DC036
:1012400082E3898384E08A83F80196859B8397856E
:101250009C8390899D8391899E8396E39F83888751
:10126000828D8987838D8A87848D8B87858D8C87F6
:101270004CE050E0B701C60164D587E3898386E07E
:101280008A8391E09B8393E09C838D838FE08E83A0
:101290008AE38F838BE388878FEF898749E050E06B
:1012A000B701C6014ED5C601B7D3A6960FB6F894BE
:1012B000DEBF0FBECDBFDF91CF911F910F91FF9089
:1012C000EF90DF90CF90BF90AF909F908F907F90E6
:1012D0000895CF93DF93FC01A081B181109741F174
:1012E000EC01ED91FC9111970488F589E02DCD0179
:1012F000199581111FC0FE01E556FF4F8081918134
:10130000892BB1F48DEF9FEF918380838881998140
:10131000DC01ED91FC910284F385E02D1995888123
:101320009981DC01ED91FC910288F389E02D1995FA
:1013300080E001C081E0DF91CF910895C90102965C
:10134000DB01FD01E61BF70B2D91222331F0FA01A1
:10135000E80FF91F20830196F4CF9C012E1B3F0B51
:10136000420F531FDA011297FC931196EC930895E4
:10137000AF92BF92CF92DF92EF92FF920F931F93A3
:10138000CF93DF9300D01F92CDB7DEB77C01162F2D
:10139000D90180E09A2F9F77AA0FAB2FAA1FBB0B12
:1013A000B195109709F09068E1E0F0E0EC0FFD1FB7
:1013B000E80FF11D90838F5F109761F7E82FF0E041
:1013C000BA016E1B7F0B6C5F7F4FDB011C93CE015C
:1013D00001965C0180E090E08E179F076CF4D501C8
:1013E000DD905D018C010E1B1F0B040F151FD80132
:1013F0001596DC920196F0CFD7018D919C918901D1
:101400000F5F1F4F0E0F1F1FDC01ED91FC9102803B
:10141000F381E02DA80119956C010E94E914F701F0
:10142000EC57FF4F608371838283938381E0C01602
:10143000D10609F080E00F900F900F900F90DF9190
:10144000CF911F910F91FF90EF90DF90CF90BF90C1
:10145000AF9008952F923F924F925F926F927F923A
:101460008F929F92AF92BF92CF92DF92EF92FF92B4
:101470000F931F93CF93DF9300D01F92CDB7DEB7AA
:101480008C015B017C0142E0E40EF11CB7010E947B
:101490002B0281112AC026C05FEF451A550A8981A7
:1014A000D1018D931D01682F6F7770E0669DF0016B
:1014B000679DF00D769DF00D1124CE0EDF1E47E0E6
:1014C000660C771C881C991C4A95D1F787FF1FC0B2
:1014D000BE016F5F7F4FC8012C830E942B022C81BD
:1014E0008111DACF80E090E09EC0D80112962C9155
:1014F00019821801B3E02B0E311C44244394512C63
:10150000C12CD12C612C712C43016394E1CF822F2B
:10151000807F33243394803309F0312C8FEF840D96
:10152000F5018083332049F1B701640D751DC801B1
:101530000E942B028823B1F2B2016F5F7F4F6E0DC4
:101540007F1DC8010E942B02882361F2F2E04F0E3A
:10155000511CD5018C91F801E80FF11D6380712CAD
:10156000762C66248481680E711CF801828181FFCB
:1015700008C0F2E06F0E711C04C080E0612C712C79
:1015800001C082E0E82EF12CE418F508A8014756C6
:101590005F4F5B834A832EEF822E99249A94C70172
:1015A000840D951D8C159D0588F5BE016F5F7F4FDD
:1015B000C8010E942B02882309F494CFAA81BB8121
:1015C0008D919C910097A9F0332099F0F50120812D
:1015D000A401421B51099A01240D351D62167306A0
:1015E00040F4DC01ED91FC910190F081E02D6981E6
:1015F0001995B0E84B16510428F48981F801E40DDF
:10160000F51D8283EFEF4E1A5E0AC9CFF801E75647
:10161000FF4F80819181892B29F4F1E84F16510405
:1016200008F060CFC2010F900F900F900F90DF91E4
:10163000CF911F910F91FF90EF90DF90CF90BF90CF
:10164000AF909F908F907F906F905F904F903F9062
:101650002F9008951F93CF93DF93EC01162F8F8562
:1016600080FF0BC0E881F9810084F185E02D20E145
:1016700044E060E070E0CE011995EB85FC852D8596
:101680003E85812F90E0E217F30758F410832B85F5
:101690003C852F5F3F4F3C872B87DF91CF911F9178
:1016A0000895E881F981028CF38DE02DBC01CE0113
:1016B000DF91CF911F911994AF92BF92CF92DF9299
:1016C000EF92FF920F931F93CF93DF9300D01F925F
:1016D000CDB7DEB78C015B01C12CD12C7601C216CF
:1016E000D306E406F506ACF4F50161915F01C8018B
:1016F00029833A834B835C83ADDF29813A814B8117
:101700005C81019649F06FEFC61AD60AE60AF60A1E
:10171000E6CFB901CA0102C0B601C7010F900F9010
:101720000F900F90DF91CF911F910F91FF90EF904D
:10173000DF90CF90BF90AF900895089508950895D9
:10174000FC01818D928D0895FC018489958908950D
:1017500023E333E0FC0131832083FB01408951897D
:1017600062897389FC01428353836483758308957E
:10177000DC01ED91FC91028CF38DE02D199480E059
:101780000895FC019485FB018485981303C081E0D2
:10179000943009F480E0089521E0FC0184858430D0
:1017A00009F420E0822F08950895CF93DF931F92CC
:1017B000CDB7DEB76983DC01ED91FC910280F38146
:1017C000E02D41E050E0BE016F5F7F4F19950F9013
:1017D000DF91CF910895CF92DF92EF92FF920F9316
:1017E0001F93CF93DF93CDB7DEB7AF970FB6F894C3
:1017F000DEBF0FBECDBF7C016A0103E313E01A8395
:1018000009831C861B8688EE93E0A0E0B0E08D87FC
:101810009E87AF87B88B87E692E09A878987188F73
:101820000F8B198E1A8E1B8E1C8E84E089A31DA32C
:101830000CA31EA21FA218A619A68091670590915D
:101840006805A0916905B0916A058CA79DA7AEA710
:10185000BFA78B839C83AD83BE8318861F82AE0196
:101860004C5D5F4FCE0101960E94BC038130910513
:10187000B1F4D701ED91FC910288F389E02D1BA70B
:101880000AA78EA19FA1A8A5B9A58CA79DA7AEA7C1
:10189000BFA7A601BE01665D7F4FC7011995AF9630
:1018A0000FB6F894DEBF0FBECDBFDF91CF911F9171
:1018B0000F91FF90EF90DF90CF900895CF93DF933B
:1018C000EC01888D843059F01DD4E88DF0E0EE0FE6
:1018D000FF1FEB55FB4F1182108284E0888FDF9150
:1018E000CF910895EF92FF921F93CF93DF93FC0166
:1018F000208D243011F080E01AC07B01EC0110E053
:10190000812FC3D4811102C0188F05C08831E1F343
:101910001F5F1430A9F7888D843069F3FD86EC864B
:101920001A8E198E20E0A70162E0FED381E0DF91DC
:10193000CF911F91FF90EF9008950F931F93CF9336
:10194000DF931F92CDB7DEB78C01DC01ED91FC91E6
:101950000480F581E02D1995892B49F0BE016F5F58
:101960007F4FF80184858CD2898190E002C08FEF8F
:101970009FEF0F90DF91CF911F910F910895FC0180
:101980008485D5C2CF93DF931F92CDB7DEB741E0F8
:1019900050E0BE016F5F7F4FFC018485C8D21816EE
:1019A00019061CF4898190E002C08FEF9FEF0F9021
:1019B000DF91CF910895FC018485843009F097C2AE
:1019C00080E090E008959B0190E00496982F88278E
:1019D000642F820F931F37C20F931F93CF93DF9310
:1019E0001F92CDB7DEB790E00496982F88278C0120
:1019F000060F171FE0D18FE0F6D1812FF4D1802F91
:101A0000F2D180E0F0D18983D4D189810F90DF9128
:101A1000CF911F910F910895CF93FC01C08D80E568
:101A200090E00E942A0360E270E08C2F0E94B916B9
:101A300062E070E08C2FD0DF84FD17C062E070E0C0
:101A40008C2FCADF83FF0AC048E162E070E08C2F70
:101A5000BADF0E94290380E090E010C00E942903B1
:101A600080E590E00E942A03E3CF40E162E070E06D
:101A70008C2FA9DF0E94290381E090E0CF91089587
:101A80008F929F92AF92BF92CF92DF92EF92FF928E
:101A90000F931F93CF93DF936C015B017A01FC01DD
:101AA000C485C43041F481E090E0F60193838283E1
:101AB00080E090E052C08A014130584010F000E0D0
:101AC00018E080E590E00E942A038C2F0E94BF1747
:101AD0004C0163E070E08C2F7FDFD82F0E94290338
:101AE000D73111F0DC3121F48016910650F302C099
:101AF00000E010E080E590E00E942A039801A50133
:101B000060E070E08C2F0E945A1760E270E08C2F2A
:101B10000E94B91662E070E08C2F5EDF84FD12C077
:101B200063E070E08C2F58DF811105C00E9429030B
:101B30008C2FE8D2B8CF0E94290380E590E00E9464
:101B40002A03E8CF40E162E070E08C2F3CDF0E9486
:101B50002903012B09F4A7CFC701DF91CF911F9172
:101B60000F91FF90EF90DF90CF90BF90AF909F903C
:101B70008F900895CF93DF93C82FD62F472F60E122
:101B800070E021DF4D2F61E170E08C2FDF91CF916C
:101B90001ACFFF920F931F93CF93DF93FB01DC01CA
:101BA00057961C921E9256975896FC9082818111EE
:101BB00009C08381811106C08481811103C08581A0
:101BC0008823E9F041155105D1F08A01EF0180E544
:101BD00090E00E942A03BE016E5F7F4F2F2D30E000
:101BE000922F882744E050E0845F9B4F03D1B801D7
:101BF0008F2DC0DF0E94290381E090E002C080E0C9
:101C000090E0DF91CF911F910F91FF900895FC011B
:101C10008485843009F039C380E00895CF93DF9341
:101C2000FC0124852430C9F0EC01F1DF843181F01E
:101C3000882371F0883161F08C3161F4E881F98199
:101C40000480F581E02DCE01199521E0892B19F44E
:101C500020E001C021E0822F01C080E0DF91CF9120
:101C60000895CF92DF92EF92FF921F93CF93DF936D
:101C7000FC011485143081F1EC0180E590E00E94B4
:101C80002A0368E070E0812F0E94B9160E942903A0
:101C9000A0D66B017C01CE01BADF882399F061E008
:101CA00070E080E090E05DD694D6DC01CB018C1929
:101CB0009D09AE09BF09883E9340A105B10558F3BF
:101CC0008C8520D2EC85F0E0EE0FFF1FEB55FB4F2B
:101CD0001182108284E08C87DF91CF911F91FF9059
:101CE000EF90DF90CF9008950895CF93DF931F92E8
:101CF000CDB7DEB76983DC01ED91FC910280F38101
:101D0000E02D41E050E0BE016F5F7F4F19950F90CD
:101D1000DF91CF9108951F93CF93DF93182F66E241
:101D200070E05ADEC82FD0E067E270E0812F54DE09
:101D3000DC2FCC279E01282BC901DF91CF911F9169
:101D40000895AF92BF92CF92DF92FF920F931F93AD
:101D5000CF93DF938C015B01EA01FC01C688D78831
:101D6000F08C80E590E00E942A038F2D0E94BF171F
:101D70008C179D0720F48F2D0E94BF17EC019E0148
:101D8000A501B6018F2D0E945A170E942903F80160
:101D9000868997898C0F9D1F978B868BCE01DF914B
:101DA000CF911F910F91FF90DF90CF90BF90AF9098
:101DB00008952C9A08952C9808951F93CF93DF933C
:101DC000182F60E270E008DEC82FD0E061E270E01A
:101DD000812F02DEDC2FCC279E01282BC901DF9149
:101DE000CF911F9108958EBD00000DB407FEFDCF69
:101DF0008EB50895CF92DF92EF92FF920F931F93CB
:101E0000CF93DF93EC017A018B016C01C40ED51ED8
:101E1000CC15DD0571F0CFDF80EFE5DF8D2FE3DF3F
:101E20008C2FE1DF2196F80181918F01DCDFC1DF8A
:101E3000EFCFC701DF91CF911F910F91FF90EF90EE
:101E4000DF90CF9008951F93CF93DF931F921F923F
:101E5000CDB7DEB7182F6A839983ADDF80EFC3DF7C
:101E60009981892FC0DF812FBEDF6A81862FBBDF7A
:101E7000A0DF81E00F900F90DF91CF911F91089527
:101E80001F93CF93DF931F921F92CDB7DEB7182F0A
:101E900080E590E069837A830E942A0321E041E093
:101EA00050E069817A81812F9FD70E94290381E0C8
:101EB00090E00F900F90DF91CF911F910895CF93F5
:101EC000DF931F92CDB7DEB7FC01218D328D232B1E
:101ED00041F0BE016F5F7F4F808DD2DF898190E03E
:101EE00002C08FEF9FEF0F90DF91CF910895FF9287
:101EF0000F931F93CF93DF93F82E80E590E00E941D
:101F00002A03C0E0D0E08F2D06DF8C01892B19F069
:101F10008F2D01DFEC01C017D107A9F70E9429031B
:101F2000CE01DF91CF911F910F91FF900895AF9255
:101F3000BF92CF92DF92EF92FF921F93CF93DF93E6
:101F4000182F5B017A0180E590E00E942A03C0E02F
:101F5000D0E0812FE0DE6C01892B19F0812FDBDED0
:101F6000EC01CC15DD05A9F7209791F463E070E052
:101F7000812F32DD8431E1F08823D1F0C1E0D0E05F
:101F80008C3111F4C0E0D0E0D195C195D10910C0D9
:101F9000EC16FD060CF4E7011C161D064CF420E0BF
:101FA000AE01B501812F20D760E470E0812FE1D62A
:101FB0000E942903CE01DF91CF911F91FF90EF90F6
:101FC000DF90CF90BF90AF900895CF93DF93FC0147
:101FD000218D328D2115310519F48FEF9FEF10C03F
:101FE000EC014217530708F0A901888DA0DF1816ED
:101FF00019069CF7298D3A8D281B390B3A8F298FAA
:10200000DF91CF9108950F931F93CF93DF931F928A
:10201000CDB7DEB7FC01218D328D232B59F08C0119
:1020200041E050E0BE016F5F7F4F808D80DF18166A
:1020300019061CF08FEF9FEF08C0F801818D928D7B
:102040000197928F818F898190E00F90DF91CF91DE
:102050001F910F9108950F931F93CF93DF93CDB7E7
:10206000DEB728970FB6F894DEBF0FBECDBF8C0148
:10207000F801818D928D892B49F0D801ED91FC9169
:102080000680F781E02DC8011995F2CF808D2FDFF2
:102090001816190654F548E050E0BE016F5F7F4FF7
:1020A000D80158968C9143DF9C0118161906DCF470
:1020B00089819A81AB81BC81F801808B918BA28B45
:1020C000B38B8D8190E0982F88272E81820F911DF0
:1020D000958B848B2F8130E0322F22278885280F23
:1020E000311D328F218FC90102C080E090E0289617
:1020F0000FB6F894DEBF0FBECDBFDF91CF911F9119
:102100000F910895CF93C82F80E590E00E942A0395
:1021100060E170E08C2F2DD64FEF62E070E08C2FE5
:1021200052DCCF910C942903FF920F931F93CF930E
:10213000DF931F921F92CDB7DEB7F82E8A012A8354
:102140006983E0DF80E590E00E942A032A816981AB
:10215000462F422B60E070E08F2D35DC0115110514
:1021600051F40091AD041091AE040F5F1F4F109316
:10217000AE040093AD04412F64E070E08F2D23DCAA
:10218000402F65E070E08F2D1EDC61E070E08F2D48
:10219000F0D50E94290381E00F900F90DF91CF913D
:1021A0001F910F91FF900895BF92CF92DF92EF920F
:1021B000FF920F931F93CF93DF9300D000D0CDB742
:1021C000DEB7FC01208D243009F04EC06A017B018E
:1021D0008C01B12C63E070E08B2DFEDB811103C01C
:1021E000F801B08E06C08831D9F3B394F4E0BF1281
:1021F000F1CFF801808D8430B9F196E0E9E8F2E0A2
:10220000DE01119601900D929A95E1F7F701938105
:102210009F779C8394819D8395819E83B7016E5F98
:102220007F4F90E0982F882744E050E0845F9B4FD9
:10223000E1DDB601F801808D9DDCF801808D90E034
:10224000982F882746E050E0BE016F5F7F4F8A5F7E
:102250009B4FD0DDF801128E118E20E8A60162E0BE
:10226000808D62DF81E001C080E026960FB6F89491
:10227000DEBF0FBECDBFDF91CF911F910F91FF90B9
:10228000EF90DF90CF90BF9008951F93CF93DF938F
:102290001F92CDB7DEB7182F80E590E00E942A0389
:1022A00063E070E0812F98DB89830E942903898194
:1022B0000F90DF91CF911F910895FC01A089B18902
:1022C0008C91A689B78982FD0FC09C91818D8F5F0B
:1022D0008F73228D821749F0218DDF01A20FB11D6E
:1022E0005D969C93818F08958C910895FC01918D4A
:1022F000828D981761F0828DDF01A80FB11D5D9668
:102300008C91928D9F5F9F73928F90E008958FEFD5
:102310009FEF0895FC01918D828D981731F0828D89
:10232000E80FF11D858D90E008958FEF9FEF0895E0
:10233000FC01918D228D892F90E0805C9F4F821B44
:1023400091098F739927089588EC94E0F1DF21E0DB
:10235000892B09F420E0822F089583E795E0E8DFD8
:1023600021E0892B09F420E0822F0895FC01848D5F
:10237000DF01A80FB11DA35ABF4F2C91848D90E0AF
:1023800001968F739927848FA689B7892C93A0898A
:10239000B1898C9180648C93938D848D981306C041
:1023A0000288F389E02D80818F7D80830895EF92EC
:1023B000FF920F931F93CF93DF93EC0181E0888FFF
:1023C0009B8D8C8D981305C0E889F989808185FDE6
:1023D00023C0F62E0B8D10E00F5F1F4F0F731127D8
:1023E000E02E8C8DE8120BC00FB607FCFACFE889FF
:1023F000F989808185FFF5CFCE01B8DFF2CF8B8DD3
:10240000FE01E80FF11DE35AFF4FF0820B8FEA89BE
:10241000FB898081806207C0EE89FF896083E8893B
:10242000F98980818064808381E090E0DF91CF91A1
:102430001F910F91FF90EF900895CF93DF93EC01E0
:10244000888D8823C1F0EA89FB89808185FD05C0DC
:10245000A889B9898C9186FD0EC00FB607FCF5CF0F
:10246000808185FFF2CFA889B9898C9185FFEDCF56
:10247000CE017CDFE8CFDF91CF91089580E090E03E
:10248000892B19F06ADF811120C080E090E0892B50
:1024900041F080E090E0892B21F00E940000811142
:1024A00017C080E090E0892B41F080E090E0892B1C
:1024B00021F00E94000081110EC080E090E0892B85
:1024C00079F042DF81110AC008950E940000DDCF3B
:1024D0000E940000E6CF0E940000EFCF0C940000A5
:1024E00008953FB7F8948091B4049091B504A091F9
:1024F000B604B091B70426B5A89B05C02F3F19F0CC
:102500000196A11DB11D3FBFBA2FA92F982F882773
:10251000820F911DA11DB11DBC01CD0142E0660FCE
:10252000771F881F991F4A95D1F708958F929F9220
:10253000AF92BF92CF92DF92EF92FF920F931F93D1
:10254000CF93DF937C018B016C0182E0C80ED11C1C
:102550004701E5E08E0E911CC0E0D0E0F60141910C
:102560006F0150E060E070E02AE0C80124D55C0112
:102570006EE2C8017CD58A0D9B1DC80FD91FC814F7
:10258000D90461F7F701458150E060E070E02AE08E
:10259000C80111D58C0F9D1FDF91CF911F910F9115
:1025A000FF90EF90DF90CF90BF90AF909F908F9073
:1025B00008950E94E022CF93DF93C0917103D091E0
:1025C000720380917303909174038C179D0709F433
:1025D0003FC0EC81FD8187819085009739F0DC0157
:1025E000ED91FC910280F381E02D19950A80DB8149
:1025F000C02DE7CF0280F381E02DF0937203E093CA
:1026000071030190F081E02DC481D581209739F0CC
:10261000888199810E944822CE010E944822E0913F
:102620007103F091720380819181009711F00E94F3
:102630004822E0917103F09172031182108280911F
:1026400075039091760301979093760380937503B9
:102650008091750390917603E0917103F09172037C
:10266000892B41F6C481D581209739F088819981E1
:102670000E944822CE010E944822809171039091CD
:102680007203009721F0DF91CF910C944822DF91E3
:10269000CF910895CF92DF92EF92FF920F931F9305
:1026A000CF93DF93EC017B0188E090E09B838A83EA
:1026B0001D821C820E94B3216C0199838883F701DB
:1026C0000481158101151105B1F10930110518F1C9
:1026D000C801089689309105F0F09B838A830E9497
:1026E000B3219983888320E030E08C819D81281775
:1026F000390770F4E881F981E20FF31F309729F070
:10270000D601A20FB31F8C9180832F5F3F4FEDCF77
:10271000C6010E9448228C819D818017910748F450
:10272000E881F981E80FF91F309709F010820196CE
:10273000F4CF1D830C838C819D81F7012081318131
:10274000E880F98040E050E0BA01A0E0B0E048172E
:1027500059076A077B0758F4F90111919F01F701A6
:1027600011937F014F5F5F4F6F4F7F4FF0CFCE01CF
:10277000DF91CF911F910F91FF90EF90DF90CF905D
:10278000089523E333E0FC0131832083FB01408182
:10279000518162817381FC01428353836483758319
:1027A00008951F920F920FB60F9211240BB60F923D
:1027B0002F933F934F935F936F937F938F939F9349
:1027C000AF93BF93EF93FF9388EC94E0CFDDFF913D
:1027D000EF91BF91AF919F918F917F916F915F9199
:1027E0004F913F912F910F900BBE0F900FBE0F9006
:1027F0001F9018951F920F920FB60F9211240BB6CF
:102800000F922F933F934F935F936F937F938F9389
:102810009F93AF93BF93EF93FF9388EC94E04DDDCC
:10282000FF91EF91BF91AF919F918F917F916F91A8
:102830005F914F913F912F910F900BBE0F900FBE64
:102840000F901F9018951F920F920FB60F921124A0
:102850000BB60F922F933F934F935F936F937F939A
:102860008F939F93AF93BF93EF93FF9383E795E08D
:102870007DDDFF91EF91BF91AF919F918F917F91FE
:102880006F915F914F913F912F910F900BBE0F90E1
:102890000FBE0F901F9018951F920F920FB60F92B8
:1028A00011240BB60F922F933F934F935F936F9327
:1028B0007F938F939F93AF93BF93EF93FF9383E7A0
:1028C00095E0FBDCFF91EF91BF91AF919F918F91CC
:1028D0007F916F915F914F913F912F910F900BBE20
:1028E0000F900FBE0F901F901895CF93DF9390E03D
:1028F000FC01EE51FE4F2491FC01E456FE4F849101
:10290000882361F190E0880F991FFC01E859FE4F80
:10291000C591D491FC01E85FFE4FA591B49161117E
:1029200009C09FB7F8948881209582238883EC9111
:102930002E230BC0623061F49FB7F8943881822F48
:10294000809583238883EC912E2B2C939FBF06C008
:102950008FB7F894E8812E2B28838FBFDF91CF911A
:1029600008958F929F92AF92BF92CF92DF92EF9293
:10297000FF926B017C01B5DD4B015C01C114D104F8
:10298000E104F104E9F0ADDDDC01CB01881999091E
:10299000AA09BB09883E9340A105B10578F321E05F
:1029A000C21AD108E108F10888EE880E83E0981E6B
:1029B000A11CB11CC114D104E104F10421F7DECF44
:1029C000FF90EF90DF90CF90BF90AF909F908F904F
:1029D00008952FB7F8946091B0047091B10480917C
:1029E000B2049091B3042FBF08951F920F920FB6B7
:1029F0000F9211242F933F938F939F93AF93BF9385
:102A00008091B0049091B104A091B204B091B3044C
:102A10003091AF0423E0230F2D3720F40196A11D40
:102A2000B11D05C026E8230F0296A11DB11D2093FC
:102A3000AF048093B0049093B104A093B204B09318
:102A4000B3048091B4049091B504A091B604B09100
:102A5000B7040196A11DB11D8093B4049093B504F1
:102A6000A093B604B093B704BF91AF919F918F919B
:102A70003F912F910F900FBE0F901F901895CF93FD
:102A8000DF93EC01E881F98136970190F081E02D28
:102A9000E80FF91F83899489DC01ED91FC9104848E
:102AA000F585E02D1995019659F4E881F98136975D
:102AB0000190F081E02DEC0FFD1F85818160858301
:102AC000CE01DF91CF910895CF93DF93EC01E881A0
:102AD000F98136970190F081E02DE80FF91F838985
:102AE00094890E942A0B019699F4E881F98136971E
:102AF0000190F081E02DEC0FFD1F8581982F9260F1
:102B000023893489232B11F0958302C08360858348
:102B1000CE01DF91CF9108952F923F924F925F9215
:102B20006F927F928F929F92AF92BF92CF92DF92DD
:102B3000EF92FF920F931F93CF93DF93EC013B0132
:102B400049015A01E881F98136970190F081E02D21
:102B50003296E80FF91FC284D384E484F584C21A44
:102B6000D30AE40AF50A818192818E70992704972D
:102B700019F51601270112141304140415048CF41A
:102B800021E0221A310841085108E881F98136977D
:102B90000190F081E02DEC0FFD1F6089CE0194DFE4
:102BA000EACFD701C601F7FE03C080E090E0DC0168
:102BB000C81AD90AEA0AFB0AE881F9813697019016
:102BC000F081E02DEC0FFD1F03891489D8011F96B9
:102BD0008C911F9780FF0BC0ED91FC910084F185D3
:102BE000E02D20E144E060E070E0C8011995D801D3
:102BF000ED91FC91008CF18DE02DA5019401B301C4
:102C0000C80119956F3F7F4F89F4E881F9813697A4
:102C10000190F081E02DEC0FFD1F8581982F9260CF
:102C200023893489232B09F443C09583E881F981F2
:102C300036970190F081E02DEC0FFD1F8381948188
:102C40008E7099270297F1F0E881F981369780819B
:102C50009181C80FD91F1C861D861E861F86DF9195
:102C6000CF911F910F91FF90EF90DF90CF90BF9089
:102C7000AF909F908F907F906F905F904F903F901C
:102C80002F9008951C141D041E041F04ECF6E1E0AF
:102C9000CE1AD108E108F108E881F9813697019050
:102CA000F081E02DEC0FFD1F6089CE010DDFEACF32
:102CB00083608583BBCF21E0FC012083FB01A081E1
:102CC000B18116978D919C91E80FF91F81899289A6
:102CD000009709F0D4CE0895CF93DF931F92CDB71C
:102CE000DEB760E176E0CE010196E5DF20E130E07D
:102CF00040E050E06FE573E080E196E00DDF60E1D9
:102D000076E0CE010196D7DF6AE080E196E0DCDE76
:102D100080E196E0B4DE0F90DF91CF910895CF92DD
:102D2000DF92EF92FF920F931F93CF93DF93EC010B
:102D30007A018B016C01C40ED51ECC15DD0579F02E
:102D40003AD88FE050D88D2F4ED88C2F4CD8219662
:102D500080E049D8F80181938F012BD8EECFC701CD
:102D6000DF91CF911F910F91FF90EF90DF90CF9067
:102D70000895CF93C82F462F61E070E00E94E30CC6
:102D800061E070E08C2F0E94EC0C8111F9CFCF91A3
:102D90000895CF92DF92EF92FF920F931F93CF93FC
:102DA000DF936C017A018B01C0E0D0E0CE15DF0526
:102DB00089F0D8016D918D01D601ED91FC910190C2
:102DC000F081E02DC6011995892B11F47E0102C016
:102DD0002196ECCFC701DF91CF911F910F91FF900A
:102DE000EF90DF90CF9008958F929F92AF92BF9215
:102DF000CF92DF92EF92FF920F931F93CF93DF93C7
:102E0000B82E4B018A01A22E68E270E00E94EC0C01
:102E1000C82FD0E069E270E08B2D0E94EC0CDC2F13
:102E2000CC27C82B9E013770CB2CD12CC601880F24
:102E3000991FAC0140545B4F6A01FA018081918176
:102E4000820F931FA801420F531F4130584090F04A
:102E500060E078E07B01E21AF30AA701B4015FDFCA
:102E6000A8014E195F09B4016E0D7F1DF601808126
:102E7000918102C0A801B40152DFA1100EC0C00FA1
:102E8000D11F4D2F68E270E08B2D0E94E30C4C2F78
:102E900069E270E08B2D0E94E30CDF91CF911F91CE
:102EA0000F91FF90EF90DF90CF90BF90AF909F90E9
:102EB0008F9008959F92AF92BF92CF92DF92EF9240
:102EC000FF920F931F93CF93DF93982E8B015A019C
:102ED000690164E270E00E94EC0CE82EF12C65E2DE
:102EE00070E0892D0E94EC0CFE2CEE24E82AE7010C
:102EF000C00FD11F9E013770E92CF12CC701880F3C
:102F0000991FAC0148545B4F7A01FA01808191818D
:102F1000820F931FA9014C0D5D1D4130584090F068
:102F200000E018E0021B130BA801B5010E94FA0E85
:102F3000A601401B510BB501600F711FF701808185
:102F4000918102C0A601B5010E94FA0ECC0DDD1DD3
:102F50004D2F64E270E0892D0E94E30C4C2F65E256
:102F600070E0892DDF91CF911F910F91FF90EF902D
:102F7000DF90CF90BF90AF909F900C94E30CFF92A6
:102F80000F931F93CF93DF93F82EC0E0D0E08F2DE7
:102F90000E94DD0E8C01892B21F08F2D0E94DD0E09
:102FA000EC01C017D10799F7CE01DF91CF911F91A6
:102FB0000F91FF9008954F925F926F927F92EF92E0
:102FC000FF920F931F93CF93DF93CDB7DEB7A197F7
:102FD0000FB6F894DEBF0FBECDBF7C01FA01CB0166
:102FE00019A2223008F42AE08E010F5D1F4F422EF5
:102FF000512C612C712CBF01A30192010E947321FD
:10300000F901CA01015011096A3014F4605D01C070
:10301000695CD8016C93232B242B252B61F70115B8
:10302000110591F0F80101900020E9F73197AF0107
:10303000401B510BD701ED91FC910280F381E02DF3
:10304000B801C701199502C080E090E0A1960FB6C3
:10305000F894DEBF0FBECDBFDF91CF911F910F91CE
:10306000FF90EF907F906F905F904F900895DC01FC
:10307000ED91FC910190F081E02D199480E196E0B2
:103080000C940003DB012D913C911197FC013183DD
:103090002083F901369720813181FC01E20FF31F73
:1030A00012968D919C9113979183808381E290E099
:1030B00094838383548B438B1582158A0895CF9311
:1030C000DF93CDB7DEB72D970FB6F894DEBF0FBEF6
:1030D000CDBF789484B5826084BD84B5816084BDA1
:1030E00085B5826085BD85B5816085BD80916E00A6
:1030F000816080936E0010928100809181008260D7
:103100008093810080918100816080938100809113
:1031100080008160809380008091B1008460809302
:10312000B1008091B00081608093B00080919100E7
:1031300082608093910080919100816080939100E2
:10314000809190008160809390008091A1008260C6
:103150008093A1008091A10081608093A100809163
:10316000A00081608093A000809121018260809303
:1031700021018091210181608093210180912001B2
:1031800081608093200180917A00846080937A002E
:1031900080917A00826080937A0080917A008160C9
:1031A00080937A0080917A00806880937A001092F0
:1031B000C100E0918305F091840582E08083E09175
:1031C0007F05F09180051082E0918105F0918205E4
:1031D00080E1808310928B05E0918705F09188054E
:1031E00086E08083E0918505F0918605808180618D
:1031F0008083E0918505F0918605808188608083D9
:10320000E0918505F0918605808180688083E0915A
:103210008505F091860580818F7D8083E8EE8E2E76
:10322000E3E09E2EA12CB12C9E01285F3F4F3A87F0
:10323000298780917A0381113AC010927603109207
:10324000750386E090E00E94B321FC011182108298
:1032500013821282158214829093720380937103F9
:1032600090937403809373034AE453E1509379037A
:103270004093780360E176E0CE0101961CDD22E107
:1032800030E040E050E062E473E080E196E044DC4E
:1032900060E176E0CE0101960EDD6AE080E196E025
:1032A00013DC80E196E0EBDB81E080937A03809190
:1032B000360481115AC086E0ECE0F2E0A2E8B3E007
:1032C00001900D928A95E1F730EC3093880328EA5B
:1032D0002093890381E080938A0399EC90938B0378
:1032E00010928F0310928E0380929003909291031C
:1032F000A0929203B0929303ADE1B2E0B0938D033C
:10330000A0938C0344E040939803E3E3F3E0F0934D
:103310002904E09328044FEF5FEF50933504409366
:10332000340430932A0420932B0480932C0490932C
:103330002D042BE537E030933104209330041092B4
:103340002F0410922E042CE636E1309327042093AC
:1033500026042CE833E030939A03209399031092CB
:103360003304109232048093360489E993E00E947A
:103370006909882309F422C189E993E00E94690957
:10338000882309F43EC525DB2B013C0180912104F3
:1033900090912204A0912304B0912404A3019201EE
:1033A000281B390B4A0B5B0BDA01C90189399A4397
:1033B000A105B105A8F480911D0490911E04A0916F
:1033C0001F04B0912004A3019201281B390B4A0B62
:1033D0005B0BDA01C90189399A43A105B10590F166
:1033E000209125048091990390919A03222339F02A
:1033F0002CEF3FEF3093350420933404A1C420EC2C
:1034000020939B0310929C03DC01ED91FC910280C0
:10341000F381E02D42E050E06BE973E019954092B2
:103420001D0450921E0460921F047092200440926A
:10343000210450922204609223047092240481E0BB
:10344000809325048091990390919A03DC01ED917A
:10345000FC910480F581E02D1995892B09F4D1C4E4
:10346000BE016F5F7F4F89E993E00E942A0A1C0129
:10347000892B09F4C6C44092210450922204609220
:1034800023047092240480919B03807F803309F091
:1034900078C08091260490912704892B09F4B1C447
:1034A000E980F12CF701EE57FC4F028D10E0102F50
:1034B0000027838D080F111D970123563C4F3C8731
:1034C0002B87B70162567C4FA801C9010E94F122E7
:1034D00098012E0D3F1DF901EE57FC4F138E809180
:1034E0009B0386708D87A0912604B09127048230BB
:1034F000C1F5C48CD12CDC2CCC24858DC80ED11CFC
:103500004BEF5FEF4E195F09401B510B420D531DEE
:10351000B90160567C4F8B859C85FD01199580E42F
:1035200080939B032D8520939C03D0929D03C09292
:103530009E038091990390919A03DC01ED91FC9197
:103540000280F381E02D44E050E06BE973E01995CF
:1035500040921D0450921E0460921F047092200439
:1035600050C44DEF5FEF4E195F09401B510B420DE8
:10357000531DB90162567C4F8B859C85FD011995C1
:1035800040C4803CA9F480ED80939B0310929C037F
:103590008091990390919A03DC01ED91FC91028056
:1035A000F381E02D42E050E06BE973E0199529C406
:1035B000803D09F026C41092250423C480919D0407
:1035C000811126C010928504109284048092860492
:1035D00090928704A0928804B092890487E692E0D2
:1035E0009093830480938204E3E3F3E0F0939104E7
:1035F000E093900410929204109293041092940419
:103600001092950484E080939A0481E080939D0455
:103610008FE394E090936C0580936B056CE271E00E
:1036200080E090E09ED91FB7F89480913E0481110C
:1036300092C081ED91E0FC01549127E132E0F90163
:103640004491E52FF0E0EE0FFF1FE859FE4FA591E2
:10365000B4915C91452309F06FC0E7E5F1E0449136
:10366000F9012491FC019491992309F465C0442344
:1036700009F454C050E0FA013197E231F10508F045
:103680004DC08827EE58FF4F8F4F5EC68091800057
:103690008F7707C0809180008F7D03C0809180006C
:1036A000877F809380003AC084B58F7702C084B54D
:1036B0008F7D84BD33C08091B0008F7703C080912F
:1036C000B0008F7D8093B00029C0809190008F77EB
:1036D00007C0809190008F7D03C080919000877F0C
:1036E000809390001BC08091A0008F7707C08091CD
:1036F000A0008F7D03C08091A000877F8093A000F1
:103700000DC0809120018F7707C0809120018F7DAF
:1037100003C080912001877F80932001E92FF0E092
:10372000EE0FFF1FE85FFE4FA591B4918FB7F8949D
:103730009C91292B2C938FBF61E085E3D6D88CB563
:1037400080618CBD8CB580648CBD61E084E3CDD894
:1037500061E083E3CAD880913E048F5F80933E048A
:103760001FBF249A80E590E00E942A0360E880E071
:1037700090E00E94230F65E58BE190E00E94230F0B
:1037800065E58AE190E00E94230F0E94290380E012
:1037900090E49093B9048093B80480E090E690930D
:1037A000C1048093C00480E098E49093BB048093AC
:1037B000BA0480E098E69093C3048093C20480E04A
:1037C00090E59093BD048093BC0480E090E79093D3
:1037D000C5048093C40480E098E59093BF0480936F
:1037E000BE0480E098E79093C7048093C60480E508
:1037F00090E00E942A0346E050E062E873E089E02E
:1038000090E00E94FA0E23E333E03A8329831B827F
:103810001C821D821E8244E050E0BE016D5F7F4F1E
:103820008FE090E00E94FA0E0E94290300916B0540
:1038300010916C05D80192961D921D921D921C92BA
:103840009597F80116A217A210A611A69A961D9296
:103850001D921D921C929D9726E930E040E050E0B9
:10386000D6962D933D934D935C93D99712AE13AE9C
:1038700014AE15AE189686E0FD01282F11922A95F8
:10388000E9F79801225F3F4F94E1F90111929A956F
:10389000E9F7E2E8F3E001900D928A95E1F718016B
:1038A000F2E42F0E311CD1011C92E5D42FEC37E04D
:1038B00040E050E0ECD4DC01CB010196A11DB11D2C
:1038C000F80184839583A683B78380839183A28341
:1038D000B3836801F3E4CF0ED11CC6010E945E0CD5
:1038E00064E470E0C6010E94720C882309F489C266
:1038F00070D82B013C01E12CF12C1B86D1018C915D
:10390000833009F4FFC081111DC0F80184819581C5
:10391000A681B7810196A11DB11D84839583A683DD
:10392000B78357D86419750986099709A5019401C9
:10393000DAD4A90161E0C8010E94660881E0D101E2
:103940008C93C2C08430E9F4F80184819581A6810A
:10395000B7810196A11DB11D84839583A683B7838A
:1039600038D86419750986099709A5019401BBD453
:10397000A90163E0C8010E946608E2E0D101EC936E
:10398000A3C0813059F5D801DA964D915D916D91C2
:103990007C91DD979E012F5F3F4FC8010E94A806D2
:1039A0008B87823009F090C089819A81AB81BC817C
:1039B000F80184839583A683B7830BD864197509AE
:1039C00086099709A50194018ED4A90163E0C80175
:1039D0000E946608EB85D101EC937CC0823009F02F
:1039E00073C0D801DA964D915D916D917C91DD9710
:1039F0009E012F5F3F4FC8010E94A8068B8785302C
:103A000009F05CC023E0F1012083F80182A193A1B9
:103A1000A4A1B5A1892B8A2B8B2B41F424E833E098
:103A200040E050E022A333A344A355A3F80186A1AC
:103A300097A1A0A5B1A5892B8A2B8B2B61F482A11C
:103A400093A1A4A1B5A1B695A7959795879586A3AF
:103A500097A3A0A7B1A7F80182A593A5A4A5B5A592
:103A6000892B8A2B8B2BA9F482A193A1A4A1B5A1A8
:103A7000AC01BD0123E076956795579547952A954A
:103A8000D1F7841B950BA60BB70B82A793A7A4A70E
:103A9000B5A7F80186A197A1A0A5B1A586A797A76C
:103AA000A0ABB1AB82A593A5A4A5B5A582AB93AB02
:103AB000A4ABB5ABEE24E394F12C0CC0FB85F6303F
:103AC00019F4D1011C9206C0BB85BF3F19F4F10166
:103AD00010821B86F1E0EF16F10409F40FCF0E946B
:103AE000E914DC01CB0184199509A609B709F8018D
:103AF00026A937A940AD51AD281739074A075B07FA
:103B000008F0FCCEC6010E945E0CF801848195810C
:103B1000A681B7810196A11DB11D84839583A683DB
:103B2000B7830E94E914F801FE9660837183828353
:103B30009383F1E0EF16F10409F056C080E590E0C0
:103B40000E942A0360916B0570916C05625F7F4F44
:103B5000CE0101960E94C11344E050E0BE016D5FAA
:103B60007F4F8FE090E00E94FA0E60916B0570919C
:103B70006C056A5E7F4FCE0101960E94C11344E03E
:103B800050E0BE016D5F7F4F81E090E00E94FA0E31
:103B900060916B0570916C056E5E7F4FCE01019652
:103BA0000E94C11344E050E0BE016D5F7F4F85E08D
:103BB00090E00E94FA0E0E94290360916B057091BB
:103BC0006C05625E7F4FCE0101960E94C1138B810E
:103BD0009C81AD81BE818093670590936805A09319
:103BE0006905B0936A0503C0EF2809F40AC189E9A1
:103BF00093E00E9469098111D2C060912E047091F6
:103C00002F048091990390919A0340913004509130
:103C10003104DC01ED91FC916115710521F0068400
:103C2000F785E02D16C00484F585E02D23E333E00D
:103C30003A83298300912A0410912B0420912C04AB
:103C400030912D040B831C832D833E83BE016F5F57
:103C50007F4F19958130910509F09AC090931C040B
:103C600080931B0487E0E2E1F2E0DE01119601900F
:103C70000D928A95E1F7FE013196A0EAB3E08191B9
:103C80008D9349855A85E417F507C9F782E080933B
:103C9000A7031092A8038FE08093A9032FE030E0E0
:103CA0004BE953E065E573E089E993E00E949E09E2
:103CB0009C01255031094BE953E060E189E993E02B
:103CC0000E94B8090E94E91460931D0470931E04B9
:103CD00080931F0490932004609321047093220426
:103CE00080932304909324048091990390919A03E4
:103CF000DC01ED91FC910480F581E02D1995892B73
:103D000039F50E94E91400912104109122042091B8
:103D1000230430912404DC01CB01801B910BA20B06
:103D2000B30B88399A43A105B105F0F28CEF9FEFF0
:103D300090933504809334048091990390919A0371
:103D4000DC01ED91FC910288F389E02D199559C0B1
:103D5000BE01685F7F4F89E993E00E942A0A0497B9
:103D600059F780919E03811111C00E94E91460935C
:103D700021047093220480932304909324041092CE
:103D80002504109235041092340409C090E0D0CF7D
:103D90008EEF9FEF909335048093340432C089E90D
:103DA00093E00E946909882361F180911B0490913E
:103DB0001C04019611F481E090E090931C04809320
:103DC0001B0480911B0490911C049093A00380938A
:103DD000A10327E030E04BE953E06DE573E089E9AA
:103DE00093E00E949E09FC01EC57FC4F178A9C014E
:103DF000245031094BE953E062E889E993E00E94DD
:103E0000B8090E943E1215CA83E393E090934106DD
:103E10008093400610924206109243061092440688
:103E2000109245061092CB041092CA0448EE53E05B
:103E300060E070E04093CC045093CD046093CE04D6
:103E40007093CF0427EA32E03093C9042093C8046A
:103E5000E5E3F1E0F093D504E093D404E4E3F1E08A
:103E6000F093D704E093D604E0E3F1E0F093D904B3
:103E7000E093D804E1E3F1E0F093DB04E093DA04AB
:103E8000E2E3F1E0F093DD04E093DC04E6E3F1E04B
:103E9000F093DF04E093DE041092E1041092E20458
:103EA0001092E3041092E4041092760510927505C6
:103EB00040937705509378056093790570937A0560
:103EC000309374052093730525EC30E03093800522
:103ED00020937F0524EC30E0309382052093810508
:103EE00020EC30E0309384052093830521EC30E012
:103EF000309386052093850522EC30E030938805C9
:103F00002093870526EC30E030938A0520938905BD
:103F100010928C0510928D0510928E0510928F05CF
:103F200090934706809346061092480610924906E1
:103F300010924A0610924B0690934D0680934C06C1
:103F400010924E0610924F06109250061092510693
:103F50009093530680935206109254061092550681
:103F60001092560610925706909359068093580661
:103F700010925A0610925B0610925C0610925D0633
:103F800090935F0680935E06109260061092610621
:103F90001092620610926306909365068093640601
:103FA00010926606109267061092680610926906D3
:103FB000909379068093780610927A0610927B0689
:103FC00010927C0610927D0660E082E00E947514DB
:103FD000E4EEF1E0E491E0936A06EEE9F1E0E491C9
:103FE000F0E0EE0FFF1FEE57FE4F859194919093F6
:103FF0006C0680936B0610927506109277061092ED
:104000007606E5E7F6E0129286E0ED36F807D9F796
:1040100083E393E090937F0680937E061092800660
:104020001092810610928206109283069093850664
:104030008093840610928606109287061092880656
:104040001092890690938B0680938A0610928C06B4
:1040500010928D0610928E0610928F069093910604
:1040600080939006109292061092930610929406F6
:104070001092950690939706809396061092980654
:104080001092990610929A0610929B0690936605DC
:104090008093650510926705109268051092690576
:1040A00010926A0590936E0580936D0510926F05CE
:1040B00010927005109271051092720590939D06F2
:1040C00080939C0610929E0610929F061092A00666
:1040D0001092A1069093A3068093A2061092A406C4
:1040E0001092A5061092A6061092A70690933B0682
:1040F00080933A0610923C0610923D0610923E06BE
:1041000010923F0681E290E0909328068093270664
:104110001092290610922A0610922B0686E090E053
:10412000A0E0B0E080932C0690932D06A0932E067D
:10413000B0932F061092300610923106109232067C
:10414000109233068FEE92E090932506809324061A
:1041500080E280933406109236061092350682E192
:1041600096E0909338068093370610923906AC019A
:1041700069E273E080E196E00E94421889E193E0F1
:10418000909311068093100683E293E090932506A6
:1041900080932406109216061092150610921806A7
:1041A0001092170610921A061092190610921C0609
:1041B00010921B0610921E0610921D0610922006E9
:1041C00010921F0687EF92E09093130680931206D9
:1041D00083E795E0909323068093220680E1809305
:1041E000210608958F929F92AF92BF92CF92DF9255
:1041F000EF92FF92CF93DF93EC01688179818A81FE
:104200009B81611571058105910521F464E279EDC9
:104210008BE597E02DE133EF41E050E038D04901E4
:104220005A019B01AC01A7EAB1E44DD06B017C01BE
:10423000ACEEB4EFA501940152D0DC01CB018C0DA2
:104240009D1DAE1DBF1DB7FF03C00197A109B0485A
:1042500088839983AA83BB83BC01CD019F77DF91BB
:10426000CF91FF90EF90DF90CF90BF90AF909F9055
:104270008F900895B7CF82E092E0B4CF60930202AE
:104280007093030280930402909305020895052E13
:1042900097FB16F400940FD057FD05D024D007FCEF
:1042A00002D046F408C050954095309521953F4F77
:1042B0004F4F5F4F089590958095709561957F4F12
:1042C0008F4F9F4F089531D0A59F900DB49F900DB3
:1042D000A49F800D911D11240895B7FFF4CFF3DF43
:1042E000821B930B0895A1E21A2EAA1BBB1BFD0192
:1042F0000DC0AA1FBB1FEE1FFF1FA217B307E407C5
:10430000F50720F0A21BB30BE40BF50B661F771F1C
:10431000881F991F1A9469F76095709580959095FC
:104320009B01AC01BD01CF010895A29FB001B39FD5
:10433000C001A39F700D811D1124911DB29F700DAE
:10434000811D1124911D0895EE0FFF1F881F8BBF43
:104350000790F691E02D1994692796276927782709
:10436000872778270895CF93DF938230910510F443
:1043700082E090E0E091AA06F091AB0620E030E008
:10438000C0E0D0E0309711F14081518148175907C2
:10439000C0F04817590761F482819381209719F082
:1043A0009B838A832BC09093AB068093AA0626C07A
:1043B0002115310519F04217530718F49A01BE016F
:1043C000DF01EF010280F381E02DDCCF2115310503
:1043D00009F1281B390B2430310590F412968D9188
:1043E0009C9113976115710521F0FB0193838283E2
:1043F00004C09093AB068093AA06FD01329644C098
:10440000FD01E20FF31F81939193225031092D9307
:104410003C933AC02091A8063091A906232B41F481
:1044200020910802309109023093A9062093A80632
:1044300020910602309107022115310541F42DB774
:104440003EB740910A0250910B02241B350BE091BC
:10445000A806F091A906E217F307A0F42E1B3F0B64
:104460002817390778F0AC014E5F5F4F24173507E6
:1044700048F04E0F5F1F5093A9064093A806819302
:10448000919302C0E0E0F0E0CF01DF91CF91089579
:104490000F931F93CF93DF93009709F48CC0FC0117
:1044A0003297138212820091AA061091AB06011571
:1044B000110581F420813181820F931F2091A8067C
:1044C0003091A9062817390779F5F093A906E093EA
:1044D000A80671C0D80140E050E0AE17BF0750F405
:1044E00012962D913C911397AD012115310509F1DB
:1044F000D901F3CF9D01DA01338322836081718179
:10450000860F971F8217930769F4EC012881398180
:10451000260F371F2E5F3F4F318320838A819B8177
:1045200093838283452B29F4F093AB06E093AA068C
:1045300042C01396FC93EE931297ED014991599165
:104540009E01240F351FE217F30771F480819181DA
:10455000840F951F029611969C938E93828193816E
:1045600013969C938E931297E0E0F0E0D801129698
:104570008D919C911397009719F0F8018C01F6CF5B
:104580008D919C9198012E5F3F4F820F931F209138
:10459000A8063091A9062817390769F4309729F43D
:1045A0001092AB061092AA0602C0138212821093D8
:1045B000A9060093A806DF91CF911F910F9108954E
:1045C00081E090E0F8942EC0FB01DC0104C08D91E5
:1045D0000190801921F441505040C8F7881B990B75
:1045E00008956817790768F4FB01DC01E40FF51FF3
:1045F000A40FB51F02C002900E9241505040D8F750
:10460000089507C0FB01DC0101900D920020E1F745
:104610000895FB01DC0102C001900D924150504011
:10462000D8F7089511E0C5E1D1E000E005C0802F82
:10463000FE018ADE2196011DC631D10780E0080700
:06464000B1F7F894FFCF72
:1046460000C0010000000000AC068000000102036B
:10465600040500044D5154540400000000D50B40DD
:104666000DDB0CC20C9D0CD40B2D033606BF0C3192
:104676000E0E0ECC0B54015201C10B480100000076
:1046860000D912D912D912D912D912D912D912BFF8
:104696000BD912D912D912D912D912D912D912D9C3
:1046A60012D91200000000750EA10EA00B03105FB8
:1046B6000F740E720CD4105E0CC90DEB0B0C0D2B87
:1046C60010E50FB80BA80BA40B01005E0000001448
:1046D600000000000000000000ECFFECFF000000FE
:1046E60000000000000000D711C916981176118A43
:1046F600111D1200000000D912C916D912D912D9FB
:1047060012D91200000000D912C916000000009D3F
:104716000BDC022A022702240221021E028B0187D9
:104726000184016E018E015C0B6C01000000009F8C
:104736000B2703000000009E0BDE022A022702243C
:104746000221021E021202CC01AE0190018E0189E5
:1047560002680214000000000000031503ECFFECE1
:10476600FF00000C031E03190395029F022303009A
:10477600000000961200000000D91257495A6E65D3
:104786007400446576696365733A3A44657669638D
:104796006573282900486F6D654C69620023004DDA
:1047A6007174743A3A43616C6C6261636B282900D8
:00000001FF
