:1000000073C00000A1C000009FC000009DC00000A0
:100010009BC0000099C0000097C0000095C0000080
:1000200093C0000091C000008FC000008DC0000090
:100030008BC0000089C0000087C0000085C00000A0
:1000400083C0000081C000007FC000007DC00000B0
:100050007BC0000079C0000077C00000C3C400006E
:1000600073C0000089C400005EC400006DC00000C1
:100070006BC0000069C0000067C0000065C00000E0
:1000800063C0000061C000005FC000005DC00000F0
:100090005BC0000059C0000057C0000055C0000000
:1000A00053C0000051C000004FC000004DC0000010
:1000B0004BC0000049C0000047C0000045C0000020
:1000C00043C0000041C000003FC000003DC0000030
:1000D0003BC0000039C0000037C0000035C0000040
:1000E00033C000006707640711241FBECFEFD1E2C1
:1000F000DEBFCDBF00E00CBF12E0A0E0B2E0EAEC52
:10010000F3E100E00BBF02C007900D92A23CB107E3
:10011000D9F724E0A2ECB2E001C01D92A631B207EB
:10012000E1F710E0C3E7D0E000E006C02197010945
:10013000802FFE010E949B08C237D10780E008078C
:10014000A9F72AD50C94D4095BCFFC01918D828D3F
:10015000981761F0828DDF01A80FB11D5D968C911B
:10016000928D9F5F9F73928F90E008958FEF9FEF26
:100170000895FC01918D828D981731F0828DE80FE2
:10018000F11D858D90E008958FEF9FEF0895FC019C
:10019000918D228D892F90E0805C9F4F821B910969
:1001A0008F73992708958DED92E0F1DF21E0892B7F
:1001B00009F420E0822F0895FC01848DDF01A80F4F
:1001C000B11DA35ABF4F2C91848D90E001968F737F
:1001D0009927848FA689B7892C93A089B1898C919E
:1001E00080648C93938D848D981306C00288F38964
:1001F000E02D80818F7D80830895EF92FF920F9391
:100200001F93CF93DF93EC0181E0888F9B8D8C8DC2
:10021000981305C0E889F989808185FD23C0F62EF1
:100220000B8D10E00F5F1F4F0F731127E02E8C8D89
:10023000E8120BC00FB607FCFACFE889F989808174
:1002400085FFF5CFCE01B8DFF2CF8B8DFE01E80F31
:10025000F11DE35AFF4FF0820B8FEA89FB89808101
:10026000806207C0EE89FF896083E889F98980810F
:100270008064808381E090E0DF91CF911F910F91A6
:10028000FF90EF900895CF93DF93EC01888D882342
:10029000C1F0EA89FB89808185FD05C0A889B989FB
:1002A0008C9186FD0EC00FB607FCF5CF808185FFCF
:1002B000F2CFA889B9898C9185FFEDCFCE017CDF83
:1002C000E8CFDF91CF91089580E090E0892B19F07D
:1002D0006ADF811125C080E090E0892B41F080E049
:1002E00090E0892B21F00E94000081111CC080E069
:1002F00090E0892B41F080E090E0892B21F00E9472
:100300000000811113C080E090E0892BA1F080E013
:1003100090E0892B81F00E94000081110AC00895AD
:100320000E940000D8CF0E940000E1CF0E94000090
:10033000EACF0C9400000895CF93DF93EC01E8819D
:10034000F98136970190F081E02DE80FF91F83893C
:100350009489DC01ED91FC910484F585E02D1995DB
:10036000019659F4E881F98136970190F081E02DEA
:10037000EC0FFD1F858181608583CE01DF91CF91D8
:1003800008951F93CF93DF93EC01162F8F8580FF85
:100390000BC0E881F9810084F185E02D20E144E083
:1003A00060E070E0CE011995EB85FC852D853E85DA
:1003B000812F90E0E217F30758F410832B853C85DA
:1003C0002F5F3F4F3C872B87DF91CF911F9108957F
:1003D000E881F981028CF38DE02DBC01CE01DF9123
:1003E000CF911F911994CF93DF93EC01E881F981AC
:1003F00036970190F081E02DE80FF91F83899489E9
:10040000C0DF019699F4E881F98136970190F08177
:10041000E02DEC0FFD1F8581982F92602389348990
:10042000232B11F0958302C083608583CE01DF9179
:10043000CF910895CB010895AF92BF92CF92DF92F2
:10044000EF92FF920F931F93CF93DF9300D01F92F1
:10045000CDB7DEB78C015B01C12CD12C7601C21661
:10046000D306E406F506ACF4F50161915F01C8011D
:1004700029833A834B835C8384DF29813A814B81D2
:100480005C81019649F06FEFC61AD60AE60AF60AB1
:10049000E6CFB901CA0102C0B601C7010F900F90A3
:1004A0000F900F90DF91CF911F910F91FF90EF90E0
:1004B000DF90CF90BF90AF900895CF93DF93EC0182
:1004C000E881F9810288F389E02D19958F3F2FEF9C
:1004D000920731F02D813E812F5F3F4F3E832D8368
:1004E000DF91CF9108958FEF9FEF089560E070E066
:1004F000CB01089580E090E00895CB010895CF935B
:10050000DF93EC0188899989DC01ED91FC910480ED
:10051000F581E02D1995892B59F088899989DC019D
:10052000ED91FC910680F781E02DDF91CF91199438
:100530008FEF9FEFDF91CF910895CF93DF93EC0181
:1005400088899989DC01ED91FC910480F581E02D89
:100550001995892B59F088899989DC01ED91FC91D5
:100560000084F185E02DDF91CF9119948FEF9FEFFB
:10057000DF91CF910895AF92BF92CF92DF92EF9229
:10058000FF920F931F93CF93DF9300D01F92CDB7AD
:10059000DEB78C015B01C12CD12C7601F80180897A
:1005A0009189DC01ED91FC910680F781E02D298392
:1005B0003A834B835C83199529813A814B815C8115
:1005C0008F3F71F0C216D306E406F5064CF4D50150
:1005D0008D935D01BFEFCB1ADB0AEB0AFB0ADECF7E
:1005E000C701B6010F900F900F900F90DF91CF9140
:1005F0001F910F91FF90EF90DF90CF90BF90AF9041
:100600000895DC0150968D919C915197DC01ED91FC
:10061000FC910480F581E02D199480E090E008952C
:1006200080E090E0089580E090E0089580E090E020
:10063000089508950F931F93CF93DF938C01EB01DF
:100640006F3F8FEF780719F480E090E00DC06A30BB
:1006500029F46DE0F8018089918997D26C2FF80117
:100660008089918992D2CE01DF91CF911F910F9114
:1006700008958F929F92BF92CF92DF92EF92FF9256
:100680000F931F93CF93DF9300D01F92CDB7DEB7A8
:100690008C014B01C12CD12C7601C216D306E40685
:1006A000F50634F5F401B1904F01FAE0BF120DC028
:1006B0006DE0F8018089918929833A834B835C83BB
:1006C00064D25C814B813A8129816B2DF80180894C
:1006D000918929833A834B835C8357D2FFEFCF1AEA
:1006E000DF0AEF0AFF0A5C814B813A812981D5CF6D
:1006F000CA01B9010F900F900F900F90DF91CF9129
:100700001F910F91FF90EF90DF90CF90BF909F903F
:100710008F9008958F929F92AF92BF92CF92DF9267
:10072000EF92FF920F931F93CF93DF937C018B0186
:100730006C0182E0C80ED11C4701E5E08E0E911CD1
:10074000C0E0D0E0F60141916F0150E060E070E060
:100750002AE0C801BFD15C016EE2C80116D28A0D41
:100760009B1DC80FD91FC814D90461F7F701458133
:1007700050E060E070E02AE0C801ACD18C0F9D1F12
:10078000DF91CF911F910F91FF90EF90DF90CF906D
:10079000BF90AF909F908F90089502D669C568C5AD
:1007A0000895089565C5DC01ED91FC91369720818F
:1007B0003181820F931FF6CFFB0120813181FC0133
:1007C00031832083FB0142815381F90136972081D7
:1007D0003181FC01E20FF31F5183408308952CE81F
:1007E00032E0FC013183208326E932E0358B248B13
:1007F0006CE972E0E1CFDC01ED91FC91369720814C
:100800003181820F931FEBCFCF93DF93EC01E7DFB2
:10081000CE01DF91CF912CC5DC01ED91FC91369793
:1008200020813181820F931FEFCF22C5CF92DF92BB
:10083000EF92FF920F931F93CF93DF93EC017B0115
:1008400088E090E09B838A831D821C827CD46C01AB
:1008500099838883F7010481158101151105A1F1A0
:100860000930110508F1C801089689309105E0F0BA
:100870009B838A8368D49983888320E030E08C81CD
:100880009D812817390770F4E881F981E20FF31F81
:10089000309729F0D601A20FB31F8C9180832F5F70
:1008A0003F4FEDCFC601E4D48C819D818017910725
:1008B00048F4E881F981E80FF91F309709F01082B8
:1008C0000196F4CF1D830C838C819D81F7012081DB
:1008D0003181C880D98040E050E0BA01A0E0B0E0AA
:1008E000481759076A077B0758F4F90111919F01CE
:1008F000F60111936F014F5F5F4F6F4F7F4FF0CF46
:10090000F70187819085A185B2858F839887A98714
:10091000BA87CE01DF91CF911F910F91FF90EF9099
:10092000DF90CF9008951F920F920FB60F9211246F
:100930000BB60F922F933F934F935F936F937F93D9
:100940008F939F93AF93BF93EF93FF938DED92E0BF
:1009500033DCFF91EF91BF91AF919F918F917F9188
:100960006F915F914F913F912F910F900BBE0F9020
:100970000FBE0F901F9018951F920F920FB60F92F7
:1009800011240BB60F922F938F939F93EF93FF93A6
:10099000E091ED02F091EE028081E091F302F0919E
:1009A000F40282FD12C090818091F6028F5F8F73F6
:1009B0002091F702821751F0E091F602F0E0E35245
:1009C000FD4F958F8093F60201C08081FF91EF91DA
:1009D0009F918F912F910F900BBE0F900FBE0F9094
:1009E0001F9018951F920F920FB60F9211242F93FC
:1009F0003F938F939F93AF93BF938091C702909142
:100A0000C802A091C902B091CA023091C60223E087
:100A1000230F2D3720F40196A11DB11D05C026E836
:100A2000230F0296A11DB11D2093C6028093C70219
:100A30009093C802A093C902B093CA028091C202E7
:100A40009091C302A091C402B091C5020196A11D6C
:100A5000B11D8093C2029093C302A093C402B093CD
:100A6000C502BF91AF919F918F913F912F910F90B0
:100A70000FBE0F901F901895089508950895CF9276
:100A8000DF92EF92FF920F931F93CF93DF936C014E
:100A90007A018B01C0E0D0E0CE15DF0589F0D801E6
:100AA0006D918D01D601ED91FC910190F081E02DC9
:100AB000C6011995892B11F47E0102C02196ECCF55
:100AC000C701DF91CF911F910F91FF90EF90DF90C1
:100AD000CF9008954F925F926F927F92EF92FF9224
:100AE0000F931F93CF93DF93CDB7DEB7A1970FB6C8
:100AF000F894DEBF0FBECDBF7C01FA01CB0119A275
:100B0000223008F42AE08E010F5D1F4F422E512C37
:100B1000612C712CBF01A3019201EBD2F901CA0132
:100B2000015011096A3014F4605D01C0695CD8019C
:100B30006C93232B242B252B69F70115110591F0BC
:100B4000F80101900020E9F73197AF01401B510BEC
:100B5000D701ED91FC910280F381E02DB801C7012E
:100B6000199502C080E090E0A1960FB6F894DEBF20
:100B70000FBECDBFDF91CF911F910F91FF90EF90EE
:100B80007F906F905F904F900895DC01ED91FC9104
:100B90000190F081E02D1994789484B5826084BD31
:100BA00084B5816084BD85B5826085BD85B5816071
:100BB00085BD80916E00816080936E0010928100EF
:100BC00080918100826080938100809181008160AA
:100BD000809381008091800081608093800080916B
:100BE000B10084608093B1008091B00081608093F7
:100BF000B00080919100826080939100809191007B
:100C0000816080939100809190008160809390003A
:100C10008091A10082608093A1008091A1008160F9
:100C20008093A1008091A00081608093A0008091BA
:100C30002101826080932101809121018160809354
:100C400021018091200181608093200180917A00B0
:100C5000846080937A0080917A00826080937A0029
:100C600080917A00816080937A0080917A00806818
:100C700080937A001092C100E091ED02F091EE02B3
:100C800082E08083E091E902F091EA021082E09133
:100C9000EB02F091EC0280E180831092F502E0918A
:100CA000F102F091F20286E08083E091EF02F09190
:100CB000F002808180618083E091EF02F091F00288
:100CC000808188608083E091EF02F091F002808162
:100CD00080688083E091EF02F091F00280818F7D47
:100CE0008083C6E1D4E0BB24B3948091D502811106
:100CF000E6C01092D1021092D00286E090E023D29A
:100D0000FC01118210821382128215821482909348
:100D1000CD028093CC029093CF028093CE02D093E9
:100D2000D402C093D302E0917A03F0917B0336970B
:100D30000190F081E02DE658FC4F8189928900975F
:100D400009F0FADAE0917A03F0917B03369701908B
:100D5000F081E02DE458FC4FC284D384E484F58410
:100D600042E1C41AD108E108F108818192818E70B4
:100D700099270497C9F41C141D041E041F04A4F42D
:100D800081E0C81AD108E108F108E0917A03F091F6
:100D90007B0336970190F081E02DE658FC4F608987
:100DA0008AE793E020DBE7CFE0917A03F0917B03C1
:100DB00036970190F081E02DE658FC4F03891489A5
:100DC000D8011F968C911F9780FF0BC0ED91FC916D
:100DD0000084F185E02D20E144E060E070E0C8018E
:100DE0001995D801ED91FC91008CF18DE02D22E157
:100DF00030E040E050E06EEA72E0C80119952091C1
:100E00007A0330917B036F3F7F4F81F4F90136976E
:100E10000190F081E02DE658FC4F8581982F92607B
:100E200043895489452B09F44CC09583F9013697C1
:100E30000190F081E02DE458FC4F818192818E7009
:100E400099270297D1F0E0917A03F0917B033697CE
:100E5000A081B181A458BC4F1A961D921D921D927B
:100E60001C921D970190F081E02DE658FC4F81897E
:100E700092890097D9F060DA19C01C141D041E0471
:100E80001F040CF7E1E0CE1AD108E108F108E09167
:100E90007A03F0917B0336970190F081E02DE658BC
:100EA000FC4F60898AE793E09EDAE7CF6AE08AE741
:100EB00093E099DA8AE793E03FDAB092D50204DA58
:100EC00014CF83608583B2CF8AE793E088CCEAEAC7
:100ED000F3E086EA92E09183808312821382148287
:100EE0001582ADEDB2E013961C921E92129748EE59
:100EF00053E060E070E014964D935D936D937C93A6
:100F000017972EE132E011963C932E9325EC30E0BA
:100F10001D963C932E931C9724EC30E01F963C9337
:100F20002E931E9720EC30E051963C932E935097D1
:100F300021EC30E053963C932E93529722EC30E014
:100F400055963C932E93549726EC30E057963C935D
:100F50002E93569759961C9259975A961C925A97C7
:100F60005B961C925B975C961C925C97E0EBF3E0BF
:100F7000918380831282138214821582E6EBF3E060
:100F8000918380831282138214821582ECEBF3E04A
:100F9000918380831282138214821582E2ECF3E043
:100FA000918380831282138214821582E8ECF3E02D
:100FB000918380831282138214821582EEECF3E017
:100FC000918380831282138214821582E4EDF3E010
:100FD000918380831282138214821582EAEDF3E0FA
:100FE000918380831282138214821582E0EEF3E0F3
:100FF000918380831282138214821582E6EEF3E0DD
:10100000918380831282138214821582ECEEF3E0C6
:10101000918380831282138214821582EAEFF3E0B7
:10102000918380831282138214821582E2EFF3E0AF
:10103000918380831282138214821582E0E0F4E0AF
:10104000918380831282138214821582E6E0F4E099
:10105000918380831282138214821582ECE0F4E083
:10106000918380831282138214821582E4EAF3E072
:10107000918380831282138214821582EAE7F3E05F
:1010800081E290E0908F878B118E128E138E46E056
:1010900050E060E070E0448F558F668F778F10A22C
:1010A00011A212A213A280E284A316A215A211A675
:1010B0008CE793E090A787A38CE892E091838083EC
:1010C00086E992E0958B848B1682158210861782B2
:1010D000128611861486138616861586108A178640
:1010E0008AE692E093838283B38BA28B80E1818B2B
:1010F0000895A1E21A2EAA1BBB1BFD010DC0AA1F59
:10110000BB1FEE1FFF1FA217B307E407F50720F070
:10111000A21BB30BE40BF50B661F771F881F991FEB
:101120001A9469F760957095809590959B01AC0134
:10113000BD01CF010895EE0FFF1F881F8BBF0790E1
:10114000F691E02D1994CF93DF938230910510F43E
:1011500082E090E0E0911404F091150420E030E08A
:10116000C0E0D0E0309711F1408151814817590714
:10117000C0F04817590761F482819381209719F0D4
:101180009B838A832BC0909315048093140426C0FC
:101190002115310519F04217530718F49A01BE01C1
:1011A000DF01EF010280F381E02DDCCF2115310555
:1011B00009F1281B390B2430310590F412968D91DA
:1011C0009C9113976115710521F0FB019383828334
:1011D00004C09093150480931404FD01329644C01A
:1011E000FD01E20FF31F81939193225031092D935A
:1011F0003C933AC02091120430911304232B41F404
:1012000020910202309103023093130420931204C0
:1012100020910002309101022115310541F42DB7D2
:101220003EB74091040250910502241B350BE0911A
:101230001204F0911304E217F307A0F42E1B3F0BE6
:101240002817390778F0AC014E5F5F4F2417350738
:1012500048F04E0F5F1F5093130440931204819384
:10126000919302C0E0E0F0E0CF01DF91CF910895CB
:101270000F931F93CF93DF93009709F48CC0FC0169
:1012800032971382128200911404109115040115F3
:10129000110581F420813181820F931F2091120466
:1012A000309113042817390779F5F0931304E0936C
:1012B000120471C0D80140E050E0AE17BF0750F4EF
:1012C00012962D913C911397AD012115310509F12D
:1012D000D901F3CF9D01DA013383228360817181CB
:1012E000860F971F8217930769F4EC0128813981D3
:1012F000260F371F2E5F3F4F318320838A819B81CA
:1013000093838283452B29F4F0931504E09314040E
:1013100042C01396FC93EE931297ED0149915991B7
:101320009E01240F351FE217F30771F4808191812C
:10133000840F951F029611969C938E9382819381C0
:1013400013969C938E931297E0E0F0E0D8011296EA
:101350008D919C911397009719F0F8018C01F6CFAD
:101360008D919C9198012E5F3F4F820F931F20918A
:101370001204309113042817390769F4309729F4BF
:10138000109215041092140402C01382128210935A
:10139000130400931204DF91CF911F910F910895D0
:1013A00081E090E0F89400C010E0C3E7D0E000E0F6
:1013B00005C0802FFE01BFDE2196011DC437D10775
:0A13C00080E00807B1F7F894FFCFB2
:1013CA000000160480001400000000000000000065
:1013DA00ECFFECFF00000000000000000000FD0030
:1013EA003F05C700A500B9004301000000003C0505
:1013FA00CF0319031603130310030D037A027602AF
:10140A0073025D027D021C021A0202000000000043
:10141A00D003D203FEFFFEFF0000D103D303000076
:10142A0000003E051504000000003D05CE03190327
:10143A001603130310030D030103BB029D027F026F
:10144A007D0239031A03140000000000EF030404AC
:10145A00ECFFECFF0000FB030C048C020C021602EA
:10146A009602000000008A0300000000CD034465D4
:10147A0076696365733A3A446576696365732829C0
:02148A00000060
:020000023000CC
:10E000000D9489F10D94B2F10D94B2F10D94B2F129
:10E010000D94B2F10D94B2F10D94B2F10D94B2F1F0
:10E020000D94B2F10D94B2F10D94B2F10D94B2F1E0
:10E030000D94B2F10D94B2F10D94B2F10D94B2F1D0
:10E040000D94B2F10D94B2F10D94B2F10D94B2F1C0
:10E050000D94B2F10D94B2F10D94B2F10D94B2F1B0
:10E060000D94B2F10D94B2F10D94B2F10D94B2F1A0
:10E070000D94B2F10D94B2F10D94B2F10D94B2F190
:10E080000D94B2F10D94B2F10D94B2F10D94B2F180
:10E090000D94B2F10D94B2F10D94B2F10D94B2F170
:10E0A0000D94B2F10D94B2F10D94B2F10D94B2F160
:10E0B0000D94B2F10D94B2F10D94B2F10D94B2F150
:10E0C0000D94B2F10D94B2F10D94B2F10D94B2F140
:10E0D0000D94B2F10D94B2F10D94B2F10D94B2F130
:10E0E0000D94B2F141546D656761323536300041AF
:10E0F000726475696E6F206578706C6F72657220DE
:10E1000073746B3530305632206279204D4C530099
:10E11000426F6F746C6F616465723E004875683F52
:10E1200000436F6D70696C6564206F6E203D200048
:10E130004350552054797065202020203D20005FF9
:10E140005F4156525F415243485F5F3D2000415658
:10E1500052204C696243205665723D20004743437C
:10E160002056657273696F6E203D20004350552024
:10E1700049442020202020203D20004C6F7720663D
:10E18000757365202020203D20004869676820665F
:10E190007573652020203D200045787420667573D6
:10E1A00065202020203D20004C6F636B2066757336
:10E1B000652020203D20004D617220203720323024
:10E1C000313300312E362E3800342E332E350056A2
:10E1D00023202020414444522020206F7020636F70
:10E1E00064652020202020696E73747275637469E1
:10E1F0006F6E2061646472202020496E74657272B3
:10E20000757074006E6F20766563746F7200726A49
:10E210006D702020006A6D70200057686174207056
:10E220006F72743A00506F7274206E6F7420737541
:10E2300070706F72746564004D7573742062652030
:10E2400061206C6574746572002000577269747483
:10E25000696E672045450052656164696E672045B7
:10E26000450045452065727220636E743D00504F35
:10E27000525400303D5A65726F2061646472003FF1
:10E280003D43505520737461747300403D454550C3
:10E29000524F4D207465737400423D426C696E6B41
:10E2A000204C454400453D44756D70204545505215
:10E2B0004F4D00463D44756D7020464C415348001B
:10E2C000483D48656C70004C3D4C69737420492F83
:10E2D0004F20506F72747300513D51756974005234
:10E2E0003D44756D702052414D00563D73686F7707
:10E2F00020696E7465727275707420566563746FF0
:10E30000727300593D506F727420626C696E6B00BD
:10E310002A0011241FBECFEFD1E2DEBFCDBF01E046
:10E320000CBF12E0A0E0B2E0EEE1FDEF03E00BBFB6
:10E3300002C007900D92A030B107D9F712E0A0E01B
:10E34000B2E001C01D92AE30B107E1F70F9460F367
:10E350000D948DFE01E20EBF0FEF0DBF11241FBE05
:10E360000D9460F30D9400F020E030E040ED57E0B4
:10E3700005C0FA013197F1F72F5F3F4F2817390792
:10E38000C0F308959C01260F311DC901A0E0B0E043
:10E390002F5F3F4FABBFFC018791882361F08093D3
:10E3A000C6008091C00086FFFCCF8091C0008064D1
:10E3B0008093C000EACF08958DE08093C6008091DD
:10E3C000C00086FFFCCF8091C00080648093C000B5
:10E3D0008AE08093C6008091C00086FFFCCF8091C8
:10E3E000C00080648093C00008950F94C2F10F9420
:10E3F000DCF10895FC019081992359F09093C600B7
:10E400008091C00086FFFCCF8091C0008064809323
:10E41000C0003196992379F70895282F982F929567
:10E420009F70892F805D8A3308F0895F8093C600D2
:10E430008091C00086FFFCCF8091C00080648093F3
:10E44000C000822F8F70982F905D9A3308F0995FEB
:10E450009093C6008091C00086FFFCCF8091C000E1
:10E4600080648093C00008959C01FB01853691056E
:10E470001CF46330710594F0C90164E670E00F94F8
:10E480002EFE605D7F4F6093C6008091C00086FFC6
:10E49000FCCF8091C00080648093C0002B30310598
:10E4A00014F43297B4F0C90164E670E00F942EFEC4
:10E4B0006AE070E00F942EFE605D7F4F6093C600AF
:10E4C0008091C00086FFFCCF8091C0008064809363
:10E4D000C000C9016AE070E00F942EFEC0968093E0
:10E4E000C6008091C00086FFFCCF8091C000806490
:10E4F0008093C00008951F93182F8EE692EE60E07F
:10E500000F94C2F11093C6008091C00086FFFCCF2B
:10E510008091C00080648093C0000F94DCF11F9153
:10E5200008952F923F924F925F926F927F928F92B7
:10E530009F92AF92BF92CF92DF92EF92FF920F9392
:10E540001F93DF93CF93CDB7DEB762970FB6F894E2
:10E55000DEBF0FBECDBF382E622ECA01DB015C01CB
:10E560006D01772420E2222E2E010894411C511CBB
:10E570008BC081E0A81680E0B80681E0C80680E084
:10E58000D80628F0C601AA27BB270F940DF2BB2797
:10E59000AD2D9C2D8B2D0F940DF28A2D0F940DF225
:10E5A0002092C6008091C00086FFFCCF8091C00001
:10E5B00080648093C0009DE29093C6008091C0006B
:10E5C00086FFFCCF8091C00080648093C0002092C1
:10E5D000C6008091C00086FFFCCF8091C00080649F
:10E5E0008093C00019828601750188249924A1E0D6
:10E5F0003A1651F03A1620F0B2E03B1661F409C029
:10E600000BBFF701779007C0C7010F9477FE782EF4
:10E6100002C0F7017080872D0F940DF22092C60082
:10E620008091C00086FFFCCF8091C0008064809301
:10E63000C000872D8052F401EF70F0708F3520F408
:10E64000E40DF51D708204C0E40DF51D8EE280839B
:10E650000894E11CF11C011D111D0894811C911CE2
:10E6600090E18916910409F0C2CF80E190E0A0E02A
:10E67000B0E0A80EB91ECA1EDB1E198AC2010F9493
:10E68000FAF10F94DCF16A94662009F072CF629679
:10E690000FB6F894DEBF0FBECDBFCF91DF911F91B3
:10E6A0000F91FF90EF90DF90CF90BF90AF909F9031
:10E6B0008F907F906F905F904F903F902F90089534
:10E6C0002F923F924F925F926F927F928F929F9282
:10E6D000AF92BF92CF92DF92EF92FF920F931F9370
:10E6E000DF93CF93CDB7DEB7CD53D1400FB6F894BB
:10E6F000DEBF0FBECDBF01E20EBF0FEF0DBF94B75F
:10E70000F894A89514BE80916000886180936000A1
:10E7100010926000789493FF05C0E0910002F091A0
:10E7200001021995279A2F9A8091C00082608093E8
:10E73000C00080E18093C40088E18093C1000000A4
:10E74000EE24FF24870144E0A42EB12CCC24DD2448
:10E7500024C0C5010197F1F70894E11CF11C011DCB
:10E76000111D21E2E2162EE4F20620E0020720E06D
:10E77000120718F031E0C32ED12CC801B70127ECE5
:10E780003BE140E050E00F9441FE611571058105C9
:10E79000910519F485B1805885B98091C00087FD35
:10E7A00003C0C114D104A9F2A6014F5F5F4FC25E3E
:10E7B000DE4F59834883CE51D140C25EDE4F8881FF
:10E7C0009981CE51D140019711F00D9410FEC05D9A
:10E7D000DE4F19821882C053D14060E0C15DDE4F28
:10E7E0001882CF52D14088249924C35DDE4F19820C
:10E7F0001882CD52D140C05EDE4F188219821A8233
:10E800001B82C052D140CE5CDE4F188219821A8220
:10E810001B82C253D140EE24FF2487010BBFF701B6
:10E8200007911691C45CDE4F19830883CC53D14005
:10E830000D940BFEC25EDE4F28813981CE51D1404E
:10E840002130310509F52091C600C25EDE4F1982E4
:10E850001882CE51D14022C02F5F3F4F4F4F5F4FA4
:10E86000213082E138078AE7480780E0580780F0C6
:10E87000C45CDE4FE881F981CC53D140EF5FFF4F9C
:10E8800019F0EE27FF27099420E030E040E050E047
:10E890008091C00087FFE0CF2091C600C35DDE4FAE
:10E8A00048815981CD52D1404F5F5F4FC35DDE4FEC
:10E8B00059834883CD52D140213209F063C64A3092
:10E8C000510508F05FC60894811C911C53E0851621
:10E8D000910409F059C600E010E018C081E280936D
:10E8E000C6008091C00086FFFCCF8091C00080648C
:10E8F0008093C0002F5F3F4F2931310579F70F9486
:10E90000DCF10F5F1F4F0530110519F020E030E0FA
:10E91000E5CF10920A0210920B0210920C02109294
:10E920000D02109206021092070210920802109235
:10E930000902109202021092030210920402109235
:10E9400005028FEE90EE60E00F94F5F180E191EE1C
:10E9500060E00F94C2F18091C00087FFFCCF9091DE
:10E96000C600903608F09F759032B8F09093C600BC
:10E970008091C00086FFFCCF8091C00080648093AE
:10E98000C000A0E2A093C6008091C00086FFFCCF2B
:10E990008091C00080648093C000983409F4D7C18E
:10E9A0009934B8F4923409F459C1933458F490333B
:10E9B00019F1903308F4E3C59F33A1F1903409F0C5
:10E9C000DEC5BDC0953409F470C1963409F0D7C5D1
:10E9D00098C1923509F42BC2933538F49C3409F46C
:10E9E000F5C1913509F0CBC518C2963509F445C279
:10E9F000993509F0C4C567C483E792EE62E00F94CD
:10EA0000F5F110920602109207021092080210927D
:10EA1000090210920A0210920B0210920C0210923C
:10EA20000D0213C18FE792EE62E00F94F5F18FEEC5
:10EA300090EE60E00F94F5F181E291EE60E00F94CA
:10EA4000C2F187EB91EE60E00F94F5F180E391EE77
:10EA500060E00F94C2F184EE90EE60E00F94F5F167
:10EA60008FE391EE60E00F94C2F186E090E061E008
:10EA700070E00F9434F20F94DCF18DE591EE60E0DC
:10EA80000F94C2F189EC91EE60E00F94F5F18EE401
:10EA900091EE60E00F94C2F183EC91EE60E00F9490
:10EAA000F5F18CE691EE60E00F94C2F18EE10F94E7
:10EAB0000DF288E90F940DF281E00F940DF20F949E
:10EAC000DCF18BE791EE60E00F94C2F119E0E0E039
:10EAD000F0E010935700E4918E2F0F940DF20F94F5
:10EAE000DCF18AE891EE60E00F94C2F1E3E0F0E03F
:10EAF00010935700E4918E2F0F940DF20F94DCF1D8
:10EB000089E991EE60E00F94C2F1E2E0F0E0109349
:10EB10005700E4918E2F0F940DF20F94DCF188EAE8
:10EB200091EE60E00F94C2F1E1E0F0E01093570045
:10EB30001491812F0F940DF20F94DCF107CF8BE825
:10EB400092EE62E00F94F5F18BE492EE60E00F94A8
:10EB5000F5F10F94DCF100E010E019C0C8016F2D51
:10EB60000F947FFEFF2031F489E492EE60E00F9471
:10EB7000C2F10BC0F092C6008091C00086FFFCCFAE
:10EB80008091C00080648093C0000F5F1F4FC80158
:10EB900081519F41A0E0B0E0ABBFFC01F790BAE229
:10EBA000FB1621F0E2E000301E07C1F60F94DCF105
:10EBB0000F94DCF187E592EE60E00F94F5F10F948D
:10EBC000DCF1CC24DD2400E010E01EC0C8010F946D
:10EBD00077FEF82E882331F489E492EE60E00F94FA
:10EBE000C2F10BC08093C6008091C00086FFFCCFAD
:10EBF0008091C00080648093C000FE1419F00894D6
:10EC0000C11CD11C0F5F1F4FC80181519F41A0E063
:10EC1000B0E0ABBFFC01E790FAE2EF1621F022E092
:10EC20000030120799F60F94DCF10F94DCF182E6C4
:10EC300092EE60E00F94C2F1C60161E070E00F94C3
:10EC400034F20F94DCF10F94DCF110920202109276
:10EC50000302109204021092050278CE89E992EE26
:10EC600062E00F94F5F1279A2F9A16C02F9880E052
:10EC700090E0E0EDF7E03197F1F7019684369105E9
:10EC8000C1F72F9A80E090E0E0EDF7E03197F1F7DF
:10EC9000019684369105C1F78091C00087FFE6CFC9
:10ECA0008091C00087FFFCCF64C485EA92EE62E0E9
:10ECB0000F94F5F140910202509103026091040219
:10ECC0007091050281E020E10F9491F2809102029F
:10ECD00090910302A0910402B091050280509F4FD1
:10ECE000AF4FBF4F8093020290930302A0930402A0
:10ECF000B093050280509041A040B04008F426CE69
:10ED0000A4CF83EB92EE62E00F94F5F140910602FE
:10ED100050910702609108027091090280E020E1A1
:10ED20000F9491F28091060290910702A09108023F
:10ED3000B091090280509F4FAF4FBF4F80930602A2
:10ED400090930702A0930802B0930902FFCD80ECD4
:10ED500092EE62E00F94F5F183E792EE60E00F949B
:10ED6000F5F18FE792EE60E00F94F5F18BE892EE0B
:10ED700060E00F94F5F189E992EE60E00F94F5F10F
:10ED800085EA92EE60E00F94F5F183EB92EE60E09D
:10ED90000F94F5F180EC92EE60E00F94F5F187ECC2
:10EDA00092EE60E00F94F5F188ED92EE60E00F9442
:10EDB000F5F18FED92EE60E00F94F5F18AEE92EEB0
:10EDC00060E00F94F5F183E093EEBDCD87EC92EE19
:10EDD00062E00F94F5F181E40F947BF282E40F94EA
:10EDE0007BF283E40F947BF284E40F947BF285E45E
:10EDF0000F947BF286E40F947BF287E40F947BF20E
:10EE000088E40F947BF28AE40F947BF28BE40F94F6
:10EE10007BF28CE40F947BF299CD88ED92EE62E068
:10EE20000F94F5F1772473948824992409C48FED05
:10EE300092EE62E00F94F5F140910A0250910B02BC
:10EE400060910C0270910D0282E020E10F9491F22A
:10EE500080910A0290910B02A0910C02B0910D02D8
:10EE600080509F4FAF4FBF4F80930A0290930B0289
:10EE7000A0930C02B0930D0269CD8AEE92EE62E08F
:10EE80000F94F5F184EE90EE60E00F94F5F18FECC5
:10EE900091EE60E00F94F5F1662477244301CC5D98
:10EEA000DE4F19821882C452D140D401C301B695F5
:10EEB000A79597958795CA5DDE4F88839983AA8326
:10EEC000BB83C652D140CC5DDE4FA881B981C4520C
:10EED000D1401196CC5DDE4FB983A883C452D14096
:10EEE000CD0162E070E00F9434F2B0E2B093C6005E
:10EEF0008091C00086FFFCCF8091C0008064809329
:10EF0000C000EDE2E093C6008091C00086FFFCCF18
:10EF10008091C00080648093C000F0E2F093C6004E
:10EF20008091C00086FFFCCF8091C00080648093F8
:10EF3000C000CA5DDE4FE880F9800A811B81C6529D
:10EF4000D140BB27A12F902F8F2D0F940DF2CA5DBA
:10EF5000DE4F8881C652D1400F940DF2B0E2FB2EF5
:10EF6000F092C6008091C00086FFFCCF8091C00067
:10EF700080648093C0000DE30093C6008091C000C0
:10EF800086FFFCCF8091C00080648093C00010E2B7
:10EF90001093C6008091C00086FFFCCF8091C00016
:10EFA00080648093C0008BBEF3012791C65DDE4F65
:10EFB0002883CA52D140A22EBB24CC24DD2408943D
:10EFC000611C711C811C911C8BBEF3018791282E42
:10EFD0003324442455240894611C711C811C911C09
:10EFE0008BBEF3013791C55DDE4F3883CB52D140E4
:10EFF0000894611C711C811C911C8BBEF30147910C
:10F00000C45DDE4F4883CC52D140ADEFEA2EAFEF66
:10F01000FA2EAFEF0A2FAFEF1A2F6E0C7F1C801E57
:10F02000911E142D032DF22CEE24EA0CFB1C0C1D5A
:10F030001D1D0F940DF220E22093C6008091C000A8
:10F0400086FFFCCF8091C00080648093C000C65DC5
:10F05000DE4F8881CA52D1400F940DF230E23093D6
:10F06000C6008091C00086FFFCCF8091C000806404
:10F070008093C000C45DDE4F8881CC52D1400F9494
:10F080000DF240E24093C6008091C00086FFFCCFA5
:10F090008091C00080648093C000C55DDE4F888190
:10F0A000CB52D1400F940DF250E25093C6008091A4
:10F0B000C00086FFFCCF8091C00080648093C000B8
:10F0C0008FEFE8168FEFF80680E0080780E018075A
:10F0D00031F484E092EE60E00F94C2F1DFC0D80119
:10F0E000C7018070907CA070B0708050904CA040A0
:10F0F000B040D1F52FEF3FE340E050E0E222F322B1
:10F1000004231523CA5DDE4FA880B980CA80DB8046
:10F11000C652D140AE0CBF1CC01ED11EAA0CBB1CD7
:10F12000CC1CDD1C8EE092EE60E00F94C2F1BB2798
:10F13000A12F902F8F2D0F940DF28E2D0F940DF285
:10F1400030E23093C6008091C00086FFFCCF8091F2
:10F15000C00080648093C0004EE34093C60080915D
:10F16000C00086FFFCCF87C08EE09EEFA0E0B0E03D
:10F17000E822F9220A231B239CE0E91694E9F90608
:10F1800090E0090790E0190709F088C0C45DDE4FE0
:10F19000A881CC52D140EA2EFF2400E010E0102FCD
:10F1A0000F2DFE2CEE24C55DDE4FB881CB52D14031
:10F1B000EB0EF11C011D111DD601C501817090706F
:10F1C000A070B070DC0199278827E80EF91E0A1F8D
:10F1D0001B1F20EF30E040E050E0A222B322C42207
:10F1E000D52241E1AA0CBB1CCC1CDD1C4A95D1F7F1
:10F1F000EA0CFB1C0C1D1D1D81E090E0A0E0B0E0BE
:10F20000282239224A225B2235E1220C331C441C7D
:10F21000551C3A95D1F7E20CF31C041D151D57013E
:10F220006801AA0CBB1CCC1CDD1C85E192EE60E0E1
:10F230000F94C2F1C801AA27BB270F940DF2BB2778
:10F24000A12F902F8F2D0F940DF28E2D0F940DF274
:10F2500090E29093C6008091C00086FFFCCF809121
:10F26000C00080648093C000AEE3A093C60080918C
:10F27000C00086FFFCCF8091C00080648093C000F6
:10F28000C601AA27BB270F940DF2BB27AD2D9C2DDD
:10F290008B2D0F940DF28A2D0F940DF20F94DCF14B
:10F2A000CC5DDE4FE881F981C452D140F99709F471
:10F2B0004DCBF4E0EF2EF12C012D112D6E0C7F1CA7
:10F2C000801E911EF2CD83E093EE62E00F94F5F183
:10F2D0008AE192EE60E00F94C2F18091C00087FF56
:10F2E000FCCF1091C6001F751093C6008091C0001E
:10F2F00086FFFCCF8091C00080648093C0000F9493
:10F30000DCF1812F81548A3108F036C1163409F4BA
:10F3100095C0173490F4133409F44EC0143430F40B
:10F320001134F1F0123409F01DC130C0143409F465
:10F3300059C0153409F016C16BC01A3409F4C4C0A1
:10F340001B3438F4173409F48FC0183409F00AC19B
:10F35000A1C01B3409F4D2C01C3409F003C1E8C0B9
:10F360008FEF81B90DC082B1809582B980E090E0C5
:10F37000E0EDF7E03197F1F70196883C9105C1F790
:10F380008091C00087FFEFCF12B8EFC08FEF84B934
:10F390000DC085B1809585B980E090E0E0EDF7E0A3
:10F3A0003197F1F70196883C9105C1F78091C00033
:10F3B00087FFEFCF15B8D9C08FEF87B90DC088B1DF
:10F3C000809588B980E090E0E0EDF7E03197F1F7C3
:10F3D0000196883C9105C1F78091C00087FFEFCF6F
:10F3E00018B8C3C08FEF8AB90DC08BB180958BB9A7
:10F3F00080E090E0E0EDF7E03197F1F70196883C8E
:10F400009105C1F78091C00087FFEFCF1BB8ADC059
:10F410008FEF8DB90DC08EB180958EB980E090E0F0
:10F42000E0EDF7E03197F1F70196883C9105C1F7DF
:10F430008091C00087FFEFCF1EB897C08FEF80BBD1
:10F440000DC081B3809581BB80E090E0E0EDF7E0F6
:10F450003197F1F70196883C9105C1F78091C00082
:10F4600087FFEFCF11BA81C08FEF83BB0DC084B38C
:10F47000809584BB80E090E0E0EDF7E03197F1F714
:10F480000196883C9105C1F78091C00087FFEFCFBE
:10F4900014BA6BC08FEF809301010FC080910201FD
:10F4A00080958093020180E090E0E0EDF7E03197F5
:10F4B000F1F70196883C9105C1F78091C00087FF64
:10F4C000EDCF1092020151C08FEF809304010FC065
:10F4D0008091050180958093050180E090E0E0ED4A
:10F4E000F7E03197F1F70196883C9105C1F78091DB
:10F4F000C00087FFEDCF1092050137C08FEF8093DA
:10F5000007010FC08091080180958093080180E079
:10F5100090E0E0EDF7E03197F1F70196883C910536
:10F52000C1F78091C00087FFEDCF109208011DC088
:10F530008FEF80930A010FC080910B01809580931B
:10F540000B0180E090E0E0EDF7E03197F1F70196F4
:10F55000883C9105C1F78091C00087FFEDCF1092E4
:10F560000B0103C085E292EEEEC98091C00087FFD7
:10F57000FCCF8091C600EAC988E392EEE4C98CE131
:10F5800091EEE1C988249924933011F1943028F444
:10F59000913089F09230B8F408C0953061F195301F
:10F5A000F0F0963009F048C043C02B3109F042C951
:10F5B00091E06BE13FC96227C15DDE4F2883CF52E6
:10F5C000D14092E037C9B22FA0E0622793E032C960
:10F5D000822F90E0A82BB92B622794E02BC92E3004
:10F5E00009F039C3622795E0C05DDE4F19821882A9
:10F5F000C053D1401FC9E1E0F0E0EC0FFD1FC05D3A
:10F60000DE4F08811981C053D140E00FF11F2083E4
:10F610000F5F1F4FC05DDE4F19830883C053D14079
:10F6200062270A171B0709F005C9D80196E002C92D
:10F63000261709F010C303C0973009F0FBC87724E0
:10F640009981933109F412C19431C8F4963009F4C8
:10F65000D8C0973050F4923009F406C1933009F4C1
:10F660006DC0913009F059C253C0913109F477C08F
:10F67000923108F0BBC0903109F04FC2F5C098310B
:10F6800009F487C0993150F4953109F4EFC09531F0
:10F6900008F4C6C1963109F040C2C2C19A3109F4DA
:10F6A0006CC09A3108F491C09B3109F45BC09D3164
:10F6B00009F033C29D81903359F48F81882311F46E
:10F6C0009EE11CC0813011F091E018C098E916C08D
:10F6D000892F807591F0903539F4E0E0F0E089E011
:10F6E0008093570094910AC0983539F4E3E0F0E034
:10F6F00089E080935700949101C090E01A821B82A8
:10F700008D818C831D829E831F8227E030E009C299
:10F710001A8288E08B8381E48C8386E58D8382E581
:10F720008E8389E48F8383E5888780E589878FE5E9
:10F730008A8782E38B872BE030E0F3C18A818139AD
:10F7400041F0823941F0803911F48FE005C080E04A
:10F7500003C082E001C08AE01A828B8344C0772410
:10F76000739482C08D81882311F48EE12CC0813086
:10F7700011F081E028C088E926C01A82E1E0F0E0BB
:10F7800089E08093570084918B831C8224E030E0D1
:10F79000C8C18B81803589F48C81883039F4E2E0EE
:10F7A000F0E089E08093570084910DC0E0E0F0E044
:10F7B00089E080935700849106C0E3E0F0E089E09F
:10F7C0008093570084911A82DFCF8D81836C99E0FA
:10F7D000E1E0F0E0082E90935700E89507B600FCB2
:10F7E000FDCF1A821B8223E030E09BC180EC8A832C
:10F7F000CE5CDE4F188219821A821B82C253D1401E
:10F800008EC18A8190E0A0E0B0E0582F44273327D2
:10F8100022278B8190E0A0E0B0E0DC0199278827C7
:10F82000282B392B4A2B5B2B8D8190E0A0E0B0E098
:10F83000282B392B4A2B5B2B8C8190E0A0E0B0E089
:10F84000BA2FA92F982F8827282B392B4A2B5B2BCF
:10F85000220F331F441F551FC05EDE4F288339839C
:10F860004A835B83C052D1401A8259C13A81C95C34
:10F87000DE4F3883C753D140CA5CDE4F1882C6536F
:10F88000D1408B81C82EDD24CA5CDE4F488159816E
:10F89000C653D140C42AD52A933109F082C0CE5C28
:10F8A000DE4F88819981AA81BB81C253D1408050AB
:10F8B000904CA340B04030F583E0CE5CDE4FE88052
:10F8C000F9800A811B81C253D140F70100935B008C
:10F8D00080935700E89507B600FCFDCFCE5CDE4F65
:10F8E000088119812A813B81C253D14000501F4FAA
:10F8F0002F4F3F4FCE5CDE4F088319832A833B8313
:10F90000C253D140C05EDE4F488159816A817B81FC
:10F91000C052D140DE011B9631E08C9111962C91A2
:10F9200011971296C75CDE4F2883C953D140C85C3B
:10F93000DE4F1882C853D14090E0C85CDE4FE881AA
:10F94000F981C853D1408E2B9F2B0C01FA01609393
:10F950005B0030935700E89511244E5F5F4F6F4F67
:10F960007F4F0EEFE02E0FEFF02ECE0CDF1CC114F8
:10F97000D10499F685E0C05EDE4F088119812A81A5
:10F980003B81C052D140F80120935B008093570027
:10F99000E89507B600FCFDCF81E180935700E8951C
:10F9A00035C0C05EDE4F88819981AA81BB81C0527B
:10F9B000D140B695A795979587957C018601ABE0D8
:10F9C000AA2EB12CAC0EBD1E0BC0D5016D915D01F0
:10F9D000C7010F947FFE0894E11CF11C01501040F8
:10F9E0000115110591F7A60160E070E0440F551F65
:10F9F000661F771FC05EDE4FE880F9800A811B8199
:10FA0000C052D1404E0D5F1D601F711F1A82C05E33
:10FA1000DE4F488359836A837B83C052D1407FC0C5
:10FA2000FA80C55CDE4FF882CB53D140C65CDE4F16
:10FA30001882CA53D1408B81C82EDD24C65CDE4FAC
:10FA400008811981CA53D140C02AD12A1A828981DA
:10FA5000BE016D5F7F4F843121F59601C05EDE4FA0
:10FA6000E880F9800A811B81C052D1400BBFF701A9
:10FA700087919691DB018C9311969C936E5F7F4FDB
:10FA8000D801C7010296A11DB11DC05EDE4F88835B
:10FA90009983AA83BB83C052D14022503040F1F6F3
:10FAA00036C0C05EDE4F288139814A815B81C052F9
:10FAB000D1400894C108D108760100E010E0089414
:10FAC000C11CD11C0894E11CF11C011D111DE20E8A
:10FAD000F31E041F151F21BDBB27A52F942F832FB5
:10FAE00082BD2F5F3F4F4F4F5F4FF89A80B5DB01CC
:10FAF0008D93BD012E153F054007510761F7C05E8C
:10FB0000DE4F288339834A835B83C052D1409601FC
:10FB10002D5F3F4FFB01108204C080EC8A8322E0FE
:10FB200030E08BE18093C6008091C00086FFFCCF5F
:10FB30008091C00080648093C000C15DDE4FF88179
:10FB4000CF52D140F093C6008091C00086FFFCCF19
:10FB50008091C00080648093C000432F3093C60022
:10FB60008091C00086FFFCCF8091C00080648093AC
:10FB7000C000922F2093C6008091C00086FFFCCF6A
:10FB80008091C00080648093C0008EE08093C600A6
:10FB90008091C00086FFFCCF8091C000806480937C
:10FBA000C00065E1C15DDE4FE880CF52D1406E25D7
:10FBB00069276427FE01319610C090819093C6009A
:10FBC0008091C00086FFFCCF31968091C000806498
:10FBD0008093C0006927215030402115310569F715
:10FBE0006093C6008091C00086FFFCCF8091C0006A
:10FBF00080648093C00085B1805885B9772081F4F6
:10FC0000C15DDE4F0881CF52D1400F5FC15DDE4F35
:10FC10000883CF52D14090E0A0E0B0E00D941AF4F8
:10FC200027982F9880E090E020ED37E0F901319798
:10FC3000F1F7019684369105C9F700008091C00064
:10FC40008D7F8093C00081E180935700E895EE2777
:10FC5000FF270994FFCF90E00D941AF497FB092E2B
:10FC600007260AD077FD04D02ED006D000201AF443
:10FC7000709561957F4F0895F6F7909581959F4F08
:10FC80000895A1E21A2EAA1BBB1BFD010DC0AA1FDD
:10FC9000BB1FEE1FFF1FA217B307E407F50720F0F5
:10FCA000A21BB30BE40BF50B661F771F881F991F70
:10FCB0001A9469F760957095809590959B01AC01B9
:10FCC000BD01CF010895AA1BBB1B51E107C0AA1FAC
:10FCD000BB1FA617B70710F0A61BB70B881F991FED
:10FCE0005A95A9F780959095BC01CD010895F99991
:10FCF000FECF92BD81BDF89A992780B50895262F31
:10FD0000F999FECF1FBA92BD81BD20BD0FB6F89400
:0EFD1000FA9AF99A0FBE01960895F894FFCF63
:040000033000E000E9
:00000001FF