:1000000073C00000A2C00000A0C000009EC000009D
:100010009CC000009AC0000098C0000096C000007C
:1000200094C0000092C0000090C000008EC000008C
:100030008CC000008AC0000088C0000086C000009C
:1000400084C0000082C0000080C000007EC00000AC
:100050007CC000007AC0000078C000000C94920BB5
:1000600074C000000C94690B0C94400B6EC000002F
:100070006CC000006AC0000068C0000066C00000DC
:1000800064C0000062C0000060C000005EC00000EC
:100090005CC000005AC0000058C0000056C00000FC
:1000A00054C0000052C0000050C000004EC000000C
:1000B0004CC000004AC0000048C0000046C000001C
:1000C00044C0000042C0000040C000003EC000002C
:1000D0003CC000003AC000000C94170B0C94EE0AD0
:1000E00034C000005E147F1111241FBECFEFD1E297
:1000F000DEBFCDBF00E00CBF14E0A0E0B2E0E4EF53
:10010000F3E300E00BBF02C007900D92AA33B107E2
:10011000D9F726E0AAE3B4E001C01D92AB32B207E2
:10012000E1F710E0C3E7D0E000E006C02197010945
:10013000802FFE010E94B215C237D10780E0080768
:10014000A9F70E9483110C94E9195ACF08950296D9
:1001500008951F93CF93DF93EC01162F8F8580FFB7
:100160000BC0E881F9810084F185E02D20E144E0B5
:1001700060E070E0CE011995EB85FC852D853E850C
:10018000812F90E0E217F30758F410832B853C850C
:100190002F5F3F4F3C872B87DF91CF911F910895B1
:1001A000E881F981028CF38DE02DBC01CE01DF9155
:1001B000CF911F911994CF93DF93EC01E881F981DE
:1001C00036970190F081E02DE80FF91F838994891B
:1001D000C0DF019699F4E881F98136970190F081AA
:1001E000E02DEC0FFD1F8581982F926023893489C3
:1001F000232B11F0958302C083608583CE01DF91AC
:10020000CF910895CB010895AF92BF92CF92DF9224
:10021000EF92FF920F931F93CF93DF9300D01F9223
:10022000CDB7DEB78C015B01C12CD12C7601C21693
:10023000D306E406F506ACF4F50161915F01C8014F
:1002400029833A834B835C8384DF29813A814B8104
:100250005C81019649F06FEFC61AD60AE60AF60AE3
:10026000E6CFB901CA0102C0B601C7010F900F90D5
:100270000F900F90DF91CF911F910F91FF90EF9012
:10028000DF90CF90BF90AF900895CF93DF93EC01B4
:10029000E881F9810288F389E02D19958F3F2FEFCE
:1002A000920731F02D813E812F5F3F4F3E832D839A
:1002B000DF91CF9108958FEF9FEF089560E070E098
:1002C000CB01089580E090E00895CB010895CF938D
:1002D000DF93EC0188899989DC01ED91FC91048020
:1002E000F581E02D1995892B59F088899989DC01D0
:1002F000ED91FC910680F781E02DDF91CF9119946B
:100300008FEF9FEFDF91CF910895CF93DF93EC01B3
:1003100088899989DC01ED91FC910480F581E02DBB
:100320001995892B59F088899989DC01ED91FC9107
:100330000084F185E02DDF91CF9119948FEF9FEF2D
:10034000DF91CF910895AF92BF92CF92DF92EF925B
:10035000FF920F931F93CF93DF9300D01F92CDB7DF
:10036000DEB78C015B01C12CD12C7601F8018089AC
:100370009189DC01ED91FC910680F781E02D2983C4
:100380003A834B835C83199529813A814B815C8147
:100390008F3F71F0C216D306E406F5064CF4D50182
:1003A0008D935D01BFEFCB1ADB0AEB0AFB0ADECFB0
:1003B000C701B6010F900F900F900F90DF91CF9172
:1003C0001F910F91FF90EF90DF90CF90BF90AF9073
:1003D0000895DC0150968D919C915197DC01ED912F
:1003E000FC910480F581E02D199480E090E008955F
:1003F00080E090E0089580E090E0089580E090E053
:10040000089508950C944F16CF93DF93C0913F0445
:10041000D091400480914104909142048C179D0733
:10042000C1F1EC81FD8180819181009739F0DC017F
:10043000ED91FC910280F381E02D19950A80DB811A
:10044000C02DE8CF0280F381E02DF0934004E093CB
:100450003F040190F081E02D848195810E944F1628
:10046000E0913F04F091400480819181009711F068
:100470000E944F16E0913F04F091400411821082D7
:100480008091430490914404019790934404809395
:1004900043048091430490914404E0913F04F0911F
:1004A0004004892B79F6848195810E944F168091B2
:1004B0003F0490914004009721F0DF91CF910C947C
:1004C0004F16DF91CF9108950C944F160C944F1650
:1004D000089508950C944F16DC01ED91FC91369728
:1004E00020813181820F931FF5CFFB012081318163
:1004F000FC0131832083FB0142815381F90136974E
:1005000020813181FC01E20FF31F51834083089564
:1005100029E833E0FC013183208323E933E0358B84
:10052000248B69E973E0E1CFDC01ED91FC91369712
:1005300020813181820F931FEBCFCF93DF93EC01AA
:10054000E7DFCE01DF91CF910C944F16DC01ED91E6
:10055000FC91369720813181820F931FEECF0F934C
:100560001F93CF93DF938C01EB0188819981F80170
:10057000918380832A853B85FC0136970190F08129
:10058000E02DE00FF11F318320838C859D85F801DC
:10059000978386836A5F7F4FC8010696A6DFBE01F8
:1005A0006E5F7F4FC801DF91CF911F910F910C9427
:1005B000BB10CF93DF93EC0182E492E099838883B0
:1005C00086E592E0998788878CE492E09F838E830A
:1005D00064E372E0CE01069688DF60E372E0CE014C
:1005E000DF91CF910C94BB10CF93DF93EC01E1DF4F
:1005F000CE01DF91CF910C944F16CF93DF93EC0196
:100600008BEE92E0998388838FEF92E09CA38BA37B
:1006100085EF92E09F838E83CE0108960E94FF0CA7
:1006200065E073E0CE01DF91CF9199CF0697E5CFDA
:10063000DC01ED91FC91369720813181820F931F6F
:10064000DCCFCF93DF93EC01D8DFCE01DF91CF91E8
:100650000C944F160697F5CFDC01ED91FC9136977F
:1006600020813181820F931FECCF0F931F93CF9383
:10067000DF938C01EB016F3F8FEF780719F480E077
:1006800090E00FC06A3031F46DE0F8018089918903
:100690000E9478116C2FF801808991890E9478114D
:1006A000CE01DF91CF911F910F9108958F929F926C
:1006B000BF92CF92DF92EF92FF920F931F93CF934F
:1006C000DF9300D01F92CDB7DEB78C014B01C12C58
:1006D000D12C7601C216D306E406F50644F5F401E2
:1006E000B1904F01FAE0BF120EC06DE0F8018089B1
:1006F000918929833A834B835C830E9478115C81C2
:100700004B813A8129816B2DF80180899189298358
:100710003A834B835C830E947811FFEFCF1ADF0A84
:10072000EF0AFF0A5C814B813A812981D3CFCA014C
:10073000B9010F900F900F900F90DF91CF911F9103
:100740000F91FF90EF90DF90CF90BF909F908F9090
:1007500008958F929F92AF92BF92EF92FF920F9364
:100760001F93CF93DF93EC017B0149015A01E8818C
:10077000F98136970190F081E02DE80FF91F038988
:100780001489D8011F968C911F9780FF0BC0ED91A3
:10079000FC910084F185E02D20E144E060E070E010
:1007A000C8011995D801ED91FC91008CF18DE02DD7
:1007B000A5019401B701C80119956F3F7F4F99F4C6
:1007C000E881F98136970190F081E02DEC0FFD1F53
:1007D0008581982F926023893489232B11F095838A
:1007E00002C083608583CE01DF91CF911F910F916D
:1007F000FF90EF90BF90AF909F908F900895CF9211
:10080000DF92EF92FF920F931F93CF93DF93EC0150
:100810008C819D818617970708F03FC07A018B0174
:100820002A813B812617370728F5CB010896281720
:10083000390700F5C880D9809B838A830E94BA1546
:100840009983888320E030E08C819D8128173907C7
:1008500070F4E881F981E20FF31F309729F0D60197
:10086000A20FB31F8C9180832F5F3F4FEDCFC60146
:100870000E944F168C819D818017910758F4E88162
:10088000F981E80FF91F309719F0D7012C912083D7
:100890000196F2CF1D830C8305C06817790710F409
:1008A0007D836C83DF91CF911F910F91FF90EF902B
:1008B000DF90CF900895CF93DF93EC01E881F98129
:1008C00036970190F081E02DE80FF91F8389948914
:1008D000DC01ED91FC910484F585E02D19950196DC
:1008E00059F4E881F98136970190F081E02DEC0F01
:1008F000FD1F858181608583CE01DF91CF910895B1
:100900006F927F928F929F92AF92BF92CF92DF921F
:10091000EF92FF920F931F93CF93DF9300D01F921C
:10092000CDB7DEB73C018B01DC01ED91FC91369730
:100930000190F081E02D3296E80FF91FC284D38434
:10094000E484F584C21AD30AE40AF50A818192810B
:100950008E709927049761F5460157011814190400
:100960001A041B04D4F4B1E08B1A9108A108B10851
:10097000D301ED91FC9136970190F081E02DE60DC9
:10098000F71D6089C30129833A834B835C8313DCA1
:100990005C814B813A812981E1CFD701C601F7FE05
:1009A00003C080E090E0DC01C81AD90AEA0AFB0A19
:1009B000B801C301CEDED301ED91FC9136970190D1
:1009C000F081E02DE60DF71D838194818E709927CB
:1009D000029701F1D301ED91FC91369780819181CD
:1009E000860D971DFC0114861586168617860F90B6
:1009F0000F900F900F90DF91CF911F910F91FF906B
:100A0000EF90DF90CF90BF90AF909F908F907F90AE
:100A10006F9008951C141D041E041F04DCF6F1E001
:100A2000CF1AD108E108F108D301ED91FC91369776
:100A30000190F081E02DE60DF71D6089C301BBDB5D
:100A4000E9CF21E0FC012083FB01A081B181169751
:100A50008D919C91E80FF91F81899289009709F087
:100A60002ACF08950F931F93CF93DF93FC01048146
:100A70001581FB01C481D581AE010C171D0708F457
:100A8000A801FB0160817181FC01808191810E943C
:100A9000FC16009769F481E090E0C017D10740F0A0
:100AA0000C171D0710F080E090E091958195910959
:100AB000DF91CF911F910F9108950F931F93CF93C3
:100AC000DF93EC01DB01ED91FC910680F781E02DD5
:100AD000CB0119958C01E881F9810680F781E02D21
:100AE000CE011995B801BEDF892F881F8827881F7E
:100AF000DF91CF911F910F910895FC018081918129
:100B00000C944F16CF93DF93EC010796F6DFCE01DE
:100B1000DF91CF91F2CF0F931F93CF93DF93EC012F
:100B20008EE592E0998388838E859F85EA85FB8593
:100B3000892B21F10280F381E02DFB87EA87019068
:100B4000F081E02D048115810115110529F0C801FE
:100B5000D9DFC8010E944F16EA85FB85808191810B
:100B6000009711F00E944F16EA85FB8511821082D2
:100B70008E859F8501979F878E87D6CF04811581AB
:100B80000115110529F0C801BDDFC8010E944F16EB
:100B90008A859B85009711F00E944F16CE01029620
:100BA000DF91CF911F910F91A8CFCF93DF93EC01ED
:100BB000B2DFCE01DF91CF910C944F160F931F93AC
:100BC000CF93DF931F92CDB7DEB78C01BC01CE016E
:100BD000019637DF6AE0C801EEDAC8016CDEC801B1
:100BE0000F90DF91CF911F910F910895EF92FF9297
:100BF0000F931F93CF93DF931F92CDB7DEB78C0176
:100C00007B01BC01CE0101961CDFF70101900020A1
:100C1000E9F731979F012E193F0940E050E0B701F5
:100C2000C8016EDEC8010F90DF91CF911F910F9127
:100C3000FF90EF900895CF92DF92EF92FF920F9383
:100C40001F93FB01DC0100E010E098016A01E12C38
:100C5000F12C0C151D052E053F0538F461916D939F
:100C60000F5F1F4F2F4F3F4FF4CF840F951F1F91E2
:100C70000F91FF90EF90DF90CF900895CF92DF9289
:100C8000EF92FF920F931F93CF93DF931F92CDB7F5
:100C9000DEB77C016B01FC0184819581892B11F009
:100CA00015821482C114D104A9F0F601019000202C
:100CB000E9F731978F010C191D091982AE014F5FB9
:100CC0005F4FB801C7019BDDA801B601F701808124
:100CD0009181B1DFC7010F90DF91CF911F910F91EB
:100CE000FF90EF90DF90CF900895AF92BF92CF9298
:100CF000DF92EF92FF920F931F93CF93DF931F9298
:100D0000CDB7DEB78C016B017A01590188E090E024
:100D1000F80193838283158214820E94BA15F80128
:100D200091838083F601848195818E159F0510F44F
:100D30000E94E7161982BC016E197F09A616B70634
:100D400008F4B501AE014F5F5F4FC80158DDF801EF
:100D500044815581F601608171816E0D7F1DF8011E
:100D60008081918168DF0F90DF91CF911F910F916A
:100D7000FF90EF90DF90CF90BF90AF900895CF920B
:100D8000DF92EF92FF920F931F93CF93DF931F9207
:100D9000CDB7DEB76C017B018E010F5F1F4F2FEFC8
:100DA0003FEF40E050E0A1DFB701695F7F4F2FEFD9
:100DB0003FEF40E050E0C601079697DF0F90DF91CC
:100DC000CF911F910F91FF90EF90DF90CF900895FA
:100DD000EF92FF920F931F93CF93DF931F921F9277
:100DE000CDB7DEB77C01FC01118210821382128222
:100DF000158214828EE090E069837A830E94BA158E
:100E00008C0169817A81BBDFF701158304830F9020
:100E10000F90DF91CF911F910F91FF90EF90089568
:100E2000EF92FF920F931F93CF93DF93EC017B011F
:100E30008C819D81892BC1F486E090E00E94BA15D7
:100E40008C01B701C5DF19830883EA81FB81118317
:100E50000083D80111961C921E921396FC93EE9378
:100E6000129781E090E01EC086E090E00E94BA15E3
:100E70008C01B701ADDFEA81FB8180819181D801CE
:100E800011969C938E931396FC93EE931297A081E8
:100E9000B18113961C930E931297118300838C815A
:100EA0009D8101969D838C83DF91CF911F910F913E
:100EB000FF90EF900895AF92BF92CF92DF92EF92A2
:100EC000FF920F931F93CF93DF93CDB7DEB7659754
:100ED0000FB6F894DEBF0FBECDBF8C017B015A0167
:100EE000DB0111968D919C911297F8019283818379
:100EF000F801A181B281F701838194818A179B0750
:100F000049F1C084D18414966D917C911597CE01DE
:100F1000019635DFBE016F5F7F4FCE010F96F60160
:100F20001995B501CE010F969DDD6C01CE010F968E
:100F3000E4DDCE010196E6DDD7FE0CC0D8011196A6
:100F4000ED91FC9112978281938112969C938E93DE
:100F50001197CECFC80165960FB6F894DEBF0FBECD
:100F6000CDBFDF91CF911F910F91FF90EF90DF9058
:100F7000CF90BF90AF900895EF92FF920F931F9381
:100F8000CF93DF931F92CDB7DEB77C018E010F5F49
:100F90001F4F2FEF3FEF40E050E0A7DEC7010F905B
:100FA000DF91CF911F910F91FF90EF900895CF9215
:100FB000DF92EF92FF920F931F93CF93DF93CDB702
:100FC000DEB7C554D1090FB6F894DEBF0FBECDBF52
:100FD0007C016B01AB01BC01CE018D5B9F4F6BDFD0
:100FE0002696EEADFFAD2697D70113968D919C9175
:100FF00014978E179F0731F064817581C60132DD29
:1010000097FFCDC088E090E09CAF8BAF1EAE1DAEC9
:101010000E94BA159AAF89AF8E010F5F1F4F2FEF55
:101020003FEF40E050E0B601CE014D965EDE2FEF7F
:101030003FEF40E050E0BE01675C7F4FCE018496F9
:1010400054DEF70100851185BE01635E7F4FCE013E
:10105000019695DEBE016F5F7F4FCE010F96F801BE
:101060001995AE01415F5F4FB701CE01805C9F4F84
:1010700022DFCE010F9641DDCE01019643DD23969E
:10108000AEADBFAD2397F70183819481A817B9074F
:1010900071F4BE01635E7F4FC7010196C1DED701C7
:1010A0001396ED91FC911497908181816CC0F701AA
:1010B0000085118514966D917C911597CE0101964E
:1010C0005EDEBE016F5F7F4FCE018B96F8011995F2
:1010D000D70118960D911C911997BE01635E7F4F41
:1010E000CE010F964CDEBE01615F7F4FCE01C296EE
:1010F000F8011995BE01655D7F4FCE01C296B2DC45
:101100008C01CE01C296F9DCCE010F96FBDCCE013C
:101110008B96F3DCCE010196F5DC2396CEACDFACEA
:10112000239717FF2EC086E090E00E94BA158C012D
:10113000BE01635E7F4F4CDED6018D919C91F8011C
:1011400091838083D382C282892B31F4D701129696
:101150001C930E93119705C0D601ED91FC9113835A
:101160000283F60111830083D70115968D919C911E
:101170001697019616969C938E931597902F812F14
:1011800002C09C2D8D2D25969FAF259726968FAF5B
:101190002697CE014D96B6DCCE01C996AEDC2696DA
:1011A000EEADFFAD2697848195810796CB5BDF4F2F
:1011B0000FB6F894DEBF0FBECDBFDF91CF911F9168
:1011C0000F91FF90EF90DF90CF900895CF92DF9234
:1011D000EF92FF920F931F93CF93DF931F92CDB7A0
:1011E000DEB77C016B0188E090E0F7019383828396
:1011F000158214820E94BA15F70191838083C1146D
:10120000D104A9F0F60101900020E9F731978F0190
:101210000C191D091982AE014F5F5F4FB801C7015C
:10122000EEDAA801B601F7018081918104DD0F900B
:10123000DF91CF911F910F91FF90EF90DF90CF90B2
:10124000089508950895DB012D913C911197FC01BB
:1012500031832083F901369720813181FC01E20F2F
:10126000F31F12968D919C9113979183808381E255
:1012700090E094838383548B438B1582158A089561
:10128000EF92FF920F931F93CF93DF93EC018B01AB
:101290007A016E5F7F4F82D7B8016A5F7F4FA701E7
:1012A000CE010696D0DFF8018081918199838883F1
:1012B00022853385FC0136970190F081E02DEC0FFB
:1012C000FD1F31832083F801848595859F838E835C
:1012D000DF91CF911F910F91FF90EF9008950895A6
:1012E000FC01A089B1898C91A689B78982FD0FC0C4
:1012F0009C91818D8F5F8F73228D821749F0218D94
:10130000DF01A20FB11D5D969C93818F08958C9192
:101310000895FC01918D828D981761F0828DDF0117
:10132000A80FB11D5D968C91928D9F5F9F73928FD8
:1013300090E008958FEF9FEF0895FC01918D828DCD
:10134000981731F0828DE80FF11D858D90E008959A
:101350008FEF9FEF0895FC01918D228D892F90E0F2
:10136000805C9F4F821B91098F739927089585E5B3
:1013700094E0F1DF21E0892B09F420E0822F089529
:1013800082EF94E0E8DF21E0892B09F420E0822F4E
:101390000895FC01848DDF01A80FB11DA35ABF4F32
:1013A0002C91848D90E001968F739927848FA68964
:1013B000B7892C93A089B1898C9180648C93938D8B
:1013C000848D981306C00288F389E02D80818F7D7B
:1013D00080830895EF92FF920F931F93CF93DF9333
:1013E000EC0181E0888F9B8D8C8D981305C0E88976
:1013F000F989808185FD23C0F62E0B8D10E00F5FEB
:101400001F4F0F731127E02E8C8DE8120BC00FB603
:1014100007FCFACFE889F989808185FFF5CFCE01F5
:10142000B8DFF2CF8B8DFE01E80FF11DE35AFF4FBD
:10143000F0820B8FEA89FB898081806207C0EE8988
:10144000FF896083E889F98980818064808381E0F5
:1014500090E0DF91CF911F910F91FF90EF90089551
:10146000CF93DF93EC01888D8823C1F0EA89FB8953
:10147000808185FD05C0A889B9898C9186FD0EC043
:101480000FB607FCF5CF808185FFF2CFA889B98917
:101490008C9185FFEDCFCE017CDFE8CFDF91CF913E
:1014A000089580E090E0892B19F06ADF811120C057
:1014B00080E090E0892B41F080E090E0892B21F0E2
:1014C0000E940000811117C080E090E0892B41F05C
:1014D00080E090E0892B21F00E94000081110EC075
:1014E00080E090E0892B79F042DF81110AC00895F5
:1014F0000E940000DDCF0E940000E6CF0E940000A5
:10150000EFCF0C94000008953FB7F8948091490400
:1015100090914A04A0914B04B0914C0426B5A89B2D
:1015200005C02F3F19F00196A11DB11D3FBFBA2F75
:10153000A92F982F8827820F911DA11DB11DBC01D5
:10154000CD0142E0660F771F881F991F4A95D1F79A
:1015500008958F929F92AF92BF92CF92DF92EF92B7
:10156000FF920F931F93CF93DF937C018B016C014C
:1015700082E0C80ED11C4701E5E08E0E911CC0E050
:10158000D0E0F60141916F0150E060E070E02AE0A8
:10159000C80153D65C016EE2C801AAD68A0D9B1D14
:1015A000C80FD91FC814D90461F7F701458150E06D
:1015B00060E070E02AE0C80140D68C0F9D1FDF91EB
:1015C000CF911F910F91FF90EF90DF90CF90BF9040
:1015D000AF909F908F9008950E94E7161F920F92F0
:1015E0000FB60F9211240BB60F922F933F934F9388
:1015F0005F936F937F938F939F93AF93BF93EF937B
:10160000FF9385E594E0C5DEFF91EF91BF91AF9127
:101610009F918F917F916F915F914F913F912F910A
:101620000F900BBE0F900FBE0F901F9018951F923A
:101630000F920FB60F9211240BB60F922F933F9378
:101640004F935F936F937F938F939F93AF93BF93CA
:10165000EF93FF9385E594E043DEFF91EF91BF9117
:10166000AF919F918F917F916F915F914F913F913A
:101670002F910F900BBE0F900FBE0F901F901895DB
:101680001F920F920FB60F9211240BB60F922F9349
:101690003F934F935F936F937F938F939F93AF93FA
:1016A000BF93EF93FF9382EF94E073DEFF91EF918E
:1016B000BF91AF919F918F917F916F915F914F916A
:1016C0003F912F910F900BBE0F900FBE0F901F9068
:1016D00018951F920F920FB60F9211240BB60F920E
:1016E0002F933F934F935F936F937F938F939F932A
:1016F000AF93BF93EF93FF9382EF94E0F1DDFF91FF
:10170000EF91BF91AF919F918F917F916F915F9179
:101710004F913F912F910F900BBE0F900FBE0F90E6
:101720001F9018951F920F920FB60F9211242F93AE
:101730003F938F939F93AF93BF9380913A0490917F
:101740003B04A0913C04B0913D043091480423E057
:10175000230F2D3720F40196A11DB11D05C026E8E9
:10176000230F0296A11DB11D2093480480933A04D3
:1017700090933B04A0933C04B0933D0480914904B2
:1017800090914A04A0914B04B0914C040196A11D84
:10179000B11D8093490490934A04A0934B04B093E5
:1017A0004C04BF91AF919F918F913F912F910F90DA
:1017B0000FBE0F901F901895EF92FF920F931F93FB
:1017C000CF93DF93CDB7DEB765970FB6F894DEBF42
:1017D0000FBECDBF8C017B01BC01CE01459631D936
:1017E000C701FF0CAA0BBB0BF80120813181F90165
:1017F00036970190F081E02DE00FF11F23813481B5
:1018000025FD18C026FF05C032FD17C024EF33E0C8
:101810001FC027FF15C0A9014427507232FF05C021
:10182000452B89F42DEF33E013C0452B79F426E0E6
:1018300034E00EC02BEE33E00BC02FEE33E008C0D7
:1018400020E030E005C028EF33E002C022E034E0C1
:10185000BF93AF939F938F933F932F931F9284E1F6
:101860008F939E012F5F3F4F79013F932F930E94EB
:101870000A179C01990F440B550BB701C80140D8BA
:10188000D801ED91FC9136970190F081E02DE00FA9
:10189000F11F838194810FB6F894DEBF0FBECDBFD8
:1018A00096FF02C0C80107D8C80165960FB6F89424
:1018B000DEBF0FBECDBFDF91CF911F910F91FF9083
:1018C000EF900895FC018789908D009769F1248934
:1018D00035892817390718F4308F278B25C00197D1
:1018E0006F3F2FEF720729F4908F878B80E090E095
:1018F0000895A089B1899B01215031092F3F3105FD
:1019000048F4262FA80FB91F3C91231305C0908FD0
:10191000878B08C020E0F6CF278524FF05C0908F75
:10192000878B6C93CB0108958FEF9FEF0895CF9332
:10193000DF93EC01E881F9810288F389E02D1995A4
:101940008F3F2FEF920731F02F89388D2F5F3F4F58
:10195000388F2F8BDF91CF910895FC012789308D2F
:10196000848995892817390740F480899189FC0179
:10197000E20FF31F808190E008958FEF9FEF0895AD
:10198000EF92FF92CF93DF93FC01DB0160E070E008
:10199000CB01E788F08CC489D589EC16FD06A8F444
:1019A000621773078407950784F4C089D189CE0D27
:1019B000DF1DC881CD936F5F7F4F8F4F9F4FC789CA
:1019C000D08D2196D08FC78BE4CFDF91CF91FF9040
:1019D000EF900895FC01848995892789308D821BB9
:1019E000930B089580E090E00895242FDC01ED91A1
:1019F000FC910084F185E02D41E01994089529ECD3
:101A000032E0FC0131832083409677C8AF92BF92C9
:101A1000CF92DF92EF92FF920F931F93CF93DF93BA
:101A2000CDB7DEB7C056D1090FB6F894DEBF0FBEF2
:101A3000CDBF2FB7F89440913A0450913B04609188
:101A40003C0470913D042FBFFC01438B548B658B8C
:101A5000768B6EE074E08FE895E0C8D8AFD889E067
:101A6000E6E7F2E0DE01A95ABF4F01900D928A9598
:101A7000E1F749E050E0BE01695A7F4F85E594E007
:101A8000B1D38E01025B1F4F89E0F80111928A9554
:101A9000E9F778016801F9E0CF0ED11C2FB7F8946F
:101AA00080913A0490913B04A0913C04B0913D0494
:101AB0002FBF80935D0490935E04A0935F04B09366
:101AC0006004E0915504F09156040680F781E02D02
:101AD00085E594E0199597FD0CC0F70181937F018E
:101AE000EC15FD05D9F6F8013196C801089620E0FD
:101AF00025C02FB7F89480913A0490913B04A091AF
:101B00003C04B0913D042FBF40915D0450915E04B0
:101B100060915F0470916004841B950BA60BB70B5A
:101B20004091590450915A0460915B0470915C0497
:101B300084179507A607B70720F2D5CF3191230F59
:101B4000E817F907D9F7F22EF194F80180818F3F59
:101B500031F48181863819F480858F15B1F0F80150
:101B6000008510E062E274E08FE895E03FD864E21F
:101B700074E03CD86F2D70E01FDE60E374E036D86F
:101B8000B8011ADE1BD880E0EEC0F801A280B12CAB
:101B9000E380F12C81E290E098A78FA319A61AA602
:101BA0001BA686E090E0A0E0B0E08CA79DA7AEA7C2
:101BB000BFA718AA19AA1AAA1BAA8FE593E09DA38A
:101BC0008CA380E28CAB1EAA1DAA6E01F9E0CF0E99
:101BD000D11CD8AECFAA19AEA60165E073E0CE0144
:101BE00001964EDB8BEE92E09A8389838FEF92E031
:101BF0009DA38CA385EF92E098878F831D861C861A
:101C00001F861E86198A188A1B8A1A8A1D8A1C8AB0
:101C10001F8A1E8A89EC92E09A87898788E090E083
:101C20009C8F8B8F1E8E1D8EA5D79A8F898F19A2A0
:101C300018A21BA21AA288E1888F1A2D00270E0D68
:101C40001F1DBE01695F7F4FCE01805A9F4F0E94CA
:101C50002105EF81F88536970190F081E02DEC0D9C
:101C6000FD1D8181928185FD18C086FF05C092FD12
:101C700017C084EF93E01FC087FF15C0AC01442755
:101C8000507292FF05C0452B89F48DEF93E013C08D
:101C9000452B79F486E094E00EC08AE094E00BC016
:101CA0008FEE93E008C080E090E005C088EF93E0FD
:101CB00002C082E094E01F921F921F930F939F93A4
:101CC0008F931F9284E18F937E012AE3E20EF11C31
:101CD000FF92EF920E940A179C01990F440B550B3B
:101CE000B701CE0107960E948004EF81F8853697F0
:101CF00080819181F601E80FF91F818192810FB6F1
:101D0000F894DEBF0FBECDBF96FF04C0CE0107968C
:101D10000E945B048E01005A1F4F2FEF3FEF40E0FF
:101D200050E0BE01675E7F4FC7010E94750662E208
:101D300074E08FE895E00E94F60564E374E00E9489
:101D4000F6052EAD3FAD40E050E06AAD7BAD0E94A0
:101D5000A9030E94DE05C7010E947D05CE01019600
:101D60000E94FD0281E0C05ADF4F0FB6F894DEBF3B
:101D70000FBECDBFDF91CF911F910F91FF90EF90DC
:101D8000DF90CF90BF90AF900895AF92BF92CF9267
:101D9000DF92EF92FF920F931F93CF93DF931F92E7
:101DA000CDB7DEB76C0187E190E0E4D67C012EE58B
:101DB00032E0DC012D933D93CD01B6016E5F7F4F84
:101DC0008E010F5F1F4F2FEF3FEF40E050E00E946A
:101DD00075065701BAE0AB0EB11CF70117861686DF
:101DE00086E090E0C7D6FC01118210821382128235
:101DF00015821482D7011B969C938E931A971D9679
:101E00009C938E931C97F60102851385D6011C9630
:101E10008D919C911D970817190761F0D8011496B0
:101E20006D917C911597C5010E941007F801028100
:101E30001381ECCF51968D919C915297F701928B23
:101E4000818B53968D919D910D90BC91A02D838B8C
:101E5000948BA58BB68B8CE692E091838083C7012F
:101E60000F90DF91CF911F910F91FF90EF90DF9036
:101E7000CF90BF90AF900895EF92FF920F931F9372
:101E8000CF93DF931F92CDB7DEB78C017B016F3FFD
:101E90007F4F19F480E090E028C0F801878584FF27
:101EA00022C0F801818D928D648975898617970704
:101EB00058F0E9826F5F7F4FAE014F5F5F4FC801FF
:101EC00040960E94FF0307C0F80120893189F9017B
:101ED000E80FF91FE082F801818D928D0196928FB3
:101EE000818FC70102C08FEF9FEF0F90DF91CF91DD
:101EF0001F910F91FF90EF900895EF92FF920F9333
:101F00001F93CF93DF931F92CDB7DEB7FC01922FC3
:101F10009870822F80712871283119F44230A9F409
:101F20003BC0413011F48B0116C0423081F488234C
:101F300029F004891589060F171F02C000E010E080
:101F4000992349F00789108D04C0413061F3048959
:101F50001589060F171F2489358920173107E0F0EE
:101F6000992311F0108F078B8823A1F07F0119822C
:101F7000AE014F5F5F4FB801CF0140960E94FF0353
:101F8000F701848995892789308D8217930710F48A
:101F9000908F878BC80102C08FEF9FEF0F90DF916A
:101FA000CF911F910F91FF90EF9008952F923F9244
:101FB0004F925F926F927F928F929F92AF92BF9259
:101FC000CF92DF92EF92FF920F931F93CF93DF9305
:101FD000CDB7DEB72C970FB6F894DEBF0FBECDBFDE
:101FE0006C018B0119012A014901FC01A18CB28C01
:101FF00088E090E09C838B831E821D82BBD59A83F0
:102000008983FFEF2F163F0609F4E1D6011511056C
:1020100081F01A86AE01465F5F4FB101CE01019695
:102020000E94FF034D815E81B80189819A810E94DF
:102030001B06F601048915890A151B0530F3980162
:102040002A193B0971012815390508F479016D80B9
:102050007E800E191F09C3018095909508171907F6
:10206000A0F6060D171DC60140964C01E614F704B4
:1020700058F41886AE01485F5F4FB8012B873C8744
:102080000E94FF033C852B85F60180899189A90177
:102090004E195F09B7016A0D7B1D680F791FF301A7
:1020A000EA0DFB1D8E0F9F1F96D669817A81F6017E
:1020B00080899189A3018A0D9B1D0E941B061986A8
:1020C000AE01475F5F4FB801C4010E94FF03CE011C
:1020D00001960E947D05F601818D928D820D931DE2
:1020E000928F818FC201B1012C960FB6F894DEBF9A
:1020F0000FBECDBFDF91CF911F910F91FF90EF9059
:10210000DF90CF90BF90AF909F908F907F906F9017
:102110005F904F903F902F90089508950895BFC508
:10212000DC01ED91FC91369720813181820F931F64
:10213000F6CFCF93DF93EC0162DCCE01DF91CF913C
:10214000AEC506970C94F402DC01ED91FC91369734
:1021500020813181820F931F0C94F40206970C9416
:10216000D902DC01ED91FC91369720813181820FFB
:10217000931F0C94D902FB0120813181FC01318332
:102180002083FB0142815381F901369720813181FF
:10219000FC01E20FF31F518340830895DB012D9171
:1021A0003C911197FC0131832083F901369701900E
:1021B000F081E02DE80FF91F12962D913C911397B5
:1021C00031832083DC0112961D921D921D921C9278
:1021D000159781E290E094838383548B438B15821F
:1021E000158A0895CF92DF92EF92FF920F931F937B
:1021F000CF93DF936C017A018B01C0E0D0E0CE1564
:10220000DF0589F0D8016D918D01D601ED91FC912A
:102210000190F081E02DC6011995892B11F47E0102
:1022200002C02196ECCFC701DF91CF911F910F9192
:10223000FF90EF90DF90CF9008954F925F926F9252
:102240007F92EF92FF920F931F93CF93DF93CDB7BF
:10225000DEB7A1970FB6F894DEBF0FBECDBF7C01ED
:10226000FA01CB0119A2223008F42AE08E010F5D99
:102270001F4F422E512C612C712CBF01A3019201E2
:102280004FD4F901CA01015011096A3014F4605D9C
:1022900001C0695CD8016C93232B242B252B69F793
:1022A0000115110591F0F80101900020E9F731972F
:1022B000AF01401B510BD701ED91FC910280F381DE
:1022C000E02DB801C701199502C080E090E0A19609
:1022D0000FB6F894DEBF0FBECDBFDF91CF911F9137
:1022E0000F91FF90EF907F906F905F904F900895C7
:1022F000DC01ED91FC910190F081E02D19948FE8C3
:1023000095E00C948802CF93DF93CDB7DEB7A79703
:102310000FB6F894DEBF0FBECDBF789484B582604F
:1023200084BD84B5816084BD85B5826085BD85B579
:10233000816085BD80916E00816080936E001092F7
:102340008100809181008260809381008091810072
:102350008160809381008091800081608093800003
:102360008091B10084608093B1008091B000816061
:102370008093B00080919100826080939100809161
:1023800091008160809391008091900081608093A2
:1023900090008091A10082608093A1008091A100B3
:1023A00081608093A1008091A00081608093A00053
:1023B00080912101826080932101809121018160BF
:1023C0008093210180912001816080932001809180
:1023D0007A00846080937A0080917A008260809392
:1023E0007A0080917A00816080937A0080917A00EF
:1023F000806880937A001092C100E0910205F0910C
:10240000030582E08083E091FE04F091FF041082D6
:10241000E0910005F091010580E1808310920A05AA
:10242000E0910605F091070586E08083E0910405C0
:10243000F0910505808180618083E0910405F09131
:102440000505808188608083E0910405F091050591
:10245000808180688083E0910405F091050580818A
:102460008F7D80839EE5292E92E0392E2CEBE22E83
:1024700027E0F22E3CE6C32E32E0D32E80914D04AD
:10248000811157C1109244041092430486E090E0F9
:1024900071D3FC0111821082138212821582148280
:1024A0009093400480933F049093420480934104AE
:1024B00086EA90E090934704809346046BEA73E0C9
:1024C0008FE895E00E94F6050E94DE05AE01495DA9
:1024D0005F4F6EEB73E0CE014F960E94E6083A82A2
:1024E00029828E01085E1F4F2FEF3FEF40E050E042
:1024F000BE01615E7F4FCE0103960E947506188A69
:102500001F8686E090E036D3FC0111821082138290
:102510001282158214829C878B879E878D87FB8A07
:10252000EA8A1C8A1D8A1E8A1F8AAE014A5D5F4F95
:1025300065EC73E0C8010E94E608B801CE010A9676
:102540000E94D70760ED73E00E943E06C8010E941A
:102550007D05DA82C98266ED73E08FE895E00E941E
:10256000F6050E94DE05E0916504F091660482E0C4
:102570008083E0916104F09162041082E091630431
:10258000F09164048FEC808310926D04E0916904F3
:10259000F0916A0486E08083E0916704F09168041A
:1025A000808180618083E0916704F091680480817C
:1025B00088608083E0916704F0916804808180687E
:1025C0008083E0916704F091680480818F7D80832F
:1025D000AE014A5D5F4F67EE73E0C8010E94E608F6
:1025E000B801CE010A960E94D70764ED73E00E94FD
:1025F0003E06C8010E947D05025F1F4F2FEF3FEF8F
:1026000040E050E0BE016D5F7F4FCE0148960E94D2
:102610007506809041049090420400913F0410910F
:10262000400480169106D9F4CE0148960E947D059B
:1026300080914104909142048017910709F06EC087
:10264000CE010196A2DB8C01E0914604F091470493
:1026500019954C0160903F04709040042EC0D80141
:102660001496ED91FC91159780819181DC01ED919B
:10267000FC910680F781E02D1995BC01CE014896AA
:102680000E943205892B81F2D80112960D911C917E
:102690001397C7CFF301A481B581E0914604F0916F
:1026A00047048D919C911995B4010E945D05882382
:1026B00009F486C0F3016280738080914104909197
:1026C00042048615970531F77BC054D24C01DC01DA
:1026D0001D921C9282E090E04DD2FC011183008398
:1026E000D40115969C938E931497F3018081918168
:1026F00011969C938E9313967C926E9212970190F2
:10270000F081E02D93828282D3018D929C92BFEF63
:102710004B1A5B0A5092440440924304CE01019646
:102720000E948B05CE014F960E947D0581E080932B
:102730004D0400913F041091400480914104909118
:1027400042048017910791F0D8011496ED91FC9105
:10275000159780819181DC01ED91FC910084F185D8
:10276000E02D1995F80102811381E7CF0E94840AB8
:102770004B015C0188E8482E83E1582E612C712CB6
:102780000E94840ADC01CB0188199909AA09BB09B6
:10279000883E9340A105B10558F0F1E04F1A510869
:1027A0006108710828EE820E23E0921EA11CB11C64
:1027B000411451046104710419F70E94510A5ECE5C
:1027C00080914104909142046816790659F5409031
:1027D00043045090440486E090E04114510409F011
:1027E00074CFC8D14C01DC011D921C9282E090E0B4
:1027F000C1D1FC0111830083D40115969C938E9363
:1028000014979092400480923F04F3019182808259
:1028100011961C921E9213967C926E92129781E0F2
:1028200090E047C0F301A481B581E0914604F091A6
:1028300047048D919C9119954C01E0914604F091CB
:102840004704C8011995B4010E945D05882309F465
:1028500065CF86E090E08ED14C01DC011D921C9288
:1028600082E090E087D1FC0111830083D4011596AA
:102870009C938E931497F3018081918111969C9380
:102880008E9313967C926E921297892B29F49092D4
:10289000400480923F0405C00190F081E02D9382B6
:1028A0008282F3019182808280914304909144045A
:1028B0000196909344048093430430CF0F931F9369
:1028C000CF93DF93EFEBF5E083EA93E0918380838E
:1028D0001282138214821582E5E5F4E013821282DB
:1028E00048EE53E060E070E044835583668377836D
:1028F0002FE233E031832083A5E3B1E0B587A487DD
:10290000A4E3B1E0B787A687A0E3B1E0B18BA08BC9
:10291000A1E3B1E0B38BA28BA2E3B1E0B58BA48BB2
:10292000A6E3B1E0B78BA68B118E128E138E148E98
:1029300002EF14E0F8011382128244835583668308
:1029400077833183208325EC30E03587248724EC9E
:1029500030E03787268720EC30E0318B208B21EC6C
:1029600030E0338B228B22EC30E0358B248B26EC4D
:1029700030E0378B268B118E128E138E148EE5EC81
:10298000F5E0918380831282138214821582EBEC2E
:10299000F5E0918380831282138214821582E1ED27
:1029A000F5E0918380831282138214821582E7ED11
:1029B000F5E0918380831282138214821582EDEDFB
:1029C000F5E0918380831282138214821582E3EEF4
:1029D000F5E0918380831282138214821582E9EEDE
:1029E000F5E0918380831282138214821582EFEEC8
:1029F000F5E0918380831282138214821582E5EFC1
:102A0000F5E0918380831282138214821582EBEFAA
:102A1000F5E0918380831282138214821582E1E0B3
:102A2000F6E0918380831282138214821582EFE094
:102A3000F6E0918380831282138214821582E7E08C
:102A4000F6E0918380831282138214821582E5E17D
:102A5000F6E0918380831282138214821582EBE167
:102A6000F6E0918380831282138214821582E1E260
:102A7000F6E0918380831282138214821582E9EB3F
:102A8000F5E0918380831282138214821582CFE84D
:102A9000D5E081E290E0988F8F8B198E1A8E1B8E75
:102AA00086E090E0A0E0B0E08C8F9D8FAE8FBF8F6E
:102AB00018A219A21AA21BA28FE593E09D8B8C8B02
:102AC00080E28CA31EA21DA281E995E098A78FA3A6
:102AD00019A6AC0169E973E0CE010E94230989E8D7
:102AE00093E09983888383E993E09D8B8C8B1E828E
:102AF0001D8218861F821A8619861C861B861E86D2
:102B00001D86188A1F8687E693E09B838A831B8B2A
:102B10000A8B80E1898BDF91CF911F910F910895EE
:102B2000A1E21A2EAA1BBB1BFD010DC0AA1FBB1FD1
:102B3000EE1FFF1FA217B307E407F50720F0A21B43
:102B4000B30BE40BF50B661F771F881F991F1A94B0
:102B500069F760957095809590959B01AC01BD01DA
:102B6000CF010895EE0FFF1F881F8BBF0790F691CE
:102B7000E02D1994CF93DF938230910510F482E019
:102B800090E0E0912906F0912A0620E030E0C0E0D4
:102B9000D0E0309711F14081518148175907C0F0BA
:102BA0004817590761F482819381209719F09B831C
:102BB0008A832BC090932A068093290626C021156C
:102BC000310519F04217530718F49A01BE01DF01CD
:102BD000EF010280F381E02DDCCF2115310509F1F1
:102BE000281B390B2430310590F412968D919C915D
:102BF00013976115710521F0FB019383828304C053
:102C000090932A0680932906FD01329644C0FD0167
:102C1000E20FF31F81939193225031092D933C933E
:102C20003AC02091270630912806232B41F42091A9
:102C30000202309103023093280620932706209148
:102C40000002309101022115310541F42DB73EB744
:102C50004091040250910502241B350BE091270698
:102C6000F0912806E217F307A0F42E1B3F0B28175C
:102C7000390778F0AC014E5F5F4F2417350748F0F5
:102C80004E0F5F1F50932806409327068193919320
:102C900002C0E0E0F0E0CF01DF91CF9108950F9303
:102CA0001F93CF93DF93009709F48CC0FC013297F8
:102CB000138212820091290610912A06011511052E
:102CC00081F420813181820F931F2091270630915A
:102CD00028062817390779F5F0932806E093270688
:102CE00071C0D80140E050E0AE17BF0750F4129613
:102CF0002D913C911397AD012115310509F1D901B1
:102D0000F3CF9D01DA013383228360817181860FC5
:102D1000971F8217930769F4EC0128813981260FE8
:102D2000371F2E5F3F4F318320838A819B8193839E
:102D30008283452B29F4F0932A06E093290642C0AA
:102D40001396FC93EE931297ED01499159919E01D0
:102D5000240F351FE217F30771F480819181840FEE
:102D6000951F029611969C938E9382819381139660
:102D70009C938E931297E0E0F0E0D80112968D912B
:102D80009C911397009719F0F8018C01F6CF8D9163
:102D90009C9198012E5F3F4F820F931F2091270631
:102DA000309128062817390769F4309729F41092D2
:102DB0002A061092290602C0138212821093280656
:102DC00000932706DF91CF911F910F91089581E025
:102DD00090E0F894FEC26817790768F4FB01DC0103
:102DE000E40FF51FA40FB51F02C002900E924150D0
:102DF0005040D8F7089543C2FB01DC0141505040D8
:102E000030F08D910190801919F40020B9F7881BDA
:102E1000990B08950F931F93CF93DF93CDB7DEB730
:102E20002E970FB6F894DEBF0FBECDBF0E891F8957
:102E3000888D998D26E02C831A83098397FF02C021
:102E400080E090E801979E838D83AE01445E5F4FE2
:102E50006A8D7B8DCE01019619D04D815E8157FD23
:102E60000AC02F813885421753070CF49A01F801E4
:102E7000E20FF31F10822E960FB6F894DEBF0FBE3E
:102E8000CDBFDF91CF911F910F9108952F923F9267
:102E90004F925F926F927F928F929F92AF92BF926A
:102EA000CF92DF92EF92FF920F931F93CF93DF9316
:102EB000CDB7DEB72C970FB6F894DEBF0FBECDBFEF
:102EC0007C016B018A01FC0117821682838181FFDC
:102ED000B0C1CE0101964C01F7019381F60193FD3B
:102EE000859193FF81916F01882309F49EC18532FA
:102EF00039F493FD859193FF81916F01853221F41F
:102F0000B70190E0D0D1E8CF512C312C20E0203215
:102F1000A0F48B3269F030F4803259F0833269F4D6
:102F200020612CC08D3239F0803339F4216026C005
:102F30002260246023C0286021C027FD27C030ED17
:102F4000380F3A3078F426FF06C0FAE05F9E300D65
:102F50001124532E13C08AE0389E300D1124332ED5
:102F600020620CC08E3221F426FD5FC1206406C0B1
:102F70008C3611F4206802C0883641F4F60193FDC6
:102F8000859193FF81916F018111C1CF982F9F7D12
:102F90009554933028F40C5F1F4FFFE3F9830DC065
:102FA000833631F0833771F0833509F057C021C083
:102FB000F801808189830E5F1F4F44244394512C74
:102FC000540114C03801F2E06F0E711CF801A080AA
:102FD000B18026FF03C0652D70E002C06FEF7FEF68
:102FE000C5012C8755D12C0183012C852F77222EEA
:102FF00016C03801F2E06F0E711CF801A080B1809C
:1030000026FF03C0652D70E002C06FEF7FEFC501A2
:103010002C872AD12C012C852068222E830123FCA9
:1030200019C0832D90E048165906A0F4B70180E23C
:1030300090E039D13A94F5CFF50127FC859127FE30
:1030400081915F01B70190E02ED131103A94F1E007
:103050004F1A51084114510479F7DEC0843611F03B
:10306000893631F5F80127FF07C0608171818281BF
:1030700093810C5F1F4F08C060817181072E000C87
:10308000880B990B0E5F1F4F2F76722E97FF09C08A
:1030900090958095709561957F4F8F4F9F4F2068D9
:1030A000722E2AE030E0A40136D1A82EA81843C021
:1030B000853729F42F7EB22E2AE030E025C0F22F8A
:1030C000F97FBF2E8F36C1F018F4883579F0ADC086
:1030D000803719F0883721F0A8C02F2F2061B22E39
:1030E000B4FE0DC08B2D8460B82E09C024FF0AC029
:1030F0009F2F9660B92E06C028E030E005C020E181
:1031000030E002C020E132E0F801B7FE07C0608184
:103110007181828193810C5F1F4F06C06081718134
:1031200080E090E00E5F1F4FA401F5D0A82EA818F4
:10313000FB2DFF777F2E76FE0BC0372D3E7FA5142B
:1031400050F474FE0AC072FC08C0372D3E7E05C0E4
:10315000BA2C372D03C0BA2C01C0B52C34FF0DC0DA
:10316000FE01EA0DF11D8081803311F4397E09C022
:1031700032FF06C0B394B39404C0832F867809F05D
:10318000B39433FD12C030FF06C05A2CB31418F4A8
:10319000530C5B18B32CB31460F4B70180E290E0D9
:1031A0003C8781D0B3943C85F6CFB31410F43B1820
:1031B00001C0312C34FF11C0B70180E390E03C879F
:1031C00072D03C8532FF16C031FD03C088E790E025
:1031D00002C088E590E0B7010CC0832F867851F0DB
:1031E00031FF02C08BE201C080E237FD8DE2B70102
:1031F00090E059D0A51430F4B70180E390E053D0AB
:103200005A94F8CFAA94F401EA0DF11D8081B70118
:1032100090E049D0A110F6CF332009F45DCEB7017C
:1032200080E290E040D03A94F7CFF7018681978111
:1032300002C08FEF9FEF2C960FB6F894DEBF0FBE43
:10324000CDBFDF91CF911F910F91FF90EF90DF9055
:10325000CF90BF90AF909F908F907F906F905F9036
:103260004F903F902F900895FC0105906150704061
:103270000110D8F7809590958E0F9F1F0895FB0140
:10328000DC0102C001900D9241505040D8F70895E2
:10329000FC016150704001900110D8F78095909525
:1032A0008E0F9F1F08950F931F93CF93DF93FB0102
:1032B000238121FD03C08FEF9FEF28C022FF16C09E
:1032C00046815781248135814217530744F4A081F8
:1032D000B1819D012F5F3F4F318320838C932681E5
:1032E00037812F5F3F4F3783268310C0EB01092FB3
:1032F000182F0084F185E02D1995892BE1F68E8138
:103300009F8101969F838E83812F902FDF91CF9194
:103310001F910F910895FA01AA27283051F1203109
:1033200081F1E8946F936E7F6E5F7F4F8F4F9F4F59
:10333000AF4FB1E03ED0B4E03CD0670F781F891F9B
:103340009A1FA11D680F791F8A1F911DA11D6A0F69
:10335000711D811D911DA11D20D009F468943F911C
:103360002AE0269F11243019305D3193DEF6CF011B
:103370000895462F4770405D4193B3E00FD0C9F7E1
:10338000F6CF462F4F70405D4A3318F0495D31FD4E
:103390004052419302D0A9F7EACFB4E0A6959795A1
:1033A000879577956795BA95C9F700976105710577
:1033B00008959B01AC010A2E0694579547953795C1
:1033C0002795BA95C9F7620F731F841F951FA01D1B
:1033D000089510E0C3E7D0E000E005C0802FFE01B3
:1033E000C1DB2196011DC437D10780E00807B1F782
:0433F000F894FFCF7F
:1033F40000002B0680000200000000000000000016
:10340400FEFFFEFF000000000000080000000000B6
:1034140000000000F8FFF8FF000000000000420276
:1034240020022A020C02160256024C020800000076
:103434000000D902F4020200FAFF0000AE10A1104D
:10344400F8FFF8FF0000B110A41000000000000015
:103454000000EC0AA700EC0A000000008B05D5056B
:10346400C50EA700060DFF01860000000000791DAF
:10347400000000000000000000E3FFE3FF00000084
:1034840000000023000000000000000000DDFFDD5C
:10349400FF00000000000023000000000000000006
:1034A400001D00FAFF000000000000DDFFDDFF004A
:1034B400000000000000000000FF0C99100102FE53
:1034C4000C7D0FF50CF20CEA0CC00CAD0C970C62E1
:1034D4000CD60F3C0F230000000000FD0221031D49
:1034E40000FAFF000016032A03DDFFDDFF000018C9
:1034F400032C03EB02AD029902A30285028F02C1E1
:1035040002B702FF02F502140000000000000000F0
:1035140000ECFFECFF00000000000000000000EAE7
:1035240009F210AB0989099D09300A000000002145
:103534000964020102FE01FB01F801F50162015E6A
:10354400015B014501650104010201000000006FF7
:1035540009020200000000220966020102FE01FBCA
:1035640001F801F501E901A301850167016501562F
:1035740003350314000000000088029D02ECFFECF8
:10358400FF00009402A60289031D0327039303008E
:10359400000000A90A00000000EC0A446576696393
:1035A40065733A3A446576696365732829004D4822
:1035B4005F5A3136004C6F6F704D696C6C697300E3
:1035C4003630303030004D485F5A31363A3A4D4843
:1035D4005F5A3136282900434F3200256C64002598
:1035E400236C6F00256C6F0025236C580025236C19
:1035F4007800256C5800256C7800256C7500626F86
:103604006F6C204D485F5A31363A3A4C6F6F7028D0
:1036140029000900435243206572726F723A2000F8
:0A362400202F2000434F323A20000F
:00000001FF
