:1000000008C1000037C1000035C1000033C1000045
:1000100031C100002FC100002DC100002BC1000024
:1000200029C1000027C1000025C1000023C1000034
:1000300021C100001FC100001DC100001BC1000044
:1000400019C1000017C1000015C1000013C1000054
:1000500011C100000FC100000DC100000C94231954
:1000600009C100000C94A9180C94801803C1000069
:1000700001C10000FFC00000FDC00000FBC0000087
:10008000F9C00000F7C00000F5C00000F3C0000098
:10009000F1C00000EFC00000EDC00000EBC00000A8
:1000A000E9C00000E7C00000E5C00000E3C00000B8
:1000B000E1C00000DFC00000DDC00000DBC00000C8
:1000C000D9C00000D7C00000D5C00000D3C00000D8
:1000D000D1C00000CFC00000CDC00000CBC00000E8
:1000E000C9C0000010211321022106210A214A2142
:1000F00017211B212121252129212F2133213721BE
:100100004A213D214121452100000A0B02090C0D25
:100110000E080703040100000000000000000000BA
:1001200000000000000000000000000000000000CF
:10013000000000001211100000000000000000008C
:1001400000000000000000000000000000000000AF
:100150002200250028002B002E003100340002016F
:100160000000050108010B01000021002400270008
:100170002A002D00300033000101000004010701B6
:100180000A0105050505070508080808020202021C
:100190000A0A080804040404010101010101010123
:1001A0000303030303030303040707070C0C0C0CEE
:1001B0000C0C0C0C020202020606060606060606D7
:1001C0000B0B0B0B0B0B0B0B010210202008081064
:1001D00020401020408002010201080402010102B7
:1001E0000408102040808040201008040201800490
:1001F00002018040201008040201080402010102EB
:100200000408102040800102040810204080C3240C
:10021000BF2411241FBECFEFD1E2DEBFCDBF00E06F
:100220000CBF14E0A0E0B2E0E6E1F0E500E00BBFB7
:1002300002C007900D92A037B107D9F727E0A0E7D9
:10024000B4E001C01D92A130B207E1F711E0C8E0AF
:10025000D1E000E006C021970109802FFE010E9435
:100260008126C730D10780E00807A9F70E942F1E1A
:100270000C94FA27C5CEFC019581692B838994895A
:10028000892B09F46160658308958F929F92AF92E4
:10029000BF92EF92FF920F931F93CF93DF93EC01E6
:1002A0007B0149015A01E881F98136970190F0817B
:1002B000E02DE80FF91F03891489D8011F968C914E
:1002C0001F9780FF0BC0ED91FC910084F185E02D1C
:1002D00020E144E060E070E0C8011995D801ED919B
:1002E000FC91008CF18DE02DA5019401B701C801AE
:1002F00019956F3F7F4F49F4E881F98136978081E6
:10030000918162E08C0F9D1FB6DFCE01DF91CF910E
:100310001F910F91FF90EF90BF90AF909F908F90A3
:100320000895CF93DF93EC01E881F981369701902E
:10033000F081E02DE80FF91F83899489DC01ED91AC
:10034000FC910484F585E02D1995019649F4E88126
:10035000F98136978081918161E08C0F9D1F8BDF41
:10036000CE01DF91CF910895EF92FF920F931F93EB
:10037000CF93DF93EC018B017A016E5F7F4F0E9478
:10038000AB19B8016A5F7F4FA701CE0106960E94A4
:100390001C0DF801808191819983888322853385A2
:1003A000FC0136970190F081E02DEC0FFD1F3183A9
:1003B0002083F801848595859F838E83DF91CF917B
:1003C0001F910F91FF90EF900895CF93DF93EC0171
:1003D00089EE92E0998388838DEF92E09CA38BA3B2
:1003E00083EF92E09F838E83CE0108960E94671769
:1003F00061ED72E0CE01DF91CF910C94CF19069799
:10040000E4CFDC01ED91FC91369720813181820FA0
:10041000931FDBCFCF93DF93EC01D7DFCE01DF91CA
:10042000CF910C9425270697F5CFDC01ED91FC9137
:10043000369720813181820F931FECCFCF92DF92CC
:10044000EF92FF920F931F93CF93DF931F92CDB73D
:10045000DEB77C016B018E010F5F1F4F2FEF3FEF67
:1004600040E050E00E94DA11F60187819085A18575
:10047000B285F70187839087A187B287C7010F9064
:10048000DF91CF911F910F91FF90EF90DF90CF9070
:100490000895CF93DF93EC01E881F98136970190BD
:1004A000F081E02DE80FF91F838994890E946D0C7B
:1004B000019649F4E881F98136978081918162E063
:1004C0008C0F9D1FD8DECE01DF91CF910895CF9282
:1004D000DF92EF92FF920F931F93CF93DF93EC0184
:1004E0008C819D818617970708F03FC07A018B01A8
:1004F0002A813B812617370728F5CB010896281754
:10050000390700F5C880D9809B838A830E94902692
:100510009983888320E030E08C819D8128173907FA
:1005200070F4E881F981E20FF31F309729F0D601CA
:10053000A20FB31F8C9180832F5F3F4FEDCFC60179
:100540000E9425278C819D818017910758F4E881AE
:10055000F981E80FF91F309719F0D7012C9120830A
:100560000196F2CF1D830C8305C06817790710F43C
:100570007D836C83DF91CF911F910F91FF90EF905E
:10058000DF90CF900895CF92DF92EF92FF920F937A
:100590001F93CF93DF931F92CDB7DEB78C017B0102
:1005A0006A0188E090E0F8019383828315821482C7
:1005B0000E949026F80191838083FFEFCF16DF061B
:1005C00011F40E94BD27E114F10479F01982AE0103
:1005D0004F5F5F4FB601C8017ADFF8014481558152
:1005E000B701808191810E94B7110F90DF91CF9167
:1005F0001F910F91FF90EF90DF90CF900895FC0135
:10060000808191810C942527CF93DF93EC01E881C1
:10061000F98136970190F081E02DE80FF91F81896B
:100620009289009709F07DDE6AE0CE0132DFCE01CB
:1006300078DECE01DF91CF9108956F927F928F92F5
:100640009F92AF92BF92CF92DF92EF92FF920F9361
:100650001F93CF93DF9300D01F92CDB7DEB73C013D
:100660008B01DC01ED91FC9136970190F081E02D3A
:10067000E80FF91F81899289009709F052DEF8018D
:1006800001900020E9F731979F01201B310B40E0DA
:1006900050E0D301ED91FC9136970190F081E02D6F
:1006A0003296E60DF71DC284D384E484F584C21A21
:1006B000D30AE40AF50A818192818E709927049702
:1006C00061F546015701181419041A041B04D4F4E7
:1006D000B1E08B1A9108A108B108D301ED91FC910A
:1006E00036970190F081E02DE60DF71D6089C3017A
:1006F00029833A834B835C83CCDE5C814B813A81D6
:100700002981E1CFD701C601F7FE03C080E090E068
:10071000DC01C81AD90AEA0AFB0AB801C301B5DD2F
:10072000D301ED91FC9136970190F081E02DE60D1B
:10073000F71D838194818E7099270297B9F41C1458
:100740001D041E041F0494F4B1E0CB1AD108E10883
:10075000F108D301ED91FC9136970190F081E02DE5
:10076000E60DF71D6089C30194DEE9CFD301ED9159
:10077000FC9136970190F081E02DE60DF71D14866F
:10078000158616861786C3010F900F900F900F9055
:10079000DF91CF911F910F91FF90EF90DF90CF905D
:1007A000BF90AF909F908F907F906F9008952F9201
:1007B0003F924F925F926F927F928F929F92AF92F1
:1007C000BF92CF92DF92EF92FF920F931F93CF933E
:1007D000DF93CDB7DEB7CA54D1090FB6F894DEBFA8
:1007E0000FBECDBF6C0129967FAF6EAF29972B96B8
:1007F0005FAF4EAF2B9764E474E083E796E01DDFB4
:1008000003DF88E090E09DAF8CAF1FAE1EAE0E946C
:1008100090269BAF8AAFC114D104C1F0F6010190BC
:100820000020E9F731977F01EC18FD0825961FAEEF
:100830002597AE014C5B5F4FB701CE01CA9647DEEC
:10084000A701B6018AAD9BAD0E94B71181E290E08D
:1008500098A78FA319A61AA61BA686E090E0A0E091
:10086000B0E08CA79DA7AEA7BFA718AA19AA1AAA7D
:100870001BAA8BED93E09DA38CA380E28CAB1EAAF8
:100880001DAAAE01475F5F4F58AF4FAB19AE61ED88
:1008900072E0CE01019668DD89EE92E09A83898349
:1008A0008DEF92E09DA38CA383EF92E098878F83D6
:1008B0001D861C861F861E86198A188A1B8A1A8A1C
:1008C0001D8A1C8A1F8A1E8A188E8FE593E09A87DC
:1008D00089878E010F5B1F4F2FEF3FEF40E050E005
:1008E000BE01665C7F4FCE0149960E94DA1119A2C3
:1008F00018A21BA21AA288E1888FCE01CA967FDEB9
:100900002FEF3FEF40E050E0BE01675E7F4FCE012A
:10091000CA960E94DA1165E574E083E796E08DDE01
:1009200067E574E08ADE2EAD3FAD40E050E06AAD91
:100930007BADABDC69DECE01CA9661DE88E390E078
:100940000E9490266C01E12CF12C88E0A82EB12C9D
:1009500089A5811148C028E030E03DAF2CAF1FAE23
:100960001EAE88E090E00E9490269BAF8AAFE9819E
:10097000FA8136970190F081E02D41E050E04C0F74
:100980005D1FE40FF51F818992890097B9F0C9DCDA
:1009900015C00E94C127892B09F482C0E981FA8120
:1009A00036970190F081E02D81E090E08C0F9D1F43
:1009B000E80FF91F838994890E946D19E981FA81F2
:1009C00036970190F081E02D21E030E02C0F3D1FA3
:1009D000E20FF31F838994890E948E198F3F3FEFA6
:1009E0009307B9F650C09E012F5B3F4F2B964EAD3B
:1009F0005FAD2B9729966EAD7FAD2997CE01CA9634
:100A0000C2DD65E574E083E796E017DE60E674E03A
:100A100014DE2EAD3FAD40E050E06AAD7BAD35DC7D
:100A2000F3DDCE01CA96EBDD4601A12CB12CAE144C
:100A3000BF0449F0C401E3DD2FEFA21AB20A37E088
:100A4000830E911CF4CFC6010E942527CE0101968A
:100A5000BCDCC65BDF4F0FB6F894DEBF0FBECDBF68
:100A6000DF91CF911F910F91FF90EF90DF90CF908A
:100A7000BF90AF909F908F907F906F905F904F90BE
:100A80003F902F900895E981FA8136978081918176
:100A900062E041E050E04C0F5D1F840F951FEBDBDF
:100AA00024961FAE2497AE014D5B5F4F60E070E06F
:100AB000CE01CA960CDD812C912CE981FA81369702
:100AC0000190F081E02D41E050E04C0F5D1FE40FFC
:100AD000F51F81899289009709F023DCE981FA8169
:100AE00036970190F081E02D81E090E08C0F9D1F02
:100AF000E80FF91F838994890E948E193C0189812E
:100B00009A812FEF6216720689F41B821C821D8265
:100B10001E82FC0136978081918162E041E050E0C5
:100B20004C0F5D1F840F951FA6DB36C021E030E01F
:100B300040E050E02B833C834D835E83FC0136977D
:100B40000190F081E02D41E050E04C0F5D1FE40F7B
:100B5000F51F838994890E946D19C30101978F3F06
:100B6000910520F4862D8F3211F416C080E0239673
:100B70008FAF23976EAD7FAD6F5F7F4FAE014E5B42
:100B80005F4FCE01CA96A3DC5FEF851A950A8FEFFF
:100B90008816980609F091CF17019FEF291A390A94
:100BA000E214F30408F066C0A214B30408F040C0D5
:100BB000270129E0420E511CA414B504C8F537E002
:100BC000349DC001359D900D11240E9490262696DB
:100BD0008FAF269727969FAF279746015C01612C20
:100BE000712C6E147F04D1F0A114B10459F08E0160
:100BF0000F5B1F4F2FEF3FEF40E050E0B401C50106
:100C00000E94DA11C401FBDC4FEF641A740A57E04A
:100C1000850E911C87E0A80EB11CE3CFC6010E948F
:100C2000252752012696CFAC26972796DFAC27972B
:100C300097E09E9D40019F9D900C11248C0C9D1C63
:100C4000E214F304A8F58114910469F08E010F5B9E
:100C50001F4F2FEF3FEF40E050E0BE01665C7F4F3B
:100C6000C4010E94DA112FEFE21AF20A37E0830E74
:100C7000911CE6CF2E143F04D0F447E04E9D400176
:100C80004F9D900C1124E12CF12C57E0850E911C06
:100C9000C4018E0D9F1D8C0D9D1DB1DC87E0E80EFB
:100CA000F11C99EFE9169FEFF90691F701C01701C2
:100CB000CE01CA96A4DC71014BCECB010895CF932F
:100CC000DF93EC01E881F9810288F389E02D199521
:100CD0008F3F2FEF920731F02D813E812F5F3F4FE5
:100CE0003E832D83DF91CF9108958FEF9FEF08957D
:100CF00060E070E0CB01089580E090E00895CB01C2
:100D00000895CF93DF93EC0188899989DC01ED91F7
:100D1000FC910480F581E02D1995892B59F0888983
:100D20009989DC01ED91FC910680F781E02DDF913E
:100D3000CF9119948FEF9FEFDF91CF910895CF93CB
:100D4000DF93EC0188899989DC01ED91FC910480A5
:100D5000F581E02D1995892B59F088899989DC0155
:100D6000ED91FC910084F185E02DDF91CF911994F4
:100D70008FEF9FEFDF91CF910895AF92BF92CF9207
:100D8000DF92EF92FF920F931F93CF93DF9300D0E8
:100D90001F92CDB7DEB78C015B01C12CD12C76013F
:100DA000F80180899189DC01ED91FC910680F78141
:100DB000E02D29833A834B835C83199529813A81FD
:100DC0004B815C818F3F71F0C216D306E406F506B5
:100DD0004CF4D5018D935D01BFEFCB1ADB0AEB0A12
:100DE000FB0ADECFC701B6010F900F900F900F9056
:100DF000DF91CF911F910F91FF90EF90DF90CF90F7
:100E0000BF90AF900895DC0150968D919C915197C1
:100E1000DC01ED91FC910480F581E02D199480E0D6
:100E200090E0089580E090E0089580E090E00895DB
:100E300080E090E008950895CF92DF92EF92FF92C4
:100E40000F931F93CF93DF93EC018B010E9417192F
:100E50006B017C0188819981DC01ED91FC9104801A
:100E6000F581E02D1995892B79F40E941719AB01B2
:100E7000BC014C195D096E097F0948395A43610567
:100E8000710540F380E00CC088819981DC01ED910F
:100E9000FC910680F781E02D1995F801808381E0AF
:100EA000DF91CF911F910F91FF90EF90DF90CF9046
:100EB00008950F931F93CF93DF938C01EB016F3F46
:100EC0008FEF780719F480E090E00FC06A3031F4BA
:100ED0006DE0F801808991890E94FD1D6C2FF80159
:100EE000808991890E94FD1DCE01DF91CF911F91D4
:100EF0000F9108958F929F92BF92CF92DF92EF92BF
:100F0000FF920F931F93CF93DF9300D01F92CDB723
:100F1000DEB78C014B01C12CD12C7601C216D30651
:100F2000E406F50644F5F401B1904F01FAE0BF1272
:100F30000EC06DE0F8018089918929833A834B8343
:100F40005C830E94FD1D5C814B813A8129816B2D60
:100F5000F8018089918929833A834B835C830E94BD
:100F6000FD1DFFEFCF1ADF0AEF0AFF0A5C814B81FC
:100F70003A812981D3CFCA01B9010F900F900F9008
:100F80000F90DF91CF911F910F91FF90EF90DF9025
:100F9000CF90BF909F908F9008950C9425270C942C
:100FA0002527089508950C942527DC01ED91FC91E7
:100FB000369720813181820F931FF5CF0C9425271E
:100FC0002F923F924F925F926F927F928F929F9259
:100FD000AF92BF92CF92DF92EF92FF920F931F9347
:100FE000CF93DF93CDB7DEB7E3970FB6F894DEBFAC
:100FF0000FBECDBF7C011A012B0139010E941719C8
:101000004B015C0187010D5B1F4FC8010E94A113BA
:1010100018161906A4F00E941719DC01CB018819D3
:101020009909AA09BB09281639064A065B06D8F0B1
:1010300062E370E080E090E00E94DF18E6CF42E2D9
:1010400050E0BE016F5F7F4FC8010E945B13898132
:10105000823011F080E061C1F80184899589833480
:101060009105C1F702C08FEF58C16D817E818F81DC
:1010700098850E9489264B015C01F301608371838E
:101080008283938346E050E0B701685F7F4FCE01D3
:101090004D960E94C927892BE9F6F701808191813D
:1010A000A281B38188169906AA06BB0698F28481AC
:1010B0009581A681B78188159905AA05BB0550F2CF
:1010C00089899A89AB89BC8986879787A08BB18BE0
:1010D0008EECA82EB12CC8010E947913F1E0AF1A52
:1010E000B108C9F719A6670182E2C80ED11CF70141
:1010F000B696FBA7EAA7C7018A969DA78CA73C973F
:101100004F0189969FA78EA73897F9ABE8AB1701D7
:10111000F6E12F0E311CC5979BAB8AABF801818D90
:10112000928D181619060CF0F7C0C8010E947913A9
:101130008333910509F4CBC0FCF481309105C9F1EA
:101140001CF4892B59F3DCC083309105D1F106974B
:1011500009F0D6C0C8010E9479135C0144E050E058
:101160006AA97BA9C8010E945B13412C512CBB24A6
:10117000F4E0AF1AB10840C08A33910509F47BC08E
:101180003CF48533910569F0C69709F440C0B8C0B6
:101190008B33910509F485C08F3F910509F4BECFCB
:1011A000AFC0C8010E947913C8010E94791389A7B2
:1011B000B5CFC8010E94791344E050E068A979A92D
:1011C0003AC0C8010E9479135C0144E050E0B101CB
:1011D000C8010E945B13412C512CBB2494E0A91A36
:1011E000B1084A145B040CF099CFC8010E9479132E
:1011F000EFEF4E1A5E0AF5CF4A145B040CF08ECF67
:10120000C8010E9479138FEF481A580AF5CFC80118
:101210000E947913B82EF701828D811110C0838D41
:1012200081110DC0848D81110AC0858D811107C087
:1012300044E050E0B401C8010E945B136FCFEEA5FB
:10124000FFA54080518062807380B401CE018396F7
:101250000E9470188DA19EA1AFA1B8A58415950517
:10126000A605B70529F3BB2009F458CFC8010E9491
:101270007913BA94F8CFC8010E94791344E050E082
:101280006AA57BA5C8010E945B13F70166A177A13F
:1012900080A591A50E94892666A377A380A791A720
:1012A0003DCFC8010E94791344E050E06CA57DA5B4
:1012B000C8010E945B13F70162A573A584A595A5DB
:1012C0000E94892662A773A784A795A727CFC80184
:1012D0000E94791344E050E0B601C8010E945B13FC
:1012E000F70162A173A184A195A10E94892662A33E
:1012F00073A384A395A366A777A780AB91AB0ECF0A
:10130000C8010E947913B82EBB2009F407CFC80189
:101310000E947913BA94F8CF89A5E3960FB6F89492
:10132000DEBF0FBECDBFDF91CF911F910F91FF9018
:10133000EF90DF90CF90BF90AF909F908F907F9075
:101340006F905F904F903F902F9008957F928F9273
:101350009F92AF92BF92CF92DF92EF92FF920F9344
:101360001F93CF93DF93CDB7DEB7A6970FB6F89450
:10137000DEBF0FBECDBF8C01762E942E852E20E2CF
:10138000B22ECE0101967C01FC012B2D11922A95E3
:10139000E9F78FE194E09AA389A38FEF8BA38CA345
:1013A0008DA38EA3680183E4C80ED11C43E450E0F2
:1013B000BE016F5D7F4FC6010E94E71B019609F4D5
:1013C000BCC081E089838A8386E0A82EAB821C8220
:1013D000F80164817581868197810E9489266D83D9
:1013E0007E838F83988789869A8680E890E09C87A1
:1013F0008B874CE150E0B701C6010E94441AF70107
:101400002B2D11922A95E9F7480188E0880E911C4E
:10141000F401D70101900D92AA94E1F740E150E068
:10142000B701C6010E94441AF7011192BA94E9F774
:1014300096E0A92EB12C40E250E0B701C6010E940F
:10144000441AF1E0AF1AB108B1F783E6898392E854
:101450009A8393E59B838C8385E38D8381E08E83E0
:101460007F829DE3988797E099878A8786E0F401D9
:10147000DE011B9601900D928A95E1F78CE0898B35
:101480008A8B69E674E0CE0143960E94E727F80153
:101490004385BE01675E7F4FC801EAD6F8014485E7
:1014A000BE01655E7F4FC801E3D6F8014585BE01E8
:1014B000635E7F4FC801DCD64EE150E0B701C60144
:1014C0000E94441AF3E07F121EC082E3898384E005
:1014D0008A83F80196859B8397859C8390899D8359
:1014E00091899E8396E39F838887828D8987838DE8
:1014F0008A87848D8B87858D8C874CE050E0B7017F
:10150000C6010E94441A87E3898386E08A8391E0BA
:101510009B8393E09C838D838FE08E838AE38F830C
:101520008BE388878FEF898749E050E0B701C601D8
:101530000E94441AC6010E94A51BA6960FB6F894F5
:10154000DEBF0FBECDBFDF91CF911F910F91FF90F6
:10155000EF90DF90CF90BF90AF909F908F907F9053
:101560000895CF93DF93FC01A081B181109741F1E1
:10157000EC01ED91FC9111970488F589E02DCD01E6
:10158000199581111FC0FE01E556FF4F80819181A1
:10159000892BB1F48DEF9FEF9183808388819981AE
:1015A000DC01ED91FC910284F385E02D1995888191
:1015B0009981DC01ED91FC910288F389E02D199568
:1015C00080E001C081E0DF91CF910895C9010296CA
:1015D000DB01FD01E61BF70B2D91222331F0FA010F
:1015E000E80FF91F20830196F4CF9C012E1B3F0BBF
:1015F000420F531FDA011297FC931196EC93089552
:10160000AF92BF92CF92DF92EF92FF920F931F9310
:10161000CF93DF9300D01F92CDB7DEB77C01162F9A
:10162000D90180E09A2F9F77AA0FAB2FAA1FBB0B7F
:10163000B195109709F09068E1E0F0E0EC0FFD1F24
:10164000E80FF11D90838F5F109761F7E82FF0E0AE
:10165000BA016E1B7F0B6C5F7F4FDB011C93CE01C9
:1016600001965C0180E090E08E179F076CF4D50135
:10167000DD905D018C010E1B1F0B040F151FD8019F
:101680001596DC920196F0CFD7018D919C9189013E
:101690000F5F1F4F0E0F1F1FDC01ED91FC910280A9
:1016A000F381E02DA80119956C010E941719F7012B
:1016B000EC57FF4F608371838283938381E0C01670
:1016C000D10609F080E00F900F900F900F90DF91FE
:1016D000CF911F910F91FF90EF90DF90CF90BF902F
:1016E000AF9008952F923F924F925F926F927F92A8
:1016F0008F929F92AF92BF92CF92DF92EF92FF9222
:101700000F931F93CF93DF9300D01F92CDB7DEB717
:101710008C015B017C0142E0E40EF11CB7018CDB23
:10172000811129C025C05FEF451A550A8981D10171
:101730008D931D01682F6F7770E0669DF001679DA6
:10174000F00D769DF00D1124CE0EDF1E47E0660CE5
:10175000771C881C991C4A95D1F787FF1EC0BE01D3
:101760006F5F7F4FC8012C8367DB2C818111DBCF3A
:1017700080E090E09BC0D80112962C91198218014C
:10178000B3E02B0E311C44244394512CC12CD12C9A
:10179000612C712C43016394E2CF822F807F33242C
:1017A0003394803309F0312C8FEF840DF501808361
:1017B000332039F1B701640D751DC8013DDB882365
:1017C000B9F2B2016F5F7F4F6E0D7F1DC80134DB30
:1017D000882371F2F2E04F0E511CD5018C91F80173
:1017E000E80FF11D6380712C762C66248481680ECD
:1017F000711CF801828181FF08C0F2E06F0E711C3C
:1018000004C080E0612C712C01C082E0E82EF12C34
:10181000E418F508A80147565F4F5B834A832EEF13
:10182000822E99249A94C701840D951D8C159D05CF
:1018300080F5BE016F5F7F4FC801FEDA882309F48F
:1018400097CFAA81BB818D919C910097A9F03320FD
:1018500099F0F5012081A401421B51099A01240D40
:10186000351D6216730640F4DC01ED91FC91019088
:10187000F081E02D69811995B0E84B16510428F4E8
:101880008981F801E40DF51D8283EFEF4E1A5E0A9F
:10189000CACFF801E756FF4F80819181892B29F447
:1018A000F1E84F16510408F063CFC2010F900F907A
:1018B0000F900F90DF91CF911F910F91FF90EF90BC
:1018C000DF90CF90BF90AF909F908F907F906F9060
:1018D0005F904F903F902F9008951F93CF93DF9389
:1018E000EC01162F8F8580FF0BC0E881F981008401
:1018F000F185E02D20E144E060E070E0CE01199533
:10190000EB85FC852D853E85812F90E0E217F3075E
:1019100058F410832B853C852F5F3F4F3C872B87E6
:10192000DF91CF911F910895E881F981028CF38DA9
:10193000E02DBC01CE01DF91CF911F911994AF92A0
:10194000BF92CF92DF92EF92FF920F931F93CF93AC
:10195000DF9300D01F92CDB7DEB78C015B01C12CA5
:10196000D12C7601C216D306E406F506ACF4F501D7
:1019700061915F01C80129833A834B835C83ADDFAA
:1019800029813A814B815C81019649F06FEFC61A3B
:10199000D60AE60AF60AE6CFB901CA0102C0B601C4
:1019A000C7010F900F900F900F90DF91CF911F9173
:1019B0000F91FF90EF90DF90CF90BF90AF90089580
:1019C00008950895FB0120813181FC01318320833A
:1019D000FB0142815381F901369720813181FC015D
:1019E000E20FF31F51834083089525E034E0FC01AA
:1019F000318320832FE034E0358B248B65E174E064
:101A0000E1CFDC01ED91FC91369720813181820F8D
:101A1000931FEBCFCF93DF93EC01E7DFCE01DF9194
:101A2000CF910C942527DC01ED91FC913697208114
:101A30003181820F931FEECFDB012D913C911197E5
:101A4000FC0131832083F901369720813181FC012B
:101A5000E20FF31F12968D919C91139791838083CF
:101A600081E290E094838383548B438B1582158AA3
:101A700008950895CF93DF931F92CDB7DEB76983A2
:101A8000DC01ED91FC910280F381E02D41E050E01A
:101A9000BE016F5F7F4F19950F90DF91CF91089531
:101AA000DC01ED91FC91048CF58DE02D199591E010
:101AB00089270895862F089581E08627089508953F
:101AC0008CBD9DBD08958F929F92AF92BF92CF9291
:101AD000DF92EF92FF920F931F93CF936C015B0104
:101AE0007A01FC01C485C43041F481E090E0F60144
:101AF0009383828380E090E04AC08A01413058405D
:101B000010F000E018E080E590E0DADF8C2F0E9412
:101B1000661D4C0163E070E08C2F0E947F1B8731B3
:101B200011F08C3121F48016910668F302C000E0B8
:101B300010E080E590E0C4DF9801A50160E070E06E
:101B40008C2F0E94051D60E270E08C2F0E94931C78
:101B500062E070E08C2F0E947F1B84FD0EC063E06A
:101B600070E08C2F0E947F1B811103C08C2F40D608
:101B7000BCCF80E590E0A4DFEBCF40E162E070E015
:101B80008C2F0E94751B012B09F4AFCFC701CF9199
:101B90001F910F91FF90EF90DF90CF90BF90AF908B
:101BA0009F908F900895CF92DF92FF920F931F9393
:101BB000CF93DF93FC012485243009F073C06A01C0
:101BC000EB018C01F12C8F2DD4D6811103C0F801CB
:101BD000F48607C08B7F8831D1F3F394F4E0FF12D1
:101BE000F2CFF8018485843009F45CC020910002B2
:101BF000309101022F5F3F4F11F420E030EC309321
:101C0000010220930002409100025091010220E065
:101C100061E0FFD5F801F4848A818F3F51F48B8114
:101C20008F3F91F48C818F3F79F48D818F3F61F4E8
:101C300036C0811109C08B81811106C08C81811150
:101C400003C08D81882359F1C114D10441F180E58D
:101C500090E036DFBE016E5F7F4F8F2D90E0982FB2
:101C6000882744E050E0845F9B4F3CD4B6018F2D21
:101C70000E94D81B64E070E08F2D0E94931CC80165
:101C80000E94261C873189F061E070E080E090E0DE
:101C90000E94DF18C8010E94261C8111F0CF84E049
:101CA000F801848780E090E002C081E090E0DF915D
:101CB000CF911F910F91FF90DF90CF9008952F92B9
:101CC0003F924F925F926F927F928F929F92AF92CC
:101CD000BF92CF92DF92EF92FF920F931F93CF9319
:101CE000DF93CDB7DEB765970FB6F894DEBF0FBEB2
:101CF000CDBF7C016B013A01FB0120E080E090E068
:101D00006AE03191332309F140ED430F4A3080F40A
:101D1000689FA001699F500D1124CA01C097830FCD
:101D2000911D37FD9A958F3F910559F350F313C0DC
:101D30003E3289F4233079F0D301A20FB11D1296FF
:101D40008C932F5F80E090E0DCCF233021F4F3010F
:101D5000858381E021C0F7014281538164817581CF
:101D60008091D2059091D305A091D405B091D5056D
:101D7000481759076A077B0709F493C10E9417198E
:101D80008701085F1F4F6F7077277C5FC8010E9433
:101D9000001B813019F080E090E0DFC18FE194E01A
:101DA0009A838983F70182819381A481B5818B8392
:101DB0009C83AD83BE8345E350E0BE016F5F7F4FE0
:101DC000C8010E94E71B892B19F4C12CD12C64C1D6
:101DD0000E941719F701778366837627672776278E
:101DE0007A83698342E050E0BE016F5F7F4FC80194
:101DF0000E94441A81E090E09E878D8742E050E087
:101E0000BE01635F7F4FC8010E94441A80E091E0E9
:101E10009E878D8742E050E0BE01635F7F4FC8011F
:101E20000E94441A1E861D8642E050E0BE01635F98
:101E30007F4FC8010E94441A42E050E0BE01635F38
:101E40007F4FC8010E94441A42E050E0BE01635F28
:101E50007F4FC8010E94441A5601F50180818823F2
:101E600011F1F6015F018191811115C045018C18B6
:101E70009D081814190494F48F8641E050E0BE01C7
:101E8000615F7F4FC8010E94441AA401B601C801D6
:101E90000E94441A03C08E3229F7E8CF6501FFEF94
:101EA000CF1ADF0ADACF1F8641E050E0BE01615F42
:101EB0007F4FC8010E94441AC12CDD24D394DE86D2
:101EC000CD8642E050E0BE01635F7F4FC8010E94B3
:101ED000441ADE86CD8642E050E0BE01635F7F4F4C
:101EE000C8010E94441AC8010E94A51B892B09F44D
:101EF0006CCF63E0A62EB12CF2E06F0E711C0E9435
:101F000017191B012C01C8011CD418161906A4F0BE
:101F10000E941719DC01CB0182199309A409B509A4
:101F200089389341A105B105D0F462E370E080E007
:101F300090E00E94DF18E7CFF7014281538164816E
:101F40007581808D918DA28DB38D481759076A07D1
:101F50007B0741F4848D958DC59721F406C02FEF42
:101F60003FEF90C02EEF3FEF8DC0F70181A192A10E
:101F70000C970CF49CC04CE050E0BE016F5F7F4FAB
:101F8000C80199D38B8190E0982F88272C81822BD0
:101F90009A8B898B298130E0322F22274A81242B8A
:101FA000F701468157814217530709F07DC097FF1B
:101FB0007BC08F709270892B09F0CCC0CF80D12C60
:101FC000DC2CCC248885C82AC114D10409F4BFC0F4
:101FD000812C912C8D8190E0982F88272E81822B47
:101FE0008816990608F466C0812C912C41E050E0D7
:101FF000BE016D5E7F4FC8015ED38B89982F907CA8
:1020000009F084C0811178C08B898111EFCF42E043
:1020100050E0BE01615F7F4FC8014DD342E050E008
:10202000BE01635F7F4FC80146D3C80162D3C801B8
:1020300060D3C8015ED3C8015CD342E050E0BE016A
:102040006F5E7F4FC80137D38F8598898115914086
:1020500009F060C02D853E853227232732272130A5
:10206000310509F057C089899A898115944009F092
:102070006BC044E050E0B301C8012C8B3D8B1BD3F7
:102080002C893D896901F1E0AF1AB10829F02FEFE1
:10209000C216D20609F433CFC8010E94EC1AC60159
:1020A0005CC08EEF9FEF59C02CEF3FEFEBCF2DEFD1
:1020B0003FEFE8CF41E050E0BE01635F7F4FC801D2
:1020C000FAD28D8581110FC08D858111F3CFC801A2
:1020D00010D3C8010ED3C8010CD3C8010AD3FFEF37
:1020E0008F1A9F0A77CF8D859FEF980F9D87882342
:1020F00059F3C801FED2F7CF8B899FEF980F9B8BC6
:10210000882309F481CFC801F4D2F6CFC801F1D2F7
:102110001B8A7ACF412C512C89899A899827892743
:1021200098274816590630F4C801E3D28FEF481AB1
:10213000580AF2CFEFEF8E1A9E0A8C149D0409F014
:1021400055CF26EF3FEF9ECF27EF3FEF9BCF2AEFF4
:102150003FEF98CF2BEF3FEF95CF65960FB6F894F2
:10216000DEBF0FBECDBFDF91CF911F910F91FF90CA
:10217000EF90DF90CF90BF90AF909F908F907F9027
:102180006F905F904F903F902F900895CF92DF9285
:10219000EF92FF920F931F93CF93DF93CDB7DEB7EC
:1021A000AF970FB6F894DEBF0FBECDBF7C016A01BA
:1021B0000FE114E01A8309831C861B8688EE93E0E6
:1021C000A0E0B0E08D879E87AF87B88B87E692E06E
:1021D0009A878987188F0F8B198E1A8E1B8E1C8EEB
:1021E00084E089A31DA30CA31EA21FA218A619A6F2
:1021F0008091CA059091CB05A091CC05B091CD05F9
:102200008CA79DA7AEA7BFA78B839C83AD83BE83FE
:1022100018861F82AE014C5D5F4FCE0101964FDDE7
:1022200081309105B1F4D701ED91FC910484F585DD
:10223000E02D1BA70AA78EA19FA1A8A5B9A58CA7D1
:102240009DA7AEA7BFA7A601BE01665D7F4FC701D0
:102250001995AF960FB6F894DEBF0FBECDBFDF91D4
:10226000CF911F910F91FF90EF90DF90CF90089545
:1022700080E3FB0180833296842F82958F7090E1FA
:10228000899F401911244A3014F4405D01C0495C13
:102290004293482F8111F0CF08950895CF93DF9393
:1022A0008091750490917604E0917104F09172042C
:1022B000892B71F10280F381E02DF0937204E09399
:1022C00071040190F081E02DC481D581209731F017
:1022D000CE010E94FF02CE010E942527E0917104E9
:1022E000F091720480819181009711F00E9425275E
:1022F000E0917104F0917204118210828091750452
:102300009091760401979093760480937504C8CFDA
:10231000C481D581209731F0CE010E94FF02CE0109
:102320000E9425278091710490917204009721F0FA
:10233000DF91CF910C942527DF91CF9108951F93C2
:10234000CF93DF93182F66E270E00E947F1BC82FA7
:10235000D0E067E270E0812F0E947F1BDC2FCC274A
:102360009E01282BC901DF91CF911F910895CF9233
:10237000DF92EF92FF920F931F93FB01DC0100E0CD
:1023800010E098016A01E12CF12C0C151D052E05B9
:102390003F0538F461916D930F5F1F4F2F4F3F4FF3
:1023A000F4CF840F951F1F910F91FF90EF90DF9056
:1023B000CF900895AF92BF92CF92DF92EF92FF92AB
:1023C0000F931F93CF93DF931F92CDB7DEB78C018E
:1023D0006B017A01590188E090E0F80193838283D0
:1023E000158214820E949026F80191838083F60161
:1023F000848195818E159F0510F40E94BD27198256
:10240000BC016E197F09A616B70608F4B501AE0126
:102410004F5F5F4FC8010E946702F80144815581F8
:10242000F601608171816E0D7F1DF80180819181BF
:102430009EDF0F90DF91CF911F910F91FF90EF9052
:10244000DF90CF90BF90AF9008952C9A08952C986C
:1024500008951F93CF93DF93182F60E270E00E94DE
:102460007F1BC82FD0E061E270E0812F0E947F1BAC
:10247000DC2FCC279E01282BC901DF91CF911F9122
:1024800008958EBD00000DB407FEFDCF8EB50895F2
:10249000CF92DF92EF92FF920F931F93CF93DF9330
:1024A000EC017A018B016C01C40ED51ECC15DD0543
:1024B00079F0CDDF8FE0E5DF8D2FE3DF8C2FE1DFDB
:1024C000219680E0DEDFF80181938F01BEDFEECF41
:1024D000C701DF91CF911F910F91FF90EF90DF9097
:1024E000CF900895CF92DF92EF92FF920F931F93B8
:1024F000CF93DF93EC017A018B016C01C40ED51EE2
:10250000CC15DD0571F0A3DF80EFBBDF8D2FB9DFC8
:102510008C2FB7DF2196F80181918F01B2DF95DF13
:10252000EFCFC701DF91CF911F910F91FF90EF90F7
:10253000DF90CF9008951F93CF93DF931F921F9248
:10254000CDB7DEB7182F6A83998381DF80EF99DFDB
:102550009981892F96DF812F94DF6A81862F91DF01
:1025600074DF81E00F900F90DF91CF911F9108955C
:102570001F93CF93DF931F921F92CDB7DEB7182F13
:1025800080E590E069837A839BDA21E041E050E0C6
:1025900069817A81812F0E94A11C91DA81E090E00B
:1025A0000F900F90DF91CF911F910895CF93DF93FC
:1025B0001F92CDB7DEB7FC01218D328D232B41F068
:1025C000BE016F5F7F4F808DD3DF898190E002C0B5
:1025D0008FEF9FEF0F90DF91CF910895FF920F93B0
:1025E0001F93CF93DF93F82E80E590E069DAC0E087
:1025F000D0E08F2DA4DE8C01892B19F08F2D9FDE6A
:10260000EC01C017D107A9F75ADACE01DF91CF91BB
:102610001F910F91FF900895AF92BF92CF92DF92DA
:10262000EF92FF921F93CF93DF93182F5B017A01F4
:1026300080E590E045DAC0E0D0E0812F80DE6C01DB
:10264000892B19F0812F7BDEEC01CC15DD05A9F774
:10265000209799F463E070E0812F0E947F1B843102
:10266000F1F08823E1F0C1E0D0E08C3111F4C0E05A
:10267000D0E0D195C195D10912C0EC16FD060CF43D
:10268000E7011C161D065CF420E0AE01B501812FA8
:102690000E94A11C60E470E0812F0E94931C0FDA5D
:1026A000CE01DF91CF911F91FF90EF90DF90CF90FF
:1026B000BF90AF900895CF93DF93FC01218D328DB1
:1026C0002115310519F48FEF9FEF10C0EC0142176F
:1026D000530708F0A901888D9FDF181619069CF78B
:1026E000298D3A8D281B390B3A8F298FDF91CF9195
:1026F00008950F931F93CF93DF931F92CDB7DEB74B
:10270000FC01218D328D232B59F08C0141E050E0EA
:10271000BE016F5F7F4F808D7FDF181619061CF09A
:102720008FEF9FEF08C0F801818D928D0197928FF6
:10273000818F898190E00F90DF91CF911F910F9150
:1027400008950F931F93CF93DF93CDB7DEB72897EC
:102750000FB6F894DEBF0FBECDBF8C01F801818D9E
:10276000928D892B49F0D801ED91FC910680F7817B
:10277000E02DC8011995F2CF808D30DF18161906AB
:1027800054F548E050E0BE016F5F7F4FD801589686
:102790008C9142DF9C0118161906DCF489819A811C
:1027A000AB81BC81F801808B918BA28BB38B8D8127
:1027B00090E0982F88272E81820F911D958B848B16
:1027C0002F8130E0322F22278885280F311D328F4C
:1027D000218FC90102C080E090E028960FB6F894DE
:1027E000DEBF0FBECDBFDF91CF911F910F91089536
:1027F000CF93C82F80E590E063D960E170E08C2F23
:102800000E94931C4FEF62E070E08C2F6ED7CF9147
:1028100056C9FF920F931F93CF93DF931F921F927E
:10282000CDB7DEB7F82E8A012A836983E1DF80E520
:1028300090E046D92A816981462F422B60E070E002
:102840008F2D53D70115110551F40091A505109155
:10285000A6050F5F1F4F1093A6050093A505412FF6
:1028600064E070E08F2D41D7402F65E070E08F2D40
:102870003CD761E070E08F2D0E94931C20D981E04D
:102880000F900F90DF91CF911F910F91FF900895BE
:10289000BF92CF92DF92EF92FF920F931F93CF934D
:1028A000DF9300D000D0CDB7DEB7FC01208D2430FF
:1028B00009F04EC06A017B018C01B12C63E070E02D
:1028C0008B2D1DD7811103C0F801B08E06C0883151
:1028D000D9F3B394F4E0BF12F1CFF801808D8430C6
:1028E000B9F196E0E1E0F3E0DE01119601900D927E
:1028F0009A95E1F7F70193819F779C8394819D835B
:1029000095819E83B7016E5F7F4F90E0982F882757
:1029100044E050E0845F9B4FE5DDB601F801808D17
:1029200047D7F801808D90E0982F882746E050E047
:10293000BE016F5F7F4F8A5F9B4FD4DDF801128E1F
:10294000118E20E8A60162E0808D63DF81E001C086
:1029500080E026960FB6F894DEBF0FBECDBFDF91A4
:10296000CF911F910F91FF90EF90DF90CF90BF908C
:1029700008951F93CF93DF931F92CDB7DEB7182F23
:1029800080E590E09DD863E070E0812FB8D6898320
:1029900096D889810F90DF91CF911F910895FC0106
:1029A000918D828D981761F0828DDF01A80FB11D86
:1029B0005D968C91928D9F5F9F73928F90E00895AA
:1029C0008FEF9FEF0895FC01918D828D981731F064
:1029D000828DE80FF11D858D90E008958FEF9FEFB8
:1029E0000895FC01918D228D892F90E0805C9F4F8E
:1029F000821B91098F739927089586ED95E0F1DF89
:102A000021E0892B09F420E0822F0895FC01848DB8
:102A1000DF01A80FB11DA35ABF4F2C91848D90E008
:102A200001968F739927848FA689B7892C93A089E3
:102A3000B1898C9180648C93938D848D981306C09A
:102A40000288F389E02D80818F7D80830895EF9245
:102A5000FF920F931F93CF93DF93EC0181E0888F58
:102A60009B8D8C8D981305C0E889F989808185FD3F
:102A700023C0F62E0B8D10E00F5F1F4F0F73112731
:102A8000E02E8C8DE8120BC00FB607FCFACFE88958
:102A9000F989808185FFF5CFCE01B8DFF2CF8B8D2C
:102AA000FE01E80FF11DE35AFF4FF0820B8FEA8918
:102AB000FB898081806207C0EE89FF896083E88995
:102AC000F98980818064808381E090E0DF91CF91FB
:102AD0001F910F91FF90EF900895CF93DF93EC013A
:102AE000888D8823C1F0EA89FB89808185FD05C036
:102AF000A889B9898C9186FD0EC00FB607FCF5CF69
:102B0000808185FFF2CFA889B9898C9185FFEDCFAF
:102B1000CE017CDFE8CFDF91CF91089580E090E097
:102B2000892B19F06ADF811125C080E090E0892BA4
:102B300041F080E090E0892B21F00E94000081119B
:102B40001CC080E090E0892B41F080E090E0892B70
:102B500021F00E940000811113C080E090E0892BD9
:102B6000A1F080E090E0892B81F00E9400008111AB
:102B70000AC008950E940000D8CF0E940000E1CF53
:102B80000E940000EACF0C94000008953FB7F8942B
:102B90008091AC059091AD05A091AE05B091AF05C7
:102BA00026B5A89B05C02F3F19F00196A11DB11DA8
:102BB0003FBFBA2FA92F982F8827820F911DA11DE3
:102BC000B11DBC01CD0142E0660F771F881F991F20
:102BD0004A95D1F70895FC018789908D009769F196
:102BE000248935892817390718F4308F278B25C099
:102BF00001976F3F2FEF720729F4908F878B80E04A
:102C000090E00895A089B1899B01215031092F3F9F
:102C1000310548F4262FA80FB91F3C91231305C096
:102C2000908F878B08C020E0F6CF278524FF05C052
:102C3000908F878B6C93CB0108958FEF9FEF089552
:102C4000CF93DF93EC01E881F9810288F389E02DCD
:102C500019958F3F2FEF920731F02F89388D2F5F15
:102C60003F4F388F2F8BDF91CF910895FC0127893B
:102C7000308D848995892817390740F48089918996
:102C8000FC01E20FF31F808190E008958FEF9FEF2A
:102C90000895EF92FF92CF93DF93FC01DB0160E098
:102CA00070E0CB01E788F08CC489D589EC16FD066D
:102CB000A8F4621773078407950784F4C089D18943
:102CC000CE0DDF1DC881CD936F5F7F4F8F4F9F4F1C
:102CD000C789D08D2196D08FC78BE4CFDF91CF915C
:102CE000FF90EF900895FC01848995892789308DA4
:102CF000821B930B089580E090E00895242FDC015F
:102D0000ED91FC910084F185E02D41E01994089546
:102D10008F929F92AF92BF92CF92DF92EF92FF92EB
:102D20000F931F93CF93DF937C018B016C0182E0A3
:102D3000C80ED11C4701E5E08E0E911CC0E0D0E02A
:102D4000F60141916F0150E060E070E02AE0C801B7
:102D5000F8D65C016EE2C80150D78A0D9B1DC80FE2
:102D6000D91FC814D90461F7F701458150E060E02C
:102D700070E02AE0C801E5D68C0F9D1FDF91CF914E
:102D80001F910F91FF90EF90DF90CF90BF90AF9089
:102D90009F908F9008950E94BD27EF92FF920F930E
:102DA0001F93CF93DF931F92CDB7DEB78C017B01CA
:102DB0006F3F7F4F19F480E090E028C0F8018785CD
:102DC00084FF22C0F801818D928D648975898617F0
:102DD000970758F0E9826F5F7F4FAE014F5F5F4FFB
:102DE000C80140960E94670207C0F8012089318916
:102DF000F901E80FF91FE082F801818D928D0196AB
:102E0000928F818FC70102C08FEF9FEF0F90DF91EC
:102E1000CF911F910F91FF90EF900895EF92FF9245
:102E20000F931F93CF93DF931F92CDB7DEB7FC01B3
:102E3000922F9870822F80712871283119F44230B6
:102E4000A9F43BC0413011F48B0116C0423081F42B
:102E5000882329F004891589060F171F02C000E096
:102E600010E0992349F00789108D04C0413061F3C7
:102E700004891589060F171F248935892017310702
:102E8000E0F0992311F0108F078B8823A1F07F01C8
:102E90001982AE014F5F5F4FB801CF0140960E948B
:102EA0006702F701848995892789308D82179307F6
:102EB00010F4908F878BC80102C08FEF9FEF0F90A7
:102EC000DF91CF911F910F91FF90EF9008952FE523
:102ED00033E0FC013183208340960C94FF022F9253
:102EE0003F924F925F926F927F928F929F92AF929A
:102EF000BF92CF92DF92EF92FF920F931F93CF93E7
:102F0000DF93CDB7DEB72C970FB6F894DEBF0FBEB8
:102F1000CDBF6C0129013A01FC01A18CB28C9E014C
:102F2000265F3F4FA201CE0101960E94C302F60127
:102F3000E488F588EA14FB0410F40E94BD27970189
:102F40002A193B0982012415350508F489018D8071
:102F50009E80E01AF10AC40180959095E816F90662
:102F600060F7E80CF91CC60140961C01081519050C
:102F700058F41886AE01485F5F4FB7012B873C8736
:102F80000E9467023C852B85F60180899189A90101
:102F9000401B510BB8016A0D7B1D680F791FF401AE
:102FA000EA0DFB1D8E0F9F1F0E94D62769817A8133
:102FB000F60180899189A4018A0D9B1DD8D91986B3
:102FC000AE01475F5F4FB701C1010E946702CE01AA
:102FD00001960E94FF02F601818D928D840D951D50
:102FE000928F818FC301B2012C960FB6F894DEBF89
:102FF0000FBECDBFDF91CF911F910F91FF90EF904A
:10300000DF90CF90BF90AF909F908F907F906F9008
:103010005F904F903F902F900895089508950C94DD
:103020002527DC01ED91FC91369720813181820FBB
:10303000931FF5CFFB0120813181FC013183208377
:10304000FB0142815381F901369720813181FC01D6
:10305000E20FF31F518340830895CF93DF93EC0178
:1030600036DFCE01DF91CF910C942527CF93DF93EC
:10307000EC0183E493E09983888387E593E0998763
:1030800088878DE493E09F838E8365E373E0CE01B0
:1030900006960E94E20C61E373E0CE01DF91CF91CE
:1030A000C9CF0697E3CFDC01ED91FC9136972081E3
:1030B0003181820F931FDACFCF93DF93EC01D6DFFC
:1030C000CE01DF91CF910C9425270697F5CFDC0137
:1030D000ED91FC91369720813181820F931FECCFC7
:1030E0002FE134E0FC0131832083FB0140815181D9
:1030F00062817381FC0142835383648375830895E5
:103100001F920F920FB60F9211240BB60F922F93AE
:103110003F934F935F936F937F938F939F93AF935F
:10312000BF93EF93FF9386ED95E070DCFF91EF91F5
:10313000BF91AF919F918F917F916F915F914F91CF
:103140003F912F910F900BBE0F900FBE0F901F90CD
:1031500018951F920F920FB60F9211240BB60F9273
:103160002F938F939F93EF93FF93E091E605F09158
:10317000E7058081E091EC05F091ED0582FD12C03C
:1031800090818091EF058F5F8F732091F0058217FA
:1031900051F0E091EF05F0E0EA52FA4F958F8093FD
:1031A000EF0501C08081FF91EF919F918F912F9149
:1031B0000F900BBE0F900FBE0F901F9018958F921F
:1031C0009F92AF92BF92CF92DF92EF92FF926B01EC
:1031D0007C01DCDC4B015C01C114D104E104F1048D
:1031E000E9F0D4DCDC01CB0188199909AA09BB09F3
:1031F000883E9340A105B10578F321E0C21AD108B9
:10320000E108F10888EE880E83E0981EA11CB11C2D
:10321000C114D104E104F10421F7DECFFF90EF9057
:10322000DF90CF90BF90AF909F908F9008952FB771
:10323000F8946091A8057091A9058091AA059091D4
:10324000AB052FBF08951F920F920FB60F92112456
:103250002F933F938F939F93AF93BF938091A80534
:103260009091A905A091AA05B091AB053091A70551
:1032700023E0230F2D3720F40196A11DB11D05C0B9
:1032800026E8230F0296A11DB11D2093A705809368
:10329000A8059093A905A093AA05B093AB058091CA
:1032A000AC059091AD05A091AE05B091AF0501962A
:1032B000A11DB11D8093AC059093AD05A093AE0503
:1032C000B093AF05BF91AF919F918F913F912F9197
:1032D0000F900FBE0F901F901895DC0113968D91E3
:1032E0009C911497892B59F01596ED91FC911697A6
:1032F00017968D919C911897E817F90741F4ED9175
:10330000FC9111970488F589E02DCD0119948191E4
:103310001696FC93EE93159790E00895DC011396B2
:103320008D919C911497892B59F01596ED91FC91F4
:10333000169717968D919C911897E817F90741F405
:10334000ED91FC9111970288F389E02DCD0119943C
:10335000808190E00895DB012D913C911197FC0153
:1033600031832083F90136970190F081E02DE80F39
:10337000F91F12962D913C91139731832083DC0124
:1033800012961D921D921D921C92159781E290E05B
:1033900094838383548B438B1582158A08950F93EE
:1033A0001F93CF93DF938C01EB0188819981F80102
:1033B000918380832A853B85FC0136970190F081BB
:1033C000E02DE00FF11F318320838C859D85F8016E
:1033D000978386836A5F7F4FC80106960E94E20C3E
:1033E000BE016E5F7F4FC801DF91CF911F910F919A
:1033F00021CECF93DF931F92CDB7DEB76983DC0177
:10340000ED91FC910280F381E02D41E050E0BE019E
:103410006F5F7F4F19950F90DF91CF910895FC0159
:10342000818D928D0895FC018489958908952FE1FD
:1034300034E0FC0131832083FB014089518962899A
:103440007389FC0142835383648375830895DC018F
:10345000ED91FC91028CF38DE02D199480E008959C
:10346000FC019485FB018485981303C081E09430AE
:1034700009F480E0089521E0FC018485843009F49A
:1034800020E0822F08950895AF92BF92CF92DF92ED
:10349000FF920F931F93CF93DF938C015B01EA019F
:1034A000FC01C688D788F08C80E590E00E94600D12
:1034B0008F2D0CD38C179D0718F48F2D07D3EC019B
:1034C0009E01A501B6018F2DA0D20E945F0DF801CB
:1034D000868997898C0F9D1F978B868BCE01DF91F4
:1034E000CF911F910F91FF90DF90CF90BF90AF9041
:1034F0000895CF92DF92EF92FF920F931F93CF9395
:10350000DF93CDB7DEB7AF970FB6F894DEBF0FBE2F
:10351000CDBF7C016A010FE114E01A8309831C8688
:103520001B8688EE93E0A0E0B0E08D879E87AF8792
:10353000B88B87E692E09A878987188F0F8B198E50
:103540001A8E1B8E1C8E84E089A31DA30CA31EA2C1
:103550001FA218A619A68091CA059091CB05A0912B
:10356000CC05B091CD058CA79DA7AEA7BFA78B8337
:103570009C83AD83BE8318861F82AE014C5D5F4F76
:10358000CE0101960E945F0E81309105B1F4D70102
:10359000ED91FC910288F389E02D1BA70AA78EA16B
:1035A0009FA1A8A5B9A58CA79DA7AEA7BFA7A60157
:1035B000BE01665D7F4FC7011995AF960FB6F894AF
:1035C000DEBF0FBECDBFDF91CF911F910F91FF9056
:1035D000EF90DF90CF900895CF93DF93EC01888D2B
:1035E000843059F005D9E88DF0E0EE0FFF1FE0556B
:1035F000FA4F1182108284E0888FDF91CF91089575
:10360000EF92FF921F93CF93DF93FC01208D243024
:1036100011F080E01AC07B01EC0110E0812FA9D9E4
:10362000811102C0188F05C08831E1F31F5F14308B
:10363000A9F7888D843069F3FD86EC861A8E198E81
:1036400020E0A70162E0E5D881E0DF91CF911F91F2
:10365000FF90EF9008950F931F93CF93DF931F92E6
:10366000CDB7DEB78C01DC01ED91FC910480F581D2
:10367000E02D1995892B51F0BE016F5F7F4FF80146
:1036800084850E94B812898190E002C08FEF9FEF7D
:103690000F90DF91CF911F910F910895FC018485C8
:1036A0000C940C13CF93DF931F92CDB7DEB741E09C
:1036B00050E0BE016F5F7F4FFC0184850E940C13B8
:1036C000181619061CF4898190E002C08FEF9FEF55
:1036D0000F90DF91CF910895FC018485843011F023
:1036E0000C94EE1280E090E008959B0190E0049627
:1036F000982F8827642F820F931F0C949B120F938F
:103700001F93CF93DF931F92CDB7DEB790E004965F
:10371000982F88278C01060F171F0E9427128FE011
:103720000E944112812F0E944112802F0E9441125B
:1037300080E00E94411289830E94251289810F90A6
:10374000DF91CF911F910F910895CF93FC01C08D10
:1037500080E590E00E94600D60E270E08C2FE3D085
:1037600062E070E08C2FCBDF84FD17C062E070E078
:103770008C2FC5DF83FF0AC048E162E070E08C2F28
:10378000B4DF0E945F0D80E090E010C00E945F0DEA
:1037900080E590E00E94600DE3CF40E162E070E0E0
:1037A0008C2FA3DF0E945F0D81E090E0CF91089500
:1037B000CF93DF93C82FD62F472F60E170E095DFBE
:1037C0004D2F61E170E08C2FDF91CF918ECFFF9272
:1037D0000F931F93CF93DF93FB01DC0157961C924D
:1037E0001E9256975896FC908281811109C0838160
:1037F000811106C08481811103C085818823F1F085
:1038000041155105D9F08A01EF0180E590E00E9451
:10381000600DBE016E5F7F4F2F2D30E0922F882705
:1038200044E050E0845F9B4F0E947212B8018F2DDC
:10383000BFDF0E945F0D81E090E002C080E090E079
:10384000DF91CF911F910F91FF900895FC01848526
:10385000843009F08EC880E00895CF93DF93FC0197
:1038600024852430C9F0EC01F1DF843181F0882314
:1038700071F0883161F08C3161F4E881F981048064
:10388000F581E02DCE01199521E0892B19F420E076
:1038900001C021E0822F01C080E0DF91CF91089527
:1038A000CF92DF92EF92FF921F93CF93DF93FC01B1
:1038B0001485143081F1EC0180E590E00E94600DE8
:1038C00068E070E0812F2FD00E945F0DB0DC6B01AB
:1038D0007C01CE01BBDF8823A1F061E070E080E0D5
:1038E00090E06DDCA4DCDC01CB018C199D09AE09F4
:1038F000BF09883E9340A105B10558F38C850E940D
:10390000F813EC85F0E0EE0FFF1FE055FA4F11823F
:10391000108284E08C87DF91CF911F91FF90EF9010
:10392000DF90CF900895CF93C82F462F61E070E0CD
:10393000DCDE61E070E08C2FE2DE8111FACFCF9106
:1039400008958F929F92AF92BF92CF92DF92EF92A3
:10395000FF920F931F93CF93DF93B82E4B018A01F1
:10396000A22E68E270E0CBDEC82FD0E069E270E002
:103970008B2DC5DEDC2FCC27C82B9E013770CB2CBE
:10398000D12CC601880F991FAC0140545A4F6A01CF
:10399000FA0180819181820F931FA801420F531F6A
:1039A0004130584098F060E078E07B01E21AF30A79
:1039B000A701B4010E944812A8014E195F09B40181
:1039C0006E0D7F1DF6018081918102C0A801B401B6
:1039D0000E944812A1100CC0C00FD11F4D2F68E2E9
:1039E00070E08B2D82DE4C2F69E270E08B2D7DDE46
:1039F000DF91CF911F910F91FF90EF90DF90CF90CB
:103A0000BF90AF909F908F9008959F92AF92BF927A
:103A1000CF92DF92EF92FF920F931F93CF93DF939A
:103A2000982E8B015A01690164E270E068DEE82E8D
:103A3000F12C65E270E0892D62DEFE2CEE24E82A8E
:103A4000E701C00FD11F9E013770E92CF12CC7018F
:103A5000880F991FAC0148545A4F7A01FA018081AE
:103A60009181820F931FA9014C0D5D1D413058407B
:103A700090F000E018E0021B130BA801B5010E94B2
:103A80007212A601401B510BB501600F711FF701A7
:103A90008081918102C0A601B5010E947212CC0DF5
:103AA000DD1D4D2F64E270E0892D1FDE4C2F65E295
:103AB00070E0892DDF91CF911F910F91FF90EF90D2
:103AC000DF90CF90BF90AF909F900FCEFF920F935B
:103AD0001F93CF93DF93F82EC0E0D0E08F2D0E948C
:103AE00029128C01892B21F08F2D0E942912EC01C3
:103AF000C017D10799F7CE01DF91CF911F910F9198
:103B0000FF90089590E0FC01E853FE4F2491FC01E2
:103B1000EE57FE4F8491882399F090E0880F991F0B
:103B2000FC01E859FE4FA591B491FC01E25BFE4F08
:103B3000859194918FB7F894EC91E22BEC938FBF21
:103B400008954F925F926F927F92EF92FF920F9340
:103B50001F93CF93DF93CDB7DEB7A1970FB6F8943D
:103B6000DEBF0FBECDBF7C01FA01CB0119A222300E
:103B700008F42AE08E010F5D1F4F422E512C612C5C
:103B8000712CBF01A30192010E945026F901CA01C4
:103B9000015011096A3014F4605D01C0695CD801FC
:103BA0006C93232B242B252B61F70115110591F024
:103BB000F80101900020E9F73197AF01401B510B4C
:103BC000D701ED91FC910280F381E02DB801C7018E
:103BD000199502C080E090E0A1960FB6F894DEBF80
:103BE0000FBECDBFDF91CF911F910F91FF90EF904E
:103BF0007F906F905F904F900895DC01ED91FC9164
:103C00000190F081E02D1994CF92DF92EF92FF9214
:103C10000F931F93CF93DF936C017A018B01C0E068
:103C2000D0E0CE15DF0589F0D8016D918D01D60168
:103C3000ED91FC910190F081E02DC6011995892B41
:103C400011F47E0102C02196ECCFC701DF91CF9124
:103C50001F910F91FF90EF90DF90CF900895CF9339
:103C6000DF93CDB7DEB72D970FB6F894DEBF0FBE4A
:103C7000CDBF789484B5826084BD84B5816084BDF5
:103C800085B5826085BD85B5816085BD80916E00FA
:103C9000816080936E00109281008091810082602B
:103CA0008093810080918100816080938100809168
:103CB00080008160809380008091B1008460809357
:103CC000B1008091B00081608093B000809191003C
:103CD0008260809391008091910081608093910037
:103CE000809190008160809390008091A10082601B
:103CF0008093A1008091A10081608093A1008091B8
:103D0000A00081608093A000809121018260809357
:103D10002101809121018160809321018091200106
:103D200081608093200180917A00846080937A0082
:103D300080917A00826080937A0080917A0081601D
:103D400080937A0080917A00806880937A00109244
:103D5000C100E091E605F091E70582E08083E09103
:103D6000E205F091E3051082E091E405F091E505AC
:103D700080E180831092EE05E091EA05F091EB0579
:103D800086E08083E091E805F091E905808180611B
:103D90008083E091E805F091E90580818860808367
:103DA000E091E805F091E905808180688083E091E9
:103DB000E805F091E90580818F7D8083E8EE8E2E05
:103DC000E3E09E2EA12CB12C9E01285F3F4F3A8745
:103DD000298780917A04811127C01092760410926D
:103DE000750486E090E09CD7FC011182108213825A
:103DF00012821582148290937204809371049093BE
:103E00007404809373044EE152E05093790440931C
:103E1000780467E274E083E796E00E941D030E9445
:103E2000040381E080937A048091360581115AC0A1
:103E300086E0ECE0F2E0A2E8B4E001900D928A9511
:103E4000E1F730EC3093880428EA2093890481E07C
:103E500080938A0499EC90938B0410928F041092B3
:103E60008E048092900490929104A0929204B09259
:103E70009304ADE1B2E0B0938D04A0938C0444E0D0
:103E800040939804EFE1F4E0F0932905E0932805CE
:103E90004FEF5FEF509335054093340530932A057B
:103EA00020932B0580932C0590932D052BE537E06F
:103EB000309331052093300510922F0510922E0576
:103EC00027ED33E030932705209326052CE834E0D6
:103ED00030939A042093990410923305109232057E
:103EE0008093360589E994E00E94B10A882309F499
:103EF00021C189E994E00E94B10A882309F43CC5F4
:103F000096D92B013C018091210590912205A09129
:103F10002305B0912405A3019201281B390B4A0BFC
:103F20005B0BDA01C90189399A43A105B105A8F4EF
:103F300080911D0590911E05A0911F05B09120054F
:103F4000A3019201281B390B4A0B5B0BDA01C90153
:103F500089399A43A105B10590F1209125058091F9
:103F6000990490919A04222339F02CEF3FEF30937B
:103F70003505209334059FC420EC20939B041092B8
:103F80009C04DC01ED91FC910280F381E02D42E084
:103F900050E06BE974E0199540921D0550921E05A2
:103FA00060921F05709220054092210550922205D3
:103FB000609223057092240581E08093250580910D
:103FC000990490919A04DC01ED91FC910480F581B3
:103FD000E02D1995892B09F4CFC4BE016F5F7F4F87
:103FE00089E994E00E94720B1C01892B09F4C4C476
:103FF000409221055092220560922305709224057B
:1040000080919B04807F803309F077C080912605E2
:1040100090912705892B09F4AFC4E980F12CF701B1
:10402000EE57FB4F028D10E0102F0027838D080FF5
:10403000111D970123563B4F3C872B87B7016256D2
:104040007B4FA801C901B2D798012E0D3F1DF90180
:10405000EE57FB4F138E80919B0486708D87A09145
:104060002605B09127058230C1F5C48CD12CDC2CFB
:10407000CC24858DC80ED11C4BEF5FEF4E195F0924
:10408000401B510B420D531DB90160567B4F8B8570
:104090009C85FD01199580E480939B042D852093D8
:1040A0009C04D0929D04C0929E04809199049091AA
:1040B0009A04DC01ED91FC910280F381E02D44E053
:1040C00050E06BE974E0199540921D0550921E0571
:1040D00060921F05709220054FC44DEF5FEF4E199F
:1040E0005F09401B510B420D531DB90162567B4FB6
:1040F0008B859C85FD0119953FC4803CA9F480ED1A
:1041000080939B0410929C048091990490919A044E
:10411000DC01ED91FC910280F381E02D42E050E062
:104120006BE974E0199528C4803D09F025C410920C
:10413000250522C480919D05811126C01092850518
:10414000109284058092860590928705A09288053A
:10415000B092890587E692E090938305809382056B
:10416000EFE1F4E0F0939105E09390051092920551
:1041700010929305109294051092950584E0809317
:104180009A0581E080939D058FE395E09093CF059C
:104190008093CE056CE271E080E090E010D81FB70C
:1041A000F89480913E0581118FC087EB91E0FC016E
:1041B00054912DEF31E0F9014491E52FF0E0EE0F3D
:1041C000FF1FE859FE4FA591B4915C91452309F07A
:1041D0006FC0EDE3F1E04491F9012491FC01949169
:1041E000992309F465C0442309F454C050E0FA014E
:1041F0003197E231F10508F04DC08827EE58FF4FA6
:104200008F4F7FC5809180008F7707C0809180009D
:104210008F7D03C080918000877F809380003AC0AB
:1042200084B58F7702C084B58F7D84BD33C0809103
:10423000B0008F7703C08091B0008F7D8093B00075
:1042400029C0809190008F7707C0809190008F7D6A
:1042500003C080919000877F809390001BC0809165
:10426000A0008F7707C08091A0008F7D03C0809150
:10427000A000877F8093A0000DC0809120018F77E0
:1042800007C0809120018F7D03C080912001877F2E
:1042900080932001E92FF0E0EE0FFF1FE25BFE4F5D
:1042A000A591B4918FB7F8949C91292B2C938FBF33
:1042B00085E328DC8CB580618CBD8CB580648CBDB9
:1042C00084E320DC83E31EDC80913E058F5F8093D6
:1042D0003E051FBF249A80E590E00E94600D60E8D3
:1042E00080E090E00E949B1265E58BE190E00E94E7
:1042F0009B1265E58AE190E00E949B120E945F0D8F
:1043000080E090E49093B9058093B80580E090E652
:104310009093C1058093C00580E098E49093BB051D
:104320008093BA0580E098E69093C3058093C20518
:1043300080E090E59093BD058093BC0580E090E718
:104340009093C5058093C40580E098E59093BF05E0
:104350008093BE0580E098E79093C7058093C605DB
:1043600080E590E00E94600D46E050E062E874E075
:1043700089E090E00E9472122FE134E03A832983B1
:104380001B821C821D821E8244E050E0BE016D5FD4
:104390007F4F8FE090E00E9472120E945F0D0091AB
:1043A000CE051091CF05D80192961D921D921D92B7
:1043B0001C929597F80116A217A210A611A69A961C
:1043C0001D921D921D921C929D9726E930E040E0BF
:1043D00050E0D6962D933D934D935C93D99712AEB2
:1043E00013AE14AE15AE189686E0FD01282F11927B
:1043F0002A95E9F79801225F3F4F94E1F901119264
:104400009A95E9F7E2E8F4E001900D928A95E1F7D8
:104410001801F2E42F0E311CD1011C9209D42FECAB
:1044200037E040E050E010D4DC01CB010196A11D43
:10443000B11DF80184839583A683B783808391831C
:10444000A283B3836801F3E4CF0ED11CC601C4D8A4
:1044500064E470E0C601D4D8882309F48DC20E94B8
:1044600017192B013C01E12CF12C1B86D1018C91F9
:10447000833009F402C181111EC0F8018481958145
:10448000A681B7810196A11DB11D84839583A68362
:10449000B7830E9417196419750986099709A50140
:1044A0009401FED3A90161E0C8010E94A60981E040
:1044B000D1018C93C4C08430F1F4F80184819581DA
:1044C000A681B7810196A11DB11D84839583A68322
:1044D000B7830E9417196419750986099709A50100
:1044E0009401DED3A90163E0C8010E94A609E2E0BD
:1044F000D101EC93A4C0813061F5D801DA964D91D9
:104500005D916D917C91DD979E012F5F3F4FC801BA
:104510000E94E0078B87823009F091C089819A81DF
:10452000AB81BC81F80184839583A683B7830E9405
:1045300017196419750986099709A5019401B0D363
:10454000A90163E0C8010E94A609EB85D101EC93A3
:104550007CC0823009F073C0D801DA964D915D912C
:104560006D917C91DD979E012F5F3F4FC8010E94A6
:10457000E0078B87853009F05CC023E0F1012083E0
:10458000F80182A193A1A4A1B5A1892B8A2B8B2B21
:1045900041F424E833E040E050E022A333A344A3F5
:1045A00055A3F80186A197A1A0A5B1A5892B8A2BB7
:1045B0008B2B61F482A193A1A4A1B5A1B695A79577
:1045C0009795879586A397A3A0A7B1A7F80182A581
:1045D00093A5A4A5B5A5892B8A2B8B2BA9F482A121
:1045E00093A1A4A1B5A1AC01BD0123E07695679587
:1045F000579547952A95D1F7841B950BA60BB70BBA
:1046000082A793A7A4A7B5A7F80186A197A1A0A503
:10461000B1A586A797A7A0ABB1AB82A593A5A4A58A
:10462000B5A582AB93ABA4ABB5ABEE24E394F12C70
:104630000CC0FB85F63019F4D1011C9206C0BB8575
:10464000BF3F19F4F10110821B86F1E0EF16F1046F
:1046500009F40CCF0E941719DC01CB0184199509CC
:10466000A609B709F80126A937A940AD51AD281709
:1046700039074A075B0708F0F9CEC6010E94EC1A19
:10468000F80184819581A681B7810196A11DB11D94
:1046900084839583A683B7830E941719F801FE9639
:1046A0006083718382839383F1E0EF16F10409F054
:1046B00056C080E590E00E94600D6091CE0570913B
:1046C000CF05625F7F4FCE0101960E94701844E0D3
:1046D00050E0BE016D5F7F4F8FE090E00E9472124C
:1046E0006091CE057091CF056A5E7F4FCE01019635
:1046F0000E94701844E050E0BE016D5F7F4F81E082
:1047000090E00E9472126091CE057091CF056E5EAE
:104710007F4FCE0101960E94701844E050E0BE0128
:104720006D5F7F4F85E090E00E9472120E945F0DE6
:104730006091CE057091CF05625E7F4FCE010196EC
:104740000E9470188B819C81AD81BE818093CA05C7
:104750009093CB05A093CC05B093CD0503C0EF2873
:1047600009F40AC189E994E00E94B10A8111D2C01A
:1047700060912E0570912F058091990490919A0473
:104780004091300550913105DC01ED91FC916115AE
:10479000710521F00684F785E02D16C00484F585A7
:1047A000E02D2FE134E03A83298300912A0510910E
:1047B0002B0520912C0530912D050B831C832D8317
:1047C0003E83BE016F5F7F4F19958130910509F0DF
:1047D0009AC090931C0580931B0587E0E2E1F2E00C
:1047E000DE01119601900D928A95E1F7FE01319656
:1047F000A0EAB4E081918D9349855A85E417F507C5
:10480000C9F782E08093A7041092A8048FE08093F8
:10481000A9042FE030E04BE954E06AE374E089E951
:1048200094E00E94E60A9C01255031094BE954E0CE
:1048300060E189E994E00E94000B0E9417196093DF
:104840001D0570931E0580931F05909320056093AE
:104850002105709322058093230590932405809170
:10486000990490919A04DC01ED91FC910480F5810A
:10487000E02D1995892B39F50E9417190091210512
:10488000109122052091230530912405DC01CB01F4
:10489000801B910BA20BB30B88399A43A105B1057C
:1048A000F0F28CEF9FEF9093350580933405809163
:1048B000990490919A04DC01ED91FC910288F389AE
:1048C000E02D199559C0BE01685F7F4F89E994E0DA
:1048D0000E94720B049759F780919E04811111C0B8
:1048E0000E94171960932105709322058093230578
:1048F00090932405109225051092350510923405E9
:1049000009C090E0D0CF8EEF9FEF90933505809354
:10491000340532C089E994E00E94B10A882361F12C
:1049200080911B0590911C05019611F481E090E0A7
:1049300090931C0580931B0580911B0590911C058D
:104940009093A0048093A10427E030E04BE954E069
:1049500062E474E089E994E00E94E60AFC01EC5705
:10496000FB4F178A9C01245031094BE954E062E85F
:1049700089E994E00E94000B0E948E152ACA83E701
:1049800096E00C94F50C0F931F93CF93DF93E3EA1B
:10499000F6E08FE194E09183808312821382148287
:1049A000158206ED15E0F8011382128248EE53E0FD
:1049B00060E070E0448355836683778323E933E0C6
:1049C0003183208325EC30E03587248724EC30E0E8
:1049D0003787268720EC30E0318B208B21EC30E0CC
:1049E000338B228B22EC30E0358B248B26EC30E0AD
:1049F000378B268B118E128E138E148EE9EAF6E019
:104A0000918380831282138214821582EFEAF6E08A
:104A1000918380831282138214821582E5EBF6E083
:104A2000918380831282138214821582EBEBF6E06D
:104A3000918380831282138214821582E1ECF6E066
:104A4000918380831282138214821582E7ECF6E050
:104A5000918380831282138214821582EDECF6E03A
:104A6000918380831282138214821582E3EDF6E033
:104A7000918380831282138214821582E9EDF6E01D
:104A8000918380831282138214821582EFEDF6E007
:104A9000918380831282138214821582E5EEF6E000
:104AA000918380831282138214821582EBEEF6E0EA
:104AB000918380831282138214821582E8ECF5E0E0
:104AC000918380831282138214821582E0EDF5E0D7
:104AD000918380831282138214821582E1EFF6E0C3
:104AE000918380831282138214821582E7EFF6E0AD
:104AF000918380831282138214821582EDE9F6E09D
:104B0000918380831282138214821582C3E7D6E0D8
:104B100081E290E0988F8F8B198E1A8E1B8E86E023
:104B200090E0A0E0B0E08C8F9D8FAE8FBF8F18A279
:104B300019A21AA21BA28BED93E09D8B8C8B80E2B5
:104B40008CA31EA21DA285E796E098A78FA319A6A5
:104B5000AC0165E174E0CE010E941C0D85E094E09B
:104B6000998388838FE094E09D8B8C8B1E821D82BD
:104B700018861F821A8619861C861B861E861D862D
:104B8000188A1F8683EE93E09B838A831B8B0A8B94
:104B900080E1898BDF91CF911F910F9108958F92C2
:104BA0009F92AF92BF92CF92DF92EF92FF92CF93FC
:104BB000DF93EC01688179818A819B8161157105A0
:104BC0008105910521F464E279ED8BE597E02DE113
:104BD00033EF41E050E038D049015A019B01AC016C
:104BE000A7EAB1E44DD06B017C01ACEEB4EFA501B6
:104BF000940152D0DC01CB018C0D9D1DAE1DBF1D5B
:104C0000B7FF03C00197A109B04888839983AA839D
:104C1000BB83BC01CD019F77DF91CF91FF90EF90D7
:104C2000DF90CF90BF90AF909F908F900895B7CFB7
:104C300082E092E0B4CF609302027093030280930B
:104C40000402909305020895052E97FB16F4009434
:104C50000FD057FD05D024D007FC02D046F408C081
:104C600050954095309521953F4F4F4F5F4F089598
:104C700090958095709561957F4F8F4F9F4F0895C8
:104C800031D0A59F900DB49F900DA49F800D911DD4
:104C900011240895B7FFF4CFF3DF821B930B08951F
:104CA000A1E21A2EAA1BBB1BFD010DC0AA1FBB1F30
:104CB000EE1FFF1FA217B307E407F50720F0A21BA2
:104CC000B30BE40BF50B661F771F881F991F1A940F
:104CD00069F760957095809590959B01AC01BD0139
:104CE000CF010895A29FB001B39FC001A39F700D93
:104CF000811D1124911DB29F700D811D1124911DE4
:104D00000895EE0FFF1F881F8BBF0790F691E02DCF
:104D10001994692796276927782787277827089580
:104D2000CF93DF938230910510F482E090E0E09120
:104D3000FF06F091000720E030E0C0E0D0E03097BF
:104D400011F14081518148175907C0F048175907A0
:104D500061F482819381209719F09B838A832BC011
:104D6000909300078093FF0626C02115310519F0A6
:104D70004217530718F49A01BE01DF01EF010280C8
:104D8000F381E02DDCCF2115310509F1281B390B0A
:104D90002430310590F412968D919C9113976115F2
:104DA000710521F0FB019383828304C09093000777
:104DB0008093FF06FD01329644C0FD01E20FF31F10
:104DC00081939193225031092D933C933AC02091C5
:104DD000FD063091FE06232B41F42091080230910C
:104DE00009023093FE062093FD06209106023091C1
:104DF00007022115310541F42DB73EB740910A0253
:104E000050910B02241B350BE091FD06F091FE063C
:104E1000E217F307A0F42E1B3F0B2817390778F091
:104E2000AC014E5F5F4F2417350748F04E0F5F1FF0
:104E30005093FE064093FD068193919302C0E0E0FB
:104E4000F0E0CF01DF91CF9108950F931F93CF939F
:104E5000DF93009709F48CC0FC0132971382128211
:104E60000091FF06109100070115110581F42081C2
:104E70003181820F931F2091FD063091FE06281785
:104E8000390779F5F093FE06E093FD0671C0D8016D
:104E900040E050E0AE17BF0750F412962D913C91C0
:104EA0001397AD012115310509F1D901F3CF9D010A
:104EB000DA013383228360817181860F971F821705
:104EC000930769F4EC0128813981260F371F2E5F83
:104ED0003F4F318320838A819B8193838283452B3B
:104EE00029F4F0930007E093FF0642C01396FC9369
:104EF000EE931297ED01499159919E01240F351FB0
:104F0000E217F30771F480819181840F951F029657
:104F100011969C938E938281938113969C938E938A
:104F20001297E0E0F0E0D80112968D919C911397D2
:104F3000009719F0F8018C01F6CF8D919C919801A2
:104F40002E5F3F4F820F931F2091FD063091FE068A
:104F50002817390769F4309729F410920007109246
:104F6000FF0602C0138212821093FE060093FD0614
:104F7000DF91CF911F910F91089581E090E0F89417
:104F800039C091112BC0803219F089508550D0F76B
:104F90000895FB01DC0104C08D910190801921F47A
:104FA00041505040C8F7881B990B0895681779073E
:104FB00068F4FB01DC01E40FF51FA40FB51F02C06C
:104FC00002900E9241505040D8F708950AC0FB015C
:104FD000DC0101900D920020E1F7089599278827C0
:104FE0000895FB01DC0102C001900D924150504038
:104FF000D8F7089511E0C8E0D1E000E005C0802FA7
:10500000FE017FDE2196011DC930D10780E008072F
:06501000B1F7F894FFCF98
:1050160000C001000000000001078000000102033B
:10502600040500044D51545404000000003A0D6379
:105036000D6C1B521B2B1B431AD30DC6104E1B5057
:105046001C2D1C3B1A5C0D5A0D301A500D00000029
:1050560000CB16CB16CB16CB16CB16CB16CB162EF5
:105066001ACB16CB16CB16CB16CB16CB16CB16CB2E
:1050760016CB1600000000F919441A0F1A7913D638
:10508600124D11001B4814EC1AE71B791AA51BA137
:10509600135B13271A171A131A1D000000000000CD
:1050A600000000E3FFE3FF00000000000023000013
:1050B60000000000000000DDFFDDFF000000000032
:1050C60000230000000000000000001D00FAFF00A1
:1050D6000000000000DDFFDDFF000000000000E929
:1050E60002B702A302AD028F029902CB02C102FDF2
:1050F60002F302230000000000E5010A021D00FA87
:10510600FF0000FF011302DDFFDDFF0000010215B5
:105116000201005E00000002000000000000000026
:1051260000FEFFFEFF000000000000080000000077
:105136000000000000F8FFF8FF0000000000004338
:105146000321032B030D03170357034D0308000028
:1051560000000036185C180200FAFF0000511865BE
:1051660018F8FFF8FF0000531867180000000067E2
:10517600172D181B0787160E177E167B16731649F2
:105186001636162016EB156F17CD16140000000004
:105196000000000000ECFFECFF0000000000000033
:1051A6000000002715041EF114CF14E3146D15003A
:1051B600000000CB16041ECB16CB16CB16CB160062
:1051C600000000CB16041E00000000E00CCD071BFB
:1051D600071807150712070F077C06780675065F7E
:1051E600067F069F0C5D0600000000390DDE0700F5
:1051F600000000E10CCF071B071807150712070F61
:10520600070307BD069F0681067F067A075907141E
:105216000000000000F50C0A0DECFFECFF00000199
:105226000D130D050481038B030F04000000008895
:105236001600000000CB16446576696365733A3A3A
:1052460044657669636573282900486F6D654C6906
:10525600620023004D7174743A3A43616C6C62616A
:10526600636B28290009005B746F7069635D3D00FC
:105276005B76616C75655D3D0057495A6E657400D5
:00000001FF
