:100000009BC10000CAC10000C8C10000C6C10000F9
:10001000C4C10000C2C10000C0C10000BEC10000D8
:10002000BCC10000BAC10000B8C10000B6C10000E8
:10003000B4C10000B2C10000B0C10000AEC10000F8
:10004000ACC10000AAC10000A8C10000A6C1000008
:10005000A4C10000A2C10000A0C100000C94EA3EAF
:100060009CC100000C94413E0C94183E96C10000C7
:1000700094C1000092C1000090C100008EC1000038
:100080008CC100008AC1000088C1000086C1000048
:1000900084C1000082C1000080C100007EC1000058
:1000A0007CC100007AC1000078C1000076C1000068
:1000B00074C1000072C1000070C100006EC1000078
:1000C0006CC100006AC1000068C1000066C1000088
:1000D00064C1000062C100000C94EF3D0C94C63D69
:1000E0005CC10000170E1A0E090E0D0E110E510EF6
:1000F0001E0E220E280E2C0E300E360E3A0E3E0E1E
:10010000510E440E480E4C0E6364696E6F70737529
:1001100078585B00005EBCE2613FDD83C29C7E20BC
:10012000A3FD1F419DC3217FFCA2401E5F01E3BDD3
:100130003E6082DC237D9FC1421CFEA0E1BF5D03C7
:1001400080DE3C62BEE0025CDF81633D7C22C09EBB
:100150001D43A1FF4618FAA427799BC584DA3866A7
:10016000E5BB5907DB856739BAE406581947A5FB93
:100170007826C49A653BD987045AB8E6A7F91B4587
:10018000C6987A24F8A6441A99C7257B3A6486D87B
:100190005B05E7B98CD2306EEDB3510F4E10F2AC67
:1001A0002F7193CD114FADF3702ECC92D38D6F3153
:1001B000B2EC0E50AFF1134DCE90722C6D33D18F47
:1001C0000C52B0EE326C8ED0530DEFB1F0AE4C123B
:1001D00091CF2D73CA947628ABF517490856B4EA27
:1001E0006937D58B5709EBB536688AD495CB297713
:1001F000F4AA4816E9B7550B88D6346A2B7597C907
:100200004A14F6A8742AC896154BA9F7B6E80A54FA
:10021000D7896B3500000A0B02090C0D0E08070385
:1002200004010000000000000000000000000000C9
:1002300000000000000000000000000000000000BE
:10024000121110000000000000000000000000007B
:10025000000000000000000000000000200023005B
:10026000260029002C002F003200000100000301AD
:100270000601090100002200250028002B002E00A5
:100280003100340002010000050108010B010000EB
:100290002100240027002A002D0030003300010136
:1002A0000000040107010A01050505050705080806
:1002B0000808020202020A0A0808040404040101F0
:1002C0000101010101010303030303030303040705
:1002D00007070C0C0C0C0C0C0C0C0202020206069C
:1002E0000606060606060B0B0B0B0B0B0B0B01028F
:1002F0001020200808102040102040800201020138
:1003000008040201010204081020408080402010EF
:100310000804020180040201804020100804020148
:1003200008040201010204081020408001020408B0
:1003300010204080AC4CA84C11241FBECFEFD1E25E
:10034000DEBFCDBF00E00CBF18E0A0E0B2E0E2EB02
:10035000FCEA00E00BBF02C007900D92A232B10789
:10036000D9F72BE0A2E2B8E001C01D92A438B20791
:10037000E1F711E0CBE9D1E000E006C021970109E7
:10038000802FFE010E94A34ECA39D10780E00807E2
:10039000A9F70E948C490C94485632CE0F931F93B4
:1003A000CF93DF938C01EB0188819981F8019183D0
:1003B00080832A853B85FC0136970190F081E02DF2
:1003C000E00FF11F318320838C859D85F801978391
:1003D00086836A5F7F4FC80106960E94BE22BE01D7
:1003E0006E5F7F4FC801DF91CF911F910F910C94E9
:1003F000802ACF93DF93EC0188E492E0998388838D
:100400008CE592E09987888782E592E09F838E83CE
:100410006AE372E0CE0106960E94BE2266E372E0B5
:10042000CE01DF91CF910C94802ACF93DF93EC0122
:10043000E0DFCE01DF91CF910C94474FEF92FF9216
:100440000F931F93CF93DF931F92CDB7DEB77C013D
:100450008E010F5F1F4F2FEF3FEF40E050E00E94F3
:100460007147C7010F90DF91CF911F910F91FF90BE
:10047000EF900895EF92FF920F931F93CF93DF9326
:100480001F92CDB7DEB77C018E010F5F1F4F2FEF9C
:100490003FEF40E050E00E947147C7010F90DF91AD
:1004A000CF911F910F91FF90EF900895CF93DF931D
:1004B000EC0182E093E09983888386E193E09CA33A
:1004C0008BA38CE093E09F838E83CE0108960E94DD
:1004D00028296CE173E0CE01DF91CF915FCF0697C1
:1004E000E5CFDC01ED91FC91369720813181820FBF
:1004F000931FDCCFCF93DF93EC01D8DFCE01DF91E8
:10050000CF910C94474F0697F5CFDC01ED91FC910C
:10051000369720813181820F931FECCFEF92FF92AB
:100520000F931F93CF93DF93EC018B017A016E5FE2
:100530007F4F0E94932AB8016A5F7F4FA701CE01C7
:1005400006960E94F822F801808191819983888320
:1005500022853385FC0136970190F081E02DEC0F68
:10056000FD1F31832083F801848595859F838E83C9
:10057000DF91CF911F910F91FF90EF900895CF924F
:10058000DF92EF92FF920F931F93CF93DF931F920F
:10059000CDB7DEB78C017B01FC01C480D580FB01A7
:1005A000648175816C0D7D1D1982AE014F5F5F4FB7
:1005B0000E94522CF7014481558160817181F801BC
:1005C000808191818C0D9D1D0E945813C8010F9050
:1005D000DF91CF911F910F91FF90EF90DF90CF901F
:1005E00008957F928F929F92AF92BF92CF92DF92A7
:1005F000EF92FF920F931F93CF93DF9300D000D021
:10060000CDB7DEB75C01DC010D911C91B80184E02F
:1006100090E00E94271C009739F0FC0111830083B1
:10062000138212828C0111C08091260881110BC0A7
:100630001092230810922208109225081092240884
:1006400081E08093260802E218E06501F2E0CF0E17
:10065000D11C6BE7C6010E94D229882309F451C03E
:100660006DE7C6010E94D22981117EC086E0782EF6
:10067000C5010E94B72A4C01892B09F442C06AE3E4
:10068000C6010E94D2298823E1F11A821982BE0193
:100690006F5F7F4FC50178D7882399F1D8011296F3
:1006A000ED90FC901397E114F104E9F1F7016281F8
:1006B0007381C4010E940150892B71F0D701ED9024
:1006C000FC90F1CFF182E082E114F104D1F0D70186
:1006D00013969C928E921297FE013196D701149632
:1006E000872D01900D928A95E1F76DE7C6010E9472
:1006F000D229811139C06CE2C6010E94D229811130
:10070000B7CF8091260881110BC010922308109258
:100710002208109225081092240881E08093260870
:1007200002E218E021C0F801608171818AE090E066
:100730000E94271C7C01892B29F0F701118210826D
:1007400015821482D8011296ED91FC91139730977F
:1007500039F080819181009709F4B4CFFC01F9CF81
:10076000F801F382E282B0CFC80126960FB6F89462
:10077000DEBF0FBECDBFDF91CF911F910F91FF90D4
:10078000EF90DF90CF90BF90AF909F908F907F9031
:100790000895CF92DF92EF92FF920F931F93CF9322
:1007A000DF931F92CDB7DEB77C016B018E010F5F27
:1007B0001F4F2FEF3FEF40E050E00E947147F601DE
:1007C00087819085A185B285F70187839087A1876E
:1007D000B2870F90DF91CF911F910F91FF90EF9013
:1007E000DF90CF900895CF92DF92EF92FF920F9318
:1007F0001F93CF93DF931F92CDB7DEB76C017B01C0
:100800008E010F5F1F4F2FEF3FEF40E050E00E943F
:100810007147B701695F7F4F2FEF3FEF40E050E036
:10082000C60107960E9471470F90DF91CF911F91EB
:100830000F91FF90EF90DF90CF9008950F931F934B
:10084000CF93DF93FC0104811581FB01C481D58125
:10085000AE010C171D0708F4A801FB01608171812E
:10086000FC01808191810E941150009769F481E020
:1008700090E0C017D10740F00C171D0710F080E082
:1008800090E0919581959109DF91CF911F910F9102
:100890000895CF93DF93EC01E881F98136970190B9
:1008A000F081E02DE80FF91F83899489DC01ED9137
:1008B000FC910484F585E02D1995019651F4E881A9
:1008C000F98136978081918161E08C0F9D1F0E9494
:1008D000FC2BCE01DF91CF910895CF93DF93EC01F4
:1008E000E881F98136970190F081E02DE80FF91F3A
:1008F000838994890E944A22019651F4E881F98102
:1009000036978081918162E08C0F9D1F0E94FC2BA5
:10091000CE01DF91CF9108956F927F928F929F9237
:10092000AF92BF92CF92DF92EF92FF920F931F93FD
:10093000CF93DF9300D01F92CDB7DEB73C018B0180
:10094000DC01ED91FC9136970190F081E02D32961B
:10095000E80FF91FC284D384E484F584C21AD30A51
:10096000E40AF50A818192818E709927049761F5D6
:1009700046015701181419041A041B04D4F4B1E0F9
:100980008B1A9108A108B108D301ED91FC9136971B
:100990000190F081E02DE60DF71D6089C3012983E8
:1009A0003A834B835C8399DF5C814B813A81298157
:1009B000E1CFD701C601F7FE03C080E090E0DC0183
:1009C000C81AD90AEA0AFB0AB801C3010E94062C18
:1009D000D301ED91FC9136970190F081E02DE60D69
:1009E000F71D838194818E709927029701F1D301BD
:1009F000ED91FC91369780819181860D971DFC01C8
:100A000014861586168617860F900F900F900F90FC
:100A1000DF91CF911F910F91FF90EF90DF90CF90DA
:100A2000BF90AF909F908F907F906F9008951C140F
:100A30001D041E041F04DCF6F1E0CF1AD108E10802
:100A4000F108D301ED91FC9136970190F081E02DF2
:100A5000E60DF71D6089C30140DFE9CF21E0FC010D
:100A60002083FB01A081B18116978D919C91E80FA5
:100A7000F91F81899289009709F00BCF0895FC0135
:100A8000808191810C94474FAF92BF92CF92DF92B9
:100A9000EF92FF920F931F93CF93DF93CDB7DEB703
:100AA00062970FB6F894DEBF0FBECDBF8C017B01FD
:100AB0005A01DB0111968D919C911297F801928356
:100AC0008183F801A181B281F701838194818A1722
:100AD0009B0751F1C084D18414966D917C91159738
:100AE000CE01019656DEBE016F5F7F4FCE010C96A0
:100AF000F6011995B501CE010C960E942847D82E13
:100B0000CE010C96BCDFCE010196B9DFDD2061F08D
:100B1000D8011196ED91FC911297828193811296E2
:100B20009C938E931197CDCFC80162960FB6F8941F
:100B3000DEBF0FBECDBFDF91CF911F910F91FF9010
:100B4000EF90DF90CF90BF90AF900895CF93DF9359
:100B5000EC0188E090E09B838A831D821C820E94C6
:100B6000B24E99838883DF91CF910895AF92BF925F
:100B7000CF92DF92EF92FF920F931F93CF93DF9369
:100B80001F92CDB7DEB77C016A018E010F5F1F4F48
:100B90002FEF3FEF40E050E00E947147F6010190D7
:100BA0000020E9F731978F010C191D09F701A48086
:100BB000B5801982B8016A0D7B1DAE014F5F5F4F92
:100BC000C7010E94522CF70180819181A801B601D2
:100BD0008A0D9B1D0E945813C7010F90DF91CF9182
:100BE0001F910F91FF90EF90DF90CF90BF90AF904B
:100BF0000895CF93DF93EC016C817D816F5F7F4F10
:100C00008A819B818617970718F4CE010E94E727F7
:100C1000E881F9818C819D81E80FF91F108288811C
:100C20009981DF91CF910895CF92DF92EF92FF9259
:100C30000F931F93CF93DF93CDB7DEB7E5970FB632
:100C4000F894DEBF0FBECDBF7C016B01AB01BC01D0
:100C5000CE01C39619DFECA9FDA9D70113968D919A
:100C60009C9114978E179F0741F064817581C6018E
:100C70000E942847882309F448C08E010F5F1F4F48
:100C80002FEF3FEF40E050E0B601CE0147960E94C3
:100C900071471F8E1E8E19A218A2F70100851185BB
:100CA000BE01695E7F4FCE01019673DDBE016F5FAD
:100CB0007F4FCE010C96F8011995AE01445F5F4F4E
:100CC000B701CE01C096E0DECE010C96D8DECE0193
:100CD0000196D5DEA9A9BAA9F70183819481A81745
:100CE000B90739F5BE01695E7F4FC70101960E94C1
:100CF000662BD7011396ED91FC9114979081818119
:100D00009CAB8DABCE014796BADEECA9FDA98481E0
:100D100095810796E5960FB6F894DEBF0FBECDBF5E
:100D2000DF91CF911F910F91FF90EF90DF90CF90C7
:100D30000895F7010085118514966D917C911597A2
:100D4000CE01019626DDBE016F5F7F4FCE018296F8
:100D5000F8011995D70118960D911C911997BE01AC
:100D6000695E7F4FCE010C9614DDBE01645F7F4F3C
:100D7000CE018996F8011995BE016E5D7F4FCE01B7
:100D800089960E942847182FCE01899678DECE01D9
:100D90000C9675DECE01829672DECE0101966FDE74
:100DA000C9A8DAA8112379F186E090E00E94B24E3A
:100DB0008C01BE01695E7F4F0E94F029D6018D91A2
:100DC0009C91F80191838083D382C282892B31F474
:100DD000D70112961C930E93119705C0D601ED9181
:100DE000FC9113830283F60111830083D7011596CA
:100DF0008D919C911697019616969C938E931597BC
:100E0000902F812F7DCF9C2D8D2D7ACFCF92DF9289
:100E1000EF92FF920F931F93CF93DF931F92CDB763
:100E2000DEB77C016B01FC0184819581892B11F077
:100E300015821482C114D104B9F0F601019000208A
:100E4000E9F731978F010C191D091982AE014F5F27
:100E50005F4FB801C7010E94522CA801B601F701EB
:100E6000808191810E945813C7010F90DF91CF912B
:100E70001F910F91FF90EF90DF90CF900895CF9347
:100E8000DF93EC010796FBDDCE01DF91CF91F7CD2B
:100E9000AF92BF92CF92DF92EF92FF920F931F9388
:100EA000CF93DF93CDB7DEB765970FB6F894DEBF6B
:100EB0000FBECDBF8C017B015A01DB0111968D91D4
:100EC0009C911297F80192838183F801A181B281EC
:100ED000F701838194818A179B0751F1C084D184E3
:100EE00014966D917C911597CE0101967CDCBE0124
:100EF0006F5F7F4FCE010F96F6011995B501CE01B8
:100F00000F960E942847D82ECE010F96B8DDCE014D
:100F10000196B5DFDD2061F0D8011196ED91FC91CD
:100F200012978281938112969C938E931197CDCFC5
:100F3000C80165960FB6F894DEBF0FBECDBFDF9136
:100F4000CF911F910F91FF90EF90DF90CF90BF90C6
:100F5000AF9008958F929F92AF92BF92CF92DF92FF
:100F6000EF92FF920F931F93CF93DF93CDB7DEB72E
:100F700065970FB6F894DEBF0FBECDBF6C017B0145
:100F80005A01FB0101811281F7018381948180174D
:100F9000910739F4F701838194818017910719F53E
:100FA00048C0F70180849184F80164817581CE0185
:100FB000019619DCBE016F5F7F4FCE010F96F401E1
:100FC0001995B501CE010F960E942847982ECE01A3
:100FD0000F9655DDCE01019652DF9920D9F2F80126
:100FE00002811381D1CFF70180849184F80164815B
:100FF0007581CE010196F7DBBE016F5F7F4FCE0199
:101000000F96F4011995BE01615F7F4FC5010E94E3
:101010002847B82ECE010F9632DDCE0101962FDF84
:10102000BB2039F0F70183819481F601928381839B
:1010300003C0F60112830183C60165960FB6F894CA
:10104000DEBF0FBECDBFDF91CF911F910F91FF90FB
:10105000EF90DF90CF90BF90AF909F908F900895CA
:10106000CF92DF92EF92FF920F931F93CF93DF9374
:10107000CDB7DEB7C654D1090FB6F894DEBF0FBEA8
:10108000CDBF7C016B01AB01BC01CE018D5B9F4FDD
:10109000FFDE2696EEADFFAD2697D70113968D9114
:1010A0009C9114978E179F0741F064817581C6014A
:1010B0000E942847882309F45FC0BE016A5B7F4F06
:1010C000CE01C99643DD8E010F5F1F4F2FEF3FEF1B
:1010D00040E050E0B601CE014D960E9471472FEFDF
:1010E0003FEF40E050E0BE01675C7F4FCE01849649
:1010F0000E947147F70100851185BE01635E7F4F35
:10110000CE01019670DBBE016F5F7F4FCE010F965F
:10111000F8011995AE01415F5F4FB701CE01805CC8
:101120009F4FB6DECE010F96AADCCE010196A7DE58
:101130002396AEADBFAD2397F70183819481A817A5
:10114000B90789F5BE01635E7F4FC70101960E9412
:10115000B12BD7011396ED91FC9114979081818169
:1011600025969FAF259726968FAF2697CE014D9651
:1011700086DECE01C99683DC2696EEADFFAD2697BE
:10118000848195810796CA5BDF4F0FB6F894DEBF66
:101190000FBECDBFDF91CF911F910F91FF90EF90C8
:1011A000DF90CF900895F7010085118514966D9119
:1011B0007C911597CE01019616DBBE016F5F7F4FC4
:1011C000CE018B96F8011995D70118960D911C91B7
:1011D0001997BE01635E7F4FCE010F9604DBBE01FF
:1011E000615F7F4FCE01C296F8011995BE01655D22
:1011F0007F4FCE01C2960E942847182FCE01C2967B
:101200003EDCCE010F963BDECE018B9638DCCE0164
:10121000019635DE2396CEACDFAC2397112379F10E
:1012200086E090E00E94B24E8C01BE01635E7F4F6B
:101230000E94192AD6018D919C91F8019183808397
:10124000D382C282892B31F4D70112961C930E935C
:10125000119705C0D601ED91FC9113830283F6012D
:1012600011830083D70115968D919C911697019655
:1012700016969C938E931597902F812F71CF9C2D4E
:101280008D2D6ECFCF92DF92EF92FF920F931F932F
:10129000CF93DF936C017A018B01C0E0D0E0CE15D3
:1012A000DF0589F0D8016D918D01D601ED91FC919A
:1012B0000190F081E02DC6011995892B11F47E0172
:1012C00002C02196ECCFC701DF91CF911F910F9102
:1012D000FF90EF90DF90CF9008958F929F92AF9202
:1012E000BF92CF92DF92EF92FF920F931F93CF9313
:1012F000DF93B82E4B018A01A22E68E270E00E94B3
:10130000B43AC82FD0E069E270E08B2D0E94B43A65
:10131000DC2FCC27C82B9E013770CB2CD12CC601DB
:10132000880F991FAC014956564F6A01FA01808116
:101330009181820F931FA801420F531F41305840E3
:1013400098F060E078E07B01E21AF30AA701B401AB
:101350000E949E13A8014E195F09B4016E0D7F1DF6
:10136000F6018081918102C0A801B4010E949E1300
:10137000A1100EC0C00FD11F4D2F68E270E08B2D61
:101380000E94AA3A4C2F69E270E08B2D0E94AA3A83
:10139000DF91CF911F910F91FF90EF90DF90CF9051
:1013A000BF90AF909F908F9008959F92AF92BF9201
:1013B000CF92DF92EF92FF920F931F93CF93DF9321
:1013C000982E8B015A01690164E270E00E94B43AE0
:1013D000E82EF12C65E270E0892D0E94B43AFE2CD3
:1013E000EE24E82AE701C00FD11F9E013770E92CD7
:1013F000F12CC701880F991FAC014157564F7A0154
:10140000FA0180819181820F931FA9014C0D5D1D0E
:101410004130584090F000E018E0021B130BA80187
:10142000B5010E94C813A601401B510BB501600F06
:10143000711FF7018081918102C0A601B5010E9450
:10144000C813CC0DDD1D4D2F64E270E0892D0E9484
:10145000AA3A4C2F65E270E0892DDF91CF911F9160
:101460000F91FF90EF90DF90CF90BF90AF909F9043
:101470000C94AA3AFF920F931F93CF93DF93F82E09
:10148000C0E0D0E08F2D0E947F138C01892B21F0CA
:101490008F2D0E947F13EC01C017D10799F7CE0161
:1014A000DF91CF911F910F91FF900895CF92DF921E
:1014B000EF92FF920F931F93CF93DF931F92CDB7BD
:1014C000DEB77C016B01AC01485F5F4F81E290E0C9
:1014D000F70197A386A310A611A612A686E090E0B6
:1014E000A0E0B0E083A794A7A5A7B6A717A610AA67
:1014F00011AA12AA89E894E094A383A380E283ABA3
:1015000015AA14AA57AB46AB10AE6CE173E0C70145
:1015100005D882E093E0F7019183808386E193E030
:1015200094A383A38CE093E0978386831486138629
:1015300016861586108A1786128A118A148A138ACB
:10154000168A158A178A80EE92E0918780878E012D
:101550000F5F1F4F2FEF3FEF40E050E0B601C70194
:1015600048960E947147F70110A2178E12A211A28D
:1015700088E1878B0F90DF91CF911F910F91FF90A2
:10158000EF90DF90CF9008959F92AF92BF92CF924D
:10159000DF92EF92FF920F931F93CF93DF9300D0D0
:1015A00000D0CDB7DEB7FC019681992309F4E1C0E4
:1015B0006B017F01915096835F0182E0A80EB11C00
:1015C000C5010E949029D7011296ED91FC911397C5
:1015D00080818B3521F08B3709F498C0A2C0F701C8
:1015E00000811181B80184E090E00E94271C0097DF
:1015F00051F0DC0111961C930E9313961C921E92CF
:1016000012978C0111C08091320881110BC0109289
:101610002F0810922E08109231081092300881E0A5
:10162000809332080EE218E06BE5C5010E94D229D2
:10163000882309F44BC06DE5C5010E94D2298111B0
:1016400056C086E0982E1A821982BE016F5F7F4FC6
:10165000C7019ADF8823D1F1F8016081718188E0A8
:1016600090E00E94271CDC01892B39F011961C9216
:101670001E9213961C921E921297F80122813381BA
:101680002115310551F0F90180819181009711F008
:101690009C01F9CFB183A08303C0F801B383A28377
:1016A0001097A1F0FE0131961296892D01900D92AE
:1016B0008A95E1F76DE5C5010E94D229811117C015
:1016C0006CE2C5010E94D2298111BDCF8091320800
:1016D00081110BC010922F0810922E081092310821
:1016E0001092300881E0809332080EE218E0D801B1
:1016F0008D919C91892B11F410E033C086E090E02D
:10170000F60191838083138302832AC0C7010E945C
:10171000F102DC012D913C91232B71F327E030E0A5
:101720001AC011E0873219F0823209F010E0C701C7
:101730000E94B72A009701F3112359F022E030E00C
:10174000D60111963C932E9313969C938E931297E9
:1017500008C021E030E0F601318320839383828347
:1017600011E0D70116968C9116978F5F16968C9381
:1017700001C010E0812F26960FB6F894DEBF0FBE91
:10178000CDBFDF91CF911F910F91FF90EF90DF9030
:10179000CF90BF90AF909F9008954F925F926F92BD
:1017A0007F92EF92FF920F931F93CF93DF93CDB76A
:1017B000DEB7A1970FB6F894DEBF0FBECDBF7C0198
:1017C000FA01CB0119A2223008F42AE08E010F5D44
:1017D0001F4F422E512C612C712CBF01A30192018D
:1017E0000E94724EF901CA01015011096A3014F4C5
:1017F000605D01C0695CD8016C93232B242B252BE1
:1018000061F70115110591F0F80101900020E9F749
:101810003197AF01401B510BD701ED91FC91028034
:10182000F381E02DB801C701199502C080E090E076
:10183000A1960FB6F894DEBF0FBECDBFDF91CF915A
:101840001F910F91FF90EF907F906F905F904F905E
:101850000895DC01ED91FC910190F081E02D199447
:101860002F923F924F925F926F927F928F929F92B0
:10187000AF92BF92CF92DF92EF92FF920F931F939E
:10188000CF93DF93CDB7DEB72E970FB6F894DEBFB8
:101890000FBECDBF1C019C01295E3F4F3B872A87AD
:1018A000C9010E948D208C87882309F444C18A8550
:1018B0009B850E948D208C87882309F443C00E9459
:1018C000DE3E2B013C01810101561F4FF801808152
:1018D0009181A281B381A3019201281B390B4A0B8C
:1018E0005B0BDA01C90189399A43A105B10590F46E
:1018F000349780819181A281B381A3019201281B39
:10190000390B4A0B5B0BDA01C90189399A43A105EE
:10191000B105C8F1710143EAE40EF11CD7012C9125
:10192000F1018789908D222379F0EE54FF4F2CEF3F
:101930003FEF31832083DC01ED91FC910288F38934
:10194000E02D19951C863BC520ECF101218F128EEC
:10195000DC01ED91FC910280F381E02D42E050E04A
:10196000B101675E7F4F1995F101E556FF4F408247
:10197000518262827382F801408251826282738254
:1019800081E0D7018C93F1018789908DDC01ED9185
:10199000FC910480F581E02D1995892B09F40FC580
:1019A000BE016F5F7F4F8A859B850E944E215C013F
:1019B000892B09F404C5F801408251826282738246
:1019C000D10159968C91807F803309F091C04101FB
:1019D000B4EA8B0E911CF40180819181892B09F46A
:1019E000EEC4E980F12CF101EE0DFF1D028D10E037
:1019F000102F0027838D080F111D6701F4E0CF0E13
:101A0000D11C2A853B85C20ED31EB7016B5F7F4F69
:101A1000620F731FA801C6010E94F04F98012E0D9E
:101A20003F1DF101E20FF31F138ED10159968C91E6
:101A300086708987D4010D90BC91A02DBE87AD879B
:101A4000823009F041C0848D90E0982F8827458D21
:101A50004C01840E911C4BEF5FEF4E195F09401B48
:101A6000510B4A0D5B1DB901695F7F4FEA85FB850C
:101A70006E0F7F1FC601FD01199580E4D1015996B3
:101A80008C93599729855A962C935A975B969C92DA
:101A90005B975C968C925C9757968D919C9158972A
:101AA000DC01ED91FC91B101675E7F4F0280F38113
:101AB000E02D44E050E01995F101E556FF4F4082DA
:101AC0005182628273827BC44DEF5FEF4E195F09D2
:101AD000401B510B4A0D5B1DB9016B5F7F4FEA85BF
:101AE000FB856E0F7F1FC601ED85FE85199567C4C6
:101AF000803CC9F480EDD10159968C9359975A9640
:101B00001C925A9757968D919C915897DC01ED91B4
:101B1000FC91B101675E7F4F0280F381E02D42E0CE
:101B200050E019954CC4803D09F049C4F101ED55D0
:101B3000FF4F108244C48091990881112AC01092ED
:101B400081081092800888EE93E0A0E0B0E08093D6
:101B5000820890938308A0938408B09385088FE54A
:101B600093E090937F0880937E088DEC94E09093AF
:101B70008D0880938C0810928E0810928F08109216
:101B800090081092910884E08093960881E08093F9
:101B900099088BE398E09093430A8093420A6CE2A1
:101BA00071E080E090E00E94A63E1FB7F89480911B
:101BB0003A08811196C08DED92E0FC01249143E238
:101BC00053E0FA01649130E0220F331F22573D4F5A
:101BD000F901A591B4912C91622309F070C0E9E458
:101BE000F2E0C490FA014491FC019491992309F424
:101BF00066C0CC2009F455C0D12CF6013197E231F2
:101C0000F10508F04EC08827EE58FF4F8F4F0C9417
:101C1000A34E809180008F7707C0809180008F7DD8
:101C200003C080918000877F809380003AC084B594
:101C30008F7702C084B58F7D84BD33C08091B000A2
:101C40008F7703C08091B0008F7D8093B00029C052
:101C5000809190008F7707C0809190008F7D03C0A6
:101C600080919000877F809390001BC08091A0009E
:101C70008F7707C08091A0008F7D03C08091A00066
:101C8000877F8093A0000DC0809120018F7707C0CF
:101C9000809120018F7D03C080912001877F8093F8
:101CA0002001E92FF0E0EE0FFF1FEC58FD4FA5914A
:101CB000B4918FB7F8949C91492B4C938FBF61E0FE
:101CC00085E30E946A3E8CB580618CBD8CB58064D2
:101CD0008CBD61E084E30E946A3E61E083E30E9480
:101CE0006A3E80913A088F5F80933A081FBF249A1A
:101CF00080E590E00E94462E60E880E090E071D59B
:101D000065E58BE190E06DD565E58AE190E069D508
:101D10000E94452E80E090E49093900980938F0973
:101D200080E090E6909398098093970980E098E48A
:101D3000909392098093910980E098E690939A0994
:101D40008093990980E090E590939409809393099A
:101D500080E090E790939C0980939B0980E098E550
:101D6000909396098093950980E098E790939E0957
:101D700080939D0980E590E00E94462E46E050E069
:101D8000B10189E090E004D58DEC94E09A838983D9
:101D90001B821C821D821E8244E050E0BE016D5FEA
:101DA0007F4F8FE090E0F4D40E94452E0091420ACC
:101DB0001091430AD80192961D921D921D921C9279
:101DC0009597F80116A217A210A611A69A961D9231
:101DD0001D921D921C929D9786E990E0A0E0B0E0D4
:101DE00086AB97ABA0AFB1AFD80112AE13AE14AEB5
:101DF00015AE189686E0FD01282F11922A95E9F775
:101E00009801225F3F4F94E1F90111929A95E9F709
:101E1000F10101900D928A95E1F72801F2E44F0E4D
:101E2000511CD2011C920E942F4E2FEC37E040E053
:101E300050E00E94464EDC01CB010196A11DB11D70
:101E4000F80184839583A683B78380839183A283DB
:101E5000B38398012D5B3F4F3E872D87C9010E94B8
:101E6000453A64E470E08D859E850E945A3A882345
:101E700009F4A5C20E94DE3E6B017C01612C712C2D
:101E8000198648EE842E43E0942EA12CB12CD20169
:101E90008C91833009F405C181111FC0F801848140
:101EA0009581A681B7810196A11DB11D848395837B
:101EB000A683B7830E94DE3E6C197D098E099F09B7
:101EC000A50194010E94724EA90161E0C8010E941F
:101ED0007F1F81E0D2018C93C6C08430F9F4F801F1
:101EE00084819581A681B7810196A11DB11D84834E
:101EF0009583A683B7830E94DE3E6C197D098E0907
:101F00009F09A50194010E94724EA90163E0C801D6
:101F10000E947F1FE2E0D201EC93A5C0813069F5F9
:101F2000D801DA964D915D916D917C91DD979E017E
:101F30002F5F3F4FC8010E94B91D8987823009F089
:101F400092C089819A81AB81BC81F8018483958399
:101F5000A683B7830E94DE3E6C197D098E099F0916
:101F6000A50194010E94724EA90163E0C8010E947C
:101F70007F1FE985D201EC937CC0823009F073C0E9
:101F8000D801DA964D915D916D917C91DD979E011E
:101F90002F5F3F4FC8010E94B91D8987853009F026
:101FA0005CC023E0F2012083F80182A193A1A4A1E7
:101FB000B5A1892B8A2B8B2B41F424E833E040E038
:101FC00050E022A333A344A355A3F80186A197A10F
:101FD000A0A5B1A5892B8A2B8B2B61F482A193A19B
:101FE000A4A1B5A1B695A7959795879586A397A324
:101FF000A0A7B1A7F80182A593A5A4A5B5A5892B93
:102000008A2B8B2BA9F482A193A1A4A1B5A1AC0129
:10201000BD0123E076956795579547952A95D1F7A9
:10202000841B950BA60BB70B82A793A7A4A7B5A7F4
:10203000F80186A197A1A0A5B1A586A797A7A0ABF7
:10204000B1AB82A593A5A4A5B5A582AB93ABA4AB78
:10205000B5AB66246394712C0CC0F985F63019F485
:10206000D2011C9206C0B985BF3F19F4F20110825B
:102070001986F1E06F16710409F409CF0E94DE3E63
:10208000DC01CB018C199D09AE09BF09F80126A915
:1020900037A940AD51AD281739074A075B0708F04B
:1020A000F6CE8D859E850E94453AF8018481958102
:1020B000A681B7810196A11DB11D84839583A68356
:1020C000B7830E94DE3EF801FE96608371838283AF
:1020D0009383F1E06F16710409F053C080E590E03E
:1020E0000E94462E6091420A7091430A625F7F4FC0
:1020F000CE0101960E94B63D44E050E0BE016D5F06
:102100007F4F8FE090E044D36091420A7091430A80
:102110006A5E7F4FCE0101960E94B63D44E050E0DA
:10212000BE016D5F7F4F81E090E032D36091420A43
:102130007091430A6E5E7F4FCE0101960E94B63DBC
:1021400044E050E0BE016D5F7F4F85E090E020D31A
:102150000E94452E6091420A7091430A625E7F4F51
:10216000CE0101960E94B63D8B819C81AD81BE81DE
:1021700080933E0A90933F0AA093400AB093410A8D
:1021800003C0672809F41BC18A859B850E948D20A6
:102190008111E4C0F101E455FF4F60817181D101EB
:1021A00057968D919C915897A255BF4FFC01208165
:1021B00031816115710541F04D915C91D9011E96F7
:1021C000ED91FC911F971AC0F901E484F5844D91BB
:1021D0005C912DEC34E03A832983D101AA55BF4F9D
:1021E00012960D911D912D913C9115970B831C8397
:1021F0002D833E83BE016F5F7F4FF7011995F1017B
:102200008130910509F0A3C0E756FF4F9183808389
:1022100087E0EEE2F3E0DE01119601900D928A95DF
:10222000E1F7FE013196D1015E967E0128E0E20ED3
:10223000F11C81918D93EE15FF05D9F782E0D10154
:1022400095968C93959796961C9296978FE0979675
:102250008C932FE030E08101075E1F4FA8016CE7EF
:1022600075E08A859B850E94C2209C01255031091A
:10227000A80160E18A859B850E94DC200E94DE3EE9
:10228000F101E556FF4F60837183828393830A5780
:102290001F4FF8016083718382839383F1018789E3
:1022A000908DDC01ED91FC910480F581E02D199574
:1022B000892BF9F40E94DE3ED8018D909D90AD905F
:1022C000BC90DC01CB0188199909AA09BB0988399E
:1022D0009A43A105B10510F3F101EE54FF4F8CEFC5
:1022E0009FEF91838083D10157968D919C91589750
:1022F00026C0B7018A859B850E944E210497E1F490
:10230000F101848D91012E543F4F7901811110C04C
:102310000E94DE3ED8016D937D938D939C9313971D
:10232000F101ED55FF4F1082F7011182108216C0A6
:1023300090E0D9018D939C93F1018789908DDC0108
:10234000ED91FC910288F389E02D199538C0EE5487
:10235000FF4F8EEF9FEF9183808331C08A859B85ED
:102360000E948D20882309F4EDCAF101E756FF4F42
:1023700080819181019611F481E090E091838083C6
:1023800080819181F101968F878F8101075E1F4FB8
:1023900027E030E0A80164E875E08A859B850E940B
:1023A000C220F101E80FF91F118E9C012450310960
:1023B000A80162E88A859B850E94DC208C878C8539
:1023C0002E960FB6F894DEBF0FBECDBFDF91CF9132
:1023D0001F910F91FF90EF90DF90CF90BF90AF9043
:1023E0009F908F907F906F905F904F903F902F9035
:1023F000089580E008954A96089508951F93CF9315
:10240000DF93182F66E270E00E94B43AC82FD0E044
:1024100067E270E0812F0E94B43ADC2FCC279E0146
:10242000282BC901DF91CF911F910895AF92BF92E0
:10243000CF92DF92EF92FF920F931F93CF93DF9390
:102440001F92CDB7DEB77C018B018BE893E0D701FB
:102450008D939C935701B3E0AB0EB11CF70110862E
:10246000178286E090E00E94B24EFC011182108239
:102470001382128215821482D70114969C938E9334
:10248000139716969C938E931597F801C380D4806A
:10249000D80115968D919C911697C816D90661F0B2
:1024A000D60114966D917C911597C5010E94662BFB
:1024B000F601C280D380ECCF1A968D919C911B9728
:1024C000F701938782875701FDE0AF0EB11CD7015A
:1024D00052961C921E92519786E090E00E94B24E56
:1024E000FC01118210821382128215821482D7019C
:1024F0001E969C938E931D9750969C938E931F9738
:10250000F801C584D684D8011F968D919C9150976F
:10251000C816D90661F0D60114966D917C91159775
:10252000C5010E94B12BF601C280D380ECCF549636
:102530008D919C915597F701958B848B56968D9133
:102540009D910D90BC91A02D868B978BA08FB18F04
:10255000B801665E7F4F8E010F5F1F4F2FEF3FEF79
:1025600040E050E0C7014A960E9471470F90DF910A
:10257000CF911F910F91FF90EF90DF90CF90BF9080
:10258000AF9008950F931F93CF93DF93EC018BE8E7
:1025900093E09983888366E875E087EE9AE00E946D
:1025A0004A470E942F47CE014A960E943F058989DB
:1025B0009A89ED85FE85892B29F10280F381E02D32
:1025C000FE87ED870190F081E02D048115810115D2
:1025D000110531F0C8010E943F07C8010E94474F12
:1025E000ED85FE8580819181009711F00E94474F13
:1025F000ED85FE851182108289899A8901979A8BCF
:10260000898BD5CF048115810115110531F0C801E1
:102610000E943F07C8010E94474F8D859E85009705
:1026200039F10E94474F24C00280F381E02DFC83E2
:10263000EB830190F081E02D0481158101151105D6
:1026400031F0C8010E943F05C8010E94474FEB814D
:10265000FC8180819181009711F00E94474FEB81AE
:10266000FC81118210828F819885019798878F83D2
:102670008F819885EB81FC81892BB1F604811581CE
:102680000115110531F0C8010E943F05C8010E94E3
:10269000474F8B819C81009731F0DF91CF911F9143
:1026A0000F910C94474FDF91CF911F910F91089597
:1026B000CF92DF92EF92FF920F931F93FB01DC0109
:1026C00000E010E098016A01E12CF12C0C151D05C9
:1026D0002E053F0538F461916D930F5F1F4F2F4F0B
:1026E0003F4FF4CF840F951F1F910F91FF90EF90F4
:1026F000DF90CF9008952C9A08952C9808951F93F9
:10270000CF93DF93182F60E270E00E94B43AC82F95
:10271000D0E061E270E0812F0E94B43ADC2FCC2738
:102720009E01282BC901DF91CF911F9108958EBD85
:1027300000000DB407FEFDCF8EB50895CF92DF9255
:10274000EF92FF920F931F93CF93DF93EC017A01E7
:102750008B016C01C40ED51ECC15DD0579F0CDDFE3
:102760008FE0E5DF8D2FE3DF8C2FE1DF219680E026
:10277000DEDFF80181938F01BEDFEECFC701DF916D
:10278000CF911F910F91FF90EF90DF90CF90089520
:10279000CF92DF92EF92FF920F931F93CF93DF932D
:1027A000EC017A018B016C01C40ED51ECC15DD0540
:1027B00071F0A3DF80EFBBDF8D2FB9DF8C2FB7DF88
:1027C0002196F80181918F01B2DF95DFEFCFC7012C
:1027D000DF91CF911F910F91FF90EF90DF90CF90FD
:1027E00008951F93CF93DF931F921F92CDB7DEB74B
:1027F000182F6A83998381DF80EF99DF9981892F70
:1028000096DF812F94DF6A81862F91DF74DF81E06C
:102810000F900F90DF91CF911F9108951F93CF9349
:10282000DF931F921F92CDB7DEB7182F80E590E09F
:1028300069837A830E94462E21E041E050E069815D
:102840007A81812F0E946D090E94452E81E090E0DF
:102850000F900F90DF91CF911F910895CF93DF9349
:102860001F92CDB7DEB7FC01218D328D232B41F0B5
:10287000BE016F5F7F4F808DD1DF898190E002C004
:102880008FEF9FEF0F90DF91CF910895FF920F93FD
:102890001F93CF93DF93F82E80E590E00E94462EA1
:1028A000C0E0D0E08F2DAADD8C01892B19F08F2D8F
:1028B000A5DDEC01C017D107A9F70E94452ECE0176
:1028C000DF91CF911F910F91FF900895AF92BF922A
:1028D000CF92DF92EF92FF921F93CF93DF93182F47
:1028E0005B017A0180E590E00E94462EC0E0D0E0D6
:1028F000812F84DD6C01892B19F0812F7FDDEC01A4
:10290000CC15DD05A9F7209799F463E070E0812FDD
:102910000E94B43A8431F1F08823E1F0C1E0D0E0C4
:102920008C3111F4C0E0D0E0D195C195D10912C02D
:10293000EC16FD060CF4E7011C161D065CF420E005
:10294000AE01B501812F0E946D0960E470E0812F16
:102950000E94273C0E94452ECE01DF91CF911F910E
:10296000FF90EF90DF90CF90BF90AF900895CF93FE
:10297000DF93FC01218D328D2115310519F48FEF84
:102980009FEF10C0EC014217530708F0A901888D92
:102990009DDF181619069CF7298D3A8D281B390BD7
:1029A0003A8F298FDF91CF9108950F931F93CF9383
:1029B000DF931F92CDB7DEB7FC01218D328D232B23
:1029C00059F08C0141E050E0BE016F5F7F4F808D78
:1029D0007DDF181619061CF08FEF9FEF08C0F80175
:1029E000818D928D0197928F818F898190E00F90D8
:1029F000DF91CF911F910F910895CF93C82F80E55C
:102A000090E00E94462E60E170E08C2F0E94273CEF
:102A10004FEF62E070E08C2F0E94AA3ACF910C94A5
:102A2000452EFF920F931F93CF93DF931F921F9218
:102A3000CDB7DEB7F82E8A012A836983DEDF80E511
:102A400090E00E94462E2A816981462F422B60E049
:102A500070E08F2D0E94AA3A0115110551F40091E2
:102A6000A1081091A2080F5F1F4F1093A2080093B6
:102A7000A108412F64E070E08F2D0E94AA3A402FF8
:102A800065E070E08F2D0E94AA3A61E070E08F2D22
:102A90000E94273C0E94452E81E00F900F90DF910D
:102AA000CF911F910F91FF900895BF92CF92DF9227
:102AB000EF92FF920F931F93CF93DF9300D000D03C
:102AC000CDB7DEB7FC01208D243009F050C06A017B
:102AD0007B018C01B12C63E070E08B2D0E94B43A35
:102AE000811103C0F801B08E06C08831D9F3B394C8
:102AF000F4E0BF12F0CFF801808D8430C1F196E090
:102B0000E1E8F3E0DE01119601900D929A95E1F76C
:102B1000F70193819F779C8394819D8395819E8308
:102B2000B7016E5F7F4F90E0982F882744E050E018
:102B3000845F9B4F2DDEB601F801808D0E940D3B16
:102B4000F801808D90E0982F882746E050E0BE0184
:102B50006F5F7F4F8A5F9B4F1BDEF801128E118ED5
:102B600020E8A60162E0808D5CDF81E001C080E0AA
:102B700026960FB6F894DEBF0FBECDBFDF91CF9182
:102B80001F910F91FF90EF90DF90CF90BF9008952D
:102B90001F93CF93DF931F92CDB7DEB7182F80E539
:102BA00090E00E94462E63E070E0812F0E94B43ACC
:102BB00089830E94452E89810F90DF91CF911F91CB
:102BC0000895FC0126813781620F731F84819581EE
:102BD0008617970738F08281938177836683820F07
:102BE000931F089580E090E0089581E008950F9389
:102BF0001F93CF93DF931F92CDB7DEB78C01AE0149
:102C00004F5F5F4F68E975E00E94B947C8010F90B8
:102C1000DF91CF911F910F9108950F931F93CF9341
:102C2000DF938C0181E290E00E94B24EEC01B8018A
:102C3000FDDB8DEC93E099838883CE01DF91CF910A
:102C40001F910F9108956F927F928F929F92AF92F2
:102C5000BF92CF92DF92EF92FF920F931F93CF9389
:102C6000DF93CDB7DEB7C954D1090FB6F894DEBFF4
:102C70000FBECDBF7C015B014A01FC01C784D08837
:102C80008C01045F1F4FAB01B801CE0101960E9479
:102C9000AA078A819B81C816D906C9F5AE014F5F84
:102CA0005F4F63EA75E0CE01CA960E94B947B5014D
:102CB000CE01CA960E94BF0249EA55E0BE01665C99
:102CC0007F4FCE018F5B9F4F0E94B605B701665EB6
:102CD0007F4F44EC55E0CE0101960E94B6050E945C
:102CE0001033AE014F5B5F4FBE016F5F7F4F0E949D
:102CF0009B32CE0101960E943F05CE018F5B9F4F14
:102D00000E943F05CE01CA960E943F05E4C0B4016F
:102D1000CE0101960E94560AB501C8010E943008F2
:102D20006C0140E0BE016F5F7F4FCE018F5B9F4F14
:102D30000E947F2D22968FAD2297882309F441C0EF
:102D4000F60184819581892B11F015821482E98125
:102D5000FA8136970190F081E02DEC0FFD1F65841C
:102D600076846114710419F466246A94762CCE0179
:102D700001960E94D32D8C018F3FFFEF9F0709F42E
:102D800054C00E943B4E892B09F04FC0611471045E
:102D900009F44BC087C013968D919C9114970097AE
:102DA00009F464C01596ED91FC911697E817F907A0
:102DB00009F45CC08291801359C01696FC93EE937F
:102DC0001597B701665E7F4F4DEC55E0CE01CA9670
:102DD0000E94B6058E01085B1F4F2FEF3FEF40E0CA
:102DE00050E0BE01665C7F4FCE018F5B9F4F0E941B
:102DF0007147B501CE018F5B9F4F0E94BF020E94B9
:102E00001033A401BE016F5B7F4F0E949B32CE0145
:102E10008F5B9F4F0E943F05CE01CA960E943F05DF
:102E2000CE0101960E94560256C041E0BE016F5F7E
:102E30007F4FCE01CA960E947F2DE981FA81369795
:102E40008081918121E030E02C0F3D1F820F931F84
:102E5000FC012581222311F064E021C0FC01A3893B
:102E6000B489109709F097CF61E019C0ED91FC91FA
:102E70001197B80177270688F789E02DCD011995BC
:102E8000019609F09ECFE981FA8136978081918180
:102E900061E021E030E02C0F3D1F820F931F0E9464
:102EA000FC2B8FCFC80101978F3F910590F42A9694
:102EB0000FAF2A97F601648175816F5F7F4FAE0176
:102EC000475B5F4FC6010E94522CF1E06F1A7108F8
:102ED0004ECF00E0ECCFC75BDF4F0FB6F894DEBFFC
:102EE0000FBECDBFDF91CF911F910F91FF90EF905B
:102EF000DF90CF90BF90AF909F908F907F906F901A
:102F00000895EF92FF920F931F93CF93DF93CDB766
:102F1000DEB72A970FB6F894DEBF0FBECDBF7C0197
:102F20008BE893E0D70111969C938E9318961C9290
:102F30001E92179786E090E069877A870E94B24ECA
:102F4000FC01118210821382128215821482D70131
:102F500014969C938E93139716969C938E93159725
:102F60008AE392E01B969C938E931A9752961C923A
:102F70001E92519786E090E00E94B24EFC011182B1
:102F800010821382128215821482D7011E969C939E
:102F90008E931D9750969C938E931F978EE192E08F
:102FA00055969C938E935497F701168A178A108E24
:102FB000118E8E010F5F1F4F2FEF3FEF40E050E06B
:102FC00069857A85C7014A960E947147AE01485FBC
:102FD0005F4F6FEC75E0C8010E94B947B801C701A7
:102FE0000C960E9430086AED75E00E940607C80141
:102FF0000E943F05AE01485F5F4F60EE75E0C8017B
:103000000E94B947B801C70102960E94140628E140
:103010003BE1DC0111963C932E9313961C921E9279
:103020001297C8010E943F052A960FB6F894DEBF9A
:103030000FBECDBFDF91CF911F910F91FF90EF9009
:103040000895EF92FF920F931F93CF93DF93CDB725
:10305000DEB7C656D1090FB6F894DEBF0FBECDBF9E
:103060008091AD088111B0C21092A9081092A808F1
:1030700086E090E00E94B24EFC0111821082138221
:103080001282158214829093A5088093A4089093CD
:10309000A7088093A60887E299E29093AC088093F2
:1030A000AB0866EE75E087EE9AE00E944A470E9400
:1030B0002F47AE014A595F4F69EF75E0CE01885A3C
:1030C0009F4F0E94B947BE01685A7F4FCE010196BB
:1030D00018DF8DEC93E09A8389836EEF75E087EEBD
:1030E0009AE00E944A470E942F47AE014B595F4F1A
:1030F00067E176E0CE018F5A9F4F0E94B947AE013B
:103100004F5A5F4FBE016D5F7F4FCE018E599F4F6B
:103110000E940244A596EEADFFADA5978E819F81DA
:103120008E179F0751F064817581CE018F5A9F4F92
:103130000E942847882309F472C08E010E5D1F4F3C
:103140002FEF3FEF40E050E0BE016F5A7F4FCE01BE
:10315000C8960E94714721961FAE1EAE21972396F6
:103160001FAE1EAE23970B851C85BE01685C7F4F8A
:10317000CE0182960E94B143BE016E5D7F4FCE01AB
:103180008D96F8011995AE01435D5F4FBE016D5FED
:103190007F4FCE01815A9F4F0E940244CE018D96EF
:1031A0000E943F05CE0182960E943F05A296AEADD9
:1031B000BFADA2978E819F81A817B90709F096C16C
:1031C00088859985892B09F06FC186E090E00E947F
:1031D000B24E8C01BE01685C7F4F0E94DA431D83B2
:1031E0000C83EE81FF8111830083D80111961C921C
:1031F0001E921396FC93EE93129781E090E09987CC
:103200008887EE81FF8190818181A4969FAFA497EA
:10321000A5968FAFA597CE01C8960E943F05A596AB
:10322000EEADFFADA5970480F581E02D8EE293E42D
:103230009087878312861186CE018F5A9F4F0E94F6
:103240003F05AE014F5F5F4F63EA78E0CE018296A3
:103250000E945748CE0101960E946629CE01885AE5
:103260009F4F0E943F05AE014D5B5F4F61E276E0EC
:10327000CE018D960E94B947BE01635D7F4FCE019E
:1032800001963FDE8AEF94E09A83898368E276E0D4
:1032900087EE9AE00E944A470E942F47E091AF09CB
:1032A000F091B00982E08083E091AB09F091AC0924
:1032B0001082E091AD09F091AE098FEC80831092FD
:1032C000B709E091B309F091B40986E08083E091F9
:1032D000B109F091B209808180618083E091B109E8
:1032E000F091B209808188608083E091B109F0910A
:1032F000B209808180688083E091B109F091B209C0
:1033000080818F7D8083AE01485C5F4F65E676E00B
:10331000CE0182960E94B947BE016E5D7F4FCE01FD
:103320000D960E94300868E576E00E940607CE01FF
:1033300082960E943F05AE014F5F5F4F63EA78E0DF
:10334000CE0182960E945748CE0101960E945629CE
:10335000CE018D960E943F05AE014D5B5F4F6BE441
:1033600077E0CE018D960E94B947BE01635D7F4F25
:10337000CE010196C6DD87EF93E09A83898369E3E6
:1033800076E087EE9AE00E944A470E942F47AE01FE
:10339000485C5F4F6FEC75E0CE0182960E94B947A2
:1033A000BE016E5D7F4FCE010D960E94300864E530
:1033B00076E00E940607CE0182960E943F05AE018C
:1033C000485C5F4F6AE576E0CE0182960E94B9477D
:1033D000BE016E5D7F4FCE010D960E9430086EE5F6
:1033E00076E00E940607CE0182960E943F05AE015C
:1033F000485C5F4F6BE676E0CE0182960E94B9474B
:10340000BE016E5D7F4FCE010D960E94300862E7CF
:1034100076E00E940607CE0182960E943F05AE012B
:10342000485C5F4F68E976E0CE0182960E94B9471A
:10343000BE016E5D7F4FCE010D960E9430086FE396
:1034400077E00E940607CE0182960E943F05AE01FA
:10345000485C5F4F61EA76E0CE0182960E94B947F0
:10346000BE016E5D7F4FCE010D960E9430086FE366
:1034700077E00E940607CE0182960E943F05AE01CA
:103480004F5F5F4F63EA78E0CE0182960E94574813
:10349000CE0101960E944629CE018D960E943F05DD
:1034A00081E08093AD0890C086E090E00E94B24E2B
:1034B0008C01BE01685C7F4F0E94DA43EE81FF8180
:1034C00080819181D80111969C938E931396FC93E1
:1034D000EE931297A081B18113961C930E931297CD
:1034E0001183008388859985019689CE0B851C857B
:1034F00014966D917C911597CE0182960E94B143EE
:10350000BE016E5D7F4FCE018D5B9F4FF801199517
:103510000B851C85BE01685C7F4FCE018D960E9495
:10352000B143BE01635D7F4FCE01865B9F4FF801C3
:103530001995BE016D5B7F4FCE01865B9F4F0E9448
:103540002847182FCE01865B9F4F0E943F05CE0172
:103550008D960E943F05CE018D5B9F4F0E943F05D7
:10356000CE0182960E943F05A296EEACFFACA297D8
:10357000112339F186E090E00E94B24E8C01BE0129
:10358000685C7F4F0E94DA43D7018D919C91F801CE
:1035900091838083F382E282892B19F41D830C834B
:1035A00005C0D701ED91FC9113830283F7011183CC
:1035B000008388859985019699878887902F812F28
:1035C00024CE9E2D8F2D21CE83EA98E0CA59DF4F5D
:1035D0000FB6F894DEBF0FBECDBFDF91CF911F9124
:1035E0000F91FF90EF9008950F931F93CF93DF9368
:1035F0008C01FC01C081D181C130D10559F46281B7
:1036000073816115710531F08AEA96E00E940150DC
:10361000892B39F02197229720F4F8018281938138
:1036200002C080E090E0DF91CF911F910F9108954B
:103630008F929F92AF92BF92CF92DF92EF92FF92C2
:103640000F931F93CF93DF93CDB7DEB7C55FD1093B
:103650000FB6F894DEBF0FBECDBF7C01CB019E013B
:10366000275F3F4F3C832B8328EC30E03E832D8344
:1036700018861F8222EE34E03A8329830E94F905DE
:10368000009711F48FE397E09E012F5F3F4FCF52D9
:10369000DF4F39832883C15DD040CD52DF4F9983FE
:1036A0008883C35DD040CB52DF4F39832883C55D0B
:1036B000D0408AE0C952DF4F8883C75DD040CE0139
:1036C0008F529F4F0E94F102DC0112960D911C91C6
:1036D00013975701BCE0AB0EB11C6701EAE1CE0EB7
:1036E000D11C0115110509F49EC0C80104967CDFA8
:1036F000AE014B505F4FBC01CE0183519F4F0E94E2
:10370000B947D80112966D917C911397AE014C5038
:103710005F4FCE018A519F4F0E94B947F7018784BE
:103720009088AE014A515F4FB501CE018F529F4F35
:103730000E94AA07CE52DF4F88819981C25DD04096
:1037400088169906A9F4AE014F525F4F63EA75E0FF
:10375000CE0188529F4F0E94B947BE016A517F4FE8
:10376000CE0188529F4F0E94BF0249EA55E024C013
:10377000D701ED91FC910484F585E02DAE01435114
:103780005F4FBE016A517F4FC701199581113DC03E
:10379000AE014F525F4F63EA75E0CE0188529F4FF2
:1037A0000E94B947BE016A517F4FCE0188529F4F98
:1037B0000E94BF024FEA56E0BE0168527F4FCE0121
:1037C0008F529F4F0E94B60544EC55E0B601CE01E2
:1037D00081529F4F0E94B6050E941033AE014F5296
:1037E0005F4FBE0161527F4F0E949B32CE018152DA
:1037F0009F4F0E943F05CE018F529F4F0E943F0571
:10380000CE0188529F4F0E943F05CE018A519F4FA3
:103810000E943F05CE0183519F4F0E943F05F80152
:10382000008111815ECFCB50DF4F0FB6F894DEBF21
:103830000FBECDBFDF91CF911F910F91FF90EF9001
:10384000DF90CF90BF90AF909F908F900895DB0155
:10385000109749F0ED91FC9111970190F081E02DC6
:10386000BC01CD01199480E090E00895CF93DF93DF
:10387000EC01E881F9810288F389E02D19958F3FE9
:103880002FEF920731F02D813E812F5F3F4F3E8316
:103890002D83DF91CF9108958FEF9FEF089560E022
:1038A00070E0CB01089580E090E00895CB01089589
:1038B000CF93DF93EC0188899989DC01ED91FC912C
:1038C0000480F581E02D1995892B59F08889998913
:1038D000DC01ED91FC910680F781E02DDF91CF9125
:1038E00019948FEF9FEFDF91CF910895CF93DF93DE
:1038F000EC0188899989DC01ED91FC910480F581C6
:10390000E02D1995892B59F088899989DC01ED9171
:10391000FC910084F185E02DDF91CF9119948FEF18
:103920009FEFDF91CF910895AF92BF92CF92DF9238
:10393000EF92FF920F931F93CF93DF9300D01F92CC
:10394000CDB7DEB78C015B01C12CD12C7601F8011B
:1039500080899189DC01ED91FC910680F781E02D51
:1039600029833A834B835C83199529813A814B8162
:103970005C818F3F71F0C216D306E406F5064CF465
:10398000D5018D935D01BFEFCB1ADB0AEB0AFB0A71
:10399000DECFC701B6010F900F900F900F90DF910F
:1039A000CF911F910F91FF90EF90DF90CF90BF903C
:1039B000AF900895DC0150968D919C915197DC0158
:1039C000ED91FC910480F581E02D199480E090E068
:1039D000089580E090E00895089580E090E00895D3
:1039E000CB01089580E090E00895CF92DF92EF92AE
:1039F000FF920F931F93CF93DF93EC018B010E94F3
:103A0000DE3E6B017C0188819981DC01ED91FC91A6
:103A10000480F581E02D1995892B79F40E94DE3E12
:103A2000AB01BC014C195D096E097F0948395A4345
:103A30006105710540F380E00CC088819981DC014B
:103A4000ED91FC910680F781E02D1995F8018083B6
:103A500081E0DF91CF911F910F91FF90EF90DF9068
:103A6000CF9008950F931F93CF93DF938C01EB01B9
:103A70006F3F8FEF780719F480E090E00FC06A3055
:103A800031F46DE0F801808991890E94290C6C2F36
:103A9000F801808991890E94290CCE01DF91CF9194
:103AA0001F910F9108958F929F92BF92CF92DF92B4
:103AB000EF92FF920F931F93CF93DF9300D01F924B
:103AC000CDB7DEB78C014B01C12CD12C7601C216CB
:103AD000D306E406F50644F5F401B1904F01FAE08F
:103AE000BF120EC06DE0F8018089918929833A8365
:103AF0004B835C830E94290C5C814B813A81298134
:103B00006B2DF8018089918929833A834B835C83EB
:103B10000E94290CFFEFCF1ADF0AEF0AFF0A5C812F
:103B20004B813A812981D3CFCA01B9010F900F90FF
:103B30000F900F90DF91CF911F910F91FF90EF9019
:103B4000DF90CF90BF909F908F9008950C94474F37
:103B50000C94474F089508950C94474FDC01ED9164
:103B6000FC91369720813181820F931FF5CF0C9401
:103B7000474F2F923F924F925F926F927F928F9218
:103B80009F92AF92BF92CF92DF92EF92FF920F93EC
:103B90001F93CF93DF93CDB7DEB7E3970FB6F894BB
:103BA000DEBF0FBECDBF7C011A012B0139010E947F
:103BB000DE3E4B015C0187010D5B1F4FC8010E9477
:103BC000413918161906A4F00E94DE3EDC01CB0133
:103BD00088199909AA09BB09281639064A065B06FD
:103BE000D8F062E370E080E090E00E94A63EE6CF6D
:103BF00042E250E0BE016F5F7F4FC8010E94B714E0
:103C00008981823011F080E061C1F8018489958951
:103C100083349105C1F702C08FEF58C16D817E8159
:103C20008F8198850E94AB4E4B015C01F30160834C
:103C300071838283938346E050E0B701685F7F4FD2
:103C4000CE014D960E94E34F892BE9F6F701808162
:103C50009181A281B38188169906AA06BB0698F2C3
:103C600084819581A681B78188159905AA05BB0530
:103C700050F289899A89AB89BC8986879787A08BFE
:103C8000B18B8EECA82EB12CC8010E94D514F1E0A6
:103C9000AF1AB108C9F719A6670182E2C80ED11C94
:103CA000F701B696FBA7EAA7C7018A969DA78CA73E
:103CB0003C974F0189969FA78EA73897F9ABE8AB41
:103CC0001701F6E12F0E311CC5979BAB8AABF801AB
:103CD000818D928D181619060CF0F7C0C8010E944C
:103CE000D5148333910509F4CBC0FCF481309105E0
:103CF000C9F11CF4892B59F3DCC083309105D1F153
:103D0000069709F0D6C0C8010E94D5145C0144E0B2
:103D100050E06AA97BA9C8010E94B714412C512C1C
:103D2000BB24F4E0AF1AB10840C08A33910509F40E
:103D30007BC03CF48533910569F0C69709F440C017
:103D4000B8C08B33910509F485C08F3F910509F404
:103D5000BECFAFC0C8010E94D514C8010E94D514BF
:103D600089A7B5CFC8010E94D51444E050E068A9E6
:103D700079A93AC0C8010E94D5145C0144E050E022
:103D8000B101C8010E94B714412C512CBB2494E00E
:103D9000A91AB1084A145B040CF099CFC8010E941B
:103DA000D514EFEF4E1A5E0AF5CF4A145B040CF0FF
:103DB0008ECFC8010E94D5148FEF481A580AF5CF4C
:103DC000C8010E94D514B82EF701828D811110C050
:103DD000838D81110DC0848D81110AC0858D811163
:103DE00007C044E050E0B401C8010E94B7146FCF8F
:103DF000EEA5FFA54080518062807380B401CE01A2
:103E000083960E94B63D8DA19EA1AFA1B8A5841551
:103E10009505A605B70529F3BB2009F458CFC801BD
:103E20000E94D514BA94F8CFC8010E94D51444E07A
:103E300050E06AA57BA5C8010E94B714F70166A1EE
:103E400077A180A591A50E94AB4E66A377A380A71A
:103E500091A73DCFC8010E94D51444E050E06CA565
:103E60007DA5C8010E94B714F70162A573A584A5BA
:103E700095A50E94AB4E62A773A784A795A727CFED
:103E8000C8010E94D51444E050E0B601C8010E9468
:103E9000B714F70162A173A184A195A10E94AB4E52
:103EA00062A373A384A395A366A777A780AB91AB06
:103EB0000ECFC8010E94D514B82EBB2009F407CF3D
:103EC000C8010E94D514BA94F8CF89A5E3960FB61D
:103ED000F894DEBF0FBECDBFDF91CF911F910F9140
:103EE000FF90EF90DF90CF90BF90AF909F908F901A
:103EF0007F906F905F904F903F902F9008957F92AA
:103F00008F929F92AF92BF92CF92DF92EF92FF92E9
:103F10000F931F93CF93DF93CDB7DEB7A6970FB65E
:103F2000F894DEBF0FBECDBF8C01762E942E852E69
:103F300020E2B22ECE0101967C01FC012B2D1192C4
:103F40002A95E9F78DEC94E09AA389A38FEF8BA3D0
:103F50008CA38DA38EA3680183E4C80ED11C43E417
:103F600050E0BE016F5D7F4FC6010E941C3B019671
:103F700009F4BFC081E089838A8386E0A82EAB82E2
:103F80001C82F80164817581868197810E94AB4E05
:103F90006D837E838F83988789869A8680E890E0F8
:103FA0009C878B874CE150E0B701C6010E949A398B
:103FB000F7012B2D11922A95E9F7480188E0880E28
:103FC000911CF401D70101900D92AA94E1F740E110
:103FD00050E0B701C6010E949A39F7011192BA94D4
:103FE000E9F796E0A92EB12C40E250E0B701C601F6
:103FF0000E949A39F1E0AF1AB108B1F783E68983DC
:1040000092E89A8393E59B838C8385E38D8381E09B
:104010008E837F829DE3988797E099878A8786E0E1
:10402000F401DE011B9601900D928A95E1F78CE078
:10403000898B8A8B67EC76E0CE0143960E940A500A
:10404000F8014385BE01675E7F4FC8010E9436328A
:10405000F8014485BE01655E7F4FC8010E9436327B
:10406000F8014585BE01635E7F4FC8010E9436326C
:104070004EE150E0B701C6010E949A39F3E07F1289
:104080001EC082E3898384E08A83F80196859B833E
:1040900097859C8390899D8391899E8396E39F83D6
:1040A0008887828D8987838D8A87848D8B87858D8C
:1040B0008C874CE050E0B701C6010E949A3987E333
:1040C000898386E08A8391E09B8393E09C838D8340
:1040D0008FE08E838AE38F838BE388878FEF8987D6
:1040E00049E050E0B701C6010E949A39C6010E941A
:1040F000DA3AA6960FB6F894DEBF0FBECDBFDF91B9
:10410000CF911F910F91FF90EF90DF90CF90BF90D4
:10411000AF909F908F907F900895CF93DF93FC0195
:10412000A081B181109741F1EC01ED91FC911197C3
:104130000488F589E02DCD01199581111FC0FE017C
:10414000E556FF4F80819181892BB1F48DEF9FEF70
:104150009183808388819981DC01ED91FC910284B7
:10416000F385E02D199588819981DC01ED91FC9111
:104170000288F389E02D199580E001C081E0DF918C
:10418000CF910895C9010296DB01FD01E61BF70BF3
:104190002D91222331F0FA01E80FF91F20830196B7
:1041A000F4CF9C012E1B3F0B420F531FDA011297D5
:1041B000FC931196EC930895AF92BF92CF92DF9249
:1041C000EF92FF920F931F93CF93DF9300D01F9234
:1041D000CDB7DEB77C01162FD90180E09A2F9F77EB
:1041E000AA0FAB2FAA1FBB0BB195109709F09068CF
:1041F000E1E0F0E0EC0FFD1FE80FF11D90838F5F11
:10420000109761F7E82FF0E0BA016E1B7F0B6C5F2F
:104210007F4FDB011C93CE0101965C0180E090E0B2
:104220008E179F076CF4D501DD905D018C010E1B8C
:104230001F0B040F151FD8011596DC920196F0CFC5
:10424000D7018D919C9189010F5F1F4F0E0F1F1F8A
:10425000DC01ED91FC910280F381E02DA80119951C
:104260006C010E94DE3EF701EC57FF4F60837183C3
:104270008283938381E0C016D10609F080E00F901D
:104280000F900F900F90DF91CF911F910F91FF90A2
:10429000EF90DF90CF90BF90AF9008952F923F9214
:1042A0004F925F926F927F928F929F92AF92BF9246
:1042B000CF92DF92EF92FF920F931F93CF93DF93F2
:1042C00000D01F92CDB7DEB78C015B017C0142E0CC
:1042D000E40EF11CB70189DB811129C025C05FEF15
:1042E000451A550A8981D1018D931D01682F6F7779
:1042F00070E0669DF001679DF00D769DF00D112434
:10430000CE0EDF1E47E0660C771C881C991C4A9570
:10431000D1F787FF1EC0BE016F5F7F4FC8012C839E
:1043200064DB2C818111DBCF80E090E09BC0D80161
:1043300012962C9119821801B3E02B0E311C4424E3
:104340004394512CC12CD12C612C712C43016394CA
:10435000E2CF822F807F33243394803309F0312CD5
:104360008FEF840DF5018083332039F1B701640D9F
:10437000751DC8013ADB8823B9F2B2016F5F7F4F28
:104380006E0D7F1DC80131DB882371F2F2E04F0E04
:10439000511CD5018C91F801E80FF11D6380712C3F
:1043A000762C66248481680E711CF801828181FF5D
:1043B00008C0F2E06F0E711C04C080E0612C712C0B
:1043C00001C082E0E82EF12CE418F508A801475658
:1043D0005F4F5B834A832EEF822E99249A94C70104
:1043E000840D951D8C159D0580F5BE016F5F7F4F77
:1043F000C801FBDA882309F497CFAA81BB818D918C
:104400009C910097A9F0332099F0F5012081A40137
:10441000421B51099A01240D351D6216730640F4A2
:10442000DC01ED91FC910190F081E02D69811995FD
:10443000B0E84B16510428F48981F801E40DF51D0C
:104440008283EFEF4E1A5E0ACACFF801E756FF4F9C
:1044500080819181892B29F4F1E84F16510408F0ED
:1044600063CFC2010F900F900F900F90DF91CF910B
:104470001F910F91FF90EF90DF90CF90BF90AF9082
:104480009F908F907F906F905F904F903F902F9074
:10449000089508951F93CF93DF93EC01162F8F8516
:1044A00080FF0BC0E881F9810084F185E02D20E1D7
:1044B00044E060E070E0CE011995EB85FC852D8528
:1044C0003E85812F90E0E217F30758F410832B8587
:1044D0003C852F5F3F4F3C872B87DF91CF911F910A
:1044E0000895E881F981028CF38DE02DBC01CE01A5
:1044F000DF91CF911F911994AF92BF92CF92DF922B
:10450000EF92FF920F931F93CF93DF9300D01F92F0
:10451000CDB7DEB78C015B01C12CD12C7601C21660
:10452000D306E406F506ACF4F50161915F01C8011C
:1045300029833A834B835C83ADDF29813A814B81A8
:104540005C81019649F06FEFC61AD60AE60AF60AB0
:10455000E6CFB901CA0102C0B601C7010F900F90A2
:104560000F900F90DF91CF911F910F91FF90EF90DF
:10457000DF90CF90BF90AF9008950895FB01208108
:104580003181FC0131832083FB0142815381F90198
:10459000369720813181FC01E20FF31F5183408364
:1045A000089523EB34E0FC01318320832DEB34E0CC
:1045B000358B248B63EC74E0E1CFDC01ED91FC9151
:1045C000369720813181820F931FEBCFCF93DF93FA
:1045D000EC01E7DFCE01DF91CF910C94474FDC0176
:1045E000ED91FC91369720813181820F931FEECFA0
:1045F000DB012D913C911197FC0131832083F9015E
:10460000369720813181FC01E20FF31F12968D91C4
:104610009C9113979183808381E290E094838383BC
:10462000548B438B1582158A08950895FC012081CF
:10463000022E000C330B80E090E0A901082E02C08E
:10464000559547950A94E2F7642F6170AC014C5F71
:104650005F4FF90102C0F595E7954A95E2F7AF0182
:104660004170641731F001968430910531F781E093
:10467000089580E0089508950F931F93CF93DF93DB
:104680001F92CDB7DEB78C01AE014F5F5F4F6EE674
:1046900075E00E94B947C8010F90DF91CF911F913B
:1046A0000F9108950F931F93CF93DF93CDB7DEB78C
:1046B00028970FB6F894DEBF0FBECDBF8C01AE01B8
:1046C000485F5F4F6EE675E0CE0101960E94B947E4
:1046D0004EEC56E0BE016F5F7F4FC8010E94B605E9
:1046E000CE0101960E943F05C80128960FB6F894A6
:1046F000DEBF0FBECDBFDF91CF911F910F91089507
:104700000F931F93CF93DF93CDB7DEB728970FB6E4
:10471000F894DEBF0FBECDBF8C01AE01485F5F4F86
:104720006EE675E0CE0101960E94B94741EE56E073
:10473000BE016F5F7F4FC8010E94B605CE01019692
:104740000E943F05C80128960FB6F894DEBF0FBE41
:10475000CDBFDF91CF911F910F9108950F931F93BC
:10476000CF93DF938C018AE290E00E94B24EEC017D
:10477000B8010E94161288E0F801B196DE01919608
:1047800001900D928A95E1F7F80181A589A78CEB3C
:1047900092E099838883CE01DF91CF911F910F9191
:1047A00008950F931F93CF93DF938C018AE290E0DB
:1047B0000E94B24EEC01B8010E94161288E0F80186
:1047C000B196DE01919601900D928A95E1F7F8017C
:1047D00081A589A78AEA92E099838883CE01DF9137
:1047E000CF911F910F91089525EE33E0FC013183A5
:1047F00020830C94C212CF93DF93EC01F5DFCE013E
:10480000DF91CF910C94474F25EE33E0FC013183CB
:1048100020830C94C212CF93DF93EC01F5DFCE011D
:10482000DF91CF910C94474F25EE33E0FC013183AB
:1048300020830C94C212CF93DF93EC01F5DFCE01FD
:10484000DF91CF910C94474FCF93DF93EC018BEB2B
:1048500093E09983888385EC93E09E8F8D8FCE01C2
:104860000296F6D46FEA73E0CE01DF91CF9186CE47
:10487000DC01ED91FC91369720813181820F931FED
:10488000E3CFCF93DF93EC01DFDFCE01DF91CF9158
:104890000C94474FDC01ED91FC91369720813181DA
:1048A000820F931FEECFEF92FF920F931F93CF9340
:1048B000DF931F92CDB7DEB78C017B016F3F7F4F37
:1048C00019F480E090E027C0F801878584FF21C0BB
:1048D000F801818D928D648975898617970750F04C
:1048E000E9826F5F7F4FAE014F5F5F4FC801409617
:1048F000D9D707C0F80120893189F901E80FF91FDC
:10490000E082F801818D928D0196928F818FC7018F
:1049100002C08FEF9FEF0F90DF91CF911F910F910A
:10492000FF90EF900895EF92FF920F931F93CF9314
:10493000DF93CDB7DEB764970FB6F894DEBF0FBE36
:10494000CDBF8C01DC01ED91FC9136970190F08197
:10495000E02DE80FF91F8381948185FD18C086FF43
:1049600005C092FD17C023E037E01FC087FF15C0C8
:104970009C012227307292FF05C0232B89F42CE082
:1049800037E013C0232B79F425E137E00EC02AEF7E
:1049900036E00BC02EEF36E008C020E030E005C066
:1049A00027E037E002C021E137E07F936F935F9308
:1049B0004F933F932F931F9284E18F939E012F5F1C
:1049C0003F4F79013F932F930E941F509C01990FF5
:1049D000440B550BB701C8010E948C04D801ED911E
:1049E000FC9136970190F081E02DE00FF11F83815B
:1049F00094810FB6F894DEBF0FBECDBF96FF03C003
:104A0000C8010E94490464960FB6F894DEBF0FBE39
:104A1000CDBFDF91CF911F910F91FF90EF9008953F
:104A20008091C308811127C060E082E00E946A3E45
:104A3000E0EFF2E0E491E093B508EAEAF2E0E49115
:104A4000F0E0EE0FFF1FE65AFD4F85919491909391
:104A5000B7088093B6081092C0081092C20810924E
:104A6000C108E0ECF8E0129288E0E83BF807D9F7DB
:104A700081E08093C30885EB98E008956F927F9260
:104A80009F92AF92BF92CF92DF92EF92FF920F93DD
:104A90001F93CF93DF931F921F92CDB7DEB76C01A8
:104AA0007B015A0163E475E0C7010E9454358823F5
:104AB00039F06BE475E0C7010E94543581110EC0D6
:104AC00068E576E0C5010E945435882349F069E124
:104AD00077E0C5010E945435882311F0912C83C0E2
:104AE0009FDF8C010E940E408823C1F3360181E2D2
:104AF000680E711CB301C8010E94E33F41E065EFFD
:104B0000C8010E94A23FC8010E94583F682F70E070
:104B1000CE0102960E949938CE01029687DD982E2A
:104B20008823E1F2C8010E940E408823B9F2B30144
:104B3000C8010E94E33F41E06AE5C8010E94A23F2C
:104B400019828A8180FF02C091E09983998182FF56
:104B500002C0926001C09D7F998363E475E0C70144
:104B60000E942D35882361F068E576E0C5010E943A
:104B70002D359981882311F0916001C09E7F998322
:104B80006BE475E0C7010E942D35882361F068E56C
:104B900076E0C5010E942D359981882311F092603D
:104BA00001C09D7F9983CE0101960E94093541E0A5
:104BB000682FC8010E94A23F898180958983CE0118
:104BC00001960E94093541E0682FC8010E94A23F6A
:104BD000C8010E94583F8A3A09F080CFA501B70169
:104BE000C6010E942316892D0F900F90DF91CF915F
:104BF0001F910F91FF90EF90DF90CF90BF90AF90FB
:104C00009F907F906F9008958F929F92AF92BF92E6
:104C1000CF92DF92EF92FF920F931F93CF93DF9388
:104C2000CDB7DEB761970FB6F894DEBF0FBECDBF2C
:104C30008C010E94DE3EF801C688D788E08CF18C9A
:104C40009B01AC012C193D094E095F0969017A01EC
:104C5000AE01485F5F4F6FEC75E0CE0101960E9498
:104C6000B947BE016F5F7F4FC8010E9482354B017B
:104C70005C01CE0101960E943F05C814D904EA04E4
:104C8000FB0410F4F12C81C00E94DE3EF801668B1B
:104C9000778B808F918F6BE177E087EE9AE00E94AF
:104CA0004A470E942F47BCDE7C010E940E408823A9
:104CB00049F3B8016F5D7F4FC7010E94E33F41E0B8
:104CC00065EFC7010E94A23FC7010E94583F682FAD
:104CD00070E0CE010F960E949938CE010F96A6DCA7
:104CE000F82E882379F28F8580FD03C069E177E093
:104CF00002C068E576E0AE014F5E5F4FCE010896D8
:104D00000E94B947AE01405F5F4F63E475E0CE019A
:104D100001960E94B947AE01485F5F4FBE016F5FC9
:104D20007F4FC8010E942316CE0101960E943F05C5
:104D3000CE0108960E943F058F8582FD03C069E180
:104D400077E002C068E576E0AE014F5E5F4FCE01CE
:104D500008960E94B947AE01405F5F4F6BE475E073
:104D6000CE0101960E94B947AE01485F5F4FBE0178
:104D70006F5F7F4FC8010E942316CE0101960E94EB
:104D80003F05CE0108960E943F058F2D61960FB614
:104D9000F894DEBF0FBECDBFDF91CF911F910F9171
:104DA000FF90EF90DF90CF90BF90AF909F908F904B
:104DB00008959F92AF92BF92CF92DF92EF92FF92AF
:104DC0000F931F93CF93DF93CDB7DEB7E4970FB662
:104DD000F894DEBF0FBECDBF6C018B0181E290E085
:104DE0009AA389A31BA21CA21DA286E090E0A0E0CA
:104DF000B0E08EA39FA3A8A7B9A71AA61BA61CA6BE
:104E00001DA689E894E09F8F8E8F80E28EA718AA56
:104E10001FA6AE014D5F5F4F5AAB49AB1BAA6FEAAD
:104E200073E0CE010196E4DB8BEB93E09A838983F8
:104E300085EC93E09F8F8E8F1F821E8219861886C5
:104E40001B861A861D861C861F861E86198A188A4E
:104E50001A8A80EE92E09C838B83BE016C5C7F4F4C
:104E6000CE0143960E94A6051B8E1A8E1D8E1C8EA7
:104E700080E18A8B780100E010E08FE2A82E87E0C5
:104E8000B82EF70191907F01E981FA813697019060
:104E9000F081E02D329681E090E08C0F9D1FE80FAD
:104EA000F91F818192818F71806292838183E98170
:104EB000FA8136970190F081E02D329681E090E002
:104EC0008C0F9D1FE80FF91F81819281946092835E
:104ED0008183BE016F5F7F4FCE01C4960E942E0575
:104EE000492D50E060E070E0CE0101961CDDB50177
:104EF000CE0101960E944A470F5F1F4F08301105EF
:104F000049F00730110509F0B8CF9FE3A92E97E0CB
:104F1000B92EB7CF8E010C5C1F4F2FEF3FEF40E053
:104F200050E0BE016D5E7F4FC6010E947147CE0109
:104F300001968ADCC601E4960FB6F894DEBF0FBE78
:104F4000CDBFDF91CF911F910F91FF90EF90DF9038
:104F5000CF90BF90AF909F900895EF92FF920F93E4
:104F60001F93CF93DF93CDB7DEB727970FB6F89493
:104F7000DEBF0FBECDBF8C017B01CE01019619DFD4
:104F8000BE016F5F7F4FC8010E948117CE0101965D
:104F90000E943F0585EE93E0F8019183808388E0CD
:104FA000F701D801919601900D928A95E1F781E081
:104FB000F80181A727960FB6F894DEBF0FBECDBFCC
:104FC000DF91CF911F910F91FF90EF9008950F9374
:104FD0001F93CF93DF93EC01CB01088119817B8371
:104FE0006A830E94B24E9983888320E030E08C81EE
:104FF0009D812817390770F4E881F981E20FF31FCA
:10500000309729F0D801A20FB31F8C9180832F5FB6
:105010003F4FEDCFC801DF91CF911F910F910C94BD
:10502000474F0F931F93CF93DF93EC01DB01ED917B
:10503000FC910680F781E02DCB0119958C01E88168
:10504000F9810680F781E02DCE011995B801DF9135
:10505000CF911F910F910C942847CF92DF92EF923E
:10506000FF920F931F93CF93DF931F92CDB7DEB7BD
:105070008C017B016A01B9010E94A6058FEFC81659
:10508000D80611F40E94DF4FE114F10479F019827F
:10509000AE014F5F5F4FB601C80104D4F8014481EF
:1050A0005581B701808191810E9458130F90DF9143
:1050B000CF911F910F91FF90EF90DF90CF900895C7
:1050C0000F931F93CF93DF931F92CDB7DEB78C0161
:1050D000DB011496ED91FC911597E417F50710F498
:1050E0000E94DF4FE41BF50B2E173F0708F4F90170
:1050F000DB016D917C91640F751F9E012F5F3F4F07
:10510000AF01C801AADFC8010F90DF91CF911F91B5
:105110000F910895FC018789908D009769F124898A
:1051200035892817390718F4308F278B25C0019748
:105130006F3F2FEF720729F4908F878B80E090E00C
:105140000895A089B1899B01215031092F3F310574
:1051500048F4262FA80FB91F3C91231305C0908F48
:10516000878B08C020E0F6CF278524FF05C0908FED
:10517000878B6C93CB0108958FEF9FEF0895CF93AA
:10518000DF93EC01E881F9810288F389E02D19951C
:105190008F3F2FEF920731F02F89388D2F5F3F4FD0
:1051A000388F2F8BDF91CF910895FC012789308DA7
:1051B000848995892817390740F480899189FC01F1
:1051C000E20FF31F808190E008958FEF9FEF089525
:1051D000EF92FF92CF93DF93FC01DB0160E070E080
:1051E000CB01E788F08CC489D589EC16FD06A8F4BC
:1051F000621773078407950784F4C089D189CE0D9F
:10520000DF1DC881CD936F5F7F4F8F4F9F4FC78941
:10521000D08D2196D08FC78BE4CFDF91CF91FF90B7
:10522000EF900895FC01848995892789308D821B30
:10523000930B089580E090E00895242FDC01ED9118
:10524000FC910084F185E02D41E0199408950895C2
:1052500020EE32E0FC013183208340960C943F0520
:10526000089508950C94474FDC01ED91FC91369719
:1052700020813181820F931FF5CFCF93DF93EC0113
:10528000E7DFCE01DF91CF910C94474F27EF33E05A
:10529000FC01318320830C94C212CF93DF93EC0185
:1052A000F5DFCE01DF91CF910C94474F2AEF34E028
:1052B000FC01318320830C94C212CF93DF93EC0165
:1052C000F5DFCE01DF91CF910C94474F2DEC33E009
:1052D000FC01318320830C94C212CF93DF93EC0145
:1052E000F5DFCE01DF91CF910C94474F06970C94D8
:1052F0001502DC01ED91FC91369720813181820FFE
:10530000931F0C94150206970C94F901DC01ED91A2
:10531000FC91369720813181820F931F0C94F90103
:10532000FC01A081B1818C918D3051F024F4895021
:105330008230B8F505C0803219F08F3219F0089527
:1053400011962CC011968C9111978A3219F08F32D8
:10535000D1F008951196B183A083A081B181CD01D0
:1053600001969183808311968C9111978823C9F0BF
:105370008A3299F712968C9112978F3271F71396A1
:105380000DC08A3071F2A081B181CD010196918367
:10539000808311968C918111F4CF03C0B183A083D7
:1053A000C0CF08950F931F93CF93DF931F92CDB774
:1053B000DEB78C016983B4DFD801ED91FC911197C0
:1053C00080816981861305C03196ED93FC9381E05D
:1053D00001C080E00F90DF91CF911F910F91089550
:1053E000EF92FF920F931F93CF93DF931F921F9221
:1053F000CDB7DEB77C01FC011182108213821282CC
:10540000158214828BE090E069837A830E94B24E09
:105410008C0169817A810E94C903F7011583048395
:105420000F900F90DF91CF911F910F91FF90EF9010
:105430000895EF92FF920F931F93CF93DF931F92E4
:105440001F92CDB7DEB77C01FC011182108213825E
:105450001282158214828EE090E069837A830E9422
:10546000B24E8C0169817A810E94F303F7011583A2
:1054700004830F900F90DF91CF911F910F91FF90B8
:10548000EF900895DC0113968D919C911497892BD0
:1054900059F01596ED91FC91169717968D919C9168
:1054A0001897E817F90741F4ED91FC9111970488DA
:1054B000F589E02DCD01199481911696FC93EE9318
:1054C000159790E00895DC0113968D919C911497A7
:1054D000892B59F01596ED91FC91169717968D91A1
:1054E0009C911897E817F90741F4ED91FC911197F9
:1054F0000288F389E02DCD011994808190E0089510
:10550000FB0120813181FC0131832083FB01428139
:105510005381F901369720813181FC01E20FF31F9D
:10552000518340830895DB012D913C911197FC013B
:1055300031832083F90136970190F081E02DE80F47
:10554000F91F12962D913C91139731832083DC0132
:1055500012961D921D921D921C92159781E290E069
:1055600094838383548B438B1582158A0895EF921D
:10557000FF920F931F93CF93DF938C01DC0114965E
:10558000CD91DC911597EA80FB808E819F81E80E9A
:10559000F91EC8010296C4DED8011296ED91FC9165
:1055A000139790819732A9F1923299F180ED890F8A
:1055B0008A3078F081EA890F8C3158F08FEB890FAF
:1055C0008A3138F09B3229F083ED890F823008F060
:1055D00060C0F801228133812F5F3F4F33832283E4
:1055E0002E813F81A9014F5F5F4F6C817D816417E0
:1055F000750740F06A817B81FB01E20FF31F5F8337
:105600004E839083D8011296ED91FC91139790816F
:10561000CDCF3196D8011396FC93EE931297D80113
:105620001296ED91FC9113972081222391F1AF0105
:105630004F5F5F4F13965C934E931297291749F172
:105640002C35A9F42181A5E3B7E08C91882339F0AA
:10565000821303C011962C9102C01296F6CF22231A
:10566000C1F03296D8011396FC93EE9312974E81B7
:105670005F81BA016F5F7F4FEC81FD81E617F7070D
:1056800070F2EA81FB81E40FF51F7F836E83208334
:10569000C6CF8E819F819C012F5F3F4F4C815D81E2
:1056A0004217530748F04A815B81FA01E80FF91F5E
:1056B0003F832E83108202C0E12CF12CC701DF91C1
:1056C000CF911F910F91FF90EF900895EF92FF926D
:1056D0000F931F93CF93DF93EC017B018C819D810E
:1056E000892BC1F486E090E00E94B24E8C01B70194
:1056F00077DE19830883EA81FB8111830083D80157
:1057000011961C921E921396FC93EE93129781E0D1
:1057100090E01EC086E090E00E94B24E8C01B7017E
:105720005FDEEA81FB8180819181D80111969C9393
:105730008E931396FC93EE931297A081B1811396EA
:105740001C930E931297118300838C819D81019687
:105750009D838C83DF91CF911F910F91FF90EF90EC
:105760000895EF92FF920F931F93CF93DF93EC0175
:105770007B018C819D81892BC1F486E090E00E94A1
:10578000B24E8C01B70155DE19830883EA81FB8193
:1057900011830083D80111961C921E921396FC93DC
:1057A000EE93129781E090E01EC086E090E00E94A8
:1057B000B24E8C01B7013DDEEA81FB81808191818F
:1057C000D80111969C938E931396FC93EE931297A7
:1057D000A081B18113961C930E93129711830083BD
:1057E0008C819D8101969D838C83DF91CF911F9148
:1057F0000F91FF90EF900895FC019581692B8389AB
:105800009489892B09F46160658308958F929F9232
:10581000AF92BF92EF92FF920F931F93CF93DF93BC
:10582000EC017B0149015A01E881F9813697019029
:10583000F081E02DE80FF91F03891489D8011F9624
:105840008C911F9780FF0BC0ED91FC910084F18536
:10585000E02D20E144E060E070E0C8011995D80136
:10586000ED91FC91008CF18DE02DA5019401B70123
:10587000C80119956F3F7F4F49F4E881F981369748
:105880008081918162E08C0F9D1FB6DFCE01DF9198
:10589000CF911F910F91FF90EF90BF90AF909F908D
:1058A0008F900895EF92FF920F931F93CF93DF9302
:1058B000EC018C819D818617970708F57A018B0191
:1058C0008A819B818617970738F4685F7F4F861718
:1058D000970710F4CE017BDB8C819D8180179107A7
:1058E00058F4E881F981E80FF91F309719F0D701D2
:1058F0002C9120830196F2CF1D830C8305C068177D
:10590000790710F47D836C83DF91CF911F910F9104
:10591000FF90EF9008952F923F924F925F926F9277
:105920007F928F929F92AF92BF92CF92DF92EF922F
:10593000FF920F931F93CF93DF93CDB7DEB72C97D2
:105940000FB6F894DEBF0FBECDBF6C0129013A013E
:10595000FC01A18CB28C9E01265F3F4FA201CE01BB
:1059600001967BDBF601E488F588EA14FB0410F469
:105970000E94DF4F97012A193B0982012415350542
:1059800008F489018D809E80E01AF10AC401809597
:105990009095E816F90660F7E80CF91CC6014096E8
:1059A0001C010815190550F41886AE01485F5F4FB9
:1059B000B7012B873C8776DF3C852B85F6018089F4
:1059C0009189A901401B510BB8016A0D7B1D680F1D
:1059D000791FF401EA0DFB1D8E0F9F1F0E94F04FEF
:1059E00069817A81F60180899189A4018A0D9B1DC4
:1059F0000E9458131986AE01475F5F4FB701C1017E
:105A000051DFCE0101960E943F05F601818D928DF6
:105A1000840D951D928F818FC301B2012C960FB614
:105A2000F894DEBF0FBECDBFDF91CF911F910F91D4
:105A3000FF90EF90DF90CF90BF90AF909F908F90AE
:105A40007F906F905F904F903F902F900895EF92CE
:105A5000FF920F931F93CF93DF931F92CDB7DEB7C3
:105A6000FC01922F9870822F80712871283119F4CF
:105A70004230A9F43AC0413011F48B0116C04230D3
:105A800081F4882329F004891589060F171F02C0A5
:105A900000E010E0992349F00789108D04C04130DF
:105AA00061F304891589060F171F2489358920178A
:105AB0003107D8F0992311F0108F078B882399F0C4
:105AC0007F011982AE014F5F5F4FB801CF01409651
:105AD000E9DEF701848995892789308D821793073C
