:1000000095C10000C4C10000C2C10000C0C1000011
:10001000BEC10000BCC10000BAC10000B8C10000F0
:10002000B6C10000B4C10000B2C10000B0C1000000
:10003000AEC10000ACC10000AAC10000A8C1000010
:10004000A6C10000A4C10000A2C10000A0C1000020
:100050009EC100009CC100009AC100000C941B1BB3
:1000600096C100000C94651A0C943C1A90C10000D3
:100070008EC100008CC100008AC1000088C1000050
:1000800086C1000084C1000082C1000080C1000060
:100090007EC100007CC100007AC1000078C1000070
:1000A00076C1000074C1000072C1000070C1000080
:1000B0006EC100006CC100006AC1000068C1000090
:1000C00066C1000064C1000062C1000060C10000A0
:1000D0005EC100005CC100005AC1000058C10000B0
:1000E00056C1000088228B227A227E228222C222DE
:1000F0008F22932299229D22A122A722AB22AF22F6
:10010000C222B522B922BD2200002200250028000B
:100110002B002E003100340002010000050108010F
:100120000B0100000A0B02090C0D0E080703040165
:1001300000000000000000000000000000000000BF
:10014000000000000000000000000000000012118C
:10015000100000000000000000000000000000008F
:100160000000000000000000000021002400270023
:100170002A002D00300033000101000004010701B6
:100180000A01000020002300260029002C002F0077
:100190003200000100000301060109010505050503
:1001A000070508080808020202020A0A08080404EF
:1001B000040401010101010101010303030303031D
:1001C0000303040707070C0C0C0C0C0C0C0C0202AC
:1001D000020206060606060606060B0B0B0B0B0BA9
:1001E0000B0B010210202008081020401020408036
:1001F00002010201080402010102040810204080EB
:100200008040201008040201800402018040201078
:1002100008040201080402010102040810204080C1
:100220000102040810204080005EBCE2613FDD83D3
:10023000C29C7E20A3FD1F419DC3217FFCA2401EC6
:100240005F01E3BD3E6082DC237D9FC1421CFEA0B6
:10025000E1BF5D0380DE3C62BEE0025CDF81633DA6
:100260007C22C09E1D43A1FF4618FAA427799BC596
:1002700084DA3866E5BB5907DB856739BAE4065886
:100280001947A5FB7826C49A653BD987045AB8E676
:10029000A7F91B45C6987A24F8A6441A99C7257B66
:1002A0003A6486D85B05E7B98CD2306EEDB3510F56
:1002B0004E10F2AC2F7193CD114FADF3702ECC9246
:1002C000D38D6F31B2EC0E50AFF1134DCE90722C36
:1002D0006D33D18F0C52B0EE326C8ED0530DEFB126
:1002E000F0AE4C1291CF2D73CA947628ABF5174916
:1002F0000856B4EA6937D58B5709EBB536688AD406
:1003000095CB2977F4AA4816E9B7550B88D6346AF5
:100310002B7597C94A14F6A8742AC896154BA9F7E5
:10032000B6E80A54D7896B359F289B2811241FBE35
:10033000CFEFD1E2DEBFCDBF00E00CBF14E0A0E004
:10034000B2E0EAE7FDE500E00BBF02C007900D92C6
:10035000A43DB107D9F727E0A4EDB4E001C01D9298
:10036000AB37B207E1F711E0C5E9D1E000E006C024
:1003700021970109802FFE010E945D2AC439D1070F
:1003800080E00807A9F70E949B1F0C94AC2E38CE82
:1003900080E3FB0180833296842F82958F7090E1F9
:1003A000899F401911244A3014F4405D01C0495C12
:1003B0004293482F8111F0CF0895CB010895CF9338
:1003C000DF93EC01E881F9810288F389E02D19952A
:1003D0008F3F2FEF920731F02D813E812F5F3F4FEE
:1003E0003E832D83DF91CF9108958FEF9FEF089586
:1003F00060E070E0CB01089580E090E00895CB01CB
:100400000895CF93DF93EC0188899989DC01ED9100
:10041000FC910480F581E02D1995892B59F088898C
:100420009989DC01ED91FC910680F781E02DDF9147
:10043000CF9119948FEF9FEFDF91CF910895CF93D4
:10044000DF93EC0188899989DC01ED91FC910480AE
:10045000F581E02D1995892B59F088899989DC015E
:10046000ED91FC910084F185E02DDF91CF911994FD
:100470008FEF9FEFDF91CF910895AF92BF92CF9210
:10048000DF92EF92FF920F931F93CF93DF9300D0F1
:100490001F92CDB7DEB78C015B01C12CD12C760148
:1004A000F80180899189DC01ED91FC910680F7814A
:1004B000E02D29833A834B835C83199529813A8106
:1004C0004B815C818F3F71F0C216D306E406F506BE
:1004D0004CF4D5018D935D01BFEFCB1ADB0AEB0A1B
:1004E000FB0ADECFC701B6010F900F900F900F905F
:1004F000DF91CF911F910F91FF90EF90DF90CF9000
:10050000BF90AF900895DC0150968D919C915197CA
:10051000DC01ED91FC910480F581E02D199480E0DF
:1005200090E0089580E090E0089580E090E00895E4
:1005300080E090E008950895CF92DF92EF92FF92CD
:100540000F931F93CF93DF93EC018B010E940F1B3E
:100550006B017C0188819981DC01ED91FC91048023
:10056000F581E02D1995892B79F40E940F1BAB01C1
:10057000BC014C195D096E097F0948395A43610570
:10058000710540F380E00CC088819981DC01ED9118
:10059000FC910680F781E02D1995F801808381E0B8
:1005A000DF91CF911F910F91FF90EF90DF90CF904F
:1005B00008950F931F93CF93DF938C01EB016F3F4F
:1005C0008FEF780719F480E090E00FC06A3031F4C3
:1005D0006DE0F801808991890E947B1D6C2FF801E4
:1005E000808991890E947B1DCE01DF91CF911F915F
:1005F0000F9108958F929F92BF92CF92DF92EF92C8
:10060000FF920F931F93CF93DF9300D01F92CDB72C
:10061000DEB78C014B01C12CD12C7601C216D3065A
:10062000E406F50644F5F401B1904F01FAE0BF127B
:100630000EC06DE0F8018089918929833A834B834C
:100640005C830E947B1D5C814B813A8129816B2DEB
:10065000F8018089918929833A834B835C830E94C6
:100660007B1DFFEFCF1ADF0AEF0AFF0A5C814B8187
:100670003A812981D3CFCA01B9010F900F900F9011
:100680000F90DF91CF911F910F91FF90EF90DF902E
:10069000CF90BF909F908F9008950C94012B0C9455
:1006A000012B089508950C94012BDC01ED91FC9130
:1006B000369720813181820F931FF5CF0C94012B47
:1006C00008958CBD9DBD08952F923F924F925F92E9
:1006D0006F927F928F929F92AF92BF92CF92DF9252
:1006E000EF92FF920F931F93CF93DF93CDB7DEB7B7
:1006F00065970FB6F894DEBF0FBECDBF7C016B01CE
:100700003A01FB0120E080E090E06AE03191332380
:1007100009F140ED430F4A3080F4689FA001699FC2
:10072000500D1124CA01C097830F911D37FD9A9572
:100730008F3F910559F350F313C03E3289F42330B3
:1007400079F0D301A20FB11D12968C932F5F80E038
:1007500090E0DCCF233021F4F301858381E021C0D8
:10076000F701428153816481758180914C0690919B
:100770004D06A0914E06B0914F06481759076A07DB
:100780007B0709F49EC10E940F1B8701085F1F4F62
:100790006F7077277C5FC8010E945411813019F077
:1007A00080E090E0F3C18FE494E09A838983F701BD
:1007B00082819381A481B5818B839C83AD83BE8329
:1007C00045E350E0BE016F5F7F4FC8010E945C129D
:1007D000892B19F4C12CD12C6FC10E940F1BF7017A
:1007E000778366837627672776277A83698342E053
:1007F00050E0BE016F5F7F4FC8010E94951081E0FD
:1008000090E09E878D8742E050E0BE01635F7F4F9E
:10081000C8010E94951080E091E09E878D8742E09C
:1008200050E0BE01635F7F4FC8010E9495101E8695
:100830001D8642E050E0BE01635F7F4FC8010E9409
:10084000951042E050E0BE01635F7F4FC8010E94F7
:10085000951042E050E0BE01635F7F4FC8010E94E7
:1008600095105601F5018081882311F1F6015F0191
:100870008191811115C045018C189D081814190427
:1008800094F48F8641E050E0BE01615F7F4FC80164
:100890000E949510A401B601C8010E94951003C0E2
:1008A0008E3229F7E8CF6501FFEFCF1ADF0ADACFE2
:1008B0001F8641E050E0BE01615F7F4FC8010E948A
:1008C0009510C12CDD24D394DE86CD8642E050E025
:1008D000BE01635F7F4FC8010E949510DE86CD8602
:1008E00042E050E0BE01635F7F4FC8010E94951057
:1008F000C8010E94A811892B09F46CCF63E0A62ED1
:10090000B12CF2E06F0E711C0E940F1B1B012C0119
:10091000C8010E943E1018161906A4F00E940F1B71
:10092000DC01CB0182199309A409B50989389341E7
:10093000A105B105D0F462E370E080E090E00E9490
:10094000D71AE6CFF7014281538164817581808D8A
:10095000918DA28DB38D481759076A077B0741F423
:10096000848D958DC59721F406C02FEF3FEF9AC077
:100970002EEF3FEF97C0F70181A192A10C970CF4E5
:10098000A6C04CE050E0BE016F5F7F4FC8010E94DF
:10099000F80F8B8190E0982F88272C81822B9A8BDF
:1009A000898B298130E0322F22274A81242BF701BD
:1009B000468157814217530709F086C097FF84C0CC
:1009C0008F709270892B09F0DEC0CF80D12CDC2C87
:1009D000CC248885C82AC114D10409F4D1C0812C43
:1009E000912C8D8190E0982F88272E81822B88165C
:1009F000990608F46FC0812C912C41E050E0BE01B3
:100A00006D5E7F4FC8010E94F80F8B89982F907CF4
:100A100009F093C0811186C08B898111EECF42E02D
:100A200050E0BE01615F7F4FC8010E94F80F42E0B5
:100A300050E0BE01635F7F4FC8010E94F80FC801FC
:100A40000E941610C8010E941610C8010E941610BC
:100A5000C8010E94161042E050E0BE016F5E7F4F59
:100A6000C8010E94F80F8F8598898115914009F07F
:100A700069C02D853E853227232732272130310555
:100A800009F060C089899A898115944009F075C080
:100A900044E050E0B301C8012C8B3D8B0E94F80F5D
:100AA0002C893D896901F1E0AF1AB10829F02FEFD7
:100AB000C216D20609F428CFC8010E944011C6010F
:100AC00065C08EEF9FEF62C02CEF3FEFEBCF2DEFB5
:100AD0003FEFE8CF41E050E0BE01635F7F4FC801C8
:100AE0000E94F80F8D85811113C08D858111F2CF81
:100AF000C8010E941610C8010E941610C8010E9469
:100B00001610C8010E941610FFEF8F1A9F0A69CFB6
:100B10008D859FEF980F9D87882339F3C8010E9428
:100B20001610F6CF8B899FEF980F9B8B882309F4C3
:100B300073CFC8010E941610F5CFC8010E9416108D
:100B40001B8A6ACF412C512C89899A899827892739
:100B500098274816590638F4C8010E9416108FEFDE
:100B6000481A580AF1CFEFEF8E1A9E0A8C149D0492
:100B700009F043CF26EF3FEF95CF27EF3FEF92CF1E
:100B80002AEF3FEF8FCF2BEF3FEF8CCF65960FB65D
:100B9000F894DEBF0FBECDBFDF91CF911F910F91B3
:100BA000FF90EF90DF90CF90BF90AF909F908F908D
:100BB0007F906F905F904F903F902F9008952F926D
:100BC0003F924F925F926F927F928F929F92AF92DD
:100BD000BF92CF92DF92EF92FF920F931F93CF932A
:100BE000DF93CDB7DEB7E3970FB6F894DEBF0FBE45
:100BF000CDBF7C011A012B0139010E940F1B4B0153
:100C00005C0187010D5B1F4FC8010E943E10181642
:100C10001906A4F00E940F1BDC01CB018819990969
:100C2000AA09BB09281639064A065B06D8F062E312
:100C300070E080E090E00E94D71AE6CF42E250E0F8
:100C4000BE016F5F7F4FC8010E94F80F898182301B
:100C500011F080E061C1F8018489958983349105A0
:100C6000C1F702C08FEF58C16D817E818F81988559
:100C70000E94652A4B015C01F301608371838283CA
:100C8000938346E050E0B701685F7F4FCE014D96F9
:100C90000E94A52B892BE9F6F70180819181A28121
:100CA000B38188169906AA06BB0698F284819581BD
:100CB000A681B78188159905AA05BB0550F28989D7
:100CC0009A89AB89BC8986879787A08BB18B8EEC7C
:100CD000A82EB12CC8010E941610F1E0AF1AB1087D
:100CE000C9F719A6670182E2C80ED11CF701B696B2
:100CF000FBA7EAA7C7018A969DA78CA73C974F013F
:100D000089969FA78EA73897F9ABE8AB1701F6E154
:100D10002F0E311CC5979BAB8AABF801818D928D4C
:100D2000181619060CF0F7C0C8010E94161083337C
:100D3000910509F4CBC0FCF481309105C9F11CF494
:100D4000892B59F3DCC083309105D1F1069709F066
:100D5000D6C0C8010E9416105C0144E050E06AA9A8
:100D60007BA9C8010E94F80F412C512CBB24F4E050
:100D7000AF1AB10840C08A33910509F47BC03CF436
:100D80008533910569F0C69709F440C0B8C08B332C
:100D9000910509F485C08F3F910509F4BECFAFC01E
:100DA000C8010E941610C8010E94161089A7B5CF6D
:100DB000C8010E94161044E050E068A979A93AC021
:100DC000C8010E9416105C0144E050E0B101C80166
:100DD0000E94F80F412C512CBB2494E0A91AB108B1
:100DE0004A145B040CF099CFC8010E941610EFEF73
:100DF0004E1A5E0AF5CF4A145B040CF08ECFC80180
:100E00000E9416108FEF481A580AF5CFC8010E94A9
:100E10001610B82EF701828D811110C0838D8111BB
:100E20000DC0848D81110AC0858D811107C044E0F9
:100E300050E0B401C8010E94F80F6FCFEEA5FFA5E6
:100E40004080518062807380B401CE0183960E94FD
:100E50002C1A8DA19EA1AFA1B8A584159505A60554
:100E6000B70529F3BB2009F458CFC8010E9416101A
:100E7000BA94F8CFC8010E94161044E050E06AA569
:100E80007BA5C8010E94F80FF70166A177A180A594
:100E900091A50E94652A66A377A380A791A73DCF5D
:100EA000C8010E94161044E050E06CA57DA5C80161
:100EB0000E94F80FF70162A573A584A595A50E946D
:100EC000652A62A773A784A795A727CFC8010E94A8
:100ED000161044E050E0B601C8010E94F80FF70177
:100EE00062A173A184A195A10E94652A62A373A344
:100EF00084A395A366A777A780AB91AB0ECFC8015B
:100F00000E941610B82EBB2009F407CFC8010E941A
:100F10001610BA94F8CF89A5E3960FB6F894DEBF01
:100F20000FBECDBFDF91CF911F910F91FF90EF903A
:100F3000DF90CF90BF90AF909F908F907F906F90F9
:100F40005F904F903F902F9008957F928F929F9245
:100F5000AF92BF92CF92DF92EF92FF920F931F93C7
:100F6000CF93DF93CDB7DEB7A6970FB6F894DEBF69
:100F70000FBECDBF8C01762E942E852E20E2B22E90
:100F8000CE0101967C01FC012B2D11922A95E9F7E7
:100F90008FE494E09AA389A38FEF8BA38CA38DA3F6
:100FA0008EA3680183E4C80ED11C43E450E0BE0167
:100FB0006F5D7F4FC6010E945C12019609F4BBC0B1
:100FC00081E089838A8386E0A82EAB821C82F801A7
:100FD00064817581868197810E94652A6D837E83F5
:100FE0008F83988789869A8680E890E09C878B8794
:100FF0004CE150E0B701C6010E949510F7012B2D7E
:1010000011922A95E9F7480188E0880E911CF401B5
:10101000D70101900D92AA94E1F740E150E0B701A9
:10102000C6010E949510F7011192BA94E9F796E073
:10103000A92EB12C40E250E0B701C6010E949510E4
:10104000F1E0AF1AB108B1F783E6898392E89A8399
:1010500093E59B838C8385E38D8381E08E837F8200
:101060009DE3988797E099878A8786E0F401DE01FF
:101070001B9601900D928A95E1F78CE0898B8A8B03
:1010800069EA74E0CE0143960E94C32BF8014385C0
:10109000BE01675E7F4FC8017BD9F8014485BE0160
:1010A000655E7F4FC80174D9F8014585BE01635E56
:1010B0007F4FC8016DD94EE150E0B701C6010E94D3
:1010C0009510F3E07F121EC082E3898384E08A8357
:1010D000F80196859B8397859C8390899D83918950
:1010E0009E8396E39F838887828D8987838D8A87F5
:1010F000848D8B87858D8C874CE050E0B701C601CD
:101100000E94951087E3898386E08A8391E09B8320
:1011100093E09C838D838FE08E838AE38F838BE3C0
:1011200088878FEF898749E050E0B701C601FDD776
:10113000C6010E94A811A6960FB6F894DEBF0FBE96
:10114000CDBFDF91CF911F910F91FF90EF90DF9076
:10115000CF90BF90AF909F908F907F900895CF9346
:10116000DF93FC01A081B181109741F1EC01ED9179
:10117000FC9111970488F589E02DCD011995811115
:101180001FC0FE01E556FF4F80819181892BB1F48C
:101190008DEF9FEF9183808388819981DC01ED91B0
:1011A000FC910284F385E02D199588819981DC01F9
:1011B000ED91FC910288F389E02D199580E001C042
:1011C00081E0DF91CF910895C9010296DB01FD0115
:1011D000E61BF70B2D91222331F0FA01E80FF91FDE
:1011E00020830196F4CF9C012E1B3F0B420F531F0F
:1011F000DA011297FC931196EC930895AF92BF9287
:10120000CF92DF92EF92FF920F931F93CF93DF93D2
:1012100000D01F92CDB7DEB77C01162FD90180E038
:101220009A2F9F77AA0FAB2FAA1FBB0BB1951097D0
:1012300009F09068E1E0F0E0EC0FFD1FE80FF11D10
:1012400090838F5F109761F7E82FF0E0BA016E1B73
:101250007F0B6C5F7F4FDB011C93CE0101965C011D
:1012600080E090E08E179F076CF4D501DD905D0162
:101270008C010E1B1F0B040F151FD8011596DC9255
:101280000196F0CFD7018D919C9189010F5F1F4F7F
:101290000E0F1F1FDC01ED91FC910280F381E02D08
:1012A000A80119956C010E940F1BF701EC57FF4F25
:1012B000608371838283938381E0C016D10609F035
:1012C00080E00F900F900F900F90DF91CF911F91C2
:1012D0000F91FF90EF90DF90CF90BF90AF90089567
:1012E0002F923F924F925F926F927F928F929F9236
:1012F000AF92BF92CF92DF92EF92FF920F931F9324
:10130000CF93DF9300D01F92CDB7DEB78C015B0186
:101310007C0142E0E40EF11CB7010ED9811129C015
:1013200025C05FEF451A550A8981D1018D931D01B2
:10133000682F6F7770E0669DF001679DF00D769DD8
:10134000F00D1124CE0EDF1E47E0660C771C881CC2
:10135000991C4A95D1F787FF1EC0BE016F5F7F4F72
:10136000C8012C83E9D82C818111DBCF80E090E08B
:101370009BC0D80112962C9119821801B3E02B0E54
:10138000311C44244394512CC12CD12C612C712C40
:1013900043016394E2CF822F807F332433948033E0
:1013A00009F0312C8FEF840DF5018083332039F162
:1013B000B701640D751DC801BFD88823B9F2B20109
:1013C0006F5F7F4F6E0D7F1DC801B6D8882371F205
:1013D000F2E04F0E511CD5018C91F801E80FF11D80
:1013E0006380712C762C66248481680E711CF80150
:1013F000828181FF08C0F2E06F0E711C04C080E0A2
:10140000612C712C01C082E0E82EF12CE418F50863
:10141000A80147565F4F5B834A832EEF822E9924A3
:101420009A94C701840D951D8C159D0580F5BE010C
:101430006F5F7F4FC80180D8882309F497CFAA81B6
:10144000BB818D919C910097A9F0332099F0F50113
:101450002081A401421B51099A01240D351D6216F9
:10146000730640F4DC01ED91FC910190F081E02DD8
:1014700069811995B0E84B16510428F48981F80167
:10148000E40DF51D8283EFEF4E1A5E0ACACFF80114
:10149000E756FF4F80819181892B29F4F1E84F169F
:1014A000510408F063CFC2010F900F900F900F907E
:1014B000DF91CF911F910F91FF90EF90DF90CF9030
:1014C000BF90AF909F908F907F906F905F904F9064
:1014D0003F902F9008951F93CF93DF93EC01162F29
:1014E0008F8580FF0BC0E881F9810084F185E02DB4
:1014F00020E144E060E070E0CE011995EB85FC85C9
:101500002D853E85812F90E0E217F30758F4108374
:101510002B853C852F5F3F4F3C872B87DF91CF91F9
:101520001F910895E881F981028CF38DE02DBC01B3
:10153000CE01DF91CF911F911994AF92BF92CF92BC
:10154000DF92EF92FF920F931F93CF93DF9300D020
:101550001F92CDB7DEB78C015B01C12CD12C760177
:10156000C216D306E406F506ACF4F50161915F01FD
:10157000C80129833A834B835C83ADDF29813A819B
:101580004B815C81019649F06FEFC61AD60AE60AD4
:10159000F60AE6CFB901CA0102C0B601C7010F9031
:1015A0000F900F900F90DF91CF911F910F91FF90AF
:1015B000EF90DF90CF90BF90AF9008950895089579
:1015C000FB0120813181FC0131832083FB014281B9
:1015D0005381F901369720813181FC01E20FF31F1D
:1015E00051834083089525E334E0FC013183208357
:1015F0002FE334E0358B248B65E474E0E1CFDC012C
:10160000ED91FC91369720813181820F931FEBCFB2
:10161000CF93DF93EC01E7DFCE01DF91CF910C9404
:10162000012BDC01ED91FC91369720813181820FF5
:10163000931FEECFDB012D913C911197FC0131837B
:101640002083F901369720813181FC01E20FF31FDD
:1016500012968D919C9113979183808381E290E003
:1016600094838383548B438B1582158A0895089540
:1016700008951F93CF93DF93182F66E270E048D64A
:10168000C82FD0E067E270E0812F42D6DC2FCC2754
:101690009E01282BC901DF91CF911F910895FC0174
:1016A0009581692B83899489892B09F4616065830D
:1016B0000895CF93DF93EC01E881F981369701908B
:1016C000F081E02DE80FF91F8389948904DF0196EA
:1016D00049F4E881F98136978081918162E08C0F2D
:1016E0009D1FDDDFCE01DF91CF9108958F929F92F4
:1016F000AF92BF92EF92FF920F931F93CF93DF931E
:10170000EC017B0149015A01E881F981369701908A
:10171000F081E02DE80FF91F03891489D8011F9685
:101720008C911F9780FF0BC0ED91FC910084F18597
:10173000E02D20E144E060E070E0C8011995D80197
:10174000ED91FC91008CF18DE02DA5019401B70184
:10175000C80119956F3F7F4F49F4E881F9813697A9
:101760008081918162E08C0F9D1F99DFCE01DF9116
:10177000CF911F910F91FF90EF90BF90AF909F90EE
:101780008F900895CF92DF92EF92FF920F931F9365
:10179000CF93DF93EC018C819D818617970708F02A
:1017A0003FC07A018B012A813B812617370728F534
:1017B000CB0108962817390700F5C880D9809B838C
:1017C0008A830E946C2A9983888320E030E08C8190
:1017D0009D812817390770F4E881F981E20FF31F22
:1017E000309729F0D601A20FB31F8C9180832F5F11
:1017F0003F4FEDCFC6010E94012B8C819D81801748
:10180000910758F4E881F981E80FF91F309719F032
:10181000D7012C9120830196F2CF1D830C8305C044
:101820006817790710F47D836C83DF91CF911F9146
:101830000F91FF90EF90DF90CF900895CF93DF93BB
:10184000EC01E881F98136970190F081E02DE80FF5
:10185000F91F83899489DC01ED91FC910484F5855D
:10186000E02D1995019649F4E881F9813697808138
:10187000918161E08C0F9D1F12DFCE01DF91CF912E
:1018800008956F927F928F929F92AF92BF92CF9264
:10189000DF92EF92FF920F931F93CF93DF9300D0CD
:1018A0001F92CDB7DEB73C018B01DC01ED91FC91BD
:1018B00036970190F081E02D3296E80FF91FC2842F
:1018C000D384E484F584C21AD30AE40AF50A818138
:1018D00092818E709927049761F54601570118147B
:1018E00019041A041B04D4F4B1E08B1A9108A1085E
:1018F000B108D301ED91FC9136970190F081E02D74
:10190000E60DF71D6089C30129833A834B835C830D
:10191000D0DE5C814B813A812981E1CFD701C601BC
:10192000F7FE03C080E090E0DC01C81AD90AEA0A99
:10193000FB0AB801C301DADED301ED91FC913697C1
:101940000190F081E02DE60DF71D838194818E706A
:101950009927029701F1D301ED91FC91369780818F
:101960009181860D971DFC011486158616861786B3
:101970000F900F900F900F90DF91CF911F910F91CB
:10198000FF90EF90DF90CF90BF90AF909F908F909F
:101990007F906F9008951C141D041E041F04DCF634
:1019A000F1E0CF1AD108E108F108D301ED91FC91E3
:1019B00036970190F081E02DE60DF71D6089C30197
:1019C00078DEE9CF21E0FC012083FB01A081B18119
:1019D00016978D919C91E80FF91F81899289009744
:1019E00009F02CCF0895FC01808191810C94012B8A
:1019F0000F931F93CF93DF93C091D504D091D6045A
:101A00008091D7049091D8048C179D07B9F1EC818F
:101A1000FD81008111810115110529F0C801E3DF65
:101A2000C8010E94012B0A80DB81C02DE9CF028012
:101A3000F381E02DF093D604E093D5040190F0817A
:101A4000E02D848195810E94012BE091D504F091D5
:101A5000D60480819181009711F00E94012BE091C2
:101A6000D504F091D604118210828091D90490910E
:101A7000DA0401979093DA048093D9048091D90411
:101A80009091DA04E091D504F091D604892B79F68F
:101A9000848195810E94012B8091D5049091D60478
:101AA000009731F0DF91CF911F910F910C94012B92
:101AB000DF91CF911F910F9108950F931F93CF93B3
:101AC000DF931F92CDB7DEB78C01BC01CE0101962A
:101AD00079DF6AE0C801EDDDC801B0DEC8010F9012
:101AE000DF91CF911F910F910895EF92FF920F9385
:101AF0001F93CF93DF931F92CDB7DEB78C017B018D
:101B0000BC01CE0101965EDFF70101900020E9F7EC
:101B100031979F012E193F0940E050E0B701C801FD
:101B2000B0DEC8010F90DF91CF911F910F91FF9010
:101B3000EF900895CF92DF92EF92FF920F931F9351
:101B4000FB01DC0100E010E098016A01E12CF12CBE
:101B50000C151D052E053F0538F461916D930F5F3F
:101B60001F4F2F4F3F4FF4CF840F951F1F910F91A1
:101B7000FF90EF90DF90CF900895AF92BF92CF92F9
:101B8000DF92EF92FF920F931F93CF93DF931F92F9
:101B9000CDB7DEB78C016B017A01590188E090E086
:101BA000F80193838283158214820E946C2AF801C3
:101BB00091838083F601848195818E159F0510F4B1
:101BC0000E94992B1982BC016E197F09A616B706CF
:101BD00008F4B501AE014F5F5F4FC801D3DDF801D6
:101BE00044815581F601608171816E0D7F1DF80180
:101BF000808191819FDF0F90DF91CF911F910F9195
:101C0000FF90EF90DF90CF90BF90AF9008952C9A07
:101C100008952C9808951F93CF93DF93182F60E2B7
:101C200070E076D3C82FD0E061E270E0812F70D3EE
:101C3000DC2FCC279E01282BC901DF91CF911F916A
:101C400008958EBD00000DB407FEFDCF8EB508953A
:101C5000CF92DF92EF92FF920F931F93CF93DF9378
:101C6000EC017A018B016C01C40ED51ECC15DD058B
:101C700079F0CFDF8FE0E5DF8D2FE3DF8C2FE1DF21
:101C8000219680E0DEDFF80181938F01C0DFEECF87
:101C9000C701DF91CF911F910F91FF90EF90DF90DF
:101CA000CF900895CF92DF92EF92FF920F931F9300
:101CB000CF93DF93EC017A018B016C01C40ED51E2A
:101CC000CC15DD0571F0A5DF80EFBBDF8D2FB9DF0F
:101CD0008C2FB7DF2196F80181918F01B2DF97DF5A
:101CE000EFCFC701DF91CF911F910F91FF90EF9040
:101CF000DF90CF9008951F93CF93DF931F921F9291
:101D0000CDB7DEB7182F6A83998383DF80EF99DF21
:101D10009981892F96DF812F94DF6A81862F91DF49
:101D200076DF81E00F900F90DF91CF911F910895A2
:101D30001F93CF93DF931F921F92CDB7DEB7182F5B
:101D400080E590E069837A830E94610321E041E0AD
:101D500050E069817A81812F0E94361C0E946003C5
:101D600081E090E00F900F90DF91CF911F91089547
:101D7000FF920F931F93CF93DF93F82E80E590E0AF
:101D80000E946103C0E0D0E08F2D73DC8C01892BB1
:101D900019F08F2D6EDCEC01C017D107A9F70E9456
:101DA0006003CE01DF91CF911F910F91FF900895B5
:101DB000AF92BF92CF92DF92EF92FF921F93CF9399
:101DC000DF93182F5B017A0180E590E00E946103A8
:101DD000C0E0D0E0812F4DDC6C01892B19F0812F00
:101DE00048DCEC01CC15DD05A9F7209791F463E000
:101DF00070E0812F8DD28431F1F08823E1F0C1E0D1
:101E0000D0E08C3111F4C0E0D0E0D195C195D1097A
:101E100012C0EC16FD060CF4E7011C161D065CF45E
:101E200020E0AE01B501812F0E94361C60E470E015
:101E3000812F0E94261C0E946003CE01DF91CF916A
:101E40001F91FF90EF90DF90CF90BF90AF900895DB
:101E5000CF93C82F80E590E00E94610360E170E0BD
:101E60008C2F0E94261C4FEF62E070E08C2F47D22F
:101E7000CF910C946003FF920F931F93CF93DF9346
:101E80001F921F92CDB7DEB7F82E8A012A8369838D
:101E9000DFDF80E590E00E9461032A816981462F9F
:101EA000422B60E070E08F2D2AD20115110551F40C
:101EB00000911F06109120060F5F1F4F1093200600
:101EC00000931F06412F64E070E08F2D18D2402F41
:101ED00065E070E08F2D13D261E070E08F2D0E94DD
:101EE000261C0E94600381E00F900F90DF91CF913C
:101EF0001F910F91FF9008951F93CF93DF931F922F
:101F0000CDB7DEB7182F80E590E00E94610363E053
:101F100070E0812FFDD189830E94600389810F9039
:101F2000DF91CF911F9108950895CF93DF931F9272
:101F3000CDB7DEB76983DC01ED91FC910280F381BE
:101F4000E02D41E050E0BE016F5F7F4F19950F908B
:101F5000DF91CF910895FC01818D928D0895FC0150
:101F60008489958908952FE434E0FC01318320832E
:101F7000FB014089518962897389FC014283538343
:101F8000648375830895DC01ED91FC91028CF38DDF
:101F9000E02D199480E00895FC019485FB0184856F
:101FA000981303C081E0943009F480E0089521E0A3
:101FB000FC018485843009F420E0822F089508957F
:101FC000CF93DF931F92CDB7DEB7FC01218D328D09
:101FD000232B41F0BE016F5F7F4F808DA9DE898189
:101FE00090E002C08FEF9FEF0F90DF91CF910895A7
:101FF000CF93DF93FC01218D328D2115310519F42A
:102000008FEF9FEF10C0EC014217530708F0A901B2
:10201000888DCEDE181619069CF7298D3A8D281B5F
:10202000390B3A8F298FDF91CF9108950F931F932A
:10203000CF93DF931F92CDB7DEB7FC01218D328D98
:10204000232B59F08C0141E050E0BE016F5F7F4FC0
:10205000808DAEDE181619061CF08FEF9FEF08C0BA
:10206000F801818D928D0197928F818F898190E007
:102070000F90DF91CF911F910F9108950F931F93B0
:10208000CF93DF93CDB7DEB728970FB6F894DEBFB6
:102090000FBECDBF8C01F801818D928D892B49F047
:1020A000D801ED91FC910680F781E02DC8011995CA
:1020B000F2CF808D5DDE1816190654F548E050E029
:1020C000BE016F5F7F4FD80158968C9171DE9C01E5
:1020D00018161906DCF489819A81AB81BC81F8015C
:1020E000808B918BA28BB38B8D8190E0982F88276A
:1020F0002E81820F911D958B848B2F8130E0322FA2
:1021000022278885280F311D328F218FC90102C0F7
:1021100080E090E028960FB6F894DEBF0FBECDBFEA
:10212000DF91CF911F910F910895AF92BF92CF92FF
:10213000DF92FF920F931F93CF93DF938C015B018C
:10214000EA01FC01C688D788F08C80E590E00E9407
:1021500061038F2D0E94031D8C179D0720F48F2D86
:102160000E94031DEC019E01A501B6018F2D0E9466
:102170009E1C0E946003F801868997898C0F9D1F21
:10218000978B868BCE01DF91CF911F910F91FF909E
:10219000DF90CF90BF90AF900895CF92DF92EF92F3
:1021A000FF920F931F93CF93DF93CDB7DEB7AF9717
:1021B0000FB6F894DEBF0FBECDBF7C016A010FE4FD
:1021C00014E01A8309831C861B8688EE93E0A0E046
:1021D000B0E08D879E87AF87B88B8BE792E09A87B8
:1021E0008987188F0F8B198E1A8E1B8E1C8E84E098
:1021F00089A31DA30CA31EA21FA218A619A6809135
:10220000440690914506A0914606B09147068CA7DA
:102210009DA7AEA7BFA78B839C83AD83BE83188683
:102220001F82AE014C5D5F4FCE0101960E94640398
:1022300081309105B1F4D701ED91FC910288F389C9
:10224000E02D1BA70AA78EA19FA1A8A5B9A58CA7C1
:102250009DA7AEA7BFA7A601BE01665D7F4FC701C0
:102260001995AF960FB6F894DEBF0FBECDBFDF91C4
:10227000CF911F910F91FF90EF90DF90CF90089535
:10228000CF93DF93EC01888D843059F0E1DDE88D48
:10229000F0E0EE0FFF1FEF5DF94F1182108284E036
:1022A000888FDF91CF910895EF92FF921F93CF9384
:1022B000DF93FC01208D243011F080E01AC07B01F7
:1022C000EC0110E0812F18DE811102C0188F05C0CB
:1022D0008831E1F31F5F1430A9F7888D843069F3EA
:1022E000FD86EC861A8E198E20E0A70162E0C3DD20
:1022F00081E0DF91CF911F91FF90EF9008959B01B6
:1023000090E00496982F8827642F820F931FF3CCB8
:102310000F931F93CF93DF931F92CDB7DEB790E05B
:102320000496982F88278C01060F171F72DC8FE008
:1023300088DC812F86DC802F84DC80E082DC89834E
:1023400066DC89810F90DF91CF911F910F910895E5
:10235000CF93FC01C08D80E590E00E94610360E2B4
:1023600070E08C2F0E94261C62E070E08C2FD0DF82
:1023700084FD17C062E070E08C2FCADF83FF0AC0C3
:1023800048E162E070E08C2FBADF0E94600380E0D9
:1023900090E010C00E94600380E590E00E9461031D
:1023A000E3CF40E162E070E08C2FA9DF0E94600380
:1023B00081E090E0CF910895CF93DF93C82FD62F7F
:1023C000472F60E170E09BDF4D2F61E170E08C2FC3
:1023D000DF91CF9194CFBF92CF92DF92EF92FF9295
:1023E0000F931F93CF93DF9300D000D0CDB7DEB70C
:1023F000FC01208D243009F04EC06A017B018C0164
:10240000B12C63E070E08B2D83DF811103C0F801F4
:10241000B08E06C08831D9F3B394F4E0BF12F1CF87
:10242000F801808D8430B9F196E0E9EDF2E0DE014B
:10243000119601900D929A95E1F7F70193819F779C
:102440009C8394819D8395819E83B7016E5F7F4FAE
:1024500090E0982F882744E050E0845F9B4F22DC77
:10246000B601F801808DA8DFF801808D90E0982FEB
:10247000882746E050E0BE016F5F7F4F8A5F9B4F29
:1024800011DCF801128E118E20E8A60162E0808D29
:10249000F2DC81E001C080E026960FB6F894DEBF42
:1024A0000FBECDBFDF91CF911F910F91FF90EF90A5
:1024B000DF90CF90BF900895FF920F931F93CF931B
:1024C000DF93FB01DC0157961C921E92569758969B
:1024D000FC908281811109C08381811106C08481B1
:1024E000811103C085818823E9F041155105D1F0A0
:1024F0008A01EF0180E590E00E946103BE016E5FFA
:102500007F4F2F2D30E0922F882744E050E0845FEA
:102510009B4FC8DBB8018F2D4FDF0E94600381E025
:1025200090E002C080E090E0DF91CF911F910F9189
:10253000FF900895FC018485843009F0DDCC80E0B3
:102540000895CF93DF93FC0124852430C9F0EC017A
:10255000F1DF843181F0882371F0883161F08C31B2
:1025600061F4E881F9810480F581E02DCE011995AF
:1025700021E0892B19F420E001C021E0822F01C065
:1025800080E0DF91CF910895CF92DF92EF92FF929A
:102590001F93CF93DF93FC011485143091F1EC016C
:1025A00080E590E00E94610368E070E0812F0E9466
:1025B000261C0E9460030E940F1B6B017C01CE0150
:1025C000B9DF8823A1F061E070E080E090E0EFD710
:1025D0000E940F1BDC01CB018C199D09AE09BF09BC
:1025E000883E9340A105B10550F38C8531DCEC8524
:1025F000F0E0EE0FFF1FEF5DF94F1182108284E0D3
:102600008C87DF91CF911F91FF90EF90DF90CF905B
:102610000895FC018789908D009769F12489358997
:102620002817390718F4308F278B25C001976F3F83
:102630002FEF720729F4908F878B80E090E0089548
:10264000A089B1899B01215031092F3F310548F400
:10265000262FA80FB91F3C91231305C0908F878B9D
:1026600008C020E0F6CF278524FF05C0908F878B18
:102670006C93CB0108958FEF9FEF0895CF93DF9375
:10268000EC01E881F9810288F389E02D19958F3FEB
:102690002FEF920731F02F89388D2F5F3F4F388F02
:1026A0002F8BDF91CF910895FC012789308D84898C
:1026B00095892817390740F480899189FC01E20F38
:1026C000F31F808190E008958FEF9FEF0895EF92C0
:1026D000FF92CF93DF93FC01DB0160E070E0CB0160
:1026E000E788F08CC489D589EC16FD06A8F462173A
:1026F00073078407950784F4C089D189CE0DDF1D47
:10270000C881CD936F5F7F4F8F4F9F4FC789D08D0B
:102710002196D08FC78BE4CFDF91CF91FF90EF90C0
:102720000895FC01848995892789308D821B930B3C
:10273000089580E090E00895242FDC01ED91FC9154
:102740000084F185E02D41E01994089521EA32E0FA
:10275000FC0131832083409646C9CF93DF93EC017F
:10276000F5DFCE01DF91CF910C94012BEF92FF9218
:102770000F931F93CF93DF931F92CDB7DEB78C01DA
:102780007B016F3F7F4F19F480E090E028C0F80193
:10279000878584FF22C0F801818D928D64897589B7
:1027A0008617970758F0E9826F5F7F4FAE014F5F42
:1027B0005F4FC80140960E94C20B07C0F8012089F4
:1027C0003189F901E80FF91FE082F801818D928DBE
:1027D0000196928F818FC70102C08FEF9FEF0F90FC
:1027E000DF91CF911F910F91FF90EF900895EF929D
:1027F000FF920F931F93CF93DF931F92CDB7DEB756
:10280000FC01922F9870822F80712871283119F461
:102810004230A9F43BC0413011F48B0116C0423064
:1028200081F4882329F004891589060F171F02C037
:1028300000E010E0992349F00789108D04C0413071
:1028400061F304891589060F171F2489358920171C
:102850003107E0F0992311F0108F078B8823A1F046
:102860007F011982AE014F5F5F4FB801CF014096E3
:102870000E94C20BF701848995892789308D8217C0
:10288000930710F4908F878BC80102C08FEF9FEFE2
:102890000F90DF91CF911F910F91FF90EF900895CE
:1028A000CF92DF92EF92FF920F931F93CF93DF931C
:1028B0001F92CDB7DEB78C017B016A0188E090E002
:1028C000F80193838283158214820E946C2AF80196
:1028D00091838083FFEFCF16DF0611F40E94992BBE
:1028E000E114F10479F01982AE014F5F5F4FB60138
:1028F000C8010E94C20BF80144815581B701808153
:10290000918118D90F90DF91CF911F910F91FF9076
:10291000EF90DF90CF9008952F923F924F925F9269
:102920006F927F928F929F92AF92BF92CF92DF92DF
:10293000EF92FF920F931F93CF93DF93CDB7DEB744
:10294000CA54D1090FB6F894DEBF0FBECDBF6C01DB
:1029500029967FAF6EAF29972B965FAF4EAF2B971F
:1029600060EB74E08DEE96E0C0D8A7D888E090E0E8
:102970009DAF8CAF1FAE1EAE0E946C2A9BAF8AAF7C
:10298000C114D104C1F0F60101900020E9F731979C
:102990007F01EC18FD0825961FAE2597AE014C5B14
:1029A0005F4FB701CE01CA960E94C20BA701B601C4
:1029B0008AAD9BADBFD881E290E098A78FA319A6FE
:1029C0001AA61BA686E090E0A0E0B0E08CA79DA729
:1029D000AEA7BFA718AA19AA1AAA1BAA8BE094E04F
:1029E0009DA38CA380E28CAB1EAA1DAAAE01475FFB
:1029F0005F4F58AF4FAB19AE6FE473E0CE01019655
:102A0000F5D687E693E09A8389838BE793E09DA3CD
:102A10008CA381E793E098878F831D861C861F8691
:102A20001E86198A188A1B8A1A8A1D8A1C8A1F8A7E
:102A30001E8A188E81EA92E09A8789878E010F5B41
:102A40001F4F2FEF3FEF40E050E0BE01665C7F4F2D
:102A5000CE01499692D819A218A21BA21AA288E107
:102A6000888FCE01CA960E94F30C2FEF3FEF40E013
:102A700050E0BE01675E7F4FCE01CA967ED867EAFE
:102A800074E08DEE96E031D861EC74E02ED82EAD76
:102A90003FAD40E050E06AAD7BAD0E94760B0DD8B3
:102AA000CE01CA960E94F30C88E390E00E946C2A43
:102AB0006C01E12CF12C88E0A82EB12C89A58111A4
:102AC00047C028E030E03DAF2CAF1FAE1EAE88E01F
:102AD00090E00E946C2A9BAF8AAFE981FA81369719
:102AE0000190F081E02D41E050E04C0F5D1FE40FBC
:102AF000F51F818992890097B9F00E941E0C14C0BD
:102B00000E949D2B892B09F487C0E981FA813697B1
:102B10000190F081E02D81E090E08C0F9D1FE80F87
:102B2000F91F8389948924D6E981FA813697019027
:102B3000F081E02D21E030E02C0F3D1FE20FF31F6C
:102B40008389948936D68F3F3FEF9307C9F656C0E5
:102B50009E012F5B3F4F2B964EAD5FAD2B97299675
:102B60006EAD7FAD2997CE01CA969ADE67EA74E012
:102B70008DEE96E00E94750D6AEC74E00E94750D72
:102B80002EAD3FAD40E050E06AAD7BAD0E94760BCC
:102B90000E945D0DCE01CA960E94F30C4601A12C45
:102BA000B12CAE14BF0451F0C4010E94F30C2FEFFE
:102BB000A21AB20A37E0830E911CF3CFC6010E941D
:102BC000012BCE01019611D4C65BDF4F0FB6F894EE
:102BD000DEBF0FBECDBFDF91CF911F910F91FF9050
:102BE000EF90DF90CF90BF90AF909F908F907F90AD
:102BF0006F905F904F903F902F900895E981FA81F8
:102C000036978081918162E041E050E04C0F5D1F7A
:102C1000840F951F0E944F0B24961FAE2497AE0180
:102C20004D5B5F4F60E070E0CE01CA960E94C20B20
:102C3000812C912CE981FA8136970190F081E02D69
:102C400041E050E04C0F5D1FE40FF51F8189928930
:102C5000009711F00E941E0CE981FA8136970190CD
:102C6000F081E02D81E090E08C0F9D1FE80FF91FAF
:102C7000838994899ED53C0189819A812FEF6216C0
:102C8000720691F41B821C821D821E82FC01369703
:102C90008081918162E041E050E04C0F5D1F840F24
:102CA000951F0E944F0B36C021E030E040E050E01D
:102CB0002B833C834D835E83FC0136970190F0812A
:102CC000E02D41E050E04C0F5D1FE40FF51F8389BC
:102CD00094894ED5C30101978F3F910520F4862D2D
:102CE0008F3211F417C080E023968FAF23976EAD1B
:102CF0007FAD6F5F7F4FAE014E5B5F4FCE01CA96D7
:102D00000E94C20B5FEF851A950A8FEF881698060E
:102D100009F090CF17019FEF291A390AE214F30442
:102D200008F067C0A214B30408F041C0270129E0ED
:102D3000420E511CA414B504D0F537E0349DC001F7
:102D4000359D900D11240E946C2A26968FAF2697F0
:102D500027969FAF279746015C01612C712C6E145A
:102D60007F04D9F0A114B10459F08E010F5B1F4FFD
:102D70002FEF3FEF40E050E0B401C5010E94BD0DD0
:102D8000C4010E94F30C4FEF641A740A57E0850ED9
:102D9000911C87E0A80EB11CE2CFC6010E94012B56
:102DA00052012696CFAC26972796DFAC279797E05F
:102DB0009E9D40019F9D900C11248C0C9D1CE21443
:102DC000F304B0F58114910469F08E010F5B1F4F7D
:102DD0002FEF3FEF40E050E0BE01665C7F4FC40143
:102DE0000E94BD0D2FEFE21AF20A37E0830E911C0C
:102DF000E6CF2E143F04D8F447E04E9D40014F9D8E
:102E0000900C1124E12CF12C57E0850E911CC4018B
:102E10008E0D9F1D8C0D9D1D0E94F30C87E0E80E0A
:102E2000F11C99EFE9169FEFF90689F701C0170128
:102E3000CE01CA960E94F30C710140CE2F923F92B0
:102E40004F925F926F927F928F929F92AF92BF92BA
:102E5000CF92DF92EF92FF920F931F93CF93DF9366
:102E6000CDB7DEB72C970FB6F894DEBF0FBECDBF3F
:102E70006C0129013A01FC01A18CB28C9E01265FF4
:102E80003F4FA201CE0101960BDDF601E488F588E3
:102E9000EA14FB0410F40E94992B97012A193B09AC
:102EA00082012415350508F489018D809E80E01A81
:102EB000F10AC40180959095E816F90660F7E80CD0
:102EC000F91CC60140961C010815190558F418860E
:102ED000AE01485F5F4FB7012B873C870E94C20B52
:102EE0003C852B85F60180899189A901401B510BF6
:102EF000B8016A0D7B1D680F791FF401EA0DFB1DF7
:102F00008E0F9F1F0E94B22B69817A81F601808902
:102F10009189A4018A0D9B1D0E949A0D1986AE010C
:102F2000475F5F4FB701C1010E94C20BCE010196FE
:102F30000E94F30CF601818D928D840D951D928F68
:102F4000818FC301B2012C960FB6F894DEBF0FBE7D
:102F5000CDBFDF91CF911F910F91FF90EF90DF9048
:102F6000CF90BF90AF909F908F907F906F905F9029
:102F70004F903F902F900895CF93DF93EC0183EC17
:102F800092E0998388838DEC92E09E8F8D8FCE01A5
:102F90000296DCDB63ED72E0CE01DF91CF910C9401
:102FA000E00ADC01ED91FC91369720813181820F9E
:102FB000931FE2CFCF93DF93EC01DEDFCE01DF91F1
:102FC000CF910C94012BDC01ED91FC91369720817F
:102FD0003181820F931FEECFFC01918D828D981766
:102FE00061F0828DDF01A80FB11D5D968C91928DED
:102FF0009F5F9F73928F90E008958FEF9FEF0895EA
:10300000FC01918D828D981731F0828DE80FF11DB2
:10301000858D90E008958FEF9FEF0895FC01918DCD
:10302000228D892F90E0805C9F4F821B91098F73C6
:103030009927089580E596E0F1DF21E0892B09F4D6
:1030400020E0822F0895FC01848DDF01A80FB11DBF
:10305000A35ABF4F2C91848D90E001968F739927CE
:10306000848FA689B7892C93A089B1898C918064BB
:103070008C93938D848D981306C00288F389E02D7C
:1030800080818F7D80830895EF92FF920F931F932D
:10309000CF93DF93EC0181E0888F9B8D8C8D98130B
:1030A00005C0E889F989808185FD23C0F62E0B8D46
:1030B00010E00F5F1F4F0F731127E02E8C8DE81269
:1030C0000BC00FB607FCFACFE889F989808185FF2C
:1030D000F5CFCE01B8DFF2CF8B8DFE01E80FF11DE9
:1030E000E35AFF4FF0820B8FEA89FB89808180626F
:1030F00007C0EE89FF896083E889F989808180644F
:10310000808381E090E0DF91CF911F910F91FF903C
:10311000EF900895CF93DF93EC01888D8823C1F061
:10312000EA89FB89808185FD05C0A889B9898C91D0
:1031300086FD0EC00FB607FCF5CF808185FFF2CF6C
:10314000A889B9898C9185FFEDCFCE017CDFE8CFCE
:10315000DF91CF91089580E090E0892B19F06ADF2C
:10316000811125C080E090E0892B41F080E090E063
:10317000892B21F00E94000081111CC080E090E0AA
:10318000892B41F080E090E0892B21F00E94000023
:10319000811113C080E090E0892BA1F080E090E0E5
:1031A000892B81F00E94000081110AC008950E94BD
:1031B0000000D8CF0E940000E1CF0E940000EACFBB
:1031C0000C94000008953FB7F89480912E069091DA
:1031D0002F06A0913006B091310626B5A89B05C0F8
:1031E0002F3F19F00196A11DB11D3FBFBA2FA92F86
:1031F000982F8827820F911DA11DB11DBC01CD0103
:1032000042E0660F771F881F991F4A95D1F70895EE
:10321000DB012D913C911197FC0131832083F90151
:1032200036970190F081E02DE80FF91F12962D914D
:103230003C91139731832083DC0112961D921D92DD
:103240001D921C92159781E290E094838383548BA6
:10325000438B1582158A08958F929F92AF92BF92E9
:10326000CF92DF92EF92FF920F931F93CF93DF9352
:103270007C018B016C0182E0C80ED11C4701E5E0A6
:103280008E0E911CC0E0D0E0F60141916F0150E03C
:1032900060E070E02AE0C801D2D35C016EE2C801B0
:1032A0002AD48A0D9B1DC80FD91FC814D90461F7F1
:1032B000F701458150E060E070E02AE0C801BFD32B
:1032C0008C0F9D1FDF91CF911F910F91FF90EF9079
:1032D000DF90CF90BF90AF909F908F9008950C9407
:1032E000992B089508950C94012BDC01ED91FC912C
:1032F000369720813181820F931FF5CFFB0120810A
:103300003181FC0131832083FB0142815381F9012A
:10331000369720813181FC01E20FF31F51834083F6
:1033200008950F931F93CF93DF938C01EB01888156
:103330009981F801918380832A853B85FC0136972A
:103340000190F081E02DE00FF11F318320838C8507
:103350009D85F801978386836A5F7F4FC801069633
:103360000E94E00ABE016E5F7F4FC801DF91CF91DE
:103370001F910F91C3CFCF93DF93EC0183E993E0CB
:103380009983888387EA93E0998788878DE993E01A
:103390009F838E8365E873E0CE0106960E94E00A63
:1033A00061E873E0CE01DF91CF91A8CF0697E3CF1C
:1033B000DC01ED91FC91369720813181820F931FC2
:1033C000DACFCF93DF93EC01D6DFCE01DF91CF913F
:1033D0000C94012B0697F5CFDC01ED91FC9136970B
:1033E00020813181820F931FECCFCF93DF93EC01CB
:1033F00087E693E0998388838BE793E09CA38BA374
:1034000081E793E09F838E83CE0108969FD96FE476
:1034100073E0CE01DF91CF9184CF0697E6CFDC0138
:10342000ED91FC91369720813181820F931FDDCF82
:10343000CF93DF93EC01D9DFCE01DF91CF910C94D4
:10344000012B0697F5CFDC01ED91FC913697208199
:103450003181820F931FECCF2FE434E0FC013183E4
:103460002083FB014081518162817381FC01428391
:1034700053836483758308951F920F920FB60F9242
:1034800011240BB60F922F933F934F935F936F933B
:103490007F938F939F93AF93BF93EF93FF9380E5B9
:1034A00096E0D1DDFF91EF91BF91AF919F918F9108
:1034B0007F916F915F914F913F912F910F900BBE34
:1034C0000F900FBE0F901F9018951F920F920FB67E
:1034D0000F9211240BB60F922F938F939F93EF931C
:1034E000FF93E0916006F09161068081E0916606AD
:1034F000F091670682FD12C09081809169068F5F0E
:103500008F7320916A06821751F0E0916906F0E00E
:10351000E05BF94F958F8093690601C08081FF9130
:10352000EF919F918F912F910F900BBE0F900FBE37
:103530000F901F901895CF93DF9390E0FC01EE5110
:10354000FE4F2491FC01E456FE4F8491882361F1E3
:1035500090E0880F991FFC01E859FE4FC591D49166
:10356000FC01E85FFE4FA591B491611109C09FB7BE
:10357000F8948881209582238883EC912E230BC0B8
:10358000623061F49FB7F8943881822F809583234D
:103590008883EC912E2B2C939FBF06C08FB7F89495
:1035A000E8812E2B28838FBFDF91CF9108958F92D2
:1035B0009F92AF92BF92CF92DF92EF92FF926B01F8
:1035C0007C0101DE4B015C01C114D104E104F10472
:1035D000E9F0F9DDDC01CB0188199909AA09BB09D9
:1035E000883E9340A105B10578F321E0C21AD108C5
:1035F000E108F10888EE880E83E0981EA11CB11C3A
:10360000C114D104E104F10421F7DECFFF90EF9063
:10361000DF90CF90BF90AF909F908F9008952FB77D
:10362000F89460912A0670912B0680912C06909157
:103630002D062FBF08951F920F920FB60F921124DF
:103640002F933F938F939F93AF93BF9380912A06BD
:1036500090912B06A0912C06B0912D063091290651
:1036600023E0230F2D3720F40196A11DB11D05C0C5
:1036700026E8230F0296A11DB11D209329068093F1
:103680002A0690932B06A0932C06B0932D068091CA
:103690002E0690912F06A0913006B091310601962A
:1036A000A11DB11D80932E0690932F06A093300686
:1036B000B0933106BF91AF919F918F913F912F9120
:1036C0000F900FBE0F901F901895FC019081018004
:1036D000F281E02DF8948181892B81832281892FC9
:1036E000809528232283A7E0B0E01197F1F721818C
:1036F00082238183A3E2B0E01197F1F7808178946F
:10370000EFECF0E03197F1F7982381E009F480E0E5
:103710000895FC0190810180F281E02D892F809530
:1037200060FF12C0F8942281822382838181892BD9
:103730008183A3E2B0E01197F1F78281982B928305
:10374000789487ED90E011C0F894228182238283DF
:103750008181892B8183AFEFB0E01197F1F78281EE
:10376000982B928378948FE090E00197F1F7089579
:10377000DC0113968D919C911497892B59F0159625
:10378000ED91FC91169717968D919C911897E817DB
:10379000F90741F4ED91FC9111970488F589E02D2A
:1037A000CD01199481911696FC93EE93159790E0B4
:1037B0000895DC0113968D919C911497892B59F0F3
:1037C0001596ED91FC91169717968D919C911897EF
:1037D000E817F90741F4ED91FC9111970288F389FC
:1037E000E02DCD011994808190E00895EF92FF9231
:1037F0000F931F93CF93DF93EC018B017A016E5FE0
:103800007F4F06DDB8016A5F7F4FA701CE010696A4
:103810000E941A0BF8018081918199838883228507
:103820003385FC0136970190F081E02DEC0FFD1FF0
:1038300031832083F801848595859F838E83DF9172
:10384000CF911F910F91FF90EF900895CF93C82FC4
:10385000462F61E070E00E947F1161E070E08C2FE4
:103860000E9488118111F9CFCF9108958F929F9274
:10387000AF92BF92CF92DF92EF92FF920F931F937E
:10388000CF93DF93B82E4B018A01A22E68E270E03D
:103890000E948811C82FD0E069E270E08B2D0E9451
:1038A0008811DC2FCC27C82B9E013770CB2CD12C54
:1038B000C601880F991FAC01465C594F6A01FA0195
:1038C00080819181820F931FA801420F531F4130C5
:1038D000584098F060E078E07B01E21AF30AA70113
:1038E000B4010E94280EA8014E195F09B4016E0DA3
:1038F0007F1DF6018081918102C0A801B4010E9460
:10390000280EA1100EC0C00FD11F4D2F68E270E02D
:103910008B2D0E947F114C2F69E270E08B2D0E944D
:103920007F11DF91CF911F910F91FF90EF90DF906A
:10393000CF90BF90AF909F908F9008959F92AF923D
:10394000BF92CF92DF92EF92FF920F931F93CF938C
:10395000DF93982E8B015A01690164E270E00E94A6
:103960008811E82EF12C65E270E0892D0E94881103
:10397000FE2CEE24E82AE701C00FD11F9E0137700C
:10398000E92CF12CC701880F991FAC014E5C594FEF
:103990007A01FA0180819181820F931FA9014C0D58
:1039A0005D1D4130584090F000E018E0021B130B01
:1039B000A801B5010E94520EA601401B510BB50192
:1039C000600F711FF7018081918102C0A601B501CE
:1039D0000E94520ECC0DDD1D4D2F64E270E0892D4A
:1039E0000E947F114C2F65E270E0892DDF91CF910D
:1039F0001F910F91FF90EF90DF90CF90BF90AF900D
:103A00009F900C947F11FF920F931F93CF93DF939E
:103A1000F82EC0E0D0E08F2D0E940B0E8C01892B78
:103A200021F08F2D0E940B0EEC01C017D10799F7E2
:103A3000CE01DF91CF911F910F91FF9008954F928A
:103A40005F926F927F92EF92FF920F931F93CF93AB
:103A5000DF93CDB7DEB7A1970FB6F894DEBF0FBEE8
:103A6000CDBF7C01FA01CB0119A2223008F42AE073
:103A70008E010F5D1F4F422E512C612C712CBF0106
:103A8000A30192010E942C2AF901CA0101501109D7
:103A90006A3014F4605D01C0695CD8016C93232B1B
:103AA000242B252B61F70115110591F0F8010190E8
:103AB0000020E9F73197AF01401B510BD701ED9181
:103AC000FC910280F381E02DB801C701199502C075
:103AD00080E090E0A1960FB6F894DEBF0FBECDBF98
:103AE000DF91CF911F910F91FF90EF907F906F909A
:103AF0005F904F900895DC01ED91FC910190F08171
:103B0000E02D1994CF93DF931F92CDB7DEB7698371
:103B1000DC01ED91FC910280F381E02D41E050E069
:103B2000BE016F5F7F4F19950F90DF91CF91089580
:103B3000DC01ED91FC91048CF58DE02D199591E05F
:103B400089270895862F089581E0862708950F9389
:103B50001F93CF93DF931F92CDB7DEB78C01DC01AB
:103B6000ED91FC910480F581E02D1995892B51F0A0
:103B7000BE016F5F7F4FF80184850E94980E898196
:103B800090E002C08FEF9FEF0F90DF91CF911F91D8
:103B90000F910895FC0184850C94D80ECF93DF9388
:103BA0001F92CDB7DEB741E050E0BE016F5F7F4F9F
:103BB000FC0184850E94D80E181619061CF4898110
:103BC00090E002C08FEF9FEF0F90DF91CF910895AB
:103BD000FC018485843011F00C94B80E80E090E0F4
:103BE00008958F929F92AF92BF92CF92DF92EF9201
:103BF000FF920F931F93CF93DF936C015B017A01C8
:103C0000FC01C485C43041F481E090E0F601938367
:103C1000828380E090E054C08A014130584010F027
:103C200000E018E080E590E00E9461038C2FEBDE5D
:103C30004C0163E070E08C2F0E948811D82F0E9405
:103C40006003D73111F0DC3121F48016910650F376
:103C500002C000E010E080E590E00E94610398015E
:103C6000A50160E070E08C2F69DE60E270E08C2FCF
:103C7000EDDD62E070E08C2F0E94881184FD14C09D
:103C800063E070E08C2F0E948811811106C00E94B1
:103C900060038C2F0E94280FB7CF0E94600380E53D
:103CA00090E00E946103E5CF40E162E070E08C2F7C
:103CB0000E947F110E946003012B09F4A5CFC70168
:103CC000DF91CF911F910F91FF90EF90DF90CF90F8
:103CD000BF90AF909F908F900895CF92DF92FF9208
:103CE0000F931F93CF93DF93FC012485243009F0B9
:103CF00077C06A01EB018C01F12C8F2D0E947C0FA3
:103D0000811103C0F801F48607C08B7F8831D1F39D
:103D1000F394F4E0FF12F1CFF8018485843009F4C4
:103D20005FC020910002309101022F5F3F4F11F4DC
:103D300020E030EC30930102209300024091000219
:103D40005091010220E061E00E943B0FF801F484F1
:103D50008A818F3F51F48B818F3F91F48C818F3F0B
:103D600079F48D818F3F61F438C0811109C08B8156
:103D7000811106C08C81811103C08D81882369F176
:103D8000C114D10451F180E590E00E946103BE01AD
:103D90006E5F7F4F8F2D90E0982F882744E050E092
:103DA000845F9B4F0E94520EB6018F2D0E94DC1142
:103DB00064E070E08F2D4ADD0E946003C8010E941C
:103DC0009A12873181F061E070E080E090E0EFDBF3
:103DD000C8010E949A128111F1CF84E0F801848712
:103DE00080E090E002C081E090E0DF91CF911F91F0
:103DF0000F91FF90DF90CF900895CF92DF92EF92D6
:103E0000FF920F931F93CF93DF93CDB7DEB7AF979A
:103E10000FB6F894DEBF0FBECDBF7C016A010FE480
:103E200014E01A8309831C861B8688EE93E0A0E0C9
:103E3000B0E08D879E87AF87B88B8BE792E09A873B
:103E40008987188F0F8B198E1A8E1B8E1C8E84E01B
:103E500089A31DA30CA31EA21FA218A619A68091B8
:103E6000440690914506A0914606B09147068CA75E
:103E70009DA7AEA7BFA78B839C83AD83BE83188607
:103E80001F82AE014C5D5F4FCE0101960E9464031C
:103E900081309105B1F4D701ED91FC910484F58551
:103EA000E02D1BA70AA78EA19FA1A8A5B9A58CA745
:103EB0009DA7AEA7BFA7A601BE01665D7F4FC70144
:103EC0001995AF960FB6F894DEBF0FBECDBFDF9148
:103ED000CF911F910F91FF90EF90DF90CF900895B9
:103EE000CF92DF92EF92FF920F931F93CF93DF93C6
:103EF0006C017A018B01C0E0D0E0CE15DF0589F0BE
:103F0000D8016D918D01D601ED91FC910190F08168
:103F1000E02DC6011995892B11F47E0102C021966E
:103F2000ECCFC701DF91CF911F910F91FF90EF90E0
:103F3000DF90CF900895CF93DF93CDB7DEB7C45510
:103F4000D1090FB6F894DEBF0FBECDBF789484B50B
:103F5000826084BD84B5816084BD85B5826085BD85
:103F600085B5816085BD80916E00816080936E0013
:103F70001092810080918100826080938100809105
:103F800081008160809381008091800081608093B6
:103F900080008091B10084608093B1008091B00076
:103FA00081608093B0008091910082608093910045
:103FB0008091910081608093910080919000816058
:103FC000809390008091A10082608093A1008091F5
:103FD000A10081608093A1008091A0008160809306
:103FE000A0008091210182608093210180912101B4
:103FF0008160809321018091200181608093200164
:1040000080917A00846080937A0080917A00826047
:1040100080937A0080917A00816080937A00809109
:104020007A00806880937A001092C100E091600667
:10403000F091610682E08083E0915C06F0915D067C
:104040001082E0915E06F0915F0680E1808310921D
:104050006806E0916406F091650686E08083E09151
:104060006206F0916306808180618083E091620640
:10407000F0916306808188608083E0916206F09110
:104080006306808180688083E0916206F091630618
:1040900080818F7D80834E0128E4820E911CA401D3
:1040A000485F5F4F64965FAF4EAF64978091DE04C8
:1040B000811128C01092DA041092D90486E090E0B1
:1040C0000E946C2AFC0111821082138212821582D6
:1040D00014829093D6048093D5049093D80480934F
:1040E000D70488E39BE09093DD048093DC0468E7C9
:1040F00074E08DEE96E00E94750D0E945D0D81E0EA
:104100008093DE0480919A0581115EC086E0ECE028
:10411000F2E0A6EEB4E001900D928A95E1F730EC62
:104120003093EC0428EA2093ED0481E08093EE04C0
:1041300099EC9093EF041092F3041092F20448EE7D
:1041400053E060E070E04093F4045093F504609312
:10415000F6047093F70441E352E05093F104409366
:10416000F00444E04093FC044FE454E050938D0588
:1041700040938C054FEF5FEF50939905409398055E
:1041800030938E0520938F05809390059093910531
:104190002BE537E030939505209394051092930515
:1041A000109292052CE834E130938B0520938A0518
:1041B00020EF34E03093FE042093FD041092970525
:1041C0001092960580939A058DEF94E00E94AF08B7
:1041D000882309F423C18DEF94E00E94AF0888235F
:1041E00009F44EC51CDA2B013C01809185059091A4
:1041F0008605A0918705B0918805A3019201281B2F
:10420000390B4A0B5B0BDA01C90189399A43A105C5
:10421000B105A8F48091810590918205A091830554
:10422000B0918405B301A201481B590B6A0B7B0BAB
:10423000DB01CA0189399A43A105B10590F12091AA
:1042400089058091FD049091FE04222339F02CEF22
:104250003FEF3093990520939805D1C420EC20932B
:10426000FF0410920005DC01ED91FC910280F381C6
:10427000E02D42E050E06FEF74E019954092810527
:104280005092820560928305709284054092850564
:1042900050928605609287057092880581E0809330
:1042A00089058091FD049091FE04DC01ED91FC9163
:1042B0000480F581E02D1995892B09F4E1C4BE0134
:1042C0006F5F7F4F8DEF94E00E9470091C01892B76
:1042D00009F4D6C440928505509286056092870500
:1042E000709288058091FF04807F803309F079C047
:1042F00080918A0590918B05892B09F4C1C4E980CE
:10430000F12CF701EA51FB4F028D10E0102F00272E
:10431000838D080F111DF701EF5FFA4F5F01B701A1
:104320006E5F7A4FA801CF010E94B22B98012E0D2B
:104330003F1DF901EA51FB4F138E8091FF048670F7
:1043400062968FAF6297A0918A05B0918B058230FB
:10435000C9F5C48CD12CDC2CCC24858DC80ED11C85
:104360004BEF5FEF4E195F09401B510B420D531D80
:10437000B9016C5F7A4FC501FD01199580E4809306
:10438000FF0462962FAD629720930005D09201053D
:10439000C09202058091FD049091FE04DC01ED9134
:1043A000FC910280F381E02D44E050E06FEF74E077
:1043B0001995409281055092820560928305709212
:1043C00084055EC44DEF5FEF4E195F09401B510B32
:1043D000420D531DB9016E5F7A4FC501FD0119955C
:1043E0004FC4803CA9F480ED8093FF041092000537
:1043F0008091FD049091FE04DC01ED91FC9102801E
:10440000F381E02D42E050E06FEF74E0199538C47D
:10441000803D09F035C41092890532C480910106AF
:1044200081112AC01092E9051092E80528EE33E0C8
:1044300040E050E02093EA053093EB054093EC0513
:104440005093ED058BE792E09093E7058093E605A6
:104450008FE494E09093F5058093F4051092F605AF
:104460001092F7051092F8051092F90584E08093F8
:10447000FE0581E08093010683EA95E0909349066A
:10448000809348066CE271E080E090E090D81FB71E
:10449000F8948091A205811195C081ED91E0FC0115
:1044A000549127E132E0F9014491E52FF0E0EE0F5D
:1044B000FF1FE859FE4FA591B4915C91452309F087
:1044C0006FC0E7E5F1E04491F9012491FC0194917A
:1044D000992309F465C0442309F454C050E0FA015B
:1044E0003197E231F10508F04DC08827EE58FF4FB3
:1044F0008F4FE3C7809180008F7707C08091800045
:104500008F7D03C080918000877F809380003AC0B8
:1045100084B58F7702C084B58F7D84BD33C0809110
:10452000B0008F7703C08091B0008F7D8093B00082
:1045300029C0809190008F7707C0809190008F7D77
:1045400003C080919000877F809390001BC0809172
:10455000A0008F7707C08091A0008F7D03C080915D
:10456000A000877F8093A0000DC0809120018F77ED
:1045700007C0809120018F7D03C080912001877F3B
:1045800080932001E92FF0E0EE0FFF1FE85FFE4F60
:10459000A591B4918FB7F8949C91292B2C938FBF40
:1045A00061E085E30E949B1A8CB580618CBD8CB55F
:1045B00080648CBD61E084E30E949B1A61E083E328
:1045C0000E949B1A8091A2058F5F8093A2051FBF56
:1045D000249A80E590E00E94610360E880E090E02A
:1045E0000E947B0E65E58BE190E00E947B0E65E505
:1045F0008AE190E00E947B0E0E94600380E090E4DC
:10460000909333068093320680E090E690933B06C9
:1046100080933A0680E098E49093350680933406C0
:1046200080E098E690933D0680933C0680E090E51C
:10463000909337068093360680E090E790933F068C
:1046400080933E0680E098E5909339068093380683
:1046500080E098E7909341068093400680E590E0E3
:104660000E94610346E050E066EE74E089E090E06D
:104670000E94520E8FE494E09A8389831B821C82ED
:104680001D821E8244E050E0BE016D5F7F4F8FE0CF
:1046900090E00E94520E0E94600300914806109123
:1046A0004906D80192961D921D921D921C929597D3
:1046B000F80116A217A210A611A69A961D921D9295
:1046C0001D921C929D9726E930E040E050E0D6967E
:1046D0002D933D934D935C93D99712AE13AE14AEC8
:1046E00015AE189686E0FD01282F11922A95E9F75C
:1046F0009801225F3F4F94E1F90111929A95E9F7F1
:10470000E6EEF4E001900D928A95E1F77801F2E48B
:10471000EF0EF11CD7011C9267D62FEC37E040E07A
:1047200050E06ED6DC01CB010196A11DB11DF80150
:1047300084839583A683B78380839183A283B38385
:104740003801F3E46F0E711CC3010E94401164E450
:1047500070E0C3010E945411882309F491C20E94A1
:104760000F1B1B012C01A12CB12CD12C43E0C42E1A
:10477000D7018C91833009F404C1811120C0F80164
:1047800084819581A681B7810196A11DB11D848385
:104790009583A683B7830E940F1B6219730984094E
:1047A000950928EE33E040E050E056D6A90161E0DB
:1047B000C8010E94A50781E0D7018C93C4C0843052
:1047C00001F5F80184819581A681B7810196A11D2B
:1047D000B11D84839583A683B7830E940F1B621942
:1047E00073098409950928EE33E040E050E034D69F
:1047F000A90163E0C8010E94A507E2E0D701EC939C
:10480000A2C0813069F5D801DA964D915D916D9124
:104810007C91DD979E012F5F3F4FC8010E94DF050D
:10482000D82EB2E08B138FC089819A81AB81BC8175
:10483000F80184839583A683B7830E940F1B6219B6
:1048400073098409950928EE33E040E050E004D66E
:10485000A90163E0C8010E94A507D701DC9279C0D5
:10486000823009F070C0F80142AD53AD64AD75AD52
:104870009E012F5F3F4FC8010E94DF05D82EF5E053
:104880008F135BC0D701CC92F80182A193A1A4A1A0
:10489000B5A1892B8A2B8B2B41F424E833E040E02F
:1048A00050E022A333A344A355A3F80186A197A106
:1048B000A0A5B1A5892B8A2B8B2B61F482A193A192
:1048C000A4A1B5A1B695A7959795879586A397A31B
:1048D000A0A7B1A7F80182A593A5A4A5B5A5892B8A
:1048E0008A2B8B2BA9F482A193A1A4A1B5A1AC0121
:1048F000BD0123E076956795579547952A95D1F7A1
:10490000841B950BA60BB70B82A793A7A4A7B5A7EB
:10491000F80186A197A1A0A5B1A586A797A7A0ABEE
:10492000B1AB82A593A5A4A5B5A582AB93ABA4AB6F
:10493000B5ABAA24A394B12C0CC0F6E08F1303C02E
:10494000D7011C9206C0BFEFDB1203C0F701108233
:10495000D12CF1E0AF16B10409F40ACF0E940F1B6D
:10496000DC01CB0182199309A409B509F80126A934
:1049700037A940AD51AD281739074A075B0708F042
:10498000F7CEC3010E944011F80184819581A68170
:10499000B7810196A11DB11D84839583A683B7833A
:1049A0000E940F1BF801FE966083718382839383BC
:1049B000F1E0AF16B10409F056C080E590E00E9426
:1049C00061036091480670914906625F7F4FCE0196
:1049D00001960E942C1A44E050E0BE016D5F7F4FAB
:1049E0008FE090E00E94520E609148067091490657
:1049F0006A5E7F4FCE0101960E942C1A44E050E07F
:104A0000BE016D5F7F4F81E090E00E94520E609189
:104A10004806709149066E5E7F4FCE0101960E9456
:104A20002C1A44E050E0BE016D5F7F4F85E090E0BE
:104A30000E94520E0E9460036091480670914906E0
:104A4000625E7F4FCE0101960E942C1A8B819C8161
:104A5000AD81BE818093440690934506A09346069F
:104A6000B093470603C0AB2809F40AC18DEF94E068
:104A70000E94AF088111D2C0609192057091930598
:104A80008091FD049091FE0440919405509195050C
:104A9000DC01ED91FC916115710521F00684F7852B
:104AA000E02D16C00484F585E02D2FE434E03A8330
:104AB000298300918E0510918F05209190053091EA
:104AC00091050B831C832D833E83BE016F5F7F4F57
:104AD00019958130910509F09AC0909380058093D3
:104AE0007F0587E0E2E1F2E0DE01119601900D9290
:104AF0008A95E1F7FE013196A4E0B5E0CE01089673
:104B000021912D93E817F907D9F782E080930B05DF
:104B100010920C058FE080930D052FE030E04FEFF1
:104B200054E06BE874E08DEF94E00E94E4089C018F
:104B3000255031094FEF54E060E18DEF94E00E9481
:104B4000FE080E940F1B609381057093820580937D
:104B50008305909384056093850570938605809303
:104B60008705909388058091FD049091FE04DC01F7
:104B7000ED91FC910480F581E02D1995892BC1F40C
:104B80000E940F1B009185051091860520918705D5
:104B900030918805DC01CB01801B910BA20BB30B7C
:104BA00088399A43A105B105F0F28CEF9FEF1FC041
:104BB000BE016C5C7F4F8DEF94E00E9470090497FA
:104BC000D1F480910205811111C00E940F1B6093E6
:104BD00085057093860580938705909388051092CC
:104BE0008905109299051092980518C090E090934D
:104BF0009905809398058091FD049091FE04DC0155
:104C0000ED91FC910288F389E02D199539C08EEF62
:104C10009FEF909399058093980532C08DEF94E0B3
:104C20000E94AF08882361F180917F0590918005F3
:104C3000019611F481E090E09093800580937F05C8
:104C400080917F05909180059093040580930505E0
:104C500027E030E04FEF54E063E974E08DEF94E03B
:104C60000E94E408FC01E851FB4F178A9C01245084
:104C700031094FEF54E062E88DEF94E00E94FE08A6
:104C800080911706811127C060E082E00E949B1A84
:104C9000E4EEF1E0E491E0930906EEE9F1E0E4915D
:104CA000F0E0EE0FFF1FEE57FE4F85919491909329
:104CB0000B0680930A0610921406109216061092A4
:104CC0001506E4E1F6E01292B6E0EC30FB07D9F706
:104CD00081E08093170665E974E08DEE96E00E940E
:104CE000750D0E945D0DF4011082118212821382F3
:104CF0001482158216821782809116068111B7C020
:104D000080910906E0910A06F0910B06F894218142
:104D1000982F90952923218378943DE743E050E034
:104D2000315009F4EAC1DA011197F1F72081282303
:104D3000B9F3F8942281292322832181282B21830E
:104D40007894ABE7B7E01197F1F7F89421819223BB
:104D50009183A3E1B1E01197F1F790817894E3E6B4
:104D6000F6E03197F1F7892309F0C7C108E010E0B8
:104D700021E061E0822F807F09F460E089E096E025
:104D800065962FAF65970E94891B65962FAD659735
:104D9000220F0150110969F7F894E0910A06F09189
:104DA0000B06918180910906809598239183E0916B
:104DB0000A06F0910B06928189238283789401E0A0
:104DC000F12CE12C11E089E096E00E94651B682F30
:104DD00089E096E065966FAF65970E94651B6596C2
:104DE0006FAD6597613019F48130C9F436C0EF2D8D
:104DF000F0E068131EC080911406181740F4DF011C
:104E0000A75FB94F13968C91802349F402C01817FD
:104E100031F060E0193060F41093150609C0EF2DF1
:104E2000F0E0E75FF94F8381802B838361E008C066
:104E3000E12EE75FF94F9381802F8095892383834B
:104E400089E096E00E94891B1F5F000F11F4F39424
:104E500001E0F7E0FF1508F0B6CF113440F0E09222
:104E60001406E11061C181E0809316065DC11092C5
:104E70001406109216061092150680E0ACE0B6E01B
:104E80003401F4019D91919364962EAD3FAD6497EA
:104E9000E217F307B9F7882309F42FC1D401E0E042
:104EA00087E0880D8A1739F09D91E927F0E0E85DE9
:104EB000FD4FE491F7CFD40117968C91E8132AC1E6
:104EC00081E290E09AA389A31BA21CA21DA226E066
:104ED00030E040E050E02EA33FA348A759A71AA610
:104EE0001BA61CA61DA68BE094E09F8F8E8F80E2F0
:104EF0008EA718AA1FA66E0133E0C30ED11CDAAA32
:104F0000C9AA1BAAA60163ED72E0CE0101960E9418
:104F10001A0B83EC92E09A8389838DEC92E09F8F49
:104F20008E8F1F821E82198618861B861A861D8602
:104F30001C861F861E86198A188A81EA92E09C8345
:104F40008B8388E090E09E8B8D8B188E1F8AC4D255
:104F50009C8B8B8B1B8E1A8E1D8E1C8E80E18A8BF8
:104F600000E010E027E5A22E24E0B22E34E1432E2B
:104F70007E0144E3E40EF11CD3015D903D01E98123
:104F8000FA8136970190F081E02D329621E030E0F1
:104F90002C0F3D1FE20FF31F818192818F71806280
:104FA00092838183E981FA8136970190F081E02D27
:104FB0003296E20FF31F8181928194609283818304
:104FC000B901CE01805B9F4F0E94E20CE981FA811A
:104FD00036970190F081E02DEC0DFD1D81819281CD
:104FE00085FD18C086FF05C092FD17C082E694E0DB
:104FF0001FC087FF15C09C012227307292FF05C099
:10500000232B89F48BE694E013C0232B79F484E7F7
:1050100094E00EC089E594E00BC08DE594E008C0F3
:1050200080E090E005C086E694E002C080E794E06E
:105030001F921F921F925F929F938F931F924F9286
:10504000FF92EF92A7D39C01990F440B550BB70128
:10505000CE0101960E94410CE981FA8136970190B8
:10506000F081E02DEC0DFD1D818192810FB6F89449
:10507000DEBF0FBECDBF96FF04C0CE0101960E94D9
:105080001E0CB501CE0101960E94750D0F5F1F4FDA
:105090000830110569F00730110529F498EAA92EA6
:1050A00094E0B92E69CF87E5A82E84E0B82E64CFAE
:1050B0008E01005B1F4F2FEF3FEF40E050E0BE013D
:1050C0006D5E7F4FC7010E94BD0DCE0101960E940B
:1050D000BC1767EA74E08DEE96E00E94750D28AD6E
:1050E00039AD40E050E06CA97DA90E94760B0E948A
:1050F0005D0DC7010E94F30C0DC0109214061092B2
:10510000160610921506E4E1F6E0129256E0EC3035
:10511000F507D9F768E873E180E090E00E94D71ABC
:105120000E94AB180C94562080910C06882309F439
:105130009ECE81E0A3CE8DEE96E00C94F30A0F9301
:105140001F93CF93DF93EDE1F7E08FE494E0918339
:105150008083128213821482158200E516E0F80122
:105160001382128248EE53E060E070E0448355837E
:105170006683778323EC33E03183208325EC30E0B2
:105180003587248724EC30E03787268720EC30E011
:10519000318B208B21EC30E0338B228B22EC30E002
:1051A000358B248B26EC30E0378B268B118E128EBC
:1051B000138E148EE3E2F7E09183808312821382D0
:1051C00014821582E9E2F7E09183808312821382D0
:1051D00014821582EFE2F7E09183808312821382BA
:1051E00014821582E5E3F7E09183808312821382B3
:1051F00014821582EBE3F7E091838083128213829D
:1052000014821582E1E4F7E0918380831282138295
:1052100014821582E7E4F7E091838083128213827F
:1052200014821582EDE4F7E0918380831282138269
:1052300014821582E3E5F7E0918380831282138262
:1052400014821582E9E5F7E091838083128213824C
:1052500014821582EFE5F7E0918380831282138236
:1052600014821582E5E6F7E091838083128213822F
:1052700014821582E2E4F6E0918380831282138225
:1052800014821582EAE4F6E091838083128213820D
:1052900014821582EBE6F7E09183808312821382F9
:1052A00014821582E1E7F7E09183808312821382F2
:1052B00014821582E7E1F7E09183808312821382E2
:1052C00014821582CDEED6E081E290E0988F8F8B2C
:1052D000198E1A8E1B8E86E090E0A0E0B0E08C8FD5
:1052E0009D8FAE8FBF8F18A219A21AA21BA28BE0AE
:1052F00094E09D8B8C8B80E28CA31EA21DA28FEE6E
:1053000096E098A78FA319A6AC0165E474E0CE01DE
:105310000E941A0B85E394E0998388838FE394E0DD
:105320009D8B8C8B1E821D8218861F821A86198681
:105330001C861B861E861D86188A1F8683E194E0C4
:105340009B838A831B8B0A8B80E1898BDF91CF91B2
:105350001F910F9108958F929F92AF92BF92CF921B
:10536000DF92EF92FF92CF93DF93EC016881798116
:105370008A819B81611571058105910521F464E2A3
:1053800079ED8BE597E02DE133EF41E050E038D047
:1053900049015A019B01AC01A7EAB1E44DD06B0170
:1053A0007C01ACEEB4EFA501940152D0DC01CB013D
:1053B0008C0D9D1DAE1DBF1DB7FF03C00197A10938
:1053C000B04888839983AA83BB83BC01CD019F77B2
:1053D000DF91CF91FF90EF90DF90CF90BF90AF9093
:1053E0009F908F900895B7CF82E092E0B4CF609302
:1053F00002027093030280930402909305020895C1
:10540000052E97FB16F400940FD057FD05D024D03D
:1054100007FC02D046F408C0509540953095219580
:105420003F4F4F4F5F4F08959095809570956195D0
:105430007F4F8F4F9F4F089531D0A59F900DB49F00
:10544000900DA49F800D911D11240895B7FFF4CFF6
:10545000F3DF821B930B0895A1E21A2EAA1BBB1B3C
:10546000FD010DC0AA1FBB1FEE1FFF1FA217B30730
:10547000E407F50720F0A21BB30BE40BF50B661F46
:10548000771F881F991F1A9469F76095709580950A
:1054900090959B01AC01BD01CF010895A29FB00181
:1054A000B39FC001A39F700D811D1124911DB29F58
:1054B000700D811D1124911D0895EE0FFF1F881F8F
:1054C0008BBF0790F691E02D1994692796276927DD
:1054D0007827872778270895CF93DF938230910527
:1054E00010F482E090E0E0917907F0917A0720E0F3
:1054F00030E0C0E0D0E0309711F140815181481791
:105500005907C0F04817590761F4828193812097A9
:1055100019F09B838A832BC090937A078093790735
:1055200026C02115310519F04217530718F49A01C6
:10553000BE01DF01EF010280F381E02DDCCF2115F8
:10554000310509F1281B390B2430310590F41296EE
:105550008D919C9113976115710521F0FB01938347
:10556000828304C090937A0780937907FD01329675
:1055700044C0FD01E20FF31F819391932250310942
:105580002D933C933AC02091770730917807232BD5
:1055900041F420910802309109023093780720935A
:1055A000770720910602309107022115310541F459
:1055B0002DB73EB740910A0250910B02241B350BC8
:1055C000E0917707F0917807E217F307A0F42E1B1C
:1055D0003F0B2817390778F0AC014E5F5F4F241757
:1055E000350748F04E0F5F1F5093780740937707B9
:1055F0008193919302C0E0E0F0E0CF01DF91CF9181
:1056000008950F931F93CF93DF93009709F48CC0F5
:10561000FC013297138212820091790710917A0768
:105620000115110581F420813181820F931F209192
:105630007707309178072817390779F5F0937807BD
:10564000E093770771C0D80140E050E0AE17BF0784
:1056500050F412962D913C911397AD01211531050F
:1056600009F1D901F3CF9D01DA01338322836081EF
:105670007181860F971F8217930769F4EC012881C7
:105680003981260F371F2E5F3F4F318320838A8158
:105690009B8193838283452B29F4F0937A07E093CF
:1056A000790742C01396FC93EE931297ED0149914E
:1056B00059919E01240F351FE217F30771F4808181
:1056C0009181840F951F029611969C938E938281EF
:1056D000938113969C938E931297E0E0F0E0D801AB
:1056E00012968D919C911397009719F0F8018C01F7
:1056F000F6CF8D919C9198012E5F3F4F820F931FA3
:1057000020917707309178072817390769F4309787
:1057100029F410927A071092790702C0138212823C
:105720001093780700937707DF91CF911F910F9126
:10573000089581E090E0F8940FC3911155C2803232
:1057400019F089508550D0F70895FB01DC0104C0A1
:105750008D910190801921F441505040C8F7881B69
:10576000990B08956817790768F4FB01DC01E40FD1
:10577000F51FA40FB51F02C002900E924150504079
:10578000D8F708953FC2FB01DC0101900D92002083
:10579000E1F708950F931F93CF93DF93CDB7DEB753
:1057A0002E970FB6F894DEBF0FBECDBF0E891F89AE
:1057B000888D998D26E02C831A83098397FF02C078
:1057C00080E090E801979E838D83AE01445E5F4F39
:1057D0006A8D7B8DCE01019619D04D815E8157FD7A
:1057E0000AC02F813885421753070CF49A01F8013B
:1057F000E20FF31F10822E960FB6F894DEBF0FBE95
:10580000CDBFDF91CF911F910F9108952F923F92BD
:105810004F925F926F927F928F929F92AF92BF92C0
:10582000CF92DF92EF92FF920F931F93CF93DF936C
:10583000CDB7DEB72C970FB6F894DEBF0FBECDBF45
:105840007C016B018A01FC0117821682838181FF32
:10585000B0C1CE0101964C01F7019381F60193FD91
:10586000859193FF81916F01882309F49EC1853250
:1058700039F493FD859193FF81916F01853221F475
:10588000B70190E0D3D1E8CF512C312C20E0203269
:10589000A0F48B3269F030F4803259F0833269F42D
:1058A00020612CC08D3239F0803339F4216026C05C
:1058B0002260246023C0286021C027FD27C030ED6E
:1058C000380F3A3078F426FF06C0FAE05F9E300DBC
:1058D0001124532E13C08AE0389E300D1124332E2C
:1058E00020620CC08E3221F426FD5FC1206406C008
:1058F0008C3611F4206802C0883641F4F60193FD1D
:10590000859193FF81916F018111C1CF982F9F7D68
:105910009554933028F40C5F1F4FFFE3F9830DC0BB
:10592000833631F0833771F0833509F057C021C0D9
:10593000F801808189830E5F1F4F44244394512CCA
:10594000540114C03801F2E06F0E711CF801A08000
:10595000B18026FF03C0652D70E002C06FEF7FEFBE
:10596000C5012C8758D12C0183012C852F77222E3D
:1059700016C03801F2E06F0E711CF801A080B180F2
:1059800026FF03C0652D70E002C06FEF7FEFC501F9
:105990002C872DD12C012C852068222E830123FCFD
:1059A00019C0832D90E048165906A0F4B70180E293
:1059B00090E03CD13A94F5CFF50127FC859127FE84
:1059C00081915F01B70190E031D131103A94F1E05B
:1059D0004F1A51084114510479F7DEC0843611F092
:1059E000893631F5F80127FF07C060817181828116
:1059F00093810C5F1F4F08C060817181072E000CDE
:105A0000880B990B0E5F1F4F2F76722E97FF09C0E0
:105A100090958095709561957F4F8F4F9F4F20682F
:105A2000722E2AE030E0A40139D1A82EA81843C074
:105A3000853729F42F7EB22E2AE030E025C0F22FE0
:105A4000F97FBF2E8F36C1F018F4883579F0ADC0DC
:105A5000803719F0883721F0A8C02F2F2061B22E8F
:105A6000B4FE0DC08B2D8460B82E09C024FF0AC07F
:105A70009F2F9660B92E06C028E030E005C020E1D7
:105A800030E002C020E132E0F801B7FE07C06081DB
:105A90007181828193810C5F1F4F06C0608171818B
:105AA00080E090E00E5F1F4FA401F8D0A82EA81848
:105AB000FB2DFF777F2E76FE0BC0372D3E7FA51482
:105AC00050F474FE0AC072FC08C0372D3E7E05C03B
:105AD000BA2C372D03C0BA2C01C0B52C34FF0DC031
