:100000001BC100004AC1000048C1000046C10000F9
:1000100044C1000042C1000040C100003EC10000D8
:100020003CC100003AC1000038C1000036C10000E8
:1000300034C1000032C1000030C100002EC10000F8
:100040002CC100002AC1000028C1000026C1000008
:1000500024C1000022C1000020C100000C94172A16
:100060001CC100000C946E290C94452916C1000097
:1000700014C1000012C1000010C100000EC1000038
:100080000CC100000AC1000008C1000006C1000048
:1000900004C1000002C1000000C10000FEC0000059
:1000A000FCC00000FAC00000F8C00000F6C000006C
:1000B000F4C00000F2C00000F0C00000EEC000007C
:1000C000ECC00000EAC00000E8C00000E6C000008C
:1000D000E4C00000E2C000000C941C290C94F3283A
:1000E000DCC000005A325D324C325032543294320D
:1000F000613265326B326F32733279327D328132E6
:10010000943287328B328F326364696E6F7073758D
:1001100078585B0000002200250028002B002E00EC
:100120003100340002010000050108010B0100004C
:100130000A0B02090C0D0E08070304010000000061
:1001400000000000000000000000000000000000AF
:10015000000000000000000000001211100000006C
:10016000000000000000000000000000000000008F
:100170000000000000002100240027002A002D00BC
:100180003000330001010000040107010A010000F2
:1001900020002300260029002C002F00320000013F
:1001A000000003010601090105050505070508080A
:1001B0000808020202020A0A0808040404040101F1
:1001C0000101010101010303030303030303040706
:1001D00007070C0C0C0C0C0C0C0C0202020206069D
:1001E0000606060606060B0B0B0B0B0B0B0B010290
:1001F0001020200808102040102040800201020139
:1002000008040201010204081020408080402010F0
:100210000804020180040201804020100804020149
:1002200008040201010204081020408001020408B1
:100230001020408063375F3711241FBECFEFD1E21B
:10024000DEBFCDBF00E00CBF15E0A0E0B2E0E8E803
:10025000F3E800E00BBF02C007900D92A639B1078A
:10026000D9F728E0A6E9B5E001C01D92AA3EB20781
:10027000E1F711E0CBE1D1E000E006C021970109F0
:10028000802FFE010E940E3ACA31D10780E0080794
:10029000A9F70E94782D0C94B341B2CE80E3FB0104
:1002A00080833296842F82958F7090E1899F4019C8
:1002B00011244A3014F4405D01C0495C4293482F38
:1002C0008111F0CF0895CB010895CF93DF93EC0116
:1002D000E881F9810288F389E02D19958F3F2FEF8E
:1002E000920731F02D813E812F5F3F4F3E832D835A
:1002F000DF91CF9108958FEF9FEF089560E070E058
:10030000CB01089580E090E00895CB010895CF934C
:10031000DF93EC0188899989DC01ED91FC910480DF
:10032000F581E02D1995892B59F088899989DC018F
:10033000ED91FC910680F781E02DDF91CF9119942A
:100340008FEF9FEFDF91CF910895CF93DF93EC0173
:1003500088899989DC01ED91FC910480F581E02D7B
:100360001995892B59F088899989DC01ED91FC91C7
:100370000084F185E02DDF91CF9119948FEF9FEFED
:10038000DF91CF910895AF92BF92CF92DF92EF921B
:10039000FF920F931F93CF93DF9300D01F92CDB79F
:1003A000DEB78C015B01C12CD12C7601F80180896C
:1003B0009189DC01ED91FC910680F781E02D298384
:1003C0003A834B835C83199529813A814B815C8107
:1003D0008F3F71F0C216D306E406F5064CF4D50142
:1003E0008D935D01BFEFCB1ADB0AEB0AFB0ADECF70
:1003F000C701B6010F900F900F900F90DF91CF9132
:100400001F910F91FF90EF90DF90CF90BF90AF9032
:100410000895DC0150968D919C915197DC01ED91EE
:10042000FC910480F581E02D199480E090E008951E
:1004300080E090E0089580E090E0089580E090E012
:1004400008950895CF92DF92EF92FF920F931F933A
:10045000CF93DF93EC018B010E940B2A6B017C018F
:1004600088819981DC01ED91FC910480F581E02D7A
:100470001995892B79F40E940B2AAB01BC014C1908
:100480005D096E097F0948395A436105710540F3DA
:1004900080E00CC088819981DC01ED91FC9106809F
:1004A000F781E02D1995F801808381E0DF91CF91EC
:1004B0001F910F91FF90EF90DF90CF9008950F93D1
:1004C0001F93CF93DF938C01EB016F3F8FEF780782
:1004D00019F480E090E00FC06A3031F46DE0F8016B
:1004E000808991890E94712D6C2FF80180899189F2
:1004F0000E94712DCE01DF91CF911F910F91089530
:100500008F929F92BF92CF92DF92EF92FF920F93C2
:100510001F93CF93DF9300D01F92CDB7DEB78C012E
:100520004B01C12CD12C7601C216D306E406F50688
:1005300044F5F401B1904F01FAE0BF120EC06DE036
:10054000F8018089918929833A834B835C830E94D7
:10055000712D5C814B813A8129816B2DF801808955
:10056000918929833A834B835C830E94712DFFEF2D
:10057000CF1ADF0AEF0AFF0A5C814B813A81298199
:10058000D3CFCA01B9010F900F900F900F90DF9158
:10059000CF911F910F91FF90EF90DF90CF90BF9080
:1005A0009F908F9008950C94B23A0C94B23A0895AB
:1005B00008950C94B23ADC01ED91FC9136972081BC
:1005C0003181820F931FF5CF0C94B23A2F923F9254
:1005D0004F925F926F927F928F929F92AF92BF9253
:1005E000CF92DF92EF92FF920F931F93CF93DF93FF
:1005F000CDB7DEB765970FB6F894DEBF0FBECDBF9F
:100600007C016B013A01FB0120E080E090E06AE0B0
:100610003191332309F140ED430F4A3080F4689F54
:10062000A001699F500D1124CA01C097830F911D2D
:1006300037FD9A958F3F910559F350F313C03E3221
:1006400089F4233079F0D301A20FB11D12968C9357
:100650002F5F80E090E0DCCF233021F4F30185832D
:1006600081E021C0F70142815381648175818091CD
:10067000980790919907A0919A07B0919B07481706
:1006800059076A077B0709F49EC10E940B2A87015C
:10069000085F1F4F6F7077277C5FC8010E94971A11
:1006A000813019F080E090E0F3C18AE494E09A830D
:1006B0008983F70182819381A481B5818B839C8397
:1006C000AD83BE8345E350E0BE016F5F7F4FC8013D
:1006D0000E949F1B892B19F4C12CD12C6FC10E9441
:1006E0000B2AF701778366837627672776277A8335
:1006F000698342E050E0BE016F5F7F4FC8010E94F6
:10070000D81981E090E09E878D8742E050E0BE01DD
:10071000635F7F4FC8010E94D81980E091E09E87F7
:100720008D8742E050E0BE01635F7F4FC8010E94A9
:10073000D8191E861D8642E050E0BE01635F7F4FE0
:10074000C8010E94D81942E050E0BE01635F7F4FAC
:10075000C8010E94D81942E050E0BE01635F7F4F9C
:10076000C8010E94D8195601F5018081882311F132
:10077000F6015F018191811115C045018C189D081A
:100780001814190494F48F8641E050E0BE01615FB3
:100790007F4FC8010E94D819A401B601C8010E9468
:1007A000D81903C08E3229F7E8CF6501FFEFCF1AC1
:1007B000DF0ADACF1F8641E050E0BE01615F7F4F64
:1007C000C8010E94D819C12CDD24D394DE86CD86C1
:1007D00042E050E0BE01635F7F4FC8010E94D8191C
:1007E000DE86CD8642E050E0BE01635F7F4FC801E8
:1007F0000E94D819C8010E94EB1A892B09F46CCF0A
:1008000063E0A62EB12CF2E06F0E711C0E940B2A41
:100810001B012C01C8010E94811918161906A4F0A9
:100820000E940B2ADC01CB0182199309A409B509A6
:1008300089389341A105B105D0F462E370E080E00E
:1008400090E00E94D329E6CFF70142815381648171
:100850007581808D918DA28DB38D481759076A07D8
:100860007B0741F4848D958DC59721F406C02FEF49
:100870003FEF9AC02EEF3FEF97C0F70181A192A101
:100880000C970CF4A6C04CE050E0BE016F5F7F4FA8
:10089000C8010E9417198B8190E0982F88272C811E
:1008A000822B9A8B898B298130E0322F22274A8133
:1008B000242BF701468157814217530709F086C060
:1008C00097FF84C08F709270892B09F0DEC0CF80B3
:1008D000D12CDC2CCC248885C82AC114D10409F47D
:1008E000D1C0812C912C8D8190E0982F88272E816A
:1008F000822B8816990608F46FC0812C912C41E058
:1009000050E0BE016D5E7F4FC8010E9417198B89B0
:10091000982F907C09F093C0811186C08B8981113A
:10092000EECF42E050E0BE01615F7F4FC8010E9400
:10093000171942E050E0BE01635F7F4FC8010E947B
:100940001719C8010E943519C8010E943519C8013C
:100950000E943519C8010E94351942E050E0BE01DD
:100960006F5E7F4FC8010E9417198F859889811586
:10097000914009F069C02D853E8532272327322713
:100980002130310509F060C089899A898115944028
:1009900009F075C044E050E0B301C8012C8B3D8BD9
:1009A0000E9417192C893D896901F1E0AF1AB1083D
:1009B00029F02FEFC216D20609F428CFC8010E94F1
:1009C000831AC60165C08EEF9FEF62C02CEF3FEF28
:1009D000EBCF2DEF3FEFE8CF41E050E0BE01635F8A
:1009E0007F4FC8010E9417198D85811113C08D8515
:1009F0008111F2CFC8010E943519C8010E94351932
:100A0000C8010E943519C8010E943519FFEF8F1ADD
:100A10009F0A69CF8D859FEF980F9D87882339F3B3
:100A2000C8010E943519F6CF8B899FEF980F9B8BD9
:100A3000882309F473CFC8010E943519F5CFC80186
:100A40000E9435191B8A6ACF412C512C89899A89B9
:100A50009827892798274816590638F4C8010E9414
:100A600035198FEF481A580AF1CFEFEF8E1A9E0A08
:100A70008C149D0409F043CF26EF3FEF95CF27EF6D
:100A80003FEF92CF2AEF3FEF8FCF2BEF3FEF8CCF8F
:100A900065960FB6F894DEBF0FBECDBFDF91CF9144
:100AA0001F910F91FF90EF90DF90CF90BF90AF908C
:100AB0009F908F907F906F905F904F903F902F907E
:100AC00008952F923F924F925F926F927F928F92F2
:100AD0009F92AF92BF92CF92DF92EF92FF920F93CD
:100AE0001F93CF93DF93CDB7DEB7E3970FB6F8949C
:100AF000DEBF0FBECDBF7C011A012B0139010E9460
:100B00000B2A4B015C0187010D5B1F4FC8010E943E
:100B1000811918161906A4F00E940B2ADC01CB01DA
:100B200088199909AA09BB09281639064A065B06DD
:100B3000D8F062E370E080E090E00E94D329E6CF35
:100B400042E250E0BE016F5F7F4FC8010E9417195B
:100B50008981823011F080E061C1F8018489958932
:100B600083349105C1F702C08FEF58C16D817E813A
:100B70008F8198850E94163A4B015C01F3016083D6
:100B800071838283938346E050E0B701685F7F4FB3
:100B9000CE014D960E944E3B892BE9F6F7018081EC
:100BA0009181A281B38188169906AA06BB0698F2A4
:100BB00084819581A681B78188159905AA05BB0511
:100BC00050F289899A89AB89BC8986879787A08BDF
:100BD000B18B8EECA82EB12CC8010E943519F1E022
:100BE000AF1AB108C9F719A6670182E2C80ED11C75
:100BF000F701B696FBA7EAA7C7018A969DA78CA71F
:100C00003C974F0189969FA78EA73897F9ABE8AB21
:100C10001701F6E12F0E311CC5979BAB8AABF8018B
:100C2000818D928D181619060CF0F7C0C8010E942C
:100C300035198333910509F4CBC0FCF4813091055B
:100C4000C9F11CF4892B59F3DCC083309105D1F133
:100C5000069709F0D6C0C8010E9435195C0144E02E
:100C600050E06AA97BA9C8010E941719412C512C98
:100C7000BB24F4E0AF1AB10840C08A33910509F4EF
:100C80007BC03CF48533910569F0C69709F440C0F8
:100C9000B8C08B33910509F485C08F3F910509F4E5
:100CA000BECFAFC0C8010E943519C8010E943519D6
:100CB00089A7B5CFC8010E94351944E050E068A962
:100CC00079A93AC0C8010E9435195C0144E050E09E
:100CD000B101C8010E941719412C512CBB2494E08A
:100CE000A91AB1084A145B040CF099CFC8010E94FC
:100CF0003519EFEF4E1A5E0AF5CF4A145B040CF07B
:100D00008ECFC8010E9435198FEF481A580AF5CFC7
:100D1000C8010E943519B82EF701828D811110C0CB
:100D2000838D81110DC0848D81110AC0858D811143
:100D300007C044E050E0B401C8010E9417196FCF0A
:100D4000EEA5FFA54080518062807380B401CE0182
:100D500083960E94E3288DA19EA1AFA1B8A584151A
:100D60009505A605B70529F3BB2009F458CFC8019E
:100D70000E943519BA94F8CFC8010E94351944E091
:100D800050E06AA57BA5C8010E941719F70166A16A
:100D900077A180A591A50E94163A66A377A380A7A4
:100DA00091A73DCFC8010E94351944E050E06CA5E1
:100DB0007DA5C8010E941719F70162A573A584A536
:100DC00095A50E94163A62A773A784A795A727CF77
:100DD000C8010E94351944E050E0B601C8010E94E4
:100DE0001719F70162A173A184A195A10E94163A77
:100DF00062A373A384A395A366A777A780AB91ABE7
:100E00000ECFC8010E943519B82EBB2009F407CFB8
:100E1000C8010E943519BA94F8CF89A5E3960FB698
:100E2000F894DEBF0FBECDBFDF91CF911F910F9120
:100E3000FF90EF90DF90CF90BF90AF909F908F90FA
:100E40007F906F905F904F903F902F9008957F928A
:100E50008F929F92AF92BF92CF92DF92EF92FF92CA
:100E60000F931F93CF93DF93CDB7DEB7A6970FB63F
:100E7000F894DEBF0FBECDBF8C01762E942E852E4A
:100E800020E2B22ECE0101967C01FC012B2D1192A5
:100E90002A95E9F78AE494E09AA389A38FEF8BA3BC
:100EA0008CA38DA38EA3680183E4C80ED11C43E4F8
:100EB00050E0BE016F5D7F4FC6010E949F1B0196EF
:100EC00009F4BCC081E089838A8386E0A82EAB82C6
:100ED0001C82F80164817581868197810E94163A8F
:100EE0006D837E838F83988789869A8680E890E0D9
:100EF0009C878B874CE150E0B701C6010E94D8194E
:100F0000F7012B2D11922A95E9F7480188E0880E08
:100F1000911CF401D70101900D92AA94E1F740E1F0
:100F200050E0B701C6010E94D819F7011192BA9496
:100F3000E9F796E0A92EB12C40E250E0B701C601D6
:100F40000E94D819F1E0AF1AB108B1F783E689839E
:100F500092E89A8393E59B838C8385E38D8381E07C
:100F60008E837F829DE3988797E099878A8786E0C2
:100F7000F401DE011B9601900D928A95E1F78CE059
:100F8000898B8A8B62EA74E0CE0143960E94753B9E
:100F9000F8014385BE01675E7F4FC8017FD9F80124
:100FA0004485BE01655E7F4FC80178D9F80145854B
:100FB000BE01635E7F4FC80171D94EE150E0B701B9
:100FC000C6010E94D819F3E07F121EC082E3898314
:100FD00084E08A83F80196859B8397859C8390891A
:100FE0009D8391899E8396E39F838887828D8987DD
:100FF000838D8A87848D8B87858D8C874CE050E02C
:10100000B701C6010E94D81987E3898386E08A83E5
:1010100091E09B8393E09C838D838FE08E838AE3B2
:101020008F838BE388878FEF898749E050E0B70192
:10103000C6010E94D819C6010E94EB1AA6960FB6E7
:10104000F894DEBF0FBECDBFDF91CF911F910F91FE
:10105000FF90EF90DF90CF90BF90AF909F908F90D8
:101060007F900895CF93DF93FC01A081B181109709
:1010700041F1EC01ED91FC9111970488F589E02D87
:10108000CD01199581111FC0FE01E556FF4F8081EA
:101090009181892BB1F48DEF9FEF918380838881BB
:1010A0009981DC01ED91FC910284F385E02D199585
:1010B00088819981DC01ED91FC910288F389E02D12
:1010C000199580E001C081E0DF91CF910895C901B9
:1010D0000296DB01FD01E61BF70B2D91222331F077
:1010E000FA01E80FF91F20830196F4CF9C012E1B13
:1010F0003F0B420F531FDA011297FC931196EC93AA
:101100000895AF92BF92CF92DF92EF92FF920F932A
:101110001F93CF93DF9300D01F92CDB7DEB77C0132
:10112000162FD90180E09A2F9F77AA0FAB2FAA1F05
:10113000BB0BB195109709F09068E1E0F0E0EC0F7F
:10114000FD1FE80FF11D90838F5F109761F7E82F67
:10115000F0E0BA016E1B7F0B6C5F7F4FDB011C93CD
:10116000CE0101965C0180E090E08E179F076CF441
:10117000D501DD905D018C010E1B1F0B040F151FA7
:10118000D8011596DC920196F0CFD7018D919C91F4
:1011900089010F5F1F4F0E0F1F1FDC01ED91FC91A6
:1011A0000280F381E02DA80119956C010E940B2AA1
:1011B000F701EC57FF4F608371838283938381E053
:1011C000C016D10609F080E00F900F900F900F909D
:1011D000DF91CF911F910F91FF90EF90DF90CF9013
:1011E000BF90AF9008952F923F924F925F926F926F
:1011F0007F928F929F92AF92BF92CF92DF92EF92A7
:10120000FF920F931F93CF93DF9300D01F92CDB720
:10121000DEB78C015B017C0142E0E40EF11CB701FA
:1012200011D9811129C025C05FEF451A550A89815E
:10123000D1018D931D01682F6F7770E0669DF001DD
:10124000679DF00D769DF00D1124CE0EDF1E47E058
:10125000660C771C881C991C4A95D1F787FF1EC025
:10126000BE016F5F7F4FC8012C83ECD82C818111A8
:10127000DBCF80E090E09BC0D80112962C911982C0
:101280001801B3E02B0E311C44244394512CC12C83
:10129000D12C612C712C43016394E2CF822F807F8B
:1012A00033243394803309F0312C8FEF840DF50112
:1012B0008083332039F1B701640D751DC801C2D890
:1012C0008823B9F2B2016F5F7F4F6E0D7F1DC80199
:1012D000B9D8882371F2F2E04F0E511CD5018C91E0
:1012E000F801E80FF11D6380712C762C662484814F
:1012F000680E711CF801828181FF08C0F2E06F0E58
:10130000711C04C080E0612C712C01C082E0E82EC9
:10131000F12CE418F508A80147565F4F5B834A8318
:101320002EEF822E99249A94C701840D951D8C1559
:101330009D0580F5BE016F5F7F4FC80183D888236C
:1013400009F497CFAA81BB818D919C910097A9F058
:10135000332099F0F5012081A401421B51099A0123
:10136000240D351D6216730640F4DC01ED91FC91ED
:101370000190F081E02D69811995B0E84B16510478
:1013800028F48981F801E40DF51D8283EFEF4E1AF0
:101390005E0ACACFF801E756FF4F80819181892B01
:1013A00029F4F1E84F16510408F063CFC2010F9001
:1013B0000F900F900F90DF91CF911F910F91FF90A1
:1013C000EF90DF90CF90BF90AF909F908F907F90E5
:1013D0006F905F904F903F902F9008951F93CF9301
:1013E000DF93EC01162F8F8580FF0BC0E881F98118
:1013F0000084F185E02D20E144E060E070E0CE0162
:101400001995EB85FC852D853E85812F90E0E217AF
:10141000F30758F410832B853C852F5F3F4F3C87A3
:101420002B87DF91CF911F910895E881F981028C7C
:10143000F38DE02DBC01CE01DF91CF911F91199466
:10144000AF92BF92CF92DF92EF92FF920F931F93D2
:10145000CF93DF9300D01F92CDB7DEB78C015B0135
:10146000C12CD12C7601C216D306E406F506ACF4E5
:10147000F50161915F01C80129833A834B835C8345
:10148000ADDF29813A814B815C81019649F06FEF94
:10149000C61AD60AE60AF60AE6CFB901CA0102C0A0
:1014A000B601C7010F900F900F900F90DF91CF9171
:1014B0001F910F91FF90EF90DF90CF90BF90AF9072
:1014C000089508950895FB0120813181FC01318345
:1014D0002083FB0142815381F901369720813181BC
:1014E000FC01E20FF31F51834083089520E334E0B1
:1014F000FC01318320832AE334E0358B248B60E4C4
:1015000074E0E1CFDC01ED91FC91369720813181CF
:10151000820F931FEBCFCF93DF93EC01E7DFCE0178
:10152000DF91CF910C94B23ADC01ED91FC913697AA
:1015300020813181820F931FEECFDB012D913C91F1
:101540001197FC0131832083F90136972081318185
:10155000FC01E20FF31F12968D919C9113979183DA
:10156000808381E290E094838383548B438B158244
:10157000158A08950895DC0113968D919C91149716
:10158000892B59F01596ED91FC91169717968D9130
:101590009C911897E817F90741F4ED91FC91119788
:1015A0000288F389E02DCD011994808190E008959F
:1015B000FC018789908D009769F124893589281766
:1015C000390718F4308F278B25C001976F3F2FEF15
:1015D000720729F4908F878B80E090E00895A089AE
:1015E000B1899B01215031092F3F310548F4262F45
:1015F000A80FB91F3C91231305C0908F878B08C09B
:1016000020E0F6CF278524FF05C0908F878B6C9351
:10161000CB0108958FEF9FEF0895CF93DF93EC01F7
:10162000E881F9810288F389E02D19958F3F2FEF2A
:10163000920731F02F89388D2F5F3F4F388F2F8BD6
:10164000DF91CF910895FC012789308D8489958998
:101650002817390740F480899189FC01E20FF31FB4
:10166000808190E008958FEF9FEF0895EF92FF92B1
:10167000CF93DF93FC01DB0160E070E0CB01E788F2
:10168000F08CC489D589EC16FD06A8F4621773079F
:101690008407950784F4C089D189CE0DDF1DC881E8
:1016A000CD936F5F7F4F8F4F9F4FC789D08D21960E
:1016B000D08FC78BE4CFDF91CF91FF90EF9008954B
:1016C000FC01848995892789308D821B930B0895AD
:1016D00080E090E00895242FDC01ED91FC910084DE
:1016E000F185E02D41E019940895089508950C9432
:1016F000B23ADC01ED91FC91369720813181820F65
:10170000931FF5CFEF92FF920F931F93CF93DF9329
:101710001F92CDB7DEB77C018E010F5F1F4F2FEFF9
:101720003FEF40E050E00E94171DC7010F90DF918E
:10173000CF911F910F91FF90EF9008950F931F93FA
:10174000CF93DF93EC01CB01088119817B836A83FE
:101750000E941D3A9983888320E030E08C819D812E
:101760002817390770F4E881F981E20FF31F3097E9
:1017700029F0D801A20FB31F8C9180832F5F3F4FB8
:10178000EDCFC801DF91CF911F910F910C94B23A28
:10179000FC01A081B1818C918D3051F024F48950ED
:1017A0008230B8F505C0803219F08F3219F00895F3
:1017B00011962CC011968C9111978A3219F08F32A4
:1017C000D1F008951196B183A083A081B181CD019C
:1017D00001969183808311968C9111978823C9F08B
:1017E0008A3299F712968C9112978F3271F713966D
:1017F0000DC08A3071F2A081B181CD010196918333
:10180000808311968C918111F4CF03C0B183A083A2
:10181000C0CF08950F931F93CF93DF931F92CDB73F
:10182000DEB78C016983B4DFD801ED91FC9111978B
:1018300080816981861305C03196ED93FC9381E028
:1018400001C080E00F90DF91CF911F910F9108951B
:10185000EF92FF920F931F93CF93DF931F921F92EC
:10186000CDB7DEB77C01FC01118210821382128297
:10187000158214828BE090E069837A830E941D3A7E
:101880008C0169817A81F1D7F701158304830F9068
:101890000F90DF91CF911F910F91FF90EF900895DE
:1018A000EF92FF920F931F93CF93DF931F921F929C
:1018B000CDB7DEB77C01FC01118210821382128247
:1018C000158214828EE090E069837A830E941D3A2B
:1018D0008C0169817A81F3D7F701158304830F9016
:1018E0000F90DF91CF911F910F91FF90EF9008958E
:1018F000FC019581692B83899489892B09F46160A6
:1019000065830895CF93DF93EC01E881F9813697E1
:101910000190F081E02DEC0FFD1F838994892BDE6F
:101920008F3F2FEF920789F00E94A639892BC1F0D3
:10193000E881F98136970190F081E02DEC0FFD1FD1
:10194000838994890E94A025E0CFE881F9813697A8
:101950008081918162E08C0F9D1FDF91CF91C8CF74
:10196000DF91CF910895FB0120813181FC0131830A
:101970002083FB0142815381F90136972081318117
:10198000FC01E20FF31F518340830895DB012D9189
:101990003C911197FC0131832083F9013697019026
:1019A000F081E02DE80FF91F12962D913C911397CD
:1019B00031832083DC0112961D921D921D921C9290
:1019C000159781E290E094838383548B438B158237
:1019D000158A0895EF92FF920F931F93CF93DF9391
:1019E0008C01DC011496CD91DC911597EA80FB8087
:1019F0008E819F81E80EF91EC8010296C9DED801CA
:101A00001296ED91FC91139790819732A9F1923241
:101A100099F180ED890F8A3078F081EA890F8C3155
:101A200058F08FEB890F8A3138F09B3229F083ED23
:101A3000890F823008F060C0F801228133812F5F66
:101A40003F4F338322832E813F81A9014F5F5F4F38
:101A50006C817D816417750740F06A817B81FB0191
:101A6000E20FF31F5F834E839083D8011296ED91AE
:101A7000FC9113979081CDCF3196D8011396FC93AA
:101A8000EE931297D8011296ED91FC911397208155
:101A9000222391F1AF014F5F5F4F13965C934E93FA
:101AA0001297291749F12C35A9F42181ADEAB4E048
:101AB0008C91882339F0821303C011962C9102C0B7
:101AC0001296F6CF2223C1F03296D8011396FC93DA
:101AD000EE9312974E815F81BA016F5F7F4FEC8169
:101AE000FD81E617F70770F2EA81FB81E40FF51F2D
:101AF0007F836E832083C6CF8E819F819C012F5F61
:101B00003F4F4C815D814217530748F04A815B810A
:101B1000FA01E80FF91F3F832E83108202C0E12CE7
:101B2000F12CC701DF91CF911F910F91FF90EF90A2
:101B300008950F931F93CF93DF93FC0104811581C8
:101B4000FB01C481D581AE010C171D0708F4A80163
:101B5000FB0160817181FC01808191810E947C3B4D
:101B6000009729F40C171D0738F080E006C0892F74
:101B7000881F8827881F01C081E0DF91CF911F91C6
:101B80000F910895EF92FF920F931F93CF93DF93DE
:101B9000EC018C819D818617970708F57A018B01EE
:101BA0008A819B818617970738F4685F7F4F861775
:101BB000970710F4CE01C2DD8C819D8180179107BB
:101BC00058F4E881F981E80FF91F309719F0D7012F
:101BD0002C9120830196F2CF1D830C8305C06817DA
:101BE000790710F47D836C83DF91CF911F910F9162
:101BF000FF90EF900895CF92DF92EF92FF920F93B4
:101C00001F93CF93DF931F92CDB7DEB77C016B019B
:101C1000BE016F5F7F4F2BD7D601ED91FC913697B8
:101C20000190F081E02DEC0DFD1D83899489A3DCEA
:101C30008C018F3FBFEF9B07B9F00E94A639892B1B
:101C400099F4C801C0970A97F8F0C8018D7F8C9766
:101C5000D9F00D32110519F00B32110529F4F701F5
:101C600084819581892B81F0F70184819581892B6D
:101C700069F5D601ED91FC9136978081918166E0FE
:101C80008C0D9D1D35DE22C0D601ED91FC9136975D
:101C90000190F081E02DEC0DFD1D838994890E9457
:101CA000A025C80101978F3F910570F40983D701E2
:101CB00014966D917C9115976F5F7F4FAE014F5FCA
:101CC0005F4FC7015FDFA8CF00E0F0CFC7010F90E3
:101CD000DF91CF911F910F91FF90EF90DF90CF9008
:101CE0000895CF92DF92EF92FF920F931F93CF93BD
:101CF000DF931F92CDB7DEB76C017B01BE016F5F32
:101D00007F4FB5D6D701ED91FC9136970190F081C8
:101D1000E02DEE0DFF1D838994892DDC8C018F3F12
:101D2000BFEF9B0721F10E94A639892B01F5D7014E
:101D3000ED91FC9136970190F081E02DEE0DFF1DA5
:101D4000838994890E94A025C80101978F3F91053E
:101D500060F40983F601648175816F5F7F4FAE0186
:101D60004F5F5F4FC6010EDFCDCF00E0F2CFF6012F
:101D700084819581892B51F4D701ED91FC9136979F
:101D80008081918166E08E0D9F1DB2DDC6010F90AE
:101D9000DF91CF911F910F91FF90EF90DF90CF9047
:101DA0000895EF92FF920F931F93CF93DF931F92AB
:101DB000CDB7DEB78C017B016F3F7F4F19F480E018
:101DC00090E027C0F801878584FF21C0F801818D4C
:101DD000928D648975898617970750F0E9826F5F45
:101DE0007F4FAE014F5F5F4FC8014096CBDE07C00B
:101DF000F80120893189F901E80FF91FE082F80123
:101E0000818D928D0196928F818FC70102C08FEFD5
:101E10009FEF0F90DF91CF911F910F91FF90EF9067
:101E200008952F923F924F925F926F927F928F927E
:101E30009F92AF92BF92CF92DF92EF92FF920F9359
:101E40001F93CF93DF93CDB7DEB72D970FB6F894DE
:101E5000DEBF0FBECDBF6C018B0119012A01490104
:101E6000FC01A18CB28CBE01655F7F4FCE01019653
:101E7000FED5FFEF2F163F0611F40E944A3B0115D5
:101E8000110579F01A86AE01465F5F4FB101CE01B0
:101E9000019678DE4D815E81B80189819A810E9428
:101EA000F41CF601048915890A151B0530F3980105
:101EB0002A193B0971012815390508F479016D804B
:101EC0007E800E191F09C301809590950817190788
:101ED000A0F6060D171DC60140964C01E614F70446
:101EE00050F41886AE01485F5F4FB8012C873D87DC
:101EF00049DE3D852C85F60180899189A9014E191D
:101F00005F09B7016A0D7B1D680F791FF301EA0DA8
:101F1000FB1D8E0F9F1F0E945B3B69817A81F6013A
:101F200080899189A3018A0D9B1D0E94F41C19864A
:101F3000AE01475F5F4FB801C40124DECE010196B8
:101F4000E9D4F601818D928D820D931D928F818F40
:101F5000C201B1012D960FB6F894DEBF0FBECDBF02
:101F6000DF91CF911F910F91FF90EF90DF90CF9075
:101F7000BF90AF909F908F907F906F905F904F90A9
:101F80003F902F900895EF92FF920F931F93CF935E
:101F9000DF931F92CDB7DEB7FC01922F9870822F8E
:101FA00080712871283119F44230A9F43AC04130C7
:101FB00011F48B0116C0423081F4882329F0048982
:101FC0001589060F171F02C000E010E0992349F0A1
:101FD0000789108D04C0413061F304891589060F0B
:101FE000171F2489358920173107D8F0992311F05C
:101FF000108F078B882399F07F011982AE014F5F04
:102000005F4FB801CF014096BDDDF7018489958906
:102010002789308D8217930710F4908F878BC80122
:1020200002C08FEF9FEF0F90DF91CF911F910F9123
:10203000FF90EF900895CF92DF92EF92FF920F936F
:102040001F93CF93DF931F92CDB7DEB77C016B0157
:102050008E010F5F1F4F2FEF3FEF40E050E00E94D7
:10206000171DF60187819085F701908787830F9070
:10207000DF91CF911F910F91FF90EF90DF90CF9064
:102080000895EF92FF920F931F93CF93DF931F92C8
:102090001F92CDB7DEB77C01FC0111821082138242
:1020A00012821582148289E090E069837A830E940B
:1020B0001D3A8C0169817A81BEDFF70115830483A3
:1020C0000F900F90DF91CF911F910F91FF90EF90A4
:1020D0000895AF92BF92CF92DF92EF92FF920F934B
:1020E0001F93CF93DF93CDB7DEB760970FB6F89409
:1020F000DEBF0FBECDBF8C017B015A01DB01119603
:102100008D919C911297F80192838183F801A181AE
:10211000B281F701838194818A179B0749F1C084BA
:10212000D18414966D917C911597CE01019683DF31
:10213000BE016F5F7F4FCE010A96F6011995B5017A
:10214000CE010A96F6DCD82ECE010A96E3D3CE0154
:102150000196E0D3DD2061F0D8011196ED91FC915C
:1021600012978281938112969C938E931197CECF72
:10217000C80160960FB6F894DEBF0FBECDBFDF91E9
:10218000CF911F910F91FF90EF90DF90CF90BF9074
:10219000AF900895CF93DF93EC01E881F9813697F2
:1021A0000190F081E02DE80FF91F83899489DC010B
:1021B000ED91FC910484F585E02D1995019649F483
:1021C000E881F98136978081918161E08C0F9D1FB4
:1021D0008FDBCE01DF91CF910895EF92FF920F93A5
:1021E0001F93CF93DF93CDB7DEB765970FB6F89403
:1021F000DEBF0FBECDBF8C017B01BC01CE01459679
:10220000EFD1C701FF0CAA0BBB0BF8012081318174
:10221000F90136970190F081E02DE00FF11F238145
:10222000348125FD18C026FF05C032FD17C021EC02
:1022300034E01FC027FF15C0A9014427507232FFA8
:1022400005C0452B89F42AEC34E013C0452B79F402
:1022500023ED34E00EC028EB34E00BC02CEB34E06F
:1022600008C020E030E005C025EC34E002C02FECCF
:1022700034E0BF93AF939F938F933F932F931F921D
:1022800084E18F939E012F5F3F4F79013F932F93FE
:102290000E948A3B9C01990F440B550BB701C80162
:1022A000D9D0D801ED91FC9136970190F081E02DC5
:1022B000E00FF11F838194810FB6F894DEBF0FBE4B
:1022C000CDBF96FF02C0C80165DFC80165960FB695
:1022D000F894DEBF0FBECDBFDF91CF911F910F915C
:1022E000FF90EF900895CF93DF93EC01E881F9819F
:1022F00036970190F081E02DE80FF91F83899489CA
:102300006DD8019649F4E881F981369780819181F1
:1023100062E08C0F9D1FECDACE01DF91CF91089522
:102320000F931F93CF93DF938C01EB0188819981E9
:10233000F801918380832A853B85FC0136970190C3
:10234000F081E02DE00FF11F318320838C859D8586
:10235000F801978386836A5F7F4FC8010696B3D8DA
:10236000BE016E5F7F4FC801DF91CF911F910F912A
:10237000FACACF93DF93EC0187EB92E099838883CD
:102380008BEC92E09987888781EC92E09F838E8323
:1023900069EA72E0CE01069696D865EA72E0CE014F
:1023A000DF91CF91E0CA0697E4CFDC01ED91FC917B
:1023B000369720813181820F931FDBCFCF93DF933C
:1023C000EC01D7DFCE01DF91CF910C94B23A0697A2
:1023D000F5CFDC01ED91FC91369720813181820FA0
:1023E000931FECCFEF92FF920F931F93CF93DF9346
:1023F0001F92CDB7DEB77C018E010F5F1F4F2FEF0D
:102400003FEF40E050E00E94171DC7010F90DF91A1
:10241000CF911F910F91FF90EF900895EF92FF924F
:102420000F931F93CF93DF931F92CDB7DEB77C013D
:102430008E010F5F1F4F2FEF3FEF40E050E00E94F3
:10244000171DC7010F90DF91CF911F910F91FF9042
:10245000EF9008952F923F924F925F926F927F92EA
:102460008F929F92AF92BF92CF92DF92EF92FF92A4
:102470000F931F93CF93DF93EC013B0149015A0166
:10248000E881F98136970190F081E02D3296E80FCE
:10249000F91FC284D384E484F584C21AD30AE40AFF
:1024A000F50A818192818E709927049719F516019A
:1024B000270112141304140415048CF421E0221AC9
:1024C000310841085108E881F98136970190F0817F
:1024D000E02DEC0FFD1F6089CE0105DFEACFD701AB
:1024E000C601F7FE03C080E090E0DC01C81AD90AFB
:1024F000EA0AFB0AE881F98136970190F081E02D24
:10250000EC0FFD1F03891489D8011F968C911F972A
:1025100080FF0BC0ED91FC910084F185E02D20E15E
:1025200044E060E070E0C8011995D801ED91FC919C
:10253000008CF18DE02DA5019401B301C80119951E
:102540006F3F7F4F09F442C0E881F98136970190CF
:10255000F081E02DEC0FFD1F838194818E7099270F
:102560000297F1F0E881F981369780819181C80F57
:10257000D91F1C861D861E861F86DF91CF911F9155
:102580000F91FF90EF90DF90CF90BF90AF909F9012
:102590008F907F906F905F904F903F902F90089515
:1025A0001C141D041E041F04ECF6E1E0CE1AD10831
:1025B000E108F108E881F98136970190F081E02D7A
:1025C000EC0FFD1F6089CE018EDEEACFE881F98134
:1025D00036978081918162E08C0F9D1F89D9B4CF9D
:1025E00021E0FC012083FB01A081B18116978D9130
:1025F0009C91E80FF91F81899289009709F0CACD53
:102600000895EF92FF920F931F93CF93DF93EC0106
:102610008B017A016E5F7F4FB9D9B8016A5F7F4F36
:10262000A701CE0106960E949D0AF8018081918142
:102630009983888322853385FC0136970190F08148
:10264000E02DEC0FFD1F31832083F80184859585F3
:102650009F838E83DF91CF911F910F91FF90EF9019
:102660000895CF92DF92EF92FF920F931F93CF9333
:10267000DF931F92CDB7DEB78C017B01FC01C480D4
:10268000D580FB01648175816C0D7D1D1982AE01C1
:102690004F5F5F4F77DAF701448155816081718127
:1026A000F801808191818C0D9D1D0E94F41CC80150
:1026B0000F90DF91CF911F910F91FF90EF90DF90DE
:1026C000CF9008957F928F929F92AF92BF92CF92B8
:1026D000DF92EF92FF920F931F93CF93DF9300D07F
:1026E00000D0CDB7DEB75C01DC010D911C91B801C3
:1026F00084E090E00E94E51C009739F0FC01118312
:102700000083138212828C0111C080911306811103
:102710000BC01092100610920F0610921206109223
:10272000110681E0809313060FE016E06501F2E0E8
:10273000CF0ED11C6BE7C6016DD8882309F44DC0BC
:102740006DE7C60167D881117BC086E0782EC50190
:1027500041D94C01892B09F440C06AE3C6015AD81B
:102760008823D9F11A821982BE016F5F7F4FC5019C
:102770000E940C2C882389F1D8011296ED90FC90D0
:102780001397E114F104D9F1F70162817381C40157
:102790000E946C3B892B71F0D701ED90FC90F1CF3A
:1027A000F182E082E114F104C1F0D70113969C920A
:1027B0008E921297FE013196D7011496872D0190C3
:1027C0000D928A95E1F76DE7C60124D8811138C0D2
:1027D0006CE2C6011FD88111BACF80911306811116
:1027E0000BC01092100610920F0610921206109253
:1027F000110681E0809313060FE016E021C0F80176
:10280000608171818AE090E00E94E51C7C01892B47
:1028100029F0F7011182108215821482D8011296D4
:10282000ED91FC911397309739F080819181009759
:1028300009F4B6CFFC01F9CFF801F382E282B2CFFE
:10284000C80126960FB6F894DEBF0FBECDBFDF914C
:10285000CF911F910F91FF90EF90DF90CF90BF909D
:10286000AF909F908F907F900895CF92DF92EF92DC
:10287000FF920F931F93CF93DF931F92CDB7DEB7D5
:102880007C016B018E010F5F1F4F2FEF3FEF40E088
:1028900050E00E94171DF60187819085A185B285C1
:1028A000F70187839087A187B2870F90DF91CF913F
:1028B0001F910F91FF90EF90DF90CF900895CF92EE
:1028C000DF92EF92FF920F931F93CF93DF931F92AC
:1028D000CDB7DEB76C017B018E010F5F1F4F2FEF6D
:1028E0003FEF40E050E00E94171DB701695F7F4F46
:1028F0002FEF3FEF40E050E0C60107960E94171D02
:102900000F90DF91CF911F910F91FF90EF90DF908B
:10291000CF900895FC01808191810C94B23A28E512
:1029200033E0FC01318320834096F4CFCF93DF93D3
:10293000EC01F5DFCE01DF91CF910C94B23ACF9349
:10294000DF93EC018AE793E0998388838EE893E034
:102950009CA38BA384E893E09F838E83CE0108968B
:10296000DEDF64E973E0CE01DF91CF91D9CC069729
:10297000E6CFDC01ED91FC91369720813181820F09
:10298000931FDDCFCF93DF93EC01D9DFCE01DF9131
:10299000CF910C94B23A0697F5CFDC01ED91FC9102
:1029A000369720813181820F931FECCFAF92BF9277
:1029B000CF92DF92EF92FF920F931F93CF93DF930B
:1029C000CDB7DEB762970FB6F894DEBF0FBECDBFAE
:1029D0008C017B015A01DB0111968D919C9112971C
:1029E000F80192838183F801A181B281F70183818B
:1029F00094818A179B0749F1C084D18414966D9104
:102A00007C911597CE01019630DFBE016F5F7F4F3D
:102A1000CE010C96F6011995B501CE010C9689D818
:102A2000D82ECE010C9676DFCE01019673DFDD2025
:102A300061F0D8011196ED91FC91129782819381FA
:102A400012969C938E931197CECFC80162960FB6C3
:102A5000F894DEBF0FBECDBFDF91CF911F910F91D4
:102A6000FF90EF90DF90CF90BF90AF900895CF93FD
:102A7000DF93EC0188E090E09B838A831D821C82B7
:102A80000E941D3A99838883DF91CF9108950F9317
:102A90001F93CF93DF931F92CDB7DEB78C01BC019C
:102AA000CE0101969DDD6AE0C8011DDCC80172DB24
:102AB000C8010F90DF91CF911F910F910895EF9270
:102AC000FF920F931F93CF93DF931F92CDB7DEB783
:102AD0008C017B01BC01CE01019682DDF7010190E2
:102AE0000020E9F731979F012E193F0940E050E09F
:102AF000B701C801AFDCC8010F90DF91CF911F91E2
:102B00000F91FF90EF900895EF92FF920F931F9314
:102B1000CF93DF931F92CDB7DEB78C017B0168178F
:102B20007907C9F0FC0184819581892B11F0158208
:102B30001482F701648175811982AE014F5F5F4F86
:102B4000C80120D8F7014481558160817181F80165
:102B50008081918149D7C8010F90DF91CF911F915A
:102B60000F91FF90EF900895AF92BF92CF92DF92B6
:102B7000EF92FF920F931F93CF93DF931F92CDB7E6
:102B8000DEB77C016A018E010F5F1F4F2FEF3FEF11
:102B900040E050E04CD7F60101900020E9F7319772
:102BA0008F010C191D09F701A480B5801982B801A5
:102BB0006A0D7B1DAE014F5F5F4FC7010E94C20DC2
:102BC000F70180819181A801B6018A0D9B1D0CD768
:102BD000C7010F90DF91CF911F910F91FF90EF9060
:102BE000DF90CF90BF90AF900895CF93DF93EC012B
:102BF0006C817D816F5F7F4F8A819B8186179707EC
:102C000018F4CE010E949E0BE881F9818C819D8190
:102C1000E80FF91F108288819981DF91CF91089583
:102C2000CF92DF92EF92FF920F931F93CF93DF9398
:102C30001F92CDB7DEB77C016B01FC0184819581C9
:102C4000892B11F015821482C114D104B1F0F60160
:102C500001900020E9F731978F010C191D091982A5
:102C6000AE014F5F5F4FB801C7010E94C20DA801BE
:102C7000B601F70180819181B7D6C7010F90DF912E
:102C8000CF911F910F91FF90EF90DF90CF9008951B
:102C9000CF93DF93EC0107963DDECE01DF91CF911C
:102CA00039CEAF92BF92CF92DF92EF92FF920F9305
:102CB0001F93CF93DF93CDB7DEB765970FB6F89428
:102CC000DEBF0FBECDBF8C017B015A01DB01119627
:102CD0008D919C911297F80192838183F801A181D3
:102CE000B281F701838194818A179B0751F1C084D7
:102CF000D18414966D917C911597CE010196DFDDFC
:102D0000BE016F5F7F4FCE010F96F6011995B50199
:102D1000CE010F960E94990DD82ECE010F96FADDA6
:102D2000CE010196B5DFDD2061F0D8011196ED915D
:102D3000FC9112978281938112969C938E931197A6
:102D4000CDCFC80165960FB6F894DEBF0FBECDBFDC
:102D5000DF91CF911F910F91FF90EF90DF90CF9077
:102D6000BF90AF9008958F929F92AF92BF92CF92F3
:102D7000DF92EF92FF920F931F93CF93DF93CDB724
:102D8000DEB765970FB6F894DEBF0FBECDBF6C01FE
:102D90007B015A01FB0101811281F701838194813A
:102DA0008017910739F4F701838194818017910787
:102DB00019F548C0F70180849184F8016481758118
:102DC000CE0101967CDDBE016F5F7F4FCE010F9675
:102DD000F4011995B501CE010F960E94990D982E18
:102DE000CE010F9697DDCE01019652DF9920D9F2E0
:102DF000F80102811381D1CFF70180849184F80119
:102E000064817581CE0101965ADDBE016F5F7F4FEF
:102E1000CE010F96F4011995BE01615F7F4FC50188
:102E20000E94990DB82ECE010F9674DDCE01019649
:102E30002FDFBB2039F0F70183819481F601928363
:102E4000818303C0F60112830183C60165960FB624
:102E5000F894DEBF0FBECDBFDF91CF911F910F91D0
:102E6000FF90EF90DF90CF90BF90AF909F908F90AA
:102E70000895CF92DF92EF92FF920F931F93CF931B
:102E8000DF93CDB7DEB7C654D1090FB6F894DEBFD5
:102E90000FBECDBF7C016B01AB01BC01CE018D5BD0
:102EA0009F4FFFDE2696EEADFFAD2697D701139616
:102EB0008D919C9114978E179F0741F064817581C5
:102EC000C6010E94990D882309F47FC0BE016A5B88
:102ED0007F4FCE01C996CBDD8E010F5F1F4F2FEFC5
:102EE0003FEF40E050E0B601CE014D96A0D52FEF68
:102EF0003FEF40E050E0BE01675C7F4FCE0184961B
:102F000096D5F70100851185BE01635E7F4FCE0126
:102F10000196D5DCBE016F5F7F4FCE010F96F801A1
:102F20001995AE01415F5F4FB701CE01805C9F4FA5
:102F3000B8DECE010F96EEDCCE010196A9DE239617
:102F4000AEADBFAD2397F70183819481A817B90770
:102F500009F078C0F70185819681892B09F04CC072
:102F600086E090E00E941D3A8C01BE01635E7F4FB7
:102F70000E94500CD70112961C930E931197139632
:102F8000ED91FC91149711830083D80111961C9246
:102F90001E921396FC93EE93129781E090E0F70156
:102FA00096838583D7011396ED91FC9114979081B8
:102FB000818125969FAF259726968FAF2697CE01C4
:102FC0004D9666DECE01C996A5DC2696EEADFFAD28
:102FD0002697848195810796CA5BDF4F0FB6F894D8
:102FE000DEBF0FBECDBFDF91CF911F910F91FF903C
:102FF000EF90DF90CF90089586E090E00E941D3A18
:103000008C01BE01635E7F4F0E94500CD701139666
:10301000ED91FC91149780819181D80111969C9338
:103020008E931396FC93EE931297A081B181139621
:103030001C930E93129711830083F701858196816B
:103040000196AECFF7010085118514966D917C91A4
:103050001597CE01019633DCBE016F5F7F4FCE0125
:103060008B96F8011995D70118960D911C91199717
:10307000BE01635E7F4FCE010F9621DCBE01615F12
:103080007F4FCE01C296F8011995BE01655D7F4F55
:10309000CE01C2960E94990D182FCE01C2963ADC3D
:1030A000CE010F96F5DDCE018B9634DCCE01019674
:1030B000EFDD2396CEACDFAC2397112379F186E0C8
:1030C00090E00E941D3A8C01BE01635E7F4F0E941A
:1030D000500CD6018D919C91F80191838083D3820D
:1030E000C282892B31F4D70112961C930E9311974B
:1030F00005C0D601ED91FC9113830283F601118383
:103100000083D70115968D919C911697019616967E
:103110009C938E931597902F812F4BCF9C2D8D2DA7
:1031200048CF0895CF93DF931F92CDB7DEB7698361
:10313000DC01ED91FC910280F381E02D41E050E053
:10314000BE016F5F7F4F19950F90DF91CF9108956A
:10315000FC01818D928D0895FC01848995890895E3
:103160002AE434E0FC0131832083FB01408951894A
:1031700062897389FC014283538364837583089554
:10318000DC01ED91FC91028CF38DE02D199480E02F
:103190000895FC019485FB018485981303C081E0A8
:1031A000943009F480E0089521E0FC0184858430A6
:1031B00009F420E0822F08950895CF93DF931F92A2
:1031C000CDB7DEB7FC01218D328D232B41F0BE013E
:1031D0006F5F7F4F808D60D6898190E002C08FEF56
:1031E0009FEF0F90DF91CF9108950F931F93CF938F
:1031F000DF931F92CDB7DEB78C01DC01ED91FC911E
:103200000480F581E02D1995892B49F0BE016F5F8F
:103210007F4FF801848540D6898190E002C08FEF0E
:103220009FEF0F90DF91CF911F910F910895CF9352
:10323000DF93FC01218D328D2115310519F48FEFBB
:103240009FEF10C0EC014217530708F0A901888DC9
:103250005FD6181619069CF7298D3A8D281B390B55
:103260003A8F298FDF91CF9108950F931F93CF93BA
:10327000DF931F92CDB7DEB7FC01218D328D232B5A
:1032800059F08C0141E050E0BE016F5F7F4F808DAF
:103290003FD6181619061CF08FEF9FEF08C0F801F3
:1032A000818D928D0197928F818F898190E00F900F
:1032B000DF91CF911F910F910895FC01848528C65D
:1032C000CF93DF931F92CDB7DEB741E050E0BE0150
:1032D0006F5F7F4FFC0184851BD6181619061CF4FE
:1032E000898190E002C08FEF9FEF0F90DF91CF9127
:1032F0000895FC018485843009F0ECC580E090E0FD
:1033000008950F931F93CF93DF93CDB7DEB7289720
:103310000FB6F894DEBF0FBECDBF8C01F801818DD2
:10332000928D892B49F0D801ED91FC910680F781AF
:10333000E02DC8011995F2CF808DCCD5181619064D
:1033400054F548E050E0BE016F5F7F4FD8015896BA
:103350008C91DED59C0118161906DCF489819A81BE
:10336000AB81BC81F801808B918BA28BB38B8D815B
:1033700090E0982F88272E81820F911D958B848B4A
:103380002F8130E0322F22278885280F311D328F80
:10339000218FC90102C080E090E028960FB6F89412
:1033A000DEBF0FBECDBFDF91CF911F910F9108956A
:1033B000AF92BF92CF92DF92FF920F931F93CF9362
:1033C000DF938C015B01EA01FC01C688D788F08C91
:1033D00080E590E00E945A268F2D0E94F02B8C17DA
:1033E0009D0720F48F2D0E94F02BEC019E01A5017A
:1033F000B6018F2D0E948B2B0E945926F8018689D9
:1034000097898C0F9D1F978B868BCE01DF91CF9173
:103410001F910F91FF90DF90CF90BF90AF900895D4
:10342000CF92DF92EF92FF920F931F93CF93DF9390
:10343000CDB7DEB7AF970FB6F894DEBF0FBECDBFE6
:103440007C016A010AE414E01A8309831C861B8646
:1034500088EE93E0A0E0B0E08D879E87AF87B88BC1
:1034600089E592E09A878987188F0F8B198E1A8EBB
:103470001B8E1C8E84E089A31DA30CA31EA21FA279
:1034800018A619A68091900790919107A091920794
:10349000B09193078CA79DA7AEA7BFA78B839C83F2
:1034A000AD83BE8318861F82AE014C5D5F4FCE0197
:1034B00001960E94E60281309105B1F4D701ED91A9
:1034C000FC910288F389E02D1BA70AA78EA19FA17A
:1034D000A8A5B9A58CA79DA7AEA7BFA7A601BE01A9
:1034E000665D7F4FC7011995AF960FB6F894DEBFA2
:1034F0000FBECDBFDF91CF911F910F91FF90EF9045
:10350000DF90CF900895CF93DF93EC01888D8430C6
:1035100059F04BD5E88DF0E0EE0FFF1FE55EF94F57
:103520001182108284E0888FDF91CF910895EF920D
:10353000FF921F93CF93DF93FC01208D243011F075
:1035400080E01AC07B01EC0110E0812F7CD5811155
:1035500002C0188F05C08831E1F31F5F1430A9F74E
:10356000888D843069F3FD86EC861A8E198E20E0F2
:10357000A70162E02AD581E0DF91CF911F91FF90F2
:10358000EF9008959B0190E00496982F8827642F70
:10359000820F931F64C40F931F93CF93DF931F92E7
:1035A000CDB7DEB790E00496982F88278C01060FE0
:1035B000171FE3D38FE0F9D3812FF7D3802FF5D3F3
:1035C00080E0F3D38983D7D389810F90DF91CF91A6
:1035D0001F910F910895CF93FC01C08D80E590E07D
:1035E0000E945A2660E270E08C2F0E94552762E00C
:1035F00070E08C2FD0DF84FD17C062E070E08C2F6C
:10360000CADF83FF0AC048E162E070E08C2FBADFB6
:103610000E94592680E090E010C00E94592680E563
:1036200090E00E945A26E3CF40E162E070E08C2FE8
:10363000A9DF0E94592681E090E0CF910895CF93B1
:10364000DF93C82FD62F472F60E170E09BDF4D2F0F
:1036500061E170E08C2FDF91CF9194CFBF92CF9238
:10366000DF92EF92FF920F931F93CF93DF9300D0DF
:1036700000D0CDB7DEB7FC01208D243009F04EC05C
:103680006A017B018C01B12C63E070E08B2D83DF3C
:10369000811103C0F801B08E06C08831D9F3B3940C
:1036A000F4E0BF12F1CFF801808D8430B9F196E0DB
:1036B000EFECF2E0DE01119601900D929A95E1F7A0
:1036C000F70193819F779C8394819D8395819E834D
:1036D000B7016E5F7F4F90E0982F882744E050E05D
:1036E000845F9B4F93D3B601F801808DA8DFF8016A
:1036F000808D90E0982F882746E050E0BE016F5FF4
:103700007F4F8A5F9B4F82D3F801128E118E20E883
:10371000A60162E0808D59D481E001C080E0269648
:103720000FB6F894DEBF0FBECDBFDF91CF911F91D2
:103730000F91FF90EF90DF90CF90BF900895FF9290
:103740000F931F93CF93DF93FB01DC0157961C92DD
:103750001E9256975896FC908281811109C08381F0
:10376000811106C08481811103C085818823E9F01D
:1037700041155105D1F08A01EF0180E590E00E94EA
:103780005A26BE016E5F7F4F2F2D30E0922F882783
:1037900044E050E0845F9B4F39D3B8018F2D4FDF59
:1037A0000E94592681E090E002C080E090E0DF9125
:1037B000CF911F910F91FF900895FC018485843073
:1037C00009F041C480E00895CF93DF93FC01248584
:1037D0002430C9F0EC01F1DF843181F0882371F0ED
:1037E000883161F08C3161F4E881F9810480F581E0
:1037F000E02DCE01199521E0892B19F420E001C0BC
:1038000021E0822F01C080E0DF91CF910895CF9217
:10381000DF92EF92FF921F93CF93DF93FC01148509
:10382000143099F1EC0180E590E00E945A2668E09E
:1038300070E0812F0E9455270E9459260E940B2A72
:103840006B017C01CE01B9DF8823A9F061E070E053
:1038500080E090E00E94D3290E940B2ADC01CB017A
:103860008C199D09AE09BF09883E9340A105B10599
:1038700048F38C859AD3EC85F0E0EE0FFF1FE55EF0
:10388000F94F1182108284E08C87DF91CF911F91D4
:10389000FF90EF90DF90CF900895FC012681378153
:1038A000620F731F848195818617970738F0828194
:1038B000938177836683820F931F089580E090E061
:1038C000089580E00895CF93DF93C0919705D0913C
:1038D00098058091990590919A058C179D07F1F1B3
:1038E000EC81FD8187819085009739F0DC01ED91B5
:1038F000FC910280F381E02D19950A80DB81C02DB7
:10390000E8CF0280F381E02DF0939805E0939705CE
:103910000190F081E02DC481D581209731F0CE0156
:103920000E948A14CE010E94B23AE0919705F0916C
:10393000980580819181009711F00E94B23AE09140
:103940009705F09198051182108280919B059091C6
:103950009C05019790939C0580939B0580919B0506
:1039600090919C05E0919705F0919805892B49F677
:10397000C481D581209731F0CE010E948A14CE01F6
:103980000E94B23A8091970590919805009721F096
:10399000DF91CF910C94B23ADF91CF9108951F93AC
:1039A000CF93DF93182F66E270E0F5DDC82FD0E0EB
:1039B00067E270E0812FEFDDDC2FCC279E01282B02
:1039C000C901DF91CF911F910895DB01109749F054
:1039D000ED91FC9111970190F081E02DBC01CD019A
:1039E000199480E090E00895CF92DF92EF92FF92D9
:1039F0000F931F93FB01DC0100E010E098016A01C6
:103A0000E12CF12C0C151D052E053F0538F46191B4
:103A10006D930F5F1F4F2F4F3F4FF4CF840F951FB4
:103A20001F910F91FF90EF90DF90CF9008958F92AC
:103A30009F92AF92BF92CF92DF92EF92FF920F933D
:103A40001F93CF93DF931F92CDB7DEB76C015B015D
:103A50007A014901B8010BD8D5011496ED91FC917A
:103A60001597EE15FF0510F40E944A3B1982BF011D
:103A70006E197F098616970608F4B401AE014F5FF0
:103A80005F4FC6010E94C20DF60144815581D501E8
:103A90006D917C916E0D7F1D80819181A5DF0F90CE
:103AA000DF91CF911F910F91FF90EF90DF90CF901A
:103AB000BF90AF909F908F900895AF92BF92CF929A
:103AC000DF92EF92FF920F931F93CF93DF931F929A
:103AD000CDB7DEB76C017B01BA010E943715E11446
:103AE000F104E9F0F70101900020E9F731978F0127
:103AF0000E191F09F601A480B5801982B8016A0D5C
:103B00007B1DAE014F5F5F4FC6010E94C20DF601E3
:103B100080819181A801B7018A0D9B1D65DF0F90FF
:103B2000DF91CF911F910F91FF90EF90DF90CF9099
:103B3000BF90AF9008958F929F92AF92BF92CF9215
:103B4000DF92EF92FF920F931F93CF93DF93CDB746
:103B5000DEB7C55FD1090FB6F894DEBF0FBECDBF8B
:103B60007C01CB019E01275F3F4F3C832B8328ECD8
:103B700030E03E832D8318861F8229ED32E03A83A0
:103B8000298333D8009711F487EB94E09E012F5FCF
:103B90003F4FCF52DF4F39832883C15DD040CD5294
:103BA000DF4F99838883C35DD040CB52DF4F398389
:103BB0002883C55DD0408AE0C952DF4F8883C75D46
:103BC000D040CE018F529F4F0E946213DC011296AB
:103BD0000D911C9113974701B3E18B0E911C570176
:103BE000ECE0AE0EB11C0115110509F4B0C0D8010E
:103BF0001496CD90DC901597B1E0CB16D10461F40A
:103C0000F801668177816115710531F087ED94E0E7
:103C10000E946C3B892B69F0F1E0CF1AD10882E059
:103C2000C816D10430F4D80116966D917C9117977F
:103C300002C060E070E0AE014B505F4FCE01835197
:103C40009F4F3BDFF80162817381AE014C505F4FA3
:103C5000CE018A519F4F31DFD7015696CD90DC902F
:103C60005797AE014A515F4FB401CE018F529F4F1B
:103C70007AD8CE52DF4F88819981C25DD040C81674
:103C8000D906A1F4AE014F525F4F6CED74E0CE0146
:103C900088529F4F12DFBE016A517F4FCE0188527A
:103CA0009F4F0E94311342EE54E023C0D701ED91A3
:103CB000FC910084F185E02DAE0143515F4FBE01C0
:103CC0006A517F4FC7011995811133C0AE014F5220
:103CD0005F4F6CED74E0CE0188529F4FEEDEBE0167
:103CE0006A517F4FCE0188529F4F0E94311346E0A8
:103CF00055E0BE0168527F4FCE018F529F4F0E9408
:103D0000B4154DEF54E0B501CE0181529F4F0E9492
:103D1000B415CCD1CE0181529F4F0E948A14CE019E
:103D20008F529F4F0E948A14CE0188529F4F0E944B
:103D30008A14CE018A519F4F0E948A14CE0183516A
:103D40009F4F0E948A14F801008111814CCFCB5003
:103D5000DF4F0FB6F894DEBF0FBECDBFDF91CF911E
:103D60001F910F91FF90EF90DF90CF90BF90AF9099
:103D70009F908F9008952C9A08952C9808951F93E2
:103D8000CF93DF93182F60E270E005DCC82FD0E0FE
:103D900061E270E0812FFFDBDC2FCC279E01282B16
:103DA000C901DF91CF911F9108958EBD00000DB420
:103DB00007FEFDCF8EB50895CF92DF92EF92FF926E
:103DC0000F931F93CF93DF93EC017A018B016C016A
:103DD000C40ED51ECC15DD0579F0CFDF8FE0E5DF11
:103DE0008D2FE3DF8C2FE1DF219680E0DEDFF8010D
:103DF00081938F01C0DFEECFC701DF91CF911F917B
:103E00000F91FF90EF90DF90CF900895CF92DF92C7
:103E1000EF92FF920F931F93CF93DF93EC017A0100
:103E20008B016C01C40ED51ECC15DD0571F0A5DF2C
:103E300080EFBBDF8D2FB9DF8C2FB7DF2196F80124
:103E400081918F01B2DF97DFEFCFC701DF91CF9173
:103E50001F910F91FF90EF90DF90CF9008951F93E7
:103E6000CF93DF931F921F92CDB7DEB7182F6A83CF
:103E7000998383DF80EF99DF9981892F96DF812FE6
:103E800094DF6A81862F91DF76DF81E00F900F90BB
:103E9000DF91CF911F9108951F93CF93DF931F92CE
:103EA0001F92CDB7DEB7182F80E590E069837A8343
:103EB00001D721E041E050E069817A81812F0E94A1
:103EC000232BF7D681E090E00F900F90DF91CF91F8
:103ED0001F910895FF920F931F93CF93DF93F82EB6
:103EE00080E590E0E7D6C0E0D0E08F2D58DD8C0172
:103EF000892B19F08F2D53DDEC01C017D107A9F7DD
:103F0000D8D6CE01DF91CF911F910F91FF900895E8
:103F1000AF92BF92CF92DF92EF92FF921F93CF9317
:103F2000DF93182F5B017A0180E590E0C3D6C0E0F3
:103F3000D0E0812F34DD6C01892B19F0812F2FDD2A
:103F4000EC01CC15DD05A9F7209791F463E070E052
:103F5000812F21DB8431E9F08823D9F0C1E0D0E062
:103F60008C3111F4C0E0D0E0D195C195D10911C0D8
:103F7000EC16FD060CF4E7011C161D0654F420E0B7
:103F8000AE01B501812F0E94232B60E470E0812FE8
:103F90008CD78FD6CE01DF91CF911F91FF90EF90FC
:103FA000DF90CF90BF90AF900895CF93C82F80E55A
:103FB00090E080D660E170E08C2F77D74FEF62E021
:103FC00070E08C2FDFDACF9174C6FF920F931F93AE
:103FD000CF93DF931F921F92CDB7DEB7F82E8A01E1
:103FE0002A836983E2DF80E590E064D62A816981D3
:103FF000462F422B60E070E08F2DC4DA01151105C9
:1040000051F400912306109124060F5F1F4F109367
:10401000240600932306412F64E070E08F2DB2DA6E
:10402000402F65E070E08F2DADDA61E070E08F2DFC
:104030003CD73FD681E00F900F90DF91CF911F9139
:104040000F91FF9008951F93CF93DF931F92CDB7E9
:10405000DEB7182F80E590E02DD663E070E0812F69
:104060009ADA898326D689810F90DF91CF911F91AB
:1040700008950F931F93CF93DF931F92CDB7DEB7B1
:104080008C01AE014F5F5F4F6EE175E016DDC80138
:104090000F90DF91CF911F910F91089561E475E02A
:1040A00089E398E00E945F150C9447158091D9062A
:1040B00081115EC086E0EBEDF2E0A5E2B6E0019092
:1040C0000D928A95E1F730EC30932B0628EA209385
:1040D0002C0681E080932D0699EC90932E06109289
:1040E00032061092310648EE53E060E070E04093F3
:1040F000330650933406609335067093360644E3D6
:1041000053E05093300640932F0644E040933B0623
:104110004AE454E05093CC064093CB064FEF5FEF58
:104120005093D8064093D7063093CD062093CE0601
:104130008093CF069093D0062BE537E03093D406DA
:104140002093D3061092D2061092D1062EE430E2CC
:104150003093CA062093C9062FE236E030933D061D
:1041600020933C061092D6061092D5068093D9066D
:1041700085E296E008952F923F924F925F926F9260
:104180007F928F929F92AF92BF92CF92DF92EF92E7
:10419000FF920F931F93CF93DF93CDB7DEB7C35A30
:1041A000D1090FB6F894DEBF0FBECDBF4C010E94FF
:1041B0000B2AD4015D960D911D912D913C91909704
:1041C0001B012C01201A310A420A530AAE014D5636
:1041D0005F4F6CE674E0CE0184589F4F6EDC7E0129
:1041E000B5E8EB0EF11CF7011082118212821382E6
:1041F0003401F3E16F0E711CAE0144585F4FB301FF
:10420000CE0184579F4F0E94B316C357DF4FE881FA
:10421000F981CD58D040D40156968D919C915797F5
:104220008E179F0731F4F701A080B180C280D38040
:1042300009C1C480D580F7E0CF0ED11C81E290E0A7
:1042400098A78FA319A61AA61BA686E090E0A0E067
:10425000B0E08CA79DA7AEA7BFA718AA19AA1AAA53
:104260001BAA86E094E09DA38CA380E28CAB1EAADF
:104270001DAAAE01475F5F4F58AF4FAB19AE64E95F
:1042800073E0CE0101960E9401138AE793E09A83BE
:1042900089838EE893E09DA38CA384E893E09887BC
:1042A0008F831D861C861F861E86198A188A1B8A84
:1042B0001A8A1D8A1C8A1F8A1E8A188E88E593E036
:1042C0009A8789878E01065C1F4F2FEF3FEF40E0F2
:1042D00050E0B601CE014996AADB19A218A21BA292
:1042E0001AA288E1888FE981FA8136970190F081DE
:1042F000E02D21E030E02C0F3D1FE20FF31F8189FC
:104300009289009711F00E94CA10CE0101960E9476
:10431000820CBE01665C7F4FCE018D589F4F0E947C
:104320003715E981FA8136970190F081E02D83E01D
:1043300090E08C0F9D1FE80FF91F8181BE016F5F18
:104340007F4F85FF1AC0CE01CA960E94FB0DBE01A9
:10435000665C7F4FCE018D589F4F0E948415CE0121
:10436000CA960E948A14CE018D589F4F0E94F5155F
:10437000FF92EF9222E535E04BC0CE01CA960E9433
:10438000710EBE01665C7F4FCE018D589F4F0E941B
:104390008415CE01CA960E948A14E981FA81369763
:1043A0000190F081E02DA3E0B0E0AC0FBD1FEA0F5B
:1043B000FB1F8181928186FF0AC0CE018D589F4FDD
:1043C0000E94F515FF92EF9221EC34E021C087FFA7
:1043D00016C095FF0AC0CE018D589F4F0E94F5155B
:1043E000FF92EF922FEC34E013C0CE018D589F4F17
:1043F0000E94F515FF92EF9223ED34E009C0CE0143
:104400008D589F4F0E94F515FF92EF9226E535E0FB
:104410003F932F939F938F930E94C63B0F900F90D3
:104420000F900F900F900F90CE018D589F4F0E94CC
:104430008A14F701A080B180C280D380CE0101969A
:104440000E949F14CE0184589F4F0E948A142A1400
:104450003B044C045D0410F480E058C3DCD7D40165
:104460005D966D937D938D939C9390976AE575E02F
:1044700089E398E00E945F150E94471589E0E1EE0C
:10448000F2E0DE01A458BF4F01900D928A95E1F74A
:1044900049E050E0BE0164587F4F81EF96E00E94F2
:1044A000F82A8E010D581F4F89E0F80111928A9564
:1044B000E9F768015801F9E0AF0EB11CACD7609381
:1044C000F9067093FA068093FB069093FC06E09140
:1044D000F106F091F2060680F781E02D81EF96E07B
:1044E000199597FD0CC0D6018D936D01AA15BB05DA
:1044F00029F7F8013196C801089620E01DC08BD736
:104500002091F9063091FA064091FB065091FC0685
:10451000DC01CB01821B930BA40BB50B2091F5069C
:104520003091F6064091F7065091F80682179307EE
:10453000A407B50760F2DDCF3191230FE817F90723
:10454000D9F7D22ED194F80180818F3F31F4818147
:10455000863819F480858D15E1F0D80118960C91F4
:1045600010E066EB74E089E398E00E945F156EE668
:1045700075E00E945F156D2D70E00E94ED106AE7F6
:1045800075E00E945F15B8010E94ED100E9447156A
:10459000BDC2F801A280B12C038110E081E290E05D
:1045A000A2969FAF8EAFA297A3961FAEA397A49695
:1045B0001FAEA497A5961FAEA59786E090E0A0E059
:1045C000B0E0A9968CAF9DAFAEAFBFAFA997AD9647
:1045D0001CAE1DAE1EAE1FAEAD9786E094E06F968A
:1045E0009FAF8EAF6F9780E2AE968FAFAE97E0969B
:1045F0001FAE1EAEE0974AE350E04C0F5D1F485FD0
:104600005F4FE2965FAF4EAFE297E3961FAEE39740
:1046100064E973E0CE01CA960E9401138AE793E031
:104620009BAF8AAF8EE893E06F969FAF8EAF6F9788
:1046300084E893E022969FAF8EAF229727961FAE15
:104640001EAE279729961FAE1EAE29972B961FAE3A
:104650001EAE2B972D961FAE1EAE2D972F961FAE1A
:104660001EAE2F9761961FAE1EAE619762961FAE6B
:10467000629788E593E024969FAF8EAF24979E01C2
:104680002F5F3F4F6901B9018AE390E08C0F9D1FB6
:1046900048960E9437156B961FAE1EAE6B976D96AF
:1046A0001FAE1EAE6D9788E162968FAF62975A2D4E
:1046B0004427040F151F6AE370E06C0F7D1F6A5FCB
:1046C0007F4FC7010E94F012A8012296EEADFFAD08
:1046D000229736970190F081E02D82E490E08C0FD4
:1046E0009D1FE80FF91F8181928185FD18C086FF0B
:1046F00005C092FD17C081EC94E01FC087FF15C074
:104700009C012227307292FF05C0232B89F48AEC8A
:1047100094E013C0232B79F483ED94E00EC082E57E
:1047200095E00BC08CEB94E008C080E090E005C001
:1047300085EC94E002C08FEC94E01F921F925F938F
:104740004F939F938F931F9284E18F93DF92CF9229
:104750000E948A3B9C01990F440B550B0AE310E021
:104760000C0F1D1F0A5F1F4FB601C8010E942A12BD
:104770002296EEADFFAD229736970190F081E02DA5
:10478000A2E4B0E0AC0FBD1FEA0FFB1F8181928154
:104790000FB6F894DEBF0FBECDBF96FF03C0C801B1
:1047A0000E94CA1086012FEF3FEF40E050E06AE31D
:1047B00070E06C0F7D1F685E7F4FCE0186569F4F65
:1047C00036D9AE014F555F4F64E974E0CE018D5686
:1047D0009F4F73D9D40156960D911C915797AE01F6
:1047E0004D565F4FB301C6010E94B3168A819B816B
:1047F0000817190711F5A6016CED74E0C7015DD922
:10480000BE016D567F4FC7010E94311342EE54E046
:10481000B701C6010E94B4154DEF54E0B401645FC6
:104820007F4FCE0184579F4F0E94B4153FDCCE01CD
:1048300084579F4F0E948A1424C0BE016D567F4F3B
:10484000C3010E943917BE0166567F4F0E9484152E
:104850004EE755E0B401645F7F4FC7010E94B41575
:104860008E0104571F4F2FEF3FEF40E050E0B7019C
:10487000C601DDD8BE016D567F4FC6010E943113BF
:1048800015DCC6010E948A14C7010E948A14CE0159
:104890008D569F4F0E948A14CE0186569F4F0E94CC
:1048A0008A14AE014D555F4F64E974E0CE018D5618
:1048B0009F4F03D95E01B1EAAB0EB11CF501118225
:1048C0001082AE014D565F4FB301CE0186569F4F09
:1048D0000E94B316C556DF4FE881F981CB59D0400D
:1048E000D40156968D919C9157978E179F0721F46E
:1048F000F50100811181F2C084809580F7E08F0E70
:10490000911C81E290E098A78FA319A61AA61BA676
:1049100086E090E0A0E0B0E08CA79DA7AEA7BFA77F
:1049200018AA19AA1AAA1BAA86E094E09DA38CA330
:1049300080E28CAB1EAA1DAAAE01475F5F4F58AF45
:104940004FAB19AE64E973E0C6010E9401138AE718
:1049500093E09A8389838EE893E09DA38CA384E8F7
:1049600093E098878F831D861C861F861E86198A72
:10497000188A1B8A1A8A1D8A1C8A1F8A1E8A188E08
:1049800088E593E09A87898787012FEF3FEF40E022
:1049900050E0B401CE0149964AD819A218A21BA230
:1049A0001AA288E1888FE981FA8136970190F08117
:1049B000E02DEC0DFD1D81899289009711F00E9478
:1049C000CA10C6010E94820CB701CE0184579F4FC6
:1049D0000E943715E981FA8136970190F081E02D28
:1049E00023E030E02C0F3D1FE20FF31F8181B60161
:1049F00085FF16C0C7010E94FB0DB701CE01845789
:104A00009F4F0E948415C7010E948A14CE018457CB
:104A10009F4F0E94F515BF92AF9220E835E047C046
:104A2000C7010E94710EB701CE0184579F4F0E94AB
:104A30008415C7010E948A14E981FA813697019092
:104A4000F081E02D83E090E08C0F9D1FE80FF91FAF
:104A50008181928186FF0AC0CE0184579F4F0E94B8
:104A6000F515BF92AF9223E835E021C087FF16C04D
:104A700095FF0AC0CE0184579F4F0E94F515BF9243
:104A8000AF9226E835E013C0CE0184579F4F0E94B5
:104A9000F515BF92AF9229E835E009C0CE018457E1
:104AA0009F4F0E94F515BF92AF922CE835E03F93DF
:104AB0002F939F938F930E94C63B0F900F900F9060
:104AC0000F900F900F90CE0184579F4F0E948A1431
:104AD000D5010D911C91C6010E949F1466EB74E0F4
:104AE00089E398E00E945F156FE875E00E945F150A
:104AF000B8010E94ED100E944715CE018D569F4FC0
:104B00000E948A14CE01CA960E949F14CD55DF4F91
:104B10000FB6F894DEBF0FBECDBFDF91CF911F91CE
:104B20000F91FF90EF90DF90CF90BF90AF909F904C
:104B30008F907F906F905F904F903F902F9008954F
:104B4000DC0113968D919C911497892B59F0159641
:104B5000ED91FC91169717968D919C911897E817F7
:104B6000F90741F4ED91FC9111970488F589E02D46
:104B7000CD01199481911696FC93EE93159790E0D0
:104B80000895CF93DF931F92CDB7DEB76983DC0121
:104B9000ED91FC910280F381E02D41E050E0BE01F7
:104BA0006F5F7F4F19950F90DF91CF910895DC01D2
:104BB000ED91FC91048CF58DE02D199591E08927FC
:104BC0000895862F089581E086270895CF92DF9279
:104BD000EF92FF920F931F93CF93DF93CDB7DEB782
:104BE000AF970FB6F894DEBF0FBECDBF7C016A0150
:104BF0000AE414E01A8309831C861B8688EE93E07E
:104C0000A0E0B0E08D879E87AF87B88B89E592E002
:104C10009A878987188F0F8B198E1A8E1B8E1C8E80
:104C200084E089A31DA30CA31EA21FA218A619A687
:104C30008091900790919107A0919207B09193076E
:104C40008CA79DA7AEA7BFA78B839C83AD83BE8394
:104C500018861F82AE014C5D5F4FCE0101960E9407
:104C6000E60281309105B1F4D701ED91FC91048405
:104C7000F585E02D1BA70AA78EA19FA1A8A5B9A520
:104C80008CA79DA7AEA7BFA7A601BE01665D7F4FFB
:104C9000C7011995AF960FB6F894DEBF0FBECDBF12
:104CA000DF91CF911F910F91FF90EF90DF90CF9008
:104CB000089508958CBD9DBD08958F929F92AF92E7
:104CC000BF92CF92DF92EF92FF920F931F93CF93F9
:104CD0006C015B017A01FC01C485C43041F481E0C0
:104CE00090E0F6019383828380E090E047C08A01E0
:104CF0004130584010F000E018E080E590E0DADF45
:104D00008C2F6ED54C0163E070E08C2F0E94CB1A83
:104D1000873111F08C3121F48016910670F302C0B6
:104D200000E010E080E590E0C5DF9801A50160E0BB
:104D300070E08C2FF0D460E270E08C2FB6D062E08F
:104D400070E08C2F0E94CB1A84FD0EC063E070E0EF
:104D50008C2F0E94CB1A811103C08C2F26D9BFCF74
:104D600080E590E0A7DFEBCF40E162E070E08C2FC0
:104D70000E94C21A012B09F4B2CFC701CF911F9133
:104D80000F91FF90EF90DF90CF90BF90AF909F90EA
:104D90008F900895CF92DF92FF920F931F93CF933E
:104DA000DF93FC012485243009F072C06A01EB0115
:104DB0008C01F12C8F2D47D9811103C0F801F486A5
:104DC00007C08B7F8831D1F3F394F4E0FF12F2CF68
:104DD000F8018485843009F45BC020910002309191
:104DE00001022F5F3F4F11F420E030EC30930102BD
:104DF00020930002409100025091010220E061E006
:104E0000E4D8F801F4848A818F3F51F48B818F3F7D
:104E100091F48C818F3F79F48D818F3F61F435C09F
:104E2000811109C08B81811106C08C81811103C061
:104E30008D81882351F1C114D10439F180E590E0CE
:104E400039DFBE016E5F7F4F8F2D90E0982F88274E
:104E500044E050E0845F9B4F0E94061FB6018F2DF7
:104E60000E941F1B64E070E08F2D1FD0C8010E94BC
:104E7000DD1B873181F061E070E080E090E093D24B
:104E8000C8010E94DD1B8111F1CF84E0F801848705
:104E900080E090E002C081E090E0DF91CF911F912F
:104EA0000F91FF90DF90CF900895CF93C82F462F9A
:104EB00061E070E00E94C21A61E070E08C2F0E94F5
:104EC000CB1A8111F9CFCF910895FC01A089B18946
:104ED0008C91A689B78982FD0FC09C91818D8F5FCF
:104EE0008F73228D821749F0218DDF01A20FB11D32
:104EF0005D969C93818F08958C910895FC01918D0E
:104F0000828D981761F0828DDF01A80FB11D5D962B
:104F10008C91928D9F5F9F73928F90E008958FEF99
:104F20009FEF0895FC01918D828D981731F0828D4D
:104F3000E80FF11D858D90E008958FEF9FEF0895A4
:104F4000FC01918D228D892F90E0805C9F4F821B08
:104F500091098F739927089581EF96E0F1DF21E0A1
:104F6000892B09F420E0822F08958CE997E0E8DF8F
:104F700021E0892B09F420E0822F0895FC01848D23
:104F8000DF01A80FB11DA35ABF4F2C91848D90E073
:104F900001968F739927848FA689B7892C93A0894E
:104FA000B1898C9180648C93938D848D981306C005
:104FB0000288F389E02D80818F7D80830895EF92B0
:104FC000FF920F931F93CF93DF93EC0181E0888FC3
:104FD0009B8D8C8D981305C0E889F989808185FDAA
:104FE00023C0F62E0B8D10E00F5F1F4F0F7311279C
:104FF000E02E8C8DE8120BC00FB607FCFACFE889C3
:10500000F989808185FFF5CFCE01B8DFF2CF8B8D96
:10501000FE01E80FF11DE35AFF4FF0820B8FEA8982
:10502000FB898081806207C0EE89FF896083E889FF
:10503000F98980818064808381E090E0DF91CF9165
:105040001F910F91FF90EF900895CF93DF93EC01A4
:10505000888D8823C1F0EA89FB89808185FD05C0A0
:10506000A889B9898C9186FD0EC00FB607FCF5CFD3
:10507000808185FFF2CFA889B9898C9185FFEDCF1A
:10508000CE017CDFE8CFDF91CF91089580E090E002
:10509000892B19F06ADF811120C080E090E0892B14
:1050A00041F080E090E0892B21F00E940000811106
:1050B00017C080E090E0892B41F080E090E0892BE0
:1050C00021F00E94000081110EC080E090E0892B49
:1050D00079F042DF81110AC008950E940000DDCFFF
:1050E0000E940000E6CF0E940000EFCF0C94000069
:1050F00008953FB7F8948091D6089091D708A09171
:10510000D808B091D90826B5A89B05C02F3F19F043
:105110000196A11DB11D3FBFBA2FA92F982F882737
:10512000820F911DA11DB11DBC01CD0142E0660F92
:10513000771F881F991F4A95D1F708958F929F92E4
:10514000AF92BF92CF92DF92EF92FF920F931F9395
:10515000CF93DF937C018B016C0182E0C80ED11CE0
:105160004701E5E08E0E911CC0E0D0E0F6014191D0
:105170006F0150E060E070E02AE0C80156D45C01A5
:105180006EE2C801AED48A0D9B1DC80FD91FC8148A
:10519000D90461F7F701458150E060E070E02AE052
:1051A000C80143D48C0F9D1FDF91CF911F910F91A8
:1051B000FF90EF90DF90CF90BF90AF909F908F9037
:1051C00008950E944A3B2AE434E0FC0131832083A5
:1051D000FB014081518162817381FC0142835383D1
:1051E0006483758308951F920F920FB60F92112456
:1051F0000BB60F922F933F934F935F936F937F93D1
:105200008F939F93AF93BF93EF93FF9381EF96E0BC
:10521000B5DEFF91EF91BF91AF919F918F917F91FB
:105220006F915F914F913F912F910F900BBE0F9017
:105230000FBE0F901F9018951F920F920FB60F92EE
:1052400011240BB60F922F933F934F935F936F935D
:105250007F938F939F93AF93BF93EF93FF9381EFD0
:1052600096E033DEFF91EF91BF91AF919F918F91C7
:105270007F916F915F914F913F912F910F900BBE56
:105280000F900FBE0F901F9018951F920F920FB6A0
:105290000F9211240BB60F922F933F934F935F936E
:1052A0006F937F938F939F93AF93BF93EF93FF93EE
:1052B0008CE997E063DEFF91EF91BF91AF919F91F1
:1052C0008F917F916F915F914F913F912F910F90AF
:1052D0000BBE0F900FBE0F901F9018951F920F924C
:1052E0000FB60F9211240BB60F922F933F934F934B
:1052F0005F936F937F938F939F93AF93BF93EF933E
:10530000FF938CE997E0E1DDFF91EF91BF91AF91C1
:105310009F918F917F916F915F914F913F912F91CD
:105320000F900BBE0F900FBE0F901F901895CF934C
:10533000DF9390E0FC01E251FE4F2491FC01E8551F
:10534000FE4F8491882361F190E0880F991FFC0142
:10535000EC58FE4FC591D491FC01EC5EFE4FA59137
:10536000B491611109C09FB7F89488812095822378
:105370008883EC912E230BC0623061F49FB7F894C0
:105380003881822F809583238883EC912E2B2C9358
:105390009FBF06C08FB7F894E8812E2B28838FBF5C
:1053A000DF91CF9108958F929F92AF92BF92CF924B
:1053B000DF92EF92FF926B017C019BDE4B015C015F
:1053C000C114D104E104F104E9F093DEDC01CB0166
:1053D00088199909AA09BB09883E9340A105B1051E
:1053E00078F321E0C21AD108E108F10888EE880EAE
:1053F00083E0981EA11CB11CC114D104E104F10486
:1054000021F7DECFFF90EF90DF90CF90BF90AF906D
:105410009F908F9008952FB7F8946091D208709163
:10542000D3088091D4089091D5082FBF08951F927A
:105430000F920FB60F9211242F933F938F939F9348
:10544000AF93BF938091D2089091D308A091D408D4
:10545000B091D5083091D10823E0230F2D3720F4E7
:105460000196A11DB11D05C026E8230F0296A11DBE
:10547000B11D2093D1088093D2089093D308A093B4
:10548000D408B093D5088091D6089091D708A09100
:10549000D808B091D9080196A11DB11D8093D608F6
:1054A0009093D708A093D808B093D908BF91AF9133
:1054B0009F918F913F912F910F900FBE0F901F9052
:1054C00018950F931F93CF93DF93EC0187E192E040
:1054D00099838883888D998DEC89FD89892B29F1A1
:1054E0000280F381E02DFD8BEC8B0190F081E02DAB
:1054F000048115810115110531F0C8010E9448167B
:10550000C8010E94B23AEC89FD898081918100979F
:1055100011F00E94B23AEC89FD8911821082888DC7
:10552000998D0197998F888FD5CF048115810115A9
:10553000110531F0C8010E944816C8010E94B23A14
:105540008C899D89009711F00E94B23ACE010C9689
:105550000E948A148F819885EB81FC81892B29F127
:105560000280F381E02DFC83EB830190F081E02D3C
:10557000048115810115110531F0C8010E948A14BA
:10558000C8010E94B23AEB81FC8180819181009731
:1055900011F00E94B23AEB81FC81118210828F815E
:1055A0009885019798878F83D5CF04811581011540
:1055B000110531F0C8010E948A14C8010E94B23A54
:1055C0008B819C81009731F0DF91CF911F910F91DA
:1055D0000C94B23ADF91CF911F910F910895CF9320
:1055E000DF93EC016EDFCE01DF91CF910C94B23AE4
:1055F000CF92DF92EF92FF920F931F93CF93DF939F
:105600006C017A018B01C0E0D0E0CE15DF0589F096
:10561000D8016D918D01D601ED91FC910190F08141
:10562000E02DC6011995892B11F47E0102C0219647
:10563000ECCFC701DF91CF911F910F91FF90EF90B9
:10564000DF90CF9008958F929F92AF92BF92CF92AA
:10565000DF92EF92FF920F931F93CF93DF93B82EB9
:105660004B018A01A22E68E270E00E94CB1AC82F7B
:10567000D0E069E270E08B2D0E94CB1ADC2FCC27A2
:10568000C82B9E013770CB2CD12CC601880F991FD7
:10569000AC014751594F6A01FA0180819181820F13
:1056A000931FA801420F531F4130584098F060E00B
:1056B00078E07B01E21AF30AA701B4010E94DC1E24
:1056C000A8014E195F09B4016E0D7F1DF60180819E
:1056D000918102C0A801B4010E94DC1EA1100EC07D
:1056E000C00FD11F4D2F68E270E08B2D0E94C21AAF
:1056F0004C2F69E270E08B2D0E94C21ADF91CF918E
:105700001F910F91FF90EF90DF90CF90BF90AF90DF
:105710009F908F9008959F92AF92BF92CF92DF9209
:10572000EF92FF920F931F93CF93DF93982E8B01ED
:105730005A01690164E270E00E94CB1AE82EF12C54
:1057400065E270E0892D0E94CB1AFE2CEE24E82A37
:10575000E701C00FD11F9E013770E92CF12CC70162
:10576000880F991FAC014F51594F7A01FA0180817E
:105770009181820F931FA9014C0D5D1D413058404E
:1057800090F000E018E0021B130BA801B5010E9485
:10579000061FA601401B510BB501600F711FF701D9
:1057A0008081918102C0A601B5010E94061FCC0D27
:1057B000DD1D4D2F64E270E0892D0E94C21A4C2F2E
:1057C00065E270E0892DDF91CF911F910F91FF90DD
:1057D000EF90DF90CF90BF90AF909F900C94C21A43
:1057E000FF920F931F93CF93DF93F82EC0E0D0E08A
:1057F0008F2D0E94BF1E8C01892B21F08F2D0E94BE
:10580000BF1EEC01C017D10799F7CE01DF91CF91F0
:105810001F910F91FF9008959F92AF92BF92CF92E8
:10582000DF92EF92FF920F931F93CF93DF9300D0FD
:1058300000D0CDB7DEB7FC019681992309F4E1C011
:105840006B017F01915096835F0182E0A80EB11C2D
:10585000C5010E94C80BD7011296ED91FC911397D8
:1058600080818B3521F08B3709F498C0A2C0F701F5
:1058700000811181B80184E090E00E94E51C00974E
:1058800051F0DC0111961C930E9313961C921E92FC
:1058900012978C0111C08091DE0881110BC010920B
:1058A000DB081092DA081092DD081092DC0881E023
:1058B0008093DE080AED18E06BE5C5010E940A0C32
:1058C000882309F44BC06DE5C5010E940A0C8111C3
:1058D00056C086E0982E1A821982BE016F5F7F4FF4
:1058E000C7019ADF8823D1F1F8016081718188E0D6
:1058F00090E00E94E51CDC01892B39F011961C9286
:105900001E9213961C921E921297F80122813381E7
:105910002115310551F0F90180819181009711F035
:105920009C01F9CFB183A08303C0F801B383A283A4
:105930001097A1F0FE0131961296892D01900D92DB
:105940008A95E1F76DE5C5010E940A0C811117C027
:105950006CE2C5010E940A0C8111BDCF8091DE0866
:1059600081110BC01092DB081092DA081092DD084A
:105970001092DC0881E08093DE080AED18E0D8017F
:105980008D919C91892B11F410E033C086E090E05A
:10599000F60191838083138302832AC0C7010E948A
:1059A0006213DC012D913C91232B71F327E030E051
:1059B0001AC011E0873219F0823209F010E0C701F5
:1059C0000E94EA0C009701F3112359F022E030E025
:1059D000D60111963C932E9313969C938E93129717
:1059E00008C021E030E0F601318320839383828375
:1059F00011E0D70116968C9116978F5F16968C93AF
:105A000001C010E0812F26960FB6F894DEBF0FBEBE
:105A1000CDBFDF91CF911F910F91FF90EF90DF905D
:105A2000CF90BF90AF909F9008954F925F926F92EA
:105A30007F92EF92FF920F931F93CF93DF93CDB797
:105A4000DEB7A1970FB6F894DEBF0FBECDBF7C01C5
:105A5000FA01CB0119A2223008F42AE08E010F5D71
:105A60001F4F422E512C612C712CBF01A3019201BA
:105A70000E94DD39F901CA01015011096A3014F49C
:105A8000605D01C0695CD8016C93232B242B252B0E
:105A900061F70115110591F0F80101900020E9F777
:105AA0003197AF01401B510BD701ED91FC91028062
:105AB000F381E02DB801C701199502C080E090E0A4
:105AC000A1960FB6F894DEBF0FBECDBFDF91CF9188
:105AD0001F910F91FF90EF907F906F905F904F908C
