:1000000073C00000A1C000009FC000009DC00000A0
:100010009BC0000099C0000097C0000095C0000080
:1000200093C0000091C000008FC000008DC0000090
:100030008BC0000089C0000087C0000085C00000A0
:1000400083C0000081C000007FC000007DC00000B0
:100050007BC0000079C0000077C00000C3C400006E
:1000600073C0000089C400005EC400006DC00000C1
:100070006BC0000069C0000067C0000065C00000E0
:1000800063C0000061C000005FC000005DC00000F0
:100090005BC0000059C0000057C0000055C0000000
:1000A00053C0000051C000004FC000004DC0000010
:1000B0004BC0000049C0000047C0000045C0000020
:1000C00043C0000041C000003FC000003DC0000030
:1000D0003BC0000039C0000037C0000035C0000040
:1000E00033C000006707640711241FBECFEFD1E2C1
:1000F000DEBFCDBF00E00CBF12E0A0E0B2E0EAEC52
:10010000F3E100E00BBF02C007900D92A23CB107E3
:10011000D9F724E0A2ECB2E001C01D92A631B207EB
:10012000E1F710E0C3E7D0E000E006C02197010945
:10013000802FFE010E949B08C237D10780E008078C
:10014000A9F72AD50C94D4095BCFFC01918D828D3F
:10015000981761F0828DDF01A80FB11D5D968C911B
:10016000928D9F5F9F73928F90E008958FEF9FEF26
:100170000895FC01918D828D981731F0828DE80FE2
:10018000F11D858D90E008958FEF9FEF0895FC019C
:10019000918D228D892F90E0805C9F4F821B910969
:1001A0008F73992708958DED92E0F1DF21E0892B7F
:1001B00009F420E0822F0895FC01848DDF01A80F4F
:1001C000B11DA35ABF4F2C91848D90E001968F737F
:1001D0009927848FA689B7892C93A089B1898C919E
:1001E00080648C93938D848D981306C00288F38964
:1001F000E02D80818F7D80830895EF92FF920F9391
:100200001F93CF93DF93EC0181E0888F9B8D8C8DC2
:10021000981305C0E889F989808185FD23C0F62EF1
:100220000B8D10E00F5F1F4F0F731127E02E8C8D89
:10023000E8120BC00FB607FCFACFE889F989808174
:1002400085FFF5CFCE01B8DFF2CF8B8DFE01E80F31
:10025000F11DE35AFF4FF0820B8FEA89FB89808101
:10026000806207C0EE89FF896083E889F98980810F
:100270008064808381E090E0DF91CF911F910F91A6
:10028000FF90EF900895CF93DF93EC01888D882342
:10029000C1F0EA89FB89808185FD05C0A889B989FB
:1002A0008C9186FD0EC00FB607FCF5CF808185FFCF
:1002B000F2CFA889B9898C9185FFEDCFCE017CDF83
:1002C000E8CFDF91CF91089580E090E0892B19F07D
:1002D0006ADF811125C080E090E0892B41F080E049
:1002E00090E0892B21F00E94000081111CC080E069
:1002F00090E0892B41F080E090E0892B21F00E9472
:100300000000811113C080E090E0892BA1F080E013
:1003100090E0892B81F00E94000081110AC00895AD
:100320000E940000D8CF0E940000E1CF0E94000090
:10033000EACF0C9400000895CF93DF93EC01E8819D
:10034000F98136970190F081E02DE80FF91F83893C
:100350009489DC01ED91FC910484F585E02D1995DB
:10036000019659F4E881F98136970190F081E02DEA
:10037000EC0FFD1F858181608583CE01DF91CF91D8
:1003800008951F93CF93DF93EC01162F8F8580FF85
:100390000BC0E881F9810084F185E02D20E144E083
:1003A00060E070E0CE011995EB85FC852D853E85DA
:1003B000812F90E0E217F30758F410832B853C85DA
:1003C0002F5F3F4F3C872B87DF91CF911F9108957F
:1003D000E881F981028CF38DE02DBC01CE01DF9123
:1003E000CF911F911994CF93DF93EC01E881F981AC
:1003F00036970190F081E02DE80FF91F83899489E9
:10040000C0DF019699F4E881F98136970190F08177
:10041000E02DEC0FFD1F8581982F92602389348990
:10042000232B11F0958302C083608583CE01DF9179
:10043000CF910895CB010895AF92BF92CF92DF92F2
:10044000EF92FF920F931F93CF93DF9300D01F92F1
:10045000CDB7DEB78C015B01C12CD12C7601C21661
:10046000D306E406F506ACF4F50161915F01C8011D
:1004700029833A834B835C8384DF29813A814B81D2
:100480005C81019649F06FEFC61AD60AE60AF60AB1
:10049000E6CFB901CA0102C0B601C7010F900F90A3
:1004A0000F900F90DF91CF911F910F91FF90EF90E0
:1004B000DF90CF90BF90AF900895CF93DF93EC0182
:1004C000E881F9810288F389E02D19958F3F2FEF9C
:1004D000920731F02D813E812F5F3F4F3E832D8368
:1004E000DF91CF9108958FEF9FEF089560E070E066
:1004F000CB01089580E090E00895CB010895CF935B
:10050000DF93EC0188899989DC01ED91FC910480ED
:10051000F581E02D1995892B59F088899989DC019D
:10052000ED91FC910680F781E02DDF91CF91199438
:100530008FEF9FEFDF91CF910895CF93DF93EC0181
:1005400088899989DC01ED91FC910480F581E02D89
:100550001995892B59F088899989DC01ED91FC91D5
:100560000084F185E02DDF91CF9119948FEF9FEFFB
:10057000DF91CF910895AF92BF92CF92DF92EF9229
:10058000FF920F931F93CF93DF9300D01F92CDB7AD
:10059000DEB78C015B01C12CD12C7601F80180897A
:1005A0009189DC01ED91FC910680F781E02D298392
:1005B0003A834B835C83199529813A814B815C8115
:1005C0008F3F71F0C216D306E406F5064CF4D50150
:1005D0008D935D01BFEFCB1ADB0AEB0AFB0ADECF7E
:1005E000C701B6010F900F900F900F90DF91CF9140
:1005F0001F910F91FF90EF90DF90CF90BF90AF9041
:100600000895DC0150968D919C915197DC01ED91FC
:10061000FC910480F581E02D199480E090E008952C
:1006200080E090E0089580E090E0089580E090E020
:10063000089508950F931F93CF93DF938C01EB01DF
:100640006F3F8FEF780719F480E090E00DC06A30BB
:1006500029F46DE0F8018089918997D26C2FF80117
:100660008089918992D2CE01DF91CF911F910F9114
:1006700008958F929F92BF92CF92DF92EF92FF9256
:100680000F931F93CF93DF9300D01F92CDB7DEB7A8
:100690008C014B01C12CD12C7601C216D306E40685
:1006A000F50634F5F401B1904F01FAE0BF120DC028
:1006B0006DE0F8018089918929833A834B835C83BB
:1006C00064D25C814B813A8129816B2DF80180894C
:1006D000918929833A834B835C8357D2FFEFCF1AEA
:1006E000DF0AEF0AFF0A5C814B813A812981D5CF6D
:1006F000CA01B9010F900F900F900F90DF91CF9129
:100700001F910F91FF90EF90DF90CF90BF909F903F
:100710008F9008958F929F92AF92BF92CF92DF9267
:10072000EF92FF920F931F93CF93DF937C018B0186
:100730006C0182E0C80ED11C4701E5E08E0E911CD1
:10074000C0E0D0E0F60141916F0150E060E070E060
:100750002AE0C801BFD15C016EE2C80116D28A0D41
:100760009B1DC80FD91FC814D90461F7F701458133
:1007700050E060E070E02AE0C801ACD18C0F9D1F12
:10078000DF91CF911F910F91FF90EF90DF90CF906D
:10079000BF90AF909F908F90089502D669C568C5AD
:1007A0000895089565C5DC01ED91FC91369720818F
:1007B0003181820F931FF6CFFB0120813181FC0133
:1007C00031832083FB0142815381F90136972081D7
:1007D0003181FC01E20FF31F5183408308952CE81F
:1007E00032E0FC013183208326E932E0358B248B13
:1007F0006CE972E0E1CFDC01ED91FC91369720814C
:100800003181820F931FEBCFCF93DF93EC01E7DFB2
:10081000CE01DF91CF912CC5DC01ED91FC91369793
:1008200020813181820F931FEFCF22C5CF92DF92BB
:10083000EF92FF920F931F93CF93DF93EC017B0115
:1008400088E090E09B838A831D821C827CD46C01AB
:1008500099838883F7010481158101151105A1F1A0
:100860000930110508F1C801089689309105E0F0BA
:100870009B838A8368D49983888320E030E08C81CD
:100880009D812817390770F4E881F981E20FF31F81
:10089000309729F0D601A20FB31F8C9180832F5F70
:1008A0003F4FEDCFC601E4D48C819D818017910725
:1008B00048F4E881F981E80FF91F309709F01082B8
:1008C0000196F4CF1D830C838C819D81F7012081DB
:1008D0003181C880D98040E050E0BA01A0E0B0E0AA
:1008E000481759076A077B0758F4F90111919F01CE
:1008F000F60111936F014F5F5F4F6F4F7F4FF0CF46
:10090000F70187819085A185B2858F839887A98714
:10091000BA87CE01DF91CF911F910F91FF90EF9099
:10092000DF90CF9008951F920F920FB60F9211246F
:100930000BB60F922F933F934F935F936F937F93D9
:100940008F939F93AF93BF93EF93FF938DED92E0BF
:1009500033DCFF91EF91BF91AF919F918F917F9188
:100960006F915F914F913F912F910F900BBE0F9020
:100970000FBE0F901F9018951F920F920FB60F92F7
:1009800011240BB60F922F938F939F93EF93FF93A6
:10099000E091ED02F091EE028081E091F302F0919E
:1009A000F40282FD12C090818091F6028F5F8F73F6
:1009B0002091F702821751F0E091F602F0E0E35245
:1009C000FD4F958F8093F60201C08081FF91EF91DA
:1009D0009F918F912F910F900BBE0F900FBE0F9094
:1009E0001F9018951F920F920FB60F9211242F93FC
:1009F0003F938F939F93AF93BF938091C702909142
:100A0000C802A091C902B091CA023091C60223E087
:100A1000230F2D3720F40196A11DB11D05C026E836
:100A2000230F0296A11DB11D2093C6028093C70219
:100A30009093C802A093C902B093CA028091C202E7
:100A40009091C302A091C402B091C5020196A11D6C
:100A5000B11D8093C2029093C302A093C402B093CD
:100A6000C502BF91AF919F918F913F912F910F90B0
:100A70000FBE0F901F901895089508950895CF9276
:100A8000DF92EF92FF920F931F93CF93DF936C014E
:100A90007A018B01C0E0D0E0CE15DF0589F0D801E6
:100AA0006D918D01D601ED91FC910190F081E02DC9
:100AB000C6011995892B11F47E0102C02196ECCF55
:100AC000C701DF91CF911F910F91FF90EF90DF90C1
:100AD000CF9008954F925F926F927F92EF92FF9224
:100AE0000F931F93CF93DF93CDB7DEB7A1970FB6C8
:100AF000F894DEBF0FBECDBF7C01FA01CB0119A275
:100B0000223008F42AE08E010F5D1F4F422E512C37
:100B1000612C712CBF01A3019201EBD2F901CA0132
:100B2000015011096A3014F4605D01C0695CD8019C
:100B30006C93232B242B252B69F70115110591F0BC
:100B4000F80101900020E9F73197AF01401B510BEC
:100B5000D701ED91FC910280F381E02DB801C7012E
:100B6000199502C080E090E0A1960FB6F894DEBF20
:100B70000FBECDBFDF91CF911F910F91FF90EF90EE
:100B80007F906F905F904F900895DC01ED91FC9104
:100B90000190F081E02D1994789484B5826084BD31
:100BA00084B5816084BD85B5826085BD85B5816071
:100BB00085BD80916E00816080936E0010928100EF
:100BC00080918100826080938100809181008160AA
:100BD000809381008091800081608093800080916B
:100BE000B10084608093B1008091B00081608093F7
:100BF000B00080919100826080939100809191007B
:100C0000816080939100809190008160809390003A
:100C10008091A10082608093A1008091A1008160F9
:100C20008093A1008091A00081608093A0008091BA
:100C30002101826080932101809121018160809354
:100C400021018091200181608093200180917A00B0
:100C5000846080937A0080917A00826080937A0029
:100C600080917A00816080937A0080917A00806818
:100C700080937A001092C100E091ED02F091EE02B3
:100C800082E08083E091E902F091EA021082E09133
:100C9000EB02F091EC0280E180831092F502E0918A
:100CA000F102F091F20286E08083E091EF02F09190
:100CB000F002808180618083E091EF02F091F00288
:100CC000808188608083E091EF02F091F002808162
:100CD00080688083E091EF02F091F00280818F7D47
:100CE0008083C6E1D4E0BB24B3948091D502811106
:100CF000E6C01092D1021092D00286E090E023D29A
:100D0000FC01118210821382128215821482909348
:100D1000CD028093CC029093CF028093CE02D093E9
:100D2000D402C093D302E0917A03F0917B0336970B
:100D30000190F081E02DE658FC4F8189928900975F
:100D400009F0FADAE0917A03F0917B03369701908B
:100D5000F081E02DE458FC4FC284D384E484F58410
:100D600042E1C41AD108E108F108818192818E70B4
:100D700099270497C9F41C141D041E041F04A4F42D
:100D800081E0C81AD108E108F108E0917A03F091F6
:100D90007B0336970190F081E02DE658FC4F608987
:100DA0008AE793E020DBE7CFE0917A03F0917B03C1
:100DB00036970190F081E02DE658FC4F03891489A5
:100DC000D8011F968C911F9780FF0BC0ED91FC916D
:100DD0000084F185E02D20E144E060E070E0C8018E
:100DE0001995D801ED91FC91008CF18DE02D22E157
:100DF00030E040E050E06EEA72E0C80119952091C1
:100E00007A0330917B036F3F7F4F81F4F90136976E
:100E10000190F081E02DE658FC4F8581982F92607B
:100E200043895489452B09F44CC09583F9013697C1
:100E30000190F081E02DE458FC4F818192818E7009
:100E400099270297D1F0E0917A03F0917B033697CE
:100E5000A081B181A458BC4F1A961D921D921D927B
:100E60001C921D970190F081E02DE658FC4F81897E
:100E700092890097D9F060DA19C01C141D041E0471
:100E80001F040CF7E1E0CE1AD108E108F108E09167
:100E90007A03F0917B0336970190F081E02DE658BC
:100EA000FC4F60898AE793E09EDAE7CF6AE08AE741
:100EB00093E099DA8AE793E03FDAB092D50204DA58
:100EC00014CF83608583B2CF8AE793E088CCEAEAC7
:100ED000F3E086EA92E09183808312821382148287
:100EE0001582ADEDB2E013961C921E92129748EE59
:100EF00053E060E070E014964D935D936D937C93A6
:100F000017972EE132E011963C932E9325EC30E0BA
:100F10001D963C932E931C9724EC30E01F963C9337
:100F20002E931E9720EC30E051963C932E935097D1
:100F300021EC30E053963C932E93529722EC30E014
:100F400055963C932E93549726EC30E057963C935D
:100F50002E93569759961C9259975A961C925A97C7
:100F60005B961C925B975C961C925C97E0EBF3E0BF
:100F7000918380831282138214821582E6EBF3E060
:100F8000918380831282138214821582ECEBF3E04A
:100F9000918380831282138214821582E2ECF3E043
:100FA000918380831282138214821582E8ECF3E02D
:100FB000918380831282138214821582EEECF3E017
:100FC000918380831282138214821582E4EDF3E010
:100FD000918380831282138214821582EAEDF3E0FA
:100FE000918380831282138214821582E0EEF3E0F3
:100FF000918380831282138214821582E6EEF3E0DD
:10100000918380831282138214821582ECEEF3E0C6
:10101000918380831282138214821582EAEFF3E0B7
:10102000918380831282138214821582E2EFF3E0AF
:10103000918380831282138214821582E0E0F4E0AF
:10104000918380831282138214821582E6E0F4E099
:10105000918380831282138214821582ECE0F4E083
:10106000918380831282138214821582E4EAF3E072
:10107000918380831282138214821582EAE7F3E05F
:1010800081E290E0908F878B118E128E138E46E056
:1010900050E060E070E0448F558F668F778F10A22C
:1010A00011A212A213A280E284A316A215A211A675
:1010B0008CE793E090A787A38CE892E091838083EC
:1010C00086E992E0958B848B1682158210861782B2
:1010D000128611861486138616861586108A178640
:1010E0008AE692E093838283B38BA28B80E1818B2B
:1010F0000895A1E21A2EAA1BBB1BFD010DC0AA1F59
:10110000BB1FEE1FFF1FA217B307E407F50720F070
:10111000A21BB30BE40BF50B661F771F881F991FEB
:101120001A9469F760957095809590959B01AC0134
:10113000BD01CF010895EE0FFF1F881F8BBF0790E1
:10114000F691E02D1994CF93DF938230910510F43E
:1011500082E090E0E0911404F091150420E030E08A
:10116000C0E0D0E0309711F1408151814817590714
:10117000C0F04817590761F482819381209719F0D4
:101180009B838A832BC0909315048093140426C0FC
:101190002115310519F04217530718F49A01BE01C1
:1011A000DF01EF010280F381E02DDCCF2115310555
:1011B00009F1281B390B2430310590F412968D91DA
:1011C0009C9113976115710521F0FB019383828334
:1011D00004C09093150480931404FD01329644C01A
:1011E000FD01E20FF31F81939193225031092D935A
:1011F0003C933AC02091120430911304232B41F404
:1012000020910202309103023093130420931204C0
:1012100020910002309101022115310541F42DB7D2
:101220003EB74091040250910502241B350BE0911A
:101230001204F0911304E217F307A0F42E1B3F0BE6
:101240002817390778F0AC014E5F5F4F2417350738
:1012500048F04E0F5F1F5093130440931204819384
:10126000919302C0E0E0F0E0CF01DF91CF910895CB
:101270000F931F93CF93DF93009709F48CC0FC0169
:1012800032971382128200911404109115040115F3
:10129000110581F420813181820F931F2091120466
:1012A000309113042817390779F5F0931304E0936C
:1012B000120471C0D80140E050E0AE17BF0750F4EF
:1012C00012962D913C911397AD012115310509F12D
:1012D000D901F3CF9D01DA013383228360817181CB
:1012E000860F971F8217930769F4EC0128813981D3
:1012F000260F371F2E5F3F4F318320838A819B81CA
:1013000093838283452B29F4F0931504E09314040E
:1013100042C01396FC93EE931297ED0149915991B7
:101320009E01240F351FE217F30771F4808191812C
:10133000840F951F029611969C938E9382819381C0
:1013400013969C938E931297E0E0F0E0D8011296EA
:101350008D919C911397009719F0F8018C01F6CFAD
:101360008D919C9198012E5F3F4F820F931F20918A
:101370001204309113042817390769F4309729F4BF
:10138000109215041092140402C01382128210935A
:10139000130400931204DF91CF911F910F910895D0
:1013A00081E090E0F89400C010E0C3E7D0E000E0F6
:1013B00005C0802FFE01BFDE2196011DC437D10775
:0A13C00080E00807B1F7F894FFCFB2
:1013CA000000160480001400000000000000000065
:1013DA00ECFFECFF00000000000000000000FD0030
:1013EA003F05C700A500B9004301000000003C0505
:1013FA00CF0319031603130310030D037A027602AF
:10140A0073025D027D021C021A0202000000000043
:10141A00D003D203FEFFFEFF0000D103D303000076
:10142A0000003E051504000000003D05CE03190327
:10143A001603130310030D030103BB029D027F026F
:10144A007D0239031A03140000000000EF030404AC
:10145A00ECFFECFF0000FB030C048C020C021602EA
:10146A009602000000008A0300000000CD034465D4
:10147A0076696365733A3A446576696365732829C0
:02148A00000060
:00000001FF
