:100000009BC10000CAC10000C8C10000C6C10000F9
:10001000C4C10000C2C10000C0C10000BEC10000D8
:10002000BCC10000BAC10000B8C10000B6C10000E8
:10003000B4C10000B2C10000B0C10000AEC10000F8
:10004000ACC10000AAC10000A8C10000A6C1000008
:10005000A4C10000A2C10000A0C100000C94DB36C6
:100060009CC100000C9432360C94093696C10000F5
:1000700094C1000092C1000090C100008EC1000038
:100080008CC100008AC1000088C1000086C1000048
:1000900084C1000082C1000080C100007EC1000058
:1000A0007CC100007AC1000078C1000076C1000068
:1000B00074C1000072C1000070C100006EC1000078
:1000C0006CC100006AC1000068C1000066C1000088
:1000D00064C1000062C100000C94E0350C94B73597
:1000E0005CC100003C0E3F0E2E0E320E360E760E18
:1000F000430E470E4D0E510E550E5B0E5F0E630EF6
:10010000760E690E6D0E710E6364696E6F70737595
:1001100078585B00005EBCE2613FDD83C29C7E20BC
:10012000A3FD1F419DC3217FFCA2401E5F01E3BDD3
:100130003E6082DC237D9FC1421CFEA0E1BF5D03C7
:1001400080DE3C62BEE0025CDF81633D7C22C09EBB
:100150001D43A1FF4618FAA427799BC584DA3866A7
:10016000E5BB5907DB856739BAE406581947A5FB93
:100170007826C49A653BD987045AB8E6A7F91B4587
:10018000C6987A24F8A6441A99C7257B3A6486D87B
:100190005B05E7B98CD2306EEDB3510F4E10F2AC67
:1001A0002F7193CD114FADF3702ECC92D38D6F3153
:1001B000B2EC0E50AFF1134DCE90722C6D33D18F47
:1001C0000C52B0EE326C8ED0530DEFB1F0AE4C123B
:1001D00091CF2D73CA947628ABF517490856B4EA27
:1001E0006937D58B5709EBB536688AD495CB297713
:1001F000F4AA4816E9B7550B88D6346A2B7597C907
:100200004A14F6A8742AC896154BA9F7B6E80A54FA
:10021000D7896B3500000A0B02090C0D0E08070385
:1002200004010000000000000000000000000000C9
:1002300000000000000000000000000000000000BE
:10024000121110000000000000000000000000007B
:10025000000000000000000000000000200023005B
:10026000260029002C002F003200000100000301AD
:100270000601090100002200250028002B002E00A5
:100280003100340002010000050108010B010000EB
:100290002100240027002A002D0030003300010136
:1002A0000000040107010A01050505050705080806
:1002B0000808020202020A0A0808040404040101F0
:1002C0000101010101010303030303030303040705
:1002D00007070C0C0C0C0C0C0C0C0202020206069C
:1002E0000606060606060B0B0B0B0B0B0B0B01028F
:1002F0001020200808102040102040800201020138
:1003000008040201010204081020408080402010EF
:100310000804020180040201804020100804020148
:1003200008040201010204081020408001020408B0
:1003300010204080A744A34411241FBECFEFD1E278
:10034000DEBFCDBF00E00CBF16E0A0E0B2E0E8EAFF
:10035000FCE900E00BBF02C007900D92AA3DB10777
:10036000D9F72AE0AAEDB6E001C01D92AC33B2077E
:10037000E1F711E0CBE9D1E000E006C021970109E7
:10038000802FFE010E949E46CA39D10780E00807EF
:10039000A9F70E9476410C94434E32CECF92DF9261
:1003A000EF92FF920F931F93CF93DF936C017A012B
:1003B0008B01C0E0D0E0CE15DF0589F0D8016D914A
:1003C0008D01D601ED91FC910190F081E02DC601E7
:1003D0001995892B11F47E0102C02196ECCFC7013B
:1003E000DF91CF911F910F91FF90EF90DF90CF9011
:1003F0000895CF93C82F462F61E070E00E940E331E
:1004000061E070E08C2F0E9418338111F9CFCF91F9
:1004100008958F929F92AF92BF92CF92DF92EF9208
:10042000FF920F931F93CF93DF93B82E4B018A0156
:10043000A22E68E270E00E941833C82FD0E069E273
:1004400070E08B2D0E941833DC2FCC27C82B9E0127
:100450003770CB2CD12CC601880F991FAC014E519F
:10046000594F6A01FA0180819181820F931FA8017F
:10047000420F531F4130584098F060E078E07B0114
:10048000E21AF30AA701B4010E94B425A8014E198B
:100490005F09B4016E0D7F1DF6018081918102C05C
:1004A000A801B4010E94B425A1100EC0C00FD11F35
:1004B0004D2F68E270E08B2D0E940E334C2F69E2C5
:1004C00070E08B2D0E940E33DF91CF911F910F9121
:1004D000FF90EF90DF90CF90BF90AF909F908F9064
:1004E00008959F92AF92BF92CF92DF92EF92FF92C8
:1004F0000F931F93CF93DF93982E8B015A016901BD
:1005000064E270E00E941833E82EF12C65E270E09E
:10051000892D0E941833FE2CEE24E82AE701C00F33
:10052000D11F9E013770E92CF12CC701880F991F4C
:10053000AC014652594F7A01FA0180819181820FB4
:10054000931FA9014C0D5D1D4130584090F000E013
:1005500018E0021B130BA801B5010E94DE25A601BD
:10056000401B510BB501600F711FF7018081918114
:1005700002C0A601B5010E94DE25CC0DDD1D4D2F68
:1005800064E270E0892D0E940E334C2F65E270E02A
:10059000892DDF91CF911F910F91FF90EF90DF9008
:1005A000CF90BF90AF909F900C940E33FF920F931B
:1005B0001F93CF93DF93F82EC0E0D0E08F2D0E94E1
:1005C00095258C01892B21F08F2D0E949525EC011A
:1005D000C017D10799F7CE01DF91CF911F910F91ED
:1005E000FF9008959F92AF92BF92CF92DF92EF92C9
:1005F000FF920F931F93CF93DF9300D000D0CDB71E
:10060000DEB7FC019681992309F4DAC06B017F0102
:10061000915096835F0182E0A80EB11CC5015BD2A8
:10062000D7011296ED91FC91139780818B3521F0C3
:100630008B3709F494C09DC0F70100811181B80186
:1006400084E090E00E94BC17009751F0DC01119605
:100650001C930E9313961C921E9212978C0111C03C
:100660008091EE0681110BC01092EB061092EA0603
:100670001092ED061092EC0681E08093EE060AEEF1
:1006800016E06BE5C50169D2882309F448C06DE521
:10069000C50163D2811154C086E0982E1A82198256
:1006A000BE016F5F7F4FC7019DDF8823C1F1F80155
:1006B0006081718188E090E00E94BC17DC01892B89
:1006C00039F011961C921E9213961C921E9212974C
:1006D000F801228133812115310551F0F901808122
:1006E0009181009711F09C01F9CFB183A08303C0E1
:1006F000F801B383A283109791F0FE013196129610
:10070000892D01900D928A95E1F76DE5C50125D2FD
:10071000811116C06CE2C50120D28111BFCF80913A
:10072000EE0681110BC01092EB061092EA061092B1
:10073000ED061092EC0681E08093EE060AEE16E0DC
:10074000D8018D919C91892B11F410E031C086E085
:1007500090E0F601918380831383028328C0C70150
:1007600089D3DC012D913C91232B79F327E030E0F4
:1007700019C011E0873219F0823209F010E0C70188
:100780000AD2009711F3112359F022E030E0D6018C
:1007900011963C932E9313969C938E93129708C0B8
:1007A00021E030E0F601318320839383828311E0DE
:1007B000D70116968C9116978F5F16968C9301C071
:1007C00010E0812F26960FB6F894DEBF0FBECDBF86
:1007D000DF91CF911F910F91FF90EF90DF90CF901D
:1007E000BF90AF909F900895CF92DF92EF92FF92CB
:1007F0000F931F93CF93DF931F92CDB7DEB77C018A
:100800006B01AC01485F5F4F81E290E0F70197A375
:1008100086A310A611A612A686E090E0A0E0B0E0A4
:1008200083A794A7A5A7B6A717A610AA11AA12AACC
:1008300087E794E094A383A380E283AB15AA14AA6C
:1008400057AB46AB10AE68EC72E0C7010E94D721EF
:100850008EEA92E0F7019183808382EC92E094A388
:1008600083A388EB92E0978386831486138616868B
:100870001586108A1786128A118A148A138A168A94
:10088000158A178A8CE892E0918780878E010F5F26
:100890001F4F2FEF3FEF40E050E0B601C7014896F1
:1008A0000E94B23AF70110A2178E12A211A288E19B
:1008B000878B0F90DF91CF911F910F91FF90EF9059
:1008C000DF90CF9008954F925F926F927F92EF9258
:1008D000FF920F931F93CF93DF93CDB7DEB7A1970E
:1008E0000FB6F894DEBF0FBECDBF7C01FA01CB017D
:1008F00019A2223008F42AE08E010F5D1F4F422E0C
:10090000512C612C712CBF01A30192010E946D46F4
:10091000F901CA01015011096A3014F4605D01C087
:10092000695CD8016C93232B242B252B61F70115CF
:10093000110591F0F80101900020E9F73197AF011E
:10094000401B510BD701ED91FC910280F381E02D0A
:10095000B801C701199502C080E090E0A1960FB6DA
:10096000F894DEBF0FBECDBFDF91CF911F910F91E5
:10097000FF90EF907F906F905F904F900895DC0113
:10098000ED91FC910190F081E02D19940895EF9282
:10099000FF920F931F93CF93DF931F92CDB7DEB7D4
:1009A0007C018E010F5F1F4F2FEF3FEF40E050E0C3
:1009B0000E94B23AC7010F90DF91CF911F910F9122
:1009C000FF90EF900895EF92FF920F931F93CF93B4
:1009D000DF931F92CDB7DEB77C018E010F5F1F4FF3
:1009E0002FEF3FEF40E050E00E94B23AC7010F9076
:1009F000DF91CF911F910F91FF90EF9008950F938A
:100A00001F93CF93DF931F92CDB7DEB78C01AE015A
:100A10004F5F5F4F61E475E00E94423DC8010F9057
:100A2000DF91CF911F910F9108952EED32E0FC01DF
:100A3000318320830C94D824CF93DF93EC01F5DF2E
:100A4000CE01DF91CF910C9442470F931F93CF9328
:100A5000DF93EC01CB01088119817B836A830E94BB
:100A6000AD469983888320E030E08C819D812817F2
:100A7000390770F4E881F981E20FF31F309729F00C
:100A8000D801A20FB31F8C9180832F5F3F4FEDCF12
:100A9000C801DF91CF911F910F910C9442470F93A2
:100AA0001F93CF93DF93EC01DB01ED91FC91068066
:100AB000F781E02DCB0119958C01E881F981068041
:100AC000F781E02DCE011995B801DF91CF911F91EB
:100AD0000F910C94E539FC01A081B1818C918D308E
:100AE00051F024F489508230B8F505C0803219F0F5
:100AF0008F3219F0089511962CC011968C91119790
:100B00008A3219F08F32D1F008951196B183A08303
:100B1000A081B181CD0101969183808311968C9142
:100B200011978823C9F08A3299F712968C911297FF
:100B30008F3271F713960DC08A3071F2A081B181A6
:100B4000CD0101969183808311968C918111F4CF10
:100B500003C0B183A083C0CF08950F931F93CF9399
:100B6000DF931F92CDB7DEB78C016983B4DFD80164
:100B7000ED91FC91119780816981861305C03196B2
:100B8000ED93FC9381E001C080E00F90DF91CF9165
:100B90001F910F910895EF92FF920F931F93CF93A0
:100BA000DF938C01DC011496CD91DC911597EA80DE
:100BB000FB808E819F81E80EF91EC80102968BDFB3
:100BC000D8011296ED91FC91139790819732A9F17B
:100BD000923299F180ED890F8A3078F081EA890F9D
:100BE0008C3158F08FEB890F8A3138F09B3229F025
:100BF00083ED890F823008F060C0F80122813381D3
:100C00002F5F3F4F338322832E813F81A9014F5FA6
:100C10005F4F6C817D816417750740F06A817B812D
:100C2000FB01E20FF31F5F834E839083D80112967E
:100C3000ED91FC9113979081CDCF3196D801139609
:100C4000FC93EE931297D8011296ED91FC911397B5
:100C50002081222391F1AF014F5F5F4F13965C9388
:100C60004E931297291749F12C35A9F42181A3E558
:100C7000B5E08C91882339F0821303C011962C9132
:100C800002C01296F6CF2223C1F03296D8011396F5
:100C9000FC93EE9312974E815F81BA016F5F7F4F95
:100CA000EC81FD81E617F70770F2EA81FB81E40F22
:100CB000F51F7F836E832083C6CF8E819F819C0129
:100CC0002F5F3F4F4C815D814217530748F04A81A7
:100CD0005B81FA01E80FF91F3F832E83108202C067
:100CE000E12CF12CC701DF91CF911F910F91FF9063
:100CF000EF900895FC019581692B83899489892B54
:100D000009F46160658308958F929F92AF92BF92BC
:100D1000EF92FF920F931F93CF93DF93EC017B0130
:100D200049015A01E881F98136970190F081E02D5F
:100D3000E80FF91F03891489D8011F968C911F971A
:100D400080FF0BC0ED91FC910084F185E02D20E146
:100D500044E060E070E0C8011995D801ED91FC9184
:100D6000008CF18DE02DA5019401B701C801199502
:100D70006F3F7F4F49F4E881F981369780819181F7
:100D800062E08C0F9D1FB6DFCE01DF91CF911F91E6
:100D90000F91FF90EF90BF90AF909F908F9008952C
:100DA000EF92FF920F931F93CF93DF93EC018C810F
:100DB0009D818617970708F57A018B018A819B81AF
:100DC0008617970738F4685F7F4F8617970710F4E8
:100DD000CE013BDE8C819D818017910758F4E8811C
:100DE000F981E80FF91F309719F0D7012C91208372
:100DF0000196F2CF1D830C8305C06817790710F4A4
:100E00007D836C83DF91CF911F910F91FF90EF90C5
:100E10000895CF92DF92EF92FF920F931F93CF939B
:100E2000DF931F92CDB7DEB78C017B01FC01C4803C
:100E3000D580FB01648175816C0D7D1D1982AE0129
:100E40004F5F5F4FADDFF701448155816081718154
:100E5000F801808191818C0D9D1D0E946E25C80135
:100E60000F90DF91CF911F910F91FF90EF90DF9046
:100E7000CF9008957F928F929F92AF92BF92CF9220
:100E8000DF92EF92FF920F931F93CF93DF9300D0E7
:100E900000D0CDB7DEB75C01DC010D911C91B8012B
:100EA00084E090E00E94BC17009739F0FC011183A8
:100EB0000083138212828C0111C08091FA06811185
:100EC0000BC01092F7061092F6061092F9061092D7
:100ED000F80681E08093FA0606EF16E06501F2E07D
:100EE000CF0ED11C6BE7C60138DE882309F44CC055
:100EF0006DE7C60132DE81117AC086E0782EC50129
:100F00004ADE4C01892B09F43FC06AE3C60125DEA5
:100F10008823D1F11A821982BE016F5F7F4FC5010C
:100F200061DB882389F1D8011296ED90FC9013972C
:100F3000E114F104D9F1F70162817381C4010E94C7
:100F4000FC47892B71F0D701ED90FC90F1CFF18235
:100F5000E082E114F104C1F0D70113969C928E92C5
:100F60001297FE013196D7011496872D01900D92AC
:100F70008A95E1F76DE7C601F0DD811138C06CE2BA
:100F8000C601EBDD8111BBCF8091FA0681110BC048
:100F90001092F7061092F6061092F9061092F806D3
:100FA00081E08093FA0606EF16E021C0F801608127
:100FB00071818AE090E00E94BC177C01892B29F0A6
:100FC000F7011182108215821482D8011296ED91D8
:100FD000FC911397309739F080819181009709F443
:100FE000B6CFFC01F9CFF801F382E282B2CFC8019B
:100FF00026960FB6F894DEBF0FBECDBFDF91CF911E
:101000001F910F91FF90EF90DF90CF90BF90AF9026
:101010009F908F907F900895CF92DF92EF92FF92F2
:101020000F931F93CF93DF931F92CDB7DEB77C0151
:101030006B018E010F5F1F4F2FEF3FEF40E050E03D
:101040000E94B23AF60187819085A185B285F701A9
:1010500087839087A187B2870F90DF91CF911F91EF
:101060000F91FF90EF90DF90CF900895EF92FF9255
:101070000F931F93CF93DF931F921F92CDB7DEB7CD
:101080007C01FC011182108213821282158214826B
:101090008BE090E069837A830E94AD468C01698180
:1010A0007A81BADFF701158304830F900F90DF91E7
:1010B000CF911F910F91FF90EF900895EF92FF92C3
:1010C0000F931F93CF93DF93EC017B018C819D8164
:1010D000892BC1F486E090E00E94AD468C01B701F7
:1010E000C5DF19830883EA81FB8111830083D8015E
:1010F00011961C921E921396FC93EE93129781E028
:1011000090E01EC086E090E00E94AD468C01B701E1
:10111000ADDFEA81FB8180819181D80111969C939A
:101120008E931396FC93EE931297A081B181139640
:101130001C930E931297118300838C819D810196DD
:101140009D838C83DF91CF911F910F91FF90EF9042
:101150000895AF92BF92CF92DF92EF92FF920F93DA
:101160001F93CF93DF93CDB7DEB762970FB6F89496
:10117000DEBF0FBECDBF8C017B015A01DB01119692
:101180008D919C911297F80192838183F801A1813E
:10119000B281F701838194818A179B0761F1C08432
:1011A000D18414966D917C911597CE01019634DF10
:1011B000BE016F5F7F4FCE010C96F6011995B50108
:1011C000CE010C960E94E539D82ECE010C960E94D5
:1011D0004139CE0101960E944139DD2061F0D801EC
:1011E0001196ED91FC9112978281938112969C93B6
:1011F0008E931197CBCFC80162960FB6F894DEBFDD
:101200000FBECDBFDF91CF911F910F91FF90EF9057
:10121000DF90CF90BF90AF900895CF92DF92EF9282
:10122000FF920F931F93CF93DF931F92CDB7DEB73B
:101230006C017B018E010F5F1F4F2FEF3FEF40E0EE
:1012400050E00E94B23AB701695F7F4F2FEF3FEF46
:1012500040E050E0C60107960E94B23A0F90DF913D
:10126000CF911F910F91FF90EF90DF90CF90089555
:10127000EF92FF920F931F93CF93DF931F921F92D2
:10128000CDB7DEB77C01FC0111821082138212827D
:10129000158214828EE090E069837A830E94AD46C5
:1012A0008C0169817A81B9DFF701158304830F907E
:1012B0000F90DF91CF911F910F91FF90EF900895C4
:1012C000EF92FF920F931F93CF93DF93EC017B017B
:1012D0008C819D81892BC1F486E090E00E94AD460F
:1012E0008C01B701C5DF19830883EA81FB81118373
:1012F0000083D80111961C921E921396FC93EE93D4
:10130000129781E090E01EC086E090E00E94AD461A
:101310008C01B701ADDFEA81FB8180819181D80129
:1013200011969C938E931396FC93EE931297A08143
:10133000B18113961C930E931297118300838C81B5
:101340009D8101969D838C83DF91CF911F910F9199
:10135000FF90EF900895AF92BF92CF92DF92EF92FD
:10136000FF920F931F93CF93DF93CDB7DEB76597AF
:101370000FB6F894DEBF0FBECDBF8C017B015A01C2
:10138000DB0111968D919C911297F80192838183D4
:10139000F801A181B281F701838194818A179B07AB
:1013A00061F1C084D18414966D917C911597CE0122
:1013B000019633DFBE016F5F7F4FCE010F96F601BE
:1013C0001995B501CE010F960E94E539D82ECE01B0
:1013D0000F960E944139CE0101960E94DC39DD2032
:1013E00061F0D8011196ED91FC9112978281938161
:1013F00012969C938E931197CBCFC80165960FB62A
:10140000F894DEBF0FBECDBFDF91CF911F910F913A
:10141000FF90EF90DF90CF90BF90AF9008950F9323
:101420001F93CF93DF93FC0104811581FB01C481DD
:10143000D581AE010C171D0708F4A801FB016081DE
:101440007181FC01808191810E940C48009769F4B0
:1014500081E090E0C017D10740F00C171D0710F095
:1014600080E090E0919581959109DF91CF911F9156
:101470000F910895CF93DF93EC01E881F9813697BE
:101480000190F081E02DE80FF91F83899489DC0138
:10149000ED91FC910484F585E02D1995019649F4B0
:1014A000E881F98136978081918161E08C0F9D1FE1
:1014B00021DCCE01DF91CF910895CF93DF93EC0132
:1014C000E881F98136970190F081E02DE80FF91F4E
:1014D000838994890E94A11E019649F4E881F981CB
:1014E00036978081918162E08C0F9D1F03DCCE01D5
:1014F000DF91CF9108956F927F928F929F92AF92DA
:10150000BF92CF92DF92EF92FF920F931F93CF93F0
:10151000DF9300D01F92CDB7DEB73C018B01DC0119
:10152000ED91FC9136970190F081E02D3296E80F15
:10153000F91FC284D384E484F584C21AD30AE40A6E
:10154000F50A818192818E709927049761F5460191
:101550005701181419041A041B04D4F4B1E08B1AAF
:101560009108A108B108D301ED91FC913697019043
:10157000F081E02DE60DF71D6089C30129833A83D0
:101580004B835C839ADF5C814B813A812981E1CF77
:10159000D701C601F7FE03C080E090E0DC01C81A65
:1015A000D90AEA0AFB0AB801C301AEDBD301ED9107
:1015B000FC9136970190F081E02DE60DF71D8381B7
:1015C00094818E709927029701F1D301ED91FC91DE
:1015D000369780819181860D971DFC0114861586B2
:1015E000168617860F900F900F900F90DF91CF9176
:1015F0001F910F91FF90EF90DF90CF90BF90AF9031
:101600009F908F907F906F9008951C141D041E046E
:101610001F04DCF6F1E0CF1AD108E108F108D3018C
:10162000ED91FC9136970190F081E02DE60DF71DCC
:101630006089C30142DFE9CF4F925F926F927F9240
:101640008F929F92AF92BF92CF92DF92EF92FF92D2
:101650000F931F93CF93DF93CDB7DEB7C854D10953
:101660000FB6F894DEBF0FBECDBF4C017B0181E207
:1016700090E09AA389A31BA21CA21DA286E090E081
:10168000A0E0B0E08EA39FA3A8A7B9A71AA61BA6A7
:101690001CA61DA687E794E09F8F8E8F80E28EA701
:1016A00018AA1FA66E0123E0C20ED11CDAAAC9AA8D
:1016B0001BAAA6016DEF73E0CE0101960E944F1F99
:1016C00089E094E09A83898383E194E09F8F8E8FF1
:1016D0001F821E82198618861B861A861D861C8606
:1016E0001F861E86198A188A1A8A8CE892E09C83C3
:1016F0008B838E010C5C1F4FB801CE0143960E9474
:1017000046391B8E1A8E1D8E1C8E80E18A8B370106
:10171000E12CF12C2EE5A22E25E0B22E34E1532E41
:10172000F30141903F01E981FA8136970190F08100
:10173000E02D329621E030E02C0F3D1FE20FF31F29
:10174000818192818F71806292838183E981FA81A4
:1017500036970190F081E02D3296E20FF31F8181E0
:101760009281946092838183B901CE01885B9F4FFF
:101770000E942F39E981FA8136970190F081E02D9E
:10178000EC0DFD1D8181928185FD18C086FF05C08D
:1017900092FD17C089E695E01FC087FF15C09C0128
:1017A0002227307292FF05C0232B89F482E795E04F
:1017B00013C0232B79F48BE795E00EC080E695E00B
:1017C0000BC084E695E008C080E090E005C08DE69F
:1017D00095E002C087E795E01F921F921F924F92FB
:1017E0009F938F931F925F921F930F930E941A48AB
:1017F0009C01990F440B550BB801CE0101967BDE7D
:10180000E981FA8136970190F081E02DEC0DFD1D04
:10181000818192810FB6F894DEBF0FBECDBF96FFD7
:1018200003C0CE01019626DEB501CE0101960E94CD
:101830008C3AFFEFEF1AFF0A28E0E216F10471F08C
:1018400037E0E316F10429F49DE5A92E95E0B92EC1
:1018500067CF8EE5A82E85E0B82E62CF2FEF3FEF41
:1018600040E050E0BE016D5E7F4FC4010E94B23A7D
:10187000CE0101960E947F2AC401C85BDF4F0FB6DC
:10188000F894DEBF0FBECDBFDF91CF911F910F91B6
:10189000FF90EF90DF90CF90BF90AF909F908F9090
:1018A0007F906F905F904F9008952F923F924F924C
:1018B0005F926F927F928F929F92AF92BF92CF92E0
:1018C000DF92EF92FF920F931F93CF93DF93CDB7E9
:1018D000DEB72E970FB6F894DEBF0FBECDBF1C014A
:1018E0009C01295E3F4F3B872A87C9010E94E41C67
:1018F0008C87882309F444C18A859B850E94E41C57
:101900008C87882309F443C00E94CF362B013C0109
:10191000810101561F4FF80180819181A281B3811D
:10192000A3019201281B390B4A0B5B0BDA01C90199
:1019300089399A43A105B10590F43497808191814A
:10194000A281B381A3019201281B390B4A0B5B0BC7
:10195000DA01C90189399A43A105B105C8F17101BC
:1019600043EAE40EF11CD7012C91F1018789908D97
:10197000222379F0EE54FF4F2CEF3FEF3183208389
:10198000DC01ED91FC910288F389E02D19951C860C
:1019900043C520ECF101218F128EDC01ED91FC9109
:1019A0000280F381E02D42E050E0B101675E7F4F9D
:1019B0001995F101E556FF4F408251826282738290
:1019C000F801408251826282738281E0D7018C9358
:1019D000F1018789908DDC01ED91FC910480F58106
:1019E000E02D1995892B09F417C5BE016F5F7F4F54
:1019F0008A859B850E94A51D5C01892B09F40CC575
:101A0000F8014082518262827382D10159968C9191
:101A1000807F803309F091C04101B4EA8B0E911CA4
:101A2000F40180819181892B09F4F6C4E980F12CBD
:101A3000F101EE0DFF1D028D10E0102F0027838DA8
:101A4000080F111D6701F4E0CF0ED11C2A853B85DC
:101A5000C20ED31EB7016B5F7F4F620F731FA801C9
:101A6000C6010E94EB4798012E0D3F1DF101E20FC8
:101A7000F31F138ED10159968C9186708987D401FA
:101A80000D90BC91A02DBE87AD87823009F041C07A
:101A9000848D90E0982F8827458D4C01840E911CF1
:101AA0004BEF5FEF4E195F09401B510B4A0D5B1D59
:101AB000B901695F7F4FEA85FB856E0F7F1FC60105
:101AC000FD01199580E4D10159968C935997298588
:101AD0005A962C935A975B969C925B975C968C9245
:101AE0005C9757968D919C915897DC01ED91FC91F4
:101AF000B101675E7F4F0280F381E02D44E050E04A
:101B00001995F101E556FF4F40825182628273823E
:101B100083C44DEF5FEF4E195F09401B510B4A0D17
:101B20005B1DB9016B5F7F4FEA85FB856E0F7F1FE1
:101B3000C601ED85FE8519956FC4803CC9F480ED22
:101B4000D10159968C9359975A961C925A97579649
:101B50008D919C915897DC01ED91FC91B101675EEC
:101B60007F4F0280F381E02D42E050E0199554C48C
:101B7000803D09F051C4F101ED55FF4F10824CC476
:101B80008091610781112AC010924907109248077D
:101B900088EE93E0A0E0B0E080934A0790934B0773
:101BA000A0934C07B0934D078DE193E090934707C6
:101BB000809346078BEB94E09093550780935407EE
:101BC0001092560710925707109258071092590713
:101BD00084E080935E0781E08093610783E097E073
:101BE00090930409809303096CE271E080E090E037
:101BF0000E9497361FB7F89480910207811196C012
:101C00008DED92E0FC01249143E253E0FA016491EE
:101C100030E0220F331F22573D4FF901A591B491B7
:101C20002C91622309F070C0E9E4F2E0C490FA015B
:101C30004491FC019491992309F466C0CC2009F4E5
:101C400055C0D12CF6013197E231F10508F04EC0B4
:101C50008827EE58FF4F8F4F0C949E46809180004E
:101C60008F7707C0809180008F7D03C080918000B6
:101C7000877F809380003AC084B58F7702C084B597
:101C80008F7D84BD33C08091B0008F7703C0809179
:101C9000B0008F7D8093B00029C0809190008F7735
:101CA00007C0809190008F7D03C080919000877F56
:101CB000809390001BC08091A0008F7707C0809117
:101CC000A0008F7D03C08091A000877F8093A0003B
:101CD0000DC0809120018F7707C0809120018F7DFA
:101CE00003C080912001877F80932001E92FF0E0DD
:101CF000EE0FFF1FEC58FD4FA591B4918FB7F894EC
:101D00009C91492B4C938FBF61E085E30E945B3629
:101D10008CB580618CBD8CB580648CBD61E084E342
:101D20000E945B3661E083E30E945B36809102078C
:101D30008F5F809302071FBF249A80E590E00E9486
:101D4000A82D60E880E090E00E94072665E58BE121
:101D500090E00E94072665E58AE190E00E94072650
:101D60000E94A72D80E090E49093DB068093DA0632
:101D700080E090E69093E3068093E20680E098E4AA
:101D80009093DD068093DC0680E098E69093E5066C
:101D90008093E40680E090E59093DF068093DE0672
:101DA00080E090E79093E7068093E60680E098E570
:101DB0009093E1068093E00680E098E79093E9062F
:101DC0008093E80680E590E00E94A82D46E050E070
:101DD000B10189E090E00E94DE258BEB94E09A83CC
:101DE00089831B821C821D821E8244E050E0BE015A
:101DF0006D5F7F4F8FE090E00E94DE250E94A72D4F
:101E00000091030910910409D80192961D921D9228
:101E10001D921C929597F80116A217A210A611A662
:101E20009A961D921D921D921C929D9786E990E0B4
:101E3000A0E0B0E086AB97ABA0AFB1AFD80112AED7
:101E400013AE14AE15AE189686E0FD01282F119240
:101E50002A95E9F79801225F3F4F94E1F901119229
:101E60009A95E9F7F10101900D928A95E1F7280121
:101E7000F2E44F0E511CD2011C920E942A462FEC14
:101E800037E040E050E00E944146DC01CB01019682
:101E9000A11DB11DF80184839583A683B783808338
:101EA0009183A283B38398012D5B3F4F3E872D879B
:101EB000C9010E94823264E470E08D859E850E9493
:101EC0009732882309F4A8C20E94CF366B017C01A7
:101ED000612C712C198648EE842E43E0942EA12C9F
:101EE000B12CD2018C91833009F405C181111FC03E
:101EF000F80184819581A681B7810196A11DB11D4C
:101F000084839583A683B7830E94CF366C197D099D
:101F10008E099F09A50194010E946D46A90161E007
:101F2000C8010E94D61B81E0D2018C93C6C08430C8
:101F3000F9F4F80184819581A681B7810196A11DEC
:101F4000B11D84839583A683B7830E94CF366C1915
:101F50007D098E099F09A50194010E946D46A90182
:101F600063E0C8010E94D61BE2E0D201EC93A5C059
:101F7000813069F5D801DA964D915D916D917C9132
:101F8000DD979E012F5F3F4FC8010E94101A89877D
:101F9000823009F092C089819A81AB81BC81F801BD
:101FA00084839583A683B7830E94CF366C197D09FD
:101FB0008E099F09A50194010E946D46A90163E065
:101FC000C8010E94D61BE985D201EC937CC0823007
:101FD00009F073C0D801DA964D915D916D917C91B5
:101FE000DD979E012F5F3F4FC8010E94101A89871D
:101FF000853009F05CC023E0F2012083F80182A162
:1020000093A1A4A1B5A1892B8A2B8B2B41F424E8A1
:1020100033E040E050E022A333A344A355A3F801EA
:1020200086A197A1A0A5B1A5892B8A2B8B2B61F442
:1020300082A193A1A4A1B5A1B695A79597958795DF
:1020400086A397A3A0A7B1A7F80182A593A5A4A5ED
:10205000B5A5892B8A2B8B2BA9F482A193A1A4A1CE
:10206000B5A1AC01BD0123E07695679557954795DD
:102070002A95D1F7841B950BA60BB70B82A793A7C4
:10208000A4A7B5A7F80186A197A1A0A5B1A586A789
:1020900097A7A0ABB1AB82A593A5A4A5B5A582AB2C
:1020A00093ABA4ABB5AB66246394712C0CC0F985DB
:1020B000F63019F4D2011C9206C0B985BF3F19F45D
:1020C000F20110821986F1E06F16710409F409CF4C
:1020D0000E94CF36DC01CB018C199D09AE09BF09E6
:1020E000F80126A937A940AD51AD281739074A078D
:1020F0005B0708F0F6CE8D859E850E948232F8013E
:1021000084819581A681B7810196A11DB11D84832B
:102110009583A683B7830E94CF36F801FE9660832D
:10212000718382839383F1E06F16710409F056C0C6
:1021300080E590E00E94A82D609103097091040948
:10214000625F7F4FCE0101960E94A73544E050E0C8
:10215000BE016D5F7F4F8FE090E00E94DE256091B1
:102160000309709104096A5E7F4FCE0101960E94B7
:10217000A73544E050E0BE016D5F7F4F81E090E005
:102180000E94DE2560910309709104096E5E7F4F05
:10219000CE0101960E94A73544E050E0BE016D5F7C
:1021A0007F4F85E090E00E94DE250E94A72D609180
:1021B000030970910409625E7F4FCE0101960E946F
:1021C000A7358B819C81AD81BE818093FF08909360
:1021D0000009A0930109B093020903C0672809F41C
:1021E0001BC18A859B850E94E41C8111E4C0F1011A
:1021F000E455FF4F60817181D10157968D919C917B
:102200005897A255BF4FFC0120813181611571059E
:1022100041F04D915C91D9011E96ED91FC911F9773
:102220001AC0F901E484F5844D915C912BEB34E004
:102230003A832983D101AA55BF4F12960D911D9162
:102240002D913C9115970B831C832D833E83BE01FA
:102250006F5F7F4FF7011995F1018130910509F00A
:10226000A3C0E756FF4F9183808387E0ECEEF2E056
:10227000DE01119601900D928A95E1F7FE013196EB
:10228000D1015E967E0128E0E20EF11C81918D93D2
:10229000EE15FF05D9F782E0D10195968C939597BD
:1022A00096961C9296978FE097968C932FE030E04D
:1022B0008101075E1F4FA8016FE775E08A859B8546
:1022C0000E94191D9C0125503109A80160E18A85F1
:1022D0009B850E94331D0E94CF36F101E556FF4FCA
:1022E00060837183828393830A571F4FF801608351
:1022F000718382839383F1018789908DDC01ED9155
:10230000FC910480F581E02D1995892BF9F40E9448
:10231000CF36D8018D909D90AD90BC90DC01CB0163
:1023200088199909AA09BB0988399A43A105B105F9
:1023300010F3F101EE54FF4F8CEF9FEF91838083F8
:10234000D10157968D919C91589726C0B7018A85E7
:102350009B850E94A51D0497E1F4F101848D9101F4
:102360002E543F4F7901811110C00E94CF36D80101
:102370006D937D938D939C931397F101ED55FF4FD2
:102380001082F7011182108216C090E0D9018D935E
:102390009C93F1018789908DDC01ED91FC9102887D
:1023A000F389E02D199538C0EE54FF4F8EEF9FEF63
:1023B0009183808331C08A859B850E94E41C882399
:1023C00009F4E5CAF101E756FF4F8081918101963A
:1023D00011F481E090E09183808380819181F1010B
:1023E000968F878F8101075E1F4F27E030E0A8019D
:1023F00067E875E08A859B850E94191DF101E80F49
:10240000F91F118E9C0124503109A80162E88A85C8
:102410009B850E94331D8C878C852E960FB6F89471
:10242000DEBF0FBECDBFDF91CF911F910F91FF9007
:10243000EF90DF90CF90BF90AF909F908F907F9064
:102440006F905F904F903F902F900895FC012681F0
:102450003781620F731F848195818617970738F043
:102460008281938177836683820F931F089580E032
:1024700090E0089581E0089580E008954A960895D7
:102480000F931F93CF93DF931F92CDB7DEB78C01CD
:10249000AE014F5F5F4F69E875E00E94423DC801A1
:1024A0000F90DF91CF911F910F9108956F927F92BE
:1024B0008F929F92AF92BF92CF92DF92EF92FF9254
:1024C0000F931F93CF93DF9300D0CDB7DEB76C018E
:1024D0007B018A01DA01ED91FC910680F781E02D04
:1024E000CA011995AC01B701CE0101960E94803D49
:1024F0008A819B81F701238134812817390741F0B4
:10250000D60112969C938E93119713961C92F7C046
:10251000D801ED91FC910480F581E02DC801199559
:102520004C01F601128211821382D7011896ED91A7
:10253000FC91199719955C01F70101811281F7014E
:102540008381948180179107A9F0F801A481B58156
:10255000F701208531858D919C91F9011995B5017F
:102560000E944F05882331F0D80112960D911C91DD
:102570001397E5CF81E0F6018383D70113968D9100
:102580009C9114970817190709F065C0D701159693
:102590006D907C90169786E090E06114710431F59F
:1025A0000E94AD465C01FC011182108282E090E045
:1025B0000E94AD46DC018D929C92F5019583848347
:1025C000D7011296BC92AE921197F801B182A08207
:1025D000D50111961C921E9213961C930E9312977E
:1025E00081E090E0F701968385832AC00E94AD4682
:1025F0005C01DC011D921C9282E090E00E94AD46DD
:10260000FC0191828082D50115969C938E9314973C
:10261000F8018081918111969C938E9313961C935F
:102620000E9312970190F081E02DB382A282D8011F
:10263000AD92BC92BFEF6B1A7B0AF701768265827E
:10264000D7011396ED91FC91149780819181F60149
:102650009283818354C0F801A481B581F70120855C
:1026600031858D919C91F90119955C01D7011896DE
:10267000ED91FC911997C4011995B5010E944F0580
:102680008823A9F186E090E00E94AD465C01FC0140
:102690001182108282E090E00E94AD46DC018D92B2
:1026A0009C92F50195838483D8018D919C919183AF
:1026B000808313830283892B21F4F701B282A182E4
:1026C00005C0D801ED91FC91B382A282F801B182DC
:1026D000A082D70115968D919C911697019616961A
:1026E0009C938E931597F601B282A18208C0D60101
:1026F00013961C92139712961C930E931197C60172
:102700000F900F900F90DF91CF911F910F91FF903D
:10271000EF90DF90CF90BF90AF909F908F907F9081
:102720006F9008958F929F92AF92BF92CF92DF9257
:10273000EF92FF920F931F93CF93DF93CDB7DEB746
:1027400065970FB6F894DEBF0FBECDBF8C017B013D
:102750006A01FC01878490885C01FCE0AF0EB11C2B
:10276000AB01B501CE0101960E94EC398A819B81B3
:10277000065E1F4F8816990699F5AE014F5F5F4FB1
:1027800064E975E0CE0108960E94423DB701CE0192
:1027900008960E9409074AE955E0BE01685F7F4F2D
:1027A000CE010F960E94F93A45EB55E0B801CE01F3
:1027B00001960E94F93A0E94DF20AE01415F5F4F0F
:1027C000BE016F5F7F4F0E946D20CE0101960E9477
:1027D0004139CE010F960E944139CE0108962FC093
:1027E000B701C5010E942F3CB6010E9456394EEB3D
:1027F00055E0B801CE0101960E94F93A8E01015FC1
:102800001F4F2FEF3FEF40E050E0BE016F5F7F4F63
:10281000CE0108960E94B23AB701CE0108960E94F6
:1028200009070E94DF20A601BE01685F7F4F0E945A
:102830006D20CE0108960E944139CE0101960E947A
:10284000413965960FB6F894DEBF0FBECDBFDF915C
:10285000CF911F910F91FF90EF90DF90CF90BF909D
:10286000AF909F908F900895EF92FF920F931F93D8
:10287000CF93DF93CDB7DEB72A970FB6F894DEBFBC
:102880000FBECDBF7C0183E493E0D70111969C93EA
:102890008E9318961C921E92179786E090E0698797
:1028A0007A870E94AD46FC01118210821382128247
:1028B00015821482D70114969C938E9313971696C3
:1028C0009C938E93159783EE94E01B969C938E9326
:1028D0001A9752961C921E92519786E090E00E94A1
:1028E000AD46FC011182108213821282158214827D
:1028F000D7011E969C938E931D9750969C938E9312
:102900001F9787EC94E055969C938E935497F7010C
:10291000168A178A108E118E8E010F5F1F4F2FEFB0
:102920003FEF40E050E069857A85C7014A960E94F2
:10293000B23AAE01485F5F4F60EC75E0C8010E949B
:10294000423DB801C7010C960E942F3C6BEC75E02C
:102950000E94A339C8010E944139AE01485F5F4F10
:1029600061ED75E0C8010E94423DB801C7010296C1
:102970000E943B3B2DEA36E1DC0111963C932E93FD
:1029800013961C921E921297C8010E9441392A96F2
:102990000FB6F894DEBF0FBECDBFDF91CF911F9170
:1029A0000F91FF90EF900895EF92FF920F931F9376
:1029B000CF93DF93CDB7DEB7C656D1090FB6F894E3
:1029C000DEBF0FBECDBF80917307811192C11092FF
:1029D0006F0710926E0786E090E00E94AD46FC0102
:1029E00011821082138212821582148290936B07D7
:1029F00080936A0790936D0780936C0786EC94E050
:102A0000909372078093710767ED75E088EA99E00B
:102A10000E948C3A0E94723AAE014A595F4F6AEEA8
:102A200075E0CE01885A9F4F0E94423DBE01685A10
:102A30007F4FCE01019618DF8EED92E09A83898355
:102A40006FEE75E088EA99E00E948C3A0E94723A33
:102A5000AE014B595F4F68E076E0CE018F5A9F4F31
:102A60000E94423DAE014F5A5F4FBE016D5F7F4FE6
:102A7000CE018E599F4F0E945E38A596EEADFFADF8
:102A8000A5978E819F818E179F0751F06481758174
:102A9000CE018F5A9F4F0E94E539882309F472C0F6
:102AA0008E010E5D1F4F2FEF3FEF40E050E0BE0163
:102AB0006F5A7F4FCE01C8960E94B23A21961FAE40
:102AC0001EAE219723961FAE1EAE23970B851C8545
:102AD000BE01685C7F4FCE0182960E944D41BE01CF
:102AE0006E5D7F4FCE018D96F8011995AE01435D65
:102AF0005F4FBE016D5F7F4FCE01815A9F4F0E9495
:102B00005E38CE018D960E944139CE0182960E9498
:102B10004139A296AEADBFADA2978E819F81A81715
:102B2000B90709F078C088859985892B09F051C0CB
:102B300086E090E00E94AD468C01BE01685C7F4F4C
:102B40000E9435381D830C83EE81FF811183008341
:102B5000D80111961C921E921396FC93EE93129735
:102B600081E090E099878887EE81FF819081818163
:102B7000A4969FAFA497A5968FAFA597CE01C896B0
:102B80000E944139A596EEADFFADA5970480F58171
:102B9000E02D8DEC90E49087878312861186CE011C
:102BA0008F5A9F4F0E944139AE014F5F5F4F69E6D8
:102BB00077E0CE0182967ADCCE0101960E9415055F
:102BC000CE01885A9F4F0E94413981E0809373075C
:102BD00090C086E090E00E94AD468C01BE01685C2A
:102BE0007F4F0E943538EE81FF8180819181D8012D
:102BF00011969C938E931396FC93EE931297A0815B
:102C0000B18113961C930E931297118300838885CC
:102C100099850196A7CF0B851C8514966D917C91A3
:102C20001597CE0182960E944D41BE016E5D7F4F89
:102C3000CE018D5B9F4FF80119950B851C85BE0158
:102C4000685C7F4FCE018D960E944D41BE01635D51
:102C50007F4FCE01865B9F4FF8011995BE016D5BDA
:102C60007F4FCE01865B9F4F0E94E539182FCE0122
:102C7000865B9F4F0E944139CE018D960E9441395B
:102C8000CE018D5B9F4F0E944139CE0182960E94FA
:102C90004139A296EEACFFACA297112339F186E040
:102CA00090E00E94AD468C01BE01685C7F4F0E949F
:102CB0003538D7018D919C91F80191838083F382FF
:102CC000E282892B19F41D830C8305C0D701ED9195
:102CD000FC9113830283F701118300838885998512
:102CE000019699878887902F812F42CF9E2D8F2D17
:102CF0003FCF89E697E0CA59DF4F0FB6F894DEBFA1
:102D00000FBECDBFDF91CF911F910F91FF90EF903C
:102D100008950F931F93CF93DF938C01FC01C08123
:102D2000D181C130D10559F462817381611571057A
:102D300031F082E196E00E94FC47892B39F021971F
:102D4000229720F4F8018281938102C080E090E014
:102D5000DF91CF911F910F9108958F929F92AF9223
:102D6000BF92CF92DF92EF92FF920F931F93CF9378
:102D7000DF93CDB7DEB7C55FD1090FB6F894DEBFDC
:102D80000FBECDBF7C01CB019E01275F3F4F3C832F
:102D90002B8328EC30E03E832D8318861F8227EC9E
:102DA00034E03A8329830E948839009711F48DE535
:102DB00095E09E012F5F3F4FCF52DF4F398328832D
:102DC000C15DD040CD52DF4F99838883C35DD04031
:102DD000CB52DF4F39832883C55DD0408AE0C9528A
:102DE000DF4F8883C75DD040CE018F529F4F0E9436
:102DF0003A07DC0112960D911C9113975701BCE024
:102E0000AB0EB11C6701EAE1CE0ED11C0115110514
:102E100009F49EC0C80104967CDFAE014B505F4FA1
:102E2000BC01CE0183519F4F0E94423DD8011296B2
:102E30006D917C911397AE014C505F4FCE018A513A
:102E40009F4F0E94423DF70187849088AE014A510E
:102E50005F4FB501CE018F529F4F0E94EC39CE5289
:102E6000DF4F88819981C25DD04088169906A9F408
:102E7000AE014F525F4F64E975E0CE0188529F4F1B
:102E80000E94423DBE016A517F4FCE0188529F4F42
:102E90000E9409074AE955E024C0D701ED91FC9151
:102EA0000484F585E02DAE0143515F4FBE016A51A8
:102EB0007F4FC701199581113DC0AE014F525F4F41
:102EC00064E975E0CE0188529F4F0E94423DBE01E9
:102ED0006A517F4FCE0188529F4F0E94090747E1F8
:102EE00056E0BE0168527F4FCE018F529F4F0E9425
:102EF000F93A45EB55E0B601CE0181529F4F0E9451
:102F0000F93A0E94DF20AE014F525F4FBE0161527D
:102F10007F4F0E946D20CE0181529F4F0E94413908
:102F2000CE018F529F4F0E944139CE0188529F4F50
:102F30000E944139CE018A519F4F0E944139CE01F2
:102F400083519F4F0E944139F801008111815ECF6A
:102F5000CB50DF4F0FB6F894DEBF0FBECDBFDF9171
:102F6000CF911F910F91FF90EF90DF90CF90BF9086
:102F7000AF909F908F900895DB01109749F0ED91ED
:102F8000FC9111970190F081E02DBC01CD011994C5
:102F900080E090E00895AF92BF92CF92DF92EF92DF
:102FA000FF920F931F93CF93DF931F92CDB7DEB79E
:102FB0007C018B0183E493E0D7018D939C935701AF
:102FC000B3E0AB0EB11CF7011086178286E090E0EB
:102FD0000E94AD46FC01118210821382128215827A
:102FE0001482D70114969C938E93139716969C93F4
:102FF0008E931597F801C380D480D80115968D91D2
:103000009C911697C816D90661F0D60114966D9159
:103010007C911597C5010E945E08F601C280D3809D
:10302000ECCF1A968D919C911B97F701938782871D
:103030005701FDE0AF0EB11CD70152961C921E92B3
:10304000519786E090E00E94AD46FC01118210820B
:103050001382128215821482D7011E969C938E933E
:103060001D9750969C938E931F97F801C584D68424
:10307000D8011F968D919C915097C816D90661F082
:10308000D60114966D917C911597C5010E94600937
:10309000F601C280D380ECCF54968D919C915597C8
:1030A000F701958B848B56968D919D910D90BC91D7
:1030B000A02D868B978BA08FB18FB801665E7F4F56
:1030C0008E010F5F1F4F2FEF3FEF40E050E0C70131
:1030D0004A960E94B23A0F90DF91CF911F910F91C3
:1030E000FF90EF90DF90CF90BF90AF9008950F9337
:1030F0001F93CF93DF938C0181E290E00E94AD4655
:10310000EC01B80148DF8EED92E099838883CE010F
:10311000DF91CF911F910F910895CF93DF93EC0131
:10312000E881F9810288F389E02D19958F3F2FEF0F
:10313000920731F02D813E812F5F3F4F3E832D83DB
:10314000DF91CF9108958FEF9FEF089560E070E0D9
:10315000CB01089580E090E00895CB010895CF93CE
:10316000DF93EC0188899989DC01ED91FC91048061
:10317000F581E02D1995892B59F088899989DC0111
:10318000ED91FC910680F781E02DDF91CF911994AC
:103190008FEF9FEFDF91CF910895CF93DF93EC01F5
:1031A00088899989DC01ED91FC910480F581E02DFD
:1031B0001995892B59F088899989DC01ED91FC9149
:1031C0000084F185E02DDF91CF9119948FEF9FEF6F
:1031D000DF91CF910895AF92BF92CF92DF92EF929D
:1031E000FF920F931F93CF93DF9300D01F92CDB721
:1031F000DEB78C015B01C12CD12C7601F8018089EE
:103200009189DC01ED91FC910680F781E02D298305
:103210003A834B835C83199529813A814B815C8188
:103220008F3F71F0C216D306E406F5064CF4D501C3
:103230008D935D01BFEFCB1ADB0AEB0AFB0ADECFF1
:10324000C701B6010F900F900F900F90DF91CF91B3
:103250001F910F91FF90EF90DF90CF90BF90AF90B4
:103260000895DC0150968D919C915197DC01ED9170
:10327000FC910480F581E02D199480E090E00895A0
:1032800080E090E00895089580E090E00895CB01FB
:10329000089580E090E00895CF92DF92EF92FF9240
:1032A0000F931F93CF93DF93EC018B010E94CF36D6
:1032B0006B017C0188819981DC01ED91FC91048096
:1032C000F581E02D1995892B79F40E94CF36AB0159
:1032D000BC014C195D096E097F0948395A436105E3
:1032E000710540F380E00CC088819981DC01ED918B
:1032F000FC910680F781E02D1995F801808381E02B
:10330000DF91CF911F910F91FF90EF90DF90CF90C1
:1033100008950F931F93CF93DF938C01EB016F3FC1
:103320008FEF780719F480E090E00FC06A3031F435
:103330006DE0F801808991890E94BF046C2FF8012B
:10334000808991890E94BF04CE01DF91CF911F91A6
:103350000F9108958F929F92BF92CF92DF92EF923A
:10336000FF920F931F93CF93DF9300D01F92CDB79F
:10337000DEB78C014B01C12CD12C7601C216D306CD
:10338000E406F50644F5F401B1904F01FAE0BF12EE
:103390000EC06DE0F8018089918929833A834B83BF
:1033A0005C830E94BF045C814B813A8129816B2D33
:1033B000F8018089918929833A834B835C830E9439
:1033C000BF04FFEFCF1ADF0AEF0AFF0A5C814B81CF
:1033D0003A812981D3CFCA01B9010F900F900F9084
:1033E0000F90DF91CF911F910F91FF90EF90DF90A1
:1033F000CF90BF909F908F9008950C9442470C946B
:103400004247089508950C944247DC01ED91FC91E8
:10341000369720813181820F931FF5CF0C9442475C
:103420002F923F924F925F926F927F928F929F92D4
:10343000AF92BF92CF92DF92EF92FF920F931F93C2
:10344000CF93DF93CDB7DEB7E3970FB6F894DEBF27
:103450000FBECDBF7C011A012B0139010E94CF366E
:103460004B015C0187010D5B1F4FC8010E940D27B6
:1034700018161906A4F00E94CF36DC01CB0188197A
:103480009909AA09BB09281639064A065B06D8F02D
:1034900062E370E080E090E00E949736E6CF42E27F
:1034A00050E0BE016F5F7F4FC8010E94C72689812F
:1034B000823011F080E061C1F801848995898334FC
:1034C0009105C1F702C08FEF58C16D817E818F8158
:1034D00098850E94A6464B015C01F30160837183CD
:1034E0008283938346E050E0B701685F7F4FCE014F
:1034F0004D960E94DE47892BE9F6F7018081918184
:10350000A281B38188169906AA06BB0698F2848127
:103510009581A681B78188159905AA05BB0550F24A
:1035200089899A89AB89BC8986879787A08BB18B5B
:103530008EECA82EB12CC8010E94E526F1E0AF1A4E
:10354000B108C9F719A6670182E2C80ED11CF701BC
:10355000B696FBA7EAA7C7018A969DA78CA73C97BA
:103560004F0189969FA78EA73897F9ABE8AB170153
:10357000F6E12F0E311CC5979BAB8AABF801818D0C
:10358000928D181619060CF0F7C0C8010E94E526A6
:103590008333910509F4CBC0FCF481309105C9F166
:1035A0001CF4892B59F3DCC083309105D1F10697C7
:1035B00009F0D6C0C8010E94E5265C0144E050E055
:1035C0006AA97BA9C8010E94C726412C512CBB24A3
:1035D000F4E0AF1AB10840C08A33910509F47BC00A
:1035E0003CF48533910569F0C69709F440C0B8C032
:1035F0008B33910509F485C08F3F910509F4BECF47
:10360000AFC0C8010E94E526C8010E94E52689A72F
:10361000B5CFC8010E94E52644E050E068A979A929
:103620003AC0C8010E94E5265C0144E050E0B101C7
:10363000C8010E94C726412C512CBB2494E0A91A32
:10364000B1084A145B040CF099CFC8010E94E5262A
:10365000EFEF4E1A5E0AF5CF4A145B040CF08ECFE2
:10366000C8010E94E5268FEF481A580AF5CFC80115
:103670000E94E526B82EF701828D811110C0838D3E
:1036800081110DC0848D81110AC0858D811107C003
:1036900044E050E0B401C8010E94C7266FCFEEA5F8
:1036A000FFA54080518062807380B401CE01839673
:1036B0000E94A7358DA19EA1AFA1B8A5841595053F
:1036C000A605B70529F3BB2009F458CFC8010E940D
:1036D000E526BA94F8CFC8010E94E52644E050E000
:1036E0006AA57BA5C8010E94C726F70166A177A13C
:1036F00080A591A50E94A64666A377A380A791A75F
:103700003DCFC8010E94E52644E050E06CA57DA5B0
:10371000C8010E94C726F70162A573A584A595A5D7
:103720000E94A64662A773A784A795A727CFC801C2
:103730000E94E52644E050E0B601C8010E94C72679
:10374000F70162A173A184A195A10E94A64662A37C
:1037500073A384A395A366A777A780AB91AB0ECF85
:10376000C8010E94E526B82EBB2009F407CFC80186
:103770000E94E526BA94F8CF89A5E3960FB6F8948F
:10378000DEBF0FBECDBFDF91CF911F910F91FF9094
:10379000EF90DF90CF90BF90AF909F908F907F90F1
:1037A0006F905F904F903F902F9008957F928F92EF
:1037B0009F92AF92BF92CF92DF92EF92FF920F93C0
:1037C0001F93CF93DF93CDB7DEB7A6970FB6F894CC
:1037D000DEBF0FBECDBF8C01762E942E852E20E24B
:1037E000B22ECE0101967C01FC012B2D11922A955F
:1037F000E9F78BEB94E09AA389A38FEF8BA38CA3BB
:103800008DA38EA3680183E4C80ED11C43E450E06D
:10381000BE016F5D7F4FC6010E947C33019609F4A3
:10382000BFC081E089838A8386E0A82EAB821C8298
:10383000F80164817581868197810E94A6466D8317
:103840007E838F83988789869A8680E890E09C871C
:103850008B874CE150E0B701C6010E94DA31F701D5
:103860002B2D11922A95E9F7480188E0880E911CCA
:10387000F401D70101900D92AA94E1F740E150E0E4
:10388000B701C6010E94DA31F7011192BA94E9F743
:1038900096E0A92EB12C40E250E0B701C6010E948B
:1038A000DA31F1E0AF1AB108B1F783E6898392E823
:1038B0009A8393E59B838C8385E38D8381E08E835C
:1038C0007F829DE3988797E099878A8786E0F40155
:1038D000DE011B9601900D928A95E1F78CE0898BB1
:1038E0008A8B6FE276E0CE0143960E940548F8018C
:1038F0004385BE01675E7F4FC8010E947A31F8019F
:103900004485BE01655E7F4FC8010E947A31F8018F
:103910004585BE01635E7F4FC8010E947A314EE14A
:1039200050E0B701C6010E94DA31F3E07F121EC0F9
:1039300082E3898384E08A83F80196859B83978557
:103940009C8390899D8391899E8396E39F8388873A
:10395000828D8987838D8A87848D8B87858D8C87DF
:103960004CE050E0B701C6010E94DA3187E3898359
:1039700086E08A8391E09B8393E09C838D838FE034
:103980008E838AE38F838BE388878FEF898749E073
:1039900050E0B701C6010E94DA31C6010E943E33F1
:1039A000A6960FB6F894DEBF0FBECDBFDF91CF91C4
:1039B0001F910F91FF90EF90DF90CF90BF90AF904D
:1039C0009F908F907F900895CF93DF93FC01A0810B
:1039D000B181109741F1EC01ED91FC9111970488B0
:1039E000F589E02DCD01199581111FC0FE01E55625
:1039F000FF4F80819181892BB1F48DEF9FEF9183EF
:103A0000808388819981DC01ED91FC910284F385AA
:103A1000E02D199588819981DC01ED91FC91028856
:103A2000F389E02D199580E001C081E0DF91CF910D
:103A30000895C9010296DB01FD01E61BF70B2D91EC
:103A4000222331F0FA01E80FF91F20830196F4CF09
:103A50009C012E1B3F0B420F531FDA011297FC9360
:103A60001196EC930895AF92BF92CF92DF92EF92AE
:103A7000FF920F931F93CF93DF9300D01F92CDB788
:103A8000DEB77C01162FD90180E09A2F9F77AA0F0D
:103A9000AB2FAA1FBB0BB195109709F09068E1E01E
:103AA000F0E0EC0FFD1FE80FF11D90838F5F109782
:103AB00061F7E82FF0E0BA016E1B7F0B6C5F7F4F60
:103AC000DB011C93CE0101965C0180E090E08E1733
:103AD0009F076CF4D501DD905D018C010E1B1F0B5F
:103AE000040F151FD8011596DC920196F0CFD7016F
:103AF0008D919C9189010F5F1F4F0E0F1F1FDC01DD
:103B0000ED91FC910280F381E02DA80119956C01E3
:103B10000E94CF36F701EC57FF4F60837183828399
:103B2000938381E0C016D10609F080E00F900F90DA
:103B30000F900F90DF91CF911F910F91FF90EF9019
:103B4000DF90CF90BF90AF9008952F923F924F9209
:103B50005F926F927F928F929F92AF92BF92CF921D
:103B6000DF92EF92FF920F931F93CF93DF9300D0DA
:103B70001F92CDB7DEB78C015B017C0142E0E40E01
:103B8000F11CB70189DB811129C025C05FEF451AFF
:103B9000550A8981D1018D931D01682F6F7770E0DF
:103BA000669DF001679DF00D769DF00D1124CE0EFF
:103BB000DF1E47E0660C771C881C991C4A95D1F7DC
:103BC00087FF1EC0BE016F5F7F4FC8012C8364DB7F
:103BD0002C818111DBCF80E090E09BC0D801129650
:103BE0002C9119821801B3E02B0E311C442443940C
:103BF000512CC12CD12C612C712C43016394E2CF48
:103C0000822F807F33243394803309F0312C8FEF5F
:103C1000840DF5018083332039F1B701640D751DE2
:103C2000C8013ADB8823B9F2B2016F5F7F4F6E0D96
:103C30007F1DC80131DB882371F2F2E04F0E511C69
:103C4000D5018C91F801E80FF11D6380712C762C61
:103C500066248481680E711CF801828181FF08C08E
:103C6000F2E06F0E711C04C080E0612C712C01C069
:103C700082E0E82EF12CE418F508A80147565F4FC2
:103C80005B834A832EEF822E99249A94C701840D78
:103C9000951D8C159D0580F5BE016F5F7F4FC80196
:103CA000FBDA882309F497CFAA81BB818D919C917F
:103CB0000097A9F0332099F0F5012081A401421B5F
:103CC00051099A01240D351D6216730640F4DC017A
:103CD000ED91FC910190F081E02D69811995B0E89A
:103CE0004B16510428F48981F801E40DF51D8283F7
:103CF000EFEF4E1A5E0ACACFF801E756FF4F8081F8
:103D00009181892B29F4F1E84F16510408F063CF13
:103D1000C2010F900F900F900F90DF91CF911F91E4
:103D20000F91FF90EF90DF90CF90BF90AF909F905A
:103D30008F907F906F905F904F903F902F9008955D
:103D400008951F93CF93DF93EC01162F8F8580FF8B
:103D50000BC0E881F9810084F185E02D20E144E089
:103D600060E070E0CE011995EB85FC852D853E85E0
:103D7000812F90E0E217F30758F410832B853C85E0
:103D80002F5F3F4F3C872B87DF91CF911F91089585
:103D9000E881F981028CF38DE02DBC01CE01DF9129
:103DA000CF911F911994AF92BF92CF92DF92EF9271
:103DB000FF920F931F93CF93DF9300D01F92CDB745
:103DC000DEB78C015B01C12CD12C7601C216D30663
:103DD000E406F506ACF4F50161915F01C8012983A1
:103DE0003A834B835C83ADDF29813A814B815C81CF
:103DF000019649F06FEFC61AD60AE60AF60AE6CF30
:103E0000B901CA0102C0B601C7010F900F900F900F
:103E10000F90DF91CF911F910F91FF90EF90DF9066
:103E2000CF90BF90AF9008950895FB01208131811C
:103E3000FC0131832083FB0142815381F9013697D4
:103E400020813181FC01E20FF31F518340830895EB
:103E500021EA34E0FC01318320832BEA34E0358B06
:103E6000248B61EB74E0E1CFDC01ED91FC9136979E
:103E700020813181820F931FEBCFCF93DF93EC0131
:103E8000E7DFCE01DF91CF910C944247DC01ED9149
:103E9000FC91369720813181820F931FEECFDB0199
:103EA0002D913C911197FC0131832083F9013697C4
:103EB00020813181FC01E20FF31F12968D919C91BC
:103EC00013979183808381E290E094838383548B62
:103ED000438B1582158A089508950F931F93CF93EE
:103EE000DF938C018AE290E00E94AD46EC01B801BC
:103EF00052D888E0F801B196DE01919601900D92BA
:103F00008A95E1F7F80181A589A78AE792E099836C
:103F10008883CE01DF91CF911F910F91089508956D
:103F200008950C944247DC01ED91FC913697208175
:103F30003181820F931FF5CFFB0120813181FC017C
:103F400031832083FB0142815381F901369720811F
:103F50003181FC01E20FF31F518340830895DB019F
:103F60002D913C911197FC0131832083F901369703
:103F70000190F081E02DE80FF91F12962D913C91F0
:103F8000139731832083DC0112961D921D921D929E
:103F90001C92159781E290E094838383548B438B2A
:103FA0001582158A08950F931F93CF93DF938C0189
:103FB000EB0188819981F801918380832A853B8573
:103FC000FC0136970190F081E02DE00FF11F318365
:103FD00020838C859D85F801978386836A5F7F4F58
:103FE000C801069622DFBE016E5F7F4FC801DF91D8
:103FF000CF911F910F91A0CFCF93DF93EC0183E975
:1040000093E09983888387EA93E0998788878DE98D
:1040100093E09F838E8365E873E0CE01069605DF0B
:1040200061E873E0CE01DF91CF9186CF0697E4CFB0
:10403000DC01ED91FC91369720813181820F931F35
:10404000DBCFCF93DF93EC01D7DFCE01DF91CF91B0
:104050000C9442470697F5CFDC01ED91FC91369721
:1040600020813181820F931FECCFCF93DF93EC013E
:104070008EEA92E09983888382EC92E09CA38BA3E2
:1040800088EB92E09F838E83CE0108960E940529DB
:1040900068EC72E0CE01DF91CF9185CF0697E5CF36
:1040A000DC01ED91FC91369720813181820F931FC5
:1040B000DCCFCF93DF93EC01D8DFCE01DF91CF913E
:1040C0000C9442470697F5CFDC01ED91FC913697B1
:1040D00020813181820F931FECCF8F929F92AF92FC
:1040E000BF92CF92DF92EF92FF920F931F93CF93E5
:1040F000DF937C01EB018A010E94550C882309F4AF
:1041000051C0C8010E9488398C01CE010E948839B3
:104110004C01670187E1C80ED11CE801099000201D
:10412000E9F72197C01BD10BC6014EDC8823D1F1E2
:10413000F40101900020E9F73197E819F909CE015F
:104140000796E80FF91FE138F10560F5570189E19D
:10415000A80EB11C25E030E0A501B401C60169DC60
:10416000F801DC015996AE0DBF1D98012C0F3D1FC3
:10417000E217F30719F041914D93FACF25979E016D
:10418000280F391FA50160E3C601DF91CF911F9170
:104190000F91FF90EF90DF90CF90BF90AF909F90E6
:1041A0008F9061CCDF91CF911F910F91FF90EF9095
:1041B000DF90CF90BF90AF909F908F9008958091A7
:1041C0002F0881115EC086E0E1E5F3E0ABE7B7E0E0
:1041D00001900D928A95E1F730EC3093810728EA3F
:1041E0002093820781E08093830799EC9093840762
:1041F000109288071092870748EE53E060E070E065
:104200004093890750938A0760938B0770938C07BC
:1042100041EC53E0509386074093850744E0409378
:1042200091074BEB54E050932208409321084FEF45
:104230005FEF50932E0840932D083093230820936E
:10424000240880932508909326082BE537E03093C7
:104250002A082093290810922808109227082EED8A
:104260003DE33093200820931F0825E837E0309382
:1042700093072093920710922C0810922B0880939A
:104280002F088BE797E00895DC0113968D919C91A0
:104290001497892B59F01596ED91FC911697179666
:1042A0008D919C911897E817F90741F4ED91FC91D5
:1042B00011970488F589E02DCD0119948191169606
:1042C000FC93EE93159790E00895DC0113968D9181
:1042D0009C911497892B59F01596ED91FC911697A6
:1042E00017968D919C911897E817F90741F4ED9175
:1042F000FC9111970288F389E02DCD0119948081FA
:1043000090E00895EF92FF920F931F93CF93DF9366
:104310001F92CDB7DEB78C017B01DB01ED91FC91E3
:1043200036970190F081E02DE60FF71F8189928981
:10433000009721F049830E943A0A498141111BC02C
:10434000D701ED91FC9136970190F081E02DEE0DB3
:10435000FF1D83899489B9DF8F3FBFEF9B07B1F4BD
:10436000D701ED91FC9136978081918162E08E0DAD
:104370009F1D0E947A0681E0F80180830F90DF91F3
:10438000CF911F910F91FF90EF9008950E943646B4
:10439000892B89F3D701ED91FC9136970190F0813B
:1043A000E02DEE0DFF1D838994896EDFC9CFEF925A
:1043B000FF920F931F93CF93DF93EC018B017A0150
:1043C0006E5F7F4FCCDDB8016A5F7F4FA701CE01E2
:1043D000069665DDF8018081918199838883228525
:1043E0003385FC0136970190F081E02DEC0FFD1F25
:1043F00031832083F801848595859F838E83DF91A7
:10440000CF911F910F91FF90EF900895DC0128E06C
:1044100030E080E090E0F90153E0F695E7955A9599
:10442000E1F7EA0FFB1F4081042E000C550BB90188
:104430006770772702C0559547956A95E2F740FD6A
:104440000196880F991F2150310929F72C9120FDE1
:10445000019608950F931F93CF93DF93EB0109907B
:104460000020E9F72197C61BD70BFC0104811581B9
:10447000AE010C171D0708F4A801FC018081918191
:104480000E940C48892B39F40C171D0720F081E09D
:10449000C017D10708F480E0DF91CF911F910F91F1
:1044A00008950F931F93CF93DF93CDB7DEB728976F
:1044B0000FB6F894DEBF0FBECDBF8C01AE01485FD2
:1044C0005F4FCE0101960E94423DBE016F5F7F4F5C
:1044D000C8010E940F0A8C01CE0101960E94413949
:1044E00081E0012B09F480E028960FB6F894DEBF36
:1044F0000FBECDBFDF91CF911F910F910895CF9245
:10450000DF92EF92FF920F931F93CF93DF93CDB77C
:10451000DEB7C055D1090FB6F894DEBF0FBECDBFD0
:104520007C01AB018E01085B1F4FD8011D921D92CB
:104530001D921C921397BC01645F7F4FCE01845B78
:104540009F4F0E94EC392F96EEADFFAD2F97D7010C
:104550001F968D919C9150978E179F0731F4F8010B
:10456000C080D180E280F38062C164817581695F1F
:104570007F4FCE0101960E94F40340E0BE016F5FC1
:104580007F4FCE01CA96BEDEBE01665C7F4FCE0174
:104590008F5B9F4F0E944639E981FA8136970190DF
:1045A000F081E02D23E030E02C0F3D1FE20FF31FE0
:1045B0008181BE01615B7F4F85FF35C0CE01CA9608
:1045C0000E944639E981FA8136970190F081E02D09
:1045D00081E090E08C0F9D1FE80FF91F838994897B
:1045E00074DE7C019FEFE916F90609F460C0C7018B
:1045F0000E943646892B09F05AC0C701C0970A9716
:1046000088F1C7018D7F8C9769F1ADE2EA16F1045C
:1046100029F0BBE2EB16F10409F049C08EAD9FAD65
:10462000892B01F144C0CE01CA960E944639E98126
:10463000FA8136970190F081E02D21E030E02C0FD7
:104640003D1FE20FF31F838994893FDE7C018F3F7A
:104650003FEF930709F453C00E943646892B09F4B3
:104660009FC04DC0E981FA8136970190F081E02D1D
:1046700021E030E02C0F3D1FE20FF31F8389948966
:1046800003DEC70101978F3F910578F46196EFAE85
:1046900061976EAD7FAD6F5F7F4FAE01405B5F4F47
:1046A000CE01CA960E94D0068DCFE12CEFCF8EAD01
:1046B0009FAD892B71F4E981FA81369780819181D0
:1046C00066E0E1E0F0E0EC0FFD1F8E0F9F1F0E94FF
:1046D0007A06BE01665C7F4FCE018F5B9F4F0E94C2
:1046E0005639CE01CA960E944139CE018F5B9F4F49
:1046F0000E9488391F930F9326E336E037C08EADB2
:104700009FAD892B71F4E981FA813697808191817F
:1047100066E0A1E0B0E0AC0FBD1F8A0F9B1F0E94B6
:104720007A06BE01665C7F4FCE018F5B9F4F0E9471
:104730005639CE01CA960E944139E981FA813697ED
:104740000190F081E02D23E030E02C0F3D1FE20FBF
:10475000F31F8181928186FF48C0CE018F5B9F4FFE
:104760000E9488391F930F9329E635E03F932F93DA
:104770009F938F930E9456480F900F900F900F9029
:104780000F900F90CE018F5B9F4F0E944139D8014F
:10479000CD90DD90ED90FC90CE01019666DC47C097
:1047A000E981FA8136970190F081E02D81E090E077
:1047B0008C0F9D1FE80FF91F8389948965DDC70160
:1047C00001978F3F910578F46096EFAE60976EADDC
:1047D0007FAD6F5F7F4FAE01415B5F4FCE01CA96E9
:1047E0000E94D00624CFE12CEFCF87FF16C095FFA3
:1047F0000AC0CE018F5B9F4F0E9488391F930F9391
:1048000027E735E0B3CFCE018F5B9F4F0E948839F9
:104810001F930F932BE735E0A9CFCE018F5B9F4FFE
:104820000E9488391F930F932AE336E09FCFC70178
:10483000B601C05BDF4F0FB6F894DEBF0FBECDBF31
:10484000DF91CF911F910F91FF90EF90DF90CF906C
:1048500008958F929F92AF92BF92CF92DF92EF9284
:10486000FF920F931F93CF93DF93CDB7DEB72897B7
:104870000FB6F894DEBF0FBECDBF8C010E94CF36BD
:10488000F801C688D788E08CF18C9B01AC012C190B
:104890003D094E095F0969017A01AE01485F5F4F2A
:1048A00060EC75E0CE0101960E94423DBE016F5F53
:1048B0007F4FC80124DE4B015C01CE0101960E94AE
:1048C0004139C814D904EA04FB0478F00E94CF36B9
:1048D000F801668B778B808F918F6EE376E088EAA4
:1048E00099E00E948C3A0E94723A80E028960FB6B6
:1048F000F894DEBF0FBECDBFDF91CF911F910F9116
:10490000FF90EF90DF90CF90BF90AF909F908F90EF
:104910000895CF93DF93DC011C92E0E0F0E0C1E06A
:10492000D0E02C91CB010E2E02C0969587950A946B
:10493000E2F780FF0DC0022E000C330BAE010E2EED
:1049400002C0440F551F0A94E2F7242B352B0FC0E9
:10495000CE010E2E02C0880F991F0A94E2F78095AF
:104960009095422F220F550B9C01242335232C9325
:104970003196E830F105A9F6DF91CF9108950895B9
:104980001F93CF93DF93182F66E270E00E941833D5
:10499000C82FD0E067E270E0812F0E941833DC2F2F
:1049A000CC279E01282BC901DF91CF911F9108953B
:1049B0000F931F93CF93DF93EC0183E493E09983EC
:1049C000888363E576E088EA99E00E948C3A0E9449
:1049D000723ACE014A960E94413989899A89ED85B9
:1049E000FE85892B29F10280F381E02DFE87ED877A
:1049F0000190F081E02D048115810115110531F040
:104A0000C8010E94DC39C8010E944247ED85FE853D
:104A100080819181009711F00E944247ED85FE85CB
:104A20001182108289899A8901979A8B898BD5CFB7
:104A3000048115810115110531F0C8010E94DC398E
:104A4000C8010E9442478D859E85009739F10E94DA
:104A5000424724C00280F381E02DFC83EB83019068
:104A6000F081E02D048115810115110531F0C80197
:104A70000E944139C8010E944247EB81FC8180813C
:104A80009181009711F00E944247EB81FC811182D5
:104A900010828F819885019798878F838F81988561
:104AA000EB81FC81892BB1F604811581011511057B
:104AB00031F0C8010E944139C8010E9442478B81F0
:104AC0009C81009731F0DF91CF911F910F910C9451
:104AD0004247DF91CF911F910F910895CF92DF92BE
:104AE000EF92FF920F931F93FB01DC0100E010E0B7
:104AF00098016A01E12CF12C0C151D052E053F05CE
:104B000038F461916D930F5F1F4F2F4F3F4FF4CFDC
:104B1000840F951F1F910F91FF90EF90DF90CF9022
:104B200008952C9A08952C9808951F93CF93DF939E
:104B3000182F60E270E00E941833C82FD0E061E2C5
:104B400070E0812F0E941833DC2FCC279E01282B88
:104B5000C901DF91CF911F9108958EBD00000DB462
:104B600007FEFDCF8EB50895CF92DF92EF92FF92B0
:104B70000F931F93CF93DF93EC017A018B016C01AC
:104B8000C40ED51ECC15DD0579F0CDDF8FE0E5DF55
:104B90008D2FE3DF8C2FE1DF219680E0DEDFF8014F
:104BA00081938F01BEDFEECFC701DF91CF911F91BF
:104BB0000F91FF90EF90DF90CF900895CF92DF920A
:104BC000EF92FF920F931F93CF93DF93EC017A0143
:104BD0008B016C01C40ED51ECC15DD0571F0A3DF71
:104BE00080EFBBDF8D2FB9DF8C2FB7DF2196F80167
:104BF00081918F01B2DF95DFEFCFC701DF91CF91B8
:104C00001F910F91FF90EF90DF90CF9008951F9329
:104C1000CF93DF931F921F92CDB7DEB7182F6A8311
:104C2000998381DF80EF99DF9981892F96DF812F2A
:104C300094DF6A81862F91DF74DF81E00F900F90FF
:104C4000DF91CF911F9108951F93CF93DF931F9210
:104C50001F92CDB7DEB7182F80E590E069837A8385
:104C600077D721E041E050E069817A81812F0E946D
:104C700009026DD781E090E00F900F90DF91CF9106
:104C80001F910895CF93DF931F92CDB7DEB7FC013C
:104C9000218D328D232B41F0BE016F5F7F4F808DC0
:104CA000D3DF898190E002C08FEF9FEF0F90DF91FB
:104CB000CF910895FF920F931F93CF93DF93F82E18
:104CC00080E590E045D7C0E0D0E08F2D59DE8C0123
:104CD000892B19F08F2D54DEEC01C017D107A9F7ED
:104CE00036D7CE01DF91CF911F910F91FF9008959C
:104CF000AF92BF92CF92DF92EF92FF921F93CF932A
:104D0000DF93182F5B017A0180E590E021D7C0E0A6
:104D1000D0E0812F35DE6C01892B19F0812F30DE38
:104D2000EC01CC15DD05A9F7209799F463E070E05C
:104D3000812F0E9418338431F1F08823E1F0C1E023
:104D4000D0E08C3111F4C0E0D0E0D195C195D1090B
:104D500012C0EC16FD060CF4E7011C161D065CF4EF
:104D600020E0AE01B501812F0E94090260E470E0ED
:104D7000812F0E94F901EBD6CE01DF91CF911F91D7
:104D8000FF90EF90DF90CF90BF90AF900895CF93BA
:104D9000DF93FC01218D328D2115310519F48FEF40
:104DA0009FEF10C0EC014217530708F0A901888D4E
:104DB0009FDF181619069CF7298D3A8D281B390B91
:104DC0003A8F298FDF91CF9108950F931F93CF933F
:104DD000DF931F92CDB7DEB7FC01218D328D232BDF
:104DE00059F08C0141E050E0BE016F5F7F4F808D34
:104DF0007FDF181619061CF08FEF9FEF08C0F8012F
:104E0000818D928D0197928F818F898190E00F9093
:104E1000DF91CF911F910F9108950F931F93CF931F
:104E2000DF93CDB7DEB728970FB6F894DEBF0FBE7D
:104E3000CDBF8C01F801818D928D892B49F0D8016D
:104E4000ED91FC910680F781E02DC8011995F2CF14
:104E5000808D30DF1816190654F548E050E0BE0189
:104E60006F5F7F4FD80158968C9142DF9C011816D6
:104E70001906DCF489819A81AB81BC81F801808BB1
:104E8000918BA28BB38B8D8190E0982F88272E81F8
:104E9000820F911D958B848B2F8130E0322F22273A
:104EA0008885280F311D328F218FC90102C080E013
:104EB00090E028960FB6F894DEBF0FBECDBFDF910D
:104EC000CF911F910F910895CF93C82F80E590E067
:104ED0003FD660E170E08C2F0E94F9014FEF62E055
:104EE00070E08C2F0E940E33CF9131C6FF920F934A
:104EF0001F93CF93DF931F921F92CDB7DEB7F82E8B
:104F00008A012A836983E0DF80E590E021D62A8147
:104F10006981462F422B60E070E08F2D0E940E3396
:104F20000115110551F400913708109138080F5FF1
:104F30001F4F1093380800933708412F64E070E04A
:104F40008F2D0E940E33402F65E070E08F2D0E9460
:104F50000E3361E070E08F2D0E94F901F8D581E0F9
:104F60000F900F90DF91CF911F910F91FF900895B7
:104F7000BF92CF92DF92EF92FF920F931F93CF9346
:104F8000DF9300D000D0CDB7DEB7FC01208D2430F8
:104F900009F050C06A017B018C01B12C63E070E024
:104FA0008B2D0E941833811103C0F801B08E06C00A
:104FB0008831D9F3B394F4E0BF12F0CFF801808DBB
:104FC0008430C1F196E0E1EEF3E0DE01119601904C
:104FD0000D929A95E1F7F70193819F779C839481D5
:104FE0009D8395819E83B7016E5F7F4F90E0982FE0
:104FF000882744E050E0845F9B4FE0DDB601F80174
:10500000808D0E946D33F801808D90E0982F882765
:1050100046E050E0BE016F5F7F4F8A5F9B4FCEDD61
:10502000F801128E118E20E8A60162E0808D5EDF0D
:1050300081E001C080E026960FB6F894DEBF0FBE77
:10504000CDBFDF91CF911F910F91FF90EF90DF9037
:10505000CF90BF9008951F93CF93DF931F92CDB74A
:10506000DEB7182F80E590E073D563E070E0812F04
:105070000E94183389836BD589810F90DF91CF917E
:105080001F910895FC012081022E000C330B80E05B
:1050900090E0A901082E02C0559547950A94E2F7C1
:1050A000642F6170AC014C5F5F4FF90102C0F59550
:1050B000E7954A95E2F7AF014170641731F0019628
:1050C0008430910531F781E0089580E008950895D6
:1050D000FC018789908D009769F12489358928170B
:1050E000390718F4308F278B25C001976F3F2FEFBA
:1050F000720729F4908F878B80E090E00895A08953
:10510000B1899B01215031092F3F310548F4262FE9
:10511000A80FB91F3C91231305C0908F878B08C03F
:1051200020E0F6CF278524FF05C0908F878B6C93F6
:10513000CB0108958FEF9FEF0895CF93DF93EC019C
:10514000E881F9810288F389E02D19958F3F2FEFCF
:10515000920731F02F89388D2F5F3F4F388F2F8B7B
:10516000DF91CF910895FC012789308D848995893D
:105170002817390740F480899189FC01E20FF31F59
:10518000808190E008958FEF9FEF0895EF92FF9256
:10519000CF93DF93FC01DB0160E070E0CB01E78897
:1051A000F08CC489D589EC16FD06A8F46217730744
:1051B0008407950784F4C089D189CE0DDF1DC8818D
:1051C000CD936F5F7F4F8F4F9F4FC789D08D2196B3
:1051D000D08FC78BE4CFDF91CF91FF90EF900895F0
:1051E000FC01848995892789308D821B930B089552
:1051F00080E090E00895242FDC01ED91FC91008483
:10520000F185E02D41E0199408952CE832E0FC018D
:105210003183208340960C9441390F931F93CF9391
:10522000DF93CDB7DEB728970FB6F894DEBF0FBE79
:10523000CDBF8C01AE01485F5F4F61E475E0CE01E8
:1052400001960E94423D45E656E0BE016F5F7F4FEA
:10525000C8010E94F93ACE0101960E944139C80165
:1052600028960FB6F894DEBF0FBECDBFDF91CF9169
:105270001F910F9108950F931F93CF93DF93CDB795
:10528000DEB728970FB6F894DEBF0FBECDBF8C01F6
:10529000AE01485F5F4F61E475E0CE0101960E9468
:1052A000423D48E756E0BE016F5F7F4FC8010E9454
:1052B000F93ACE0101960E944139C80128960FB6ED
:1052C000F894DEBF0FBECDBFDF91CF911F910F913C
:1052D00008950F931F93CF93DF938C018AE290E0A0
:1052E0000E94AD46EC01B8010E94CB1788E0F8019E
:1052F000B196DE01919601900D928A95E1F7F80141
:1053000081A589A788E692E099838883CE01DF9101
:10531000CF911F910F9108950F931F93CF93DF9318
:105320008C018AE290E00E94AD46EC01B8010E9437
:10533000CB1788E0F801B196DE01919601900D92AD
:105340008A95E1F7F80181A589A786E592E099831E
:105350008883CE01DF91CF911F910F910895EF9235
:10536000FF920F931F93CF93DF931F92CDB7DEB7BA
:105370008C017B016F3F7F4F19F480E090E028C0E3
:10538000F801878584FF22C0F801818D928D6489A0
:1053900075898617970758F0E9826F5F7F4FAE01D6
:1053A0004F5F5F4FC80140960E94D00607C0F801CA
:1053B00020893189F901E80FF91FE082F801818D18
:1053C000928D0196928F818FC70102C08FEF9FEF60
:1053D0000F90DF91CF911F910F91FF90EF90089563
:1053E000EF92FF920F931F93CF93DF931F92CDB74E
:1053F000DEB7FC01922F9870822F807128712831BE
:1054000019F44230A9F43BC0413011F48B0116C0AD
:10541000423081F4882329F004891589060F171F6B
:1054200002C000E010E0992349F00789108D04C004
:10543000413061F304891589060F171F24893589C6
:1054400020173107E0F0992311F0108F078B882384
:10545000A1F07F011982AE014F5F5F4FB801CF010C
:1054600040960E94D006F701848995892789308D5E
:105470008217930710F4908F878BC80102C08FEFBB
:105480009FEF0F90DF91CF911F910F91FF90EF90C1
:105490000895CF93DF93EC01B8DECE01DF91CF9179
:1054A0000C9442472FEA33E0FC013183208380CA09
:1054B000CF93DF93EC01F6DFCE01DF91CF910C9417
:1054C00042472FEA33E0FC013183208371CACF9336
:1054D000DF93EC01F6DFCE01DF91CF910C944247D0
:1054E0002FEA33E0FC013183208362CACF93DF933C
:1054F000EC01F6DFCE01DF91CF910C944247CF93C0
:10550000DF93EC0189E094E09983888383E194E060
:105510009E8F8D8FCE01029678DE6DEF73E0CE0107
:10552000DF91CF910C94151FDC01ED91FC91369722
:1055300020813181820F931FE2CFCF93DF93EC0163
:10554000DEDFCE01DF91CF910C944247DC01ED917B
:10555000FC91369720813181820F931FEECFCF923D
:10556000DF92EF92FF920F931F93CF93DF931F92DF
:10557000CDB7DEB78C017B016A01B9010E944639C3
:105580008FEFC816D80611F40E94DA47E114F1042F
:1055900079F01982AE014F5F5F4FB601C8010E94DA
:1055A000D006F80144815581B7018081918196DA56
:1055B0000F90DF91CF911F910F91FF90EF90DF90AF
:1055C000CF9008952F923F924F925F926F927F9269
:1055D0008F929F92AF92BF92CF92DF92EF92FF9203
:1055E0000F931F93CF93DF93CDB7DEB72C970FB6F2
:1055F000F894DEBF0FBECDBF6C0129013A01FC015A
:10560000A18CB28C9E01265F3F4FA201CE01019674
:10561000A6DFF601E488F588EA14FB0410F40E9482
:10562000DA4797012A193B0982012415350508F448
:1056300089018D809E80E01AF10AC40180959095C1
:10564000E816F90660F7E80CF91CC60140961C0143
:105650000815190558F41886AE01485F5F4FB70169
:105660002B873C870E94D0063C852B85F6018089DC
:105670009189A901401B510BB8016A0D7B1D680F70
:10568000791FF401EA0DFB1D8E0F9F1F0E94EB474F
:1056900069817A81F60180899189A4018A0D9B1D17
:1056A0001DDA1986AE01475F5F4FB701C1010E9445
:1056B000D006CE0101960E944139F601818D928D6E
:1056C000840D951D928F818FC301B2012C960FB668
:1056D000F894DEBF0FBECDBFDF91CF911F910F9128
:1056E000FF90EF90DF90CF90BF90AF909F908F9002
:1056F0007F906F905F904F903F902F900895809192
:105700004708811127C060E082E00E945B36E0EF2D
:10571000F2E0E491E0933908EAEAF2E0E491F0E0A3
:10572000EE0FFF1FE65AFD4F8591949190933B0831
:1057300080933A0810924408109246081092450847
:10574000E4E4F8E0129288E0EC33F807D9F781E05E
:105750008093470889E398E008956F927F929F9223
:10576000AF92BF92CF92DF92EF92FF920F931F936F
:10577000CF93DF931F921F92CDB7DEB76C017B01F1
:105780005A0166E175E0C7010E945122882339F071
:105790006EE175E0C7010E94512281110EC06FECCD
:1057A00075E0C5010E945122882349F061E976E045
:1057B000C5010E945122882311F0912C82C09FDFE5
:1057C0008C010E94FF378823C1F3360181E2680E05
:1057D000711CB301C8010E94D43741E065EFC801D4
:1057E0000E949337C8010E944937682F70E0CE01AC
:1057F00002968FD8CE01029645DC982E8823E9F2D6
:10580000C8010E94FF378823C1F2B301C8010E947A
:10581000D43741E06AE5C8010E94933719828A8132
:1058200080FF02C091E09983998182FF02C092605B
:1058300001C09D7F998366E175E0C7010E942A221D
:10584000882361F06FEC75E0C5010E942A229981DE
:10585000882311F0916001C09E7F99836EE175E00D
:10586000C7010E942A22882361F06FEC75E0C50110
:105870000E942A229981882311F0926001C09D7FA5
:105880009983CE0101960E94062241E0682FC8014B
:105890000E949337898180958983CE0101960E9469
:1058A000062241E0682FC8010E949337C8010E9478
:1058B00049378A3A09F081CFA501B701C6010E9494
:1058C0009213892D0F900F90DF91CF911F910F911F
:1058D000FF90EF90DF90CF90BF90AF909F907F9020
:1058E0006F9008958F929F92AF92BF92CF92DF9266
:1058F000EF92FF920F931F93CF93DF93CDB7DEB755
:1059000061970FB6F894DEBF0FBECDBF8C010E9429
:10591000CF36F801C688D788E08CF18C9B01AC01AA
:105920002C193D094E095F0969017A01AE01485FF2
:105930005F4F60EC75E0CE0101960E94423DBE01D2
:105940006F5F7F4FC8010E947F224B015C01CE0137
:1059500001960E944139C814D904EA04FB0410F4EA
:10596000F12C81C00E94CF36F801668B778B808F37
:10597000918F63E976E088EA99E00E948C3A0E9470
:10598000723ABDDE7C010E94FF37882349F3B801DB
:105990006F5D7F4FC7010E94D43741E065EFC701BB
:1059A0000E949337C7010E944937682F70E0CE01EB
:1059B0000F960E948924CE010F9664DBF82E88236F
:1059C00079F28F8580FD03C061E976E002C06FEC5B
:1059D00075E0AE014F5E5F4FCE0108960E94423DDA
:1059E000AE01405F5F4F66E175E0CE0101960E9417
:1059F000423DAE01485F5F4FBE016F5F7F4FC80100
:105A00000E949213CE0101960E944139CE01089660
:105A10000E9441398F8582FD03C061E976E002C0B2
:105A20006FEC75E0AE014F5E5F4FCE0108960E94AD
:105A3000423DAE01405F5F4F6EE175E0CE010196E1
:105A40000E94423DAE01485F5F4FBE016F5F7F4FD6
:105A5000C8010E949213CE0101960E944139CE01E5
:105A600008960E9441398F2D61960FB6F894DEBFDB
:105A70000FBECDBFDF91CF911F910F91FF90EF909F
:105A8000DF90CF90BF90AF909F908F900895EF924E
:105A9000FF920F931F93CF93DF93CDB7DEB7279776
:105AA0000FB6F894DEBF0FBECDBF8C017B01CE01D7
:105AB00001960E941C0BBE016F5F7F4FC8010E94C0
:105AC0003414CE0101960E9441398FEA93E0F80127
:105AD0009183808388E0F701D801919601900D921F
