:100000009BC10000CAC10000C8C10000C6C10000F9
:10001000C4C10000C2C10000C0C10000BEC10000D8
:10002000BCC10000BAC10000B8C10000B6C10000E8
:10003000B4C10000B2C10000B0C10000AEC10000F8
:10004000ACC10000AAC10000A8C10000A6C1000008
:10005000A4C10000A2C10000A0C100000C94802A2D
:100060009CC100000C94D7290C94AE2996C10000C5
:1000700094C1000092C1000090C100008EC1000038
:100080008CC100008AC1000088C1000086C1000048
:1000900084C1000082C1000080C100007EC1000058
:1000A0007CC100007AC1000078C1000076C1000068
:1000B00074C1000072C1000070C100006EC1000078
:1000C0006CC100006AC1000068C1000066C1000088
:1000D00064C1000062C100000C9485290C945C2965
:1000E0005CC1000073157615651569156D15AD15A4
:1000F0007A157E15841588158C15921596159A1506
:10010000AD15A015A415A8156364696E6F7073759D
:1001100078585B0000000A0B02090C0D0E0807035B
:1001200004010000000000000000000000000000CA
:1001300000000000000000000000000000000000BF
:10014000121110000000000000000000000000007C
:100150000000000000000000000000002200250058
:1001600028002B002E0031003400020100000501A0
:1001700008010B0100002100240027002A002D00A7
:100180003000330001010000040107010A010505E8
:100190000505070508080808020202020A0A0808FD
:1001A000040404040101010101010101030303032B
:1001B00003030303040707070C0C0C0C0C0C0C0CBA
:1001C0000202020206060606060606060B0B0B0BCB
:1001D0000B0B0B0B010210202008081020401020F0
:1001E00040800201020108040201010204081020FB
:1001F00040808040201008040201800402018040F9
:100200002010080402010804020101020408102061
:1002100040800102040810204080005EBCE2613F83
:10022000DD83C29C7E20A3FD1F419DC3217FFCA2D4
:10023000401E5F01E3BD3E6082DC237D9FC1421C06
:10024000FEA0E1BF5D0380DE3C62BEE0025CDF81B8
:10025000633D7C22C09E1D43A1FF4618FAA4277966
:100260009BC584DA3866E5BB5907DB856739BAE494
:1002700006581947A5FB7826C49A653BD987045AC6
:10028000B8E6A7F91B45C6987A24F8A6441A99C778
:10029000257B3A6486D85B05E7B98CD2306EEDB326
:1002A000510F4E10F2AC2F7193CD114FADF3702E54
:1002B000CC92D38D6F31B2EC0E50AFF1134DCE9086
:1002C000722C6D33D18F0C52B0EE326C8ED0530D38
:1002D000EFB1F0AE4C1291CF2D73CA947628ABF5E6
:1002E00017490856B4EA6937D58B5709EBB5366814
:1002F0008AD495CB2977F4AA4816E9B7550B88D646
:10030000346A2B7597C94A14F6A8742AC896154BF7
:10031000A9F7B6E80A54D7896B35000020002300FE
:10032000260029002C002F003200000100000301EC
:10033000060109012853F14F11241FBECFEFD1E26E
:10034000DEBFCDBF00E00CBF18E0A0E0B2E0EAEAFB
:10035000F9EB00E00BBF02C007900D92A237B10786
:10036000D9F72BE0A2E7B8E001C01D92A43DB20787
:10037000E1F711E0CBE9D1E000E006C021970109E7
:10038000802FFE010E941F55CA39D10780E008075F
:10039000A9F70E94F54F0C94C45C32CEDC0128E032
:1003A00030E080E090E0F90153E0F695E7955A954A
:1003B000E1F7EA0FFB1F4081042E000C550BB90139
:1003C0006770772702C0559547956A95E2F740FD1B
:1003D0000196880F991F2150310929F72C9120FD92
:1003E00001960895CF93DF93DC011C92E0E0F0E0EA
:1003F000C1E0D0E02C91CB010E2E02C096958795DE
:100400000A94E2F780FF0DC0022E000C330BAE0100
:100410000E2E02C0440F551F0A94E2F7242B352BF1
:100420000FC0CE010E2E02C0880F991F0A94E2F76A
:1004300080959095422F220F550B9C012423352344
:100440002C933196E830F105A9F6DF91CF9108950C
:10045000FC012081022E000C330B80E090E0A9010A
:10046000082E02C0559547950A94E2F7642F6170F3
:10047000AC014C5F5F4FF90102C0F595E7954A95D5
:10048000E2F7AF014170641731F0019684309105B5
:1004900031F781E0089580E008950F931F93CF9383
:1004A000DF938C018AE290E00E942E55EC01B801A6
:1004B0000E94091088E0F801B196DE019196019042
:1004C0000D928A95E1F7F80181A589A781EB92E069
:1004D00099838883CE01DF91CF911F910F91089569
:1004E0000F931F93CF93DF93CDB7DEB728970FB647
:1004F000F894DEBF0FBECDBF8C01AE01485F5F4FE9
:1005000068E075E0CE01019667D646E155E0BE0190
:100510006F5F7F4FC8010E94BF23CE0101960E94EA
:10052000C522C80128960FB6F894DEBF0FBECDBF16
:10053000DF91CF911F910F9108950F931F93CF9348
:10054000DF93CDB7DEB728970FB6F894DEBF0FBEA6
:10055000CDBF8C01AE01485F5F4FCE0101963CD606
:10056000BE016F5F7F4FC8010E94C3218C01CE0185
:1005700001960E94C52281E0012B09F480E02896B3
:100580000FB6F894DEBF0FBECDBFDF91CF911F91A4
:100590000F910895DC0113968D919C911497892BEE
:1005A00059F01596ED91FC91169717968D919C91A7
:1005B0001897E817F90741F4ED91FC911197048819
:1005C000F589E02DCD01199481911696FC93EE9357
:1005D000159790E00895DC0113968D919C911497E6
:1005E000892B59F01596ED91FC91169717968D91E0
:1005F0009C911897E817F90741F4ED91FC91119738
:100600000288F389E02DCD011994808190E008954E
:10061000CF92DF92EF92FF920F931F93CF93DF93CE
:100620001F92CDB7DEB76C017B01BE016F5F7F4FBC
:100630000E94CA22D701ED91FC9136970190F0817A
:10064000E02DEE0DFF1D83899489C5DF8C018F3F5E
:10065000BFEF9B0721F10E94B754892B01F5D70109
:10066000ED91FC9136970190F081E02DEE0DFF1D8C
:10067000838994898FDFC80101978F3F910568F4C2
:100680000983F601648175816F5F7F4FAE014F5F13
:100690005F4FC6010E949320CDCF00E0F1CFF6015D
:1006A00084819581892B59F4D701ED91FC9136977E
:1006B0008081918166E08E0D9F1D0E94C941C60117
:1006C0000F90DF91CF911F910F91FF90EF90DF90EE
:1006D000CF900895CF92DF92EF92FF920F931F93E6
:1006E000CF93DF931F92CDB7DEB77C016B01BE01C4
:1006F0006F5F7F4F0E94CA22D601ED91FC91369721
:100700000190F081E02DEC0DFD1D8389948963DF5C
:100710008C018F3FBFEF9B07B9F00E94B754892B24
:1007200099F4C801C0970A9700F1C8018D7F8C9792
:10073000E1F00D32110519F00B32110529F4F70122
:1007400084819581892B89F0F70184819581892B9A
:1007500071F5D601ED91FC9136978081918166E02B
:100760008C0D9D1D0E94C94122C0D601ED91FC91C6
:1007700036970190F081E02DEC0DFD1D8389948961
:1007800009DFC80101978F3F910578F40983D701EC
:1007900014966D917C9115976F5F7F4FAE014F5FFF
:1007A0005F4FC7010E949320A7CF00E0EFCFC701A2
:1007B0000F90DF91CF911F910F91FF90EF90DF90FD
:1007C000CF900895EF92FF920F931F93CF93DF93F3
:1007D0001F92CDB7DEB78C017B01DB01ED91FC915F
:1007E00036970190F081E02DE60FF71F81899289FD
:1007F000009721F049830E94EE21498141111BC0DD
:10080000D701ED91FC9136970190F081E02DEE0D2E
:10081000FF1D83899489DFDE8F3FBFEF9B07B1F413
:10082000D701ED91FC9136978081918162E08E0D28
:100830009F1D0E94C94181E0F80180830F90DF91E4
:10084000CF911F910F91FF90EF9008950E94B754A0
:10085000892B89F3D701ED91FC9136970190F081B6
:10086000E02DEE0DFF1D8389948994DEC9CFCF92D0
:10087000DF92EF92FF920F931F93CF93DF931F921C
:10088000CDB7DEB77C016A018E010F5F1F4F2FEFDE
:100890003FEF40E050E00E947923B601C7010E947B
:1008A0005240C7010F90DF91CF911F910F91FF90A0
:1008B000EF90DF90CF900895EF92FF920F931F93E8
:1008C000CF93DF931F92CDB7DEB78C017B01681702
:1008D0007907D9F0FC0184819581892B11F015826B
:1008E0001482F701648175811982AE014F5F5F4FF9
:1008F000C8010E949320F701448155816081718174
:10090000F801808191810E946111C8010F90DF91EF
:10091000CF911F910F91FF90EF900895AF92BF92EA
:10092000CF92DF92EF92FF920F931F93CF93DF93BB
:10093000CDB7DEB7CA54D1090FB6F894DEBF0FBEEB
:10094000CDBF8C016B017A01BC01645F7F4FA601B2
:10095000CE01885B9F4F0E94B324F8012785308920
:100960002B968EAD9FAD2B97A801465E5F4F5A0127
:100970002817390771F5A60169E275E0CE01CA961C
:100980000E94CD204FE255E0BE01665C7F4FCE0154
:100990008F5B9F4F0E94BF234AE455E0B501CE0113
:1009A00001960E94BF23AE014F5B5F4FBE016F5F98
:1009B0007F4FC801EBD5CE0101960E94C522CE0122
:1009C0008F5B9F4F0E94C522CE01CA960E94C5220E
:1009D0004AC0CE0101960E94C647B701CE010796D4
:1009E0000E945423BE01675F7F4FCE01CA960E94CA
:1009F000DA3F2B96EEADFFAD2B9784819581BE013A
:100A0000665C7F4F079658DFCE01CA960E94C522CA
:100A10002B96EEADFFAD2B97E480F58057E0E50E09
:100A2000F11C43E555E0B501CE01CA960E94BF23F3
:100A3000A601BE01665C7F4FCE018F5B9F4F17DF23
:100A4000A701BE016F5B7F4FC801A0D5CE018F5BB0
:100A50009F4F0E94C522CE01CA960E94C522CE0198
:100A600001960E943C20C65BDF4F0FB6F894DEBFB4
:100A70000FBECDBFDF91CF911F910F91FF90EF90EF
:100A8000DF90CF90BF90AF900895AF92BF92CF927A
:100A9000DF92EF92FF920F931F93CF93DF93CDB727
:100AA000DEB7CA54D1090FB6F894DEBF0FBECDBF72
:100AB0008C016B017A01BC01645F7F4FA601CE01FE
:100AC000885B9F4F0E94B324F801278530892B96BD
:100AD0008EAD9FAD2B97A801465E5F4F5A01281738
:100AE000390771F5A60169E275E0CE01CA960E9448
:100AF000CD204FE255E0BE01665C7F4FCE018F5B9B
:100B00009F4F0E94BF234AE455E0B501CE010196F4
:100B10000E94BF23AE014F5B5F4FBE016F5F7F4FEF
:100B2000C80134D5CE0101960E94C522CE018F5B4B
:100B30009F4F0E94C522CE01CA960E94C52250C076
:100B4000CE0101960E94C647F7012481358140E01D
:100B500050E060817181CE0107960E94D341BE01B1
:100B6000675F7F4FCE01CA960E94DA3F2B96EEADAB
:100B7000FFAD2B9784819581BE01665C7F4F079600
:100B80009BDECE01CA960E94C5222B96EEADFFAD2C
:100B90002B97E480F580F7E0EF0EF11C43E555E07C
:100BA000B501CE01CA960E94BF23A601BE01665CB4
:100BB0007F4FCE018F5B9F4F5ADEA701BE016F5B57
:100BC0007F4FC801E3D4CE018F5B9F4F0E94C522A7
:100BD000CE01CA960E94C522CE0101960E943C20F9
:100BE000C65BDF4F0FB6F894DEBF0FBECDBFDF91FF
:100BF000CF911F910F91FF90EF90DF90CF90BF901A
:100C0000AF9008950F931F93CF93DF93EB0109905B
:100C10000020E9F72197C61BD70BFC010481158141
:100C2000AE010C171D0708F4A801FC018081918119
:100C30000E948D56892B39F40C171D0720F081E096
:100C4000C017D10708F480E0DF91CF911F910F9179
:100C500008956F927F929F92AF92BF92CF92DF9250
:100C6000EF92FF920F931F93CF93DF931F921F92E8
:100C7000CDB7DEB76C017B015A016DE676E0C701A6
:100C80005CDC882331F065E575E0C70156DC811135
:100C90000CC06DE376E0C50150DC882341F06DE5C2
:100CA00075E0C5014ADC882311F0912C7CC00E94BC
:100CB0000C328C010E94C6458823B9F3360181E2CB
:100CC000680E711CB301C8010E94282B41E065EF3A
:100CD000C8010E94E62AC8010E94CA2A682F70E053
:100CE000CE0102967FDBCE010296B2DB982E8823DE
:100CF000E1F2C8010E94C6458823B9F2B301C801D8
:100D00000E94282B41E06AE5C8010E94E62A198268
:100D10008A8180FF02C091E09983998182FF02C09D
:100D2000926001C09D7F99836DE676E0C7016ADF1E
:100D3000882359F06DE376E0C50164DF998188234B
:100D400011F0916001C09E7F998365E575E0C70150
:100D500059DF882359F06DE376E0C50153DF9981AF
:100D6000882311F0926001C09D7F9983CE01019686
:100D700015DB41E0682FC8010E94E62A8981809531
:100D80008983CE0101960ADB41E0682FC8010E94E9
:100D9000E62AC8010E94CA2A8A3A09F086CFA5012C
:100DA000B701C60172DE892D0F900F90DF91CF91B0
:100DB0001F910F91FF90EF90DF90CF90BF90AF9079
:100DC0009F907F906F900895CF92DF92EF92FF9265
:100DD0000F931F93CF93DF93CDB7DEB7CE54D109D6
:100DE0000FB6F894DEBF0FBECDBF7C01AB018E0104
:100DF000085B1F4FD8011D921D921D921C921397E4
:100E0000BC01645F7F4FCE01845B9F4F0E94B3247F
:100E10002F96EEADFFAD2F97D7011F968D919C9128
:100E200050978E179F0731F4F801C080D180E2807F
:100E3000F380A4C064817581695F7F4FCE01019604
:100E40000E942F4940E0BE016F5F7F4FCE01CA96DE
:100E5000B9DCBE01665C7F4FCE018F5B9F4F0E9465
:100E6000CA22E981FA8136970190F081E02D83E072
:100E700090E08C0F9D1FE80FF91F8181BE016F5F0D
:100E80007F4F85FF18C0CE01CA9624DCBE01665C88
:100E90007F4FCE018F5B9F4F0FDDCE01CA960E9420
:100EA000C522CE018F5B9F4F0E94DA221F930F93C2
:100EB0002FE535E049C0CE01CA96AADBBE01665CCB
:100EC0007F4FCE018F5B9F4FF7DCCE01CA960E9409
:100ED000C522E981FA8136970190F081E02DA3E0E7
:100EE000B0E0AC0FBD1FEA0FFB1F8181928186FF2E
:100EF0000AC0CE018F5B9F4F0E94DA221F930F938F
:100F000023E635E021C087FF16C095FF0AC0CE0159
:100F10008F5B9F4F0E94DA221F930F9327E635E0E5
:100F200013C0CE018F5B9F4F0E94DA221F930F9355
:100F30002BE635E009C0CE018F5B9F4F0E94DA227D
:100F40001F930F932FE635E03F932F939F938F933B
:100F50000E94D7560F900F900F900F900F900F9008
:100F6000CE018F5B9F4F0E94C522F801C080D180C7
:100F7000E280F380CE0101960E943C20C701B601B9
:100F8000C25BDF4F0FB6F894DEBF0FBECDBFDF915F
:100F9000CF911F910F91FF90EF90DF90CF90089528
:100FA0008F929F92AF92BF92CF92DF92EF92FF9279
:100FB0000F931F93CF93DF93CDB7DEB728970FB66C
:100FC000F894DEBF0FBECDBF8C010E94742AF801D9
:100FD000C688D788E08CF18C9B01AC012C193D09A7
:100FE0004E095F0969017A01AE01485F5F4F63E70F
:100FF00075E0CE010196F0D0BE016F5F7F4FC80152
:10100000E3DE4B015C01CE0101960E94C522C814AB
:10101000D904EA04FB0478F00E94742AF801668B74
:10102000778B808F918F6EE775E088E79AE00E945A
:1010300054230E943C2380E028960FB6F894DEBF2C
:101040000FBECDBFDF91CF911F910F91FF90EF9019
:10105000DF90CF90BF90AF909F908F9008958F9228
:101060009F92AF92BF92CF92DF92EF92FF920F9337
:101070001F93CF93DF93CDB7DEB729970FB6F894C0
:10108000DEBF0FBECDBF8C010E94742AF801C68856
:10109000D788E08CF18C9B01AC012C193D094E09DD
:1010A0005F0969017A01AE01485F5F4F63E775E050
:1010B000CE01019691D0BE016F5F7F4FC80184DEE3
:1010C0004B015C01CE0101960E94C522C814D904CF
:1010D000EA04FB0410F4F12C6BC00E94742AF8019E
:1010E000668B778B808F918F63E975E088E79AE054
:1010F0000E9454230E943C230E940C327C010E94D7
:10110000C645882341F3B8016F5D7F4FC7010E9438
:10111000282B41E065EFC7010E94E62AC7010E9423
:10112000CA2A682F70E0CE0108965CD9CE010896D5
:101130008FD9F82E882379F2888580FD05C03DE59A
:10114000C32E35E0D32E04C02DE3C22E26E0D22ECE
:10115000AE01475F5F4F6DE676E0CE0101963CD071
:10116000A601BE016F5F7F4FC801D8DBCE0101969B
:101170000E94C522888582FD05C09DE5C92E95E0A7
:10118000D92E04C08DE3C82E86E0D82EAE01475F6D
:101190005F4F65E575E0CE0101961ED0A601BE0148
:1011A0006F5F7F4FC801BADBCE0101960E94C52256
:1011B0008F2D29960FB6F894DEBF0FBECDBFDF91FD
:1011C000CF911F910F91FF90EF90DF90CF90BF9044
:1011D000AF909F908F900895AF92BF92CF92DF9281
:1011E000EF92FF920F931F93CF93DF931F92CDB790
:1011F000DEB76C017B01BA010E94CA22E114F1043E
:10120000F1F0F70101900020E9F731978F010E19F5
:101210001F09F601A480B5801982B8016A0D7B1DF3
:10122000AE014F5F5F4FC6010E949320F60180819F
:101230009181A801B7018A0D9B1D0E9461110F9039
:10124000DF91CF911F910F91FF90EF90DF90CF90A2
:10125000BF90AF900895AF92BF92CF92DF92EF927E
:10126000FF920F931F93CF93DF93CDB7DEB72897ED
:101270000FB6F894DEBF0FBECDBF7C016B01BA0183
:101280008E01085F1F4F2FEF3FEF40E050E0CE018F
:1012900001960E947923D6011396AD90BC901497C5
:1012A00011960D911C911297A016B106C9F0D801A4
:1012B0001496ED91FC91159780819181DC01ED915F
:1012C000FC910680F781E02D1995BC01CE010196B5
:1012D0000E94C321892B21F0F80102811381E4CF00
:1012E000D70112961C930E931197CE0101960E947E
:1012F000C522C70128960FB6F894DEBF0FBECDBF3A
:10130000DF91CF911F910F91FF90EF90DF90CF90E1
:10131000BF90AF9008956F927F928F929F92AF92FD
:10132000BF92CF92DF92EF92FF920F931F93CF93D2
:10133000DF9300D0CDB7DEB76C017B018A01DA0103
:10134000ED91FC910680F781E02DCA011995AC0161
:10135000B701CE0101967FDF8A819B81F70123814E
:1013600034812817390741F0D60112969C938E9349
:10137000119713961C92F7C0D801ED91FC9104804F
:10138000F581E02DC80119954C01F60112821182F8
:101390001382D7011896ED91FC91199719955C016C
:1013A000F70101811281F7018381948180179107F0
:1013B000A9F0F801A481B581F701208531858D91CF
:1013C0009C91F9011995B5010E94B533882331F03C
:1013D000D80112960D911C911397E5CF81E0F6018B
:1013E0008383D70113968D919C9114970817190741
:1013F00009F065C0D70115966D907C90169786E030
:1014000090E06114710431F50E942E555C01FC01DD
:101410001182108282E090E00E942E55DC018D92B4
:101420009C92F50195838483D7011296BC92AE926B
:101430001197F801B182A082D50111961C921E92DB
:1014400013961C930E93129781E090E0F701968318
:1014500085832AC00E942E555C01DC011D921C92DE
:1014600082E090E00E942E55FC0191828082D5019D
:1014700015969C938E931497F80180819181119613
:101480009C938E9313961C930E9312970190F08168
:10149000E02DB382A282D801AD92BC92BFEF6B1A4D
:1014A0007B0AF70176826582D7011396ED91FC9154
:1014B000149780819181F6019283818354C0F80151
:1014C000A481B581F701208531858D919C91F90129
:1014D00019955C01D7011896ED91FC911997C401FB
:1014E0001995B5010E94B5338823A9F186E090E0F3
:1014F0000E942E555C01FC011182108282E090E076
:101500000E942E55DC018D929C92F5019583848377
:10151000D8018D919C919183808313830283892BC1
:1015200021F4F701B282A18205C0D801ED91FC91AE
:10153000B382A282F801B182A082D70115968D9163
:101540009C911697019616969C938E931597F6018B
:10155000B282A18208C0D60113961C9213971296EC
:101560001C930E931197C6010F900F900F90DF916F
:10157000CF911F910F91FF90EF90DF90CF90BF9090
:10158000AF909F908F907F906F900895CF93DF934F
:1015900000D01F92CDB7DEB74B835C8369837A831B
:1015A0000E94DD4D4B815C8169817A810F900F90A3
:1015B0000F900F90DF91CF910C94684D2F923F9236
:1015C0004F925F926F927F928F929F92AF92BF9253
:1015D000CF92DF92EF92FF920F931F93CF93DF93FF
:1015E000CDB7DEB7C652D1400FB6F894DEBF0FBEFE
:1015F000CDBF8C01CB019E01275F3F4F3C832B83E6
:1016000028EC30E03E832D8318861F8220E234E0F0
:101610003A8329830E94DA22009711F48EEE97E034
:101620009E012F5F3F4FCF52DF4F39832883C15D2B
:10163000D040CD52DF4F99838883C35DD040CB52D9
:10164000DF4F39832883C55DD0408AE0C952DF4F20
:101650008883C75DD040CE018F529F4F0E94EA2001
:10166000DC011296ED90FC9013971801BCE02B0E54
:10167000311C81ED482E512C4C0E5D1EE6E04E0EC5
:10168000511C91EDA92EB12CAC0EBD1EF8E0AF0E91
:10169000B11C68018AE1C80ED11CE114F10409F4FF
:1016A000BFC0C701049682D44C01D70112966D9138
:1016B0007C911397AE014A5D5E4FCE01815E9E4FD5
:1016C0008BDDF80167847088AE01415E5E4FB10129
:1016D000CE018F529F4F0E94B324CE52DF4F88819C
:1016E0009981C25DD04068167906A1F5AE01415ED0
:1016F0005E4F69E275E0CE01865F9E4F0E94CD206D
:101700004FE255E0BE01665F7E4FCE018F5E9E4F79
:101710000E94BF234AE455E0B601CE018F529F4F8D
:101720000E94BF23AE014F5E5E4FBE016F527F4FDE
:10173000C8012CDFCE018F529F4F0E94C522CE01DF
:101740008F5E9E4F0E94C522CE01865F9E4F0E94F3
:10175000C5225DC0CE018F529F4F0E94C647B40183
:10176000C2010E945423D801ED91FC918484958498
:10177000B501CE01865F9E4F0E94DA3FAE01465F03
:101780005E4FBE01615E7E4FC801F4011995982E2F
:10179000CE01865F9E4F0E94C522911033C0AE01DC
:1017A000415E5E4F69E275E0CE018F5E9E4F0E9402
:1017B000CD2047EA55E0BE016F5E7E4FCE01865FC9
:1017C0009E4F0E94BF234AE455E0B601CE01885ED9
:1017D0009E4F0E94BF23AE01465F5E4FBE01685E12
:1017E0007E4FC801D3DECE01885E9E4F0E94C52287
:1017F000CE01865F9E4F0E94C522CE018F5E9E4F16
:101800000E94C522CE018F529F4F0E943C20CE01E4
:10181000815E9E4F0E94C522D701ED90FC903DCF86
:10182000CA5DDE4F0FB6F894DEBF0FBECDBFDF91AD
:10183000CF911F910F91FF90EF90DF90CF90BF90CD
:10184000AF909F908F907F906F905F904F903F9060
:101850002F900895EF92FF920F931F93CF93DF93F2
:10186000CDB7DEB72A970FB6F894DEBF0FBECDBF57
:101870007C0182E292E0D70111969C938E93189698
:101880001C921E92179786E090E069877A870E94E3
:101890002E55FC011182108213821282158214824D
:1018A000D70114969C938E93139716969C938E93C0
:1018B000159783EB95E21B969C938E931A975296FD
:1018C0001C921E92519786E090E00E942E55FC01DA
:1018D000118210821382128215821482D7011E9601
:1018E0009C938E931D9750969C938E931F9788E997
:1018F00095E255969C938E935497F701168A178A12
:10190000108E118E8E010F5F1F4F2FEF3FEF40E0C3
:1019100050E069857A85C7014A960E947923AE0115
:10192000485F5F4F63E775E0C80156DCB801C70147
:101930000C960E94BD266FEB75E00E94F522C8014F
:101940000E94C522AE01485F5F4F65EC75E0C8019B
:1019500043DCB801C70102960E94CE252EED3AE085
:10196000DC0111963C932E9313961C921E921297B3
:10197000C8010E94C5222A960FB6F894DEBF0FBE9A
:10198000CDBFDF91CF911F910F91FF90EF90089500
:10199000EF92FF920F931F93CF93DF93CDB7DEB7F4
:1019A000C057D1090FB6F894DEBF0FBECDBF8091EE
:1019B0007C088111A3C2109278081092770886E003
:1019C00090E00E942E55FC01118210821382128237
:1019D000158214829093740880937308909376080C
:1019E000809375088BE390E290937B0880937A084C
:1019F0006BEC75E088E79AE00E9454230E943C2338
:101A0000AE0140595F4F6EED75E0CE018E599F4F8C
:101A1000E3DBBE016E597F4FCE0101961BDF89E5E6
:101A200093E09A83898363EE75E088E79AE00E94E9
:101A300054230E943C23AE0141595F4F6CEF75E087
:101A4000CE01855A9F4FC8DBAE01455A5F4FBE019C
:101A50006D5F7F4FCE0184599F4F0E944E46AF96D7
:101A6000EEADFFADAF978E819F818E179F0751F02E
:101A700064817581CE01855A9F4F0E943623882349
:101A800009F474C08E01045D1F4F2FEF3FEF40E05B
:101A900050E0BE01655A7F4FCE018E5B9F4F0E9482
:101AA00079232B961FAE1EAE2B972D961FAE1EAE22
:101AB0002D970B851C85BE016E5B7F4FCE018C96EA
:101AC0000E94FC45BE01645D7F4FCE01C796F801C0
:101AD0001995AE01495C5F4FBE016D5F7F4FCE012E
:101AE00087599F4F0E944E46CE01C7960E94C5223D
:101AF000CE018C960E94C522AC96AEADBFADAC9720
:101B00008E819F81A817B90709F08AC188859985B8
:101B1000892B09F063C186E090E00E942E558C016C
:101B2000BE016E5B7F4F0E9426461D830C83EE81B3
:101B3000FF8111830083D80111961C921E92139687
:101B4000FC93EE93129781E090E099878887EE816D
:101B5000FF8190818181AE969FAFAE97AF968FAF98
:101B6000AF97CE018E5B9F4F0E94C522AF96EEAD20
:101B7000FFADAF970480F581E02D8EEE94E4908761
:101B8000878312861186CE01855A9F4F0E94C522F7
:101B9000AE014F5F5F4F62E778E0CE018C96BBDB12
:101BA000CE0101960E94423ECE018E599F4F0E9467
:101BB000C522AE01435B5F4F66E076E0CE01C7967B
:101BC0000BDBBE01695C7F4FCE01019643DE88E3EB
:101BD00094E09A8389836DE076E088E79AE00E943A
:101BE00054230E943C23E0914009F091410982E096
:101BF0008083E0913C09F0913D091082E0913E091B
:101C0000F0913F098FEC808310924809E0914409DC
:101C1000F091450986E08083E0914209F091430903
:101C2000808180618083E0914209F0914309808145
:101C300088608083E0914209F09143098081806847
:101C40008083E0914209F091430980818F7D8083F8
:101C5000AE014E5B5F4F66E476E0CE018C96BCDA57
:101C6000BE01645D7F4FCE010D960E94BD266EEED3
:101C700077E00E94F522CE018C960E94C522AE012B
:101C80004F5F5F4F62E778E0CE018C9644DBCE0178
:101C900001960E94A830CE01C7960E94C522AE01CF
:101CA000435B5F4F60E477E0CE01C79695DABE01F3
:101CB000695C7F4FCE010196CDDD83EF92E09A8380
:101CC000898318A61FA286E090E00E942E55FC0191
:101CD0001182108213821282158214829CA38BA31C
:101CE0009EA38DA381E59DE49BA78AA76EE176E084
:101CF00088E79AE00E9454230E943C23AE014E5B89
:101D00005F4F63E775E0CE018C9666DABE01645DD5
:101D10007F4FCE010D960E94BD2669E376E00E94BA
:101D2000F522CE018C960E94C522AE014E5B5F4F1C
:101D300066E476E0CE018C964FDABE01645D7F4F9B
:101D4000CE010D960E94BD266FE376E00E94F5223B
:101D5000CE018C960E94C522AE014E5B5F4F6AE4B5
:101D600076E0CE018C9638DABE01645D7F4FCE01FD
:101D70000D960E94BD2661E576E00E94F522CE0117
:101D80008C960E94C522AE014E5B5F4F65E776E000
:101D9000CE018C9621DABE01645D7F4FCE010D9697
:101DA0000E94BD266EEE77E00E94F522CE018C9651
:101DB0000E94C522AE014F5F5F4F62E778E0CE011F
:101DC0008C96A9DACE0101960E945C33CE01C796AB
:101DD0000E94C52281E080937C0890C086E090E05C
:101DE0000E942E558C01BE016E5B7F4F0E942646DD
:101DF000EE81FF8180819181D80111969C938E9311
:101E00001396FC93EE931297A081B18113961C93C5
:101E10000E9312971183008388859985019695CE3C
:101E20000B851C8514966D917C911597CE018C962F
:101E30000E94FC45BE01645D7F4FCE01835B9F4FD6
:101E4000F80119950B851C85BE016E5B7F4FCE0195
:101E5000C7960E94FC45BE01695C7F4FCE018C5A3B
:101E60009F4FF8011995BE01635B7F4FCE018C5ADD
:101E70009F4F0E943623182FCE018C5A9F4F0E94ED
:101E8000C522CE01C7960E94C522CE01835B9F4F1B
:101E90000E94C522CE018C960E94C522AC96EEAC63
:101EA000FFACAC97112339F186E090E00E942E55EB
:101EB0008C01BE016E5B7F4F0E942646D7018D913B
:101EC0009C91F80191838083F382E282892B19F43B
:101ED0001D830C8305C0D701ED91FC911383028310
:101EE000F7011183008388859985019699878887F2
:101EF000902F812F30CE9E2D8F2D2DCE82E798E012
:101F0000C059DF4F0FB6F894DEBF0FBECDBFDF91D3
:101F1000CF911F910F91FF90EF900895FC012681C2
:101F20003781620F731F848195818617970738F078
:101F30008281938177836683820F931F089580E067
:101F400090E0089581E0089580E008954A9608950C
:101F500008950F931F93CF93DF931F92CDB7DEB7F2
:101F60008C01AE014F5F5F4F6EE776E035D9C80157
:101F70000F90DF91CF911F910F9108951F93CF93F1
:101F8000DF93182F66E270E00E941337C82FD0E06D
:101F900067E270E0812F0E941337DC2FCC279E016F
:101FA000282BC901DF91CF911F9108950F931F93A3
:101FB000CF93DF938C01FC01C081D181C130D10569
:101FC00059F4628173816115710531F089E896E0F9
:101FD0000E947D56892B39F02197229720F4F80131
:101FE0008281938102C080E090E0DF91CF911F91C8
:101FF0000F910895DB01109749F0ED91FC91119735
:102000000190F081E02DBC01CD01199480E090E0B9
:102010000895AF92BF92CF92DF92EF92FF920F930B
:102020001F93CF93DF931F92CDB7DEB77C018B0157
:1020300082E292E0D7018D939C935701B3E0AB0EFF
:10204000B11CF7011086178286E090E00E942E55A1
:10205000FC01118210821382128215821482D70130
:1020600014969C938E93139716969C938E93159724
:10207000F801C380D480D80115968D919C91169754
:10208000C816D90661F0D60114966D917C9115970A
:10209000C5010E943341F601C280D380ECCF1A966D
:1020A0008D919C911B97F701938782875701FDE0E3
:1020B000AF0EB11CD70152961C921E92519786E02A
:1020C00090E00E942E55FC01118210821382128230
:1020D00015821482D7011E969C938E931D9750965D
:1020E0009C938E931F97F801C584D684D8011F96C0
:1020F0008D919C915097C816D90661F0D60114961F
:102100006D917C911597C5010E947E41F601C280B8
:10211000D380ECCF54968D919C915597F701958B78
:10212000848B56968D919D910D90BC91A02D868BA0
:10213000978BA08FB18FB801665E7F4F8E010F5FC6
:102140001F4F2FEF3FEF40E050E0C7014A960E943B
:1021500079230F90DF91CF911F910F91FF90EF9016
:10216000DF90CF90BF90AF9008950F931F93CF93C0
:10217000DF938C0181E290E00E942E55EC01B801C2
:1021800048DF89E593E099838883CE01DF91CF9181
:102190001F910F9108950F931F93CF93DF93EC013D
:1021A00082E292E0998388836EE876E088E79AE09D
:1021B0000E9454230E943C23CE014A960E94C522CD
:1021C00089899A89ED85FE85892B29F10280F38121
:1021D000E02DFE87ED870190F081E02D04811581CF
:1021E0000115110531F0C8010E942D23C8010E947C
:1021F000C355ED85FE8580819181009711F00E9485
:10220000C355ED85FE851182108289899A890197CF
:102210009A8B898BD5CF048115810115110531F079
:10222000C8010E942D23C8010E94C3558D859E853B
:10223000009739F10E94C35524C00280F381E02D3C
:10224000FC83EB830190F081E02D04811581011561
:10225000110531F0C8010E94C522C8010E94C35572
:10226000EB81FC8180819181009711F00E94C35520
:10227000EB81FC81118210828F819885019798876C
:102280008F838F819885EB81FC81892BB1F6048146
:1022900015810115110531F0C8010E94C522C80140
:1022A0000E94C3558B819C81009731F0DF91CF91C3
:1022B0001F910F910C94C355DF91CF911F910F91F6
:1022C0000895CF92DF92EF92FF920F931F93FB013D
:1022D000DC0100E010E098016A01E12CF12C0C1502
:1022E0001D052E053F0538F461916D930F5F1F4F5B
:1022F0002F4F3F4FF4CF840F951F1F910F91FF90E9
:10230000EF90DF90CF9008952C9A08952C9808951F
:102310001F93CF93DF93182F60E270E00E94133772
:10232000C82FD0E061E270E0812F0E941337DC2FCC
:10233000CC279E01282BC901DF91CF911F910895D1
:102340008EBD00000DB407FEFDCF8EB50895CF926F
:10235000DF92EF92FF920F931F93CF93DF93EC01E5
:102360007A018B016C01C40ED51ECC15DD0579F008
:10237000CDDF8FE0E5DF8D2FE3DF8C2FE1DF2196CE
:1023800080E0DEDFF80181938F01BEDFEECFC70171
:10239000DF91CF911F910F91FF90EF90DF90CF9041
:1023A0000895CF92DF92EF92FF920F931F93CF93F6
:1023B000DF93EC017A018B016C01C40ED51ECC15A4
:1023C000DD0571F0A3DF80EFBBDF8D2FB9DF8C2F30
:1023D000B7DF2196F80181918F01B2DF95DFEFCF52
:1023E000C701DF91CF911F910F91FF90EF90DF9088
:1023F000CF9008951F93CF93DF931F921F92CDB775
:10240000DEB7182F6A83998381DF80EF99DF998186
:10241000892F96DF812F94DF6A81862F91DF74DF09
:1024200081E00F900F90DF91CF911F9108951F933E
:10243000CF93DF931F921F92CDB7DEB7182F80E5A1
:1024400090E069837A830E94792B21E041E050E09B
:1024500069817A81812F0E94DD460E94782B81E07C
:1024600090E00F900F90DF91CF911F910895FF9210
:102470000F931F93CF93DF93F82E80E590E00E9497
:10248000792BC0E0D0E08F2D79DD8C01892B19F0FC
:102490008F2D74DDEC01C017D107A9F70E94782BAE
:1024A000CE01DF91CF911F910F91FF900895AF92D0
:1024B000BF92CF92DF92EF92FF921F93CF93DF9361
:1024C000182F5B017A0180E590E00E94792BC0E033
:1024D000D0E0812F53DD6C01892B19F0812F4EDD67
:1024E000EC01CC15DD05A9F7209799F463E070E0C5
:1024F000812F0E9413378431F1F08823E1F0C1E08D
:10250000D0E08C3111F4C0E0D0E0D195C195D10973
:1025100012C0EC16FD060CF4E7011C161D065CF457
:1025200020E0AE01B501812F0E94DD4660E470E03D
:10253000812F0E947D420E94782BCE01DF91CF91A6
:102540001F91FF90EF90DF90CF90BF90AF900895D4
:10255000CF93C82F80E590E00E94792B60E170E076
:102560008C2F0E947D424FEF62E070E08C2F0E9422
:102570000937CF910C94782BFF920F931F93CF9331
:10258000DF931F921F92CDB7DEB7F82E8A012A8300
:102590006983DEDF80E590E00E94792B2A816981E2
:1025A000462F422B60E070E08F2D0E940937011505
:1025B000110551F400918408109185080F5F1F4F99
:1025C0001093850800938408412F64E070E08F2DFC
:1025D0000E940937402F65E070E08F2D0E94093777
:1025E00061E070E08F2D0E947D420E94782B81E097
:1025F0000F900F90DF91CF911F910F91FF90089551
:10260000BF92CF92DF92EF92FF920F931F93CF93DF
:10261000DF9300D000D0CDB7DEB7FC01208D243091
:1026200009F050C06A017B018C01B12C63E070E0BD
:102630008B2D0E941337811103C0F801B08E06C0A4
:102640008831D9F3B394F4E0BF12F0CFF801808D54
:102650008430C1F196E0E0E3F2E0DE0111960190F2
:102660000D929A95E1F7F70193819F779C8394816E
:102670009D8395819E83B7016E5F7F4F90E0982F79
:10268000882744E050E0845F9B4F8BDEB601F80161
:10269000808D0E946D37F801808D90E0982F8827FB
:1026A00046E050E0BE016F5F7F4F8A5F9B4F79DE4F
:1026B000F801128E118E20E8A60162E0808D5CDFA9
:1026C00081E001C080E026960FB6F894DEBF0FBE11
:1026D000CDBFDF91CF911F910F91FF90EF90DF90D1
:1026E000CF90BF9008951F93CF93DF931F92CDB7E4
:1026F000DEB7182F80E590E00E94792B63E070E050
:10270000812F0E94133789830E94782B89810F9033
:10271000DF91CF911F9108952F923F924F925F9238
:102720006F927F928F929F92AF92BF92CF92DF92E1
:10273000EF92FF920F931F93CF93DF93CDB7DEB746
:102740002E970FB6F894DEBF0FBECDBF1C019C01C3
:10275000295E3F4F3B872A87C9010E94B21D8C87A3
:10276000882309F444C18A859B850E94B21D8C8709
:10277000882309F443C00E94742A2B013C01810183
:1027800001561F4FF80180819181A281B381A3017D
:102790009201281B390B4A0B5B0BDA01C9018939FD
:1027A0009A43A105B10590F4349780819181A2816B
:1027B000B381A3019201281B390B4A0B5B0BDA0191
:1027C000C90189399A43A105B105C8F1710143EAEC
:1027D000E40EF11CD7012C91F1018789908D222301
:1027E00079F0EE54FF4F2CEF3FEF31832083DC0173
:1027F000ED91FC910288F389E02D19951C862FC577
:1028000020ECF101218F128EDC01ED91FC91028010
:10281000F381E02D42E050E0B101675E7F4F1995F2
:10282000F101E556FF4F4082518262827382F801C6
:10283000408251826282738281E0D7018C93F101E0
:102840008789908DDC01ED91FC910480F581E02D6C
:102850001995892B09F403C5BE016F5F7F4F8A85E7
:102860009B850E94731E5C01892B09F4F8C4F80152
:102870004082518262827382D10159968C91807F0D
:10288000803309F091C04101B4EA8B0E911CF40130
:1028900080819181892B09F4E2C4E980F12CF10156
:1028A000EE0DFF1D028D10E0102F0027838D080F05
:1028B000111D6701F4E0CF0ED11C2A853B85C20EA5
:1028C000D31EB7016B5F7F4F620F731FA801C60154
:1028D0000E946C5698012E0D3F1DF101E20FF31F6F
:1028E000138ED10159968C9186708987D4010D90F1
:1028F000BC91A02DBE87AD87823009F041C0848D88
:1029000090E0982F8827458D4C01840E911C4BEF49
:102910005FEF4E195F09401B510B4A0D5B1DB9015A
:10292000695F7F4FEA85FB856E0F7F1FC601FD0142
:10293000199580E4D10159968C93599729855A9617
:102940002C935A975B969C925B975C968C925C97C3
:1029500057968D919C915897DC01ED91FC91B101B6
:10296000675E7F4F0280F381E02D44E050E01995CF
:10297000F101E556FF4F40825182628273826FC43B
:102980004DEF5FEF4E195F09401B510B4A0D5B1D68
:10299000B9016B5F7F4FEA85FB856E0F7F1FC60114
:1029A000ED85FE8519955BC4803CC9F480EDD101AD
:1029B00059968C9359975A961C925A9757968D917F
:1029C0009C915897DC01ED91FC91B101675E7F4FBE
:1029D0000280F381E02D42E050E0199540C4803D33
:1029E00009F03DC4F101ED55FF4F108238C48091CC
:1029F000E50881112AC01092CD081092CC0888EE0B
:102A000093E0A0E0B0E08093CE089093CF08A0932D
:102A1000D008B093D10887E692E09093CB088093DA
:102A2000CA088BE094E09093D9088093D80810925C
:102A3000DA081092DB081092DC081092DD0884E0BE
:102A40008093E20881E08093E50887E898E090931E
:102A5000D4098093D3096CE271E080E090E00E9499
:102A60003C2A1FB7F89480918608811196C083ECA8
:102A700091E0FC01249149E052E0FA01649130E0D8
:102A8000220F331F2C583E4FF901A591B4912C9180
:102A9000622309F070C0E9E4F1E0C490FA014491C6
:102AA000FC019491992309F466C0CC2009F455C027
:102AB000D12CF6013197E231F10508F04EC088279C
:102AC000EE58FF4F8F4F0C941F55809180008F77E9
:102AD00007C0809180008F7D03C080918000877F38
:102AE000809380003AC084B58F7702C084B58F7D13
:102AF00084BD33C08091B0008F7703C08091B00057
:102B00008F7D8093B00029C0809190008F7707C09F
:102B1000809190008F7D03C080919000877F80938B
:102B200090001BC08091A0008F7707C08091A0000B
:102B30008F7D03C08091A000877F8093A0000DC08F
:102B4000809120018F7707C0809120018F7D03C085
:102B500080912001877F80932001E92FF0E0EE0F24
:102B6000FF1FE65AFE4FA591B4918FB7F8949C9140
:102B7000492B4C938FBF61E085E30E94002A8CB5FE
:102B800080618CBD8CB580648CBD61E084E30E9463
:102B9000002A61E083E30E94002A809186088F5F0B
:102BA000809386081FBF249A80E590E00E94792BCD
:102BB00060E880E090E01EDC65E58BE190E01ADCE7
:102BC00065E58AE190E016DC0E94782B80E090E4D5
:102BD000909321098093200980E090E69093290941
:102BE0008093280980E098E4909323098093220938
:102BF00080E098E690932B0980932A0980E090E585
:102C0000909325098093240980E090E790932D0903
:102C100080932C0980E098E59093270980932609FA
:102C200080E098E790932F0980932E0980E590E04B
:102C30000E94792B46E050E0B10189E090E0B1DBE1
:102C40008BE094E09A8389831B821C821D821E8202
:102C500044E050E0BE016D5F7F4F8FE090E0A1DB6C
:102C60000E94782B0091D3091091D409D801929633
:102C70001D921D921D921C929597F80116A217A203
:102C800010A611A69A961D921D921D921C929D97B8
:102C900086E990E0A0E0B0E086AB97ABA0AFB1AF23
:102CA000D80112AE13AE14AE15AE189686E0FD0133
:102CB000282F11922A95E9F79801225F3F4F94E15E
:102CC000F90111929A95E9F7F10101900D928A9517
:102CD000E1F72801F2E44F0E511CD2011C920E9430
:102CE000AB542FEC37E040E050E00E94C254DC01CE
:102CF000CB010196A11DB11DF80184839583A683A4
:102D0000B78380839183A283B38398012D5B3F4F68
:102D10003E872D87C9010E94C73664E470E08D8527
:102D20009E850E94DC36882309F499C20E94742A89
:102D30006B017C01612C712C198648EE842E43E0D6
:102D4000942EA12CB12CD2018C91833009F400C1B6
:102D500081111EC0F80184819581A681B7810196F9
:102D6000A11DB11D84839583A683B7830E94742A15
:102D70006C197D098E099F09A50194010E94EE54EA
:102D8000A90161E0C801E3D581E0D2018C93C2C002
:102D90008430F1F4F80184819581A681B781019690
:102DA000A11DB11D84839583A683B7830E94742AD5
:102DB0006C197D098E099F09A50194010E94EE54AA
:102DC000A90163E0C801C3D5E2E0D201EC93A2C03F
:102DD000813059F5D801DA964D915D916D917C91D4
:102DE000DD979E012F5F3F4FC801EBD3898782306B
:102DF00009F090C089819A81AB81BC81F8018483FC
:102E00009583A683B7830E94742A6C197D098E0965
:102E10009F09A50194010E94EE54A90163E0C80135
:102E200096D5E985D201EC937BC0823009F072C05F
:102E3000D801DA964D915D916D917C91DD979E015F
:102E40002F5F3F4FC801BDD38987853009F05CC033
:102E500023E0F2012083F80182A193A1A4A1B5A1EE
:102E6000892B8A2B8B2B41F424E833E040E050E09F
:102E700022A333A344A355A3F80186A197A1A0A53B
:102E8000B1A5892B8A2B8B2B61F482A193A1A4A1DC
:102E9000B5A1B695A7959795879586A397A3A0A763
:102EA000B1A7F80182A593A5A4A5B5A5892B8A2B66
:102EB0008B2BA9F482A193A1A4A1B5A1AC01BD0162
:102EC00023E076956795579547952A95D1F7841B0A
:102ED000950BA60BB70B82A793A7A4A7B5A7F801DC
:102EE00086A197A1A0A5B1A586A797A7A0ABB1ABD6
:102EF00082A593A5A4A5B5A582AB93ABA4ABB5ABB6
:102F000066246394712C0CC0F985F63019F4D20153
:102F10001C9206C0B985BF3F19F4F20110821986D0
:102F2000F1E06F16710409F40ECF0E94742ADC01DF
:102F3000CB018C199D09AE09BF09F80126A937A953
:102F400040AD51AD281739074A075B0708F0FBCEA3
:102F50008D859E850E94C736F80184819581A68162
:102F6000B7810196A11DB11D84839583A683B78384
:102F70000E94742AF801FE96608371838283938392
:102F8000F1E06F16710409F053C080E590E00E94F3
:102F9000792B6091D3097091D409625F7F4FCE0184
:102FA00001960E944C2944E050E0BE016D5F7F4FC6
:102FB0008FE090E0F6D96091D3097091D4096A5EF0
:102FC0007F4FCE0101960E944C2944E050E0BE01A3
:102FD0006D5F7F4F81E090E0E4D96091D3097091FB
:102FE000D4096E5E7F4FCE0101960E944C2944E0C9
:102FF00050E0BE016D5F7F4F85E090E0D2D90E9426
:10300000782B6091D3097091D409625E7F4FCE0115
:1030100001960E944C298B819C81AD81BE81809359
:10302000CF099093D009A093D109B093D20903C0DE
:10303000672809F414C18A859B8594D58111E1C064
:10304000F101E455FF4F60817181D10157968D9157
:103050009C915897A255BF4FFC0120813181611589
:10306000710541F04D915C91D9011E96ED91FC9155
:103070001F971AC0F901E484F5844D915C912BE00F
:1030800034E03A832983D101AA55BF4F12960D919E
:103090001D912D913C9115970B831C832D833E83AD
:1030A000BE016F5F7F4FF7011995F10181309105E6
:1030B00009F0A0C0E756FF4F9183808387E0E6E3E5
:1030C000F2E0DE01119601900D928A95E1F7FE0182
:1030D0003196D1015E967E0128E0E20EF11C8191CD
:1030E0008D93EE15FF05D9F782E0D10195968C936B
:1030F000959796961C9296978FE097968C932FE0D3
:1031000030E08101075E1F4FA80160EA76E08A8502
:103110009B855DD59C0125503109A80160E18A8518
:103120009B856FD50E94742AF101E556FF4F60839D
:103130007183828393830A571F4FF80160837183E1
:1031400082839383F1018789908DDC01ED91FC915D
:103150000480F581E02D1995892BF9F40E94742AD9
:10316000D8018D909D90AD90BC90DC01CB01881969
:103170009909AA09BB0988399A43A105B10510F339
:10318000F101EE54FF4F8CEF9FEF91838083D101CB
:1031900057968D919C91589725C0B7018A859B853C
:1031A000A2D50497E1F4F101848D91012E543F4F93
:1031B0007901811110C00E94742AD8016D937D930A
:1031C0008D939C931397F101ED55FF4F1082F701FA
:1031D0001182108216C090E0D9018D939C93F10169
:1031E0008789908DDC01ED91FC910288F389E02DB7
:1031F000199535C0EE54FF4F8EEF9FEF918380837A
:103200002EC08A859B85AED4882309F4F7CAF101C4
:10321000E756FF4F80819181019611F481E090E0A3
:103220009183808380819181F101968F878F8101C5
:10323000075E1F4F27E030E0A80168EA76E08A8544
:103240009B85C5D4F101E80FF91F118E9C01245014
:103250003109A80162E88A859B85D3D48C878C8547
:103260002E960FB6F894DEBF0FBECDBFDF91CF9183
:103270001F910F91FF90EF90DF90CF90BF90AF9094
:103280009F908F907F906F905F904F903F902F9086
:10329000089580E3FB0180833296842F82958F709E
:1032A00090E1899F401911244A3014F4405D01C017
:1032B000495C4293482F8111F0CF0895CF93DF935B
:1032C000EC01E881F9810288F389E02D19958F3F9F
:1032D0002FEF920731F02D813E812F5F3F4F3E83CC
:1032E0002D83DF91CF9108958FEF9FEF089560E0D8
:1032F00070E0CB01089580E090E00895CB0108953F
:10330000CF93DF93EC0188899989DC01ED91FC91E1
:103310000480F581E02D1995892B59F088899989C8
:10332000DC01ED91FC910680F781E02DDF91CF91DA
:1033300019948FEF9FEFDF91CF910895CF93DF9393
:10334000EC0188899989DC01ED91FC910480F5817B
:10335000E02D1995892B59F088899989DC01ED9127
:10336000FC910084F185E02DDF91CF9119948FEFCE
:103370009FEFDF91CF910895AF92BF92CF92DF92EE
:10338000EF92FF920F931F93CF93DF9300D01F9282
:10339000CDB7DEB78C015B01C12CD12C7601F801D1
:1033A00080899189DC01ED91FC910680F781E02D07
:1033B00029833A834B835C83199529813A814B8118
:1033C0005C818F3F71F0C216D306E406F5064CF41B
:1033D000D5018D935D01BFEFCB1ADB0AEB0AFB0A27
:1033E000DECFC701B6010F900F900F900F90DF91C5
:1033F000CF911F910F91FF90EF90DF90CF90BF90F2
:10340000AF900895DC0150968D919C915197DC010D
:10341000ED91FC910480F581E02D199480E090E01D
:10342000089580E090E00895089580E090E0089588
:10343000CB01089580E090E00895CF92DF92EF9263
:10344000FF920F931F93CF93DF93EC018B010E94A8
:10345000742A6B017C0188819981DC01ED91FC91DA
:103460000480F581E02D1995892B79F40E94742A46
:10347000AB01BC014C195D096E097F0948395A43FB
:103480006105710540F380E00CC088819981DC0101
:10349000ED91FC910680F781E02D1995F80180836C
:1034A00081E0DF91CF911F910F91FF90EF90DF901E
:1034B000CF9008950F931F93CF93DF938C01EB016F
:1034C0006F3F8FEF780719F480E090E00FC06A300B
:1034D00031F46DE0F801808991890E94494A6C2F8E
:1034E000F801808991890E94494ACE01DF91CF91EC
:1034F0001F910F9108958F929F92BF92CF92DF926A
:10350000EF92FF920F931F93CF93DF9300D01F9200
:10351000CDB7DEB78C014B01C12CD12C7601C21680
:10352000D306E406F50644F5F401B1904F01FAE044
:10353000BF120EC06DE0F8018089918929833A831A
:103540004B835C830E94494A5C814B813A8129818B
:103550006B2DF8018089918929833A834B835C83A1
:103560000E94494AFFEFCF1ADF0AEF0AFF0A5C8187
:103570004B813A812981D3CFCA01B9010F900F90B5
:103580000F900F90DF91CF911F910F91FF90EF90CF
:10359000DF90CF90BF909F908F9008950C94C3556B
:1035A0000C94C3550C94C355089508950C94C355B9
:1035B000DC01ED91FC91369720813181820F931FC0
:1035C000F5CF2F923F924F925F926F927F928F92A0
:1035D0009F92AF92BF92CF92DF92EF92FF920F93A2
:1035E0001F93CF93DF93CDB7DEB7E3970FB6F89471
:1035F000DEBF0FBECDBF7C011A012B0139010E9435
:10360000742A4B015C0187010D5B1F4FC8010E94AA
:10361000C33518161906A4F00E94742ADC01CB01E8
:1036200088199909AA09BB09281639064A065B06B2
:10363000D8F062E370E080E090E00E943C2AE6CFA0
:1036400042E250E0BE016F5F7F4FC8010E945435D7
:103650008981823011F080E061C1F8018489958907
:1036600083349105C1F702C08FEF58C16D817E810F
:103670008F8198850E9427554B015C01F30160837F
:1036800071838283938346E050E0B701685F7F4F88
:10369000CE014D960E945F56892BE9F6F701808195
:1036A0009181A281B38188169906AA06BB0698F279
:1036B00084819581A681B78188159905AA05BB05E6
:1036C00050F289899A89AB89BC8986879787A08BB4
:1036D000B18B8EECA82EB12CC8010E947335F1E09D
:1036E000AF1AB108C9F719A6670182E2C80ED11C4A
:1036F000F701B696FBA7EAA7C7018A969DA78CA7F4
:103700003C974F0189969FA78EA73897F9ABE8ABF6
:103710001701F6E12F0E311CC5979BAB8AABF80160
:10372000818D928D181619060CF0F7C0C8010E9401
:1037300073358333910509F4CBC0FCF481309105D6
:10374000C9F11CF4892B59F3DCC083309105D1F108
:10375000069709F0D6C0C8010E9473355C0144E0A9
:1037600050E06AA97BA9C8010E945435412C512C14
:10377000BB24F4E0AF1AB10840C08A33910509F4C4
:103780007BC03CF48533910569F0C69709F440C0CD
:10379000B8C08B33910509F485C08F3F910509F4BA
:1037A000BECFAFC0C8010E947335C8010E947335F7
:1037B00089A7B5CFC8010E94733544E050E068A9DD
:1037C00079A93AC0C8010E9473355C0144E050E019
:1037D000B101C8010E945435412C512CBB2494E006
:1037E000A91AB1084A145B040CF099CFC8010E94D1
:1037F0007335EFEF4E1A5E0AF5CF4A145B040CF0F6
:103800008ECFC8010E9473358FEF481A580AF5CF42
:10381000C8010E947335B82EF701828D811110C046
:10382000838D81110DC0848D81110AC0858D811118
:1038300007C044E050E0B401C8010E9454356FCF86
:10384000EEA5FFA54080518062807380B401CE0157
:1038500083960E944C298DA19EA1AFA1B8A5841585
:103860009505A605B70529F3BB2009F458CFC80173
:103870000E947335BA94F8CFC8010E94733544E0B2
:1038800050E06AA57BA5C8010E945435F70166A1E6
:1038900077A180A591A50E94275566A377A380A74D
:1038A00091A73DCFC8010E94733544E050E06CA55C
:1038B0007DA5C8010E945435F70162A573A584A5B2
:1038C00095A50E94275562A773A784A795A727CF20
:1038D000C8010E94733544E050E0B601C8010E945F
:1038E0005435F70162A173A184A195A10E942755C7
:1038F00062A373A384A395A366A777A780AB91ABBC
:103900000ECFC8010E947335B82EBB2009F407CF33
:10391000C8010E947335BA94F8CF89A5E3960FB613
:10392000F894DEBF0FBECDBFDF91CF911F910F91F5
:10393000FF90EF90DF90CF90BF90AF909F908F90CF
:103940007F906F905F904F903F902F9008957F925F
:103950008F929F92AF92BF92CF92DF92EF92FF929F
:103960000F931F93CF93DF93CDB7DEB7A6970FB614
:10397000F894DEBF0FBECDBF8C01762E942E852E1F
:1039800020E2B22ECE0101967C01FC012B2D11927A
:103990002A95E9F78BE094E09AA389A38FEF8BA394
:1039A0008CA38DA38EA3680183E4C80ED11C43E4CD
:1039B00050E0BE016F5D7F4FC6010E947C370196CB
:1039C00009F4BCC081E089838A8386E0A82EAB829B
:1039D0001C82F80164817581868197810E94275538
:1039E0006D837E838F83988789869A8680E890E0AE
:1039F0009C878B874CE150E0B701C6010E941C36C2
:103A0000F7012B2D11922A95E9F7480188E0880EDD
:103A1000911CF401D70101900D92AA94E1F740E1C5
:103A200050E0B701C6010E941C36F7011192BA940A
:103A3000E9F796E0A92EB12C40E250E0B701C601AB
:103A40000E941C36F1E0AF1AB108B1F783E6898312
:103A500092E89A8393E59B838C8385E38D8381E051
:103A60008E837F829DE3988797E099878A8786E097
:103A7000F401DE011B9601900D928A95E1F78CE02E
:103A8000898B8A8B6AEA76E0CE0143960E9486563D
:103A9000F8014385BE01675E7F4FC801FADBF8017C
:103AA0004485BE01655E7F4FC801F3DBF8014585A3
:103AB000BE01635E7F4FC801ECDB4EE150E0B70111
:103AC000C6010E941C36F3E07F121EC082E3898388
:103AD00084E08A83F80196859B8397859C839089EF
:103AE0009D8391899E8396E39F838887828D8987B2
:103AF000838D8A87848D8B87858D8C874CE050E001
:103B0000B701C6010E941C3687E3898386E08A8359
:103B100091E09B8393E09C838D838FE08E838AE387
:103B20008F838BE388878FEF898749E050E0B70167
:103B3000C6010E941C36C6010E943937A6960FB6F0
:103B4000F894DEBF0FBECDBFDF91CF911F910F91D3
:103B5000FF90EF90DF90CF90BF90AF909F908F90AD
:103B60007F900895CF93DF93FC01A081B1811097DE
:103B700041F1EC01ED91FC9111970488F589E02D5C
:103B8000CD01199581111FC0FE01E556FF4F8081BF
:103B90009181892BB1F48DEF9FEF91838083888190
:103BA0009981DC01ED91FC910284F385E02D19955A
:103BB00088819981DC01ED91FC910288F389E02DE7
:103BC000199580E001C081E0DF91CF910895C9018E
:103BD0000296DB01FD01E61BF70B2D91222331F04C
:103BE000FA01E80FF91F20830196F4CF9C012E1BE8
:103BF0003F0B420F531FDA011297FC931196EC937F
:103C00000895AF92BF92CF92DF92EF92FF920F93FF
:103C10001F93CF93DF9300D01F92CDB7DEB77C0107
:103C2000162FD90180E09A2F9F77AA0FAB2FAA1FDA
:103C3000BB0BB195109709F09068E1E0F0E0EC0F54
:103C4000FD1FE80FF11D90838F5F109761F7E82F3C
:103C5000F0E0BA016E1B7F0B6C5F7F4FDB011C93A2
:103C6000CE0101965C0180E090E08E179F076CF416
:103C7000D501DD905D018C010E1B1F0B040F151F7C
:103C8000D8011596DC920196F0CFD7018D919C91C9
:103C900089010F5F1F4F0E0F1F1FDC01ED91FC917B
:103CA0000280F381E02DA80119956C010E94742A0D
:103CB000F701EC57FF4F608371838283938381E028
:103CC000C016D10609F080E00F900F900F900F9072
:103CD000DF91CF911F910F91FF90EF90DF90CF90E8
:103CE000BF90AF9008952F923F924F925F926F9244
:103CF0007F928F929F92AF92BF92CF92DF92EF927C
:103D0000FF920F931F93CF93DF9300D01F92CDB7F5
:103D1000DEB78C015B017C0142E0E40EF11CB701CF
:103D20008CDB811129C025C05FEF451A550A8981B6
:103D3000D1018D931D01682F6F7770E0669DF001B2
:103D4000679DF00D769DF00D1124CE0EDF1E47E02D
:103D5000660C771C881C991C4A95D1F787FF1EC0FA
:103D6000BE016F5F7F4FC8012C8367DB2C818111FF
:103D7000DBCF80E090E09BC0D80112962C91198295
:103D80001801B3E02B0E311C44244394512CC12C58
:103D9000D12C612C712C43016394E2CF822F807F60
:103DA00033243394803309F0312C8FEF840DF501E7
:103DB0008083332039F1B701640D751DC8013DDBE7
:103DC0008823B9F2B2016F5F7F4F6E0D7F1DC8016E
:103DD00034DB882371F2F2E04F0E511CD5018C9137
:103DE000F801E80FF11D6380712C762C6624848124
:103DF000680E711CF801828181FF08C0F2E06F0E2D
:103E0000711C04C080E0612C712C01C082E0E82E9E
:103E1000F12CE418F508A80147565F4F5B834A83ED
:103E20002EEF822E99249A94C701840D951D8C152E
:103E30009D0580F5BE016F5F7F4FC801FEDA8823C4
:103E400009F497CFAA81BB818D919C910097A9F02D
:103E5000332099F0F5012081A401421B51099A01F8
:103E6000240D351D6216730640F4DC01ED91FC91C2
:103E70000190F081E02D69811995B0E84B1651044D
:103E800028F48981F801E40DF51D8283EFEF4E1AC5
:103E90005E0ACACFF801E756FF4F80819181892BD6
:103EA00029F4F1E84F16510408F063CFC2010F90D6
:103EB0000F900F900F90DF91CF911F910F91FF9076
:103EC000EF90DF90CF90BF90AF909F908F907F90BA
:103ED0006F905F904F903F902F90089508951F939B
:103EE000CF93DF93EC01162F8F8580FF0BC0E88105
:103EF000F9810084F185E02D20E144E060E070E08C
:103F0000CE011995EB85FC852D853E85812F90E0AE
:103F1000E217F30758F410832B853C852F5F3F4F42
:103F20003C872B87DF91CF911F910895E881F9811C
:103F3000028CF38DE02DBC01CE01DF91CF911F915A
:103F40001994AF92BF92CF92DF92EF92FF920F93AC
:103F50001F93CF93DF9300D01F92CDB7DEB78C01B4
:103F60005B01C12CD12C7601C216D306E406F506FE
:103F7000ACF4F50161915F01C80129833A834B8359
:103F80005C83ADDF29813A814B815C81019649F0E8
:103F90006FEFC61AD60AE60AF60AE6CFB901CA01D9
:103FA00002C0B601C7010F900F900F900F90DF91E4
:103FB000CF911F910F91FF90EF90DF90CF90BF9026
:103FC000AF9008950895FB0120813181FC01318378
:103FD0002083FB0142815381F90136972081318191
:103FE000FC01E20FF31F51834083089521EF33E07A
:103FF000FC01318320832BEF33E0358B248B61E090
:1040000074E0E1CFDC01ED91FC91369720813181A4
:10401000820F931FEBCFCF93DF93EC01E7DFCE014D
:10402000DF91CF910C94C355DC01ED91FC91369753
:1040300020813181820F931FEECFDB012D913C91C6
:104040001197FC0131832083F9013697208131815A
:10405000FC01E20FF31F12968D919C9113979183AF
:10406000808381E290E094838383548B438B158219
:10407000158A089508950895CF93DF93EC0182EB9C
:1040800094E09983888386EC94E09CA38BA38CEBCB
:1040900094E09F838E83CE0108960E94763E6CEC5E
:1040A00074E0CE01DF91CF910C94F83F0697E4CFF6
:1040B000DC01ED91FC91369720813181820F931FB5
:1040C000DBCFCF93DF93EC01D7DFCE01DF91CF9130
:1040D0000C94C3550697F5CFDC01ED91FC91369712
:1040E00020813181820F931FECCFCF93DF93EC01BE
:1040F000E881F98136970190F081E02DE80FF91FF2
:1041000083899489ECDE019651F4E881F981369730
:104110008081918162E08C0F9D1F0E94C941CE0178
:10412000DF91CF910895EF92FF920F931F93CF935A
:10413000DF93EC018C819D818617970710F57A013A
:104140008B018A819B818617970740F4685F7F4FB8
:104150008617970718F4CE010E948B338C819D81BE
:104160008017910758F4E881F981E80FF91F30971B
:1041700019F0D7012C9120830196F2CF1D830C8377
:1041800005C06817790710F47D836C83DF91CF91A8
:104190001F910F91FF90EF900895EF92FF920F9370
:1041A0001F93CF93DF931F92CDB7DEB78C017A01B7
:1041B000AE014F5F5F4F0E94EC08B701C8010E943B
:1041C0005240C8010F90DF91CF911F910F91FF9046
:1041D000EF9008957F928F929F92AF92BF92CF926D
:1041E000DF92EF92FF920F931F93CF93DF9300D054
:1041F00000D0CDB7DEB75C01DC010D911C91B80198
:1042000084E090E00E94FA0F009739F0FC011183DE
:104210000083138212828C0111C08091F1088111F8
:104220000BC01092EE081092ED081092F008109258
:10423000EF0881E08093F1080DEE18E06501F2E0EF
:10424000CF0ED11C6BE7C6010E941F3F882309F4E3
:1042500052C06DE7C6010E941F3F81117FC086E0FA
:10426000782EC5010E9484404C01892B09F443C07B
:104270006AE3C6010E941F3F8823E9F11A8219826E
:10428000BE016F5F7F4FC5010E942648882399F1C8
:10429000D8011296ED90FC901397E114F104E9F126
:1042A000F70162817381C4010E947D56892B71F0F0
:1042B000D701ED90FC90F1CFF182E082E114F1049E
:1042C000D1F0D70113969C928E921297FE013196EF
:1042D000D7011496872D01900D928A95E1F76DE72D
:1042E000C6010E941F3F811139C06CE2C6010E94C5
:1042F0001F3F8111B6CF8091F10881110BC0109240
:10430000EE081092ED081092F0081092EF0881E08C
:104310008093F1080DEE18E021C0F80160817181F1
:104320008AE090E00E94FA0F7C01892B29F0F701C6
:104330001182108215821482D8011296ED91FC919F
:104340001397309739F080819181009709F4B4CFA9
:10435000FC01F9CFF801F382E282B0CFC8012696C2
:104360000FB6F894DEBF0FBECDBFDF91CF911F9186
:104370000F91FF90EF90DF90CF90BF90AF909F9004
:104380008F907F9008950F931F93CF93DF93FC013D
:1043900004811581FB01C481D581AE010C171D0775
:1043A00008F4A801FB0160817181FC018081918189
:1043B0000E948D56009769F481E090E0C017D10704
:1043C00040F00C171D0710F080E090E0919581956A
:1043D0009109DF91CF911F910F910895CF93DF93B2
:1043E000EC01E881F98136970190F081E02DE80F2A
:1043F000F91F83899489DC01ED91FC910484F58592
:10440000E02D1995019651F4E881F9813697808164
:10441000918161E08C0F9D1F0E94C941CE01DF9107
:10442000CF9108956F927F928F929F92AF92BF9299
:10443000CF92DF92EF92FF920F931F93CF93DF9370
:1044400000D01F92CDB7DEB73C018B01DC01ED91AE
:10445000FC9136970190F081E02D3296E80FF91F1C
:10446000C284D384E484F584C21AD30AE40AF50A28
:10447000818192818E709927049761F546015701D9
:10448000181419041A041B04D4F4B1E08B1A91080F
:10449000A108B108D301ED91FC9136970190F0810C
:1044A000E02DE60DF71D6089C30129833A834B8314
:1044B0005C831BDE5C814B813A812981E1CFD7018E
:1044C000C601F7FE03C080E090E0DC01C81AD90AFB
:1044D000EA0AFB0AB801C3010E94D341D301ED915E
:1044E000FC9136970190F081E02DE60DF71D838158
:1044F00094818E709927029701F1D301ED91FC917F
:10450000369780819181860D971DFC011486158652
:10451000168617860F900F900F900F90DF91CF9116
:104520001F910F91FF90EF90DF90CF90BF90AF90D1
:104530009F908F907F906F9008951C141D041E040F
:104540001F04DCF6F1E0CF1AD108E108F108D3012D
:10455000ED91FC9136970190F081E02DE60DF71D6D
:104560006089C301C2DDE9CF21E0FC012083FB01AA
:10457000A081B18116978D919C91E80FF91F8189D7
:104580009289009709F02ACF0895FC0180819181DA
:104590000C94C355CF93DF93EC0188E090E09B83AC
:1045A0008A831D821C820E942E5599838883DF9105
:1045B000CF910895CF93DF93EC016C817D816F5F84
:1045C0007F4F8A819B818617970718F4CE010E943E
:1045D0008B33E881F9818C819D81E80FF91F10826E
:1045E00088819981DF91CF910895CF92DF92EF92E8
:1045F000FF920F931F93CF93DF931F92CDB7DEB738
:104600007C016B01FC0184819581892B11F015825D
:104610001482C114D104B1F0F60101900020E9F731
:1046200031978F010C191D091982AE014F5F5F4F41
:10463000B801C70178DDA801B601F7018081918139
:104640000E946111C7010F90DF91CF911F910F91CF
:10465000FF90EF90DF90CF900895CF93DF93EC0120
:10466000079693DFCE01DF91CF918FCF8CDE892F1C
:10467000881F8827881F08950F931F93CF93DF9378
:104680001F92CDB7DEB78C01BC01CE0101966CDF65
:104690006AE0C8012ADDC801A1DEC8010F90DF91E0
:1046A000CF911F910F910895EF92FF920F931F9357
:1046B000CF93DF931F92CDB7DEB78C017B01BC0196
:1046C000CE01019651DFF70101900020E9F7319703
:1046D0009F012E193F0940E050E0B701C801A2DE5A
:1046E000C8010F90DF91CF911F910F91FF90EF9034
:1046F00008958F929F92AF92BF92CF92DF92EF92E6
:10470000FF920F931F93CF93DF931F92CDB7DEB726
:104710006C015B017A014901B8013CDFD5011496B7
:10472000ED91FC911597EE15FF0510F40E945B5674
:104730001982BF016E197F098616970608F4B40125
:10474000AE014F5F5F4FC601EEDCF601448155813B
:10475000D5016D917C916E0D7F1D808191810E94AC
:1047600061110F90DF91CF911F910F91FF90EF900A
:10477000DF90CF90BF90AF909F908F900895AF92B1
:10478000BF92CF92DF92EF92FF920F931F93CF933E
:10479000DF931F92CDB7DEB77C016A018E010F5FF8
:1047A0001F4F2FEF3FEF40E050E0A3DFF6010190F5
:1047B0000020E9F731978F010C191D09F701A4803A
:1047C000B5801982B8016A0D7B1DAE014F5F5F4F46
:1047D000C701A9DCF70180819181A801B6018A0D8A
:1047E0009B1D0E946111C7010F90DF91CF911F9116
:1047F0000F91FF90EF90DF90CF90BF90AF90089512
:10480000CF92DF92EF92FF920F931F93CF93DF939C
:104810001F92CDB7DEB77C016B018E010F5F1F4F7A
:104820002FEF3FEF40E050E064DFF6018781908595
:10483000A185B285F70187839087A187B2870F9002
:10484000DF91CF911F910F91FF90EF90DF90CF906C
:104850000895AF92BF92CF92DF92EF92FF920F93A3
:104860001F93CF93DF93CDB7DEB762970FB6F8945F
:10487000DEBF0FBECDBF8C017B015A01DB0111965B
:104880008D919C911297F80192838183F801A18107
:10489000B281F701838194818A179B0749F1C08413
:1048A000D18414966D917C911597CE010196A8DF65
:1048B000BE016F5F7F4FCE010C96F6011995B501D1
:1048C000CE010C96D3DED82ECE010C965EDECE0144
:1048D00001965BDEDD2061F0D8011196ED91FC912F
:1048E00012978281938112969C938E931197CECFCB
:1048F000C80162960FB6F894DEBF0FBECDBFDF9140
:10490000CF911F910F91FF90EF90DF90CF90BF90CC
:10491000AF900895CF92DF92EF92FF920F931F9383
:10492000CF93DF931F92CDB7DEB76C017B018E0171
:104930000F5F1F4F2FEF3FEF40E050E0DADEB7018F
:10494000695F7F4F2FEF3FEF40E050E0C6010796D1
:10495000D0DE0F90DF91CF911F910F91FF90EF90DC
:10496000DF90CF9008958F929F92AF92BF92CF9297
:10497000DF92EF92FF920F931F93CF93DF93CDB708
:10498000DEB765970FB6F894DEBF0FBECDBF6C01E2
:104990007B015A01FB0101811281F701838194811E
:1049A0008017910739F4F70183819481801791076B
:1049B00011F546C0F70180849184F8016481758106
:1049C000CE010196A7DFBE016F5F7F4FCE010F962C
:1049D000F4011995B501CE010F9648DE982ECE014F
:1049E0000F96D3DDCE01019638DE9920E1F2F80171
:1049F00002811381D2CFF70180849184F801648110
:104A00007581CE01019686DFBE016F5F7F4FCE01BB
:104A10000F96F4011995BE01615F7F4FC50126DE37
:104A2000B82ECE010F96B1DDCE01019616DEBB2069
:104A300039F0F70183819481F6019283818303C069
:104A4000F60112830183C60165960FB6F894DEBFA6
:104A50000FBECDBFDF91CF911F910F91FF90EF90CF
:104A6000DF90CF90BF90AF909F908F900895AF92BE
:104A7000BF92CF92DF92EF92FF920F931F93CF934B
:104A8000DF93CDB7DEB765970FB6F894DEBF0FBEE4
:104A9000CDBF8C017B015A01DB0111968D919C9158
:104AA0001297F80192838183F801A181B281F70105
:104AB000838194818A179B0749F1C084D18414961D
:104AC0006D917C911597CE01019624DFBE016F5F39
:104AD0007F4FCE010F96F6011995B501CE010F96C5
:104AE000C5DDD82ECE010F9650DDCE010196B5DD85
:104AF000DD2061F0D8011196ED91FC911297828131
:104B0000938112969C938E931197CECFC801659690
:104B10000FB6F894DEBF0FBECDBFDF91CF911F91CE
:104B20000F91FF90EF90DF90CF90BF90AF900895DE
:104B3000EF92FF920F931F93CF93DF931F92CDB706
:104B4000DEB77C018E010F5F1F4F2FEF3FEF40E07C
:104B500050E0CFDDC7010F90DF91CF911F910F91F2
:104B6000FF90EF900895EF92FF920F931F93CF93D2
:104B7000DF931F92CDB7DEB77C018E010F5F1F4F11
:104B80002FEF3FEF40E050E0B4DDC7010F90DF9121
:104B9000CF911F910F91FF90EF900895CF92DF92E8
:104BA000EF92FF920F931F93CF93DF93CDB7DEB7B2
:104BB000E5970FB6F894DEBF0FBECDBF7C016B0149
:104BC000AB01BC01CE01C39644DEECA9FDA9D7011F
:104BD00013968D919C9114978E179F0739F06481DD
:104BE0007581C60143DD882309F447C08E010F5F3C
:104BF0001F4F2FEF3FEF40E050E0B601CE01479648
:104C000078DD1F8E1E8E19A218A2F701008511856E
:104C1000BE01695E7F4FCE010196F2DDBE016F5F7E
:104C20007F4FCE010C96F8011995AE01445F5F4F9E
:104C3000B701CE01C0960DDECE010C96A6DCCE01EA
:104C40000196A3DCA9A9BAA9F70183819481A817C9
:104C5000B90739F5BE01695E7F4FC70101960E9411
:104C60003341D7011396ED91FC9114979081818186
:104C70009CAB8DABCE01479688DCECA9FDA9848165
:104C800095810796E5960FB6F894DEBF0FBECDBFAF
:104C9000DF91CF911F910F91FF90EF90DF90CF9018
:104CA0000895F7010085118514966D917C911597F3
:104CB000CE010196A5DDBE016F5F7F4FCE018296CA
:104CC000F8011995D70118960D911C911997BE01FD
:104CD000695E7F4FCE010C9693DDBE01645F7F4F0E
:104CE000CE018996F8011995BE016E5D7F4FCE0108
:104CF0008996BCDC182FCE01899647DCCE010C9634
:104D000044DCCE01829641DCCE0101963EDCC9A88E
:104D1000DAA8112379F186E090E00E942E558C01EB
:104D2000BE01695E7F4F0E943D3FD6018D919C91EF
:104D3000F80191838083D382C282892B31F4D70119
:104D400012961C930E93119705C0D601ED91FC911C
:104D500013830283F60111830083D70115968D9189
:104D60009C911697019616969C938E931597902F6B
:104D7000812F7ECF9C2D8D2D7BCFCF92DF92EF9216
:104D8000FF920F931F93CF93DF93CDB7DEB7C65437
:104D9000D1090FB6F894DEBF0FBECDBF7C016B0109
:104DA000AB01BC01CE018D5B9F4F61DE2696EEAD5F
:104DB000FFAD2697D70113968D919C9114978E176E
:104DC0009F0739F064817581C60150DC882309F49E
:104DD0005DC0BE016A5B7F4FCE01C996DBDB8E01F1
:104DE0000F5F1F4F2FEF3FEF40E050E0B601CE01C5
:104DF0004D967FDC2FEF3FEF40E050E0BE01675C57
:104E00007F4FCE01849675DCF70100851185BE01C8
:104E1000635E7F4FCE0101967DDDBE016F5F7F4FE8
:104E2000CE010F96F8011995AE01415F5F4FB701B2
:104E3000CE01805C9F4F1BDECE010F96A6DBCE011C
:104E400001960BDC2396AEADBFAD2397F7018381AE
:104E50009481A817B90789F5BE01635E7F4FC7012A
:104E600001960E947E41D7011396ED91FC91149713
:104E70009081818125969FAF259726968FAF2697A3
:104E8000CE014D96EADBCE01C9967FDB2696EEADCC
:104E9000FFAD2697848195810796CA5BDF4F0FB6D9
:104EA000F894DEBF0FBECDBFDF91CF911F910F9160
:104EB000FF90EF90DF90CF900895F7010085118566
:104EC00014966D917C911597CE01019623DDBE015C
:104ED0006F5F7F4FCE018B96F8011995D701189619
:104EE0000D911C911997BE01635E7F4FCE010F9605
:104EF00011DDBE01615F7F4FCE01C296F8011995A9
:104F0000BE01655D7F4FCE01C296B0DB182FCE018A
:104F1000C2963BDBCE010F96A0DBCE018B9635DB34
:104F2000CE0101969ADB2396CEACDFAC23971123FA
:104F300079F186E090E00E942E558C01BE01635EFF
:104F40007F4F0E94663FD6018D919C91F80191831D
:104F50008083D382C282892B31F4D70112961C93AD
:104F60000E93119705C0D601ED91FC911383028336
:104F7000F60111830083D70115968D919C911697A8
:104F8000019616969C938E931597902F812F72CF32
:104F90009C2D8D2D6FCFFC01A089B1898C91A689A4
:104FA000B78982FD0FC09C91818D8F5F8F73228D99
:104FB000821749F0218DDF01A20FB11D5D969C93F0
:104FC000818F08958C910895FC01918D828D9817A1
:104FD00061F0828DDF01A80FB11D5D968C91928DDD
:104FE0009F5F9F73928F90E008958FEF9FEF0895DA
:104FF000FC01918D828D981731F0828DE80FF11DA3
:10500000858D90E008958FEF9FEF0895FC01918DBD
:10501000228D892F90E0805C9F4F821B91098F73B6
:105020009927089580E399E0F1DF21E0892B09F4C5
:1050300020E0822F08958BED99E0E8DF21E0892BB5
:1050400009F420E0822F0895FC01848DDF01A80F70
:10505000B11DA35ABF4F2C91848D90E001968F73A0
:105060009927848FA689B7892C93A089B1898C91BF
:1050700080648C93938D848D981306C00288F38985
:10508000E02D80818F7D80830895EF92FF920F93B2
:105090001F93CF93DF93EC0181E0888F9B8D8C8DE4
:1050A000981305C0E889F989808185FD23C0F62E13
:1050B0000B8D10E00F5F1F4F0F731127E02E8C8DAB
:1050C000E8120BC00FB607FCFACFE889F989808196
:1050D00085FFF5CFCE01B8DFF2CF8B8DFE01E80F53
:1050E000F11DE35AFF4FF0820B8FEA89FB89808123
:1050F000806207C0EE89FF896083E889F989808131
:105100008064808381E090E0DF91CF911F910F91C7
:10511000FF90EF900895CF93DF93EC01888D882363
:10512000C1F0EA89FB89808185FD05C0A889B9891C
:105130008C9186FD0EC00FB607FCF5CF808185FFF0
:10514000F2CFA889B9898C9185FFEDCFCE017CDFA4
:10515000E8CFDF91CF91089580E090E0892B19F09E
:105160006ADF811120C080E090E0892B41F080E06F
:1051700090E0892B21F00E940000811117C080E08F
:1051800090E0892B41F080E090E0892B21F00E9493
:10519000000081110EC080E090E0892B79F042DFA1
:1051A00081110AC008950E940000DDCF0E94000016
:1051B000E6CF0E940000EFCF0C94000008953FB7A7
:1051C000F8948091FE089091FF08A0910009B09199
:1051D000010926B5A89B05C02F3F19F00196A11D16
:1051E000B11D3FBFBA2FA92F982F8827820F911D7D
:1051F000A11DB11DBC01CD0142E0660F771F881FC4
:10520000991F4A95D1F708958F929F92AF92BF92BE
:10521000CF92DF92EF92FF920F931F93CF93DF9382
:105220007C018B016C0182E0C80ED11C4701E5E0D6
:105230008E0E911CC0E0D0E0F60141916F0150E06C
:1052400060E070E02AE0C8010E94ED495C016EE276
:10525000C8010E94494A8A0D9B1DC80FD91FC81456
:10526000D90451F7F701458150E060E070E02AE091
:10527000C8010E94ED498C0F9D1FDF91CF911F91B6
:105280000F91FF90EF90DF90CF90BF90AF909F90E5
:105290008F9008950E945B562BE034E0FC0131832F
:1052A0002083FB014081518162817381FC01428333
:1052B00053836483758308951F920F920FB60F92E4
:1052C00011240BB60F922F933F934F935F936F93DD
:1052D0007F938F939F93AF93BF93EF93FF9380E35D
:1052E00099E0B2DEFF91EF91BF91AF919F918F91C5
:1052F0007F916F915F914F913F912F910F900BBED6
:105300000F900FBE0F901F9018951F920F920FB61F
:105310000F9211240BB60F922F933F934F935F93ED
:105320006F937F938F939F93AF93BF93EF93FF936D
:1053300080E399E030DEFF91EF91BF91AF919F91B3
:105340008F917F916F915F914F913F912F910F902E
:105350000BBE0F900FBE0F901F9018951F920F92CB
:105360000FB60F9211240BB60F922F933F934F93CA
:105370005F936F937F938F939F93AF93BF93EF93BD
:10538000FF938BED99E060DEFF91EF91BF91AF91BC
:105390009F918F917F916F915F914F913F912F914D
:1053A0000F900BBE0F900FBE0F901F9018951F927D
:1053B0000F920FB60F9211240BB60F922F933F93BB
:1053C0004F935F936F937F938F939F93AF93BF930D
:1053D000EF93FF938BED99E0DEDDFF91EF91BF91AD
:1053E000AF919F918F917F916F915F914F913F917D
:1053F0002F910F900BBE0F900FBE0F901F9018951E
:10540000CF93DF9390E0FC01EC52FE4F2491FC011E
:10541000E257FE4F8491882361F190E0880F991F35
:10542000FC01EC58FE4FC591D491FC01E65AFE4FA9
:10543000A591B491611109C09FB7F8948881209516
:1054400082238883EC912E230BC0623061F49FB7D6
:10545000F8943881822F809583238883EC912E2BBA
:105460002C939FBF06C08FB7F894E8812E2B28831A
:105470008FBFDF91CF9108958F929F92AF92BF928D
:10548000CF92DF92EF92FF926B017C0198DE4B018D
:105490005C01C114D104E104F104E9F090DEDC0107
:1054A000CB0188199909AA09BB09883E9340A10537
:1054B000B10578F321E0C21AD108E108F10888EEBD
:1054C000880E83E0981EA11CB11CC114D104E10414
:1054D000F10421F7DECFFF90EF90DF90CF90BF90E7
:1054E000AF909F908F9008952FB7F8946091FA082D
:1054F0007091FB088091FC089091FD082FBF0895E2
:105500001F920F920FB60F9211242F933F938F93F8
:105510009F93AF93BF938091FA089091FB08A0915D
:10552000FC08B091FD083091F90823E0230F2D37D6
:1055300020F40196A11DB11D05C026E8230F029697
:10554000A11DB11D2093F9088093FA089093FB08E0
:10555000A093FC08B093FD088091FE089091FF088D
:10556000A0910009B09101090196A11DB11D809380
:10557000FE089093FF08A0930009B0930109BF9122
:10558000AF919F918F913F912F910F900FBE0F90F0
:105590001F901895EF92FF920F931F93CF93DF9375
:1055A0007C0108E010E0C0E0D1E0C7010E94734533
:1055B0008111CD2BDD0F01501109B9F78C2FDF912F
:1055C000CF911F910F91FF90EF900895CF92DF92AE
:1055D000EF92FF920F931F93CF93DF931F92CDB75C
:1055E000DEB76C01E62E08E010E0FF24F39461E0E2
:1055F0008F2D8E2109F460E0C60149830E949745F2
:10560000FF0C0150110949810115110581F7411164
:1056100015C0F894D6011196ED91FC9112979181E5
:105620008C918095892381831196ED91FC9112973D
:1056300092818C9180958923828378940F90DF9159
:10564000CF911F910F91FF90EF90DF90CF90089531
:10565000CF92DF92EF92FF920F931F93CF93DF933E
:105660001F92CDB7DEB78C01F62E40E065E5798359
:10567000ADDFCF2C7981D72E760188E0E80EF11CC2
:10568000F60161916F0140E0C801A0DFCE14DF0494
:10569000B9F70F90DF91CF911F910F91FF90EF908D
:1056A000DF90CF900895CF93DF931F92CDB7DEB7F1
:1056B0006983DC01ED91FC910280F381E02D41E0F2
:1056C00050E0BE016F5F7F4F19950F90DF91CF9132
:1056D0000895DC01ED91FC91048CF58DE02D199578
:1056E00091E089270895862F089581E086270895FF
:1056F00008958CBD9DBD08958F929F92AF92BF92E9
:10570000CF92DF92EF92FF920F931F93CF936C0192
:105710005B017A01FC01C485C43041F481E090E072
:10572000F6019383828380E090E04BC08A01413090
:10573000584010F000E018E080E590E0DADF8C2FB0
:105740000E94AA474C0163E070E08C2F0E9413373F
:10575000873111F08C3121F48016910668F302C074
:1057600000E010E080E590E0C4DF9801A50160E072
:1057700070E08C2F0E94454760E270E08C2F0E9401
:105780007D4262E070E08C2F0E94133784FD0FC0D1
:1057900063E070E08C2F0E941337811104C08C2FBE
:1057A0000E94A812BBCF80E590E0A3DFEACF40E1E2
:1057B00062E070E08C2F0E940937012B09F4AECF14
:1057C000C701CF911F910F91FF90EF90DF90CF9085
:1057D000BF90AF909F908F900895CF92DF92FF92ED
:1057E0000F931F93CF93DF93FC012485243009F09E
:1057F00075C06A01EB018C01F12C8F2D0E9473138F
:10580000811103C0F801F48607C08B7F8831D1F382
:10581000F394F4E0FF12F1CFF8018485843009F4A9
:105820005DC020910002309101022F5F3F4F11F4C3
:1058300020E030EC309301022093000240910002FE
:105840005091010220E061E00E94BC12F801F48452
:105850008A818F3F51F48B818F3F91F48C818F3FF0
:1058600079F48D818F3F61F436C0811109C08B813D
:10587000811106C08C81811103C08D81882359F16B
:10588000C114D10441F180E590E033DFBE016E5FC9
:105890007F4F8F2D90E0982F882744E050E0845F61
:1058A0009B4F0E94D111B6018F2D0E946D3764E08D
:1058B00070E08F2D0E947D42C8010E94BB37873166
:1058C00081F061E070E080E090E0D6DDC8010E94E8
:1058D000BB378111F1CF84E0F801848780E090E04C
:1058E00002C081E090E0DF91CF911F910F91FF9076
:1058F000DF90CF9008952F923F924F925F926F92D8
:105900007F928F929F92AF92BF92CF92DF92EF924F
:10591000FF920F931F93CF93DF93CDB7DEB76597B9
:105920000FB6F894DEBF0FBECDBF7C016B013A010C
:10593000FB0120E080E090E06AE03191332309F13F
:1059400040ED430F4A3080F4689FA001699F500DDD
:105950001124CA01C097830F911D37FD9A958F3F7F
:10596000910559F350F313C03E3289F4233079F096
:10597000D301A20FB11D12968C932F5F80E090E0AF
:10598000DCCF233021F4F301858381E020C0F701CF
:1059900042815381648175818091D7099091D809A2
:1059A000A091D909B091DA09481759076A077B070E
:1059B00009F48FC199DD8701085F1F4F6F7077274A
:1059C0007C5FC8010E94DC36813019F080E090E0F5
:1059D000DCC18BE094E09A838983F7018281938113
:1059E000A481B5818B839C83AD83BE8345E350E066
:1059F000BE016F5F7F4FC8010E947C37892B19F46D
:105A0000C12CD12C61C170DDF701778366837627C5
:105A1000672776277A83698342E050E0BE016F5F93
:105A20007F4FC8010E941C3681E090E09E878D87E1
:105A300042E050E0BE01635F7F4FC8010E941C3608
:105A400080E091E09E878D8742E050E0BE01635F79
:105A50007F4FC8010E941C361E861D8642E050E022
:105A6000BE01635F7F4FC8010E941C3642E050E0D8
:105A7000BE01635F7F4FC8010E941C3642E050E0C8
:105A8000BE01635F7F4FC8010E941C365601F501BD
:105A90008081882311F1F6015F018191811115C088
:105AA00045018C189D081814190494F48F8641E060
:105AB00050E0BE01615F7F4FC8010E941C36A40107
:105AC000B601C8010E941C3603C08E3229F7E8CF08
:105AD0006501FFEFCF1ADF0ADACF1F8641E050E001
