:100000001AC2000049C2000047C2000045C20000F9
:1000100043C2000041C200003FC200003DC20000D8
:100020003BC2000039C2000037C2000035C20000E8
:1000300033C2000031C200002FC200002DC20000F8
:100040002BC2000029C2000027C2000025C2000008
:1000500023C2000021C200001FC200000C948F2C9C
:100060001BC200000C94E62B0C94BD2B15C20000A3
:1000700013C2000011C200000FC200000DC2000038
:100080000BC2000009C2000007C2000005C2000048
:100090000C94942B0C946B2BFFC10000FDC100004D
:1000A000FBC10000F9C10000F7C10000F5C100006C
:1000B000F3C10000F1C10000EFC10000EDC100007C
:1000C000EBC10000E9C10000E7C10000E5C100008C
:1000D000E3C10000E1C10000DFC10000DDC100009C
:1000E000DBC100006F047204610465046904A904A3
:1000F00076047A048004840488048E0492049604AE
:10010000A9049C04A004A404696E6600494E46003C
:100110006E616E004E414E0000407A10F35A00A00E
:10012000724E18090010A5D4E80000E876481700C0
:1001300000E40B54020000CA9A3B000000E1F50500
:10014000000080969800000040420F000000A0864A
:1001500001000000102700000000E803000000007C
:100160006400000000000A00000000000100000020
:1001700000002C76D888DC674F0823DFC1DFAE593A
:10018000E1B1B796E5E3E453C63AE651997696E8CD
:10019000E6C28426EB898C9B62ED407C6FFCEFBC51
:1001A0009C9F40F2BAA56FA5F490055A2AF75C937C
:1001B0006B6CF9676DC11BFCE0E40D47FEF520E6B2
:1001C000B500D0ED902E0300943577050080841E95
:1001D000080000204E0A000000C80C333333330FF0
:1001E000986E12831141EF8D2114893BE65516CF8D
:1001F000FEE6DB18D1844B381BF77C1D901DA4BB99
:10020000E424203284725E228100C9F124ECA1E54D
:100210003D2700000A0B02090C0D0E08070304011C
:1002200000000000000000000000000000000000CE
:10023000000000000000000000000000000012119B
:10024000100000000000000000000000000000009E
:100250000000000000000000005EBCE2613FDD83A2
:10026000C29C7E20A3FD1F419DC3217FFCA2401E96
:100270005F01E3BD3E6082DC237D9FC1421CFEA086
:10028000E1BF5D0380DE3C62BEE0025CDF81633D76
:100290007C22C09E1D43A1FF4618FAA427799BC566
:1002A00084DA3866E5BB5907DB856739BAE4065856
:1002B0001947A5FB7826C49A653BD987045AB8E646
:1002C000A7F91B45C6987A24F8A6441A99C7257B36
:1002D0003A6486D85B05E7B98CD2306EEDB3510F26
:1002E0004E10F2AC2F7193CD114FADF3702ECC9216
:1002F000D38D6F31B2EC0E50AFF1134DCE90722C06
:100300006D33D18F0C52B0EE326C8ED0530DEFB1F5
:10031000F0AE4C1291CF2D73CA947628ABF51749E5
:100320000856B4EA6937D58B5709EBB536688AD4D5
:1003300095CB2977F4AA4816E9B7550B88D6346AC5
:100340002B7597C94A14F6A8742AC896154BA9F7B5
:10035000B6E80A54D7896B35000022002500280032
:100360002B002E00310034000201000005010801BD
:100370000B0100002100240027002A002D0030007E
:10038000330001010000040107010A010000200000
:100390002300260029002C002F003200000100005D
:1003A00003010601090105050505070508080808F8
:1003B000020202020A0A08080404040401010101FD
:1003C00001010101030303030303030304070707F8
:1003D0000C0C0C0C0C0C0C0C02020202060606069D
:1003E000060606060B0B0B0B0B0B0B0B010210206A
:1003F000200808102040102040800201020108045B
:1004000002010102040810204080804020100804EE
:100410000201800402018040201008040201080447
:10042000020101020408102040800102040810208B
:10043000408099315C3011241FBECFEFD1E2DEBF86
:10044000CDBF00E00CBF15E0A0E0B2E0E8E1F9E7C5
:1004500000E00BBF02C007900D92A032B107D9F7A0
:1004600028E0A0E2B5E001C01D92A632B207E1F794
:1004700012E0CAE1D2E000E006C021970109802F16
:10048000FE010E941D38C931D10780E00807A9F795
:100490000E9460300C947B3CB3CD2F923F924F92E0
:1004A0005F926F927F928F929F92AF92BF92CF9204
:1004B000DF92EF92FF920F931F93CF93DF93CDB70D
:1004C000DEB7CC58D1090FB6F894DEBF0FBECDBF52
:1004D0007C01DC0154968D919C9155970E94882552
:1004E000882309F4DFC76701BCE0CB0ED11CB6013D
:1004F000F701848995890E94D92C41E064E4D701F1
:1005000054968D919C9155970E94472568EE73E013
:1005100080E090E00E944B2CF701848995890E942D
:100520008825B601D70154968D919C9155970E94CC
:10053000D92C40E06EEBF701848995890E9447250C
:10054000D70154964D905C9055978E01065A1F4FD7
:100550003801B9E06B0E711C5801B8E02B2E312C1C
:1005600088248394912CC2010E94F424811198283C
:10057000880CE1E02E1A3108B1F7D5019D925D019A
:10058000A615B70551F7F8012081318142815381C9
:100590006481758186819781AFEF0E942C3821F4A8
:1005A00080858F3F09F47EC7D80118968C911897E3
:1005B000E0E098E0900F9A1739F02D91E227F0E0F3
:1005C000E85AFD4FE491F7CF8E136CC781E290E0BB
:1005D00098A78FA319A61AA61BA686E090E0A0E014
:1005E000B0E08CA79DA7AEA7BFA718AA19AA1AAA00
:1005F0001BAA8BE494E09DA38CA380E28CAB1EAA83
:100600001DAA5E01B9E0AB0EB11CB8AEAFAA19AE1F
:10061000A5016FE273E0CE0101960E94CF2587E429
:1006200093E09A8389838BE593E09DA38CA381E576
:1006300093E098878F831D861C861F861E86198AE5
:10064000188A1B8A1A8A1D8A1C8A1F8A1E8A188E7B
:100650008DE692E09A878987BE01665C7F4FCE0166
:1006600049960E94B81619A218A21BA21AA288E1E4
:10067000888FF801618170E0762F66278081682B72
:10068000072E000C880B990B0E946C3620E030E09E
:1006900040E85DE30E94A73620E030E040E05DE303
:1006A0000E94B9372B013C01BE01695F7F4FCE012B
:1006B0008D599F4F0E949F23EF81F88536970190B7
:1006C000F081E02D329627E030E02C0F3D1FE20F45
:1006D000F31F8181928190FF0EC095FF02C004E05C
:1006E00001C000E02681AE01465C5F4FC301B2014C
:1006F0000E94073309C08E01065C1F4F2681428588
:10070000C301B2010E948A33FC0101900020E9F785
:1007100031979F01281B390B032E000C440B550BFE
:10072000BE01665C7F4FCE0107960E94FE22EF81DC
:10073000F885369780819181F501E80FF91F818155
:10074000928196FF04C0CE0107960E94D9228E01A5
:10075000065C1F4F2FEF3FEF40E050E0BE01675EA9
:100760007F4FCE018D599F4F0E942B17AE014659E6
:100770005F4F67E974E0C8010E94ED1AB801C70134
:1007800002960E949A19BE016D597F4F0E94FB1676
:10079000C8010E946216CE018D599F4F0E946216B9
:1007A000AE0147575F4F67E974E0CE0188589F4F0D
:1007B0000E94ED1AAE0148585F4FB701CE01815833
:1007C0009F4F0E94C01BAE0148575F4F67E974E01E
:1007D000CE018F589F4F0E94ED1AB601CE01865967
:1007E0009F4F0E94701780917F0581112AC010923F
:1007F00067051092660588EE93E0A0E0B0E0809374
:10080000680590936905A0936A05B0936B0587E42A
:1008100092E090936505809364058FE894E090934F
:1008200073058093720510927405109275051092ED
:1008300076051092770584E080937C0581E08093B3
:100840007F0581E295E09093DD068093DC066CE203
:1008500071E080E090E00E944B2C1FB7F8948091EB
:100860002005811196C06BED73E0FB01849121E2BC
:1008700034E0F901449190E0880F991F8E589C4F05
:10088000FC01A591B4918C91482309F070C0E7E474
:10089000F2E04491F9012491FB019491992309F428
:1008A00066C0442309F455C050E0FA013197E231A3
:1008B000F10508F04EC08827EE58FF4F8F4F0C947B
:1008C0001D38809180008F7707C0809180008F7DD8
:1008D00003C080918000877F809380003AC084B5F8
:1008E0008F7702C084B58F7D84BD33C08091B00006
:1008F0008F7703C08091B0008F7D8093B00029C0B6
:10090000809190008F7707C0809190008F7D03C009
:1009100080919000877F809390001BC08091A00001
:100920008F7707C08091A0008F7D03C08091A000C9
:10093000877F8093A0000DC0809120018F7707C032
:10094000809120018F7D03C080912001877F80935B
:100950002001E92FF0E0EE0FFF1FE85AFC4FA591B0
:10096000B4918FB7F8949C91292B2C938FBF61E0A1
:1009700085E30E940F2C8CB580618CBD8CB58064A2
:100980008CBD61E084E30E940F2C61E083E30E9450
:100990000F2C809120058F5F809320051FBF249A24
:1009A00080E590E005D760E880E090E00E94EC1CD4
:1009B00065E58BE190E00E94EC1C65E58AE190E042
:1009C0000E94EC1CF4D680E090E49093130880938E
:1009D000120880E090E690931B0880931A0880E04C
:1009E00098E4909315088093140880E098E690931B
:1009F0001D0880931C0880E090E590931708809371
:100A0000160880E090E790931F0880931E0880E00E
:100A100098E5909319088093180880E098E79093E0
:100A200021088093200880E590E0C2D646E050E09F
:100A300060E072E089E090E00E94C31C8FE894E0DF
:100A40009BAF8AAF1CAE1DAE1EAE1FAE44E050E0A1
:100A5000BE01645C7F4F8FE090E00E94C31CA7D66C
:100A60000091DC061091DD06D80192961D921D9230
:100A70001D921C929597F80116A217A210A611A616
:100A80009A961D921D921D921C929D9786E990E068
:100A9000A0E0B0E086AB97ABA0AFB1AFD80112AE8B
:100AA00013AE14AE15AE189686E0FD01282F1192F4
:100AB0002A95E9F79801225F3F4F94E1F9011192DD
:100AC0009A95E9F7E0E0F2E001900D928A95E1F75E
:100AD0004801F2E48F0E911CD4011C920E94F23363
:100AE0002FEC37E040E050E00E945B37DC01CB01A7
:100AF0000196A11DB11DF80184839583A683B78358
:100B000080839183A283B3835801F3E4AF0EB11CB9
:100B1000C5010E94AD1364E470E0C5010E94C213D8
:100B2000882309F45EC40E94832C2B013C01C55725
:100B3000DF4F19821882CB58D040C657DF4F18823A
:100B4000CA58D04043E0342E58EEC52E53E0D52E7F
:100B5000E12CF12C62E0262ED4018C91833009F433
:100B600023C181111FC0F80184819581A681B781BD
:100B70000196A11DB11D84839583A683B7830E942E
:100B8000832C6419750986099709A70196010E94AB
:100B90008737A90161E0C8010E941A1181E0D401E0
:100BA0008C93D7C08430F1F4F80184819581A681BB
:100BB000B7810196A11DB11D84839583A683B78358
:100BC0000E94832C6419750986099709A70196016B
:100BD0000E948737A90163E0C8010E941A11D4015D
:100BE0002C92B7C0813099F5F80142AD53AD64AD98
:100BF00075AD9E01265C3F4FC8010E94540FC65739
:100C0000DF4F8883CA58D040823009F0A2C08AAD35
:100C10009BADACADBDADF80184839583A683B7834E
:100C20000E94832C6419750986099709A70196010A
:100C30000E948737A90163E0C8010E941A11C657B4
:100C4000DF4FE881CA58D040D401EC9390C0823085
:100C500009F07FC0D801DA964D915D916D917C913C
:100C6000DD979E01265C3F4FC8010E94540FC65776
:100C7000DF4F8883CA58D040853009F060C0F40146
:100C80003082F80182A193A1A4A1B5A1892B8A2B5E
:100C90008B2B41F424E833E040E050E022A333A35F
:100CA00044A355A3F80186A197A1A0A5B1A5892BBE
:100CB0008A2B8B2B61F482A193A1A4A1B5A1B69537
:100CC000A7959795879586A397A3A0A7B1A7F801A5
:100CD00082A593A5A4A5B5A5892B8A2B8B2BA9F456
:100CE00082A193A1A4A1B5A1AC01BD0123E0769599
:100CF0006795579547952A95D1F7841B950BA60BB9
:100D0000B70B82A793A7A4A7B5A7F80186A197A1BF
:100D1000A0A5B1A586A797A7A0ABB1AB82A593A5C7
:100D2000A4A5B5A582AB93ABA4ABB5AB21E030E0F5
:100D3000C557DF4F39832883CB58D04018C0C657DA
:100D4000DF4F3881CA58D040363019F4D4011C9294
:100D50000EC0C657DF4FB881CA58D040BF3F39F4E4
:100D6000F4011082C657DF4F1882CA58D040C557C9
:100D7000DF4F28813981CB58D0402130310509F42B
:100D8000EBCE0E94832CDC01CB0184199509A609C6
:100D9000B709F80126A937A940AD51AD2817390781
:100DA0004A075B0708F0D8CEC5010E94AD13F801D1
:100DB00084819581A681B7810196A11DB11D84838F
:100DC0009583A683B7830E94832CF801FE966083E7
:100DD000718382839383C557DF4F28813981CB5834
:100DE000D0402130310509F054C080E590E0E0D4D6
:100DF0006091DC067091DD06625F7F4FCE01CA967E
:100E00000E945B2B44E050E0BE01645C7F4F8FE0AA
:100E100090E00E94C31C6091DC067091DD066A5E62
:100E20007F4FCE01CA960E945B2B44E050E0BE018A
:100E3000645C7F4F81E090E00E94C31C6091DC06FF
:100E40007091DD066E5E7F4FCE01CA960E945B2BCD
:100E500044E050E0BE01645C7F4F85E090E00E947A
:100E6000C31CA5D46091DC067091DD06625E7F4FE5
:100E7000CE01CA960E945B2B8CAD9DADAEADBFADD1
:100E80008093D8069093D906A093DA06B093DB0638
:100E900009C0C557DF4F48815981CB58D040452BF9
:100EA00009F49FC20E943B2E882309F41FC10E94AF
:100EB000832C2B013C018091C1069091C206A09128
:100EC000C306B091C406A3019201281B390B4A0B3B
:100ED0005B0BDA01C90189399A43A105B105A8F470
:100EE0008091BD069091BE06A091BF06B091C0064C
:100EF000A3019201281B390B4A0B5B0BDA01C901D4
:100F000089399A43A105B105C8F12091C5068091A0
:100F1000390690913A06222371F02CEF3FEF30937F
:100F2000D5062093D406DC01ED91FC910288F3896B
:100F3000E02D1995DBC020EC20933B0610923C0677
:100F4000DC01ED91FC910280F381E02D42E050E064
:100F50006BE376E019954092BD065092BE06609212
:100F6000BF067092C0064092C1065092C2066092BF
:100F7000C3067092C40681E08093C506809139064D
:100F800090913A06DC01ED91FC910480F581E02D11
:100F90001995892B09F435C1CE01CA960E94682D96
:100FA0005C01892B09F42DC14092C1065092C20602
:100FB0006092C3067092C40680913B06807F8033A6
:100FC00009F077C08091C6069091C706892B09F475
:100FD00018C1EAACF12CF701E75CF94F038110E08E
:100FE000102F00278481080F111DF701E35CF94FD2
:100FF0004F01B701625C794FA801CF010E94763999
:1010000098012E0D3F1DF901E75CF94F1482809184
:101010003B068670382E42E0841339C0C580D12C3F
:10102000DC2CCC248681C80ED11C4BEF5FEF4E190F
:101030005F09401B510B4A0D5B1DB901605C794F84
:10104000E091C606F091C706C401199580E480932B
:101050003B0630923C06D0923D06C0923E068091FF
:10106000390690913A06DC01ED91FC910280F38102
:10107000E02D44E050E06BE376E019954092BD0628
:101080005092BE066092BF067092C006BAC04DEF85
:101090005FEF4E195F09401B510B4A0D5B1DB901F3
:1010A000625C794FE091C606F091C706C4011995BC
:1010B000A8C0803CA9F480ED80933B0610923C06CA
:1010C0008091390690913A06DC01ED91FC91028005
:1010D000F381E02D42E050E06BE376E0199591C09A
:1010E000803D09F08EC01092C5068BC00E943B2E39
:1010F000811187C06091CE067091CF06809139062C
:1011000090913A064091D0065091D106DC01ED91C4
:10111000FC916115710509F47DC10684F785E02D08
:1011200019958130910509F0B6C19093BC06809362
:10113000BB0687E0E6E1F2E0DE01DA9601900D926F
:101140008A95E1F7FE01FA96A0E4B6E0CF01079692
:1011500021912D93E817F907D9F782E0809347068C
:10116000109248068FE0809349064FE050E06BE311
:1011700076E083EA94E00E94E02EAC0145505109EC
:101180006BE376E080E10E94702E0E94832C6093D6
:10119000BD067093BE068093BF069093C006609311
:1011A000C1067093C2068093C3069093C4068091D3
:1011B000390690913A06DC01ED91FC910480F581AD
:1011C000E02D1995892B09F43CC1CE018D599F4F13
:1011D0000E94682D049709F052C180913E0681114A
:1011E00049C10E94832C6093C1067093C20680930C
:1011F000C3069093C4061092C5061092D5061092AD
:10120000D406CD57DF4F68817981C358D0406F5FD6
:101210007F4FCF57DF4F88819981C158D0408617C3
:10122000970728F4CE0181589F4F0E94D615C158C8
:10123000DF4FE881F981CF57D040CD57DF4F88810C
:101240009981C358D040E80FF91F1082C158DF4F71
:10125000E880F980CF57D0408E010D591F4F2FEFF6
:101260003FEF40E050E0BE0166597F4FCE01CA9685
:101270000E942B170EAD1FADC957DF4F1882C758FC
:10128000D040B8016F5F7F4FAE0149575F4FCE012D
:10129000CA960E9429168AAD9BAD41E050E06BEAE8
:1012A00074E0800F911F0E94D8168E010A571F4FBD
:1012B0002FEF3FEF40E050E0BE01665C7F4FCE0174
:1012C0008D599F4F0E942B17A9960EAD1FADA99760
:1012D000E7966EAD7FADE797600F711FCA57DF4F7E
:1012E0001882C658D040AE014A575F4FCE018D5983
:1012F0009F4F0E942916E7964EAD5FADE797E396A4
:101300006EAD7FADE397A5968EAD9FADA597800F8F
:10131000911F0E94D816A9966EAD7FADA9976F5FF9
:101320007F4FA7968EAD9FADA7978617970728F496
:10133000CE018D599F4F0E94D615A596EEADFFADFB
:10134000A597A9968EAD9FADA997E80FF91F1082BA
:10135000A596CEACDFACA597F70101900020E9F788
:1013600031978F010E191F090E943B2E882381F1AE
:10137000F60101900020E9F73197EC19FD09C80149
:101380000796E80FF91FE138F10510F545E050E048
:101390006BE376E0C6010E94E02EF70120E030E02A
:1013A0002017310759F04191D901A80FB91FA75C47
:1013B000B94F12964C932F5F3F4FF2CF2550310912
:1013C000A901480F591F6BE376E080E30E94702E5D
:1013D000CE018D599F4F0E946216CE01CA960E947F
:1013E0006216CE0186599F4F0E946216CE018F5819
:1013F0009F4F0E946216CE0181589F4F0E94621635
:10140000CE0188589F4F0E946216CE0101960E941D
:10141000BD2448C00484F585E02D2FE834E03BAFBF
:101420002AAF0091CA061091CB062091CC063091CC
:10143000CD060CAF1DAF2EAF3FAFBE01665C7F4F38
:101440006FCE0E94832C0091C1061091C20620919C
:10145000C3063091C406DC01CB01801B910BA20BAB
:10146000B30B88399A43A105B10508F4A0CE8CEFDF
:101470009FEF01C090E09093D5068093D4068091B1
:10148000390690913A06DC01ED91FC910288F389CE
:10149000E02D1995A6CF8EEF9FEF9093D506809300
:1014A000D4069FCF80E0C457DF4F0FB6F894DEBF5D
:1014B0000FBECDBFDF91CF911F910F91FF90EF90A5
:1014C000DF90CF90BF90AF909F908F907F906F9064
:1014D0005F904F903F902F900895DC01ED91FC912B
:1014E000048CF58DE02D199591E089270895862FBC
:1014F000089581E08627089580E3FB01808332967A
:10150000842F82958F7090E1899F401911244A3071
:1015100014F4405D01C0495C4293482F8111F0CF23
:101520000895CB010895CF93DF93EC01E881F98111
:101530000288F389E02D19958F3F2FEF920731F044
:101540002D813E812F5F3F4F3E832D83DF91CF91D1
:1015500008958FEF9FEF089560E070E0CB0108954C
:1015600080E090E00895CB010895CF93DF93EC01E4
:1015700088899989DC01ED91FC910480F581E02D49
:101580001995892B59F088899989DC01ED91FC9195
:101590000680F781E02DDF91CF9119948FEF9FEFB7
:1015A000DF91CF910895CF93DF93EC0188899989DA
:1015B000DC01ED91FC910480F581E02D1995892BDA
:1015C00059F088899989DC01ED91FC910084F185BD
:1015D000E02DDF91CF9119948FEF9FEFDF91CF91A5
:1015E0000895AF92BF92CF92DF92EF92FF920F9346
:1015F0001F93CF93DF9300D01F92CDB7DEB78C013E
:101600005B01C12CD12C7601F80180899189DC0124
:10161000ED91FC910680F781E02D29833A834B837D
:101620005C83199529813A814B815C818F3F71F0F0
:10163000C216D306E406F5064CF4D5018D935D0180
:10164000BFEFCB1ADB0AEB0AFB0ADECFC701B601FC
:101650000F900F900F900F90DF91CF911F910F91EE
:10166000FF90EF90DF90CF90BF90AF900895DC0196
:1016700050968D919C915197DC01ED91FC910480E5
:10168000F581E02D199480E090E0089580E090E0ED
:10169000089580E090E0089580E090E00895089536
:1016A0000F931F93CF93DF938C01EB016F3F8FEF6D
:1016B000780719F480E090E00FC06A3031F46DE0F3
:1016C000F801808991890E9455306C2FF80180893A
:1016D00091890E945530CE01DF91CF911F910F91DA
:1016E00008958F929F92BF92CF92DF92EF92FF92D6
:1016F0000F931F93CF93DF9300D01F92CDB7DEB728
:101700008C014B01C12CD12C7601C216D306E40604
:10171000F50644F5F401B1904F01FAE0BF120EC096
:101720006DE0F8018089918929833A834B835C833A
:101730000E9455305C814B813A8129816B2DF801E3
:101740008089918929833A834B835C830E94553039
:10175000FFEFCF1ADF0AEF0AFF0A5C814B813A8163
:101760002981D3CFCA01B9010F900F900F900F902C
:10177000DF91CF911F910F91FF90EF90DF90CF906D
:10178000BF909F908F9008950C94CD380C94CD38D5
:10179000089508950C94CD38DC01ED91FC913697B5
:1017A00020813181820F931FF5CF0C94CD3808959D
:1017B0008CBD9DBD0895CF92DF92FF920F931F9332
:1017C000CF93DF93FC012485243009F076C06A01B1
:1017D000EB018C01F12C8F2D0E94691F811103C038
:1017E000F801F48607C08B7F8831D1F3F394F4E0DD
:1017F000FF12F1CFF8018485843009F45EC0209196
:101800000602309107022F5F3F4F11F420E030ECC9
:10181000309307022093060240910602509107027E
:1018200020E061E00E94B21EF801F4848A818F3FBB
:1018300051F48B818F3F91F48C818F3F79F48D81AE
:101840008F3F61F437C0811109C08B81811106C0BF
:101850008C81811103C08D81882361F1C114D10471
:1018600049F180E590E0A4DFBE016E5F7F4F8F2DD0
:1018700090E0982F882744E050E0845F9B4F0E94BF
:10188000C31CB6018F2D0E94171564E070E08F2DE8
:101890000E94012FC8010E946415873189F061E020
:1018A00070E080E090E00E944B2CC8010E9464151B
:1018B0008111F0CF84E0F801848780E090E002C0DD
:1018C00081E090E0DF91CF911F910F91FF90DF9029
:1018D000CF9008952F923F924F925F926F927F9296
:1018E0008F929F92AF92BF92CF92DF92EF92FF9230
:1018F0000F931F93CF93DF93CDB7DEB765970FB6E6
:10190000F894DEBF0FBECDBF7C016B013A01FB0135
:1019100020E080E090E06AE03191332309F140ED6E
:10192000430F4A3080F4689FA001699F500D112435
:10193000CA01C097830F911D37FD9A958F3F91057E
:1019400059F350F313C03E3289F4233079F0D301B8
:10195000A20FB11D12968C932F5F80E090E0DCCF38
:10196000233021F4F301858381E020C0F701428117
:101970005381648175818091E0069091E106A09188
:10198000E206B091E306481759076A077B0709F496
:101990009BC10E94832C8701085F1F4F6F707727C0
:1019A0007C5FC801EFD6813019F080E090E0F1C192
:1019B0008FE894E09A838983F70182819381A481DF
:1019C000B5818B839C83AD83BE8345E350E0BE012C
:1019D0006F5F7F4FC8010E942615892B19F4C12C17
:1019E000D12C6EC10E94832CF70177836683762702
:1019F000672776277A83698342E050E0BE016F5FF4
:101A00007F4FC8010E94201D81E090E09E878D8756
:101A100042E050E0BE01635F7F4FC8010E94201D7D
:101A200080E091E09E878D8742E050E0BE01635FD9
:101A30007F4FC8010E94201D1E861D8642E050E097
:101A4000BE01635F7F4FC8010E94201D42E050E04D
:101A5000BE01635F7F4FC8010E94201D42E050E03D
:101A6000BE01635F7F4FC8010E94201D5601F50132
:101A70008081882311F1F6015F018191811115C0E8
:101A800045018C189D081814190494F48F8641E0C0
:101A900050E0BE01615F7F4FC8010E94201DA4017C
:101AA000B601C8010E94201D03C08E3229F7E8CF7D
:101AB0006501FFEFCF1ADF0ADACF1F8641E050E061
:101AC000BE01615F7F4FC8010E94201DC12CDD2433
:101AD000D394DE86CD8642E050E0BE01635F7F4F47
:101AE000C8010E94201DDE86CD8642E050E0BE0186
:101AF000635F7F4FC8010E94201DC801E9D6892B72
:101B000009F46DCF63E0A62EB12CF2E06F0E711CCC
:101B10000E94832C1B012C01C8010E94471E18162D
:101B20001906A4F00E94832CDC01CB0182199309D1
:101B3000A409B50989389341A105B105D0F462E340
:101B400070E080E090E00E944B2CE6CFF7014281EC
:101B5000538164817581808D918DA28DB38D4817DD
:101B600059076A077B0741F4848D958DC59721F449
:101B700006C02FEF3FEF9AC02EEF3FEF97C0F7015F
:101B800081A192A10C970CF4A5C04CE050E0BE01DD
:101B90006F5F7F4FC8010E94011E8B8190E0982FDC
:101BA00088272C81822B9A8B898B298130E0322FD8
:101BB00022274A81242BF701468157814217530778
:101BC00009F085C097FF83C08F709270892B09F050
:101BD000DDC0CF80D12CDC2CCC248885C82AC11450
:101BE000D10409F4D0C0812C912C8D8190E0982FE4
:101BF00088272E81822B8816990608F46EC0812CC6
:101C0000912C41E050E0BE016D5E7F4FC8010E9403
:101C1000011E8B89982F907C09F092C0811185C09C
:101C20008B898111EECF42E050E0BE01615F7F4FB2
:101C3000C8010E94011E42E050E0BE01635F7F4F79
:101C4000C8010E94011EC8010E941F1EC8010E94F7
:101C50001F1EC8010E941F1EC8010E941F1E42E0D5
:101C600050E0BE016F5E7F4FC8010E94011E8F854C
:101C700098898115914009F068C02D853E853227ED
:101C8000232732272130310509F05FC089899A89DD
:101C90008115944009F074C044E050E0B301C801DC
:101CA0002C8B3D8B0E94011E2C893D896901F1E03E
:101CB000AF1AB10829F02FEFC216D20609F428CFC7
:101CC000C8014BD5C60165C08EEF9FEF62C02CEFF7
:101CD0003FEFECCF2DEF3FEFE9CF41E050E0BE0109
:101CE000635F7F4FC8010E94011E8D85811113C063
:101CF0008D858111F2CFC8010E941F1EC8010E946C
:101D00001F1EC8010E941F1EC8010E941F1EFFEF58
:101D10008F1A9F0A6ACF8D859FEF980F9D87882322
:101D200039F3C8010E941F1EF6CF8B899FEF980FD1
:101D30009B8B882309F474CFC8010E941F1EF5CF26
:101D4000C8010E941F1E1B8A6BCF412C512C898910
:101D50009A899827892798274816590638F4C80180
:101D60000E941F1E8FEF481A580AF1CFEFEF8E1A0C
:101D70009E0A8C149D0409F044CF26EF3FEF96CFC6
:101D800027EF3FEF93CF2AEF3FEF90CF2BEF3FEFBF
:101D90008DCF65960FB6F894DEBF0FBECDBFDF9135
:101DA000CF911F910F91FF90EF90DF90CF90BF9058
:101DB000AF909F908F907F906F905F904F903F90EB
:101DC0002F900895CF92DF92EF92FF920F931F937F
:101DD000CF93DF93CDB7DEB7AF970FB6F894DEBFE2
:101DE0000FBECDBF7C016A010FE814E01A8309839E
:101DF0001C861B8688EE93E0A0E0B0E08D879E876E
:101E0000AF87B88B87E492E09A878987188F0F8B0A
:101E1000198E1A8E1B8E1C8E84E089A31DA30CA321
:101E20001EA21FA218A619A68091D8069091D906C5
:101E3000A091DA06B091DB068CA79DA7AEA7BFA73D
:101E40008B839C83AD83BE8318861F82AE014C5D5D
:101E50005F4FCE0101963EDD81309105B1F4D7018F
:101E6000ED91FC910484F585E02D1BA70AA78EA1B6
:101E70009FA1A8A5B9A58CA79DA7AEA7BFA7A6019E
:101E8000BE01665D7F4FC7011995AF960FB6F894F6
:101E9000DEBF0FBECDBFDF91CF911F910F91FF909D
:101EA000EF90DF90CF9008952F923F924F925F92E4
:101EB0006F927F928F929F92AF92BF92CF92DF925A
:101EC000EF92FF920F931F93CF93DF93CDB7DEB7BF
:101ED000E3970FB6F894DEBF0FBECDBF7C011A01A9
:101EE0002B0139010E94832C4B015C0187010D5BA2
:101EF0001F4FC8010E94471E18161906A4F00E9421
:101F0000832CDC01CB0188199909AA09BB09281681
:101F100039064A065B06D8F062E370E080E090E0A4
:101F20000E944B2CE6CF42E250E0BE016F5F7F4F34
:101F3000C8010E94011E8981823011F080E061C1D8
:101F4000F8018489958983349105C1F702C08FEF28
:101F500058C16D817E818F8198850E9425384B0103
:101F60005C01F301608371838283938346E050E0D8
:101F7000B701685F7F4FCE014D960E946939892B6A
:101F8000E9F6F70180819181A281B38188169906D3
:101F9000AA06BB0698F284819581A681B78188152F
:101FA0009905AA05BB0550F289899A89AB89BC8934
:101FB00086879787A08BB18B8EECA82EB12CC80199
:101FC0000E941F1EF1E0AF1AB108C9F719A66701F8
:101FD00082E2C80ED11CF701B696FBA7EAA7C7019B
:101FE0008A969DA78CA73C974F0189969FA78EA79D
:101FF0003897F9ABE8AB1701F6E12F0E311CC59706
:102000009BAB8AABF801818D928D181619060CF0E6
:10201000F7C0C8010E941F1E8333910509F4CBC08D
:10202000FCF481309105C9F11CF4892B59F3DCC013
:1020300083309105D1F1069709F0D6C0C8010E94FE
:102040001F1E5C0144E050E06AA97BA9C8010E9400
:10205000011E412C512CBB24F4E0AF1AB10840C042
:102060008A33910509F47BC03CF48533910569F00E
:10207000C69709F440C0B8C08B33910509F485C0F8
:102080008F3F910509F4BECFAFC0C8010E941F1E4B
:10209000C8010E941F1E89A7B5CFC8010E941F1E3C
:1020A00044E050E068A979A93AC0C8010E941F1E07
:1020B0005C0144E050E0B101C8010E94011E412CC6
:1020C000512CBB2494E0A91AB1084A145B040CF00B
:1020D00099CFC8010E941F1EEFEF4E1A5E0AF5CF7E
:1020E0004A145B040CF08ECFC8010E941F1E8FEFB4
:1020F000481A580AF5CFC8010E941F1EB82EF701D2
:10210000828D811110C0838D81110DC0848D81114C
:102110000AC0858D811107C044E050E0B401C801B8
:102120000E94011E6FCFEEA5FFA540805180628006
:102130007380B401CE0183960E945B2B8DA19EA17A
:10214000AFA1B8A584159505A605B70529F3BB2051
:1021500009F458CFC8010E941F1EBA94F8CFC801D5
:102160000E941F1E44E050E06AA57BA5C8010E94A2
:10217000011EF70166A177A180A591A50E942538CF
:1021800066A377A380A791A73DCFC8010E941F1E19
:1021900044E050E06CA57DA5C8010E94011EF70136
:1021A00062A573A584A595A50E94253862A773A78B
:1021B00084A795A727CFC8010E941F1E44E050E0C6
:1021C000B601C8010E94011EF70162A173A184A19A
:1021D00095A10E94253862A373A384A395A366A743
:1021E00077A780AB91AB0ECFC8010E941F1EB82EFF
:1021F000BB2009F407CFC8010E941F1EBA94F8CF74
:1022000089A5E3960FB6F894DEBF0FBECDBFDF9170
:10221000CF911F910F91FF90EF90DF90CF90BF90E3
:10222000AF909F908F907F906F905F904F903F9076
:102230002F9008957F928F929F92AF92BF92CF92EC
:10224000DF92EF92FF920F931F93CF93DF93CDB75F
:10225000DEB7A6970FB6F894DEBF0FBECDBF8C01D8
:10226000762E942E852E20E2B22ECE0101967C0190
:10227000FC012B2D11922A95E9F78FE894E09AA39F
:1022800089A38FEF8BA38CA38DA38EA3680183E416
:10229000C80ED11C43E450E0BE016F5D7F4FC60104
:1022A000D5D3019609F4BBC081E089838A8386E097
:1022B000A82EAB821C82F80164817581868197818A
:1022C0000E9425386D837E838F83988789869A86BE
:1022D00080E890E09C878B874CE150E0B701C60115
:1022E0000E94201DF7012B2D11922A95E9F7480134
:1022F00088E0880E911CF401D70101900D92AA94F8
:10230000E1F740E150E0B701C6010E94201DF7014E
:102310001192BA94E9F796E0A92EB12C40E250E070
:10232000B701C6010E94201DF1E0AF1AB108B1F754
:1023300083E6898392E89A8393E59B838C8385E384
:102340008D8381E08E837F829DE3988797E09987D4
:102350008A8786E0F401DE011B9601900D928A9532
:10236000E1F78CE0898B8A8B6DEA74E0CE014396AD
:102370000E948739F8014385BE01675E7F4FC8011F
:10238000BBD8F8014485BE01655E7F4FC801B4D853
:10239000F8014585BE01635E7F4FC801ADD84EE1AF
:1023A00050E0B701C6010E94201DF3E07F121EC05D
:1023B00082E3898384E08A83F80196859B839785ED
:1023C0009C8390899D8391899E8396E39F838887D0
:1023D000828D8987838D8A87848D8B87858D8C8775
:1023E0004CE050E0B701C6010E94201D87E38983BD
:1023F00086E08A8391E09B8393E09C838D838FE0CA
:102400008E838AE38F838BE388878FEF898749E008
:1024100050E0B701C6010E94201DC60159D2A69600
:102420000FB6F894DEBF0FBECDBFDF91CF911F91E5
:102430000F91FF90EF90DF90CF90BF90AF909F9063
:102440008F907F9008951F93CF93DF93EC01162F09
:102450008F8580FF0BC0E881F9810084F185E02D34
:1024600020E144E060E070E0CE011995EB85FC8549
:102470002D853E85812F90E0E217F30758F41083F5
:102480002B853C852F5F3F4F3C872B87DF91CF917A
:102490001F910895E881F981028CF38DE02DBC0134
:1024A000CE01DF91CF911F911994AF92BF92CF923D
:1024B000DF92EF92FF920F931F93CF93DF9300D0A1
:1024C0001F92CDB7DEB78C015B01C12CD12C7601F8
:1024D000C216D306E406F506ACF4F50161915F017E
:1024E000C80129833A834B835C83ADDF29813A811C
:1024F0004B815C81019649F06FEFC61AD60AE60A55
:10250000F60AE6CFB901CA0102C0B601C7010F90B1
:102510000F900F900F90DF91CF911F910F91FF902F
:10252000EF90DF90CF90BF90AF90089508950895F9
:10253000FB0120813181FC0131832083FB01428139
:102540005381F901369720813181FC01E20FF31F9D
:1025500051834083089525E734E0FC0131832083D3
:102560002FE734E0358B248B65E874E0E1CFDC01A4
:10257000ED91FC91369720813181820F931FEBCF33
:10258000CF93DF93EC01E7DFCE01DF91CF910C9485
:10259000CD38DC01ED91FC91369720813181820F9D
:1025A000931FEECFDB012D913C911197FC013183FC
:1025B0002083F901369720813181FC01E20FF31F5E
:1025C00012968D919C9113979183808381E290E084
:1025D00094838383548B438B1582158A08950895C1
:1025E000FC01818D928D0895FC018489958908955F
:1025F0002FE834E0FC0131832083FB0140895189BD
:1026000062897389FC0142835383648375830895CF
:10261000DC01ED91FC91028CF38DE02D199480E0AA
:102620000895FC019485FB018485981303C081E023
:10263000943009F480E0089521E0FC018485843021
:1026400009F420E0822F08950895CF93DF931F921D
:10265000CDB7DEB76983DC01ED91FC910280F38197
:10266000E02D41E050E0BE016F5F7F4F19950F9064
:10267000DF91CF910895CF92DF92EF92FF920F9367
:102680001F93CF93DF93CDB7DEB7AF970FB6F89414
:10269000DEBF0FBECDBF7C016A010FE814E01A83D4
:1026A00009831C861B8688EE93E0A0E0B0E08D874E
:1026B0009E87AF87B88B87E492E09A878987188FC7
:1026C0000F8B198E1A8E1B8E1C8E84E089A31DA37E
:1026D0000CA31EA21FA218A619A68091D80690913D
:1026E000D906A091DA06B091DB068CA79DA7AEA70C
:1026F000BFA78B839C83AD83BE8318861F82AE01E8
:102700004C5D5F4FCE010196E5D881309105B1F463
:10271000D701ED91FC910288F389E02D1BA70AA750
:102720008EA19FA1A8A5B9A58CA79DA7AEA7BFA75D
:10273000A601BE01665D7F4FC7011995AF960FB622
:10274000F894DEBF0FBECDBFDF91CF911F910F91E7
:10275000FF90EF90DF90CF900895CF93DF93EC013F
:10276000888D843061F00E949E1EE88DF0E0EE0FAF
:10277000FF1FE957FA4F1182108284E0888FDF91A2
:10278000CF910895EF92FF921F93CF93DF93FC01B7
:10279000208D243011F080E01CC07B01EC0110E0A2
:1027A000812F0E94691F811102C0188F05C08831D6
:1027B000E1F31F5F1430A1F7888D843061F3FD864B
:1027C000EC861A8E198E20E0A70162E00E94B21EEC
:1027D00081E0DF91CF911F91FF90EF9008950F93CB
:1027E0001F93CF93DF931F92CDB7DEB78C01DC012F
:1027F000ED91FC910480F581E02D1995892B51F024
:10280000BE016F5F7F4FF80184850E94581D89814A
:1028100090E002C08FEF9FEF0F90DF91CF911F915B
:102820000F910895FC0184850C94B01DCF93DF9324
:102830001F92CDB7DEB741E050E0BE016F5F7F4F22
:10284000FC0184850E94B01D181619061CF48981AC
:1028500090E002C08FEF9FEF0F90DF91CF9108952E
:10286000FC018485843011F00C94901D80E090E090
:1028700008959B0190E00496982F8827642F820F7B
:10288000931F0C94EC1C0F931F93CF93DF931F9215
:10289000CDB7DEB790E00496982F88278C01060FFD
:1028A000171F0E94601C8FE00E94921C812F0E94C3
:1028B000921C802F0E94921C80E00E94921C8983AF
:1028C000FDD789810F90DF91CF911F910F910895CE
:1028D000CF93FC01C08D80E590E00E94D80B60E2B0
:1028E00070E08C2F0E94012F62E070E08C2FCBDF14
:1028F00084FD17C062E070E08C2FC5DF83FF0AC043
:1029000048E162E070E08C2FB4DF0E94D70B80E0DA
:1029100090E010C00E94D70B80E590E00E94D80B99
:10292000E3CF40E162E070E08C2FA3DF0E94D70B81
:1029300081E090E0CF9108958F929F92AF92BF92E5
:10294000CF92DF92EF92FF920F931F93CF93DF937B
:102950006C015B017A01FC01C485C43041F481E063
:1029600090E0F6019383828380E090E053C08A0177
:102970004130584010F000E018E080E590E00E94FF
:10298000D80B8C2F0E94762F4C0163E070E08C2FC7
:102990007ADFD82F0E94D70BD73111F0DC3121F428
:1029A0008016910650F302C000E010E080E590E050
:1029B0000E94D80B9801A50160E070E08C2F0E9466
:1029C000112F60E270E08C2F0E94012F62E070E016
:1029D0008C2F59DF84FD13C063E070E08C2F53DF30
:1029E000811106C00E94D70B8C2F0E949E1EB7CF6C
:1029F0000E94D70B80E590E00E94D80BE7CF40E122
:102A000062E070E08C2F35DF0E94D70B012B09F4B8
:102A1000A6CFC701DF91CF911F910F91FF90EF904B
:102A2000DF90CF90BF90AF909F908F900895CF93FD
:102A3000DF93C82FD62F472F60E170E01ADF4D2FAC
:102A400061E170E08C2FDF91CF9113CFFF920F9354
:102A50001F93CF93DF93FB01DC0157961C921E92CC
:102A600056975896FC908281811109C0838181110B
:102A700006C08481811103C085818823E9F0411556
:102A80005105D1F08A01EF0180E590E00E94D80B5A
:102A9000BE016E5F7F4F2F2D30E0922F882744E0DC
:102AA00050E0845F9B4F6FD7B8018F2DC0DF0E942D
:102AB000D70B81E090E002C080E090E0DF91CF9101
:102AC0001F910F91FF900895FC018485843011F0CF
:102AD0000C94691F80E00895CF93DF93FC01248557
:102AE0002430C9F0EC01F0DF843181F0882371F0EB
:102AF000883161F08C3161F4E881F9810480F581DD
:102B0000E02DCE01199521E0892B19F420E001C0B8
:102B100021E0822F01C080E0DF91CF910895CF9214
:102B2000DF92EF92FF921F93CF93DF93FC01148506
:102B30001430A1F1EC0180E590E00E94D80B68E030
:102B400070E0812F0E94012F0E94D70B0E94832CDE
:102B50006B017C01CE01B8DF8823B1F061E070E049
:102B600080E090E00E944B2C0E94832CDC01CB0182
:102B70008C199D09AE09BF09883E9340A105B10596
:102B800048F38C850E949E1EEC85F0E0EE0FFF1F3F
:102B9000E957FA4F1182108284E08C87DF91CF9140
:102BA0001F91FF90EF90DF90CF9008950F931F93A8
:102BB000CF93DF93EC01CB01088119817B836A837A
:102BC0000E9438389983888320E030E08C819D8191
:102BD0002817390770F4E881F981E20FF31F309765
:102BE00029F0D801A20FB31F8C9180832F5F3F4F34
:102BF000EDCFC801DF91CF911F910F910C94CD388B
:102C00000F931F93CF93DF93FC0104811581FB0188
:102C1000C481D581AE010C171D0708F4A801FB0182
:102C200060817181FC01808191810E948E390097C1
:102C300029F40C171D0738F080E006C0892F881F83
:102C40008827881F01C081E0DF91CF911F910F91EC
:102C50000895EF92FF920F931F93CF93DF93EC01B0
:102C60008C819D818617970708F57A018B018A81EF
:102C70009B818617970738F4685F7F4F8617970701
:102C800010F4CE0193DF8C819D818017910758F459
:102C9000E881F981E80FF91F309719F0D7012C91DD
:102CA00020830196F2CF1D830C8305C06817790736
:102CB00010F47D836C83DF91CF911F910F91FF9072
:102CC000EF900895FC01808191810C94CD38CF93D1
:102CD000DF93EC010796F6DFCE01DF91CF91F2CFC3
:102CE0000F931F93CF93DF93EC018C819D81E8813B
:102CF000F981892B21F10280F381E02DF983E883AA
:102D00000190F081E02D048115810115110529F054
:102D1000C801DDDFC8010E94CD38E881F9818081DA
:102D20009181009711F00E94CD38E881F9811182DC
:102D300010828C819D8101979D838C83D6CF0481E5
:102D400015810115110529F0C801C1DFC8010E94D4
:102D5000CD3888819981009731F0DF91CF911F9113
:102D60000F910C94CD38DF91CF911F910F91089561
:102D7000CF93DF93EC0188E090E09B838A831D82F0
:102D80001C820E94383899838883DF91CF910895FF
:102D900023EB33E0FC01318320830396A1CFCF9353
:102DA000DF93EC01F5DFCE01DF91CF910C94CD38AC
:102DB000CF92DF92EF92FF920F931F93FB01DC0102
:102DC00000E010E098016A01E12CF12C0C151D05C2
:102DD0002E053F0538F461916D930F5F1F4F2F4F04
:102DE0003F4FF4CF840F951F1F910F91FF90EF90ED
:102DF000DF90CF900895EF92FF920F931F93CF93A0
:102E0000DF931F92CDB7DEB78C017B01681779077E
:102E1000C9F0FC0184819581892B11F015821482FF
:102E2000F701648175811982AE014F5F5F4FC80160
:102E300010DFF7014481558160817181F801808143
:102E40009181B6DFC8010F90DF91CF911F910F9153
:102E5000FF90EF9008958F929F92AF92BF92CF9282
:102E6000DF92EF92FF920F931F93CF93DF931F9206
:102E7000CDB7DEB76C015B017A014901B80178DF9B
:102E8000D5011496ED91FC911597EE15FF0510F400
:102E90000E9465391982BF016E197F09861697064F
:102EA00008F4B401AE014F5F5F4FC601D2DEF601F8
:102EB00044815581D5016D917C916E0D7F1D80817E
:102EC000918176DF0F90DF91CF911F910F91FF904D
:102ED000EF90DF90CF90BF90AF909F908F9008952C
:102EE0004F925F926F927F928F929F92AF92BF921A
:102EF000CF92DF92EF92FF920F931F93CF93DF93C6
:102F0000CDB7DEB7C854D1090FB6F894DEBF0FBEF7
:102F1000CDBF4C017B0181E290E09AA389A31BA263
:102F20001CA21DA286E090E0A0E0B0E08EA39FA3CB
:102F3000A8A7B9A71AA61BA61CA61DA68BE494E0F9
:102F40009F8F8E8F80E28EA718AA1FA66E0123E0A6
:102F5000C20ED11CDAAAC9AA1BAAA60165EA72E0B0
:102F6000CE0101961FDB81EB92E09A8389838BEB84
:102F700092E09F8F8E8F1F821E82198618861B8675
:102F80001A861D861C861F861E86198A188A1A8A2A
:102F90008DE692E09C838B838E010C5C1F4FB80101
:102FA000CE014396E5DE1B8E1A8E1D8E1C8E80E1AF
:102FB0008A8B3701E12CF12C24EBA22E24E0B22ED7
:102FC00034E1532EF30141903F01E981FA813697B4
:102FD0000190F081E02D329621E030E02C0F3D1F72
:102FE000E20FF31F818192818F71806292838183CE
:102FF000E981FA8136970190F081E02D3296E20F57
:10300000F31F81819281946092838183B901CE0103
:10301000885B9F4F0E949F23E981FA813697019038
:10302000F081E02DEC0DFD1D8181928185FD18C0A0
:1030300086FF05C092FD17C08FEB94E01FC087FF8D
:1030400015C09C012227307292FF05C0232B89F402
:1030500088EC94E013C0232B79F481ED94E00EC04A
:1030600086EB94E00BC08AEB94E008C080E090E02F
:1030700005C083EC94E002C08DEC94E01F921F9297
:103080001F924F929F938F931F925F921F930F9364
:103090000E949C399C01990F440B550BB801CE013D
:1030A00001960E94FE22E981FA8136970190F08113
:1030B000E02DEC0DFD1D818192810FB6F894DEBFED
:1030C0000FBECDBF96FF04C0CE0101960E94D9224B
:1030D000B501CE0101960E94C823FFEFEF1AFF0A47
:1030E00028E0E216F10471F037E0E316F10429F468
:1030F0009BE1A92E95E0B92E65CF84EBA82E84E044
:10310000B82E60CF2FEF3FEF40E050E0BE016D5E84
:103110007F4FC401A0DECE0101960E94C521C401EB
:10312000C85BDF4F0FB6F894DEBF0FBECDBFDF9197
:10313000CF911F910F91FF90EF90DF90CF90BF90B4
:10314000AF909F908F907F906F905F904F90089579
:10315000CF92DF92EF92FF920F931F93CF93DF9363
:103160001F92CDB7DEB77C016B018E010F5F1F4F41
:103170002FEF3FEF40E050E06EDEF6018781908553
:10318000F701908787830F90DF91CF911F910F9167
:10319000FF90EF90DF90CF900895EF92FF920F9302
:1031A0001F93CF93DF931F92CDB7DEB77C018E01C3
:1031B0000F5F1F4F2FEF3FEF40E050E04CDEC701A5
:1031C0000F90DF91CF911F910F91FF90EF90089595
:1031D000CF92DF92EF92FF920F931F93CF93DF93E3
:1031E0001F92CDB7DEB76C017B018E010F5F1F4FC1
:1031F0002FEF3FEF40E050E02EDEB701695F7F4FD9
:103200002FEF3FEF40E050E0C601079624DE0F901D
:10321000DF91CF911F910F91FF90EF90DF90CF90B2
:103220000895EF92FF920F931F93CF93DF931F9216
:103230001F92CDB7DEB77C01FC0111821082138290
:103240001282158214828EE090E069837A830E9454
:1032500038388C0169817A81BBDFF70115830483DB
:103260000F900F90DF91CF911F910F91FF90EF90F2
:103270000895AF92BF92CF92DF92EF92FF920F9399
:103280001F93CF93DF93CDB7DEB765970FB6F89452
:10329000DEBF0FBECDBF8C017B015A01DB01119651
:1032A0008D919C911297F80192838183F801A181FD
:1032B000B281F701838194818A179B0749F1C08409
:1032C000D18414966D917C911597CE01019680DF83
:1032D000BE016F5F7F4FCE010F96F6011995B501C4
:1032E000CE010F968DDCD82ECE010F96EBDCCE01F1
:1032F0000196EDDCDD2061F0D8011196ED91FC9195
:1033000012978281938112969C938E931197CECFC0
:10331000C80165960FB6F894DEBF0FBECDBFDF9132
:10332000CF911F910F91FF90EF90DF90CF90BF90C2
:10333000AF900895CF92DF92EF92FF920F931F9379
:10334000CF93DF93CDB7DEB7C654D1090FB6F8944B
:10335000DEBF0FBECDBF7C016B01AB01BC01CE0156
:103360008D5B9F4F86DF2696EEADFFAD2697D7018A
:1033700013968D919C9114978E179F0739F0648155
:103380007581C6013DDC882309F47EC0BE016A5BFD
:103390007F4FCE01C996ECDC8E010F5F1F4F2FEFE0
:1033A0003FEF40E050E0B601CE014D9654DD2FEFE7
:1033B0003FEF40E050E0BE01675C7F4FCE01849656
:1033C0004ADDF70100851185BE01635E7F4FCE01A6
:1033D0000196FEDEBE016F5F7F4FCE010F96F801B2
:1033E0001995AE01415F5F4FB701CE01805C9F4FE1
:1033F00040DFCE010F9666DCCE01019668DC239695
:10340000AEADBFAD2397F70183819481A817B907AB
:1034100009F076C0F70185819681892B09F04BC0B0
:1034200086E090E00E9438388C01BE01635E7F4FD9
:10343000F8DED70112961C930E9311971396ED9117
:10344000FC91149711830083D80111961C921E924F
:103450001396FC93EE93129781E090E0F701968328
:103460008583D7011396ED91FC911497908181810A
:1034700025969FAF259726968FAF2697CE014D961E
:1034800026DCCE01C9961EDC2696EEADFFAD269752
:10349000848195810796CA5BDF4F0FB6F894DEBF33
:1034A0000FBECDBFDF91CF911F910F91FF90EF9095
:1034B000DF90CF90089586E090E00E9438388C012C
:1034C000BE01635E7F4FADDED7011396ED91FC9197
:1034D000149780819181D80111969C938E931396B5
:1034E000FC93EE931297A081B18113961C930E93D7
:1034F000129711830083F701858196810196AFCFE2
:10350000F7010085118514966D917C911597CE0178
:1035100001965EDEBE016F5F7F4FCE018B96F80194
:103520001995D70118960D911C911997BE01635EEC
:103530007F4FCE010F964CDEBE01615F7F4FCE0103
:10354000C296F8011995BE01655D7F4FCE01C29606
:1035500057DB182FCE01C296B5DBCE010F96B7DB35
:10356000CE018B96AFDBCE010196B1DB2396CEACBC
:10357000DFAC2397112371F186E090E00E94383888
:103580008C01BE01635E7F4F4CDED6018D919C9114
:10359000F80191838083D382C282892B31F4D701D1
:1035A00012961C930E93119705C0D601ED91FC91D4
:1035B00013830283F60111830083D70115968D9141
:1035C0009C911697019616969C938E931597902F23
:1035D000812F4ECF9C2D8D2D4BCFAF92BF92CF928E
:1035E000DF92EF92FF920F931F93CF93DF931F927F
:1035F000CDB7DEB76C017B01BA01BADBE114F1048F
:10360000E1F0F70101900020E9F731978F010E19E1
:103610001F09F601A480B5801982B8016A0D7B1DCF
:10362000AE014F5F5F4FC60114DBF60180819181CF
:10363000A801B7018A0D9B1DBBDB0F90DF91CF91D5
:103640001F910F91FF90EF90DF90CF90BF90AF90C0
:103650000895CF92DF92EF92FF920F931F93CF9333
:10366000DF93CDB7DEB760970FB6F894DEBF0FBE1D
:10367000CDBF8C016B017A01FC011086178286E0B8
:1036800090E00E943838DC0111961C921E9213962D
:103690001C921E92129715961C921E921497F80176
:1036A000948383839683858380EA91E293878287DC
:1036B0008BE993E09183808388E0F601D8011C9622
:1036C00001900D928A95E1F7F801F58AE48AAE013E
:1036D000405F5F4F65ED74E0CE0108967EDFAE017E
:1036E000415F5F4F6AED74E0CE01019676DFBE0167
:1036F0006F5F7F4FC80102961DDEBE01685F7F4F7E
:103700007ADBCE010196DEDACE010896DBDA60962E
:103710000FB6F894DEBF0FBECDBFDF91CF911F91E2
:103720000F91FF90EF90DF90CF9008950F931F932C
:10373000CF93DF931F92CDB7DEB78C01AE014F5F01
:103740005F4F60EE74E049DFC8010F90DF91CF91C9
:103750001F910F9108950F931F93CF93DF931F92A3
:10376000CDB7DEB78C01AE014F5F5F4F68EE74E0FE
:1037700034DFC8010F90DF91CF911F910F91089511
:103780006F927F928F929F92AF92BF92CF92DF9271
:10379000EF92FF920F931F93CF93DF93CDB7DEB7D6
:1037A00065970FB6F894DEBF0FBECDBF6C017B01ED
:1037B0005A01FB0103811481F701858196818017ED
:1037C000910741F43801F7018581968180179107AF
:1037D00011F542C0F70182849384F80164817581F8
:1037E000CE010196F5DCBE016F5F7F4FCE010F96D3
:1037F000F4011995B501CE010F9602DA982ECE018B
:103800000F9660DACE01019662DA9920D9F2F801BA
:1038100002811381D1CFF70182849384F8016481FE
:103820007581CE010196D4DCBE016F5F7F4FCE0162
:103830000F96F4011995BE01615F7F4FC501E0D974
:10384000182FCE010F963EDACE01019640DA1123F1
:1038500019F0F70165807680F701858196818615DC
:10386000970541F4AE014F5F5F4F6BE175E0C60114
:10387000B4DE0EC0F30164817581695F7F4F8E01F4
:103880000F5F1F4F2FEF3FEF40E050E0C601E3DA3C
:10389000C60165960FB6F894DEBF0FBECDBFDF91AF
:1038A000CF911F910F91FF90EF90DF90CF90BF903D
:1038B000AF909F908F907F906F9008952C9A08956D
:1038C0002C9808951F93CF93DF93182F66E270E032
:1038D0000E944314C82FD0E067E270E0812F0E945D
:1038E0004314DC2FCC279E01282BC901DF91CF91F7
:1038F0001F9108951F93CF93DF93182F60E270E01C
:103900000E944314C82FD0E061E270E0812F0E9432
:103910004314DC2FCC279E01282BC901DF91CF91C6
:103920001F9108958EBD00000DB407FEFDCF8EB52A
:103930000895CF92DF92EF92FF920F931F93CF9350
:10394000DF93EC017A018B016C01C40ED51ECC15FE
:10395000DD0579F0B5DF8FE0E5DF8D2FE3DF8C2F1C
:10396000E1DF219680E0DEDFF80181938F01A6DFA1
:10397000EECFC701DF91CF911F910F91FF90EF9094
:10398000DF90CF900895CF92DF92EF92FF920F9346
:103990001F93CF93DF93EC017A018B016C01C40E6E
:1039A000D51ECC15DD0571F08BDF80EFBBDF8D2FD1
:1039B000B9DF8C2FB7DF2196F80181918F01B2DF3B
:1039C0007DDFEFCFC701DF91CF911F910F91FF9066
:1039D000EF90DF90CF9008951F93CF93DF931F92C6
:1039E0001F92CDB7DEB7182F6A83998369DF80EF06
:1039F00099DF9981892F96DF812F94DF6A81862F45
:103A000091DF5CDF81E00F900F90DF91CF911F91EC
:103A100008950895CF93DF931F92CDB7DEB76983E2
:103A2000DC01ED91FC910280F381E02D41E050E05A
:103A3000BE016F5F7F4F19950F90DF91CF91089571
:103A4000AF92BF92CF92DF92FF920F931F93CF93CB
:103A5000DF938C015B01EA01FC01C688D788F08CFA
:103A600080E590E00E94D80B8F2D0E94762F8C1756
:103A70009D0720F48F2D0E94762FEC019E01A50159
:103A8000B6018F2D0E94112F0E94D70BF801868955
:103A900097898C0F9D1F978B868BCE01DF91CF91DD
:103AA0001F910F91FF90DF90CF90BF90AF9008953E
:103AB0001F93CF93DF931F921F92CDB7DEB7182FBE
:103AC00080E590E069837A830E94D80B21E041E091
:103AD00050E069817A81812F0E94922F0E94D70B3A
:103AE00081E090E00F900F90DF91CF911F910895AA
:103AF000CF93DF931F92CDB7DEB7FC01218D328DBE
:103B0000232B41F0BE016F5F7F4F808DD1DF898114
:103B100090E002C08FEF9FEF0F90DF91CF9108955B
:103B2000FF920F931F93CF93DF93F82E80E590E0E1
:103B30000E94D80BC0E0D0E08F2DC4DE8C01892B11
:103B400019F08F2DBFDEEC01C017D107A9F70E9435
:103B5000D70BCE01DF91CF911F910F91FF90089568
:103B6000AF92BF92CF92DF92EF92FF921F93CF93CB
:103B7000DF93182F5B017A0180E590E00E94D80B5B
:103B8000C0E0D0E0812F9EDE6C01892B19F0812FDF
:103B900099DEEC01CC15DD05A9F7209799F463E0D7
:103BA00070E0812F0E9443148431F1F08823E1F00A
:103BB000C1E0D0E08C3111F4C0E0D0E0D195C195E6
:103BC000D10912C0EC16FD060CF4E7011C161D0607
:103BD0005CF420E0AE01B501812F0E94922F60E4D9
:103BE00070E0812F0E94012F0E94D70BCE01DF9140
:103BF000CF911F91FF90EF90DF90CF90BF90AF904B
:103C00000895CF93DF93FC01218D328D211531056D
:103C100019F48FEF9FEF10C0EC014217530708F023
:103C2000A901888D9DDF181619069CF7298D3A8DFC
:103C3000281B390B3A8F298FDF91CF9108950F936D
:103C40001F93CF93DF931F92CDB7DEB7FC01218D79
:103C5000328D232B59F08C0141E050E0BE016F5FA3
:103C60007F4F808D7DDF181619061CF08FEF9FEFB8
:103C700008C0F801818D928D0197928F818F898183
:103C800090E00F90DF91CF911F910F9108950F93C6
:103C90001F93CF93DF93CDB7DEB728970FB6F89475
:103CA000DEBF0FBECDBF8C01F801818D928D892BB7
:103CB00049F0D801ED91FC910680F781E02DC80113
:103CC0001995F2CF808D2CDF1816190654F548E0AF
:103CD00050E0BE016F5F7F4FD80158968C9140DF56
:103CE0009C0118161906DCF489819A81AB81BC818C
:103CF000F801808B918BA28BB38B8D8190E0982FF4
:103D000088272E81820F911D958B848B2F8130E027
:103D1000322F22278885280F311D328F218FC9012C
:103D200002C080E090E028960FB6F894DEBF0FBE88
:103D3000CDBFDF91CF911F910F910895CF93C82FE1
:103D400080E590E00E94D80B60E170E08C2F0E942B
:103D5000012F4FEF62E070E08C2F0E943914CF9159
:103D60000C94D70BFF920F931F93CF93DF931F9267
:103D70001F92CDB7DEB7F82E8A012A836983DEDF72
:103D800080E590E00E94D80B2A816981462F422B62
:103D900060E070E08F2D0E9439140115110551F477
:103DA00000918F05109190050F5F1F4F10939005A4
:103DB00000938F05412F64E070E08F2D0E9439142D
:103DC000402F65E070E08F2D0E94391461E070E0B3
:103DD0008F2D0E94012F0E94D70B81E00F900F9032
:103DE000DF91CF911F910F91FF900895BF92CF92D5
:103DF000DF92EF92FF920F931F93CF93DF9300D048
:103E000000D0CDB7DEB7FC01208D243009F050C0C2
:103E10006A017B018C01B12C63E070E08B2D0E9464
:103E20004314811103C0F801B08E06C08831D9F364
:103E3000B394F4E0BF12F0CFF801808D8430C1F16B
:103E400096E0E9E8F2E0DE01119601900D929A9574
:103E5000E1F7F70193819F779C8394819D839581FE
:103E60009E83B7016E5F7F4F90E0982F882744E0D4
:103E700050E0845F9B4F87DDB601F801808D0E9482
:103E80001715F801808D90E0982F882746E050E0C4
:103E9000BE016F5F7F4F8A5F9B4F75DDF801128E09
:103EA000118E20E8A60162E0808D5CDF81E001C018
:103EB00080E026960FB6F894DEBF0FBECDBFDF912F
:103EC000CF911F910F91FF90EF90DF90CF90BF9017
:103ED00008951F93CF93DF931F92CDB7DEB7182FAE
:103EE00080E590E00E94D80B63E070E0812F0E9493
:103EF000431489830E94D70B89810F90DF91CF9162
:103F00001F910895FC018789908D009769F124899C
:103F100035892817390718F4308F278B25C001976A
:103F20006F3F2FEF720729F4908F878B80E090E02E
:103F30000895A089B1899B01215031092F3F310596
:103F400048F4262FA80FB91F3C91231305C0908F6A
:103F5000878B08C020E0F6CF278524FF05C0908F0F
:103F6000878B6C93CB0108958FEF9FEF0895CF93CC
:103F7000DF93EC01E881F9810288F389E02D19953E
:103F80008F3F2FEF920731F02F89388D2F5F3F4FF2
:103F9000388F2F8BDF91CF910895FC012789308DC9
:103FA000848995892817390740F480899189FC0113
:103FB000E20FF31F808190E008958FEF9FEF089547
:103FC000EF92FF92CF93DF93FC01DB0160E070E0A2
:103FD000CB01E788F08CC489D589EC16FD06A8F4DE
:103FE000621773078407950784F4C089D189CE0DC1
:103FF000DF1DC881CD936F5F7F4F8F4F9F4FC78964
:10400000D08D2196D08FC78BE4CFDF91CF91FF90D9
:10401000EF900895FC01848995892789308D821B52
:10402000930B089580E090E00895242FDC01ED913A
:10403000FC910084F185E02D41E019940895EF9200
:10404000FF920F931F93CF93DF931F92CDB7DEB7ED
:104050008C017B016F3F7F4F19F480E090E028C016
:10406000F801878584FF22C0F801818D928D6489D3
:1040700075898617970758F0E9826F5F7F4FAE0109
:104080004F5F5F4FC80140960E94291607C0F80194
:1040900020893189F901E80FF91FE082F801818D4B
:1040A000928D0196928F818FC70102C08FEF9FEF93
:1040B0000F90DF91CF911F910F91FF90EF90089596
:1040C000EF92FF920F931F93CF93DF931F92CDB781
:1040D000DEB7FC01922F9870822F807128712831F1
:1040E00019F44230A9F43BC0413011F48B0116C0E1
:1040F000423081F4882329F004891589060F171F9F
:1041000002C000E010E0992349F00789108D04C037
:10411000413061F304891589060F171F24893589F9
:1041200020173107E0F0992311F0108F078B8823B7
:10413000A1F07F011982AE014F5F5F4FB801CF013F
:1041400040960E942916F701848995892789308D28
:104150008217930710F4908F878BC80102C08FEFEE
:104160009FEF0F90DF91CF911F910F91FF90EF90F4
:1041700008952DE632E0FC013183208340960C94B3
:1041800062162F923F924F925F926F927F928F9220
:104190009F92AF92BF92CF92DF92EF92FF920F93D6
:1041A0001F93CF93DF93CDB7DEB72D970FB6F8945B
:1041B000DEBF0FBECDBF6C018B0119012A01490181
:1041C000FC01A18CB28CBE01655F7F4FCE010196D0
:1041D0000E94B816FFEF2F163F0611F40E946539B2
:1041E0000115110581F01A86AE01465F5F4FB101DE
:1041F000CE0101960E9429164D815E81B801898108
:104200009A810E94D816F601048915890A151B05A2
:1042100028F398012A193B0971012815390508F47A
:1042200079016D807E800E191F09C30180959095DC
:104230000817190798F6060D171DC60140964C0180
:10424000E614F70458F41886AE01485F5F4FB801D2
:104250002C873D870E9429163D852C85F601808993
:104260009189A9014E195F09B7016A0D7B1D680F7D
:10427000791FF301EA0DFB1D8E0F9F1F0E947639F7
:1042800069817A81F60180899189A3018A0D9B1D3C
:104290000E94D8161986AE01475F5F4FB801C4016E
:1042A0000E942916CE0101960E946216F601818DA8
:1042B000928D820D931D928F818FC201B1012D9637
:1042C0000FB6F894DEBF0FBECDBFDF91CF911F9127
:1042D0000F91FF90EF90DF90CF90BF90AF909F90A5
:1042E0008F907F906F905F904F903F902F900895A8
:1042F000CF93DF93EC01E881F98136970190F0814B
:10430000E02DE80FF91F838994890E9423120196FA
:1043100099F4E881F98136970190F081E02DEC0F56
:10432000FD1F8581982F926023893489232B11F0FA
:10433000958302C083608583CE01DF91CF9108957C
:10434000EF92FF920F931F93CF93DF931F92CDB7FE
:10435000DEB77C018E010F5F1F4F2FEF3FEF40E074
:1043600050E00E942B17C7010F90DF91CF911F9152
:104370000F91FF90EF900895CF93DF93EC01F9DE5A
:10438000CE01DF91CF910C94CD38CF93DF93EC0128
:1043900081EB92E0998388838BEB92E09E8F8D8FE7
:1043A000CE010296E6DE65EA72E0CE01DF91CF91A2
:1043B0000C949812DC01ED91FC91369720813181AB
:1043C000820F931FE2CFCF93DF93EC01DEDFCE01AC
:1043D000DF91CF910C94CD38DC01ED91FC913697B3
:1043E00020813181820F931FEECFEF92FF920F93C6
:1043F0001F93CF93DF931F921F92CDB7DEB77C013F
:10440000FC0111821082138212821582148289E0CB
:1044100090E069837A830E9438388C0169817A81BF
:104420000E94A818F701158304830F900F90DF9165
:10443000CF911F910F91FF90EF900895AF92BF928F
:10444000CF92DF92EF92FF920F931F93CF93DF9360
:10445000CDB7DEB760970FB6F894DEBF0FBECDBF05
:104460008C017B015A01DB0111968D919C91129771
:10447000F80192838183F801A181B281F7018381E0
:1044800094818A179B0769F1C084D18414966D9139
:104490007C911597CE0101960E94A818BE016F5F0E
:1044A0007F4FCE010A96F6011995B501CE010A9605
:1044B0000E940016D82ECE010A960E946216CE01E6
:1044C00001960E946216DD2061F0D8011196ED91EF
:1044D000FC9112978281938112969C938E931197EF
:1044E000CACFC80160960FB6F894DEBF0FBECDBF2D
:1044F000DF91CF911F910F91FF90EF90DF90CF90C0
:10450000BF90AF9008958F929F92AF92BF92EF921B
:10451000FF920F931F93CF93DF93EC017B0149012F
:104520005A01E881F98136970190F081E02DE80F7A
:10453000F91F03891489D8011F968C911F9780FF5A
:104540000BC0ED91FC910084F185E02D20E144E069
:1045500060E070E0C8011995D801ED91FC91008CE4
:10456000F18DE02DA5019401B701C80119956F3FA8
:104570007F4F99F4E881F98136970190F081E02D21
:10458000EC0FFD1F8581982F926023893489232B9E
:1045900011F0958302C083608583CE01DF91CF91B6
:1045A0001F910F91FF90EF90BF90AF909F908F90D1
:1045B0000895CF93DF93EC01E881F981369701905C
:1045C000F081E02DE80FF91F83899489DC01ED91DA
:1045D000FC910484F585E02D1995019659F4E88144
:1045E000F98136970190F081E02DEC0FFD1F858158
:1045F00081608583CE01DF91CF9108956F927F9284
:104600008F929F92AF92BF92CF92DF92EF92FF92E2
:104610000F931F93CF93DF9300D01F92CDB7DEB7D8
:104620003C018B01DC01ED91FC9136970190F0810A
:10463000E02D3296E80FF91FC284D384E484F58418
:10464000C21AD30AE40AF50A818192818E709927F1
:10465000049761F546015701181419041A041B0444
:10466000D4F4B1E08B1A9108A108B108D301ED91FF
:10467000FC9136970190F081E02DE60DF71D6089E1
:10468000C30129833A834B835C8332DE5C814B8197
:104690003A812981E1CFD701C601F7FE03C080E04E
:1046A00090E0DC01C81AD90AEA0AFB0AB801C30182
:1046B0002ADFD301ED91FC9136970190F081E02D36
:1046C000E60DF71D838194818E709927029701F181
:1046D000D301ED91FC91369780819181860D971DD4
:1046E000FC0114861586168617860F900F900F9082
:1046F0000F90DF91CF911F910F91FF90EF90DF907E
:10470000CF90BF90AF909F908F907F906F900895C3
:104710001C141D041E041F04DCF6F1E0CF1AD1089E
:10472000E108F108D301ED91FC9136970190F081F9
:10473000E02DE60DF71D6089C301DADDE9CF21E048
:10474000FC012083FB01A081B18116978D919C9182
:10475000E80FF91F81899289009709F02ACF0895FF
:104760000F931F93CF93DF931F92CDB7DEB78C01CA
:10477000BC01CE010196E3DF6AE0C801B9DDC801E2
:1047800018DFC8010F90DF91CF911F910F9108950D
:10479000EF92FF920F931F93CF93DF931F92CDB7AA
:1047A000DEB78C017B01BC01CE010196C8DFF701A9
:1047B00001900020E9F731979F012E193F0940E051
:1047C00050E0B701C8011ADFC8010F90DF91CF9107
:1047D0001F910F91FF90EF90089566EF74E081E8CC
:1047E00097E0D6DFBDCF089508950C94CD38DC0155
:1047F000ED91FC91369720813181820F931FF5CF87
:10480000FB0120813181FC0131832083FB01428146
:104810005381F901369720813181FC01E20FF31FAA
:1048200051834083089523EB33E0FC0131832083DF
:1048300003960C947016CF93DF93EC01F4DFCE0156
:10484000DF91CF910C94CD3823EB33E0FC01318321
:10485000208303960C947016CF93DF93EC01F4DF62
:10486000CE01DF91CF910C94CD38DB012D913C919D
:104870001197FC0131832083F90136970190F08173
:10488000E02DE80FF91F12962D913C91139731837B
:104890002083DC0112961D921D921D921C92159789
:1048A00081E290E094838383548B438B1582158A35
:1048B00008950F931F93CF93DF938C01EB018881B1
:1048C0009981F801918380832A853B85FC01369785
:1048D0000190F081E02DE00FF11F318320838C8562
:1048E0009D85F801978386836A5F7F4FC80106968E
:1048F0000E949812BE016E5F7F4FC801DF91CF9179
:104900001F910F917DCFCF93DF93EC0183E793E06D
:104910009983888387E893E0998788878DE793E078
:104920009F838E8365E673E0CE0106960E949812FF
:1049300061E673E0CE01DF91CF9162CF0697E3CFBE
:10494000DC01ED91FC91369720813181820F931F1C
:10495000DACFCF93DF93EC01D6DFCE01DF91CF9199
:104960000C94CD380697F5CFDC01ED91FC9136978C
:1049700020813181820F931FECCFCF93DF93EC0125
:1049800087E493E0998388838BE593E09CA38BA3D2
:1049900081E593E09F838E83CE010896EADB6FE288
:1049A00073E0CE01DF91CF9184CF0697E6CFDC0193
:1049B000ED91FC91369720813181820F931FDDCFDD
:1049C000CF93DF93EC01D9DFCE01DF91CF910C942F
:1049D000CD380697F5CFDC01ED91FC91369720811B
:1049E0003181820F931FECCFFC0190810180F28115
:1049F000E02DF8948181892B81832281892F8095F4
:104A000028232283A7E0B0E01197F1F721818223C8
:104A10008183A3E2B0E01197F1F780817894EFEC05
:104A2000F0E03197F1F7982381E009F480E00895F0
:104A3000FC0190810180F281E02D892F809560FF3B
:104A400012C0F8942281822382838181892B818301
:104A5000A3E2B0E01197F1F78281982B92837894CA
:104A600087ED90E011C0F8942281822382838181B6
:104A7000892B8183AFEFB0E01197F1F78281982BFA
:104A8000928378948FE090E00197F1F70895CF92A8
:104A9000DF92EF92FF920F931F93CF93DF931F92BA
:104AA000CDB7DEB76C01E62E08E010E0FF24F394EA
:104AB00061E08F2D8E2109F460E0C6014983B8DFE3
:104AC000FF0C0150110949810115110589F74111A8
:104AD00015C0F894D6011196ED91FC911297918131
:104AE0008C918095892381831196ED91FC91129789
:104AF00092818C9180958923828378940F90DF91A5
:104B0000CF911F910F91FF90EF90DF90CF9008957C
:104B1000FC0190810180F281E02DF8948181292FA0
:104B200020958223818378948DE743E050E0815083
:104B300021F1DA011197F1F730813923C1F3F894AB
:104B40008281822382838181892B81837894ABE760
:104B5000B7E01197F1F7F894818128232183A3E12D
:104B6000B1E01197F1F78081982381E009F080E0AE
:104B70007894E3E6F6E03197F1F70895CF93DF9369
:104B8000EC018C899D89C4DF882331F0BE01645F0C
:104B90007F4F8C899D890DD7DF91CF910895EF923A
:104BA000FF920F931F93CF93DF93EC018B017A0158
:104BB0006E5F7F4F5ADEB8016A5F7F4FA701CE015B
:104BC00006960E94D212F801808191819983888390
:104BD00022853385FC0136970190F081E02DEC0FA2
:104BE000FD1F31832083F801848595859F838E8303
:104BF000DF91CF911F910F91FF90EF9008952F9229
:104C00003F924F925F926F927F928F929F92AF925C
:104C1000BF92CF92DF92EF92FF920F931F93CF93A9
:104C2000DF93CDB7DEB7EF970FB6F894DEBF0FBEB8
:104C3000CDBF8C0167E075E081E897E0A9DD90DDEC
:104C40001C8E1D8E1E8E1F8E18A219A21AA21BA2C8
:104C500068012EE0C20ED11CD8015B968C918111A7
:104C600062C0C60155DF811105C0F801118E138E97
:104C7000128EE5C140E060EFC60109DFEE24E39447
:104C8000B12CA12CFF24F394C601AEDE682FC6011F
:104C90006FAFAADE6FAD613019F48130D1F436C048
:104CA0002B2D30E068131EC0D80159968C91F81650
:104CB00038F4F801E20FF31F81898E2151F402C00C
:104CC000F81639F060E0B8E0BF1558F0F801F28E40
:104CD00008C0F801EB0DF11D81898E29818B61E0FF
:104CE00009C0AF2CF801E20FF31F91898E2D80953A
:104CF0008923818BC6019CDEF394EE0C19F4B394E6
:104D0000EE24E394F7E0FB1508F0BECF20E42F1566
:104D100050F4D8015996AC925997A1109AC281E0EB
:104D20005B968C9396C2F801118E138E128E80E0E2
:104D3000D80151967E01FCE1EF0EF11C5E0124E2E8
:104D4000A20EB11CF7019D919193EA15FB05D9F7CD
:104D5000882309F474C1D701E0E087E08E0D8A173B
:104D600039F09D91E927F0E0E85AFD4FE491F7CF43
:104D70008BA1E81308C3B701CE0101960E947017FA
:104D80006AE175E081E897E003DD2D813E8140E036
:104D900050E069817A81B7DBE3DCCE0101960E94A5
:104DA0006216B701CE0143960E947017D8011C9677
:104DB0008D909C901D97AE014D5E5F4FB401C50173
:104DC0003DDB6DA07EA0F40183819481861597055B
:104DD00061F140845184D30114966D917C911597B3
:104DE000CE0101960E94A818BE016F5F7F4FCE01D1
:104DF0000A96F2011995BE01665F7F4FCE01439678
:104E00000E940016782ECE010A960E946216CE01EC
:104E100001960E946216772031F0D40113966D90AE
:104E20007C90149702C06DA07EA0CE0143960E9494
:104E30006216D8011C96ED91FC911D978381948197
:104E400069E175E08615970509F0C7C081E897E02C
:104E50009FDC6CE175E09CDC83DCB701CE01C2967F
:104E60000E947017F80184849584AE014E5C5F4FF8
:104E7000B401CE01CC96E2DAEDADFEADD4011396CD
:104E80008D919C9114978E179F0749F064817581CD
:104E9000CE01C2960E940016882309F471C08E01CB
:104EA0000F5F1F4F2FEF3FEF40E050E0BE016E5C01
:104EB0007F4FCE0143960E942B171B8E1A8ED40172
:104EC00018960D911C911997BE016D5E7F4FCE0112
:104ED00001960E94A818BE016F5F7F4FCE010A960F
:104EE000F8011995AE01465F5F4FB401CE01C99636
:104EF000A5DACE010A960E946216CE0101960E94A2
:104F00006216EAADFBADD40113968D919C91149776
:104F1000E817F90709F0C9C1F40185819681892B49
:104F200009F09EC186E090E00E9438388C01BE01F5
:104F30006D5E7F4F5ADAD40112961C930E9311972F
:104F40001396ED91FC91149711830083D80111966B
:104F50001C921E921396FC93EE93129781E090E0C0
:104F6000F40196838583D4011396ED91FC911497F7
:104F7000908181819DAF8EAFCE0143960E946216D3
:104F8000EDADFEADA480B5808C8D883279F486E1DC
:104F900090E00E9438388C01A601B7010E94291BBD
:104FA0008FE893E0F8019183808310C0853879F40D
:104FB00086E190E00E9438388C01A601B7010E947A
:104FC000291B87EA93E0D8018D939C931801F50182
:104FD00027823086CE01C2962FC081E897E0D8DBC9
:104FE0006AED74E0D5DBBCDBA50165ED74E0CE01B4
:104FF0000A960E94ED1AAE014D5E5F4F6AED74E0B5
:10500000CE0101960E94ED1AD3011496ED91FC9108
:10501000159787819085BE016F5F7F4F02960E9432
:105020009A19BE01665F7F4F0E94FB16CE01019662
:105030000E946216CE010A960E946216A4C1D8018F
:105040001C96ED91FC911D97E180F280D8011C9691
:10505000ED91FC911D97838194818E159F0509F434
:10506000E7C0D7011496ED91FC9115976781708583
:10507000DB01ED91FC910680F781E02DCE010196D8
:105080001995CD80DE80BDE0CB16D10410F4A601C9
:1050900002C04DE050E068EE74E089819A810E9480
:1050A0008E39009779F4EDE0CE16D10428F0FDE0BA
:1050B000CF16D10439F402C08FEF9FEFDD24D394D3
:1050C000892B09F0D12CCE0101960E946216DD20B9
:1050D00009F4AAC0AE014D5E5F4F6AED74E0CE01E7
:1050E00001960E94ED1AD7011496ED91FC91159747
:1050F00067817085AE014F5F5F4FCE010A960E94B7
:10510000C01BCE84DF84CE010A960E946216CE01B7
:1051100001960E946216CD2809F05AC0D701149654
:10512000ED91FC91159787819085009739F0DC010E
:10513000ED91FC910280F381E02D1995F801C48472
:10514000D584D60113968D919C911497E816F90693
:1051500009F46AC011968D919C911297D70112960D
:10516000ED91FC911397E816F90641F41182108233
:10517000D6011296FC93EE9311970DC0D7018D9135
:105180009C911197918380838D919C91DC01139662
:10519000FC93EE931297F701A480B580A114B1049B
:1051A00031F0C5010E946216C5010E94CD38E1149C
:1051B000F10419F0C7010E94CD38D60115968D91E2
:1051C0009C911697019716969C938E9315972CC0D9
:1051D000AE014C5D5F4F6BE175E0CE010A960E9417
:1051E000ED1AAE014D5E5F4F6AED74E0CE0101969F
:1051F0000E94ED1AD7011496ED91FC9115978781C5
:105200009085BE016F5F7F4F02960E949A19BE0182
:10521000665F7F4F0E94FB16CE0101960E946216C8
:10522000CE010A960E946216F701E280F3800ECF4B
:1052300059961C9259975B961C925B975A961C92B2
:10524000F80179960F5E1F4F1292E017F107E1F710
:105250009AC0F8018189882309F465CD81E068CD81
:1052600086E090E00E9438388C01BE016D5E7F4F71
:10527000BCD8D4011396ED91FC9114978081918153
:10528000D80111969C938E931396FC93EE931297EC
:10529000A081B18113961C930E9312971183008302
:1052A000F4018581968101965CCED40118960D910A
:1052B0001C91199764817581CE0101960E94A818EE
:1052C000BE016F5F7F4FC501F8011995D401189693
:1052D0000D911C911997BE016D5E7F4FCE010A960C
:1052E0000E94A818BE01665F7F4FCE018B96F80121
:1052F0001995B501CE018B960E940016182FCE018C
:105300008B960E946216CE010A960E946216C50113
:105310000E946216CE0101960E946216AAACBBAC36
:10532000112371F186E090E00E9438388C01BE01B3
:105330006D5E7F4F5AD8D5018D919C91F801918374
:105340008083B382A282892B31F4D40112961C93FC
:105350000E93119705C0D501ED91FC911383028343
:10536000F50111830083D40115968D919C911697B8
:10537000019616969C938E931597902F812FFACDB8
:105380009A2D8B2DF7CD80E0EF960FB6F894DEBF07
:105390000FBECDBFDF91CF911F910F91FF90EF9086
:1053A000DF90CF90BF90AF909F908F907F906F9045
:1053B0005F904F903F902F900895FC01A089B18994
:1053C0008C91A689B78982FD0FC09C91818D8F5FDA
:1053D0008F73228D821749F0218DDF01A20FB11D3D
:1053E0005D969C93818F08958C910895FC01918D19
:1053F000828D981761F0828DDF01A80FB11D5D9637
:105400008C91928D9F5F9F73928F90E008958FEFA4
:105410009FEF0895FC01918D828D981731F0828D58
:10542000E80FF11D858D90E008958FEF9FEF0895AF
:10543000FC01918D228D892F90E0805C9F4F821B13
:1054400091098F73992708958CE995E0F1DF21E0A8
:10545000892B09F420E0822F089584EE96E0E8DF9E
:1054600021E0892B09F420E0822F0895FC01848D2E
:10547000DF01A80FB11DA35ABF4F2C91848D90E07E
:1054800001968F739927848FA689B7892C93A08959
:10549000B1898C9180648C93938D848D981306C010
:1054A0000288F389E02D80818F7D80830895EF92BB
:1054B000FF920F931F93CF93DF93EC0181E0888FCE
:1054C0009B8D8C8D981305C0E889F989808185FDB5
:1054D00023C0F62E0B8D10E00F5F1F4F0F731127A7
:1054E000E02E8C8DE8120BC00FB607FCFACFE889CE
:1054F000F989808185FFF5CFCE01B8DFF2CF8B8DA2
:10550000FE01E80FF11DE35AFF4FF0820B8FEA898D
:10551000FB898081806207C0EE89FF896083E8890A
:10552000F98980818064808381E090E0DF91CF9170
:105530001F910F91FF90EF900895CF93DF93EC01AF
:10554000888D8823C1F0EA89FB89808185FD05C0AB
:10555000A889B9898C9186FD0EC00FB607FCF5CFDE
:10556000808185FFF2CFA889B9898C9185FFEDCF25
:10557000CE017CDFE8CFDF91CF91089580E090E00D
:10558000892B19F06ADF811120C080E090E0892B1F
:1055900019F05ADF81111CC080E090E0892B41F0A6
:1055A00080E090E0892B21F00E940000811113C05F
:1055B00080E090E0892BA1F080E090E0892B81F0E1
:1055C0000E94000081110AC008950E940000DDCFF2
:1055D0000E940000E1CF0E940000EACF0C9400007E
:1055E00008953FB7F8948091960590919705A09102
:1055F0009805B091990526B5A89B05C02F3F19F0D5
:105600000196A11DB11D3FBFBA2FA92F982F882742
:10561000820F911DA11DB11DBC01CD0142E0660F9D
:10562000771F881F991F4A95D1F708958F929F92EF
:10563000AF92BF92CF92DF92EF92FF920F931F93A0
:10564000CF93DF937C018B016C0182E0C80ED11CEB
:105650004701E5E08E0E911CC0E0D0E0F6014191DB
:105660006F0150E060E070E02AE0C801C3D45C0143
:105670006EE2C8011AD58A0D9B1DC80FD91FC81428
:10568000D90461F7F701458150E060E070E02AE05D
:10569000C801B0D48C0F9D1FDF91CF911F910F9146
:1056A000FF90EF90DF90CF90BF90AF909F908F9042
:1056B00008950E9465392FE834E0FC01318320838E
:1056C000FB014081518162817381FC0142835383DC
:1056D0006483758308951F920F920FB60F92112461
:1056E0000BB60F922F933F934F935F936F937F93DC
:1056F0008F939F93AF93BF93EF93FF938CE995E0C4
:10570000B5DEFF91EF91BF91AF919F918F917F9106
:105710006F915F914F913F912F910F900BBE0F9022
:105720000FBE0F901F9018951F920F920FB60F92F9
:1057300011240BB60F922F933F934F935F936F9368
:105740007F938F939F93AF93BF93EF93FF938CE9D6
:1057500095E033DEFF91EF91BF91AF919F918F91D3
:105760007F916F915F914F913F912F910F900BBE61
:105770000F900FBE0F901F9018951F920F920FB6AB
:105780000F9211240BB60F922F933F934F935F9379
:105790006F937F938F939F93AF93BF93EF93FF93F9
:1057A00084EE96E063DEFF91EF91BF91AF919F9100
:1057B0008F917F916F915F914F913F912F910F90BA
:1057C0000BBE0F900FBE0F901F9018951F920F9257
:1057D0000FB60F9211240BB60F922F933F934F9356
:1057E0005F936F937F938F939F93AF93BF93EF9349
:1057F000FF9384EE96E0E1DDFF91EF91BF91AF91D1
:105800009F918F917F916F915F914F913F912F91D8
:105810000F900BBE0F900FBE0F901F901895CF9357
:10582000DF9390E0FC01E451FC4F2491FC01EA5528
:10583000FC4F8491882361F190E0880F991FFC014F
:10584000EE58FC4FC591D491FC01E85AFC4FA5914C
:10585000B491611109C09FB7F89488812095822383
:105860008883EC912E230BC0623061F49FB7F894CB
:105870003881822F809583238883EC912E2B2C9363
:105880009FBF06C08FB7F894E8812E2B28838FBF67
:10589000DF91CF9108958F929F92AF92BF92CF9256
:1058A000DF92EF92FF926B017C019BDE4B015C016A
:1058B000C114D104E104F104E9F093DEDC01CB0171
:1058C00088199909AA09BB09883E9340A105B10529
:1058D00078F321E0C21AD108E108F10888EE880EB9
:1058E00083E0981EA11CB11CC114D104E104F10491
:1058F00021F7DECFFF90EF90DF90CF90BF90AF9079
:105900009F908F9008952FB7F894609192057091B1
:10591000930580919405909195052FBF08951F924E
:105920000F920FB60F9211242F933F938F939F9353
:10593000AF93BF938091920590919305A0919405A8
:10594000B09195053091910523E0230F2D3720F478
:105950000196A11DB11D05C026E8230F0296A11DC9
:10596000B11D209391058093920590939305A09388
:105970009405B09395058091960590919705A09117
:105980009805B09199050196A11DB11D80939605CA
:1059900090939705A0939805B0939905BF91AF9107
:1059A0009F918F913F912F910F900FBE0F901F905D
:1059B0001895CF92DF92EF92FF920F931F93CF93A0
:1059C000DF931F92CDB7DEB78C01F62E40E065E580
:1059D00079835DD8CF2C7981D72E760188E0E80EC7
:1059E000F11CF60161916F0140E0C80150D8CE145E
:1059F000DF04B9F70F90DF91CF911F910F91FF90C6
:105A0000EF90DF90CF900895CF92DF92EF92FF92C8
:105A1000CF93DF93EC0177DF6B017C018091390636
:105A200090913A06DC01ED91FC910480F581E02D26
:105A30001995892B71F467DFAB01BC014C195D0925
:105A40006E097F0948395A436105710538F380E0D2
:105A50000DC08091390690913A06DC01ED91FC91E0
:105A60000680F781E02D1995888381E0DF91CF9141
:105A7000FF90EF90DF90CF900895CF92DF92EF925A
:105A8000FF920F931F93CF93DF936C017A018B01E9
:105A9000C0E0D0E0CE15DF0589F0D8016D918D0111
:105AA000D601ED91FC910190F081E02DC601199590
:105AB000892B11F47E0102C02196ECCFC701DF9142
:105AC000CF911F910F91FF90EF90DF90CF900895AD
:105AD0005F926F927F928F929F92AF92BF92CF927E
